{
  "abi": [
    {
      "inputs": [
        {
          "internalType": "address",
          "name": "brokerAddress",
          "type": "address"
        }
      ],
      "stateMutability": "nonpayable",
      "type": "constructor"
    },
    {
      "anonymous": false,
      "inputs": [
        {
          "indexed": false,
          "internalType": "uint256",
          "name": "requestID",
          "type": "uint256"
        }
      ],
      "name": "requestSubmitted",
      "type": "event"
    },
    {
      "inputs": [],
      "name": "brokerContract",
      "outputs": [
        {
          "internalType": "contract ExecutionBroker",
          "name": "",
          "type": "address"
        }
      ],
      "stateMutability": "view",
      "type": "function"
    },
    {
      "inputs": [],
      "name": "isOwner",
      "outputs": [
        {
          "internalType": "bool",
          "name": "",
          "type": "bool"
        }
      ],
      "stateMutability": "view",
      "type": "function"
    },
    {
      "inputs": [],
      "name": "owner",
      "outputs": [
        {
          "internalType": "address",
          "name": "",
          "type": "address"
        }
      ],
      "stateMutability": "view",
      "type": "function"
    }
  ],
  "bytecode": "608060405234801561001057600080fd5b5060405161017038038061017083398101604081905261002f91610062565b600080546001600160a01b03199081163317909155600180546001600160a01b0390931692909116919091179055610092565b60006020828403121561007457600080fd5b81516001600160a01b038116811461008b57600080fd5b9392505050565b60d0806100a06000396000f3fe6080604052348015600f57600080fd5b5060043610603c5760003560e01c80638da5cb5b1460415780638f32d59b14606b578063c2c56245146088575b600080fd5b6000546001600160a01b03165b6040516001600160a01b0390911681526020015b60405180910390f35b6000546001600160a01b0316331460405190151581526020016062565b600154604e906001600160a01b03168156fea264697066735822122038716caeff058b011f211680f4f7e3acb9029a710d32986e8359605e0e79c36a64736f6c63430008130033",
  "bytecodeSha1": "572154e39ee19d978a9fb235529857f7759e3769",
  "compiler": {
    "evm_version": "istanbul",
    "optimizer": {
      "enabled": true,
      "runs": 200
    },
    "version": "0.8.19+commit.7dd6d404"
  },
  "contractName": "ClientImplementation",
  "language": "Solidity",
  "natspec": {
    "kind": "dev",
    "methods": {},
    "version": 1
  },
  "opcodes": "PUSH1 0x80 PUSH1 0x40 MSTORE CALLVALUE DUP1 ISZERO PUSH1 0xF JUMPI PUSH1 0x0 DUP1 REVERT JUMPDEST POP PUSH1 0x4 CALLDATASIZE LT PUSH1 0x3C JUMPI PUSH1 0x0 CALLDATALOAD PUSH1 0xE0 SHR DUP1 PUSH4 0x8DA5CB5B EQ PUSH1 0x41 JUMPI DUP1 PUSH4 0x8F32D59B EQ PUSH1 0x6B JUMPI DUP1 PUSH4 0xC2C56245 EQ PUSH1 0x88 JUMPI JUMPDEST PUSH1 0x0 DUP1 REVERT JUMPDEST PUSH1 0x0 SLOAD PUSH1 0x1 PUSH1 0x1 PUSH1 0xA0 SHL SUB AND JUMPDEST PUSH1 0x40 MLOAD PUSH1 0x1 PUSH1 0x1 PUSH1 0xA0 SHL SUB SWAP1 SWAP2 AND DUP2 MSTORE PUSH1 0x20 ADD JUMPDEST PUSH1 0x40 MLOAD DUP1 SWAP2 SUB SWAP1 RETURN JUMPDEST PUSH1 0x0 SLOAD PUSH1 0x1 PUSH1 0x1 PUSH1 0xA0 SHL SUB AND CALLER EQ PUSH1 0x40 MLOAD SWAP1 ISZERO ISZERO DUP2 MSTORE PUSH1 0x20 ADD PUSH1 0x62 JUMP JUMPDEST PUSH1 0x1 SLOAD PUSH1 0x4E SWAP1 PUSH1 0x1 PUSH1 0x1 PUSH1 0xA0 SHL SUB AND DUP2 JUMP INVALID LOG2 PUSH5 0x6970667358 0x22 SLT KECCAK256 CODESIZE PUSH18 0x6CAEFF058B011F211680F4F7E3ACB9029A71 0xD ORIGIN SWAP9 PUSH15 0x8359605E0E79C36A64736F6C634300 ADDMOD SGT STOP CALLER ",
  "sha1": "7fe18764894c15aaaf2f61c0e138af4cb42f8694",
  "source": "// SPDX-License-Identifier: GPL-3.0\n\npragma solidity >=0.7.0 <0.9.0;\n\nimport \"./BaseClient.sol\";\n\n\ncontract ClientImplementation is BaseClient {\n\n    constructor(address brokerAddress) BaseClient(brokerAddress) {}\n/*\n    function clientLogic(ClientInput calldata input) external override pure returns (bytes memory) {\n        bytes memory output = \"\";\n        if (input.functionToRun == 1) { output = functionOne(input.data); }\n        else if (input.functionToRun == 2) { output = functionTwo(input.data); }\n        else if (input.functionToRun == 3) { output = functionThree(input.data); }\n        return output;\n    }\n\n    struct OneInput {uint counter;}\n    function functionOne(bytes memory data) private pure returns (bytes memory) {\n        OneInput memory input = abi.decode(data, (OneInput));\n        return abi.encode(input.counter * 10);\n    }\n\n    struct TwoInput {uint counter;}\n    function functionTwo(bytes memory data) private pure returns (bytes memory) {\n        TwoInput memory input = abi.decode(data, (TwoInput));\n        return abi.encode(input.counter + 7);\n    }\n\n    struct ThreeInput {uint counter;}\n    function functionThree(bytes memory data) private pure returns (bytes memory) {\n        ThreeInput memory input = abi.decode(data, (ThreeInput));\n        return abi.encode(input.counter + 4);\n    }\n\n    function getInputStructure(uint functionID) external override pure returns (string memory) {\n        if (functionID == 1) { return \"{uint counter;}\"; }\n        else if (functionID == 2) { return \"{uint counter;}\"; }\n        else if (functionID == 3) { return \"{uint counter;}\"; }\n        else { return \"Indavild function ID\"; }\n    }\n\n    function processResult(bytes calldata result) external onlyBroker override {\n        require(address(this).balance >= 1000 gwei, \"Insufficient funds\");\n        uint functionToRun;\n        uint counter = abi.decode(result, (uint));\n        if (counter < 100) {\n            if (counter % 10 == 0) {\n                if ((counter/10) % 2 == 0) {\n                    functionToRun = 2;\n                } else {\n                    functionToRun = 3;\n                }\n            } else {\n                functionToRun = 1;\n            }\n        }\n        ClientInput memory input = ClientInput({\n            functionToRun: functionToRun,\n            data: abi.encode(counter)\n        });\n        uint requestID = brokerContract.submitRequest{value: 1000 gwei}(input, 200000 wei, 1000 gwei, 1 minutes);\n        emit requestSubmitted(requestID);\n    }*/\n}",
  "sourcePath": "contracts/ClientImplementation.sol",
  "type": "contract"
}