{
  "abi": [
    {
      "inputs": [
        {
          "internalType": "uint256",
          "name": "executionTimeFrame",
          "type": "uint256"
        },
        {
          "internalType": "uint256",
          "name": "baseStakeAmount",
          "type": "uint256"
        },
        {
          "internalType": "uint256",
          "name": "maximumPower",
          "type": "uint256"
        },
        {
          "internalType": "uint256",
          "name": "maximumExecutors",
          "type": "uint256"
        }
      ],
      "stateMutability": "nonpayable",
      "type": "constructor"
    },
    {
      "anonymous": false,
      "inputs": [
        {
          "indexed": false,
          "internalType": "address",
          "name": "executorAddress",
          "type": "address"
        }
      ],
      "name": "executorLocked",
      "type": "event"
    },
    {
      "anonymous": false,
      "inputs": [
        {
          "indexed": false,
          "internalType": "address",
          "name": "executorAddress",
          "type": "address"
        }
      ],
      "name": "executorPunished",
      "type": "event"
    },
    {
      "anonymous": false,
      "inputs": [
        {
          "indexed": false,
          "internalType": "address",
          "name": "executorAddress",
          "type": "address"
        }
      ],
      "name": "executorUnlocked",
      "type": "event"
    },
    {
      "anonymous": false,
      "inputs": [
        {
          "indexed": false,
          "internalType": "uint256",
          "name": "requestID",
          "type": "uint256"
        },
        {
          "indexed": false,
          "internalType": "uint256",
          "name": "coincidences",
          "type": "uint256"
        }
      ],
      "name": "requestClosed",
      "type": "event"
    },
    {
      "anonymous": false,
      "inputs": [
        {
          "indexed": false,
          "internalType": "uint256",
          "name": "requestID",
          "type": "uint256"
        }
      ],
      "name": "requestSubmissionsLocked",
      "type": "event"
    },
    {
      "anonymous": false,
      "inputs": [
        {
          "indexed": false,
          "internalType": "uint256",
          "name": "requestID",
          "type": "uint256"
        },
        {
          "indexed": false,
          "internalType": "address",
          "name": "submitter",
          "type": "address"
        }
      ],
      "name": "resultSubmitted",
      "type": "event"
    },
    {
      "inputs": [],
      "name": "BASE_STAKE_AMOUNT",
      "outputs": [
        {
          "internalType": "uint256",
          "name": "",
          "type": "uint256"
        }
      ],
      "stateMutability": "view",
      "type": "function"
    },
    {
      "inputs": [],
      "name": "EXECUTION_TIME_FRAME_SECONDS",
      "outputs": [
        {
          "internalType": "uint256",
          "name": "",
          "type": "uint256"
        }
      ],
      "stateMutability": "view",
      "type": "function"
    },
    {
      "inputs": [],
      "name": "MAXIMUM_EXECUTION_POWER",
      "outputs": [
        {
          "internalType": "uint256",
          "name": "",
          "type": "uint256"
        }
      ],
      "stateMutability": "view",
      "type": "function"
    },
    {
      "inputs": [],
      "name": "MAXIMUM_EXECUTORS_PER_REQUEST",
      "outputs": [
        {
          "internalType": "uint256",
          "name": "",
          "type": "uint256"
        }
      ],
      "stateMutability": "view",
      "type": "function"
    },
    {
      "inputs": [],
      "name": "activateExecutor",
      "outputs": [],
      "stateMutability": "payable",
      "type": "function"
    },
    {
      "inputs": [],
      "name": "executorsCollection",
      "outputs": [
        {
          "internalType": "uint256",
          "name": "amountOfActiveExecutors",
          "type": "uint256"
        }
      ],
      "stateMutability": "view",
      "type": "function"
    },
    {
      "inputs": [
        {
          "internalType": "uint256",
          "name": "position",
          "type": "uint256"
        }
      ],
      "name": "getActiveExecutorByIndex",
      "outputs": [
        {
          "components": [
            {
              "internalType": "address",
              "name": "executorAddress",
              "type": "address"
            },
            {
              "internalType": "uint256",
              "name": "assignedRequestID",
              "type": "uint256"
            },
            {
              "internalType": "uint256",
              "name": "taskAssignmentIndex",
              "type": "uint256"
            },
            {
              "internalType": "uint256",
              "name": "lockedWei",
              "type": "uint256"
            },
            {
              "internalType": "uint256",
              "name": "accurateSolvings",
              "type": "uint256"
            },
            {
              "internalType": "uint256",
              "name": "inaccurateSolvings",
              "type": "uint256"
            },
            {
              "internalType": "uint256",
              "name": "timesPunished",
              "type": "uint256"
            }
          ],
          "internalType": "struct Executor",
          "name": "executor",
          "type": "tuple"
        }
      ],
      "stateMutability": "view",
      "type": "function"
    },
    {
      "inputs": [
        {
          "internalType": "uint256",
          "name": "position",
          "type": "uint256"
        }
      ],
      "name": "getActiveExecutorByPosition",
      "outputs": [
        {
          "components": [
            {
              "internalType": "address",
              "name": "executorAddress",
              "type": "address"
            },
            {
              "internalType": "uint256",
              "name": "assignedRequestID",
              "type": "uint256"
            },
            {
              "internalType": "uint256",
              "name": "taskAssignmentIndex",
              "type": "uint256"
            },
            {
              "internalType": "uint256",
              "name": "lockedWei",
              "type": "uint256"
            },
            {
              "internalType": "uint256",
              "name": "accurateSolvings",
              "type": "uint256"
            },
            {
              "internalType": "uint256",
              "name": "inaccurateSolvings",
              "type": "uint256"
            },
            {
              "internalType": "uint256",
              "name": "timesPunished",
              "type": "uint256"
            }
          ],
          "internalType": "struct Executor",
          "name": "executor",
          "type": "tuple"
        }
      ],
      "stateMutability": "view",
      "type": "function"
    },
    {
      "inputs": [],
      "name": "getActiveExecutorsList",
      "outputs": [
        {
          "internalType": "address[]",
          "name": "",
          "type": "address[]"
        }
      ],
      "stateMutability": "view",
      "type": "function"
    },
    {
      "inputs": [
        {
          "internalType": "address",
          "name": "executorAddress",
          "type": "address"
        }
      ],
      "name": "getActiveIndexOfExecutorByAddress",
      "outputs": [
        {
          "internalType": "uint256",
          "name": "",
          "type": "uint256"
        }
      ],
      "stateMutability": "view",
      "type": "function"
    },
    {
      "inputs": [],
      "name": "getAmountOfActiveExecutors",
      "outputs": [
        {
          "internalType": "uint256",
          "name": "",
          "type": "uint256"
        }
      ],
      "stateMutability": "view",
      "type": "function"
    },
    {
      "inputs": [
        {
          "internalType": "address",
          "name": "executorAddress",
          "type": "address"
        }
      ],
      "name": "getBusyExecutorByAddress",
      "outputs": [
        {
          "components": [
            {
              "internalType": "address",
              "name": "executorAddress",
              "type": "address"
            },
            {
              "internalType": "uint256",
              "name": "assignedRequestID",
              "type": "uint256"
            },
            {
              "internalType": "uint256",
              "name": "taskAssignmentIndex",
              "type": "uint256"
            },
            {
              "internalType": "uint256",
              "name": "lockedWei",
              "type": "uint256"
            },
            {
              "internalType": "uint256",
              "name": "accurateSolvings",
              "type": "uint256"
            },
            {
              "internalType": "uint256",
              "name": "inaccurateSolvings",
              "type": "uint256"
            },
            {
              "internalType": "uint256",
              "name": "timesPunished",
              "type": "uint256"
            }
          ],
          "internalType": "struct Executor",
          "name": "",
          "type": "tuple"
        }
      ],
      "stateMutability": "view",
      "type": "function"
    },
    {
      "inputs": [
        {
          "internalType": "address",
          "name": "executorAddress",
          "type": "address"
        }
      ],
      "name": "getExecutorByAddress",
      "outputs": [
        {
          "components": [
            {
              "internalType": "address",
              "name": "executorAddress",
              "type": "address"
            },
            {
              "internalType": "uint256",
              "name": "assignedRequestID",
              "type": "uint256"
            },
            {
              "internalType": "uint256",
              "name": "taskAssignmentIndex",
              "type": "uint256"
            },
            {
              "internalType": "uint256",
              "name": "lockedWei",
              "type": "uint256"
            },
            {
              "internalType": "uint256",
              "name": "accurateSolvings",
              "type": "uint256"
            },
            {
              "internalType": "uint256",
              "name": "inaccurateSolvings",
              "type": "uint256"
            },
            {
              "internalType": "uint256",
              "name": "timesPunished",
              "type": "uint256"
            }
          ],
          "internalType": "struct Executor",
          "name": "executor",
          "type": "tuple"
        }
      ],
      "stateMutability": "view",
      "type": "function"
    },
    {
      "inputs": [
        {
          "internalType": "address",
          "name": "executorAddress",
          "type": "address"
        }
      ],
      "name": "getExecutorStateByAddress",
      "outputs": [
        {
          "internalType": "string",
          "name": "executorState",
          "type": "string"
        }
      ],
      "stateMutability": "view",
      "type": "function"
    },
    {
      "inputs": [
        {
          "internalType": "address",
          "name": "executorAddress",
          "type": "address"
        }
      ],
      "name": "getInactiveExecutorByAddress",
      "outputs": [
        {
          "components": [
            {
              "internalType": "address",
              "name": "executorAddress",
              "type": "address"
            },
            {
              "internalType": "uint256",
              "name": "assignedRequestID",
              "type": "uint256"
            },
            {
              "internalType": "uint256",
              "name": "taskAssignmentIndex",
              "type": "uint256"
            },
            {
              "internalType": "uint256",
              "name": "lockedWei",
              "type": "uint256"
            },
            {
              "internalType": "uint256",
              "name": "accurateSolvings",
              "type": "uint256"
            },
            {
              "internalType": "uint256",
              "name": "inaccurateSolvings",
              "type": "uint256"
            },
            {
              "internalType": "uint256",
              "name": "timesPunished",
              "type": "uint256"
            }
          ],
          "internalType": "struct Executor",
          "name": "",
          "type": "tuple"
        }
      ],
      "stateMutability": "view",
      "type": "function"
    },
    {
      "inputs": [
        {
          "internalType": "uint256",
          "name": "requestID",
          "type": "uint256"
        },
        {
          "components": [
            {
              "internalType": "string",
              "name": "data",
              "type": "string"
            },
            {
              "internalType": "address",
              "name": "issuer",
              "type": "address"
            }
          ],
          "internalType": "struct Result",
          "name": "result",
          "type": "tuple"
        }
      ],
      "name": "liberateResult",
      "outputs": [],
      "stateMutability": "nonpayable",
      "type": "function"
    },
    {
      "inputs": [
        {
          "internalType": "bool",
          "name": "withrawLockedFunds",
          "type": "bool"
        }
      ],
      "name": "pauseExecutor",
      "outputs": [
        {
          "internalType": "bool",
          "name": "",
          "type": "bool"
        }
      ],
      "stateMutability": "nonpayable",
      "type": "function"
    },
    {
      "inputs": [
        {
          "internalType": "uint256",
          "name": "amount",
          "type": "uint256"
        },
        {
          "internalType": "address",
          "name": "destination",
          "type": "address"
        }
      ],
      "name": "publicTransferFunds",
      "outputs": [
        {
          "internalType": "bool",
          "name": "",
          "type": "bool"
        }
      ],
      "stateMutability": "nonpayable",
      "type": "function"
    },
    {
      "inputs": [],
      "name": "registerExecutor",
      "outputs": [],
      "stateMutability": "payable",
      "type": "function"
    },
    {
      "inputs": [],
      "name": "requestCount",
      "outputs": [
        {
          "internalType": "uint256",
          "name": "",
          "type": "uint256"
        }
      ],
      "stateMutability": "view",
      "type": "function"
    },
    {
      "inputs": [
        {
          "internalType": "uint256",
          "name": "",
          "type": "uint256"
        }
      ],
      "name": "requests",
      "outputs": [
        {
          "internalType": "uint256",
          "name": "id",
          "type": "uint256"
        },
        {
          "internalType": "address",
          "name": "clientAddress",
          "type": "address"
        },
        {
          "internalType": "string",
          "name": "inputState",
          "type": "string"
        },
        {
          "internalType": "string",
          "name": "codeReference",
          "type": "string"
        },
        {
          "internalType": "uint256",
          "name": "executionPowerPaidFor",
          "type": "uint256"
        },
        {
          "components": [
            {
              "internalType": "string",
              "name": "data",
              "type": "string"
            },
            {
              "internalType": "address",
              "name": "issuer",
              "type": "address"
            }
          ],
          "internalType": "struct Result",
          "name": "result",
          "type": "tuple"
        },
        {
          "internalType": "bool",
          "name": "submissionsLocked",
          "type": "bool"
        },
        {
          "internalType": "bool",
          "name": "closed",
          "type": "bool"
        }
      ],
      "stateMutability": "view",
      "type": "function"
    },
    {
      "inputs": [
        {
          "internalType": "uint256",
          "name": "requestID",
          "type": "uint256"
        },
        {
          "internalType": "uint256",
          "name": "randomSeed",
          "type": "uint256"
        }
      ],
      "name": "rotateExecutors",
      "outputs": [
        {
          "internalType": "bool",
          "name": "",
          "type": "bool"
        }
      ],
      "stateMutability": "nonpayable",
      "type": "function"
    },
    {
      "inputs": [
        {
          "internalType": "string",
          "name": "inputState",
          "type": "string"
        },
        {
          "internalType": "string",
          "name": "codeReference",
          "type": "string"
        },
        {
          "internalType": "uint256",
          "name": "amountOfExecutors",
          "type": "uint256"
        },
        {
          "internalType": "uint256",
          "name": "executionPowerPaidFor",
          "type": "uint256"
        },
        {
          "internalType": "uint256",
          "name": "randomSeed",
          "type": "uint256"
        }
      ],
      "name": "submitRequest",
      "outputs": [
        {
          "internalType": "uint256",
          "name": "",
          "type": "uint256"
        }
      ],
      "stateMutability": "payable",
      "type": "function"
    },
    {
      "inputs": [
        {
          "internalType": "uint256",
          "name": "requestID",
          "type": "uint256"
        },
        {
          "internalType": "bytes32",
          "name": "signedResultHash",
          "type": "bytes32"
        }
      ],
      "name": "submitSignedResultHash",
      "outputs": [],
      "stateMutability": "nonpayable",
      "type": "function"
    },
    {
      "inputs": [
        {
          "internalType": "uint256",
          "name": "",
          "type": "uint256"
        },
        {
          "internalType": "uint256",
          "name": "",
          "type": "uint256"
        }
      ],
      "name": "taskAssignmentsMap",
      "outputs": [
        {
          "internalType": "address",
          "name": "executorAddress",
          "type": "address"
        },
        {
          "internalType": "uint256",
          "name": "timestamp",
          "type": "uint256"
        },
        {
          "internalType": "bytes32",
          "name": "signedResultHash",
          "type": "bytes32"
        },
        {
          "internalType": "bytes32",
          "name": "unsignedResultHash",
          "type": "bytes32"
        },
        {
          "components": [
            {
              "internalType": "string",
              "name": "data",
              "type": "string"
            },
            {
              "internalType": "address",
              "name": "issuer",
              "type": "address"
            }
          ],
          "internalType": "struct Result",
          "name": "result",
          "type": "tuple"
        },
        {
          "internalType": "bool",
          "name": "submitted",
          "type": "bool"
        },
        {
          "internalType": "bool",
          "name": "liberated",
          "type": "bool"
        }
      ],
      "stateMutability": "view",
      "type": "function"
    },
    {
      "inputs": [
        {
          "internalType": "uint256",
          "name": "requestID",
          "type": "uint256"
        }
      ],
      "name": "truncateExecutors",
      "outputs": [
        {
          "internalType": "bool",
          "name": "",
          "type": "bool"
        }
      ],
      "stateMutability": "nonpayable",
      "type": "function"
    },
    {
      "inputs": [
        {
          "internalType": "uint256",
          "name": "requestID",
          "type": "uint256"
        }
      ],
      "name": "truncateResultLiberation",
      "outputs": [],
      "stateMutability": "nonpayable",
      "type": "function"
    },
    {
      "inputs": [
        {
          "internalType": "address",
          "name": "",
          "type": "address"
        }
      ],
      "name": "weiBalances",
      "outputs": [
        {
          "internalType": "uint256",
          "name": "",
          "type": "uint256"
        }
      ],
      "stateMutability": "view",
      "type": "function"
    }
  ],
  "bytecode": "60806040523480156200001157600080fd5b5060405162004edf38038062004edf8339810160408190526200003491620002ec565b8360018190555082600281905550816003819055508060048190555060006040518060e0016040528060006001600160a01b0316815260200160008152602001600081526020016000815260200160008152602001600081526020016000815250905060006040518061010001604052806000815260200160006001600160a01b0316815260200160405180602001604052806000815250815260200160405180602001604052806000815250815260200160008152602001604051806040016040528060405180602001604052806000815250815260200160006001600160a01b03168152508152602001600015158152602001600115158152509050600760000182908060018154018082558091505060019003906000526020600020906007020160009091909190915060008201518160000160006101000a8154816001600160a01b0302191690836001600160a01b031602179055506020820151816001015560408201518160020155606082015181600301556080820151816004015560a0820151816005015560c08201518160060155505060058190806001815401808255809150506001900390600052602060002090600802016000909190919091506000820151816000015560208201518160010160006101000a8154816001600160a01b0302191690836001600160a01b031602179055506040820151816002019081620002469190620003c8565b50606082015160038201906200025d9082620003c8565b506080820151600482015560a0820151805160058301908190620002829082620003c8565b5060209190910151600190910180546001600160a01b039092166001600160a01b031990921691909117905560c08201516007909101805460e09093015115156101000261ff00199215159290921661ffff19909316929092171790555062000494945050505050565b600080600080608085870312156200030357600080fd5b505082516020840151604085015160609095015191969095509092509050565b634e487b7160e01b600052604160045260246000fd5b600181811c908216806200034e57607f821691505b6020821081036200036f57634e487b7160e01b600052602260045260246000fd5b50919050565b601f821115620003c357600081815260208120601f850160051c810160208610156200039e5750805b601f850160051c820191505b81811015620003bf57828155600101620003aa565b5050505b505050565b81516001600160401b03811115620003e457620003e462000323565b620003fc81620003f5845462000339565b8462000375565b602080601f8311600181146200043457600084156200041b5750858301515b600019600386901b1c1916600185901b178555620003bf565b600085815260208120601f198616915b82811015620004655788860151825594840194600190910190840162000444565b5085821015620004845787850151600019600388901b60f8161c191681555b5050505050600190811b01905550565b614a3b80620004a46000396000f3fe6080604052600436106101b75760003560e01c806373ff9a06116100ec578063adbbcfc91161008a578063d7d4ea5611610064578063d7d4ea561461051b578063ddeafcbd14610532578063ef273c4214610552578063f3a401131461057257600080fd5b8063adbbcfc9146104cf578063c294a668146104ef578063cde5c30b1461050557600080fd5b806392d7f760116100c657806392d7f7601461045a578063979dd28a1461047a5780639f589a7e1461049a578063a78c8bda146104ba57600080fd5b806373ff9a06146103f557806381d12c58146104135780638b8123211461044757600080fd5b806345fc5d34116101595780634f04218f116101335780634f04218f1461037b5780635badbe4c146103915780636e725e65146103a65780636ef9e145146103c857600080fd5b806345fc5d341461031d5780634a1258ec1461033d5780634e395e031461034557600080fd5b806316573d7e1161019557806316573d7e1461029c57806317d85e8d146102c05780632afabb98146102f3578063339c395e146102fd57600080fd5b806304f84ab9146101bc5780630d45c199146101f2578063151520d614610222575b600080fd5b3480156101c857600080fd5b506101dc6101d7366004614120565b610592565b6040516101e99190614181565b60405180910390f35b3480156101fe57600080fd5b5061021261020d366004614194565b6106bd565b60405190151581526020016101e9565b34801561022e57600080fd5b5061024261023d3660046141c0565b6107dd565b6040516101e9919081516001600160a01b031681526020808301519082015260408083015190820152606080830151908201526080808301519082015260a0828101519082015260c0918201519181019190915260e00190565b3480156102a857600080fd5b506102b260015481565b6040519081526020016101e9565b3480156102cc57600080fd5b506102e06102db3660046141d9565b61096b565b6040516101e9979695949392919061422d565b6102fb610a88565b005b34801561030957600080fd5b506102126103183660046141d9565b610c59565b34801561032957600080fd5b50610242610338366004614120565b611113565b6102fb6112f7565b34801561035157600080fd5b506102b2610360366004614120565b6001600160a01b031660009081526008602052604090205490565b34801561038757600080fd5b506102b260025481565b34801561039d57600080fd5b506102b26114e4565b3480156103b257600080fd5b506103bb6114fb565b6040516101e9919061427b565b3480156103d457600080fd5b506102b26103e3366004614120565b60006020819052908152604090205481565b34801561040157600080fd5b506102fb6104103660046141c0565b50565b34801561041f57600080fd5b5061043361042e3660046141c0565b61162a565b6040516101e99897969594939291906142c8565b6102b2610455366004614386565b61184e565b34801561046657600080fd5b5061021261047536600461440c565b611efe565b34801561048657600080fd5b506102fb6104953660046141d9565b6120ce565b3480156104a657600080fd5b506102426104b5366004614120565b6124e4565b3480156104c657600080fd5b50600b546102b2565b3480156104db57600080fd5b506102126104ea3660046141c0565b61255b565b3480156104fb57600080fd5b506102b260035481565b34801561051157600080fd5b506102b260045481565b34801561052757600080fd5b50600b546102b29081565b34801561053e57600080fd5b5061024261054d3660046141c0565b6127ee565b34801561055e57600080fd5b5061024261056d366004614120565b61280a565b34801561057e57600080fd5b506102fb61058d36600461449c565b612881565b6001600160a01b038116600090815260086020526040902054606090156105d557505060408051808201909152600681526561637469766560d01b602082015290565b6001600160a01b038083166000818152600960205260409020549091160361061b575050604080518082019091526008815267696e61637469766560c01b602082015290565b6001600160a01b038083166000818152600a60205260409020549091160361065f5750506040805180820190915260068152651b1bd8dad95960d21b602082015290565b60405162461bcd60e51b815260206004820152603560248201526000805160206149e683398151915260448201527430903932b3b4b9ba32b932b21032bc32b1baba37b960591b60648201526084015b60405180910390fd5b919050565b336000908152602081905260408120548311156107265760405162461bcd60e51b815260206004820152602160248201527f53656e64657220646f6573206e6f74206861766520656e6f7567682066756e646044820152607360f81b60648201526084016106af565b336000908152602081905260408120805485929061074590849061458b565b909155505060405182906000906001600160a01b0383169086908381818185875af1925050503d8060008114610797576040519150601f19603f3d011682016040523d82523d6000602084013e61079c565b606091505b50509050806107d3576001600160a01b038416600090815260208190526040812080548792906107cd90849061459e565b90915550505b9150505b92915050565b6107e56140c3565b600b54821061085c5760405162461bcd60e51b815260206004820152603b60248201527f596f75206172652073656c656374696e67206120706f736974696f6e206f757460448201527f7369646520746865206578697374696e67206578656375746f7273000000000060648201526084016106af565b6000805b60075463ffffffff8216101561096457600780546000919063ffffffff841690811061088e5761088e6145b1565b60009182526020909120600790910201546001600160a01b03161461095257838263ffffffff1603610944576007805463ffffffff83169081106108d4576108d46145b1565b60009182526020918290206040805160e081018252600790930290910180546001600160a01b031683526001810154938301939093526002830154908201526003820154606082015260048201546080820152600582015460a082015260069091015460c0820152949350505050565b8161094e816145c7565b9250505b8061095c816145c7565b915050610860565b5050919050565b6006602052816000526040600020818154811061098757600080fd5b600091825260209091206007909102018054600182015460028301546003840154604080518082019091526004860180546001600160a01b03909616985093965091949093909290829082906109dc906145ea565b80601f0160208091040260200160405190810160405280929190818152602001828054610a08906145ea565b8015610a555780601f10610a2a57610100808354040283529160200191610a55565b820191906000526020600020905b815481529060010190602001808311610a3857829003601f168201915b5050509183525050600191909101546001600160a01b031660209091015260069091015460ff8082169161010090041687565b600254341015610b1a5760405162461bcd60e51b815260206004820152605160248201527f546f20726567697374657220616e206578656375746f7220796f75206d75737460448201527f2070726f76696465206174206c6561737420746865206d696e696d756d20657360648201527018dc9bddc81cdd185ad948185b5bdd5b9d607a1b608482015260a4016106af565b336000908152600960205260409020546001600160a01b031615610b965760405162461bcd60e51b815260206004820152602d60248201527f546865206578656375746f7220697320616c72656164792070726573656e742c60448201526c2062757420696e61637469766560981b60648201526084016106af565b336000908152600a60205260409020546001600160a01b031615610c0e5760405162461bcd60e51b815260206004820152602960248201527f546865206578656375746f7220697320616c72656164792070726573656e742c60448201526820627574206275737960b81b60648201526084016106af565b610c576040518060e00160405280336001600160a01b03168152602001600081526020016000815260200134815260200160008152602001600081526020016000815250612ec2565b565b6000805a9050336001600160a01b031660058581548110610c7c57610c7c6145b1565b60009182526020909120600160089092020101546001600160a01b031614610cb65760405162461bcd60e51b81526004016106af90614624565b60058481548110610cc957610cc96145b1565b600091825260209091206007600890920201015460ff1615610cfd5760405162461bcd60e51b81526004016106af90614676565b60008481526006602052604081205481906001600160401b03811115610d2557610d2561442e565b604051908082528060200260200182016040528015610d4e578160200160208202803683370190505b50905060005b60008781526006602052604090205460ff82161015610e3a576000878152600660205260409020805460ff8316908110610d9057610d906145b1565b600091825260209091206006600790920201015460ff16158015610df557506001546000888152600660205260409020805460ff8416908110610dd557610dd56145b1565b906000526020600020906007020160010154610df1919061459e565b4210155b15610e285760ff81168284610e09816146cb565b955081518110610e1b57610e1b6145b1565b6020026020010181815250505b80610e32816146e4565b915050610d54565b5081600003610e4f57600093505050506107d7565b6000826001600160401b03811115610e6957610e6961442e565b604051908082528060200260200182016040528015610e92578160200160208202803683370190505b5090506000805b848160ff16101561104457600b5415611032576000848260ff1681518110610ec357610ec36145b1565b60200260200101519050600660008b81526020019081526020016000208181548110610ef157610ef16145b1565b600091825260209091206007909102015484516001600160a01b0390911690859060ff8516908110610f2557610f256145b1565b6001600160a01b0390921660209283029190910190910152600b54600090610f4d908b614719565b90506000610f5a826107dd565b5160008d81526006602052604090208054919250829185908110610f8057610f806145b1565b906000526020600020906007020160000160006101000a8154816001600160a01b0302191690836001600160a01b0316021790555042600660008e81526020019081526020016000208481548110610fda57610fda6145b1565b906000526020600020906007020160010181905550610ffd818d8660ff166131cd565b84611007816146cb565b95505060006007600401541161101e576001611022565b600b545b61102c908c61472d565b9a505050505b8061103c816146e4565b915050610e99565b508060000361105b576000955050505050506107d7565b6130398060003a8261106d8682614741565b5a611078908c61458b565b611082919061459e565b61108c919061459e565b6110969190614741565b905060006110a4858361472d565b905060005b858160ff1610156110ec576110da878260ff16815181106110cc576110cc6145b1565b60200260200101518361342f565b806110e4816146e4565b9150506110a9565b5060006111026110fc8784614741565b336135fa565b9d9c50505050505050505050505050565b61111b6140c3565b6001600160a01b038216600090815260086020526040902054156111d5576001600160a01b038216600090815260086020526040902054600780549091908110611167576111676145b1565b60009182526020918290206040805160e081018252600790930290910180546001600160a01b031683526001810154938301939093526002830154908201526003820154606082015260048201546080820152600582015460a082015260069091015460c082015292915050565b6001600160a01b038083166000818152600960205260409020549091160361126657506001600160a01b03908116600090815260096020908152604091829020825160e081018452815490941684526001810154918401919091526002810154918301919091526003810154606083015260048101546080830152600581015460a08301526006015460c082015290565b6001600160a01b038083166000818152600a60205260409020549091160361065f57506001600160a01b039081166000908152600a6020908152604091829020825160e081018452815490941684526001810154918401919091526002810154918301919091526003810154606083015260048101546080830152600581015460a08301526006015460c082015290565b336000818152600960205260409020546001600160a01b0316146113655760405162461bcd60e51b815260206004820152603160248201526000805160206149e683398151915260448201527030903830bab9b2b21032bc32b1baba37b960791b60648201526084016106af565b6002543360009081526009602052604090206003015461138690349061459e565b10156114055760405162461bcd60e51b815260206004820152604260248201527f596f75206d7573742070726f7669646520736f6d652057656920746f2072656160448201527f636820746865206d696e696d756d20657363726f77207374616b6520616d6f756064820152611b9d60f21b608482015260a4016106af565b336000908152600960205260408120600301805434929061142790849061459e565b909155505033600090815260096020908152604091829020825160e08101845281546001600160a01b031681526001820154928101929092526002810154928201929092526003820154606082015260048201546080820152600582015460a082015260069091015460c082015261149e90612ec2565b33600090815260096020526040812080546001600160a01b0319168155600181018290556002810182905560038101829055600481018290556005810182905560060155565b6005546000906114f69060019061458b565b905090565b606060006007600401546001600160401b0381111561151c5761151c61442e565b604051908082528060200260200182016040528015611545578160200160208202803683370190505b5090506000805b60075463ffffffff8216101561162257600780546000919063ffffffff841690811061157a5761157a6145b1565b60009182526020909120600790910201546001600160a01b031614611610576007805463ffffffff83169081106115b3576115b36145b1565b600091825260209091206007909102015483516001600160a01b0390911690849063ffffffff85169081106115ea576115ea6145b1565b6001600160a01b03909216602092830291909101909101528161160c816145c7565b9250505b8061161a816145c7565b91505061154c565b509092915050565b6005818154811061163a57600080fd5b60009182526020909120600890910201805460018201546002830180549294506001600160a01b039091169291611670906145ea565b80601f016020809104026020016040519081016040528092919081815260200182805461169c906145ea565b80156116e95780601f106116be576101008083540402835291602001916116e9565b820191906000526020600020905b8154815290600101906020018083116116cc57829003601f168201915b5050505050908060030180546116fe906145ea565b80601f016020809104026020016040519081016040528092919081815260200182805461172a906145ea565b80156117775780601f1061174c57610100808354040283529160200191611777565b820191906000526020600020905b81548152906001019060200180831161175a57829003601f168201915b505050505090806004015490806005016040518060400160405290816000820180546117a2906145ea565b80601f01602080910402602001604051908101604052809291908181526020018280546117ce906145ea565b801561181b5780601f106117f05761010080835404028352916020019161181b565b820191906000526020600020905b8154815290600101906020018083116117fe57829003601f168201915b5050509183525050600191909101546001600160a01b031660209091015260079091015460ff8082169161010090041688565b600061185b600285614719565b6001146118bd5760405162461bcd60e51b815260206004820152602a60248201527f596f75206d7573742063686f6f736520616e206f646420616d6f756e74206f66604482015269206578656375746f727360b01b60648201526084016106af565b600454841115611937576040805162461bcd60e51b81526020600482015260248101919091527f596f7520657863656564656420746865206d6178696d756d206e756d6265722060448201527f6f6620616c6c6f776564206578656375746f727320706572207265717565737460648201526084016106af565b6003548311156119af5760405162461bcd60e51b815260206004820152603c60248201527f596f7520657863656564656420746865206d6178696d756d20616c6c6f77656460448201527f20657865637574696f6e20706f7765722070657220726571756573740000000060648201526084016106af565b600b54841115611a185760405162461bcd60e51b815260206004820152602e60248201527f596f7520657863656564656420746865206e756d626572206f6620617661696c60448201526d61626c65206578656375746f727360901b60648201526084016106af565b611a228484614741565b3414611ada5760405162461bcd60e51b815260206004820152607560248201527f5468652076616c75652073656e7420696e207468652072657175657374206d7560448201527f73742062652074686520657865637574696f6e20706f77657220796f7520696e60648201527f74656e6420746f2070617920666f72206d756c7469706c6965642062792074686084820152746520616d6f756e74206f66206578656375746f727360581b60a482015260c4016106af565b60408051610100810182526005548152336020808301919091528251601f8b0182900482028101820184528a81526000938301918c908c9081908401838280828437600092019190915250505090825250604080516020601f8b0181900481028201810190925289815291810191908a908a90819084018382808284376000920182905250938552505050602080830188905260408051606080820183528183018581528252818401859052828601919091528401839052608090930182905260058054600181018255925283517f036b6384b5eca791c62761152d0c79bb0604c104a5fb6f4eb0703f3154bb3db06008909302928301908155908401517f036b6384b5eca791c62761152d0c79bb0604c104a5fb6f4eb0703f3154bb3db1830180546001600160a01b0319166001600160a01b039092169190911790559183015192935083927f036b6384b5eca791c62761152d0c79bb0604c104a5fb6f4eb0703f3154bb3db290910190611c5090826147a7565b5060608201516003820190611c6590826147a7565b506080820151600482015560a0820151805160058301908190611c8890826147a7565b50602091820151600190910180546001600160a01b039092166001600160a01b031990921691909117905560c08301516007909201805460e09094015115156101000261ff00199315159390931661ffff19909416939093179190911790915581516000908152600690915260408120905b868163ffffffff161015611eef57600b54600090611d189087614719565b90506000611d25826107dd565b600001519050836040518060e00160405280836001600160a01b031681526020014281526020016000604051602001611d67919060ff91909116815260200190565b604051602081830303815290604052611d7f90614866565b81526040805160006020828101919091529092019101604051602081830303815290604052611dad90614866565b815260408051606080820183526000828401818152835260208084018290528086019390935283850181905293810184905285546001808201885596855293829020855160079095020180546001600160a01b0319166001600160a01b03909516949094178455908401519483019490945582015160028201559181015160038301556080810151805191929160048301908190611e4b90826147a7565b5060209190910151600190910180546001600160a01b039092166001600160a01b031990921691909117905560a08201516006909101805460c09093015115156101000261ff00199215159290921661ffff19909316929092171790558451611ebc90829063ffffffff86166131cd565b600b54611eca576001611ece565b600b545b611ed8908861472d565b965050508080611ee7906145c7565b915050611cfa565b50505198975050505050505050565b336000908152600860205260408120548103611f2c5760405162461bcd60e51b81526004016106af9061488a565b3360009081526008602052604081205460078054600193919083908110611f5557611f556145b1565b60009182526020918290206040805160e081018252600790930290910180546001600160a01b031683526001810154938301939093526002830154908201526003820154606082015260048201546080820152600582015460a082015260069091015460c082015290508415611fdd57611fd38160600151336135fa565b6000606083015292505b33600090815260096020908152604091829020835181546001600160a01b0319166001600160a01b03909116178155908301516001820155908201516002820155606082015160038201556080820151600482015560a0820151600582015560c0820151600690910155600780548390811061205b5761205b6145b1565b60009182526020808320600790920290910180546001600160a01b031916815560018101839055600281018390556003810183905560048101839055600581018390556006018290553382526008905260408120819055600b8054916120c0836148ca565b909155509295945050505050565b60006120d933611113565b9050828160200151146121625760405162461bcd60e51b8152602060048201526044602482018190527f596f75206d7573742062652061737369676e656420746f207468652070726f76908201527f69646564207265717565737420746f207375626d6974206120726573756c74206064820152630d0c2e6d60e31b608482015260a4016106af565b336001600160a01b03166006600083602001518152602001908152602001600020826040015181548110612198576121986145b1565b60009182526020909120600790910201546001600160a01b0316146122175760405162461bcd60e51b815260206004820152602f60248201527f546865726520697320616e2061646472657373206d6973736d6174636820696e60448201526e081d1a1948185cdcda59db9b595b9d608a1b60648201526084016106af565b6006600082602001518152602001908152602001600020816040015181548110612243576122436145b1565b600091825260209091206006600790920201015460ff16156122e05760405162461bcd60e51b815260206004820152604a60248201527f54686520726573756c7420666f72207468697320726571756573742c20666f7260448201527f2074686973206578656375746f722c2068617320616c7265616479206265656e606482015269081cdd589b5a5d1d195960b21b608482015260a4016106af565b81600660008360200151815260200190815260200160002082604001518154811061230d5761230d6145b1565b90600052602060002090600702016002018190555060016006600083602001518152602001908152602001600020826040015181548110612350576123506145b1565b600091825260209182902060079190910201600601805460ff1916921515929092179091556040805185815233928101929092527f0f8185b00df8267d805722b32505ef3616148ca14fdf7f7a8da7bd1261d4a0f2910160405180910390a1600160005b60008581526006602052604090205460ff8216101561246b576000858152600660205260409020805460ff83169081106123f0576123f06145b1565b600091825260209091206006600790920201015460ff1615801561244f57506000858152600660205260408120805460ff8416908110612432576124326145b1565b60009182526020909120600790910201546001600160a01b031614155b1561245957600091505b80612463816146e4565b9150506123b4565b5080156124de57600160058581548110612487576124876145b1565b600091825260209182902060089190910201600701805460ff1916921515929092179091556040518581527f5cb4b3d6f39d6004cb8c297ac4efcddfa0865076260493cc65ac30b96ad7c909910160405180910390a15b50505050565b6124ec6140c3565b506001600160a01b03908116600090815260096020908152604091829020825160e081018452815490941684526001810154918401919091526002810154918301919091526003810154606083015260048101546080830152600581015460a08301526006015460c082015290565b6000805a9050336001600160a01b03166005848154811061257e5761257e6145b1565b60009182526020909120600160089092020101546001600160a01b0316146125b85760405162461bcd60e51b81526004016106af90614624565b600583815481106125cb576125cb6145b1565b600091825260209091206007600890920201015460ff16156125ff5760405162461bcd60e51b81526004016106af90614676565b60008381526006602052604081205481906001600160401b038111156126275761262761442e565b604051908082528060200260200182016040528015612650578160200160208202803683370190505b50905060005b60008681526006602052604090205460ff8216101561273c576000868152600660205260409020805460ff8316908110612692576126926145b1565b600091825260209091206006600790920201015460ff161580156126f757506001546000878152600660205260409020805460ff84169081106126d7576126d76145b1565b9060005260206000209060070201600101546126f3919061459e565b4210155b1561272a5760ff8116828461270b816146cb565b95508151811061271d5761271d6145b1565b6020026020010181815250505b80612734816146e4565b915050612656565b5060008581526006602052604090205482106127d25760405162461bcd60e51b815260206004820152604960248201527f596f752063616e206f6e6c79207472756e63617465206578656375746f72732060448201527f696620746865726520686173206265656e206174206c65617374206f6e6520736064820152683ab136b4b9b9b4b7b760b91b608482015260a4016106af565b816000036127e557506000949350505050565b50919392505050565b6127f66140c3565b6007805483908110611167576111676145b1565b6128126140c3565b506001600160a01b039081166000908152600a6020908152604091829020825160e081018452815490941684526001810154918401919091526002810154918301919091526003810154606083015260048101546080830152600581015460a08301526006015460c082015290565b600061288c33611113565b9050828160200151146129135760405162461bcd60e51b815260206004820152604360248201527f596f75206d7573742062652061737369676e656420746f207468652070726f7660448201527f69646564207265717565737420746f206c6962657261746520746865207265736064820152621d5b1d60ea1b608482015260a4016106af565b600660008260200151815260200190815260200160002081604001518154811061293f5761293f6145b1565b600091825260209091206006600790920201015460ff1615156001146129db5760405162461bcd60e51b815260206004820152604560248201527f596f75206d757374206669727374207375626d69742061207369676e6564207260448201527f6573756c742068617368206265666f726520796f752063616e206c69626572616064820152641d19481a5d60da1b608482015260a4016106af565b600583815481106129ee576129ee6145b1565b600091825260209091206007600890920201015460ff161515600114612a8a5760405162461bcd60e51b815260206004820152604560248201527f596f75206d757374207761697420756e74696c20616c6c207375626d6973736960448201527f6f6e7320666f72207468697320726571756573742068617665206265656e206c6064820152641bd8dad95960da1b608482015260a4016106af565b6006600082602001518152602001908152602001600020816040015181548110612ab657612ab66145b1565b6000918252602090912060079091020160060154610100900460ff1615612b585760405162461bcd60e51b815260206004820152604a60248201527f54686520726573756c7420666f72207468697320726571756573742c20666f7260448201527f2074686973206578656375746f722c2068617320616c7265616479206265656e606482015269081b1a58995c985d195960b21b608482015260a4016106af565b60208201516001600160a01b03163314612be65760405162461bcd60e51b815260206004820152604360248201527f54686520697373756572206f66207468652073656e7420726573756c7420646f60448201527f6573206e6f74206d6174636820746865207472616e73616374696f6e2073656e6064820152623232b960e91b608482015260a4016106af565b6006600082602001518152602001908152602001600020816040015181548110612c1257612c126145b1565b90600052602060002090600702016002015482604051602001612c3591906148e1565b6040516020818303038152906040528051906020012014612caf5760405162461bcd60e51b815260206004820152602e60248201527f596f757220726573756c7420646f6573206e6f74206d6174636820796f75722060448201526d0e6eac4dad2e8e8cac840d0c2e6d60931b60648201526084016106af565b30602080840191909152604051612cc8918491016148e1565b604051602081830303815290604052805190602001206006600083602001518152602001908152602001600020826040015181548110612d0a57612d0a6145b1565b906000526020600020906007020160030181905550816006600083602001518152602001908152602001600020826040015181548110612d4c57612d4c6145b1565b90600052602060002090600702016004016000820151816000019081612d7291906147a7565b50602091820151600191820180546001600160a01b0319166001600160a01b0390921691909117905582820151600090815260069092526040918290209183015182549192918110612dc657612dc66145b1565b60009182526020822060066007909202010180549215156101000261ff0019909316929092179091556001905b60008581526006602052604090205460ff82161015612eb2576000858152600660205260409020805460ff8316908110612e2f57612e2f6145b1565b906000526020600020906007020160060160019054906101000a900460ff16158015612e9657506000858152600660205260408120805460ff8416908110612e7957612e796145b1565b60009182526020909120600790910201546001600160a01b031614155b15612ea057600091505b80612eaa816146e4565b915050612df3565b5080156124de576124de84613632565b80516001600160a01b031660009081526008602052604090205415612f4f5760405162461bcd60e51b815260206004820152603860248201527f54686973206164647265737320697320616c726561647920726567697374657260448201527f656420617320616e20616374697665206578656375746f72000000000000000060648201526084016106af565b60015b60075461ffff82161015612fad57600780546000919061ffff8416908110612f7c57612f7c6145b1565b60009182526020909120600790910201546001600160a01b031614612fad5780612fa5816148f4565b915050612f52565b60075461ffff82160361310c57600780546001810182556000829052835191027fa66cc928b5edb82af9bd49922954155ab7b0942694bea4ce44661d9a8736c688810180546001600160a01b039093166001600160a01b03199093169290921790915560208301517fa66cc928b5edb82af9bd49922954155ab7b0942694bea4ce44661d9a8736c68982015560408301517fa66cc928b5edb82af9bd49922954155ab7b0942694bea4ce44661d9a8736c68a82015560608301517fa66cc928b5edb82af9bd49922954155ab7b0942694bea4ce44661d9a8736c68b82015560808301517fa66cc928b5edb82af9bd49922954155ab7b0942694bea4ce44661d9a8736c68c82015560a08301517fa66cc928b5edb82af9bd49922954155ab7b0942694bea4ce44661d9a8736c68d82015560c08301517fa66cc928b5edb82af9bd49922954155ab7b0942694bea4ce44661d9a8736c68e90910155613196565b8160076000018261ffff1681548110613127576131276145b1565b600091825260209182902083516007929092020180546001600160a01b0319166001600160a01b0390921691909117815590820151600182015560408201516002820155606082015160038201556080820151600482015560a0820151600582015560c0909101516006909101555b81516001600160a01b0316600090815260086020526040812061ffff83169055600b8054916131c4836146cb565b91905055505050565b6001600160a01b03831660009081526008602052604081205490036132045760405162461bcd60e51b81526004016106af9061488a565b6001600160a01b0383166000908152600860205260408120546007805491929183908110613234576132346145b1565b90600052602060002090600702016040518060e00160405290816000820160009054906101000a90046001600160a01b03166001600160a01b03166001600160a01b031681526020016001820154815260200160028201548152602001600382015481526020016004820154815260200160058201548152602001600682015481525050905083816020018181525050828160400181815250508060076003016000876001600160a01b03166001600160a01b0316815260200190815260200160002060008201518160000160006101000a8154816001600160a01b0302191690836001600160a01b031602179055506020820151816001015560408201518160020155606082015181600301556080820151816004015560a0820151816005015560c0820151816006015590505060076000018281548110613379576133796145b1565b60009182526020808320600790920290910180546001600160a01b031916815560018101839055600281018390556003810183905560048101839055600581018390556006018290556001600160a01b03871682526008905260408120819055600b8054916133e7836148ca565b90915550506040516001600160a01b03861681527f24f692eb5a718de17b0926c231519c7ef9f63a265722eb6d08c9b82c0f0c27809060200160405180910390a15050505050565b6001600160a01b038083166000818152600a6020526040902054909116146134a75760405162461bcd60e51b815260206004820152602560248201527f596f752063616e206f6e6c792070756e6973682061206c6f636b65642065786560448201526431baba37b960d91b60648201526084016106af565b6001600160a01b038083166000908152600a6020908152604091829020825160e0810184528154909416845260018101549184019190915260028101549183019190915260038101546060830181815260048301546080850152600583015460a085015260069092015460c084015283919061352490839061458b565b90525060c0810180516001919061353c90839061459e565b9052506000602080830182815260408085018481526001600160a01b039788168552600984528185208651815499166001600160a01b0319998a16178155925160018085019190915590516002848101919091556060870151600380860191909155608088015160048087019190915560a089015160058088019190915560c090990151600696870155600a909652928620805490991689559088018590558701849055860183905590850182905591840181905592019190915550565b3360009081526020819052604081208054849190839061361b90849061459e565b9091555061362b905083836106bd565b9392505050565b6000818152600660205260408120546001600160401b038111156136585761365861442e565b604051908082528060200260200182016040528015613681578160200160208202803683370190505b50600083815260066020526040812054919250906001600160401b038111156136ac576136ac61442e565b6040519080825280602002602001820160405280156136d5578160200160208202803683370190505b50600084815260066020526040812054919250906001600160401b038111156137005761370061442e565b604051908082528060200260200182016040528015613729578160200160208202803683370190505b50905060005b60008581526006602052604090205460ff82161015613922576000858152600660205260408120805460ff841690811061376b5761376b6145b1565b60009182526020909120600790910201546001600160a01b0316146139105760005b8160ff168160ff161161390e576000801b858260ff16815181106137b3576137b36145b1565b602002602001015103613870576000868152600660205260409020805460ff84169081106137e3576137e36145b1565b906000526020600020906007020160030154858260ff168151811061380a5761380a6145b1565b60200260200101818152505081848260ff168151811061382c5761382c6145b1565b602002602001019060ff16908160ff16815250506001838260ff1681518110613857576138576145b1565b602002602001019060ff16908160ff168152505061390e565b6000868152600660205260409020805460ff8416908110613893576138936145b1565b906000526020600020906007020160030154858260ff16815181106138ba576138ba6145b1565b6020026020010151036138fc57828160ff16815181106138dc576138dc6145b1565b6020026020010180518091906138f1906146e4565b60ff1690525061390e565b80613906816146e4565b91505061378d565b505b8061391a816146e4565b91505061372f565b5060008060005b83518160ff1610156139b057838260ff168151811061394a5761394a6145b1565b602002602001015160ff16848260ff168151811061396a5761396a6145b1565b602002602001015160ff16111561399e57809150848160ff1681518110613993576139936145b1565b602002602001015192505b806139a8816146e4565b915050613929565b506000868152600660205260409020805460ff84169081106139d4576139d46145b1565b9060005260206000209060070201600401600587815481106139f8576139f86145b1565b6000918252602090912060056008909202010180613a16838261490b565b5060019182015490820180546001600160a01b0319166001600160a01b039092169190911790556005805488908110613a5157613a516145b1565b906000526020600020906008020160070160016101000a81548160ff0219169083151502179055507f246f3d93ac1454a9cbfd3d1d2a50998fd6ccaf210842c404befbab7a6e10c02a86848360ff1681518110613ab057613ab06145b1565b6020026020010151604051613ad292919091825260ff16602082015260400190565b60405180910390a16000838260ff1681518110613af157613af16145b1565b602002602001015160ff166001600160401b03811115613b1357613b1361442e565b604051908082528060200260200182016040528015613b3c578160200160208202803683370190505b509050600080858460ff1681518110613b5757613b576145b1565b602002602001015160ff16600660008b815260200190815260200160002080549050613b83919061458b565b6001600160401b03811115613b9a57613b9a61442e565b604051908082528060200260200182016040528015613bc3578160200160208202803683370190505b5090506000805b60008b81526006602052604090205460ff82161015613d5057898660ff1681518110613bf857613bf86145b1565b6020026020010151600660008d81526020019081526020016000208260ff1681548110613c2757613c276145b1565b90600052602060002090600702016003015403613cc05760008b8152600660205260409020805460ff8316908110613c6157613c616145b1565b60009182526020909120600790910201546001600160a01b03168585613c86816146e4565b965060ff1681518110613c9b57613c9b6145b1565b60200260200101906001600160a01b031690816001600160a01b031681525050613d3e565b60008b8152600660205260409020805460ff8316908110613ce357613ce36145b1565b60009182526020909120600790910201546001600160a01b03168383613d08816146e4565b945060ff1681518110613d1d57613d1d6145b1565b60200260200101906001600160a01b031690816001600160a01b0316815250505b80613d48816146e4565b915050613bca565b5060008060058c81548110613d6757613d676145b1565b906000526020600020906008020160040154905060005b86518160ff161015613e4557613db082888360ff1681518110613da357613da36145b1565b60200260200101516135fa565b5060076003016000888360ff1681518110613dcd57613dcd6145b1565b60200260200101516001600160a01b03166001600160a01b031681526020019081526020016000206004016000815480929190613e09906146cb565b9190505550613e33878260ff1681518110613e2657613e266145b1565b6020026020010151613f56565b80613e3d816146e4565b915050613d7e565b50835115613e9457613e92818551613e5d9190614741565b60058e81548110613e7057613e706145b1565b60009182526020909120600160089092020101546001600160a01b03166135fa565b505b60005b84518160ff161015613f3c57607b925060076003016000868360ff1681518110613ec357613ec36145b1565b60200260200101516001600160a01b03166001600160a01b031681526020019081526020016000206005016000815480929190613eff906146cb565b9190505550613f2a858260ff1681518110613f1c57613f1c6145b1565b60200260200101518461342f565b80613f34816146e4565b915050613e97565b50613f4782306135fa565b50505050505050505050505050565b6001600160a01b038082166000818152600a602052604090205490911614613fc85760405162461bcd60e51b815260206004820152603160248201526000805160206149e683398151915260448201527030903637b1b5b2b21032bc32b1baba37b960791b60648201526084016106af565b6001600160a01b038082166000908152600a602090815260408083206001810184905560028101849055815160e081018352815490951685529184018390528301919091526003810154606083015260048101546080830152600581015460a08301526006015460c082015261403d90612ec2565b6001600160a01b0381166000818152600a6020908152604080832080546001600160a01b031916815560018101849055600281018490556003810184905560048101849055600581018490556006019290925590519182527ff6c9b68317a850b69648921b68a48c48c061a1f7ef6520b975dcc5a2ed54508a910160405180910390a150565b6040518060e0016040528060006001600160a01b031681526020016000815260200160008152602001600081526020016000815260200160008152602001600081525090565b80356001600160a01b03811681146106b857600080fd5b60006020828403121561413257600080fd5b61362b82614109565b6000815180845260005b8181101561416157602081850181015186830182015201614145565b506000602082860101526020601f19601f83011685010191505092915050565b60208152600061362b602083018461413b565b600080604083850312156141a757600080fd5b823591506141b760208401614109565b90509250929050565b6000602082840312156141d257600080fd5b5035919050565b600080604083850312156141ec57600080fd5b50508035926020909101359150565b6000815160408452614210604085018261413b565b6020938401516001600160a01b0316949093019390935250919050565b60018060a01b038816815286602082015285604082015284606082015260e06080820152600061426060e08301866141fb565b93151560a08301525090151560c09091015295945050505050565b6020808252825182820181905260009190848201906040850190845b818110156142bc5783516001600160a01b031683529284019291840191600101614297565b50909695505050505050565b8881526001600160a01b0388166020820152610100604082018190526000906142f38382018a61413b565b90508281036060840152614307818961413b565b905086608084015282810360a084015261432181876141fb565b94151560c0840152505090151560e0909101529695505050505050565b60008083601f84011261435057600080fd5b5081356001600160401b0381111561436757600080fd5b60208301915083602082850101111561437f57600080fd5b9250929050565b600080600080600080600060a0888a0312156143a157600080fd5b87356001600160401b03808211156143b857600080fd5b6143c48b838c0161433e565b909950975060208a01359150808211156143dd57600080fd5b506143ea8a828b0161433e565b989b979a50986040810135976060820135975060809091013595509350505050565b60006020828403121561441e57600080fd5b8135801515811461362b57600080fd5b634e487b7160e01b600052604160045260246000fd5b604080519081016001600160401b03811182821017156144665761446661442e565b60405290565b604051601f8201601f191681016001600160401b03811182821017156144945761449461442e565b604052919050565b600080604083850312156144af57600080fd5b823591506020808401356001600160401b03808211156144ce57600080fd5b90850190604082880312156144e257600080fd5b6144ea614444565b8235828111156144f957600080fd5b8301601f8101891361450a57600080fd5b80358381111561451c5761451c61442e565b61452e601f8201601f1916870161446c565b9350808452898682840101111561454457600080fd5b8086830187860137600090840186015250818152614563838501614109565b84820152809450505050509250929050565b634e487b7160e01b600052601160045260246000fd5b818103818111156107d7576107d7614575565b808201808211156107d7576107d7614575565b634e487b7160e01b600052603260045260246000fd5b600063ffffffff8083168181036145e0576145e0614575565b6001019392505050565b600181811c908216806145fe57607f821691505b60208210810361461e57634e487b7160e01b600052602260045260246000fd5b50919050565b60208082526032908201527f596f752063616e7420726f7461746520612072657175657374207468617420776040820152716173206e6f74206d61646520627920796f7560701b606082015260800190565b60208082526035908201527f416c6c206578656375746f727320666f72207468697320726571756573742068604082015274185d9948185b1c9958591e4819195b1a5d995c9959605a1b606082015260800190565b6000600182016146dd576146dd614575565b5060010190565b600060ff821660ff81036146fa576146fa614575565b60010192915050565b634e487b7160e01b600052601260045260246000fd5b60008261472857614728614703565b500690565b60008261473c5761473c614703565b500490565b80820281158282048414176107d7576107d7614575565b601f8211156147a257600081815260208120601f850160051c8101602086101561477f5750805b601f850160051c820191505b8181101561479e5782815560010161478b565b5050505b505050565b81516001600160401b038111156147c0576147c061442e565b6147d4816147ce84546145ea565b84614758565b602080601f83116001811461480957600084156147f15750858301515b600019600386901b1c1916600185901b17855561479e565b600085815260208120601f198616915b8281101561483857888601518255948401946001909101908401614819565b50858210156148565787850151600019600388901b60f8161c191681555b5050505050600190811b01905550565b8051602080830151919081101561461e5760001960209190910360031b1b16919050565b60208082526032908201526000805160206149e683398151915260408201527130b71030b1ba34bb329032bc32b1baba37b960711b606082015260800190565b6000816148d9576148d9614575565b506000190190565b60208152600061362b60208301846141fb565b600061ffff8083168181036145e0576145e0614575565b818103614916575050565b61492082546145ea565b6001600160401b038111156149375761493761442e565b614945816147ce84546145ea565b6000601f82116001811461497957600083156149615750848201545b600019600385901b1c1916600184901b1784556149de565b600085815260209020601f19841690600086815260209020845b838110156149b35782860154825560019586019590910190602001614993565b50858310156149d15781850154600019600388901b60f8161c191681555b50505060018360011b0184555b505050505056fe54686973206164647265737320646f6573206e6f742062656c6f6e6720746f20a26469706673582212208c1aee844efea993274ca3b783c6214017093b1f881b5815bcaad67cfc1e9c3b64736f6c63430008130033",
  "bytecodeSha1": "66339705d3e897554245f89c3ad31e648902e9ad",
  "compiler": {
    "evm_version": "istanbul",
    "optimizer": {
      "enabled": true,
      "runs": 200
    },
    "version": "0.8.19+commit.7dd6d404"
  },
  "contractName": "ExecutionBroker",
  "language": "Solidity",
  "natspec": {
    "kind": "dev",
    "methods": {},
    "version": 1
  },
  "opcodes": "PUSH1 0x80 PUSH1 0x40 MSTORE PUSH1 0x4 CALLDATASIZE LT PUSH2 0x1B7 JUMPI PUSH1 0x0 CALLDATALOAD PUSH1 0xE0 SHR DUP1 PUSH4 0x73FF9A06 GT PUSH2 0xEC JUMPI DUP1 PUSH4 0xADBBCFC9 GT PUSH2 0x8A JUMPI DUP1 PUSH4 0xD7D4EA56 GT PUSH2 0x64 JUMPI DUP1 PUSH4 0xD7D4EA56 EQ PUSH2 0x51B JUMPI DUP1 PUSH4 0xDDEAFCBD EQ PUSH2 0x532 JUMPI DUP1 PUSH4 0xEF273C42 EQ PUSH2 0x552 JUMPI DUP1 PUSH4 0xF3A40113 EQ PUSH2 0x572 JUMPI PUSH1 0x0 DUP1 REVERT JUMPDEST DUP1 PUSH4 0xADBBCFC9 EQ PUSH2 0x4CF JUMPI DUP1 PUSH4 0xC294A668 EQ PUSH2 0x4EF JUMPI DUP1 PUSH4 0xCDE5C30B EQ PUSH2 0x505 JUMPI PUSH1 0x0 DUP1 REVERT JUMPDEST DUP1 PUSH4 0x92D7F760 GT PUSH2 0xC6 JUMPI DUP1 PUSH4 0x92D7F760 EQ PUSH2 0x45A JUMPI DUP1 PUSH4 0x979DD28A EQ PUSH2 0x47A JUMPI DUP1 PUSH4 0x9F589A7E EQ PUSH2 0x49A JUMPI DUP1 PUSH4 0xA78C8BDA EQ PUSH2 0x4BA JUMPI PUSH1 0x0 DUP1 REVERT JUMPDEST DUP1 PUSH4 0x73FF9A06 EQ PUSH2 0x3F5 JUMPI DUP1 PUSH4 0x81D12C58 EQ PUSH2 0x413 JUMPI DUP1 PUSH4 0x8B812321 EQ PUSH2 0x447 JUMPI PUSH1 0x0 DUP1 REVERT JUMPDEST DUP1 PUSH4 0x45FC5D34 GT PUSH2 0x159 JUMPI DUP1 PUSH4 0x4F04218F GT PUSH2 0x133 JUMPI DUP1 PUSH4 0x4F04218F EQ PUSH2 0x37B JUMPI DUP1 PUSH4 0x5BADBE4C EQ PUSH2 0x391 JUMPI DUP1 PUSH4 0x6E725E65 EQ PUSH2 0x3A6 JUMPI DUP1 PUSH4 0x6EF9E145 EQ PUSH2 0x3C8 JUMPI PUSH1 0x0 DUP1 REVERT JUMPDEST DUP1 PUSH4 0x45FC5D34 EQ PUSH2 0x31D JUMPI DUP1 PUSH4 0x4A1258EC EQ PUSH2 0x33D JUMPI DUP1 PUSH4 0x4E395E03 EQ PUSH2 0x345 JUMPI PUSH1 0x0 DUP1 REVERT JUMPDEST DUP1 PUSH4 0x16573D7E GT PUSH2 0x195 JUMPI DUP1 PUSH4 0x16573D7E EQ PUSH2 0x29C JUMPI DUP1 PUSH4 0x17D85E8D EQ PUSH2 0x2C0 JUMPI DUP1 PUSH4 0x2AFABB98 EQ PUSH2 0x2F3 JUMPI DUP1 PUSH4 0x339C395E EQ PUSH2 0x2FD JUMPI PUSH1 0x0 DUP1 REVERT JUMPDEST DUP1 PUSH4 0x4F84AB9 EQ PUSH2 0x1BC JUMPI DUP1 PUSH4 0xD45C199 EQ PUSH2 0x1F2 JUMPI DUP1 PUSH4 0x151520D6 EQ PUSH2 0x222 JUMPI JUMPDEST PUSH1 0x0 DUP1 REVERT JUMPDEST CALLVALUE DUP1 ISZERO PUSH2 0x1C8 JUMPI PUSH1 0x0 DUP1 REVERT JUMPDEST POP PUSH2 0x1DC PUSH2 0x1D7 CALLDATASIZE PUSH1 0x4 PUSH2 0x4120 JUMP JUMPDEST PUSH2 0x592 JUMP JUMPDEST PUSH1 0x40 MLOAD PUSH2 0x1E9 SWAP2 SWAP1 PUSH2 0x4181 JUMP JUMPDEST PUSH1 0x40 MLOAD DUP1 SWAP2 SUB SWAP1 RETURN JUMPDEST CALLVALUE DUP1 ISZERO PUSH2 0x1FE JUMPI PUSH1 0x0 DUP1 REVERT JUMPDEST POP PUSH2 0x212 PUSH2 0x20D CALLDATASIZE PUSH1 0x4 PUSH2 0x4194 JUMP JUMPDEST PUSH2 0x6BD JUMP JUMPDEST PUSH1 0x40 MLOAD SWAP1 ISZERO ISZERO DUP2 MSTORE PUSH1 0x20 ADD PUSH2 0x1E9 JUMP JUMPDEST CALLVALUE DUP1 ISZERO PUSH2 0x22E JUMPI PUSH1 0x0 DUP1 REVERT JUMPDEST POP PUSH2 0x242 PUSH2 0x23D CALLDATASIZE PUSH1 0x4 PUSH2 0x41C0 JUMP JUMPDEST PUSH2 0x7DD JUMP JUMPDEST PUSH1 0x40 MLOAD PUSH2 0x1E9 SWAP2 SWAP1 DUP2 MLOAD PUSH1 0x1 PUSH1 0x1 PUSH1 0xA0 SHL SUB AND DUP2 MSTORE PUSH1 0x20 DUP1 DUP4 ADD MLOAD SWAP1 DUP3 ADD MSTORE PUSH1 0x40 DUP1 DUP4 ADD MLOAD SWAP1 DUP3 ADD MSTORE PUSH1 0x60 DUP1 DUP4 ADD MLOAD SWAP1 DUP3 ADD MSTORE PUSH1 0x80 DUP1 DUP4 ADD MLOAD SWAP1 DUP3 ADD MSTORE PUSH1 0xA0 DUP3 DUP2 ADD MLOAD SWAP1 DUP3 ADD MSTORE PUSH1 0xC0 SWAP2 DUP3 ADD MLOAD SWAP2 DUP2 ADD SWAP2 SWAP1 SWAP2 MSTORE PUSH1 0xE0 ADD SWAP1 JUMP JUMPDEST CALLVALUE DUP1 ISZERO PUSH2 0x2A8 JUMPI PUSH1 0x0 DUP1 REVERT JUMPDEST POP PUSH2 0x2B2 PUSH1 0x1 SLOAD DUP2 JUMP JUMPDEST PUSH1 0x40 MLOAD SWAP1 DUP2 MSTORE PUSH1 0x20 ADD PUSH2 0x1E9 JUMP JUMPDEST CALLVALUE DUP1 ISZERO PUSH2 0x2CC JUMPI PUSH1 0x0 DUP1 REVERT JUMPDEST POP PUSH2 0x2E0 PUSH2 0x2DB CALLDATASIZE PUSH1 0x4 PUSH2 0x41D9 JUMP JUMPDEST PUSH2 0x96B JUMP JUMPDEST PUSH1 0x40 MLOAD PUSH2 0x1E9 SWAP8 SWAP7 SWAP6 SWAP5 SWAP4 SWAP3 SWAP2 SWAP1 PUSH2 0x422D JUMP JUMPDEST PUSH2 0x2FB PUSH2 0xA88 JUMP JUMPDEST STOP JUMPDEST CALLVALUE DUP1 ISZERO PUSH2 0x309 JUMPI PUSH1 0x0 DUP1 REVERT JUMPDEST POP PUSH2 0x212 PUSH2 0x318 CALLDATASIZE PUSH1 0x4 PUSH2 0x41D9 JUMP JUMPDEST PUSH2 0xC59 JUMP JUMPDEST CALLVALUE DUP1 ISZERO PUSH2 0x329 JUMPI PUSH1 0x0 DUP1 REVERT JUMPDEST POP PUSH2 0x242 PUSH2 0x338 CALLDATASIZE PUSH1 0x4 PUSH2 0x4120 JUMP JUMPDEST PUSH2 0x1113 JUMP JUMPDEST PUSH2 0x2FB PUSH2 0x12F7 JUMP JUMPDEST CALLVALUE DUP1 ISZERO PUSH2 0x351 JUMPI PUSH1 0x0 DUP1 REVERT JUMPDEST POP PUSH2 0x2B2 PUSH2 0x360 CALLDATASIZE PUSH1 0x4 PUSH2 0x4120 JUMP JUMPDEST PUSH1 0x1 PUSH1 0x1 PUSH1 0xA0 SHL SUB AND PUSH1 0x0 SWAP1 DUP2 MSTORE PUSH1 0x8 PUSH1 0x20 MSTORE PUSH1 0x40 SWAP1 KECCAK256 SLOAD SWAP1 JUMP JUMPDEST CALLVALUE DUP1 ISZERO PUSH2 0x387 JUMPI PUSH1 0x0 DUP1 REVERT JUMPDEST POP PUSH2 0x2B2 PUSH1 0x2 SLOAD DUP2 JUMP JUMPDEST CALLVALUE DUP1 ISZERO PUSH2 0x39D JUMPI PUSH1 0x0 DUP1 REVERT JUMPDEST POP PUSH2 0x2B2 PUSH2 0x14E4 JUMP JUMPDEST CALLVALUE DUP1 ISZERO PUSH2 0x3B2 JUMPI PUSH1 0x0 DUP1 REVERT JUMPDEST POP PUSH2 0x3BB PUSH2 0x14FB JUMP JUMPDEST PUSH1 0x40 MLOAD PUSH2 0x1E9 SWAP2 SWAP1 PUSH2 0x427B JUMP JUMPDEST CALLVALUE DUP1 ISZERO PUSH2 0x3D4 JUMPI PUSH1 0x0 DUP1 REVERT JUMPDEST POP PUSH2 0x2B2 PUSH2 0x3E3 CALLDATASIZE PUSH1 0x4 PUSH2 0x4120 JUMP JUMPDEST PUSH1 0x0 PUSH1 0x20 DUP2 SWAP1 MSTORE SWAP1 DUP2 MSTORE PUSH1 0x40 SWAP1 KECCAK256 SLOAD DUP2 JUMP JUMPDEST CALLVALUE DUP1 ISZERO PUSH2 0x401 JUMPI PUSH1 0x0 DUP1 REVERT JUMPDEST POP PUSH2 0x2FB PUSH2 0x410 CALLDATASIZE PUSH1 0x4 PUSH2 0x41C0 JUMP JUMPDEST POP JUMP JUMPDEST CALLVALUE DUP1 ISZERO PUSH2 0x41F JUMPI PUSH1 0x0 DUP1 REVERT JUMPDEST POP PUSH2 0x433 PUSH2 0x42E CALLDATASIZE PUSH1 0x4 PUSH2 0x41C0 JUMP JUMPDEST PUSH2 0x162A JUMP JUMPDEST PUSH1 0x40 MLOAD PUSH2 0x1E9 SWAP9 SWAP8 SWAP7 SWAP6 SWAP5 SWAP4 SWAP3 SWAP2 SWAP1 PUSH2 0x42C8 JUMP JUMPDEST PUSH2 0x2B2 PUSH2 0x455 CALLDATASIZE PUSH1 0x4 PUSH2 0x4386 JUMP JUMPDEST PUSH2 0x184E JUMP JUMPDEST CALLVALUE DUP1 ISZERO PUSH2 0x466 JUMPI PUSH1 0x0 DUP1 REVERT JUMPDEST POP PUSH2 0x212 PUSH2 0x475 CALLDATASIZE PUSH1 0x4 PUSH2 0x440C JUMP JUMPDEST PUSH2 0x1EFE JUMP JUMPDEST CALLVALUE DUP1 ISZERO PUSH2 0x486 JUMPI PUSH1 0x0 DUP1 REVERT JUMPDEST POP PUSH2 0x2FB PUSH2 0x495 CALLDATASIZE PUSH1 0x4 PUSH2 0x41D9 JUMP JUMPDEST PUSH2 0x20CE JUMP JUMPDEST CALLVALUE DUP1 ISZERO PUSH2 0x4A6 JUMPI PUSH1 0x0 DUP1 REVERT JUMPDEST POP PUSH2 0x242 PUSH2 0x4B5 CALLDATASIZE PUSH1 0x4 PUSH2 0x4120 JUMP JUMPDEST PUSH2 0x24E4 JUMP JUMPDEST CALLVALUE DUP1 ISZERO PUSH2 0x4C6 JUMPI PUSH1 0x0 DUP1 REVERT JUMPDEST POP PUSH1 0xB SLOAD PUSH2 0x2B2 JUMP JUMPDEST CALLVALUE DUP1 ISZERO PUSH2 0x4DB JUMPI PUSH1 0x0 DUP1 REVERT JUMPDEST POP PUSH2 0x212 PUSH2 0x4EA CALLDATASIZE PUSH1 0x4 PUSH2 0x41C0 JUMP JUMPDEST PUSH2 0x255B JUMP JUMPDEST CALLVALUE DUP1 ISZERO PUSH2 0x4FB JUMPI PUSH1 0x0 DUP1 REVERT JUMPDEST POP PUSH2 0x2B2 PUSH1 0x3 SLOAD DUP2 JUMP JUMPDEST CALLVALUE DUP1 ISZERO PUSH2 0x511 JUMPI PUSH1 0x0 DUP1 REVERT JUMPDEST POP PUSH2 0x2B2 PUSH1 0x4 SLOAD DUP2 JUMP JUMPDEST CALLVALUE DUP1 ISZERO PUSH2 0x527 JUMPI PUSH1 0x0 DUP1 REVERT JUMPDEST POP PUSH1 0xB SLOAD PUSH2 0x2B2 SWAP1 DUP2 JUMP JUMPDEST CALLVALUE DUP1 ISZERO PUSH2 0x53E JUMPI PUSH1 0x0 DUP1 REVERT JUMPDEST POP PUSH2 0x242 PUSH2 0x54D CALLDATASIZE PUSH1 0x4 PUSH2 0x41C0 JUMP JUMPDEST PUSH2 0x27EE JUMP JUMPDEST CALLVALUE DUP1 ISZERO PUSH2 0x55E JUMPI PUSH1 0x0 DUP1 REVERT JUMPDEST POP PUSH2 0x242 PUSH2 0x56D CALLDATASIZE PUSH1 0x4 PUSH2 0x4120 JUMP JUMPDEST PUSH2 0x280A JUMP JUMPDEST CALLVALUE DUP1 ISZERO PUSH2 0x57E JUMPI PUSH1 0x0 DUP1 REVERT JUMPDEST POP PUSH2 0x2FB PUSH2 0x58D CALLDATASIZE PUSH1 0x4 PUSH2 0x449C JUMP JUMPDEST PUSH2 0x2881 JUMP JUMPDEST PUSH1 0x1 PUSH1 0x1 PUSH1 0xA0 SHL SUB DUP2 AND PUSH1 0x0 SWAP1 DUP2 MSTORE PUSH1 0x8 PUSH1 0x20 MSTORE PUSH1 0x40 SWAP1 KECCAK256 SLOAD PUSH1 0x60 SWAP1 ISZERO PUSH2 0x5D5 JUMPI POP POP PUSH1 0x40 DUP1 MLOAD DUP1 DUP3 ADD SWAP1 SWAP2 MSTORE PUSH1 0x6 DUP2 MSTORE PUSH6 0x616374697665 PUSH1 0xD0 SHL PUSH1 0x20 DUP3 ADD MSTORE SWAP1 JUMP JUMPDEST PUSH1 0x1 PUSH1 0x1 PUSH1 0xA0 SHL SUB DUP1 DUP4 AND PUSH1 0x0 DUP2 DUP2 MSTORE PUSH1 0x9 PUSH1 0x20 MSTORE PUSH1 0x40 SWAP1 KECCAK256 SLOAD SWAP1 SWAP2 AND SUB PUSH2 0x61B JUMPI POP POP PUSH1 0x40 DUP1 MLOAD DUP1 DUP3 ADD SWAP1 SWAP2 MSTORE PUSH1 0x8 DUP2 MSTORE PUSH8 0x696E616374697665 PUSH1 0xC0 SHL PUSH1 0x20 DUP3 ADD MSTORE SWAP1 JUMP JUMPDEST PUSH1 0x1 PUSH1 0x1 PUSH1 0xA0 SHL SUB DUP1 DUP4 AND PUSH1 0x0 DUP2 DUP2 MSTORE PUSH1 0xA PUSH1 0x20 MSTORE PUSH1 0x40 SWAP1 KECCAK256 SLOAD SWAP1 SWAP2 AND SUB PUSH2 0x65F JUMPI POP POP PUSH1 0x40 DUP1 MLOAD DUP1 DUP3 ADD SWAP1 SWAP2 MSTORE PUSH1 0x6 DUP2 MSTORE PUSH6 0x1B1BD8DAD959 PUSH1 0xD2 SHL PUSH1 0x20 DUP3 ADD MSTORE SWAP1 JUMP JUMPDEST PUSH1 0x40 MLOAD PUSH3 0x461BCD PUSH1 0xE5 SHL DUP2 MSTORE PUSH1 0x20 PUSH1 0x4 DUP3 ADD MSTORE PUSH1 0x35 PUSH1 0x24 DUP3 ADD MSTORE PUSH1 0x0 DUP1 MLOAD PUSH1 0x20 PUSH2 0x49E6 DUP4 CODECOPY DUP2 MLOAD SWAP2 MSTORE PUSH1 0x44 DUP3 ADD MSTORE PUSH21 0x30903932B3B4B9BA32B932B21032BC32B1BABA37B9 PUSH1 0x59 SHL PUSH1 0x64 DUP3 ADD MSTORE PUSH1 0x84 ADD JUMPDEST PUSH1 0x40 MLOAD DUP1 SWAP2 SUB SWAP1 REVERT JUMPDEST SWAP2 SWAP1 POP JUMP JUMPDEST CALLER PUSH1 0x0 SWAP1 DUP2 MSTORE PUSH1 0x20 DUP2 SWAP1 MSTORE PUSH1 0x40 DUP2 KECCAK256 SLOAD DUP4 GT ISZERO PUSH2 0x726 JUMPI PUSH1 0x40 MLOAD PUSH3 0x461BCD PUSH1 0xE5 SHL DUP2 MSTORE PUSH1 0x20 PUSH1 0x4 DUP3 ADD MSTORE PUSH1 0x21 PUSH1 0x24 DUP3 ADD MSTORE PUSH32 0x53656E64657220646F6573206E6F74206861766520656E6F7567682066756E64 PUSH1 0x44 DUP3 ADD MSTORE PUSH1 0x73 PUSH1 0xF8 SHL PUSH1 0x64 DUP3 ADD MSTORE PUSH1 0x84 ADD PUSH2 0x6AF JUMP JUMPDEST CALLER PUSH1 0x0 SWAP1 DUP2 MSTORE PUSH1 0x20 DUP2 SWAP1 MSTORE PUSH1 0x40 DUP2 KECCAK256 DUP1 SLOAD DUP6 SWAP3 SWAP1 PUSH2 0x745 SWAP1 DUP5 SWAP1 PUSH2 0x458B JUMP JUMPDEST SWAP1 SWAP2 SSTORE POP POP PUSH1 0x40 MLOAD DUP3 SWAP1 PUSH1 0x0 SWAP1 PUSH1 0x1 PUSH1 0x1 PUSH1 0xA0 SHL SUB DUP4 AND SWAP1 DUP7 SWAP1 DUP4 DUP2 DUP2 DUP2 DUP6 DUP8 GAS CALL SWAP3 POP POP POP RETURNDATASIZE DUP1 PUSH1 0x0 DUP2 EQ PUSH2 0x797 JUMPI PUSH1 0x40 MLOAD SWAP2 POP PUSH1 0x1F NOT PUSH1 0x3F RETURNDATASIZE ADD AND DUP3 ADD PUSH1 0x40 MSTORE RETURNDATASIZE DUP3 MSTORE RETURNDATASIZE PUSH1 0x0 PUSH1 0x20 DUP5 ADD RETURNDATACOPY PUSH2 0x79C JUMP JUMPDEST PUSH1 0x60 SWAP2 POP JUMPDEST POP POP SWAP1 POP DUP1 PUSH2 0x7D3 JUMPI PUSH1 0x1 PUSH1 0x1 PUSH1 0xA0 SHL SUB DUP5 AND PUSH1 0x0 SWAP1 DUP2 MSTORE PUSH1 0x20 DUP2 SWAP1 MSTORE PUSH1 0x40 DUP2 KECCAK256 DUP1 SLOAD DUP8 SWAP3 SWAP1 PUSH2 0x7CD SWAP1 DUP5 SWAP1 PUSH2 0x459E JUMP JUMPDEST SWAP1 SWAP2 SSTORE POP POP JUMPDEST SWAP2 POP POP JUMPDEST SWAP3 SWAP2 POP POP JUMP JUMPDEST PUSH2 0x7E5 PUSH2 0x40C3 JUMP JUMPDEST PUSH1 0xB SLOAD DUP3 LT PUSH2 0x85C JUMPI PUSH1 0x40 MLOAD PUSH3 0x461BCD PUSH1 0xE5 SHL DUP2 MSTORE PUSH1 0x20 PUSH1 0x4 DUP3 ADD MSTORE PUSH1 0x3B PUSH1 0x24 DUP3 ADD MSTORE PUSH32 0x596F75206172652073656C656374696E67206120706F736974696F6E206F7574 PUSH1 0x44 DUP3 ADD MSTORE PUSH32 0x7369646520746865206578697374696E67206578656375746F72730000000000 PUSH1 0x64 DUP3 ADD MSTORE PUSH1 0x84 ADD PUSH2 0x6AF JUMP JUMPDEST PUSH1 0x0 DUP1 JUMPDEST PUSH1 0x7 SLOAD PUSH4 0xFFFFFFFF DUP3 AND LT ISZERO PUSH2 0x964 JUMPI PUSH1 0x7 DUP1 SLOAD PUSH1 0x0 SWAP2 SWAP1 PUSH4 0xFFFFFFFF DUP5 AND SWAP1 DUP2 LT PUSH2 0x88E JUMPI PUSH2 0x88E PUSH2 0x45B1 JUMP JUMPDEST PUSH1 0x0 SWAP2 DUP3 MSTORE PUSH1 0x20 SWAP1 SWAP2 KECCAK256 PUSH1 0x7 SWAP1 SWAP2 MUL ADD SLOAD PUSH1 0x1 PUSH1 0x1 PUSH1 0xA0 SHL SUB AND EQ PUSH2 0x952 JUMPI DUP4 DUP3 PUSH4 0xFFFFFFFF AND SUB PUSH2 0x944 JUMPI PUSH1 0x7 DUP1 SLOAD PUSH4 0xFFFFFFFF DUP4 AND SWAP1 DUP2 LT PUSH2 0x8D4 JUMPI PUSH2 0x8D4 PUSH2 0x45B1 JUMP JUMPDEST PUSH1 0x0 SWAP2 DUP3 MSTORE PUSH1 0x20 SWAP2 DUP3 SWAP1 KECCAK256 PUSH1 0x40 DUP1 MLOAD PUSH1 0xE0 DUP2 ADD DUP3 MSTORE PUSH1 0x7 SWAP1 SWAP4 MUL SWAP1 SWAP2 ADD DUP1 SLOAD PUSH1 0x1 PUSH1 0x1 PUSH1 0xA0 SHL SUB AND DUP4 MSTORE PUSH1 0x1 DUP2 ADD SLOAD SWAP4 DUP4 ADD SWAP4 SWAP1 SWAP4 MSTORE PUSH1 0x2 DUP4 ADD SLOAD SWAP1 DUP3 ADD MSTORE PUSH1 0x3 DUP3 ADD SLOAD PUSH1 0x60 DUP3 ADD MSTORE PUSH1 0x4 DUP3 ADD SLOAD PUSH1 0x80 DUP3 ADD MSTORE PUSH1 0x5 DUP3 ADD SLOAD PUSH1 0xA0 DUP3 ADD MSTORE PUSH1 0x6 SWAP1 SWAP2 ADD SLOAD PUSH1 0xC0 DUP3 ADD MSTORE SWAP5 SWAP4 POP POP POP POP JUMP JUMPDEST DUP2 PUSH2 0x94E DUP2 PUSH2 0x45C7 JUMP JUMPDEST SWAP3 POP POP JUMPDEST DUP1 PUSH2 0x95C DUP2 PUSH2 0x45C7 JUMP JUMPDEST SWAP2 POP POP PUSH2 0x860 JUMP JUMPDEST POP POP SWAP2 SWAP1 POP JUMP JUMPDEST PUSH1 0x6 PUSH1 0x20 MSTORE DUP2 PUSH1 0x0 MSTORE PUSH1 0x40 PUSH1 0x0 KECCAK256 DUP2 DUP2 SLOAD DUP2 LT PUSH2 0x987 JUMPI PUSH1 0x0 DUP1 REVERT JUMPDEST PUSH1 0x0 SWAP2 DUP3 MSTORE PUSH1 0x20 SWAP1 SWAP2 KECCAK256 PUSH1 0x7 SWAP1 SWAP2 MUL ADD DUP1 SLOAD PUSH1 0x1 DUP3 ADD SLOAD PUSH1 0x2 DUP4 ADD SLOAD PUSH1 0x3 DUP5 ADD SLOAD PUSH1 0x40 DUP1 MLOAD DUP1 DUP3 ADD SWAP1 SWAP2 MSTORE PUSH1 0x4 DUP7 ADD DUP1 SLOAD PUSH1 0x1 PUSH1 0x1 PUSH1 0xA0 SHL SUB SWAP1 SWAP7 AND SWAP9 POP SWAP4 SWAP7 POP SWAP2 SWAP5 SWAP1 SWAP4 SWAP1 SWAP3 SWAP1 DUP3 SWAP1 DUP3 SWAP1 PUSH2 0x9DC SWAP1 PUSH2 0x45EA JUMP JUMPDEST DUP1 PUSH1 0x1F ADD PUSH1 0x20 DUP1 SWAP2 DIV MUL PUSH1 0x20 ADD PUSH1 0x40 MLOAD SWAP1 DUP2 ADD PUSH1 0x40 MSTORE DUP1 SWAP3 SWAP2 SWAP1 DUP2 DUP2 MSTORE PUSH1 0x20 ADD DUP3 DUP1 SLOAD PUSH2 0xA08 SWAP1 PUSH2 0x45EA JUMP JUMPDEST DUP1 ISZERO PUSH2 0xA55 JUMPI DUP1 PUSH1 0x1F LT PUSH2 0xA2A JUMPI PUSH2 0x100 DUP1 DUP4 SLOAD DIV MUL DUP4 MSTORE SWAP2 PUSH1 0x20 ADD SWAP2 PUSH2 0xA55 JUMP JUMPDEST DUP3 ADD SWAP2 SWAP1 PUSH1 0x0 MSTORE PUSH1 0x20 PUSH1 0x0 KECCAK256 SWAP1 JUMPDEST DUP2 SLOAD DUP2 MSTORE SWAP1 PUSH1 0x1 ADD SWAP1 PUSH1 0x20 ADD DUP1 DUP4 GT PUSH2 0xA38 JUMPI DUP3 SWAP1 SUB PUSH1 0x1F AND DUP3 ADD SWAP2 JUMPDEST POP POP POP SWAP2 DUP4 MSTORE POP POP PUSH1 0x1 SWAP2 SWAP1 SWAP2 ADD SLOAD PUSH1 0x1 PUSH1 0x1 PUSH1 0xA0 SHL SUB AND PUSH1 0x20 SWAP1 SWAP2 ADD MSTORE PUSH1 0x6 SWAP1 SWAP2 ADD SLOAD PUSH1 0xFF DUP1 DUP3 AND SWAP2 PUSH2 0x100 SWAP1 DIV AND DUP8 JUMP JUMPDEST PUSH1 0x2 SLOAD CALLVALUE LT ISZERO PUSH2 0xB1A JUMPI PUSH1 0x40 MLOAD PUSH3 0x461BCD PUSH1 0xE5 SHL DUP2 MSTORE PUSH1 0x20 PUSH1 0x4 DUP3 ADD MSTORE PUSH1 0x51 PUSH1 0x24 DUP3 ADD MSTORE PUSH32 0x546F20726567697374657220616E206578656375746F7220796F75206D757374 PUSH1 0x44 DUP3 ADD MSTORE PUSH32 0x2070726F76696465206174206C6561737420746865206D696E696D756D206573 PUSH1 0x64 DUP3 ADD MSTORE PUSH17 0x18DC9BDDC81CDD185AD948185B5BDD5B9D PUSH1 0x7A SHL PUSH1 0x84 DUP3 ADD MSTORE PUSH1 0xA4 ADD PUSH2 0x6AF JUMP JUMPDEST CALLER PUSH1 0x0 SWAP1 DUP2 MSTORE PUSH1 0x9 PUSH1 0x20 MSTORE PUSH1 0x40 SWAP1 KECCAK256 SLOAD PUSH1 0x1 PUSH1 0x1 PUSH1 0xA0 SHL SUB AND ISZERO PUSH2 0xB96 JUMPI PUSH1 0x40 MLOAD PUSH3 0x461BCD PUSH1 0xE5 SHL DUP2 MSTORE PUSH1 0x20 PUSH1 0x4 DUP3 ADD MSTORE PUSH1 0x2D PUSH1 0x24 DUP3 ADD MSTORE PUSH32 0x546865206578656375746F7220697320616C72656164792070726573656E742C PUSH1 0x44 DUP3 ADD MSTORE PUSH13 0x2062757420696E616374697665 PUSH1 0x98 SHL PUSH1 0x64 DUP3 ADD MSTORE PUSH1 0x84 ADD PUSH2 0x6AF JUMP JUMPDEST CALLER PUSH1 0x0 SWAP1 DUP2 MSTORE PUSH1 0xA PUSH1 0x20 MSTORE PUSH1 0x40 SWAP1 KECCAK256 SLOAD PUSH1 0x1 PUSH1 0x1 PUSH1 0xA0 SHL SUB AND ISZERO PUSH2 0xC0E JUMPI PUSH1 0x40 MLOAD PUSH3 0x461BCD PUSH1 0xE5 SHL DUP2 MSTORE PUSH1 0x20 PUSH1 0x4 DUP3 ADD MSTORE PUSH1 0x29 PUSH1 0x24 DUP3 ADD MSTORE PUSH32 0x546865206578656375746F7220697320616C72656164792070726573656E742C PUSH1 0x44 DUP3 ADD MSTORE PUSH9 0x206275742062757379 PUSH1 0xB8 SHL PUSH1 0x64 DUP3 ADD MSTORE PUSH1 0x84 ADD PUSH2 0x6AF JUMP JUMPDEST PUSH2 0xC57 PUSH1 0x40 MLOAD DUP1 PUSH1 0xE0 ADD PUSH1 0x40 MSTORE DUP1 CALLER PUSH1 0x1 PUSH1 0x1 PUSH1 0xA0 SHL SUB AND DUP2 MSTORE PUSH1 0x20 ADD PUSH1 0x0 DUP2 MSTORE PUSH1 0x20 ADD PUSH1 0x0 DUP2 MSTORE PUSH1 0x20 ADD CALLVALUE DUP2 MSTORE PUSH1 0x20 ADD PUSH1 0x0 DUP2 MSTORE PUSH1 0x20 ADD PUSH1 0x0 DUP2 MSTORE PUSH1 0x20 ADD PUSH1 0x0 DUP2 MSTORE POP PUSH2 0x2EC2 JUMP JUMPDEST JUMP JUMPDEST PUSH1 0x0 DUP1 GAS SWAP1 POP CALLER PUSH1 0x1 PUSH1 0x1 PUSH1 0xA0 SHL SUB AND PUSH1 0x5 DUP6 DUP2 SLOAD DUP2 LT PUSH2 0xC7C JUMPI PUSH2 0xC7C PUSH2 0x45B1 JUMP JUMPDEST PUSH1 0x0 SWAP2 DUP3 MSTORE PUSH1 0x20 SWAP1 SWAP2 KECCAK256 PUSH1 0x1 PUSH1 0x8 SWAP1 SWAP3 MUL ADD ADD SLOAD PUSH1 0x1 PUSH1 0x1 PUSH1 0xA0 SHL SUB AND EQ PUSH2 0xCB6 JUMPI PUSH1 0x40 MLOAD PUSH3 0x461BCD PUSH1 0xE5 SHL DUP2 MSTORE PUSH1 0x4 ADD PUSH2 0x6AF SWAP1 PUSH2 0x4624 JUMP JUMPDEST PUSH1 0x5 DUP5 DUP2 SLOAD DUP2 LT PUSH2 0xCC9 JUMPI PUSH2 0xCC9 PUSH2 0x45B1 JUMP JUMPDEST PUSH1 0x0 SWAP2 DUP3 MSTORE PUSH1 0x20 SWAP1 SWAP2 KECCAK256 PUSH1 0x7 PUSH1 0x8 SWAP1 SWAP3 MUL ADD ADD SLOAD PUSH1 0xFF AND ISZERO PUSH2 0xCFD JUMPI PUSH1 0x40 MLOAD PUSH3 0x461BCD PUSH1 0xE5 SHL DUP2 MSTORE PUSH1 0x4 ADD PUSH2 0x6AF SWAP1 PUSH2 0x4676 JUMP JUMPDEST PUSH1 0x0 DUP5 DUP2 MSTORE PUSH1 0x6 PUSH1 0x20 MSTORE PUSH1 0x40 DUP2 KECCAK256 SLOAD DUP2 SWAP1 PUSH1 0x1 PUSH1 0x1 PUSH1 0x40 SHL SUB DUP2 GT ISZERO PUSH2 0xD25 JUMPI PUSH2 0xD25 PUSH2 0x442E JUMP JUMPDEST PUSH1 0x40 MLOAD SWAP1 DUP1 DUP3 MSTORE DUP1 PUSH1 0x20 MUL PUSH1 0x20 ADD DUP3 ADD PUSH1 0x40 MSTORE DUP1 ISZERO PUSH2 0xD4E JUMPI DUP2 PUSH1 0x20 ADD PUSH1 0x20 DUP3 MUL DUP1 CALLDATASIZE DUP4 CALLDATACOPY ADD SWAP1 POP JUMPDEST POP SWAP1 POP PUSH1 0x0 JUMPDEST PUSH1 0x0 DUP8 DUP2 MSTORE PUSH1 0x6 PUSH1 0x20 MSTORE PUSH1 0x40 SWAP1 KECCAK256 SLOAD PUSH1 0xFF DUP3 AND LT ISZERO PUSH2 0xE3A JUMPI PUSH1 0x0 DUP8 DUP2 MSTORE PUSH1 0x6 PUSH1 0x20 MSTORE PUSH1 0x40 SWAP1 KECCAK256 DUP1 SLOAD PUSH1 0xFF DUP4 AND SWAP1 DUP2 LT PUSH2 0xD90 JUMPI PUSH2 0xD90 PUSH2 0x45B1 JUMP JUMPDEST PUSH1 0x0 SWAP2 DUP3 MSTORE PUSH1 0x20 SWAP1 SWAP2 KECCAK256 PUSH1 0x6 PUSH1 0x7 SWAP1 SWAP3 MUL ADD ADD SLOAD PUSH1 0xFF AND ISZERO DUP1 ISZERO PUSH2 0xDF5 JUMPI POP PUSH1 0x1 SLOAD PUSH1 0x0 DUP9 DUP2 MSTORE PUSH1 0x6 PUSH1 0x20 MSTORE PUSH1 0x40 SWAP1 KECCAK256 DUP1 SLOAD PUSH1 0xFF DUP5 AND SWAP1 DUP2 LT PUSH2 0xDD5 JUMPI PUSH2 0xDD5 PUSH2 0x45B1 JUMP JUMPDEST SWAP1 PUSH1 0x0 MSTORE PUSH1 0x20 PUSH1 0x0 KECCAK256 SWAP1 PUSH1 0x7 MUL ADD PUSH1 0x1 ADD SLOAD PUSH2 0xDF1 SWAP2 SWAP1 PUSH2 0x459E JUMP JUMPDEST TIMESTAMP LT ISZERO JUMPDEST ISZERO PUSH2 0xE28 JUMPI PUSH1 0xFF DUP2 AND DUP3 DUP5 PUSH2 0xE09 DUP2 PUSH2 0x46CB JUMP JUMPDEST SWAP6 POP DUP2 MLOAD DUP2 LT PUSH2 0xE1B JUMPI PUSH2 0xE1B PUSH2 0x45B1 JUMP JUMPDEST PUSH1 0x20 MUL PUSH1 0x20 ADD ADD DUP2 DUP2 MSTORE POP POP JUMPDEST DUP1 PUSH2 0xE32 DUP2 PUSH2 0x46E4 JUMP JUMPDEST SWAP2 POP POP PUSH2 0xD54 JUMP JUMPDEST POP DUP2 PUSH1 0x0 SUB PUSH2 0xE4F JUMPI PUSH1 0x0 SWAP4 POP POP POP POP PUSH2 0x7D7 JUMP JUMPDEST PUSH1 0x0 DUP3 PUSH1 0x1 PUSH1 0x1 PUSH1 0x40 SHL SUB DUP2 GT ISZERO PUSH2 0xE69 JUMPI PUSH2 0xE69 PUSH2 0x442E JUMP JUMPDEST PUSH1 0x40 MLOAD SWAP1 DUP1 DUP3 MSTORE DUP1 PUSH1 0x20 MUL PUSH1 0x20 ADD DUP3 ADD PUSH1 0x40 MSTORE DUP1 ISZERO PUSH2 0xE92 JUMPI DUP2 PUSH1 0x20 ADD PUSH1 0x20 DUP3 MUL DUP1 CALLDATASIZE DUP4 CALLDATACOPY ADD SWAP1 POP JUMPDEST POP SWAP1 POP PUSH1 0x0 DUP1 JUMPDEST DUP5 DUP2 PUSH1 0xFF AND LT ISZERO PUSH2 0x1044 JUMPI PUSH1 0xB SLOAD ISZERO PUSH2 0x1032 JUMPI PUSH1 0x0 DUP5 DUP3 PUSH1 0xFF AND DUP2 MLOAD DUP2 LT PUSH2 0xEC3 JUMPI PUSH2 0xEC3 PUSH2 0x45B1 JUMP JUMPDEST PUSH1 0x20 MUL PUSH1 0x20 ADD ADD MLOAD SWAP1 POP PUSH1 0x6 PUSH1 0x0 DUP12 DUP2 MSTORE PUSH1 0x20 ADD SWAP1 DUP2 MSTORE PUSH1 0x20 ADD PUSH1 0x0 KECCAK256 DUP2 DUP2 SLOAD DUP2 LT PUSH2 0xEF1 JUMPI PUSH2 0xEF1 PUSH2 0x45B1 JUMP JUMPDEST PUSH1 0x0 SWAP2 DUP3 MSTORE PUSH1 0x20 SWAP1 SWAP2 KECCAK256 PUSH1 0x7 SWAP1 SWAP2 MUL ADD SLOAD DUP5 MLOAD PUSH1 0x1 PUSH1 0x1 PUSH1 0xA0 SHL SUB SWAP1 SWAP2 AND SWAP1 DUP6 SWAP1 PUSH1 0xFF DUP6 AND SWAP1 DUP2 LT PUSH2 0xF25 JUMPI PUSH2 0xF25 PUSH2 0x45B1 JUMP JUMPDEST PUSH1 0x1 PUSH1 0x1 PUSH1 0xA0 SHL SUB SWAP1 SWAP3 AND PUSH1 0x20 SWAP3 DUP4 MUL SWAP2 SWAP1 SWAP2 ADD SWAP1 SWAP2 ADD MSTORE PUSH1 0xB SLOAD PUSH1 0x0 SWAP1 PUSH2 0xF4D SWAP1 DUP12 PUSH2 0x4719 JUMP JUMPDEST SWAP1 POP PUSH1 0x0 PUSH2 0xF5A DUP3 PUSH2 0x7DD JUMP JUMPDEST MLOAD PUSH1 0x0 DUP14 DUP2 MSTORE PUSH1 0x6 PUSH1 0x20 MSTORE PUSH1 0x40 SWAP1 KECCAK256 DUP1 SLOAD SWAP2 SWAP3 POP DUP3 SWAP2 DUP6 SWAP1 DUP2 LT PUSH2 0xF80 JUMPI PUSH2 0xF80 PUSH2 0x45B1 JUMP JUMPDEST SWAP1 PUSH1 0x0 MSTORE PUSH1 0x20 PUSH1 0x0 KECCAK256 SWAP1 PUSH1 0x7 MUL ADD PUSH1 0x0 ADD PUSH1 0x0 PUSH2 0x100 EXP DUP2 SLOAD DUP2 PUSH1 0x1 PUSH1 0x1 PUSH1 0xA0 SHL SUB MUL NOT AND SWAP1 DUP4 PUSH1 0x1 PUSH1 0x1 PUSH1 0xA0 SHL SUB AND MUL OR SWAP1 SSTORE POP TIMESTAMP PUSH1 0x6 PUSH1 0x0 DUP15 DUP2 MSTORE PUSH1 0x20 ADD SWAP1 DUP2 MSTORE PUSH1 0x20 ADD PUSH1 0x0 KECCAK256 DUP5 DUP2 SLOAD DUP2 LT PUSH2 0xFDA JUMPI PUSH2 0xFDA PUSH2 0x45B1 JUMP JUMPDEST SWAP1 PUSH1 0x0 MSTORE PUSH1 0x20 PUSH1 0x0 KECCAK256 SWAP1 PUSH1 0x7 MUL ADD PUSH1 0x1 ADD DUP2 SWAP1 SSTORE POP PUSH2 0xFFD DUP2 DUP14 DUP7 PUSH1 0xFF AND PUSH2 0x31CD JUMP JUMPDEST DUP5 PUSH2 0x1007 DUP2 PUSH2 0x46CB JUMP JUMPDEST SWAP6 POP POP PUSH1 0x0 PUSH1 0x7 PUSH1 0x4 ADD SLOAD GT PUSH2 0x101E JUMPI PUSH1 0x1 PUSH2 0x1022 JUMP JUMPDEST PUSH1 0xB SLOAD JUMPDEST PUSH2 0x102C SWAP1 DUP13 PUSH2 0x472D JUMP JUMPDEST SWAP11 POP POP POP POP JUMPDEST DUP1 PUSH2 0x103C DUP2 PUSH2 0x46E4 JUMP JUMPDEST SWAP2 POP POP PUSH2 0xE99 JUMP JUMPDEST POP DUP1 PUSH1 0x0 SUB PUSH2 0x105B JUMPI PUSH1 0x0 SWAP6 POP POP POP POP POP POP PUSH2 0x7D7 JUMP JUMPDEST PUSH2 0x3039 DUP1 PUSH1 0x0 GASPRICE DUP3 PUSH2 0x106D DUP7 DUP3 PUSH2 0x4741 JUMP JUMPDEST GAS PUSH2 0x1078 SWAP1 DUP13 PUSH2 0x458B JUMP JUMPDEST PUSH2 0x1082 SWAP2 SWAP1 PUSH2 0x459E JUMP JUMPDEST PUSH2 0x108C SWAP2 SWAP1 PUSH2 0x459E JUMP JUMPDEST PUSH2 0x1096 SWAP2 SWAP1 PUSH2 0x4741 JUMP JUMPDEST SWAP1 POP PUSH1 0x0 PUSH2 0x10A4 DUP6 DUP4 PUSH2 0x472D JUMP JUMPDEST SWAP1 POP PUSH1 0x0 JUMPDEST DUP6 DUP2 PUSH1 0xFF AND LT ISZERO PUSH2 0x10EC JUMPI PUSH2 0x10DA DUP8 DUP3 PUSH1 0xFF AND DUP2 MLOAD DUP2 LT PUSH2 0x10CC JUMPI PUSH2 0x10CC PUSH2 0x45B1 JUMP JUMPDEST PUSH1 0x20 MUL PUSH1 0x20 ADD ADD MLOAD DUP4 PUSH2 0x342F JUMP JUMPDEST DUP1 PUSH2 0x10E4 DUP2 PUSH2 0x46E4 JUMP JUMPDEST SWAP2 POP POP PUSH2 0x10A9 JUMP JUMPDEST POP PUSH1 0x0 PUSH2 0x1102 PUSH2 0x10FC DUP8 DUP5 PUSH2 0x4741 JUMP JUMPDEST CALLER PUSH2 0x35FA JUMP JUMPDEST SWAP14 SWAP13 POP POP POP POP POP POP POP POP POP POP POP POP POP JUMP JUMPDEST PUSH2 0x111B PUSH2 0x40C3 JUMP JUMPDEST PUSH1 0x1 PUSH1 0x1 PUSH1 0xA0 SHL SUB DUP3 AND PUSH1 0x0 SWAP1 DUP2 MSTORE PUSH1 0x8 PUSH1 0x20 MSTORE PUSH1 0x40 SWAP1 KECCAK256 SLOAD ISZERO PUSH2 0x11D5 JUMPI PUSH1 0x1 PUSH1 0x1 PUSH1 0xA0 SHL SUB DUP3 AND PUSH1 0x0 SWAP1 DUP2 MSTORE PUSH1 0x8 PUSH1 0x20 MSTORE PUSH1 0x40 SWAP1 KECCAK256 SLOAD PUSH1 0x7 DUP1 SLOAD SWAP1 SWAP2 SWAP1 DUP2 LT PUSH2 0x1167 JUMPI PUSH2 0x1167 PUSH2 0x45B1 JUMP JUMPDEST PUSH1 0x0 SWAP2 DUP3 MSTORE PUSH1 0x20 SWAP2 DUP3 SWAP1 KECCAK256 PUSH1 0x40 DUP1 MLOAD PUSH1 0xE0 DUP2 ADD DUP3 MSTORE PUSH1 0x7 SWAP1 SWAP4 MUL SWAP1 SWAP2 ADD DUP1 SLOAD PUSH1 0x1 PUSH1 0x1 PUSH1 0xA0 SHL SUB AND DUP4 MSTORE PUSH1 0x1 DUP2 ADD SLOAD SWAP4 DUP4 ADD SWAP4 SWAP1 SWAP4 MSTORE PUSH1 0x2 DUP4 ADD SLOAD SWAP1 DUP3 ADD MSTORE PUSH1 0x3 DUP3 ADD SLOAD PUSH1 0x60 DUP3 ADD MSTORE PUSH1 0x4 DUP3 ADD SLOAD PUSH1 0x80 DUP3 ADD MSTORE PUSH1 0x5 DUP3 ADD SLOAD PUSH1 0xA0 DUP3 ADD MSTORE PUSH1 0x6 SWAP1 SWAP2 ADD SLOAD PUSH1 0xC0 DUP3 ADD MSTORE SWAP3 SWAP2 POP POP JUMP JUMPDEST PUSH1 0x1 PUSH1 0x1 PUSH1 0xA0 SHL SUB DUP1 DUP4 AND PUSH1 0x0 DUP2 DUP2 MSTORE PUSH1 0x9 PUSH1 0x20 MSTORE PUSH1 0x40 SWAP1 KECCAK256 SLOAD SWAP1 SWAP2 AND SUB PUSH2 0x1266 JUMPI POP PUSH1 0x1 PUSH1 0x1 PUSH1 0xA0 SHL SUB SWAP1 DUP2 AND PUSH1 0x0 SWAP1 DUP2 MSTORE PUSH1 0x9 PUSH1 0x20 SWAP1 DUP2 MSTORE PUSH1 0x40 SWAP2 DUP3 SWAP1 KECCAK256 DUP3 MLOAD PUSH1 0xE0 DUP2 ADD DUP5 MSTORE DUP2 SLOAD SWAP1 SWAP5 AND DUP5 MSTORE PUSH1 0x1 DUP2 ADD SLOAD SWAP2 DUP5 ADD SWAP2 SWAP1 SWAP2 MSTORE PUSH1 0x2 DUP2 ADD SLOAD SWAP2 DUP4 ADD SWAP2 SWAP1 SWAP2 MSTORE PUSH1 0x3 DUP2 ADD SLOAD PUSH1 0x60 DUP4 ADD MSTORE PUSH1 0x4 DUP2 ADD SLOAD PUSH1 0x80 DUP4 ADD MSTORE PUSH1 0x5 DUP2 ADD SLOAD PUSH1 0xA0 DUP4 ADD MSTORE PUSH1 0x6 ADD SLOAD PUSH1 0xC0 DUP3 ADD MSTORE SWAP1 JUMP JUMPDEST PUSH1 0x1 PUSH1 0x1 PUSH1 0xA0 SHL SUB DUP1 DUP4 AND PUSH1 0x0 DUP2 DUP2 MSTORE PUSH1 0xA PUSH1 0x20 MSTORE PUSH1 0x40 SWAP1 KECCAK256 SLOAD SWAP1 SWAP2 AND SUB PUSH2 0x65F JUMPI POP PUSH1 0x1 PUSH1 0x1 PUSH1 0xA0 SHL SUB SWAP1 DUP2 AND PUSH1 0x0 SWAP1 DUP2 MSTORE PUSH1 0xA PUSH1 0x20 SWAP1 DUP2 MSTORE PUSH1 0x40 SWAP2 DUP3 SWAP1 KECCAK256 DUP3 MLOAD PUSH1 0xE0 DUP2 ADD DUP5 MSTORE DUP2 SLOAD SWAP1 SWAP5 AND DUP5 MSTORE PUSH1 0x1 DUP2 ADD SLOAD SWAP2 DUP5 ADD SWAP2 SWAP1 SWAP2 MSTORE PUSH1 0x2 DUP2 ADD SLOAD SWAP2 DUP4 ADD SWAP2 SWAP1 SWAP2 MSTORE PUSH1 0x3 DUP2 ADD SLOAD PUSH1 0x60 DUP4 ADD MSTORE PUSH1 0x4 DUP2 ADD SLOAD PUSH1 0x80 DUP4 ADD MSTORE PUSH1 0x5 DUP2 ADD SLOAD PUSH1 0xA0 DUP4 ADD MSTORE PUSH1 0x6 ADD SLOAD PUSH1 0xC0 DUP3 ADD MSTORE SWAP1 JUMP JUMPDEST CALLER PUSH1 0x0 DUP2 DUP2 MSTORE PUSH1 0x9 PUSH1 0x20 MSTORE PUSH1 0x40 SWAP1 KECCAK256 SLOAD PUSH1 0x1 PUSH1 0x1 PUSH1 0xA0 SHL SUB AND EQ PUSH2 0x1365 JUMPI PUSH1 0x40 MLOAD PUSH3 0x461BCD PUSH1 0xE5 SHL DUP2 MSTORE PUSH1 0x20 PUSH1 0x4 DUP3 ADD MSTORE PUSH1 0x31 PUSH1 0x24 DUP3 ADD MSTORE PUSH1 0x0 DUP1 MLOAD PUSH1 0x20 PUSH2 0x49E6 DUP4 CODECOPY DUP2 MLOAD SWAP2 MSTORE PUSH1 0x44 DUP3 ADD MSTORE PUSH17 0x30903830BAB9B2B21032BC32B1BABA37B9 PUSH1 0x79 SHL PUSH1 0x64 DUP3 ADD MSTORE PUSH1 0x84 ADD PUSH2 0x6AF JUMP JUMPDEST PUSH1 0x2 SLOAD CALLER PUSH1 0x0 SWAP1 DUP2 MSTORE PUSH1 0x9 PUSH1 0x20 MSTORE PUSH1 0x40 SWAP1 KECCAK256 PUSH1 0x3 ADD SLOAD PUSH2 0x1386 SWAP1 CALLVALUE SWAP1 PUSH2 0x459E JUMP JUMPDEST LT ISZERO PUSH2 0x1405 JUMPI PUSH1 0x40 MLOAD PUSH3 0x461BCD PUSH1 0xE5 SHL DUP2 MSTORE PUSH1 0x20 PUSH1 0x4 DUP3 ADD MSTORE PUSH1 0x42 PUSH1 0x24 DUP3 ADD MSTORE PUSH32 0x596F75206D7573742070726F7669646520736F6D652057656920746F20726561 PUSH1 0x44 DUP3 ADD MSTORE PUSH32 0x636820746865206D696E696D756D20657363726F77207374616B6520616D6F75 PUSH1 0x64 DUP3 ADD MSTORE PUSH2 0x1B9D PUSH1 0xF2 SHL PUSH1 0x84 DUP3 ADD MSTORE PUSH1 0xA4 ADD PUSH2 0x6AF JUMP JUMPDEST CALLER PUSH1 0x0 SWAP1 DUP2 MSTORE PUSH1 0x9 PUSH1 0x20 MSTORE PUSH1 0x40 DUP2 KECCAK256 PUSH1 0x3 ADD DUP1 SLOAD CALLVALUE SWAP3 SWAP1 PUSH2 0x1427 SWAP1 DUP5 SWAP1 PUSH2 0x459E JUMP JUMPDEST SWAP1 SWAP2 SSTORE POP POP CALLER PUSH1 0x0 SWAP1 DUP2 MSTORE PUSH1 0x9 PUSH1 0x20 SWAP1 DUP2 MSTORE PUSH1 0x40 SWAP2 DUP3 SWAP1 KECCAK256 DUP3 MLOAD PUSH1 0xE0 DUP2 ADD DUP5 MSTORE DUP2 SLOAD PUSH1 0x1 PUSH1 0x1 PUSH1 0xA0 SHL SUB AND DUP2 MSTORE PUSH1 0x1 DUP3 ADD SLOAD SWAP3 DUP2 ADD SWAP3 SWAP1 SWAP3 MSTORE PUSH1 0x2 DUP2 ADD SLOAD SWAP3 DUP3 ADD SWAP3 SWAP1 SWAP3 MSTORE PUSH1 0x3 DUP3 ADD SLOAD PUSH1 0x60 DUP3 ADD MSTORE PUSH1 0x4 DUP3 ADD SLOAD PUSH1 0x80 DUP3 ADD MSTORE PUSH1 0x5 DUP3 ADD SLOAD PUSH1 0xA0 DUP3 ADD MSTORE PUSH1 0x6 SWAP1 SWAP2 ADD SLOAD PUSH1 0xC0 DUP3 ADD MSTORE PUSH2 0x149E SWAP1 PUSH2 0x2EC2 JUMP JUMPDEST CALLER PUSH1 0x0 SWAP1 DUP2 MSTORE PUSH1 0x9 PUSH1 0x20 MSTORE PUSH1 0x40 DUP2 KECCAK256 DUP1 SLOAD PUSH1 0x1 PUSH1 0x1 PUSH1 0xA0 SHL SUB NOT AND DUP2 SSTORE PUSH1 0x1 DUP2 ADD DUP3 SWAP1 SSTORE PUSH1 0x2 DUP2 ADD DUP3 SWAP1 SSTORE PUSH1 0x3 DUP2 ADD DUP3 SWAP1 SSTORE PUSH1 0x4 DUP2 ADD DUP3 SWAP1 SSTORE PUSH1 0x5 DUP2 ADD DUP3 SWAP1 SSTORE PUSH1 0x6 ADD SSTORE JUMP JUMPDEST PUSH1 0x5 SLOAD PUSH1 0x0 SWAP1 PUSH2 0x14F6 SWAP1 PUSH1 0x1 SWAP1 PUSH2 0x458B JUMP JUMPDEST SWAP1 POP SWAP1 JUMP JUMPDEST PUSH1 0x60 PUSH1 0x0 PUSH1 0x7 PUSH1 0x4 ADD SLOAD PUSH1 0x1 PUSH1 0x1 PUSH1 0x40 SHL SUB DUP2 GT ISZERO PUSH2 0x151C JUMPI PUSH2 0x151C PUSH2 0x442E JUMP JUMPDEST PUSH1 0x40 MLOAD SWAP1 DUP1 DUP3 MSTORE DUP1 PUSH1 0x20 MUL PUSH1 0x20 ADD DUP3 ADD PUSH1 0x40 MSTORE DUP1 ISZERO PUSH2 0x1545 JUMPI DUP2 PUSH1 0x20 ADD PUSH1 0x20 DUP3 MUL DUP1 CALLDATASIZE DUP4 CALLDATACOPY ADD SWAP1 POP JUMPDEST POP SWAP1 POP PUSH1 0x0 DUP1 JUMPDEST PUSH1 0x7 SLOAD PUSH4 0xFFFFFFFF DUP3 AND LT ISZERO PUSH2 0x1622 JUMPI PUSH1 0x7 DUP1 SLOAD PUSH1 0x0 SWAP2 SWAP1 PUSH4 0xFFFFFFFF DUP5 AND SWAP1 DUP2 LT PUSH2 0x157A JUMPI PUSH2 0x157A PUSH2 0x45B1 JUMP JUMPDEST PUSH1 0x0 SWAP2 DUP3 MSTORE PUSH1 0x20 SWAP1 SWAP2 KECCAK256 PUSH1 0x7 SWAP1 SWAP2 MUL ADD SLOAD PUSH1 0x1 PUSH1 0x1 PUSH1 0xA0 SHL SUB AND EQ PUSH2 0x1610 JUMPI PUSH1 0x7 DUP1 SLOAD PUSH4 0xFFFFFFFF DUP4 AND SWAP1 DUP2 LT PUSH2 0x15B3 JUMPI PUSH2 0x15B3 PUSH2 0x45B1 JUMP JUMPDEST PUSH1 0x0 SWAP2 DUP3 MSTORE PUSH1 0x20 SWAP1 SWAP2 KECCAK256 PUSH1 0x7 SWAP1 SWAP2 MUL ADD SLOAD DUP4 MLOAD PUSH1 0x1 PUSH1 0x1 PUSH1 0xA0 SHL SUB SWAP1 SWAP2 AND SWAP1 DUP5 SWAP1 PUSH4 0xFFFFFFFF DUP6 AND SWAP1 DUP2 LT PUSH2 0x15EA JUMPI PUSH2 0x15EA PUSH2 0x45B1 JUMP JUMPDEST PUSH1 0x1 PUSH1 0x1 PUSH1 0xA0 SHL SUB SWAP1 SWAP3 AND PUSH1 0x20 SWAP3 DUP4 MUL SWAP2 SWAP1 SWAP2 ADD SWAP1 SWAP2 ADD MSTORE DUP2 PUSH2 0x160C DUP2 PUSH2 0x45C7 JUMP JUMPDEST SWAP3 POP POP JUMPDEST DUP1 PUSH2 0x161A DUP2 PUSH2 0x45C7 JUMP JUMPDEST SWAP2 POP POP PUSH2 0x154C JUMP JUMPDEST POP SWAP1 SWAP3 SWAP2 POP POP JUMP JUMPDEST PUSH1 0x5 DUP2 DUP2 SLOAD DUP2 LT PUSH2 0x163A JUMPI PUSH1 0x0 DUP1 REVERT JUMPDEST PUSH1 0x0 SWAP2 DUP3 MSTORE PUSH1 0x20 SWAP1 SWAP2 KECCAK256 PUSH1 0x8 SWAP1 SWAP2 MUL ADD DUP1 SLOAD PUSH1 0x1 DUP3 ADD SLOAD PUSH1 0x2 DUP4 ADD DUP1 SLOAD SWAP3 SWAP5 POP PUSH1 0x1 PUSH1 0x1 PUSH1 0xA0 SHL SUB SWAP1 SWAP2 AND SWAP3 SWAP2 PUSH2 0x1670 SWAP1 PUSH2 0x45EA JUMP JUMPDEST DUP1 PUSH1 0x1F ADD PUSH1 0x20 DUP1 SWAP2 DIV MUL PUSH1 0x20 ADD PUSH1 0x40 MLOAD SWAP1 DUP2 ADD PUSH1 0x40 MSTORE DUP1 SWAP3 SWAP2 SWAP1 DUP2 DUP2 MSTORE PUSH1 0x20 ADD DUP3 DUP1 SLOAD PUSH2 0x169C SWAP1 PUSH2 0x45EA JUMP JUMPDEST DUP1 ISZERO PUSH2 0x16E9 JUMPI DUP1 PUSH1 0x1F LT PUSH2 0x16BE JUMPI PUSH2 0x100 DUP1 DUP4 SLOAD DIV MUL DUP4 MSTORE SWAP2 PUSH1 0x20 ADD SWAP2 PUSH2 0x16E9 JUMP JUMPDEST DUP3 ADD SWAP2 SWAP1 PUSH1 0x0 MSTORE PUSH1 0x20 PUSH1 0x0 KECCAK256 SWAP1 JUMPDEST DUP2 SLOAD DUP2 MSTORE SWAP1 PUSH1 0x1 ADD SWAP1 PUSH1 0x20 ADD DUP1 DUP4 GT PUSH2 0x16CC JUMPI DUP3 SWAP1 SUB PUSH1 0x1F AND DUP3 ADD SWAP2 JUMPDEST POP POP POP POP POP SWAP1 DUP1 PUSH1 0x3 ADD DUP1 SLOAD PUSH2 0x16FE SWAP1 PUSH2 0x45EA JUMP JUMPDEST DUP1 PUSH1 0x1F ADD PUSH1 0x20 DUP1 SWAP2 DIV MUL PUSH1 0x20 ADD PUSH1 0x40 MLOAD SWAP1 DUP2 ADD PUSH1 0x40 MSTORE DUP1 SWAP3 SWAP2 SWAP1 DUP2 DUP2 MSTORE PUSH1 0x20 ADD DUP3 DUP1 SLOAD PUSH2 0x172A SWAP1 PUSH2 0x45EA JUMP JUMPDEST DUP1 ISZERO PUSH2 0x1777 JUMPI DUP1 PUSH1 0x1F LT PUSH2 0x174C JUMPI PUSH2 0x100 DUP1 DUP4 SLOAD DIV MUL DUP4 MSTORE SWAP2 PUSH1 0x20 ADD SWAP2 PUSH2 0x1777 JUMP JUMPDEST DUP3 ADD SWAP2 SWAP1 PUSH1 0x0 MSTORE PUSH1 0x20 PUSH1 0x0 KECCAK256 SWAP1 JUMPDEST DUP2 SLOAD DUP2 MSTORE SWAP1 PUSH1 0x1 ADD SWAP1 PUSH1 0x20 ADD DUP1 DUP4 GT PUSH2 0x175A JUMPI DUP3 SWAP1 SUB PUSH1 0x1F AND DUP3 ADD SWAP2 JUMPDEST POP POP POP POP POP SWAP1 DUP1 PUSH1 0x4 ADD SLOAD SWAP1 DUP1 PUSH1 0x5 ADD PUSH1 0x40 MLOAD DUP1 PUSH1 0x40 ADD PUSH1 0x40 MSTORE SWAP1 DUP2 PUSH1 0x0 DUP3 ADD DUP1 SLOAD PUSH2 0x17A2 SWAP1 PUSH2 0x45EA JUMP JUMPDEST DUP1 PUSH1 0x1F ADD PUSH1 0x20 DUP1 SWAP2 DIV MUL PUSH1 0x20 ADD PUSH1 0x40 MLOAD SWAP1 DUP2 ADD PUSH1 0x40 MSTORE DUP1 SWAP3 SWAP2 SWAP1 DUP2 DUP2 MSTORE PUSH1 0x20 ADD DUP3 DUP1 SLOAD PUSH2 0x17CE SWAP1 PUSH2 0x45EA JUMP JUMPDEST DUP1 ISZERO PUSH2 0x181B JUMPI DUP1 PUSH1 0x1F LT PUSH2 0x17F0 JUMPI PUSH2 0x100 DUP1 DUP4 SLOAD DIV MUL DUP4 MSTORE SWAP2 PUSH1 0x20 ADD SWAP2 PUSH2 0x181B JUMP JUMPDEST DUP3 ADD SWAP2 SWAP1 PUSH1 0x0 MSTORE PUSH1 0x20 PUSH1 0x0 KECCAK256 SWAP1 JUMPDEST DUP2 SLOAD DUP2 MSTORE SWAP1 PUSH1 0x1 ADD SWAP1 PUSH1 0x20 ADD DUP1 DUP4 GT PUSH2 0x17FE JUMPI DUP3 SWAP1 SUB PUSH1 0x1F AND DUP3 ADD SWAP2 JUMPDEST POP POP POP SWAP2 DUP4 MSTORE POP POP PUSH1 0x1 SWAP2 SWAP1 SWAP2 ADD SLOAD PUSH1 0x1 PUSH1 0x1 PUSH1 0xA0 SHL SUB AND PUSH1 0x20 SWAP1 SWAP2 ADD MSTORE PUSH1 0x7 SWAP1 SWAP2 ADD SLOAD PUSH1 0xFF DUP1 DUP3 AND SWAP2 PUSH2 0x100 SWAP1 DIV AND DUP9 JUMP JUMPDEST PUSH1 0x0 PUSH2 0x185B PUSH1 0x2 DUP6 PUSH2 0x4719 JUMP JUMPDEST PUSH1 0x1 EQ PUSH2 0x18BD JUMPI PUSH1 0x40 MLOAD PUSH3 0x461BCD PUSH1 0xE5 SHL DUP2 MSTORE PUSH1 0x20 PUSH1 0x4 DUP3 ADD MSTORE PUSH1 0x2A PUSH1 0x24 DUP3 ADD MSTORE PUSH32 0x596F75206D7573742063686F6F736520616E206F646420616D6F756E74206F66 PUSH1 0x44 DUP3 ADD MSTORE PUSH10 0x206578656375746F7273 PUSH1 0xB0 SHL PUSH1 0x64 DUP3 ADD MSTORE PUSH1 0x84 ADD PUSH2 0x6AF JUMP JUMPDEST PUSH1 0x4 SLOAD DUP5 GT ISZERO PUSH2 0x1937 JUMPI PUSH1 0x40 DUP1 MLOAD PUSH3 0x461BCD PUSH1 0xE5 SHL DUP2 MSTORE PUSH1 0x20 PUSH1 0x4 DUP3 ADD MSTORE PUSH1 0x24 DUP2 ADD SWAP2 SWAP1 SWAP2 MSTORE PUSH32 0x596F7520657863656564656420746865206D6178696D756D206E756D62657220 PUSH1 0x44 DUP3 ADD MSTORE PUSH32 0x6F6620616C6C6F776564206578656375746F7273207065722072657175657374 PUSH1 0x64 DUP3 ADD MSTORE PUSH1 0x84 ADD PUSH2 0x6AF JUMP JUMPDEST PUSH1 0x3 SLOAD DUP4 GT ISZERO PUSH2 0x19AF JUMPI PUSH1 0x40 MLOAD PUSH3 0x461BCD PUSH1 0xE5 SHL DUP2 MSTORE PUSH1 0x20 PUSH1 0x4 DUP3 ADD MSTORE PUSH1 0x3C PUSH1 0x24 DUP3 ADD MSTORE PUSH32 0x596F7520657863656564656420746865206D6178696D756D20616C6C6F776564 PUSH1 0x44 DUP3 ADD MSTORE PUSH32 0x20657865637574696F6E20706F77657220706572207265717565737400000000 PUSH1 0x64 DUP3 ADD MSTORE PUSH1 0x84 ADD PUSH2 0x6AF JUMP JUMPDEST PUSH1 0xB SLOAD DUP5 GT ISZERO PUSH2 0x1A18 JUMPI PUSH1 0x40 MLOAD PUSH3 0x461BCD PUSH1 0xE5 SHL DUP2 MSTORE PUSH1 0x20 PUSH1 0x4 DUP3 ADD MSTORE PUSH1 0x2E PUSH1 0x24 DUP3 ADD MSTORE PUSH32 0x596F7520657863656564656420746865206E756D626572206F6620617661696C PUSH1 0x44 DUP3 ADD MSTORE PUSH14 0x61626C65206578656375746F7273 PUSH1 0x90 SHL PUSH1 0x64 DUP3 ADD MSTORE PUSH1 0x84 ADD PUSH2 0x6AF JUMP JUMPDEST PUSH2 0x1A22 DUP5 DUP5 PUSH2 0x4741 JUMP JUMPDEST CALLVALUE EQ PUSH2 0x1ADA JUMPI PUSH1 0x40 MLOAD PUSH3 0x461BCD PUSH1 0xE5 SHL DUP2 MSTORE PUSH1 0x20 PUSH1 0x4 DUP3 ADD MSTORE PUSH1 0x75 PUSH1 0x24 DUP3 ADD MSTORE PUSH32 0x5468652076616C75652073656E7420696E207468652072657175657374206D75 PUSH1 0x44 DUP3 ADD MSTORE PUSH32 0x73742062652074686520657865637574696F6E20706F77657220796F7520696E PUSH1 0x64 DUP3 ADD MSTORE PUSH32 0x74656E6420746F2070617920666F72206D756C7469706C696564206279207468 PUSH1 0x84 DUP3 ADD MSTORE PUSH21 0x6520616D6F756E74206F66206578656375746F7273 PUSH1 0x58 SHL PUSH1 0xA4 DUP3 ADD MSTORE PUSH1 0xC4 ADD PUSH2 0x6AF JUMP JUMPDEST PUSH1 0x40 DUP1 MLOAD PUSH2 0x100 DUP2 ADD DUP3 MSTORE PUSH1 0x5 SLOAD DUP2 MSTORE CALLER PUSH1 0x20 DUP1 DUP4 ADD SWAP2 SWAP1 SWAP2 MSTORE DUP3 MLOAD PUSH1 0x1F DUP12 ADD DUP3 SWAP1 DIV DUP3 MUL DUP2 ADD DUP3 ADD DUP5 MSTORE DUP11 DUP2 MSTORE PUSH1 0x0 SWAP4 DUP4 ADD SWAP2 DUP13 SWAP1 DUP13 SWAP1 DUP2 SWAP1 DUP5 ADD DUP4 DUP3 DUP1 DUP3 DUP5 CALLDATACOPY PUSH1 0x0 SWAP3 ADD SWAP2 SWAP1 SWAP2 MSTORE POP POP POP SWAP1 DUP3 MSTORE POP PUSH1 0x40 DUP1 MLOAD PUSH1 0x20 PUSH1 0x1F DUP12 ADD DUP2 SWAP1 DIV DUP2 MUL DUP3 ADD DUP2 ADD SWAP1 SWAP3 MSTORE DUP10 DUP2 MSTORE SWAP2 DUP2 ADD SWAP2 SWAP1 DUP11 SWAP1 DUP11 SWAP1 DUP2 SWAP1 DUP5 ADD DUP4 DUP3 DUP1 DUP3 DUP5 CALLDATACOPY PUSH1 0x0 SWAP3 ADD DUP3 SWAP1 MSTORE POP SWAP4 DUP6 MSTORE POP POP POP PUSH1 0x20 DUP1 DUP4 ADD DUP9 SWAP1 MSTORE PUSH1 0x40 DUP1 MLOAD PUSH1 0x60 DUP1 DUP3 ADD DUP4 MSTORE DUP2 DUP4 ADD DUP6 DUP2 MSTORE DUP3 MSTORE DUP2 DUP5 ADD DUP6 SWAP1 MSTORE DUP3 DUP7 ADD SWAP2 SWAP1 SWAP2 MSTORE DUP5 ADD DUP4 SWAP1 MSTORE PUSH1 0x80 SWAP1 SWAP4 ADD DUP3 SWAP1 MSTORE PUSH1 0x5 DUP1 SLOAD PUSH1 0x1 DUP2 ADD DUP3 SSTORE SWAP3 MSTORE DUP4 MLOAD PUSH32 0x36B6384B5ECA791C62761152D0C79BB0604C104A5FB6F4EB0703F3154BB3DB0 PUSH1 0x8 SWAP1 SWAP4 MUL SWAP3 DUP4 ADD SWAP1 DUP2 SSTORE SWAP1 DUP5 ADD MLOAD PUSH32 0x36B6384B5ECA791C62761152D0C79BB0604C104A5FB6F4EB0703F3154BB3DB1 DUP4 ADD DUP1 SLOAD PUSH1 0x1 PUSH1 0x1 PUSH1 0xA0 SHL SUB NOT AND PUSH1 0x1 PUSH1 0x1 PUSH1 0xA0 SHL SUB SWAP1 SWAP3 AND SWAP2 SWAP1 SWAP2 OR SWAP1 SSTORE SWAP2 DUP4 ADD MLOAD SWAP3 SWAP4 POP DUP4 SWAP3 PUSH32 0x36B6384B5ECA791C62761152D0C79BB0604C104A5FB6F4EB0703F3154BB3DB2 SWAP1 SWAP2 ADD SWAP1 PUSH2 0x1C50 SWAP1 DUP3 PUSH2 0x47A7 JUMP JUMPDEST POP PUSH1 0x60 DUP3 ADD MLOAD PUSH1 0x3 DUP3 ADD SWAP1 PUSH2 0x1C65 SWAP1 DUP3 PUSH2 0x47A7 JUMP JUMPDEST POP PUSH1 0x80 DUP3 ADD MLOAD PUSH1 0x4 DUP3 ADD SSTORE PUSH1 0xA0 DUP3 ADD MLOAD DUP1 MLOAD PUSH1 0x5 DUP4 ADD SWAP1 DUP2 SWAP1 PUSH2 0x1C88 SWAP1 DUP3 PUSH2 0x47A7 JUMP JUMPDEST POP PUSH1 0x20 SWAP2 DUP3 ADD MLOAD PUSH1 0x1 SWAP1 SWAP2 ADD DUP1 SLOAD PUSH1 0x1 PUSH1 0x1 PUSH1 0xA0 SHL SUB SWAP1 SWAP3 AND PUSH1 0x1 PUSH1 0x1 PUSH1 0xA0 SHL SUB NOT SWAP1 SWAP3 AND SWAP2 SWAP1 SWAP2 OR SWAP1 SSTORE PUSH1 0xC0 DUP4 ADD MLOAD PUSH1 0x7 SWAP1 SWAP3 ADD DUP1 SLOAD PUSH1 0xE0 SWAP1 SWAP5 ADD MLOAD ISZERO ISZERO PUSH2 0x100 MUL PUSH2 0xFF00 NOT SWAP4 ISZERO ISZERO SWAP4 SWAP1 SWAP4 AND PUSH2 0xFFFF NOT SWAP1 SWAP5 AND SWAP4 SWAP1 SWAP4 OR SWAP2 SWAP1 SWAP2 OR SWAP1 SWAP2 SSTORE DUP2 MLOAD PUSH1 0x0 SWAP1 DUP2 MSTORE PUSH1 0x6 SWAP1 SWAP2 MSTORE PUSH1 0x40 DUP2 KECCAK256 SWAP1 JUMPDEST DUP7 DUP2 PUSH4 0xFFFFFFFF AND LT ISZERO PUSH2 0x1EEF JUMPI PUSH1 0xB SLOAD PUSH1 0x0 SWAP1 PUSH2 0x1D18 SWAP1 DUP8 PUSH2 0x4719 JUMP JUMPDEST SWAP1 POP PUSH1 0x0 PUSH2 0x1D25 DUP3 PUSH2 0x7DD JUMP JUMPDEST PUSH1 0x0 ADD MLOAD SWAP1 POP DUP4 PUSH1 0x40 MLOAD DUP1 PUSH1 0xE0 ADD PUSH1 0x40 MSTORE DUP1 DUP4 PUSH1 0x1 PUSH1 0x1 PUSH1 0xA0 SHL SUB AND DUP2 MSTORE PUSH1 0x20 ADD TIMESTAMP DUP2 MSTORE PUSH1 0x20 ADD PUSH1 0x0 PUSH1 0x40 MLOAD PUSH1 0x20 ADD PUSH2 0x1D67 SWAP2 SWAP1 PUSH1 0xFF SWAP2 SWAP1 SWAP2 AND DUP2 MSTORE PUSH1 0x20 ADD SWAP1 JUMP JUMPDEST PUSH1 0x40 MLOAD PUSH1 0x20 DUP2 DUP4 SUB SUB DUP2 MSTORE SWAP1 PUSH1 0x40 MSTORE PUSH2 0x1D7F SWAP1 PUSH2 0x4866 JUMP JUMPDEST DUP2 MSTORE PUSH1 0x40 DUP1 MLOAD PUSH1 0x0 PUSH1 0x20 DUP3 DUP2 ADD SWAP2 SWAP1 SWAP2 MSTORE SWAP1 SWAP3 ADD SWAP2 ADD PUSH1 0x40 MLOAD PUSH1 0x20 DUP2 DUP4 SUB SUB DUP2 MSTORE SWAP1 PUSH1 0x40 MSTORE PUSH2 0x1DAD SWAP1 PUSH2 0x4866 JUMP JUMPDEST DUP2 MSTORE PUSH1 0x40 DUP1 MLOAD PUSH1 0x60 DUP1 DUP3 ADD DUP4 MSTORE PUSH1 0x0 DUP3 DUP5 ADD DUP2 DUP2 MSTORE DUP4 MSTORE PUSH1 0x20 DUP1 DUP5 ADD DUP3 SWAP1 MSTORE DUP1 DUP7 ADD SWAP4 SWAP1 SWAP4 MSTORE DUP4 DUP6 ADD DUP2 SWAP1 MSTORE SWAP4 DUP2 ADD DUP5 SWAP1 MSTORE DUP6 SLOAD PUSH1 0x1 DUP1 DUP3 ADD DUP9 SSTORE SWAP7 DUP6 MSTORE SWAP4 DUP3 SWAP1 KECCAK256 DUP6 MLOAD PUSH1 0x7 SWAP1 SWAP6 MUL ADD DUP1 SLOAD PUSH1 0x1 PUSH1 0x1 PUSH1 0xA0 SHL SUB NOT AND PUSH1 0x1 PUSH1 0x1 PUSH1 0xA0 SHL SUB SWAP1 SWAP6 AND SWAP5 SWAP1 SWAP5 OR DUP5 SSTORE SWAP1 DUP5 ADD MLOAD SWAP5 DUP4 ADD SWAP5 SWAP1 SWAP5 SSTORE DUP3 ADD MLOAD PUSH1 0x2 DUP3 ADD SSTORE SWAP2 DUP2 ADD MLOAD PUSH1 0x3 DUP4 ADD SSTORE PUSH1 0x80 DUP2 ADD MLOAD DUP1 MLOAD SWAP2 SWAP3 SWAP2 PUSH1 0x4 DUP4 ADD SWAP1 DUP2 SWAP1 PUSH2 0x1E4B SWAP1 DUP3 PUSH2 0x47A7 JUMP JUMPDEST POP PUSH1 0x20 SWAP2 SWAP1 SWAP2 ADD MLOAD PUSH1 0x1 SWAP1 SWAP2 ADD DUP1 SLOAD PUSH1 0x1 PUSH1 0x1 PUSH1 0xA0 SHL SUB SWAP1 SWAP3 AND PUSH1 0x1 PUSH1 0x1 PUSH1 0xA0 SHL SUB NOT SWAP1 SWAP3 AND SWAP2 SWAP1 SWAP2 OR SWAP1 SSTORE PUSH1 0xA0 DUP3 ADD MLOAD PUSH1 0x6 SWAP1 SWAP2 ADD DUP1 SLOAD PUSH1 0xC0 SWAP1 SWAP4 ADD MLOAD ISZERO ISZERO PUSH2 0x100 MUL PUSH2 0xFF00 NOT SWAP3 ISZERO ISZERO SWAP3 SWAP1 SWAP3 AND PUSH2 0xFFFF NOT SWAP1 SWAP4 AND SWAP3 SWAP1 SWAP3 OR OR SWAP1 SSTORE DUP5 MLOAD PUSH2 0x1EBC SWAP1 DUP3 SWAP1 PUSH4 0xFFFFFFFF DUP7 AND PUSH2 0x31CD JUMP JUMPDEST PUSH1 0xB SLOAD PUSH2 0x1ECA JUMPI PUSH1 0x1 PUSH2 0x1ECE JUMP JUMPDEST PUSH1 0xB SLOAD JUMPDEST PUSH2 0x1ED8 SWAP1 DUP9 PUSH2 0x472D JUMP JUMPDEST SWAP7 POP POP POP DUP1 DUP1 PUSH2 0x1EE7 SWAP1 PUSH2 0x45C7 JUMP JUMPDEST SWAP2 POP POP PUSH2 0x1CFA JUMP JUMPDEST POP POP MLOAD SWAP9 SWAP8 POP POP POP POP POP POP POP POP JUMP JUMPDEST CALLER PUSH1 0x0 SWAP1 DUP2 MSTORE PUSH1 0x8 PUSH1 0x20 MSTORE PUSH1 0x40 DUP2 KECCAK256 SLOAD DUP2 SUB PUSH2 0x1F2C JUMPI PUSH1 0x40 MLOAD PUSH3 0x461BCD PUSH1 0xE5 SHL DUP2 MSTORE PUSH1 0x4 ADD PUSH2 0x6AF SWAP1 PUSH2 0x488A JUMP JUMPDEST CALLER PUSH1 0x0 SWAP1 DUP2 MSTORE PUSH1 0x8 PUSH1 0x20 MSTORE PUSH1 0x40 DUP2 KECCAK256 SLOAD PUSH1 0x7 DUP1 SLOAD PUSH1 0x1 SWAP4 SWAP2 SWAP1 DUP4 SWAP1 DUP2 LT PUSH2 0x1F55 JUMPI PUSH2 0x1F55 PUSH2 0x45B1 JUMP JUMPDEST PUSH1 0x0 SWAP2 DUP3 MSTORE PUSH1 0x20 SWAP2 DUP3 SWAP1 KECCAK256 PUSH1 0x40 DUP1 MLOAD PUSH1 0xE0 DUP2 ADD DUP3 MSTORE PUSH1 0x7 SWAP1 SWAP4 MUL SWAP1 SWAP2 ADD DUP1 SLOAD PUSH1 0x1 PUSH1 0x1 PUSH1 0xA0 SHL SUB AND DUP4 MSTORE PUSH1 0x1 DUP2 ADD SLOAD SWAP4 DUP4 ADD SWAP4 SWAP1 SWAP4 MSTORE PUSH1 0x2 DUP4 ADD SLOAD SWAP1 DUP3 ADD MSTORE PUSH1 0x3 DUP3 ADD SLOAD PUSH1 0x60 DUP3 ADD MSTORE PUSH1 0x4 DUP3 ADD SLOAD PUSH1 0x80 DUP3 ADD MSTORE PUSH1 0x5 DUP3 ADD SLOAD PUSH1 0xA0 DUP3 ADD MSTORE PUSH1 0x6 SWAP1 SWAP2 ADD SLOAD PUSH1 0xC0 DUP3 ADD MSTORE SWAP1 POP DUP5 ISZERO PUSH2 0x1FDD JUMPI PUSH2 0x1FD3 DUP2 PUSH1 0x60 ADD MLOAD CALLER PUSH2 0x35FA JUMP JUMPDEST PUSH1 0x0 PUSH1 0x60 DUP4 ADD MSTORE SWAP3 POP JUMPDEST CALLER PUSH1 0x0 SWAP1 DUP2 MSTORE PUSH1 0x9 PUSH1 0x20 SWAP1 DUP2 MSTORE PUSH1 0x40 SWAP2 DUP3 SWAP1 KECCAK256 DUP4 MLOAD DUP2 SLOAD PUSH1 0x1 PUSH1 0x1 PUSH1 0xA0 SHL SUB NOT AND PUSH1 0x1 PUSH1 0x1 PUSH1 0xA0 SHL SUB SWAP1 SWAP2 AND OR DUP2 SSTORE SWAP1 DUP4 ADD MLOAD PUSH1 0x1 DUP3 ADD SSTORE SWAP1 DUP3 ADD MLOAD PUSH1 0x2 DUP3 ADD SSTORE PUSH1 0x60 DUP3 ADD MLOAD PUSH1 0x3 DUP3 ADD SSTORE PUSH1 0x80 DUP3 ADD MLOAD PUSH1 0x4 DUP3 ADD SSTORE PUSH1 0xA0 DUP3 ADD MLOAD PUSH1 0x5 DUP3 ADD SSTORE PUSH1 0xC0 DUP3 ADD MLOAD PUSH1 0x6 SWAP1 SWAP2 ADD SSTORE PUSH1 0x7 DUP1 SLOAD DUP4 SWAP1 DUP2 LT PUSH2 0x205B JUMPI PUSH2 0x205B PUSH2 0x45B1 JUMP JUMPDEST PUSH1 0x0 SWAP2 DUP3 MSTORE PUSH1 0x20 DUP1 DUP4 KECCAK256 PUSH1 0x7 SWAP1 SWAP3 MUL SWAP1 SWAP2 ADD DUP1 SLOAD PUSH1 0x1 PUSH1 0x1 PUSH1 0xA0 SHL SUB NOT AND DUP2 SSTORE PUSH1 0x1 DUP2 ADD DUP4 SWAP1 SSTORE PUSH1 0x2 DUP2 ADD DUP4 SWAP1 SSTORE PUSH1 0x3 DUP2 ADD DUP4 SWAP1 SSTORE PUSH1 0x4 DUP2 ADD DUP4 SWAP1 SSTORE PUSH1 0x5 DUP2 ADD DUP4 SWAP1 SSTORE PUSH1 0x6 ADD DUP3 SWAP1 SSTORE CALLER DUP3 MSTORE PUSH1 0x8 SWAP1 MSTORE PUSH1 0x40 DUP2 KECCAK256 DUP2 SWAP1 SSTORE PUSH1 0xB DUP1 SLOAD SWAP2 PUSH2 0x20C0 DUP4 PUSH2 0x48CA JUMP JUMPDEST SWAP1 SWAP2 SSTORE POP SWAP3 SWAP6 SWAP5 POP POP POP POP POP JUMP JUMPDEST PUSH1 0x0 PUSH2 0x20D9 CALLER PUSH2 0x1113 JUMP JUMPDEST SWAP1 POP DUP3 DUP2 PUSH1 0x20 ADD MLOAD EQ PUSH2 0x2162 JUMPI PUSH1 0x40 MLOAD PUSH3 0x461BCD PUSH1 0xE5 SHL DUP2 MSTORE PUSH1 0x20 PUSH1 0x4 DUP3 ADD MSTORE PUSH1 0x44 PUSH1 0x24 DUP3 ADD DUP2 SWAP1 MSTORE PUSH32 0x596F75206D7573742062652061737369676E656420746F207468652070726F76 SWAP1 DUP3 ADD MSTORE PUSH32 0x69646564207265717565737420746F207375626D6974206120726573756C7420 PUSH1 0x64 DUP3 ADD MSTORE PUSH4 0xD0C2E6D PUSH1 0xE3 SHL PUSH1 0x84 DUP3 ADD MSTORE PUSH1 0xA4 ADD PUSH2 0x6AF JUMP JUMPDEST CALLER PUSH1 0x1 PUSH1 0x1 PUSH1 0xA0 SHL SUB AND PUSH1 0x6 PUSH1 0x0 DUP4 PUSH1 0x20 ADD MLOAD DUP2 MSTORE PUSH1 0x20 ADD SWAP1 DUP2 MSTORE PUSH1 0x20 ADD PUSH1 0x0 KECCAK256 DUP3 PUSH1 0x40 ADD MLOAD DUP2 SLOAD DUP2 LT PUSH2 0x2198 JUMPI PUSH2 0x2198 PUSH2 0x45B1 JUMP JUMPDEST PUSH1 0x0 SWAP2 DUP3 MSTORE PUSH1 0x20 SWAP1 SWAP2 KECCAK256 PUSH1 0x7 SWAP1 SWAP2 MUL ADD SLOAD PUSH1 0x1 PUSH1 0x1 PUSH1 0xA0 SHL SUB AND EQ PUSH2 0x2217 JUMPI PUSH1 0x40 MLOAD PUSH3 0x461BCD PUSH1 0xE5 SHL DUP2 MSTORE PUSH1 0x20 PUSH1 0x4 DUP3 ADD MSTORE PUSH1 0x2F PUSH1 0x24 DUP3 ADD MSTORE PUSH32 0x546865726520697320616E2061646472657373206D6973736D6174636820696E PUSH1 0x44 DUP3 ADD MSTORE PUSH15 0x81D1A1948185CDCDA59DB9B595B9D PUSH1 0x8A SHL PUSH1 0x64 DUP3 ADD MSTORE PUSH1 0x84 ADD PUSH2 0x6AF JUMP JUMPDEST PUSH1 0x6 PUSH1 0x0 DUP3 PUSH1 0x20 ADD MLOAD DUP2 MSTORE PUSH1 0x20 ADD SWAP1 DUP2 MSTORE PUSH1 0x20 ADD PUSH1 0x0 KECCAK256 DUP2 PUSH1 0x40 ADD MLOAD DUP2 SLOAD DUP2 LT PUSH2 0x2243 JUMPI PUSH2 0x2243 PUSH2 0x45B1 JUMP JUMPDEST PUSH1 0x0 SWAP2 DUP3 MSTORE PUSH1 0x20 SWAP1 SWAP2 KECCAK256 PUSH1 0x6 PUSH1 0x7 SWAP1 SWAP3 MUL ADD ADD SLOAD PUSH1 0xFF AND ISZERO PUSH2 0x22E0 JUMPI PUSH1 0x40 MLOAD PUSH3 0x461BCD PUSH1 0xE5 SHL DUP2 MSTORE PUSH1 0x20 PUSH1 0x4 DUP3 ADD MSTORE PUSH1 0x4A PUSH1 0x24 DUP3 ADD MSTORE PUSH32 0x54686520726573756C7420666F72207468697320726571756573742C20666F72 PUSH1 0x44 DUP3 ADD MSTORE PUSH32 0x2074686973206578656375746F722C2068617320616C7265616479206265656E PUSH1 0x64 DUP3 ADD MSTORE PUSH10 0x81CDD589B5A5D1D1959 PUSH1 0xB2 SHL PUSH1 0x84 DUP3 ADD MSTORE PUSH1 0xA4 ADD PUSH2 0x6AF JUMP JUMPDEST DUP2 PUSH1 0x6 PUSH1 0x0 DUP4 PUSH1 0x20 ADD MLOAD DUP2 MSTORE PUSH1 0x20 ADD SWAP1 DUP2 MSTORE PUSH1 0x20 ADD PUSH1 0x0 KECCAK256 DUP3 PUSH1 0x40 ADD MLOAD DUP2 SLOAD DUP2 LT PUSH2 0x230D JUMPI PUSH2 0x230D PUSH2 0x45B1 JUMP JUMPDEST SWAP1 PUSH1 0x0 MSTORE PUSH1 0x20 PUSH1 0x0 KECCAK256 SWAP1 PUSH1 0x7 MUL ADD PUSH1 0x2 ADD DUP2 SWAP1 SSTORE POP PUSH1 0x1 PUSH1 0x6 PUSH1 0x0 DUP4 PUSH1 0x20 ADD MLOAD DUP2 MSTORE PUSH1 0x20 ADD SWAP1 DUP2 MSTORE PUSH1 0x20 ADD PUSH1 0x0 KECCAK256 DUP3 PUSH1 0x40 ADD MLOAD DUP2 SLOAD DUP2 LT PUSH2 0x2350 JUMPI PUSH2 0x2350 PUSH2 0x45B1 JUMP JUMPDEST PUSH1 0x0 SWAP2 DUP3 MSTORE PUSH1 0x20 SWAP2 DUP3 SWAP1 KECCAK256 PUSH1 0x7 SWAP2 SWAP1 SWAP2 MUL ADD PUSH1 0x6 ADD DUP1 SLOAD PUSH1 0xFF NOT AND SWAP3 ISZERO ISZERO SWAP3 SWAP1 SWAP3 OR SWAP1 SWAP2 SSTORE PUSH1 0x40 DUP1 MLOAD DUP6 DUP2 MSTORE CALLER SWAP3 DUP2 ADD SWAP3 SWAP1 SWAP3 MSTORE PUSH32 0xF8185B00DF8267D805722B32505EF3616148CA14FDF7F7A8DA7BD1261D4A0F2 SWAP2 ADD PUSH1 0x40 MLOAD DUP1 SWAP2 SUB SWAP1 LOG1 PUSH1 0x1 PUSH1 0x0 JUMPDEST PUSH1 0x0 DUP6 DUP2 MSTORE PUSH1 0x6 PUSH1 0x20 MSTORE PUSH1 0x40 SWAP1 KECCAK256 SLOAD PUSH1 0xFF DUP3 AND LT ISZERO PUSH2 0x246B JUMPI PUSH1 0x0 DUP6 DUP2 MSTORE PUSH1 0x6 PUSH1 0x20 MSTORE PUSH1 0x40 SWAP1 KECCAK256 DUP1 SLOAD PUSH1 0xFF DUP4 AND SWAP1 DUP2 LT PUSH2 0x23F0 JUMPI PUSH2 0x23F0 PUSH2 0x45B1 JUMP JUMPDEST PUSH1 0x0 SWAP2 DUP3 MSTORE PUSH1 0x20 SWAP1 SWAP2 KECCAK256 PUSH1 0x6 PUSH1 0x7 SWAP1 SWAP3 MUL ADD ADD SLOAD PUSH1 0xFF AND ISZERO DUP1 ISZERO PUSH2 0x244F JUMPI POP PUSH1 0x0 DUP6 DUP2 MSTORE PUSH1 0x6 PUSH1 0x20 MSTORE PUSH1 0x40 DUP2 KECCAK256 DUP1 SLOAD PUSH1 0xFF DUP5 AND SWAP1 DUP2 LT PUSH2 0x2432 JUMPI PUSH2 0x2432 PUSH2 0x45B1 JUMP JUMPDEST PUSH1 0x0 SWAP2 DUP3 MSTORE PUSH1 0x20 SWAP1 SWAP2 KECCAK256 PUSH1 0x7 SWAP1 SWAP2 MUL ADD SLOAD PUSH1 0x1 PUSH1 0x1 PUSH1 0xA0 SHL SUB AND EQ ISZERO JUMPDEST ISZERO PUSH2 0x2459 JUMPI PUSH1 0x0 SWAP2 POP JUMPDEST DUP1 PUSH2 0x2463 DUP2 PUSH2 0x46E4 JUMP JUMPDEST SWAP2 POP POP PUSH2 0x23B4 JUMP JUMPDEST POP DUP1 ISZERO PUSH2 0x24DE JUMPI PUSH1 0x1 PUSH1 0x5 DUP6 DUP2 SLOAD DUP2 LT PUSH2 0x2487 JUMPI PUSH2 0x2487 PUSH2 0x45B1 JUMP JUMPDEST PUSH1 0x0 SWAP2 DUP3 MSTORE PUSH1 0x20 SWAP2 DUP3 SWAP1 KECCAK256 PUSH1 0x8 SWAP2 SWAP1 SWAP2 MUL ADD PUSH1 0x7 ADD DUP1 SLOAD PUSH1 0xFF NOT AND SWAP3 ISZERO ISZERO SWAP3 SWAP1 SWAP3 OR SWAP1 SWAP2 SSTORE PUSH1 0x40 MLOAD DUP6 DUP2 MSTORE PUSH32 0x5CB4B3D6F39D6004CB8C297AC4EFCDDFA0865076260493CC65AC30B96AD7C909 SWAP2 ADD PUSH1 0x40 MLOAD DUP1 SWAP2 SUB SWAP1 LOG1 JUMPDEST POP POP POP POP JUMP JUMPDEST PUSH2 0x24EC PUSH2 0x40C3 JUMP JUMPDEST POP PUSH1 0x1 PUSH1 0x1 PUSH1 0xA0 SHL SUB SWAP1 DUP2 AND PUSH1 0x0 SWAP1 DUP2 MSTORE PUSH1 0x9 PUSH1 0x20 SWAP1 DUP2 MSTORE PUSH1 0x40 SWAP2 DUP3 SWAP1 KECCAK256 DUP3 MLOAD PUSH1 0xE0 DUP2 ADD DUP5 MSTORE DUP2 SLOAD SWAP1 SWAP5 AND DUP5 MSTORE PUSH1 0x1 DUP2 ADD SLOAD SWAP2 DUP5 ADD SWAP2 SWAP1 SWAP2 MSTORE PUSH1 0x2 DUP2 ADD SLOAD SWAP2 DUP4 ADD SWAP2 SWAP1 SWAP2 MSTORE PUSH1 0x3 DUP2 ADD SLOAD PUSH1 0x60 DUP4 ADD MSTORE PUSH1 0x4 DUP2 ADD SLOAD PUSH1 0x80 DUP4 ADD MSTORE PUSH1 0x5 DUP2 ADD SLOAD PUSH1 0xA0 DUP4 ADD MSTORE PUSH1 0x6 ADD SLOAD PUSH1 0xC0 DUP3 ADD MSTORE SWAP1 JUMP JUMPDEST PUSH1 0x0 DUP1 GAS SWAP1 POP CALLER PUSH1 0x1 PUSH1 0x1 PUSH1 0xA0 SHL SUB AND PUSH1 0x5 DUP5 DUP2 SLOAD DUP2 LT PUSH2 0x257E JUMPI PUSH2 0x257E PUSH2 0x45B1 JUMP JUMPDEST PUSH1 0x0 SWAP2 DUP3 MSTORE PUSH1 0x20 SWAP1 SWAP2 KECCAK256 PUSH1 0x1 PUSH1 0x8 SWAP1 SWAP3 MUL ADD ADD SLOAD PUSH1 0x1 PUSH1 0x1 PUSH1 0xA0 SHL SUB AND EQ PUSH2 0x25B8 JUMPI PUSH1 0x40 MLOAD PUSH3 0x461BCD PUSH1 0xE5 SHL DUP2 MSTORE PUSH1 0x4 ADD PUSH2 0x6AF SWAP1 PUSH2 0x4624 JUMP JUMPDEST PUSH1 0x5 DUP4 DUP2 SLOAD DUP2 LT PUSH2 0x25CB JUMPI PUSH2 0x25CB PUSH2 0x45B1 JUMP JUMPDEST PUSH1 0x0 SWAP2 DUP3 MSTORE PUSH1 0x20 SWAP1 SWAP2 KECCAK256 PUSH1 0x7 PUSH1 0x8 SWAP1 SWAP3 MUL ADD ADD SLOAD PUSH1 0xFF AND ISZERO PUSH2 0x25FF JUMPI PUSH1 0x40 MLOAD PUSH3 0x461BCD PUSH1 0xE5 SHL DUP2 MSTORE PUSH1 0x4 ADD PUSH2 0x6AF SWAP1 PUSH2 0x4676 JUMP JUMPDEST PUSH1 0x0 DUP4 DUP2 MSTORE PUSH1 0x6 PUSH1 0x20 MSTORE PUSH1 0x40 DUP2 KECCAK256 SLOAD DUP2 SWAP1 PUSH1 0x1 PUSH1 0x1 PUSH1 0x40 SHL SUB DUP2 GT ISZERO PUSH2 0x2627 JUMPI PUSH2 0x2627 PUSH2 0x442E JUMP JUMPDEST PUSH1 0x40 MLOAD SWAP1 DUP1 DUP3 MSTORE DUP1 PUSH1 0x20 MUL PUSH1 0x20 ADD DUP3 ADD PUSH1 0x40 MSTORE DUP1 ISZERO PUSH2 0x2650 JUMPI DUP2 PUSH1 0x20 ADD PUSH1 0x20 DUP3 MUL DUP1 CALLDATASIZE DUP4 CALLDATACOPY ADD SWAP1 POP JUMPDEST POP SWAP1 POP PUSH1 0x0 JUMPDEST PUSH1 0x0 DUP7 DUP2 MSTORE PUSH1 0x6 PUSH1 0x20 MSTORE PUSH1 0x40 SWAP1 KECCAK256 SLOAD PUSH1 0xFF DUP3 AND LT ISZERO PUSH2 0x273C JUMPI PUSH1 0x0 DUP7 DUP2 MSTORE PUSH1 0x6 PUSH1 0x20 MSTORE PUSH1 0x40 SWAP1 KECCAK256 DUP1 SLOAD PUSH1 0xFF DUP4 AND SWAP1 DUP2 LT PUSH2 0x2692 JUMPI PUSH2 0x2692 PUSH2 0x45B1 JUMP JUMPDEST PUSH1 0x0 SWAP2 DUP3 MSTORE PUSH1 0x20 SWAP1 SWAP2 KECCAK256 PUSH1 0x6 PUSH1 0x7 SWAP1 SWAP3 MUL ADD ADD SLOAD PUSH1 0xFF AND ISZERO DUP1 ISZERO PUSH2 0x26F7 JUMPI POP PUSH1 0x1 SLOAD PUSH1 0x0 DUP8 DUP2 MSTORE PUSH1 0x6 PUSH1 0x20 MSTORE PUSH1 0x40 SWAP1 KECCAK256 DUP1 SLOAD PUSH1 0xFF DUP5 AND SWAP1 DUP2 LT PUSH2 0x26D7 JUMPI PUSH2 0x26D7 PUSH2 0x45B1 JUMP JUMPDEST SWAP1 PUSH1 0x0 MSTORE PUSH1 0x20 PUSH1 0x0 KECCAK256 SWAP1 PUSH1 0x7 MUL ADD PUSH1 0x1 ADD SLOAD PUSH2 0x26F3 SWAP2 SWAP1 PUSH2 0x459E JUMP JUMPDEST TIMESTAMP LT ISZERO JUMPDEST ISZERO PUSH2 0x272A JUMPI PUSH1 0xFF DUP2 AND DUP3 DUP5 PUSH2 0x270B DUP2 PUSH2 0x46CB JUMP JUMPDEST SWAP6 POP DUP2 MLOAD DUP2 LT PUSH2 0x271D JUMPI PUSH2 0x271D PUSH2 0x45B1 JUMP JUMPDEST PUSH1 0x20 MUL PUSH1 0x20 ADD ADD DUP2 DUP2 MSTORE POP POP JUMPDEST DUP1 PUSH2 0x2734 DUP2 PUSH2 0x46E4 JUMP JUMPDEST SWAP2 POP POP PUSH2 0x2656 JUMP JUMPDEST POP PUSH1 0x0 DUP6 DUP2 MSTORE PUSH1 0x6 PUSH1 0x20 MSTORE PUSH1 0x40 SWAP1 KECCAK256 SLOAD DUP3 LT PUSH2 0x27D2 JUMPI PUSH1 0x40 MLOAD PUSH3 0x461BCD PUSH1 0xE5 SHL DUP2 MSTORE PUSH1 0x20 PUSH1 0x4 DUP3 ADD MSTORE PUSH1 0x49 PUSH1 0x24 DUP3 ADD MSTORE PUSH32 0x596F752063616E206F6E6C79207472756E63617465206578656375746F727320 PUSH1 0x44 DUP3 ADD MSTORE PUSH32 0x696620746865726520686173206265656E206174206C65617374206F6E652073 PUSH1 0x64 DUP3 ADD MSTORE PUSH9 0x3AB136B4B9B9B4B7B7 PUSH1 0xB9 SHL PUSH1 0x84 DUP3 ADD MSTORE PUSH1 0xA4 ADD PUSH2 0x6AF JUMP JUMPDEST DUP2 PUSH1 0x0 SUB PUSH2 0x27E5 JUMPI POP PUSH1 0x0 SWAP5 SWAP4 POP POP POP POP JUMP JUMPDEST POP SWAP2 SWAP4 SWAP3 POP POP POP JUMP JUMPDEST PUSH2 0x27F6 PUSH2 0x40C3 JUMP JUMPDEST PUSH1 0x7 DUP1 SLOAD DUP4 SWAP1 DUP2 LT PUSH2 0x1167 JUMPI PUSH2 0x1167 PUSH2 0x45B1 JUMP JUMPDEST PUSH2 0x2812 PUSH2 0x40C3 JUMP JUMPDEST POP PUSH1 0x1 PUSH1 0x1 PUSH1 0xA0 SHL SUB SWAP1 DUP2 AND PUSH1 0x0 SWAP1 DUP2 MSTORE PUSH1 0xA PUSH1 0x20 SWAP1 DUP2 MSTORE PUSH1 0x40 SWAP2 DUP3 SWAP1 KECCAK256 DUP3 MLOAD PUSH1 0xE0 DUP2 ADD DUP5 MSTORE DUP2 SLOAD SWAP1 SWAP5 AND DUP5 MSTORE PUSH1 0x1 DUP2 ADD SLOAD SWAP2 DUP5 ADD SWAP2 SWAP1 SWAP2 MSTORE PUSH1 0x2 DUP2 ADD SLOAD SWAP2 DUP4 ADD SWAP2 SWAP1 SWAP2 MSTORE PUSH1 0x3 DUP2 ADD SLOAD PUSH1 0x60 DUP4 ADD MSTORE PUSH1 0x4 DUP2 ADD SLOAD PUSH1 0x80 DUP4 ADD MSTORE PUSH1 0x5 DUP2 ADD SLOAD PUSH1 0xA0 DUP4 ADD MSTORE PUSH1 0x6 ADD SLOAD PUSH1 0xC0 DUP3 ADD MSTORE SWAP1 JUMP JUMPDEST PUSH1 0x0 PUSH2 0x288C CALLER PUSH2 0x1113 JUMP JUMPDEST SWAP1 POP DUP3 DUP2 PUSH1 0x20 ADD MLOAD EQ PUSH2 0x2913 JUMPI PUSH1 0x40 MLOAD PUSH3 0x461BCD PUSH1 0xE5 SHL DUP2 MSTORE PUSH1 0x20 PUSH1 0x4 DUP3 ADD MSTORE PUSH1 0x43 PUSH1 0x24 DUP3 ADD MSTORE PUSH32 0x596F75206D7573742062652061737369676E656420746F207468652070726F76 PUSH1 0x44 DUP3 ADD MSTORE PUSH32 0x69646564207265717565737420746F206C696265726174652074686520726573 PUSH1 0x64 DUP3 ADD MSTORE PUSH3 0x1D5B1D PUSH1 0xEA SHL PUSH1 0x84 DUP3 ADD MSTORE PUSH1 0xA4 ADD PUSH2 0x6AF JUMP JUMPDEST PUSH1 0x6 PUSH1 0x0 DUP3 PUSH1 0x20 ADD MLOAD DUP2 MSTORE PUSH1 0x20 ADD SWAP1 DUP2 MSTORE PUSH1 0x20 ADD PUSH1 0x0 KECCAK256 DUP2 PUSH1 0x40 ADD MLOAD DUP2 SLOAD DUP2 LT PUSH2 0x293F JUMPI PUSH2 0x293F PUSH2 0x45B1 JUMP JUMPDEST PUSH1 0x0 SWAP2 DUP3 MSTORE PUSH1 0x20 SWAP1 SWAP2 KECCAK256 PUSH1 0x6 PUSH1 0x7 SWAP1 SWAP3 MUL ADD ADD SLOAD PUSH1 0xFF AND ISZERO ISZERO PUSH1 0x1 EQ PUSH2 0x29DB JUMPI PUSH1 0x40 MLOAD PUSH3 0x461BCD PUSH1 0xE5 SHL DUP2 MSTORE PUSH1 0x20 PUSH1 0x4 DUP3 ADD MSTORE PUSH1 0x45 PUSH1 0x24 DUP3 ADD MSTORE PUSH32 0x596F75206D757374206669727374207375626D69742061207369676E65642072 PUSH1 0x44 DUP3 ADD MSTORE PUSH32 0x6573756C742068617368206265666F726520796F752063616E206C6962657261 PUSH1 0x64 DUP3 ADD MSTORE PUSH5 0x1D19481A5D PUSH1 0xDA SHL PUSH1 0x84 DUP3 ADD MSTORE PUSH1 0xA4 ADD PUSH2 0x6AF JUMP JUMPDEST PUSH1 0x5 DUP4 DUP2 SLOAD DUP2 LT PUSH2 0x29EE JUMPI PUSH2 0x29EE PUSH2 0x45B1 JUMP JUMPDEST PUSH1 0x0 SWAP2 DUP3 MSTORE PUSH1 0x20 SWAP1 SWAP2 KECCAK256 PUSH1 0x7 PUSH1 0x8 SWAP1 SWAP3 MUL ADD ADD SLOAD PUSH1 0xFF AND ISZERO ISZERO PUSH1 0x1 EQ PUSH2 0x2A8A JUMPI PUSH1 0x40 MLOAD PUSH3 0x461BCD PUSH1 0xE5 SHL DUP2 MSTORE PUSH1 0x20 PUSH1 0x4 DUP3 ADD MSTORE PUSH1 0x45 PUSH1 0x24 DUP3 ADD MSTORE PUSH32 0x596F75206D757374207761697420756E74696C20616C6C207375626D69737369 PUSH1 0x44 DUP3 ADD MSTORE PUSH32 0x6F6E7320666F72207468697320726571756573742068617665206265656E206C PUSH1 0x64 DUP3 ADD MSTORE PUSH5 0x1BD8DAD959 PUSH1 0xDA SHL PUSH1 0x84 DUP3 ADD MSTORE PUSH1 0xA4 ADD PUSH2 0x6AF JUMP JUMPDEST PUSH1 0x6 PUSH1 0x0 DUP3 PUSH1 0x20 ADD MLOAD DUP2 MSTORE PUSH1 0x20 ADD SWAP1 DUP2 MSTORE PUSH1 0x20 ADD PUSH1 0x0 KECCAK256 DUP2 PUSH1 0x40 ADD MLOAD DUP2 SLOAD DUP2 LT PUSH2 0x2AB6 JUMPI PUSH2 0x2AB6 PUSH2 0x45B1 JUMP JUMPDEST PUSH1 0x0 SWAP2 DUP3 MSTORE PUSH1 0x20 SWAP1 SWAP2 KECCAK256 PUSH1 0x7 SWAP1 SWAP2 MUL ADD PUSH1 0x6 ADD SLOAD PUSH2 0x100 SWAP1 DIV PUSH1 0xFF AND ISZERO PUSH2 0x2B58 JUMPI PUSH1 0x40 MLOAD PUSH3 0x461BCD PUSH1 0xE5 SHL DUP2 MSTORE PUSH1 0x20 PUSH1 0x4 DUP3 ADD MSTORE PUSH1 0x4A PUSH1 0x24 DUP3 ADD MSTORE PUSH32 0x54686520726573756C7420666F72207468697320726571756573742C20666F72 PUSH1 0x44 DUP3 ADD MSTORE PUSH32 0x2074686973206578656375746F722C2068617320616C7265616479206265656E PUSH1 0x64 DUP3 ADD MSTORE PUSH10 0x81B1A58995C985D1959 PUSH1 0xB2 SHL PUSH1 0x84 DUP3 ADD MSTORE PUSH1 0xA4 ADD PUSH2 0x6AF JUMP JUMPDEST PUSH1 0x20 DUP3 ADD MLOAD PUSH1 0x1 PUSH1 0x1 PUSH1 0xA0 SHL SUB AND CALLER EQ PUSH2 0x2BE6 JUMPI PUSH1 0x40 MLOAD PUSH3 0x461BCD PUSH1 0xE5 SHL DUP2 MSTORE PUSH1 0x20 PUSH1 0x4 DUP3 ADD MSTORE PUSH1 0x43 PUSH1 0x24 DUP3 ADD MSTORE PUSH32 0x54686520697373756572206F66207468652073656E7420726573756C7420646F PUSH1 0x44 DUP3 ADD MSTORE PUSH32 0x6573206E6F74206D6174636820746865207472616E73616374696F6E2073656E PUSH1 0x64 DUP3 ADD MSTORE PUSH3 0x3232B9 PUSH1 0xE9 SHL PUSH1 0x84 DUP3 ADD MSTORE PUSH1 0xA4 ADD PUSH2 0x6AF JUMP JUMPDEST PUSH1 0x6 PUSH1 0x0 DUP3 PUSH1 0x20 ADD MLOAD DUP2 MSTORE PUSH1 0x20 ADD SWAP1 DUP2 MSTORE PUSH1 0x20 ADD PUSH1 0x0 KECCAK256 DUP2 PUSH1 0x40 ADD MLOAD DUP2 SLOAD DUP2 LT PUSH2 0x2C12 JUMPI PUSH2 0x2C12 PUSH2 0x45B1 JUMP JUMPDEST SWAP1 PUSH1 0x0 MSTORE PUSH1 0x20 PUSH1 0x0 KECCAK256 SWAP1 PUSH1 0x7 MUL ADD PUSH1 0x2 ADD SLOAD DUP3 PUSH1 0x40 MLOAD PUSH1 0x20 ADD PUSH2 0x2C35 SWAP2 SWAP1 PUSH2 0x48E1 JUMP JUMPDEST PUSH1 0x40 MLOAD PUSH1 0x20 DUP2 DUP4 SUB SUB DUP2 MSTORE SWAP1 PUSH1 0x40 MSTORE DUP1 MLOAD SWAP1 PUSH1 0x20 ADD KECCAK256 EQ PUSH2 0x2CAF JUMPI PUSH1 0x40 MLOAD PUSH3 0x461BCD PUSH1 0xE5 SHL DUP2 MSTORE PUSH1 0x20 PUSH1 0x4 DUP3 ADD MSTORE PUSH1 0x2E PUSH1 0x24 DUP3 ADD MSTORE PUSH32 0x596F757220726573756C7420646F6573206E6F74206D6174636820796F757220 PUSH1 0x44 DUP3 ADD MSTORE PUSH14 0xE6EAC4DAD2E8E8CAC840D0C2E6D PUSH1 0x93 SHL PUSH1 0x64 DUP3 ADD MSTORE PUSH1 0x84 ADD PUSH2 0x6AF JUMP JUMPDEST ADDRESS PUSH1 0x20 DUP1 DUP5 ADD SWAP2 SWAP1 SWAP2 MSTORE PUSH1 0x40 MLOAD PUSH2 0x2CC8 SWAP2 DUP5 SWAP2 ADD PUSH2 0x48E1 JUMP JUMPDEST PUSH1 0x40 MLOAD PUSH1 0x20 DUP2 DUP4 SUB SUB DUP2 MSTORE SWAP1 PUSH1 0x40 MSTORE DUP1 MLOAD SWAP1 PUSH1 0x20 ADD KECCAK256 PUSH1 0x6 PUSH1 0x0 DUP4 PUSH1 0x20 ADD MLOAD DUP2 MSTORE PUSH1 0x20 ADD SWAP1 DUP2 MSTORE PUSH1 0x20 ADD PUSH1 0x0 KECCAK256 DUP3 PUSH1 0x40 ADD MLOAD DUP2 SLOAD DUP2 LT PUSH2 0x2D0A JUMPI PUSH2 0x2D0A PUSH2 0x45B1 JUMP JUMPDEST SWAP1 PUSH1 0x0 MSTORE PUSH1 0x20 PUSH1 0x0 KECCAK256 SWAP1 PUSH1 0x7 MUL ADD PUSH1 0x3 ADD DUP2 SWAP1 SSTORE POP DUP2 PUSH1 0x6 PUSH1 0x0 DUP4 PUSH1 0x20 ADD MLOAD DUP2 MSTORE PUSH1 0x20 ADD SWAP1 DUP2 MSTORE PUSH1 0x20 ADD PUSH1 0x0 KECCAK256 DUP3 PUSH1 0x40 ADD MLOAD DUP2 SLOAD DUP2 LT PUSH2 0x2D4C JUMPI PUSH2 0x2D4C PUSH2 0x45B1 JUMP JUMPDEST SWAP1 PUSH1 0x0 MSTORE PUSH1 0x20 PUSH1 0x0 KECCAK256 SWAP1 PUSH1 0x7 MUL ADD PUSH1 0x4 ADD PUSH1 0x0 DUP3 ADD MLOAD DUP2 PUSH1 0x0 ADD SWAP1 DUP2 PUSH2 0x2D72 SWAP2 SWAP1 PUSH2 0x47A7 JUMP JUMPDEST POP PUSH1 0x20 SWAP2 DUP3 ADD MLOAD PUSH1 0x1 SWAP2 DUP3 ADD DUP1 SLOAD PUSH1 0x1 PUSH1 0x1 PUSH1 0xA0 SHL SUB NOT AND PUSH1 0x1 PUSH1 0x1 PUSH1 0xA0 SHL SUB SWAP1 SWAP3 AND SWAP2 SWAP1 SWAP2 OR SWAP1 SSTORE DUP3 DUP3 ADD MLOAD PUSH1 0x0 SWAP1 DUP2 MSTORE PUSH1 0x6 SWAP1 SWAP3 MSTORE PUSH1 0x40 SWAP2 DUP3 SWAP1 KECCAK256 SWAP2 DUP4 ADD MLOAD DUP3 SLOAD SWAP2 SWAP3 SWAP2 DUP2 LT PUSH2 0x2DC6 JUMPI PUSH2 0x2DC6 PUSH2 0x45B1 JUMP JUMPDEST PUSH1 0x0 SWAP2 DUP3 MSTORE PUSH1 0x20 DUP3 KECCAK256 PUSH1 0x6 PUSH1 0x7 SWAP1 SWAP3 MUL ADD ADD DUP1 SLOAD SWAP3 ISZERO ISZERO PUSH2 0x100 MUL PUSH2 0xFF00 NOT SWAP1 SWAP4 AND SWAP3 SWAP1 SWAP3 OR SWAP1 SWAP2 SSTORE PUSH1 0x1 SWAP1 JUMPDEST PUSH1 0x0 DUP6 DUP2 MSTORE PUSH1 0x6 PUSH1 0x20 MSTORE PUSH1 0x40 SWAP1 KECCAK256 SLOAD PUSH1 0xFF DUP3 AND LT ISZERO PUSH2 0x2EB2 JUMPI PUSH1 0x0 DUP6 DUP2 MSTORE PUSH1 0x6 PUSH1 0x20 MSTORE PUSH1 0x40 SWAP1 KECCAK256 DUP1 SLOAD PUSH1 0xFF DUP4 AND SWAP1 DUP2 LT PUSH2 0x2E2F JUMPI PUSH2 0x2E2F PUSH2 0x45B1 JUMP JUMPDEST SWAP1 PUSH1 0x0 MSTORE PUSH1 0x20 PUSH1 0x0 KECCAK256 SWAP1 PUSH1 0x7 MUL ADD PUSH1 0x6 ADD PUSH1 0x1 SWAP1 SLOAD SWAP1 PUSH2 0x100 EXP SWAP1 DIV PUSH1 0xFF AND ISZERO DUP1 ISZERO PUSH2 0x2E96 JUMPI POP PUSH1 0x0 DUP6 DUP2 MSTORE PUSH1 0x6 PUSH1 0x20 MSTORE PUSH1 0x40 DUP2 KECCAK256 DUP1 SLOAD PUSH1 0xFF DUP5 AND SWAP1 DUP2 LT PUSH2 0x2E79 JUMPI PUSH2 0x2E79 PUSH2 0x45B1 JUMP JUMPDEST PUSH1 0x0 SWAP2 DUP3 MSTORE PUSH1 0x20 SWAP1 SWAP2 KECCAK256 PUSH1 0x7 SWAP1 SWAP2 MUL ADD SLOAD PUSH1 0x1 PUSH1 0x1 PUSH1 0xA0 SHL SUB AND EQ ISZERO JUMPDEST ISZERO PUSH2 0x2EA0 JUMPI PUSH1 0x0 SWAP2 POP JUMPDEST DUP1 PUSH2 0x2EAA DUP2 PUSH2 0x46E4 JUMP JUMPDEST SWAP2 POP POP PUSH2 0x2DF3 JUMP JUMPDEST POP DUP1 ISZERO PUSH2 0x24DE JUMPI PUSH2 0x24DE DUP5 PUSH2 0x3632 JUMP JUMPDEST DUP1 MLOAD PUSH1 0x1 PUSH1 0x1 PUSH1 0xA0 SHL SUB AND PUSH1 0x0 SWAP1 DUP2 MSTORE PUSH1 0x8 PUSH1 0x20 MSTORE PUSH1 0x40 SWAP1 KECCAK256 SLOAD ISZERO PUSH2 0x2F4F JUMPI PUSH1 0x40 MLOAD PUSH3 0x461BCD PUSH1 0xE5 SHL DUP2 MSTORE PUSH1 0x20 PUSH1 0x4 DUP3 ADD MSTORE PUSH1 0x38 PUSH1 0x24 DUP3 ADD MSTORE PUSH32 0x54686973206164647265737320697320616C7265616479207265676973746572 PUSH1 0x44 DUP3 ADD MSTORE PUSH32 0x656420617320616E20616374697665206578656375746F720000000000000000 PUSH1 0x64 DUP3 ADD MSTORE PUSH1 0x84 ADD PUSH2 0x6AF JUMP JUMPDEST PUSH1 0x1 JUMPDEST PUSH1 0x7 SLOAD PUSH2 0xFFFF DUP3 AND LT ISZERO PUSH2 0x2FAD JUMPI PUSH1 0x7 DUP1 SLOAD PUSH1 0x0 SWAP2 SWAP1 PUSH2 0xFFFF DUP5 AND SWAP1 DUP2 LT PUSH2 0x2F7C JUMPI PUSH2 0x2F7C PUSH2 0x45B1 JUMP JUMPDEST PUSH1 0x0 SWAP2 DUP3 MSTORE PUSH1 0x20 SWAP1 SWAP2 KECCAK256 PUSH1 0x7 SWAP1 SWAP2 MUL ADD SLOAD PUSH1 0x1 PUSH1 0x1 PUSH1 0xA0 SHL SUB AND EQ PUSH2 0x2FAD JUMPI DUP1 PUSH2 0x2FA5 DUP2 PUSH2 0x48F4 JUMP JUMPDEST SWAP2 POP POP PUSH2 0x2F52 JUMP JUMPDEST PUSH1 0x7 SLOAD PUSH2 0xFFFF DUP3 AND SUB PUSH2 0x310C JUMPI PUSH1 0x7 DUP1 SLOAD PUSH1 0x1 DUP2 ADD DUP3 SSTORE PUSH1 0x0 DUP3 SWAP1 MSTORE DUP4 MLOAD SWAP2 MUL PUSH32 0xA66CC928B5EDB82AF9BD49922954155AB7B0942694BEA4CE44661D9A8736C688 DUP2 ADD DUP1 SLOAD PUSH1 0x1 PUSH1 0x1 PUSH1 0xA0 SHL SUB SWAP1 SWAP4 AND PUSH1 0x1 PUSH1 0x1 PUSH1 0xA0 SHL SUB NOT SWAP1 SWAP4 AND SWAP3 SWAP1 SWAP3 OR SWAP1 SWAP2 SSTORE PUSH1 0x20 DUP4 ADD MLOAD PUSH32 0xA66CC928B5EDB82AF9BD49922954155AB7B0942694BEA4CE44661D9A8736C689 DUP3 ADD SSTORE PUSH1 0x40 DUP4 ADD MLOAD PUSH32 0xA66CC928B5EDB82AF9BD49922954155AB7B0942694BEA4CE44661D9A8736C68A DUP3 ADD SSTORE PUSH1 0x60 DUP4 ADD MLOAD PUSH32 0xA66CC928B5EDB82AF9BD49922954155AB7B0942694BEA4CE44661D9A8736C68B DUP3 ADD SSTORE PUSH1 0x80 DUP4 ADD MLOAD PUSH32 0xA66CC928B5EDB82AF9BD49922954155AB7B0942694BEA4CE44661D9A8736C68C DUP3 ADD SSTORE PUSH1 0xA0 DUP4 ADD MLOAD PUSH32 0xA66CC928B5EDB82AF9BD49922954155AB7B0942694BEA4CE44661D9A8736C68D DUP3 ADD SSTORE PUSH1 0xC0 DUP4 ADD MLOAD PUSH32 0xA66CC928B5EDB82AF9BD49922954155AB7B0942694BEA4CE44661D9A8736C68E SWAP1 SWAP2 ADD SSTORE PUSH2 0x3196 JUMP JUMPDEST DUP2 PUSH1 0x7 PUSH1 0x0 ADD DUP3 PUSH2 0xFFFF AND DUP2 SLOAD DUP2 LT PUSH2 0x3127 JUMPI PUSH2 0x3127 PUSH2 0x45B1 JUMP JUMPDEST PUSH1 0x0 SWAP2 DUP3 MSTORE PUSH1 0x20 SWAP2 DUP3 SWAP1 KECCAK256 DUP4 MLOAD PUSH1 0x7 SWAP3 SWAP1 SWAP3 MUL ADD DUP1 SLOAD PUSH1 0x1 PUSH1 0x1 PUSH1 0xA0 SHL SUB NOT AND PUSH1 0x1 PUSH1 0x1 PUSH1 0xA0 SHL SUB SWAP1 SWAP3 AND SWAP2 SWAP1 SWAP2 OR DUP2 SSTORE SWAP1 DUP3 ADD MLOAD PUSH1 0x1 DUP3 ADD SSTORE PUSH1 0x40 DUP3 ADD MLOAD PUSH1 0x2 DUP3 ADD SSTORE PUSH1 0x60 DUP3 ADD MLOAD PUSH1 0x3 DUP3 ADD SSTORE PUSH1 0x80 DUP3 ADD MLOAD PUSH1 0x4 DUP3 ADD SSTORE PUSH1 0xA0 DUP3 ADD MLOAD PUSH1 0x5 DUP3 ADD SSTORE PUSH1 0xC0 SWAP1 SWAP2 ADD MLOAD PUSH1 0x6 SWAP1 SWAP2 ADD SSTORE JUMPDEST DUP2 MLOAD PUSH1 0x1 PUSH1 0x1 PUSH1 0xA0 SHL SUB AND PUSH1 0x0 SWAP1 DUP2 MSTORE PUSH1 0x8 PUSH1 0x20 MSTORE PUSH1 0x40 DUP2 KECCAK256 PUSH2 0xFFFF DUP4 AND SWAP1 SSTORE PUSH1 0xB DUP1 SLOAD SWAP2 PUSH2 0x31C4 DUP4 PUSH2 0x46CB JUMP JUMPDEST SWAP2 SWAP1 POP SSTORE POP POP POP JUMP JUMPDEST PUSH1 0x1 PUSH1 0x1 PUSH1 0xA0 SHL SUB DUP4 AND PUSH1 0x0 SWAP1 DUP2 MSTORE PUSH1 0x8 PUSH1 0x20 MSTORE PUSH1 0x40 DUP2 KECCAK256 SLOAD SWAP1 SUB PUSH2 0x3204 JUMPI PUSH1 0x40 MLOAD PUSH3 0x461BCD PUSH1 0xE5 SHL DUP2 MSTORE PUSH1 0x4 ADD PUSH2 0x6AF SWAP1 PUSH2 0x488A JUMP JUMPDEST PUSH1 0x1 PUSH1 0x1 PUSH1 0xA0 SHL SUB DUP4 AND PUSH1 0x0 SWAP1 DUP2 MSTORE PUSH1 0x8 PUSH1 0x20 MSTORE PUSH1 0x40 DUP2 KECCAK256 SLOAD PUSH1 0x7 DUP1 SLOAD SWAP2 SWAP3 SWAP2 DUP4 SWAP1 DUP2 LT PUSH2 0x3234 JUMPI PUSH2 0x3234 PUSH2 0x45B1 JUMP JUMPDEST SWAP1 PUSH1 0x0 MSTORE PUSH1 0x20 PUSH1 0x0 KECCAK256 SWAP1 PUSH1 0x7 MUL ADD PUSH1 0x40 MLOAD DUP1 PUSH1 0xE0 ADD PUSH1 0x40 MSTORE SWAP1 DUP2 PUSH1 0x0 DUP3 ADD PUSH1 0x0 SWAP1 SLOAD SWAP1 PUSH2 0x100 EXP SWAP1 DIV PUSH1 0x1 PUSH1 0x1 PUSH1 0xA0 SHL SUB AND PUSH1 0x1 PUSH1 0x1 PUSH1 0xA0 SHL SUB AND PUSH1 0x1 PUSH1 0x1 PUSH1 0xA0 SHL SUB AND DUP2 MSTORE PUSH1 0x20 ADD PUSH1 0x1 DUP3 ADD SLOAD DUP2 MSTORE PUSH1 0x20 ADD PUSH1 0x2 DUP3 ADD SLOAD DUP2 MSTORE PUSH1 0x20 ADD PUSH1 0x3 DUP3 ADD SLOAD DUP2 MSTORE PUSH1 0x20 ADD PUSH1 0x4 DUP3 ADD SLOAD DUP2 MSTORE PUSH1 0x20 ADD PUSH1 0x5 DUP3 ADD SLOAD DUP2 MSTORE PUSH1 0x20 ADD PUSH1 0x6 DUP3 ADD SLOAD DUP2 MSTORE POP POP SWAP1 POP DUP4 DUP2 PUSH1 0x20 ADD DUP2 DUP2 MSTORE POP POP DUP3 DUP2 PUSH1 0x40 ADD DUP2 DUP2 MSTORE POP POP DUP1 PUSH1 0x7 PUSH1 0x3 ADD PUSH1 0x0 DUP8 PUSH1 0x1 PUSH1 0x1 PUSH1 0xA0 SHL SUB AND PUSH1 0x1 PUSH1 0x1 PUSH1 0xA0 SHL SUB AND DUP2 MSTORE PUSH1 0x20 ADD SWAP1 DUP2 MSTORE PUSH1 0x20 ADD PUSH1 0x0 KECCAK256 PUSH1 0x0 DUP3 ADD MLOAD DUP2 PUSH1 0x0 ADD PUSH1 0x0 PUSH2 0x100 EXP DUP2 SLOAD DUP2 PUSH1 0x1 PUSH1 0x1 PUSH1 0xA0 SHL SUB MUL NOT AND SWAP1 DUP4 PUSH1 0x1 PUSH1 0x1 PUSH1 0xA0 SHL SUB AND MUL OR SWAP1 SSTORE POP PUSH1 0x20 DUP3 ADD MLOAD DUP2 PUSH1 0x1 ADD SSTORE PUSH1 0x40 DUP3 ADD MLOAD DUP2 PUSH1 0x2 ADD SSTORE PUSH1 0x60 DUP3 ADD MLOAD DUP2 PUSH1 0x3 ADD SSTORE PUSH1 0x80 DUP3 ADD MLOAD DUP2 PUSH1 0x4 ADD SSTORE PUSH1 0xA0 DUP3 ADD MLOAD DUP2 PUSH1 0x5 ADD SSTORE PUSH1 0xC0 DUP3 ADD MLOAD DUP2 PUSH1 0x6 ADD SSTORE SWAP1 POP POP PUSH1 0x7 PUSH1 0x0 ADD DUP3 DUP2 SLOAD DUP2 LT PUSH2 0x3379 JUMPI PUSH2 0x3379 PUSH2 0x45B1 JUMP JUMPDEST PUSH1 0x0 SWAP2 DUP3 MSTORE PUSH1 0x20 DUP1 DUP4 KECCAK256 PUSH1 0x7 SWAP1 SWAP3 MUL SWAP1 SWAP2 ADD DUP1 SLOAD PUSH1 0x1 PUSH1 0x1 PUSH1 0xA0 SHL SUB NOT AND DUP2 SSTORE PUSH1 0x1 DUP2 ADD DUP4 SWAP1 SSTORE PUSH1 0x2 DUP2 ADD DUP4 SWAP1 SSTORE PUSH1 0x3 DUP2 ADD DUP4 SWAP1 SSTORE PUSH1 0x4 DUP2 ADD DUP4 SWAP1 SSTORE PUSH1 0x5 DUP2 ADD DUP4 SWAP1 SSTORE PUSH1 0x6 ADD DUP3 SWAP1 SSTORE PUSH1 0x1 PUSH1 0x1 PUSH1 0xA0 SHL SUB DUP8 AND DUP3 MSTORE PUSH1 0x8 SWAP1 MSTORE PUSH1 0x40 DUP2 KECCAK256 DUP2 SWAP1 SSTORE PUSH1 0xB DUP1 SLOAD SWAP2 PUSH2 0x33E7 DUP4 PUSH2 0x48CA JUMP JUMPDEST SWAP1 SWAP2 SSTORE POP POP PUSH1 0x40 MLOAD PUSH1 0x1 PUSH1 0x1 PUSH1 0xA0 SHL SUB DUP7 AND DUP2 MSTORE PUSH32 0x24F692EB5A718DE17B0926C231519C7EF9F63A265722EB6D08C9B82C0F0C2780 SWAP1 PUSH1 0x20 ADD PUSH1 0x40 MLOAD DUP1 SWAP2 SUB SWAP1 LOG1 POP POP POP POP POP JUMP JUMPDEST PUSH1 0x1 PUSH1 0x1 PUSH1 0xA0 SHL SUB DUP1 DUP4 AND PUSH1 0x0 DUP2 DUP2 MSTORE PUSH1 0xA PUSH1 0x20 MSTORE PUSH1 0x40 SWAP1 KECCAK256 SLOAD SWAP1 SWAP2 AND EQ PUSH2 0x34A7 JUMPI PUSH1 0x40 MLOAD PUSH3 0x461BCD PUSH1 0xE5 SHL DUP2 MSTORE PUSH1 0x20 PUSH1 0x4 DUP3 ADD MSTORE PUSH1 0x25 PUSH1 0x24 DUP3 ADD MSTORE PUSH32 0x596F752063616E206F6E6C792070756E6973682061206C6F636B656420657865 PUSH1 0x44 DUP3 ADD MSTORE PUSH5 0x31BABA37B9 PUSH1 0xD9 SHL PUSH1 0x64 DUP3 ADD MSTORE PUSH1 0x84 ADD PUSH2 0x6AF JUMP JUMPDEST PUSH1 0x1 PUSH1 0x1 PUSH1 0xA0 SHL SUB DUP1 DUP4 AND PUSH1 0x0 SWAP1 DUP2 MSTORE PUSH1 0xA PUSH1 0x20 SWAP1 DUP2 MSTORE PUSH1 0x40 SWAP2 DUP3 SWAP1 KECCAK256 DUP3 MLOAD PUSH1 0xE0 DUP2 ADD DUP5 MSTORE DUP2 SLOAD SWAP1 SWAP5 AND DUP5 MSTORE PUSH1 0x1 DUP2 ADD SLOAD SWAP2 DUP5 ADD SWAP2 SWAP1 SWAP2 MSTORE PUSH1 0x2 DUP2 ADD SLOAD SWAP2 DUP4 ADD SWAP2 SWAP1 SWAP2 MSTORE PUSH1 0x3 DUP2 ADD SLOAD PUSH1 0x60 DUP4 ADD DUP2 DUP2 MSTORE PUSH1 0x4 DUP4 ADD SLOAD PUSH1 0x80 DUP6 ADD MSTORE PUSH1 0x5 DUP4 ADD SLOAD PUSH1 0xA0 DUP6 ADD MSTORE PUSH1 0x6 SWAP1 SWAP3 ADD SLOAD PUSH1 0xC0 DUP5 ADD MSTORE DUP4 SWAP2 SWAP1 PUSH2 0x3524 SWAP1 DUP4 SWAP1 PUSH2 0x458B JUMP JUMPDEST SWAP1 MSTORE POP PUSH1 0xC0 DUP2 ADD DUP1 MLOAD PUSH1 0x1 SWAP2 SWAP1 PUSH2 0x353C SWAP1 DUP4 SWAP1 PUSH2 0x459E JUMP JUMPDEST SWAP1 MSTORE POP PUSH1 0x0 PUSH1 0x20 DUP1 DUP4 ADD DUP3 DUP2 MSTORE PUSH1 0x40 DUP1 DUP6 ADD DUP5 DUP2 MSTORE PUSH1 0x1 PUSH1 0x1 PUSH1 0xA0 SHL SUB SWAP8 DUP9 AND DUP6 MSTORE PUSH1 0x9 DUP5 MSTORE DUP2 DUP6 KECCAK256 DUP7 MLOAD DUP2 SLOAD SWAP10 AND PUSH1 0x1 PUSH1 0x1 PUSH1 0xA0 SHL SUB NOT SWAP10 DUP11 AND OR DUP2 SSTORE SWAP3 MLOAD PUSH1 0x1 DUP1 DUP6 ADD SWAP2 SWAP1 SWAP2 SSTORE SWAP1 MLOAD PUSH1 0x2 DUP5 DUP2 ADD SWAP2 SWAP1 SWAP2 SSTORE PUSH1 0x60 DUP8 ADD MLOAD PUSH1 0x3 DUP1 DUP7 ADD SWAP2 SWAP1 SWAP2 SSTORE PUSH1 0x80 DUP9 ADD MLOAD PUSH1 0x4 DUP1 DUP8 ADD SWAP2 SWAP1 SWAP2 SSTORE PUSH1 0xA0 DUP10 ADD MLOAD PUSH1 0x5 DUP1 DUP9 ADD SWAP2 SWAP1 SWAP2 SSTORE PUSH1 0xC0 SWAP1 SWAP10 ADD MLOAD PUSH1 0x6 SWAP7 DUP8 ADD SSTORE PUSH1 0xA SWAP1 SWAP7 MSTORE SWAP3 DUP7 KECCAK256 DUP1 SLOAD SWAP1 SWAP10 AND DUP10 SSTORE SWAP1 DUP9 ADD DUP6 SWAP1 SSTORE DUP8 ADD DUP5 SWAP1 SSTORE DUP7 ADD DUP4 SWAP1 SSTORE SWAP1 DUP6 ADD DUP3 SWAP1 SSTORE SWAP2 DUP5 ADD DUP2 SWAP1 SSTORE SWAP3 ADD SWAP2 SWAP1 SWAP2 SSTORE POP JUMP JUMPDEST CALLER PUSH1 0x0 SWAP1 DUP2 MSTORE PUSH1 0x20 DUP2 SWAP1 MSTORE PUSH1 0x40 DUP2 KECCAK256 DUP1 SLOAD DUP5 SWAP2 SWAP1 DUP4 SWAP1 PUSH2 0x361B SWAP1 DUP5 SWAP1 PUSH2 0x459E JUMP JUMPDEST SWAP1 SWAP2 SSTORE POP PUSH2 0x362B SWAP1 POP DUP4 DUP4 PUSH2 0x6BD JUMP JUMPDEST SWAP4 SWAP3 POP POP POP JUMP JUMPDEST PUSH1 0x0 DUP2 DUP2 MSTORE PUSH1 0x6 PUSH1 0x20 MSTORE PUSH1 0x40 DUP2 KECCAK256 SLOAD PUSH1 0x1 PUSH1 0x1 PUSH1 0x40 SHL SUB DUP2 GT ISZERO PUSH2 0x3658 JUMPI PUSH2 0x3658 PUSH2 0x442E JUMP JUMPDEST PUSH1 0x40 MLOAD SWAP1 DUP1 DUP3 MSTORE DUP1 PUSH1 0x20 MUL PUSH1 0x20 ADD DUP3 ADD PUSH1 0x40 MSTORE DUP1 ISZERO PUSH2 0x3681 JUMPI DUP2 PUSH1 0x20 ADD PUSH1 0x20 DUP3 MUL DUP1 CALLDATASIZE DUP4 CALLDATACOPY ADD SWAP1 POP JUMPDEST POP PUSH1 0x0 DUP4 DUP2 MSTORE PUSH1 0x6 PUSH1 0x20 MSTORE PUSH1 0x40 DUP2 KECCAK256 SLOAD SWAP2 SWAP3 POP SWAP1 PUSH1 0x1 PUSH1 0x1 PUSH1 0x40 SHL SUB DUP2 GT ISZERO PUSH2 0x36AC JUMPI PUSH2 0x36AC PUSH2 0x442E JUMP JUMPDEST PUSH1 0x40 MLOAD SWAP1 DUP1 DUP3 MSTORE DUP1 PUSH1 0x20 MUL PUSH1 0x20 ADD DUP3 ADD PUSH1 0x40 MSTORE DUP1 ISZERO PUSH2 0x36D5 JUMPI DUP2 PUSH1 0x20 ADD PUSH1 0x20 DUP3 MUL DUP1 CALLDATASIZE DUP4 CALLDATACOPY ADD SWAP1 POP JUMPDEST POP PUSH1 0x0 DUP5 DUP2 MSTORE PUSH1 0x6 PUSH1 0x20 MSTORE PUSH1 0x40 DUP2 KECCAK256 SLOAD SWAP2 SWAP3 POP SWAP1 PUSH1 0x1 PUSH1 0x1 PUSH1 0x40 SHL SUB DUP2 GT ISZERO PUSH2 0x3700 JUMPI PUSH2 0x3700 PUSH2 0x442E JUMP JUMPDEST PUSH1 0x40 MLOAD SWAP1 DUP1 DUP3 MSTORE DUP1 PUSH1 0x20 MUL PUSH1 0x20 ADD DUP3 ADD PUSH1 0x40 MSTORE DUP1 ISZERO PUSH2 0x3729 JUMPI DUP2 PUSH1 0x20 ADD PUSH1 0x20 DUP3 MUL DUP1 CALLDATASIZE DUP4 CALLDATACOPY ADD SWAP1 POP JUMPDEST POP SWAP1 POP PUSH1 0x0 JUMPDEST PUSH1 0x0 DUP6 DUP2 MSTORE PUSH1 0x6 PUSH1 0x20 MSTORE PUSH1 0x40 SWAP1 KECCAK256 SLOAD PUSH1 0xFF DUP3 AND LT ISZERO PUSH2 0x3922 JUMPI PUSH1 0x0 DUP6 DUP2 MSTORE PUSH1 0x6 PUSH1 0x20 MSTORE PUSH1 0x40 DUP2 KECCAK256 DUP1 SLOAD PUSH1 0xFF DUP5 AND SWAP1 DUP2 LT PUSH2 0x376B JUMPI PUSH2 0x376B PUSH2 0x45B1 JUMP JUMPDEST PUSH1 0x0 SWAP2 DUP3 MSTORE PUSH1 0x20 SWAP1 SWAP2 KECCAK256 PUSH1 0x7 SWAP1 SWAP2 MUL ADD SLOAD PUSH1 0x1 PUSH1 0x1 PUSH1 0xA0 SHL SUB AND EQ PUSH2 0x3910 JUMPI PUSH1 0x0 JUMPDEST DUP2 PUSH1 0xFF AND DUP2 PUSH1 0xFF AND GT PUSH2 0x390E JUMPI PUSH1 0x0 DUP1 SHL DUP6 DUP3 PUSH1 0xFF AND DUP2 MLOAD DUP2 LT PUSH2 0x37B3 JUMPI PUSH2 0x37B3 PUSH2 0x45B1 JUMP JUMPDEST PUSH1 0x20 MUL PUSH1 0x20 ADD ADD MLOAD SUB PUSH2 0x3870 JUMPI PUSH1 0x0 DUP7 DUP2 MSTORE PUSH1 0x6 PUSH1 0x20 MSTORE PUSH1 0x40 SWAP1 KECCAK256 DUP1 SLOAD PUSH1 0xFF DUP5 AND SWAP1 DUP2 LT PUSH2 0x37E3 JUMPI PUSH2 0x37E3 PUSH2 0x45B1 JUMP JUMPDEST SWAP1 PUSH1 0x0 MSTORE PUSH1 0x20 PUSH1 0x0 KECCAK256 SWAP1 PUSH1 0x7 MUL ADD PUSH1 0x3 ADD SLOAD DUP6 DUP3 PUSH1 0xFF AND DUP2 MLOAD DUP2 LT PUSH2 0x380A JUMPI PUSH2 0x380A PUSH2 0x45B1 JUMP JUMPDEST PUSH1 0x20 MUL PUSH1 0x20 ADD ADD DUP2 DUP2 MSTORE POP POP DUP2 DUP5 DUP3 PUSH1 0xFF AND DUP2 MLOAD DUP2 LT PUSH2 0x382C JUMPI PUSH2 0x382C PUSH2 0x45B1 JUMP JUMPDEST PUSH1 0x20 MUL PUSH1 0x20 ADD ADD SWAP1 PUSH1 0xFF AND SWAP1 DUP2 PUSH1 0xFF AND DUP2 MSTORE POP POP PUSH1 0x1 DUP4 DUP3 PUSH1 0xFF AND DUP2 MLOAD DUP2 LT PUSH2 0x3857 JUMPI PUSH2 0x3857 PUSH2 0x45B1 JUMP JUMPDEST PUSH1 0x20 MUL PUSH1 0x20 ADD ADD SWAP1 PUSH1 0xFF AND SWAP1 DUP2 PUSH1 0xFF AND DUP2 MSTORE POP POP PUSH2 0x390E JUMP JUMPDEST PUSH1 0x0 DUP7 DUP2 MSTORE PUSH1 0x6 PUSH1 0x20 MSTORE PUSH1 0x40 SWAP1 KECCAK256 DUP1 SLOAD PUSH1 0xFF DUP5 AND SWAP1 DUP2 LT PUSH2 0x3893 JUMPI PUSH2 0x3893 PUSH2 0x45B1 JUMP JUMPDEST SWAP1 PUSH1 0x0 MSTORE PUSH1 0x20 PUSH1 0x0 KECCAK256 SWAP1 PUSH1 0x7 MUL ADD PUSH1 0x3 ADD SLOAD DUP6 DUP3 PUSH1 0xFF AND DUP2 MLOAD DUP2 LT PUSH2 0x38BA JUMPI PUSH2 0x38BA PUSH2 0x45B1 JUMP JUMPDEST PUSH1 0x20 MUL PUSH1 0x20 ADD ADD MLOAD SUB PUSH2 0x38FC JUMPI DUP3 DUP2 PUSH1 0xFF AND DUP2 MLOAD DUP2 LT PUSH2 0x38DC JUMPI PUSH2 0x38DC PUSH2 0x45B1 JUMP JUMPDEST PUSH1 0x20 MUL PUSH1 0x20 ADD ADD DUP1 MLOAD DUP1 SWAP2 SWAP1 PUSH2 0x38F1 SWAP1 PUSH2 0x46E4 JUMP JUMPDEST PUSH1 0xFF AND SWAP1 MSTORE POP PUSH2 0x390E JUMP JUMPDEST DUP1 PUSH2 0x3906 DUP2 PUSH2 0x46E4 JUMP JUMPDEST SWAP2 POP POP PUSH2 0x378D JUMP JUMPDEST POP JUMPDEST DUP1 PUSH2 0x391A DUP2 PUSH2 0x46E4 JUMP JUMPDEST SWAP2 POP POP PUSH2 0x372F JUMP JUMPDEST POP PUSH1 0x0 DUP1 PUSH1 0x0 JUMPDEST DUP4 MLOAD DUP2 PUSH1 0xFF AND LT ISZERO PUSH2 0x39B0 JUMPI DUP4 DUP3 PUSH1 0xFF AND DUP2 MLOAD DUP2 LT PUSH2 0x394A JUMPI PUSH2 0x394A PUSH2 0x45B1 JUMP JUMPDEST PUSH1 0x20 MUL PUSH1 0x20 ADD ADD MLOAD PUSH1 0xFF AND DUP5 DUP3 PUSH1 0xFF AND DUP2 MLOAD DUP2 LT PUSH2 0x396A JUMPI PUSH2 0x396A PUSH2 0x45B1 JUMP JUMPDEST PUSH1 0x20 MUL PUSH1 0x20 ADD ADD MLOAD PUSH1 0xFF AND GT ISZERO PUSH2 0x399E JUMPI DUP1 SWAP2 POP DUP5 DUP2 PUSH1 0xFF AND DUP2 MLOAD DUP2 LT PUSH2 0x3993 JUMPI PUSH2 0x3993 PUSH2 0x45B1 JUMP JUMPDEST PUSH1 0x20 MUL PUSH1 0x20 ADD ADD MLOAD SWAP3 POP JUMPDEST DUP1 PUSH2 0x39A8 DUP2 PUSH2 0x46E4 JUMP JUMPDEST SWAP2 POP POP PUSH2 0x3929 JUMP JUMPDEST POP PUSH1 0x0 DUP7 DUP2 MSTORE PUSH1 0x6 PUSH1 0x20 MSTORE PUSH1 0x40 SWAP1 KECCAK256 DUP1 SLOAD PUSH1 0xFF DUP5 AND SWAP1 DUP2 LT PUSH2 0x39D4 JUMPI PUSH2 0x39D4 PUSH2 0x45B1 JUMP JUMPDEST SWAP1 PUSH1 0x0 MSTORE PUSH1 0x20 PUSH1 0x0 KECCAK256 SWAP1 PUSH1 0x7 MUL ADD PUSH1 0x4 ADD PUSH1 0x5 DUP8 DUP2 SLOAD DUP2 LT PUSH2 0x39F8 JUMPI PUSH2 0x39F8 PUSH2 0x45B1 JUMP JUMPDEST PUSH1 0x0 SWAP2 DUP3 MSTORE PUSH1 0x20 SWAP1 SWAP2 KECCAK256 PUSH1 0x5 PUSH1 0x8 SWAP1 SWAP3 MUL ADD ADD DUP1 PUSH2 0x3A16 DUP4 DUP3 PUSH2 0x490B JUMP JUMPDEST POP PUSH1 0x1 SWAP2 DUP3 ADD SLOAD SWAP1 DUP3 ADD DUP1 SLOAD PUSH1 0x1 PUSH1 0x1 PUSH1 0xA0 SHL SUB NOT AND PUSH1 0x1 PUSH1 0x1 PUSH1 0xA0 SHL SUB SWAP1 SWAP3 AND SWAP2 SWAP1 SWAP2 OR SWAP1 SSTORE PUSH1 0x5 DUP1 SLOAD DUP9 SWAP1 DUP2 LT PUSH2 0x3A51 JUMPI PUSH2 0x3A51 PUSH2 0x45B1 JUMP JUMPDEST SWAP1 PUSH1 0x0 MSTORE PUSH1 0x20 PUSH1 0x0 KECCAK256 SWAP1 PUSH1 0x8 MUL ADD PUSH1 0x7 ADD PUSH1 0x1 PUSH2 0x100 EXP DUP2 SLOAD DUP2 PUSH1 0xFF MUL NOT AND SWAP1 DUP4 ISZERO ISZERO MUL OR SWAP1 SSTORE POP PUSH32 0x246F3D93AC1454A9CBFD3D1D2A50998FD6CCAF210842C404BEFBAB7A6E10C02A DUP7 DUP5 DUP4 PUSH1 0xFF AND DUP2 MLOAD DUP2 LT PUSH2 0x3AB0 JUMPI PUSH2 0x3AB0 PUSH2 0x45B1 JUMP JUMPDEST PUSH1 0x20 MUL PUSH1 0x20 ADD ADD MLOAD PUSH1 0x40 MLOAD PUSH2 0x3AD2 SWAP3 SWAP2 SWAP1 SWAP2 DUP3 MSTORE PUSH1 0xFF AND PUSH1 0x20 DUP3 ADD MSTORE PUSH1 0x40 ADD SWAP1 JUMP JUMPDEST PUSH1 0x40 MLOAD DUP1 SWAP2 SUB SWAP1 LOG1 PUSH1 0x0 DUP4 DUP3 PUSH1 0xFF AND DUP2 MLOAD DUP2 LT PUSH2 0x3AF1 JUMPI PUSH2 0x3AF1 PUSH2 0x45B1 JUMP JUMPDEST PUSH1 0x20 MUL PUSH1 0x20 ADD ADD MLOAD PUSH1 0xFF AND PUSH1 0x1 PUSH1 0x1 PUSH1 0x40 SHL SUB DUP2 GT ISZERO PUSH2 0x3B13 JUMPI PUSH2 0x3B13 PUSH2 0x442E JUMP JUMPDEST PUSH1 0x40 MLOAD SWAP1 DUP1 DUP3 MSTORE DUP1 PUSH1 0x20 MUL PUSH1 0x20 ADD DUP3 ADD PUSH1 0x40 MSTORE DUP1 ISZERO PUSH2 0x3B3C JUMPI DUP2 PUSH1 0x20 ADD PUSH1 0x20 DUP3 MUL DUP1 CALLDATASIZE DUP4 CALLDATACOPY ADD SWAP1 POP JUMPDEST POP SWAP1 POP PUSH1 0x0 DUP1 DUP6 DUP5 PUSH1 0xFF AND DUP2 MLOAD DUP2 LT PUSH2 0x3B57 JUMPI PUSH2 0x3B57 PUSH2 0x45B1 JUMP JUMPDEST PUSH1 0x20 MUL PUSH1 0x20 ADD ADD MLOAD PUSH1 0xFF AND PUSH1 0x6 PUSH1 0x0 DUP12 DUP2 MSTORE PUSH1 0x20 ADD SWAP1 DUP2 MSTORE PUSH1 0x20 ADD PUSH1 0x0 KECCAK256 DUP1 SLOAD SWAP1 POP PUSH2 0x3B83 SWAP2 SWAP1 PUSH2 0x458B JUMP JUMPDEST PUSH1 0x1 PUSH1 0x1 PUSH1 0x40 SHL SUB DUP2 GT ISZERO PUSH2 0x3B9A JUMPI PUSH2 0x3B9A PUSH2 0x442E JUMP JUMPDEST PUSH1 0x40 MLOAD SWAP1 DUP1 DUP3 MSTORE DUP1 PUSH1 0x20 MUL PUSH1 0x20 ADD DUP3 ADD PUSH1 0x40 MSTORE DUP1 ISZERO PUSH2 0x3BC3 JUMPI DUP2 PUSH1 0x20 ADD PUSH1 0x20 DUP3 MUL DUP1 CALLDATASIZE DUP4 CALLDATACOPY ADD SWAP1 POP JUMPDEST POP SWAP1 POP PUSH1 0x0 DUP1 JUMPDEST PUSH1 0x0 DUP12 DUP2 MSTORE PUSH1 0x6 PUSH1 0x20 MSTORE PUSH1 0x40 SWAP1 KECCAK256 SLOAD PUSH1 0xFF DUP3 AND LT ISZERO PUSH2 0x3D50 JUMPI DUP10 DUP7 PUSH1 0xFF AND DUP2 MLOAD DUP2 LT PUSH2 0x3BF8 JUMPI PUSH2 0x3BF8 PUSH2 0x45B1 JUMP JUMPDEST PUSH1 0x20 MUL PUSH1 0x20 ADD ADD MLOAD PUSH1 0x6 PUSH1 0x0 DUP14 DUP2 MSTORE PUSH1 0x20 ADD SWAP1 DUP2 MSTORE PUSH1 0x20 ADD PUSH1 0x0 KECCAK256 DUP3 PUSH1 0xFF AND DUP2 SLOAD DUP2 LT PUSH2 0x3C27 JUMPI PUSH2 0x3C27 PUSH2 0x45B1 JUMP JUMPDEST SWAP1 PUSH1 0x0 MSTORE PUSH1 0x20 PUSH1 0x0 KECCAK256 SWAP1 PUSH1 0x7 MUL ADD PUSH1 0x3 ADD SLOAD SUB PUSH2 0x3CC0 JUMPI PUSH1 0x0 DUP12 DUP2 MSTORE PUSH1 0x6 PUSH1 0x20 MSTORE PUSH1 0x40 SWAP1 KECCAK256 DUP1 SLOAD PUSH1 0xFF DUP4 AND SWAP1 DUP2 LT PUSH2 0x3C61 JUMPI PUSH2 0x3C61 PUSH2 0x45B1 JUMP JUMPDEST PUSH1 0x0 SWAP2 DUP3 MSTORE PUSH1 0x20 SWAP1 SWAP2 KECCAK256 PUSH1 0x7 SWAP1 SWAP2 MUL ADD SLOAD PUSH1 0x1 PUSH1 0x1 PUSH1 0xA0 SHL SUB AND DUP6 DUP6 PUSH2 0x3C86 DUP2 PUSH2 0x46E4 JUMP JUMPDEST SWAP7 POP PUSH1 0xFF AND DUP2 MLOAD DUP2 LT PUSH2 0x3C9B JUMPI PUSH2 0x3C9B PUSH2 0x45B1 JUMP JUMPDEST PUSH1 0x20 MUL PUSH1 0x20 ADD ADD SWAP1 PUSH1 0x1 PUSH1 0x1 PUSH1 0xA0 SHL SUB AND SWAP1 DUP2 PUSH1 0x1 PUSH1 0x1 PUSH1 0xA0 SHL SUB AND DUP2 MSTORE POP POP PUSH2 0x3D3E JUMP JUMPDEST PUSH1 0x0 DUP12 DUP2 MSTORE PUSH1 0x6 PUSH1 0x20 MSTORE PUSH1 0x40 SWAP1 KECCAK256 DUP1 SLOAD PUSH1 0xFF DUP4 AND SWAP1 DUP2 LT PUSH2 0x3CE3 JUMPI PUSH2 0x3CE3 PUSH2 0x45B1 JUMP JUMPDEST PUSH1 0x0 SWAP2 DUP3 MSTORE PUSH1 0x20 SWAP1 SWAP2 KECCAK256 PUSH1 0x7 SWAP1 SWAP2 MUL ADD SLOAD PUSH1 0x1 PUSH1 0x1 PUSH1 0xA0 SHL SUB AND DUP4 DUP4 PUSH2 0x3D08 DUP2 PUSH2 0x46E4 JUMP JUMPDEST SWAP5 POP PUSH1 0xFF AND DUP2 MLOAD DUP2 LT PUSH2 0x3D1D JUMPI PUSH2 0x3D1D PUSH2 0x45B1 JUMP JUMPDEST PUSH1 0x20 MUL PUSH1 0x20 ADD ADD SWAP1 PUSH1 0x1 PUSH1 0x1 PUSH1 0xA0 SHL SUB AND SWAP1 DUP2 PUSH1 0x1 PUSH1 0x1 PUSH1 0xA0 SHL SUB AND DUP2 MSTORE POP POP JUMPDEST DUP1 PUSH2 0x3D48 DUP2 PUSH2 0x46E4 JUMP JUMPDEST SWAP2 POP POP PUSH2 0x3BCA JUMP JUMPDEST POP PUSH1 0x0 DUP1 PUSH1 0x5 DUP13 DUP2 SLOAD DUP2 LT PUSH2 0x3D67 JUMPI PUSH2 0x3D67 PUSH2 0x45B1 JUMP JUMPDEST SWAP1 PUSH1 0x0 MSTORE PUSH1 0x20 PUSH1 0x0 KECCAK256 SWAP1 PUSH1 0x8 MUL ADD PUSH1 0x4 ADD SLOAD SWAP1 POP PUSH1 0x0 JUMPDEST DUP7 MLOAD DUP2 PUSH1 0xFF AND LT ISZERO PUSH2 0x3E45 JUMPI PUSH2 0x3DB0 DUP3 DUP9 DUP4 PUSH1 0xFF AND DUP2 MLOAD DUP2 LT PUSH2 0x3DA3 JUMPI PUSH2 0x3DA3 PUSH2 0x45B1 JUMP JUMPDEST PUSH1 0x20 MUL PUSH1 0x20 ADD ADD MLOAD PUSH2 0x35FA JUMP JUMPDEST POP PUSH1 0x7 PUSH1 0x3 ADD PUSH1 0x0 DUP9 DUP4 PUSH1 0xFF AND DUP2 MLOAD DUP2 LT PUSH2 0x3DCD JUMPI PUSH2 0x3DCD PUSH2 0x45B1 JUMP JUMPDEST PUSH1 0x20 MUL PUSH1 0x20 ADD ADD MLOAD PUSH1 0x1 PUSH1 0x1 PUSH1 0xA0 SHL SUB AND PUSH1 0x1 PUSH1 0x1 PUSH1 0xA0 SHL SUB AND DUP2 MSTORE PUSH1 0x20 ADD SWAP1 DUP2 MSTORE PUSH1 0x20 ADD PUSH1 0x0 KECCAK256 PUSH1 0x4 ADD PUSH1 0x0 DUP2 SLOAD DUP1 SWAP3 SWAP2 SWAP1 PUSH2 0x3E09 SWAP1 PUSH2 0x46CB JUMP JUMPDEST SWAP2 SWAP1 POP SSTORE POP PUSH2 0x3E33 DUP8 DUP3 PUSH1 0xFF AND DUP2 MLOAD DUP2 LT PUSH2 0x3E26 JUMPI PUSH2 0x3E26 PUSH2 0x45B1 JUMP JUMPDEST PUSH1 0x20 MUL PUSH1 0x20 ADD ADD MLOAD PUSH2 0x3F56 JUMP JUMPDEST DUP1 PUSH2 0x3E3D DUP2 PUSH2 0x46E4 JUMP JUMPDEST SWAP2 POP POP PUSH2 0x3D7E JUMP JUMPDEST POP DUP4 MLOAD ISZERO PUSH2 0x3E94 JUMPI PUSH2 0x3E92 DUP2 DUP6 MLOAD PUSH2 0x3E5D SWAP2 SWAP1 PUSH2 0x4741 JUMP JUMPDEST PUSH1 0x5 DUP15 DUP2 SLOAD DUP2 LT PUSH2 0x3E70 JUMPI PUSH2 0x3E70 PUSH2 0x45B1 JUMP JUMPDEST PUSH1 0x0 SWAP2 DUP3 MSTORE PUSH1 0x20 SWAP1 SWAP2 KECCAK256 PUSH1 0x1 PUSH1 0x8 SWAP1 SWAP3 MUL ADD ADD SLOAD PUSH1 0x1 PUSH1 0x1 PUSH1 0xA0 SHL SUB AND PUSH2 0x35FA JUMP JUMPDEST POP JUMPDEST PUSH1 0x0 JUMPDEST DUP5 MLOAD DUP2 PUSH1 0xFF AND LT ISZERO PUSH2 0x3F3C JUMPI PUSH1 0x7B SWAP3 POP PUSH1 0x7 PUSH1 0x3 ADD PUSH1 0x0 DUP7 DUP4 PUSH1 0xFF AND DUP2 MLOAD DUP2 LT PUSH2 0x3EC3 JUMPI PUSH2 0x3EC3 PUSH2 0x45B1 JUMP JUMPDEST PUSH1 0x20 MUL PUSH1 0x20 ADD ADD MLOAD PUSH1 0x1 PUSH1 0x1 PUSH1 0xA0 SHL SUB AND PUSH1 0x1 PUSH1 0x1 PUSH1 0xA0 SHL SUB AND DUP2 MSTORE PUSH1 0x20 ADD SWAP1 DUP2 MSTORE PUSH1 0x20 ADD PUSH1 0x0 KECCAK256 PUSH1 0x5 ADD PUSH1 0x0 DUP2 SLOAD DUP1 SWAP3 SWAP2 SWAP1 PUSH2 0x3EFF SWAP1 PUSH2 0x46CB JUMP JUMPDEST SWAP2 SWAP1 POP SSTORE POP PUSH2 0x3F2A DUP6 DUP3 PUSH1 0xFF AND DUP2 MLOAD DUP2 LT PUSH2 0x3F1C JUMPI PUSH2 0x3F1C PUSH2 0x45B1 JUMP JUMPDEST PUSH1 0x20 MUL PUSH1 0x20 ADD ADD MLOAD DUP5 PUSH2 0x342F JUMP JUMPDEST DUP1 PUSH2 0x3F34 DUP2 PUSH2 0x46E4 JUMP JUMPDEST SWAP2 POP POP PUSH2 0x3E97 JUMP JUMPDEST POP PUSH2 0x3F47 DUP3 ADDRESS PUSH2 0x35FA JUMP JUMPDEST POP POP POP POP POP POP POP POP POP POP POP POP POP JUMP JUMPDEST PUSH1 0x1 PUSH1 0x1 PUSH1 0xA0 SHL SUB DUP1 DUP3 AND PUSH1 0x0 DUP2 DUP2 MSTORE PUSH1 0xA PUSH1 0x20 MSTORE PUSH1 0x40 SWAP1 KECCAK256 SLOAD SWAP1 SWAP2 AND EQ PUSH2 0x3FC8 JUMPI PUSH1 0x40 MLOAD PUSH3 0x461BCD PUSH1 0xE5 SHL DUP2 MSTORE PUSH1 0x20 PUSH1 0x4 DUP3 ADD MSTORE PUSH1 0x31 PUSH1 0x24 DUP3 ADD MSTORE PUSH1 0x0 DUP1 MLOAD PUSH1 0x20 PUSH2 0x49E6 DUP4 CODECOPY DUP2 MLOAD SWAP2 MSTORE PUSH1 0x44 DUP3 ADD MSTORE PUSH17 0x30903637B1B5B2B21032BC32B1BABA37B9 PUSH1 0x79 SHL PUSH1 0x64 DUP3 ADD MSTORE PUSH1 0x84 ADD PUSH2 0x6AF JUMP JUMPDEST PUSH1 0x1 PUSH1 0x1 PUSH1 0xA0 SHL SUB DUP1 DUP3 AND PUSH1 0x0 SWAP1 DUP2 MSTORE PUSH1 0xA PUSH1 0x20 SWAP1 DUP2 MSTORE PUSH1 0x40 DUP1 DUP4 KECCAK256 PUSH1 0x1 DUP2 ADD DUP5 SWAP1 SSTORE PUSH1 0x2 DUP2 ADD DUP5 SWAP1 SSTORE DUP2 MLOAD PUSH1 0xE0 DUP2 ADD DUP4 MSTORE DUP2 SLOAD SWAP1 SWAP6 AND DUP6 MSTORE SWAP2 DUP5 ADD DUP4 SWAP1 MSTORE DUP4 ADD SWAP2 SWAP1 SWAP2 MSTORE PUSH1 0x3 DUP2 ADD SLOAD PUSH1 0x60 DUP4 ADD MSTORE PUSH1 0x4 DUP2 ADD SLOAD PUSH1 0x80 DUP4 ADD MSTORE PUSH1 0x5 DUP2 ADD SLOAD PUSH1 0xA0 DUP4 ADD MSTORE PUSH1 0x6 ADD SLOAD PUSH1 0xC0 DUP3 ADD MSTORE PUSH2 0x403D SWAP1 PUSH2 0x2EC2 JUMP JUMPDEST PUSH1 0x1 PUSH1 0x1 PUSH1 0xA0 SHL SUB DUP2 AND PUSH1 0x0 DUP2 DUP2 MSTORE PUSH1 0xA PUSH1 0x20 SWAP1 DUP2 MSTORE PUSH1 0x40 DUP1 DUP4 KECCAK256 DUP1 SLOAD PUSH1 0x1 PUSH1 0x1 PUSH1 0xA0 SHL SUB NOT AND DUP2 SSTORE PUSH1 0x1 DUP2 ADD DUP5 SWAP1 SSTORE PUSH1 0x2 DUP2 ADD DUP5 SWAP1 SSTORE PUSH1 0x3 DUP2 ADD DUP5 SWAP1 SSTORE PUSH1 0x4 DUP2 ADD DUP5 SWAP1 SSTORE PUSH1 0x5 DUP2 ADD DUP5 SWAP1 SSTORE PUSH1 0x6 ADD SWAP3 SWAP1 SWAP3 SSTORE SWAP1 MLOAD SWAP2 DUP3 MSTORE PUSH32 0xF6C9B68317A850B69648921B68A48C48C061A1F7EF6520B975DCC5A2ED54508A SWAP2 ADD PUSH1 0x40 MLOAD DUP1 SWAP2 SUB SWAP1 LOG1 POP JUMP JUMPDEST PUSH1 0x40 MLOAD DUP1 PUSH1 0xE0 ADD PUSH1 0x40 MSTORE DUP1 PUSH1 0x0 PUSH1 0x1 PUSH1 0x1 PUSH1 0xA0 SHL SUB AND DUP2 MSTORE PUSH1 0x20 ADD PUSH1 0x0 DUP2 MSTORE PUSH1 0x20 ADD PUSH1 0x0 DUP2 MSTORE PUSH1 0x20 ADD PUSH1 0x0 DUP2 MSTORE PUSH1 0x20 ADD PUSH1 0x0 DUP2 MSTORE PUSH1 0x20 ADD PUSH1 0x0 DUP2 MSTORE PUSH1 0x20 ADD PUSH1 0x0 DUP2 MSTORE POP SWAP1 JUMP JUMPDEST DUP1 CALLDATALOAD PUSH1 0x1 PUSH1 0x1 PUSH1 0xA0 SHL SUB DUP2 AND DUP2 EQ PUSH2 0x6B8 JUMPI PUSH1 0x0 DUP1 REVERT JUMPDEST PUSH1 0x0 PUSH1 0x20 DUP3 DUP5 SUB SLT ISZERO PUSH2 0x4132 JUMPI PUSH1 0x0 DUP1 REVERT JUMPDEST PUSH2 0x362B DUP3 PUSH2 0x4109 JUMP JUMPDEST PUSH1 0x0 DUP2 MLOAD DUP1 DUP5 MSTORE PUSH1 0x0 JUMPDEST DUP2 DUP2 LT ISZERO PUSH2 0x4161 JUMPI PUSH1 0x20 DUP2 DUP6 ADD DUP2 ADD MLOAD DUP7 DUP4 ADD DUP3 ADD MSTORE ADD PUSH2 0x4145 JUMP JUMPDEST POP PUSH1 0x0 PUSH1 0x20 DUP3 DUP7 ADD ADD MSTORE PUSH1 0x20 PUSH1 0x1F NOT PUSH1 0x1F DUP4 ADD AND DUP6 ADD ADD SWAP2 POP POP SWAP3 SWAP2 POP POP JUMP JUMPDEST PUSH1 0x20 DUP2 MSTORE PUSH1 0x0 PUSH2 0x362B PUSH1 0x20 DUP4 ADD DUP5 PUSH2 0x413B JUMP JUMPDEST PUSH1 0x0 DUP1 PUSH1 0x40 DUP4 DUP6 SUB SLT ISZERO PUSH2 0x41A7 JUMPI PUSH1 0x0 DUP1 REVERT JUMPDEST DUP3 CALLDATALOAD SWAP2 POP PUSH2 0x41B7 PUSH1 0x20 DUP5 ADD PUSH2 0x4109 JUMP JUMPDEST SWAP1 POP SWAP3 POP SWAP3 SWAP1 POP JUMP JUMPDEST PUSH1 0x0 PUSH1 0x20 DUP3 DUP5 SUB SLT ISZERO PUSH2 0x41D2 JUMPI PUSH1 0x0 DUP1 REVERT JUMPDEST POP CALLDATALOAD SWAP2 SWAP1 POP JUMP JUMPDEST PUSH1 0x0 DUP1 PUSH1 0x40 DUP4 DUP6 SUB SLT ISZERO PUSH2 0x41EC JUMPI PUSH1 0x0 DUP1 REVERT JUMPDEST POP POP DUP1 CALLDATALOAD SWAP3 PUSH1 0x20 SWAP1 SWAP2 ADD CALLDATALOAD SWAP2 POP JUMP JUMPDEST PUSH1 0x0 DUP2 MLOAD PUSH1 0x40 DUP5 MSTORE PUSH2 0x4210 PUSH1 0x40 DUP6 ADD DUP3 PUSH2 0x413B JUMP JUMPDEST PUSH1 0x20 SWAP4 DUP5 ADD MLOAD PUSH1 0x1 PUSH1 0x1 PUSH1 0xA0 SHL SUB AND SWAP5 SWAP1 SWAP4 ADD SWAP4 SWAP1 SWAP4 MSTORE POP SWAP2 SWAP1 POP JUMP JUMPDEST PUSH1 0x1 DUP1 PUSH1 0xA0 SHL SUB DUP9 AND DUP2 MSTORE DUP7 PUSH1 0x20 DUP3 ADD MSTORE DUP6 PUSH1 0x40 DUP3 ADD MSTORE DUP5 PUSH1 0x60 DUP3 ADD MSTORE PUSH1 0xE0 PUSH1 0x80 DUP3 ADD MSTORE PUSH1 0x0 PUSH2 0x4260 PUSH1 0xE0 DUP4 ADD DUP7 PUSH2 0x41FB JUMP JUMPDEST SWAP4 ISZERO ISZERO PUSH1 0xA0 DUP4 ADD MSTORE POP SWAP1 ISZERO ISZERO PUSH1 0xC0 SWAP1 SWAP2 ADD MSTORE SWAP6 SWAP5 POP POP POP POP POP JUMP JUMPDEST PUSH1 0x20 DUP1 DUP3 MSTORE DUP3 MLOAD DUP3 DUP3 ADD DUP2 SWAP1 MSTORE PUSH1 0x0 SWAP2 SWAP1 DUP5 DUP3 ADD SWAP1 PUSH1 0x40 DUP6 ADD SWAP1 DUP5 JUMPDEST DUP2 DUP2 LT ISZERO PUSH2 0x42BC JUMPI DUP4 MLOAD PUSH1 0x1 PUSH1 0x1 PUSH1 0xA0 SHL SUB AND DUP4 MSTORE SWAP3 DUP5 ADD SWAP3 SWAP2 DUP5 ADD SWAP2 PUSH1 0x1 ADD PUSH2 0x4297 JUMP JUMPDEST POP SWAP1 SWAP7 SWAP6 POP POP POP POP POP POP JUMP JUMPDEST DUP9 DUP2 MSTORE PUSH1 0x1 PUSH1 0x1 PUSH1 0xA0 SHL SUB DUP9 AND PUSH1 0x20 DUP3 ADD MSTORE PUSH2 0x100 PUSH1 0x40 DUP3 ADD DUP2 SWAP1 MSTORE PUSH1 0x0 SWAP1 PUSH2 0x42F3 DUP4 DUP3 ADD DUP11 PUSH2 0x413B JUMP JUMPDEST SWAP1 POP DUP3 DUP2 SUB PUSH1 0x60 DUP5 ADD MSTORE PUSH2 0x4307 DUP2 DUP10 PUSH2 0x413B JUMP JUMPDEST SWAP1 POP DUP7 PUSH1 0x80 DUP5 ADD MSTORE DUP3 DUP2 SUB PUSH1 0xA0 DUP5 ADD MSTORE PUSH2 0x4321 DUP2 DUP8 PUSH2 0x41FB JUMP JUMPDEST SWAP5 ISZERO ISZERO PUSH1 0xC0 DUP5 ADD MSTORE POP POP SWAP1 ISZERO ISZERO PUSH1 0xE0 SWAP1 SWAP2 ADD MSTORE SWAP7 SWAP6 POP POP POP POP POP POP JUMP JUMPDEST PUSH1 0x0 DUP1 DUP4 PUSH1 0x1F DUP5 ADD SLT PUSH2 0x4350 JUMPI PUSH1 0x0 DUP1 REVERT JUMPDEST POP DUP2 CALLDATALOAD PUSH1 0x1 PUSH1 0x1 PUSH1 0x40 SHL SUB DUP2 GT ISZERO PUSH2 0x4367 JUMPI PUSH1 0x0 DUP1 REVERT JUMPDEST PUSH1 0x20 DUP4 ADD SWAP2 POP DUP4 PUSH1 0x20 DUP3 DUP6 ADD ADD GT ISZERO PUSH2 0x437F JUMPI PUSH1 0x0 DUP1 REVERT JUMPDEST SWAP3 POP SWAP3 SWAP1 POP JUMP JUMPDEST PUSH1 0x0 DUP1 PUSH1 0x0 DUP1 PUSH1 0x0 DUP1 PUSH1 0x0 PUSH1 0xA0 DUP9 DUP11 SUB SLT ISZERO PUSH2 0x43A1 JUMPI PUSH1 0x0 DUP1 REVERT JUMPDEST DUP8 CALLDATALOAD PUSH1 0x1 PUSH1 0x1 PUSH1 0x40 SHL SUB DUP1 DUP3 GT ISZERO PUSH2 0x43B8 JUMPI PUSH1 0x0 DUP1 REVERT JUMPDEST PUSH2 0x43C4 DUP12 DUP4 DUP13 ADD PUSH2 0x433E JUMP JUMPDEST SWAP1 SWAP10 POP SWAP8 POP PUSH1 0x20 DUP11 ADD CALLDATALOAD SWAP2 POP DUP1 DUP3 GT ISZERO PUSH2 0x43DD JUMPI PUSH1 0x0 DUP1 REVERT JUMPDEST POP PUSH2 0x43EA DUP11 DUP3 DUP12 ADD PUSH2 0x433E JUMP JUMPDEST SWAP9 SWAP12 SWAP8 SWAP11 POP SWAP9 PUSH1 0x40 DUP2 ADD CALLDATALOAD SWAP8 PUSH1 0x60 DUP3 ADD CALLDATALOAD SWAP8 POP PUSH1 0x80 SWAP1 SWAP2 ADD CALLDATALOAD SWAP6 POP SWAP4 POP POP POP POP JUMP JUMPDEST PUSH1 0x0 PUSH1 0x20 DUP3 DUP5 SUB SLT ISZERO PUSH2 0x441E JUMPI PUSH1 0x0 DUP1 REVERT JUMPDEST DUP2 CALLDATALOAD DUP1 ISZERO ISZERO DUP2 EQ PUSH2 0x362B JUMPI PUSH1 0x0 DUP1 REVERT JUMPDEST PUSH4 0x4E487B71 PUSH1 0xE0 SHL PUSH1 0x0 MSTORE PUSH1 0x41 PUSH1 0x4 MSTORE PUSH1 0x24 PUSH1 0x0 REVERT JUMPDEST PUSH1 0x40 DUP1 MLOAD SWAP1 DUP2 ADD PUSH1 0x1 PUSH1 0x1 PUSH1 0x40 SHL SUB DUP2 GT DUP3 DUP3 LT OR ISZERO PUSH2 0x4466 JUMPI PUSH2 0x4466 PUSH2 0x442E JUMP JUMPDEST PUSH1 0x40 MSTORE SWAP1 JUMP JUMPDEST PUSH1 0x40 MLOAD PUSH1 0x1F DUP3 ADD PUSH1 0x1F NOT AND DUP2 ADD PUSH1 0x1 PUSH1 0x1 PUSH1 0x40 SHL SUB DUP2 GT DUP3 DUP3 LT OR ISZERO PUSH2 0x4494 JUMPI PUSH2 0x4494 PUSH2 0x442E JUMP JUMPDEST PUSH1 0x40 MSTORE SWAP2 SWAP1 POP JUMP JUMPDEST PUSH1 0x0 DUP1 PUSH1 0x40 DUP4 DUP6 SUB SLT ISZERO PUSH2 0x44AF JUMPI PUSH1 0x0 DUP1 REVERT JUMPDEST DUP3 CALLDATALOAD SWAP2 POP PUSH1 0x20 DUP1 DUP5 ADD CALLDATALOAD PUSH1 0x1 PUSH1 0x1 PUSH1 0x40 SHL SUB DUP1 DUP3 GT ISZERO PUSH2 0x44CE JUMPI PUSH1 0x0 DUP1 REVERT JUMPDEST SWAP1 DUP6 ADD SWAP1 PUSH1 0x40 DUP3 DUP9 SUB SLT ISZERO PUSH2 0x44E2 JUMPI PUSH1 0x0 DUP1 REVERT JUMPDEST PUSH2 0x44EA PUSH2 0x4444 JUMP JUMPDEST DUP3 CALLDATALOAD DUP3 DUP2 GT ISZERO PUSH2 0x44F9 JUMPI PUSH1 0x0 DUP1 REVERT JUMPDEST DUP4 ADD PUSH1 0x1F DUP2 ADD DUP10 SGT PUSH2 0x450A JUMPI PUSH1 0x0 DUP1 REVERT JUMPDEST DUP1 CALLDATALOAD DUP4 DUP2 GT ISZERO PUSH2 0x451C JUMPI PUSH2 0x451C PUSH2 0x442E JUMP JUMPDEST PUSH2 0x452E PUSH1 0x1F DUP3 ADD PUSH1 0x1F NOT AND DUP8 ADD PUSH2 0x446C JUMP JUMPDEST SWAP4 POP DUP1 DUP5 MSTORE DUP10 DUP7 DUP3 DUP5 ADD ADD GT ISZERO PUSH2 0x4544 JUMPI PUSH1 0x0 DUP1 REVERT JUMPDEST DUP1 DUP7 DUP4 ADD DUP8 DUP7 ADD CALLDATACOPY PUSH1 0x0 SWAP1 DUP5 ADD DUP7 ADD MSTORE POP DUP2 DUP2 MSTORE PUSH2 0x4563 DUP4 DUP6 ADD PUSH2 0x4109 JUMP JUMPDEST DUP5 DUP3 ADD MSTORE DUP1 SWAP5 POP POP POP POP POP SWAP3 POP SWAP3 SWAP1 POP JUMP JUMPDEST PUSH4 0x4E487B71 PUSH1 0xE0 SHL PUSH1 0x0 MSTORE PUSH1 0x11 PUSH1 0x4 MSTORE PUSH1 0x24 PUSH1 0x0 REVERT JUMPDEST DUP2 DUP2 SUB DUP2 DUP2 GT ISZERO PUSH2 0x7D7 JUMPI PUSH2 0x7D7 PUSH2 0x4575 JUMP JUMPDEST DUP1 DUP3 ADD DUP1 DUP3 GT ISZERO PUSH2 0x7D7 JUMPI PUSH2 0x7D7 PUSH2 0x4575 JUMP JUMPDEST PUSH4 0x4E487B71 PUSH1 0xE0 SHL PUSH1 0x0 MSTORE PUSH1 0x32 PUSH1 0x4 MSTORE PUSH1 0x24 PUSH1 0x0 REVERT JUMPDEST PUSH1 0x0 PUSH4 0xFFFFFFFF DUP1 DUP4 AND DUP2 DUP2 SUB PUSH2 0x45E0 JUMPI PUSH2 0x45E0 PUSH2 0x4575 JUMP JUMPDEST PUSH1 0x1 ADD SWAP4 SWAP3 POP POP POP JUMP JUMPDEST PUSH1 0x1 DUP2 DUP2 SHR SWAP1 DUP3 AND DUP1 PUSH2 0x45FE JUMPI PUSH1 0x7F DUP3 AND SWAP2 POP JUMPDEST PUSH1 0x20 DUP3 LT DUP2 SUB PUSH2 0x461E JUMPI PUSH4 0x4E487B71 PUSH1 0xE0 SHL PUSH1 0x0 MSTORE PUSH1 0x22 PUSH1 0x4 MSTORE PUSH1 0x24 PUSH1 0x0 REVERT JUMPDEST POP SWAP2 SWAP1 POP JUMP JUMPDEST PUSH1 0x20 DUP1 DUP3 MSTORE PUSH1 0x32 SWAP1 DUP3 ADD MSTORE PUSH32 0x596F752063616E7420726F746174652061207265717565737420746861742077 PUSH1 0x40 DUP3 ADD MSTORE PUSH18 0x6173206E6F74206D61646520627920796F75 PUSH1 0x70 SHL PUSH1 0x60 DUP3 ADD MSTORE PUSH1 0x80 ADD SWAP1 JUMP JUMPDEST PUSH1 0x20 DUP1 DUP3 MSTORE PUSH1 0x35 SWAP1 DUP3 ADD MSTORE PUSH32 0x416C6C206578656375746F727320666F72207468697320726571756573742068 PUSH1 0x40 DUP3 ADD MSTORE PUSH21 0x185D9948185B1C9958591E4819195B1A5D995C9959 PUSH1 0x5A SHL PUSH1 0x60 DUP3 ADD MSTORE PUSH1 0x80 ADD SWAP1 JUMP JUMPDEST PUSH1 0x0 PUSH1 0x1 DUP3 ADD PUSH2 0x46DD JUMPI PUSH2 0x46DD PUSH2 0x4575 JUMP JUMPDEST POP PUSH1 0x1 ADD SWAP1 JUMP JUMPDEST PUSH1 0x0 PUSH1 0xFF DUP3 AND PUSH1 0xFF DUP2 SUB PUSH2 0x46FA JUMPI PUSH2 0x46FA PUSH2 0x4575 JUMP JUMPDEST PUSH1 0x1 ADD SWAP3 SWAP2 POP POP JUMP JUMPDEST PUSH4 0x4E487B71 PUSH1 0xE0 SHL PUSH1 0x0 MSTORE PUSH1 0x12 PUSH1 0x4 MSTORE PUSH1 0x24 PUSH1 0x0 REVERT JUMPDEST PUSH1 0x0 DUP3 PUSH2 0x4728 JUMPI PUSH2 0x4728 PUSH2 0x4703 JUMP JUMPDEST POP MOD SWAP1 JUMP JUMPDEST PUSH1 0x0 DUP3 PUSH2 0x473C JUMPI PUSH2 0x473C PUSH2 0x4703 JUMP JUMPDEST POP DIV SWAP1 JUMP JUMPDEST DUP1 DUP3 MUL DUP2 ISZERO DUP3 DUP3 DIV DUP5 EQ OR PUSH2 0x7D7 JUMPI PUSH2 0x7D7 PUSH2 0x4575 JUMP JUMPDEST PUSH1 0x1F DUP3 GT ISZERO PUSH2 0x47A2 JUMPI PUSH1 0x0 DUP2 DUP2 MSTORE PUSH1 0x20 DUP2 KECCAK256 PUSH1 0x1F DUP6 ADD PUSH1 0x5 SHR DUP2 ADD PUSH1 0x20 DUP7 LT ISZERO PUSH2 0x477F JUMPI POP DUP1 JUMPDEST PUSH1 0x1F DUP6 ADD PUSH1 0x5 SHR DUP3 ADD SWAP2 POP JUMPDEST DUP2 DUP2 LT ISZERO PUSH2 0x479E JUMPI DUP3 DUP2 SSTORE PUSH1 0x1 ADD PUSH2 0x478B JUMP JUMPDEST POP POP POP JUMPDEST POP POP POP JUMP JUMPDEST DUP2 MLOAD PUSH1 0x1 PUSH1 0x1 PUSH1 0x40 SHL SUB DUP2 GT ISZERO PUSH2 0x47C0 JUMPI PUSH2 0x47C0 PUSH2 0x442E JUMP JUMPDEST PUSH2 0x47D4 DUP2 PUSH2 0x47CE DUP5 SLOAD PUSH2 0x45EA JUMP JUMPDEST DUP5 PUSH2 0x4758 JUMP JUMPDEST PUSH1 0x20 DUP1 PUSH1 0x1F DUP4 GT PUSH1 0x1 DUP2 EQ PUSH2 0x4809 JUMPI PUSH1 0x0 DUP5 ISZERO PUSH2 0x47F1 JUMPI POP DUP6 DUP4 ADD MLOAD JUMPDEST PUSH1 0x0 NOT PUSH1 0x3 DUP7 SWAP1 SHL SHR NOT AND PUSH1 0x1 DUP6 SWAP1 SHL OR DUP6 SSTORE PUSH2 0x479E JUMP JUMPDEST PUSH1 0x0 DUP6 DUP2 MSTORE PUSH1 0x20 DUP2 KECCAK256 PUSH1 0x1F NOT DUP7 AND SWAP2 JUMPDEST DUP3 DUP2 LT ISZERO PUSH2 0x4838 JUMPI DUP9 DUP7 ADD MLOAD DUP3 SSTORE SWAP5 DUP5 ADD SWAP5 PUSH1 0x1 SWAP1 SWAP2 ADD SWAP1 DUP5 ADD PUSH2 0x4819 JUMP JUMPDEST POP DUP6 DUP3 LT ISZERO PUSH2 0x4856 JUMPI DUP8 DUP6 ADD MLOAD PUSH1 0x0 NOT PUSH1 0x3 DUP9 SWAP1 SHL PUSH1 0xF8 AND SHR NOT AND DUP2 SSTORE JUMPDEST POP POP POP POP POP PUSH1 0x1 SWAP1 DUP2 SHL ADD SWAP1 SSTORE POP JUMP JUMPDEST DUP1 MLOAD PUSH1 0x20 DUP1 DUP4 ADD MLOAD SWAP2 SWAP1 DUP2 LT ISZERO PUSH2 0x461E JUMPI PUSH1 0x0 NOT PUSH1 0x20 SWAP2 SWAP1 SWAP2 SUB PUSH1 0x3 SHL SHL AND SWAP2 SWAP1 POP JUMP JUMPDEST PUSH1 0x20 DUP1 DUP3 MSTORE PUSH1 0x32 SWAP1 DUP3 ADD MSTORE PUSH1 0x0 DUP1 MLOAD PUSH1 0x20 PUSH2 0x49E6 DUP4 CODECOPY DUP2 MLOAD SWAP2 MSTORE PUSH1 0x40 DUP3 ADD MSTORE PUSH18 0x30B71030B1BA34BB329032BC32B1BABA37B9 PUSH1 0x71 SHL PUSH1 0x60 DUP3 ADD MSTORE PUSH1 0x80 ADD SWAP1 JUMP JUMPDEST PUSH1 0x0 DUP2 PUSH2 0x48D9 JUMPI PUSH2 0x48D9 PUSH2 0x4575 JUMP JUMPDEST POP PUSH1 0x0 NOT ADD SWAP1 JUMP JUMPDEST PUSH1 0x20 DUP2 MSTORE PUSH1 0x0 PUSH2 0x362B PUSH1 0x20 DUP4 ADD DUP5 PUSH2 0x41FB JUMP JUMPDEST PUSH1 0x0 PUSH2 0xFFFF DUP1 DUP4 AND DUP2 DUP2 SUB PUSH2 0x45E0 JUMPI PUSH2 0x45E0 PUSH2 0x4575 JUMP JUMPDEST DUP2 DUP2 SUB PUSH2 0x4916 JUMPI POP POP JUMP JUMPDEST PUSH2 0x4920 DUP3 SLOAD PUSH2 0x45EA JUMP JUMPDEST PUSH1 0x1 PUSH1 0x1 PUSH1 0x40 SHL SUB DUP2 GT ISZERO PUSH2 0x4937 JUMPI PUSH2 0x4937 PUSH2 0x442E JUMP JUMPDEST PUSH2 0x4945 DUP2 PUSH2 0x47CE DUP5 SLOAD PUSH2 0x45EA JUMP JUMPDEST PUSH1 0x0 PUSH1 0x1F DUP3 GT PUSH1 0x1 DUP2 EQ PUSH2 0x4979 JUMPI PUSH1 0x0 DUP4 ISZERO PUSH2 0x4961 JUMPI POP DUP5 DUP3 ADD SLOAD JUMPDEST PUSH1 0x0 NOT PUSH1 0x3 DUP6 SWAP1 SHL SHR NOT AND PUSH1 0x1 DUP5 SWAP1 SHL OR DUP5 SSTORE PUSH2 0x49DE JUMP JUMPDEST PUSH1 0x0 DUP6 DUP2 MSTORE PUSH1 0x20 SWAP1 KECCAK256 PUSH1 0x1F NOT DUP5 AND SWAP1 PUSH1 0x0 DUP7 DUP2 MSTORE PUSH1 0x20 SWAP1 KECCAK256 DUP5 JUMPDEST DUP4 DUP2 LT ISZERO PUSH2 0x49B3 JUMPI DUP3 DUP7 ADD SLOAD DUP3 SSTORE PUSH1 0x1 SWAP6 DUP7 ADD SWAP6 SWAP1 SWAP2 ADD SWAP1 PUSH1 0x20 ADD PUSH2 0x4993 JUMP JUMPDEST POP DUP6 DUP4 LT ISZERO PUSH2 0x49D1 JUMPI DUP2 DUP6 ADD SLOAD PUSH1 0x0 NOT PUSH1 0x3 DUP9 SWAP1 SHL PUSH1 0xF8 AND SHR NOT AND DUP2 SSTORE JUMPDEST POP POP POP PUSH1 0x1 DUP4 PUSH1 0x1 SHL ADD DUP5 SSTORE JUMPDEST POP POP POP POP POP JUMP INVALID SLOAD PUSH9 0x697320616464726573 PUSH20 0x20646F6573206E6F742062656C6F6E6720746F20 LOG2 PUSH5 0x6970667358 0x22 SLT KECCAK256 DUP13 BYTE 0xEE DUP5 0x4E INVALID 0xA9 SWAP4 0x27 0x4C LOG3 0xB7 DUP4 0xC6 0x21 BLOCKHASH OR MULMOD EXTCODESIZE 0x1F DUP9 SHL PC ISZERO 0xBC 0xAA 0xD6 PUSH29 0xFC1E9C3B64736F6C634300081300330000000000000000000000000000 ",
  "sha1": "8f98a07ed84c97c89e719201696c537c5dd72733",
  "source": "// SPDX-License-Identifier: GPL-3.0\n\npragma solidity >=0.7.0 <0.9.0;\n\nimport \"./Transferable.sol\";\n\n\nstruct Executor {\n    address executorAddress;\n    uint assignedRequestID;\n    uint taskAssignmentIndex;\n    uint lockedWei;\n    uint accurateSolvings;\n    uint inaccurateSolvings;\n    uint timesPunished;\n}\n\nstruct ExecutorsCollection {\n    Executor[] activeExecutors;  // Not in a mapping because I need to be able to index them by uint\n    mapping (address => uint) activeIndexOf;\n    mapping (address => Executor) inactiveExecutors;\n    mapping (address => Executor) busyExecutors;\n    uint amountOfActiveExecutors;\n}\n\nstruct Request {\n    uint id;\n    address clientAddress;\n    string inputState;  // Tambien aca esta el point of insertion\n    string codeReference;  // Tambien aca esta la data sobre la version y compilador y otras specs que pueden afectar el resultado\n    uint executionPowerPaidFor; // In Wei; deberia tener en cuenta el computo y el gas de las operaciones de submit; y se divide entre los executors\n    // TODO ver tema entorno de ejecucion restringido y capaz hacer payment fijo???\n    Result result; // start empty, gets populated after escrow\n    bool submissionsLocked;\n    bool closed;\n}\n\nstruct TaskAssignment {\n    address executorAddress;\n    uint timestamp;\n    bytes32 signedResultHash;\n    bytes32 unsignedResultHash;\n    Result result;\n    //bool truncated;\n    bool submitted;\n    bool liberated;\n}\n\nstruct Result {\n    string data;\n    address issuer;\n}\n\n\ncontract ExecutionBroker is Transferable {\n\n    uint public EXECUTION_TIME_FRAME_SECONDS;// = 3600;\n    uint public BASE_STAKE_AMOUNT;// = 1e7;  // El cliente no tiene fondos lockeados. El executor, si tiene fondos lockeados para el punishment. ver que sea significativamente mayor a lo que pueda llegar a salir la rotacion con muchos executors y un gas particularmente alto. para eso tambien limitar el maximo de executors\n    uint public MAXIMUM_EXECUTION_POWER;\n    uint public MAXIMUM_EXECUTORS_PER_REQUEST;\n\n    Request[] public requests;\n    mapping (uint => TaskAssignment[]) public taskAssignmentsMap;\n    ExecutorsCollection public executorsCollection;\n    \n    event resultSubmitted(uint requestID, address submitter);\n    event requestSubmissionsLocked(uint requestID);\n    event requestClosed(uint requestID, uint coincidences);\n\n    event executorLocked(address executorAddress);\n    event executorUnlocked(address executorAddress);\n    event executorPunished(address executorAddress);\n    \n\n    // Restricted interaction functions\n\n    constructor(uint executionTimeFrame, uint baseStakeAmount, uint maximumPower, uint maximumExecutors) {\n        EXECUTION_TIME_FRAME_SECONDS = executionTimeFrame;\n        BASE_STAKE_AMOUNT = baseStakeAmount;\n        MAXIMUM_EXECUTION_POWER = maximumPower;\n        MAXIMUM_EXECUTORS_PER_REQUEST = maximumExecutors;\n        Executor memory executor = Executor({\n            executorAddress: address(0x0),\n            assignedRequestID: 0,\n            taskAssignmentIndex: 0,\n            lockedWei: 0,\n            accurateSolvings: 0,\n            inaccurateSolvings: 0,\n            timesPunished: 0\n        });\n        Request memory request = Request({\n            id: 0,\n            clientAddress: address(0x0),\n            inputState: '',\n            codeReference: '',\n            executionPowerPaidFor: 0,\n            result: Result({\n                data: '',\n                issuer: address(0x0)\n            }),\n            submissionsLocked: false,\n            closed: true\n        });\n        executorsCollection.activeExecutors.push(executor);  // This is to reserve the index 0, because when you delete an entry in the address => uint map, it gets set to 0\n        requests.push(request);\n    }\n\n    // Public views\n\n    function requestCount() public view returns (uint) {\n        return requests.length - 1;  // The request number 0 is blank\n    }\n\n    function getActiveExecutorsList() public view returns (address[] memory) {\n        address[] memory addresses = new address[](executorsCollection.amountOfActiveExecutors);\n        uint32 j = 0;\n        for (uint32 i = 0; i < executorsCollection.activeExecutors.length; i++) {\n            if (executorsCollection.activeExecutors[i].executorAddress != address(0x0)) {\n                addresses[j] = executorsCollection.activeExecutors[i].executorAddress;\n                j++;\n            }\n        }\n        return addresses;\n    }\n\n    function getAmountOfActiveExecutors() public view returns (uint) {\n        return executorsCollection.amountOfActiveExecutors;\n    }\n\n    function getInactiveExecutorByAddress(address executorAddress) public view returns (Executor memory) {\n        return executorsCollection.inactiveExecutors[executorAddress];\n    }\n\n    function getBusyExecutorByAddress(address executorAddress) public view returns (Executor memory) {\n        return executorsCollection.busyExecutors[executorAddress];\n    }\n\n    function getActiveIndexOfExecutorByAddress(address executorAddress) public view returns (uint) {\n        return executorsCollection.activeIndexOf[executorAddress];\n    }\n\n    function getExecutorStateByAddress(address executorAddress) public view returns (string memory executorState) {\n        if (executorsCollection.activeIndexOf[executorAddress] != 0) {\n            return \"active\";\n        } else if (executorsCollection.inactiveExecutors[executorAddress].executorAddress == executorAddress) {\n            return \"inactive\";\n        } else if (executorsCollection.busyExecutors[executorAddress].executorAddress == executorAddress) {\n            return \"locked\";\n        } else {\n            revert(\"This address does not belong to a registered executor\");\n        }\n    } \n\n    function getExecutorByAddress(address executorAddress) public view returns (Executor memory executor) {  \n        if (executorsCollection.activeIndexOf[executorAddress] != 0) {\n            return executorsCollection.activeExecutors[executorsCollection.activeIndexOf[executorAddress]];\n        } else if (executorsCollection.inactiveExecutors[executorAddress].executorAddress == executorAddress) {\n            return executorsCollection.inactiveExecutors[executorAddress];\n        } else if (executorsCollection.busyExecutors[executorAddress].executorAddress == executorAddress) {\n            return executorsCollection.busyExecutors[executorAddress];\n        } else {\n            revert(\"This address does not belong to a registered executor\");\n        }\n    }\n\n    function getActiveExecutorByPosition(uint position) public view returns (Executor memory executor) {  // Position starts from zero and is not equal to index\n        require(position < executorsCollection.amountOfActiveExecutors, \"You are selecting a position outside the existing executors\");\n        uint32 j = 0;\n        for (uint32 i = 0; i < executorsCollection.activeExecutors.length; i++) {\n            if (executorsCollection.activeExecutors[i].executorAddress == address(0x0)) {\n                continue;\n            }\n            if (j == position) {\n                return executorsCollection.activeExecutors[i];\n            }\n            j++;\n        }\n    }\n\n    function getActiveExecutorByIndex(uint position) public view returns (Executor memory executor) {\n        return executorsCollection.activeExecutors[position];\n    }\n\n    // Open interaction functions\n\n    function registerExecutor() public payable {\n        require(msg.value >= BASE_STAKE_AMOUNT, \"To register an executor you must provide at least the minimum escrow stake amount\");\n        require(executorsCollection.inactiveExecutors[msg.sender].executorAddress == address(0x0), \"The executor is already present, but inactive\");\n        require(executorsCollection.busyExecutors[msg.sender].executorAddress == address(0x0), \"The executor is already present, but busy\");\n        _activateExecutor(Executor({\n            executorAddress: msg.sender,\n            assignedRequestID: 0,\n            taskAssignmentIndex: 0,\n            lockedWei: msg.value,\n            accurateSolvings: 0,\n            inaccurateSolvings: 0,\n            timesPunished: 0\n        }));\n    }\n\n    function pauseExecutor(bool withrawLockedFunds) public returns (bool) {\n        require(executorsCollection.activeIndexOf[msg.sender] != 0, \"This address does not belong to an active executor\");\n        bool transferSuccess = true;\n        uint executorIndex = executorsCollection.activeIndexOf[msg.sender];\n        Executor memory executor = executorsCollection.activeExecutors[executorIndex];\n        if (withrawLockedFunds) {\n            transferSuccess = _internalTransferFunds(executor.lockedWei, msg.sender);\n            executor.lockedWei = 0;\n        }\n        executorsCollection.inactiveExecutors[msg.sender] = executor;\n        delete executorsCollection.activeExecutors[executorIndex];\n        delete executorsCollection.activeIndexOf[msg.sender];\n        executorsCollection.amountOfActiveExecutors--;\n        return transferSuccess;\n    }\n\n    function activateExecutor() public payable {\n        require(executorsCollection.inactiveExecutors[msg.sender].executorAddress == msg.sender, \"This address does not belong to a paused executor\");\n        require(executorsCollection.inactiveExecutors[msg.sender].lockedWei + msg.value >= BASE_STAKE_AMOUNT, \"You must provide some Wei to reach the minimum escrow stake amount\");\n        executorsCollection.inactiveExecutors[msg.sender].lockedWei += msg.value;\n        _activateExecutor(executorsCollection.inactiveExecutors[msg.sender]);\n        delete executorsCollection.inactiveExecutors[msg.sender];\n    }\n\n    function submitRequest(string calldata inputState, string calldata codeReference, uint amountOfExecutors, uint executionPowerPaidFor, uint256 randomSeed) public payable returns (uint) {\n        // TODO podria implementar que el cliente elija un threshold de estadisticas de punisheado o innacurate\n        require(amountOfExecutors % 2 == 1, \"You must choose an odd amount of executors\");\n        require(amountOfExecutors <= MAXIMUM_EXECUTORS_PER_REQUEST, \"You exceeded the maximum number of allowed executors per request\");\n        require(executionPowerPaidFor <= MAXIMUM_EXECUTION_POWER, \"You exceeded the maximum allowed execution power per request\");\n        require(amountOfExecutors <= executorsCollection.amountOfActiveExecutors, \"You exceeded the number of available executors\");\n        require(msg.value == executionPowerPaidFor * amountOfExecutors, \"The value sent in the request must be the execution power you intend to pay for multiplied by the amount of executors\");\n        Request memory request = Request({\n            id: requests.length,\n            clientAddress: msg.sender,\n            inputState: inputState,\n            codeReference: codeReference,\n            executionPowerPaidFor: executionPowerPaidFor,\n            result: Result({\n                data: '',\n                issuer: address(0x0)\n            }),\n            submissionsLocked: false,\n            closed: false\n        });\n        requests.push(request);\n        TaskAssignment[] storage taskAssignments = taskAssignmentsMap[request.id];\n        for (uint32 i = 0; i < amountOfExecutors; i++) {\n            uint randomPosition = randomSeed % executorsCollection.amountOfActiveExecutors;\n            address executorAddress = getActiveExecutorByPosition(randomPosition).executorAddress;\n            taskAssignments.push(TaskAssignment({\n                executorAddress: executorAddress,\n                timestamp: block.timestamp,\n                signedResultHash: bytes32(abi.encode(0)),\n                unsignedResultHash: bytes32(abi.encode(0)),\n                result: Result({\n                    data: '',\n                    issuer: address(0x0)\n                }),\n                submitted: false,\n                liberated: false\n            }));\n            _lockExecutor(executorAddress, request.id, i);\n            randomSeed /= executorsCollection.amountOfActiveExecutors > 0 ? executorsCollection.amountOfActiveExecutors : 1;\n        }\n        return request.id;\n    }\n\n    function rotateExecutors(uint requestID, uint256 randomSeed) public returns (bool) {\n        uint initialGas = gasleft();\n        require(requests[requestID].clientAddress == msg.sender, \"You cant rotate a request that was not made by you\");\n        require(requests[requestID].submissionsLocked == false, \"All executors for this request have already delivered\");\n        uint amountOfPunishedExecutors = 0;\n        uint[] memory punishedExecutorsTaskIDs = new uint[](taskAssignmentsMap[requestID].length);  // Me van a quedar algunos en cero capaz, no importa\n        for (uint8 i = 0; i < taskAssignmentsMap[requestID].length; i++) {\n            if (!taskAssignmentsMap[requestID][i].submitted && block.timestamp >= (taskAssignmentsMap[requestID][i].timestamp + EXECUTION_TIME_FRAME_SECONDS)) {\n                punishedExecutorsTaskIDs[amountOfPunishedExecutors++] = i;\n            }\n        }\n        if (amountOfPunishedExecutors == 0) {\n            return false;\n        }\n        address[] memory punishedExecutorsAddresses = new address[](amountOfPunishedExecutors);\n        uint effectiveAmountOfPunishedExecutors = 0;\n        for (uint8 i = 0; i < amountOfPunishedExecutors; i++) {\n            if (executorsCollection.amountOfActiveExecutors > 0) {\n                uint taskIndex = punishedExecutorsTaskIDs[i];\n                punishedExecutorsAddresses[i] = taskAssignmentsMap[requestID][taskIndex].executorAddress;\n                uint randomPosition = randomSeed % executorsCollection.amountOfActiveExecutors;\n                address newExecutorAddress = getActiveExecutorByPosition(randomPosition).executorAddress;\n                taskAssignmentsMap[requestID][taskIndex].executorAddress = newExecutorAddress;\n                taskAssignmentsMap[requestID][taskIndex].timestamp = block.timestamp;\n                _lockExecutor(newExecutorAddress, requestID, i);\n                effectiveAmountOfPunishedExecutors++;\n                randomSeed /= executorsCollection.amountOfActiveExecutors > 0 ? executorsCollection.amountOfActiveExecutors : 1;\n            }\n        }\n        if (effectiveAmountOfPunishedExecutors == 0) {\n            return false;\n        }\n\n        uint punishGas = 12345; //TODO\n        uint constantGasOverHead = 12345; //TODO\n        uint estimatedGasSpent = ((initialGas - gasleft()) + (punishGas * effectiveAmountOfPunishedExecutors) + constantGasOverHead) * tx.gasprice;  // This is just an aproximation, make it generous to favor the client\n        uint punishAmount = estimatedGasSpent / effectiveAmountOfPunishedExecutors;\n        for (uint8 i = 0; i < effectiveAmountOfPunishedExecutors; i++) {\n            _punishExecutor(punishedExecutorsAddresses[i], punishAmount);\n        }            \n        bool transferSuccess = _internalTransferFunds(punishAmount * effectiveAmountOfPunishedExecutors, msg.sender);\n        return transferSuccess;\n    }\n\n    function truncateExecutors(uint requestID) public returns (bool) {\n        //TODO tiene que haber pasado el tiempo, y es como rotate pero no los rota, solo los elimina y castiga. por ende, tiene que haber al menos un numero impar de submit\n        uint initialGas = gasleft();\n        require(requests[requestID].clientAddress == msg.sender, \"You cant rotate a request that was not made by you\");\n        require(requests[requestID].submissionsLocked == false, \"All executors for this request have already delivered\");\n        uint amountOfPunishedExecutors = 0;\n        uint[] memory punishedExecutorsTaskIDs = new uint[](taskAssignmentsMap[requestID].length);  // Me van a quedar algunos en cero capaz, no importa\n        for (uint8 i = 0; i < taskAssignmentsMap[requestID].length; i++) {\n            if (!taskAssignmentsMap[requestID][i].submitted && block.timestamp >= (taskAssignmentsMap[requestID][i].timestamp + EXECUTION_TIME_FRAME_SECONDS)) {\n                punishedExecutorsTaskIDs[amountOfPunishedExecutors++] = i;\n            }\n        }\n        require(taskAssignmentsMap[requestID].length > amountOfPunishedExecutors, \"You can only truncate executors if there has been at least one submission\");\n        if (amountOfPunishedExecutors == 0) {\n            return false;\n        }\n\n        //TODO mejor solo marcar los truncated como submited y los marco de alguna manera para asegurarme que no van a hacer quorum y porende van a caer en toBePunished. Igual si la cagan con los require en liberate.\n\n        uint punishGas = 12345; //TODO\n        uint constantGasOverHead = 12345; //TODO\n        /*uint estimatedGasSpent = ((initialGas - gasleft()) + (punishGas * effectiveAmountOfPunishedExecutors) + constantGasOverHead) * tx.gasprice;  // This is just an aproximation, make it generous to favor the client\n        uint punishAmount = estimatedGasSpent / effectiveAmountOfPunishedExecutors;\n        for (uint8 i = 0; i < effectiveAmountOfPunishedExecutors; i++) {\n            _punishExecutor(punishedExecutorsAddresses[i], punishAmount);\n        }            \n        bool transferSuccess = _internalTransferFunds(punishAmount * effectiveAmountOfPunishedExecutors, msg.sender);\n        return transferSuccess;*/\n    }\n\n    function submitSignedResultHash(uint requestID, bytes32 signedResultHash) public {\n        Executor memory executor = getExecutorByAddress(msg.sender);\n        require(executor.assignedRequestID == requestID, \"You must be assigned to the provided request to submit a result hash\");\n        require(taskAssignmentsMap[executor.assignedRequestID][executor.taskAssignmentIndex].executorAddress == msg.sender, \"There is an address missmatch in the assignment\");  // This should never happen\n        require(taskAssignmentsMap[executor.assignedRequestID][executor.taskAssignmentIndex].submitted == false, \"The result for this request, for this executor, has already been submitted\");\n\n        taskAssignmentsMap[executor.assignedRequestID][executor.taskAssignmentIndex].signedResultHash = signedResultHash;\n        taskAssignmentsMap[executor.assignedRequestID][executor.taskAssignmentIndex].submitted = true;\n        emit resultSubmitted(requestID, msg.sender);\n\n        // if last one, mark request as submitted? do something else like start the escrow? SI ES EL ULTIMO SOLO MARCO COMO SUBMITED, REQUISITO PARA LIBERATE RESULT. POR LO QUE IMPLICITAMENTE ARRANCA EL ESCROW, Y AHI VAN POSTULANDO LOS RESULTADOS. Y EN EL LIBERATE RESULTS, SI ES EL ULTIMO, SE GENERA LA PAGA Y LIBERAN LOS STAKES CLIENT&EXECUTOR, O SI PASA CIERTO TIEMPO, EL CLIENTE PUEDE TRUNCAR LA LIBERACION PARA RETIRAR SU STAKE, Y LOS QUE NO HAYAN LIBERADO LA COMEN\n        bool lastOne = true;\n        for (uint8 i = 0; i < taskAssignmentsMap[requestID].length; i++) {\n            if (!taskAssignmentsMap[requestID][i].submitted && taskAssignmentsMap[requestID][i].executorAddress != address(0x0)) {\n                lastOne = false;\n            }\n        }\n        if (lastOne) {\n            requests[requestID].submissionsLocked = true;\n            emit requestSubmissionsLocked(requestID);\n        }\n\n    }\n\n    function liberateResult(uint requestID, Result memory result) public {\n        Executor memory executor = getExecutorByAddress(msg.sender);\n        require(executor.assignedRequestID == requestID, \"You must be assigned to the provided request to liberate the result\");\n        require(taskAssignmentsMap[executor.assignedRequestID][executor.taskAssignmentIndex].submitted == true, \"You must first submit a signed result hash before you can liberate it\");\n        require(requests[requestID].submissionsLocked == true, \"You must wait until all submissions for this request have been locked\");\n        require(taskAssignmentsMap[executor.assignedRequestID][executor.taskAssignmentIndex].liberated == false, \"The result for this request, for this executor, has already been liberated\");\n        \n        // TODO test in python\n        // TODO ver que pasa si alguno submiteo el hash mal, lo castigo al toque? porque si lo hizo mal, no lo va a poder hacer bien jamas, y me trabaria toda la request para siempre. otro TODO seria ver que pasa si todos se mandan una cagada asi, y por ende, si no queda nadie. Se resetea la request con nuevos assignments? se le devuelve la guita al cliente???\n        require(result.issuer == msg.sender, \"The issuer of the sent result does not match the transaction sender\");\n        require(keccak256(abi.encode(result)) == taskAssignmentsMap[executor.assignedRequestID][executor.taskAssignmentIndex].signedResultHash, \"Your result does not match your submitted hash\");\n        \n        result.issuer = address(this);\n        \n        taskAssignmentsMap[executor.assignedRequestID][executor.taskAssignmentIndex].unsignedResultHash = keccak256(abi.encode(result));\n        taskAssignmentsMap[executor.assignedRequestID][executor.taskAssignmentIndex].result = result;\n        taskAssignmentsMap[executor.assignedRequestID][executor.taskAssignmentIndex].liberated = true;\n\n        bool lastOne = true;\n        for (uint8 i = 0; i < taskAssignmentsMap[requestID].length; i++) {\n            if (!taskAssignmentsMap[requestID][i].liberated && taskAssignmentsMap[requestID][i].executorAddress != address(0x0)) {\n                lastOne = false;\n            }\n        }\n        if (lastOne) {\n            _closeRequest(requestID);\n        }\n    }\n\n    function truncateResultLiberation(uint requestID) public {\n\n    }\n\n    //TODO puedo hacer que el precio del executionpower sea inversamente proporsional a la cantidad de ejecutores activos\n    // Private Functions\n\n    function _closeRequest(uint requestID) private {\n        bytes32[] memory hashes = new bytes32[](taskAssignmentsMap[requestID].length);\n        uint8[] memory indexes = new uint8[](taskAssignmentsMap[requestID].length);\n        uint8[] memory appearences = new uint8[](taskAssignmentsMap[requestID].length);\n        for (uint8 i = 0; i < taskAssignmentsMap[requestID].length; i++) {\n            if (taskAssignmentsMap[requestID][i].executorAddress == address(0x0)) {\n                continue;\n            }\n            for (uint8 j = 0; j <= i; j++) {\n                if (hashes[j] == bytes32(0x0)) {\n                    hashes[j] = taskAssignmentsMap[requestID][i].unsignedResultHash;\n                    indexes[j] = i;\n                    appearences[j] = 1;\n                    break;\n                } else if (hashes[j] == taskAssignmentsMap[requestID][i].unsignedResultHash) {\n                    appearences[j]++;\n                    break;\n                }\n            }\n        }\n        uint8 assignmentIndexOfMaximum = 0;\n        uint8 appearenceIndexOfMaximum = 0;\n        for (uint8 i = 0; i < appearences.length; i++) {\n            if (appearences[i] > appearences[appearenceIndexOfMaximum]) {  // Si hay empate, que gane el primero\n                appearenceIndexOfMaximum = i;\n                assignmentIndexOfMaximum = indexes[i];\n            }\n        }\n        \n        // Result posting\n        requests[requestID].result = taskAssignmentsMap[requestID][assignmentIndexOfMaximum].result;\n        requests[requestID].closed = true;\n        emit requestClosed(requestID, appearences[appearenceIndexOfMaximum]);\n\n        // Punishments and payments\n        address[] memory executorsToBeRewarded = new address[](appearences[appearenceIndexOfMaximum]);\n        uint8 rewardedIndex = 0;\n        address[] memory executorsToBePunished = new address[](taskAssignmentsMap[requestID].length - appearences[appearenceIndexOfMaximum]);\n        uint8 punishedIndex = 0;\n        for (uint8 i = 0; i < taskAssignmentsMap[requestID].length; i++) {\n            if (taskAssignmentsMap[requestID][i].unsignedResultHash == hashes[appearenceIndexOfMaximum]) {\n                executorsToBeRewarded[rewardedIndex++] = taskAssignmentsMap[requestID][i].executorAddress;\n            } else {\n                executorsToBePunished[punishedIndex++] = taskAssignmentsMap[requestID][i].executorAddress;\n            }\n        }\n\n        uint punishAmount;\n        uint individualPayAmount = requests[requestID].executionPowerPaidFor;\n        for (uint8 i = 0; i < executorsToBeRewarded.length; i++) {\n            _internalTransferFunds(individualPayAmount, executorsToBeRewarded[i]);\n            executorsCollection.busyExecutors[executorsToBeRewarded[i]].accurateSolvings++;\n            _unlockExecutor(executorsToBeRewarded[i]);\n        }\n        // refund some payment to client if no unanimous answer\n        if (executorsToBePunished.length > 0) { //TODO ver que executionPower y ether no sean necesariamente la misma unidad. quizas hacer otro campo que sea powerPrice que sea negociable. ME PARECE QUE NO VA A SER POSIBLE PORQUE A LOS EJECUTORES LES TOCA POR ASAR, NO POR OFERTA Y DEMANDA. PODRIA USAR EL GAS_PRICE COMO REFERENCIA\n            //TODO Also ver el tema de que pasa si trunco o pre castigo antes. quizas es mejor calcular por diferencia con los rewarded.\n            //TODO also, hacer que el castigo por submitear mal sea mas severo al castigo por ser rotado, y el castigo por no submitear, peor todavia\n            _internalTransferFunds(executorsToBePunished.length * individualPayAmount, requests[requestID].clientAddress);\n        }\n        for (uint8 i = 0; i < executorsToBePunished.length; i++) {\n            // update reputation\n            punishAmount = 123; //TODO calculate punish amount???\n            executorsCollection.busyExecutors[executorsToBePunished[i]].inaccurateSolvings++;\n            _punishExecutor(executorsToBePunished[i], punishAmount);\n        }\n        //TODO transfers?\n        _internalTransferFunds(punishAmount, address(this));\n    }\n\n    function _punishExecutor(address executorAddress, uint punishAmount) private {\n        require(executorsCollection.busyExecutors[executorAddress].executorAddress == executorAddress, \"You can only punish a locked executor\");\n        Executor memory executor = executorsCollection.busyExecutors[executorAddress];\n        executor.lockedWei -= punishAmount;\n        executor.timesPunished += 1;\n        executor.assignedRequestID = 0;\n        executor.taskAssignmentIndex = 0;\n        executorsCollection.inactiveExecutors[executorAddress] = executor;\n        delete executorsCollection.busyExecutors[executorAddress];\n    }\n\n    function _lockExecutor(address executorAddress, uint requestID, uint taskAssignmentIndex) private {\n        require(executorsCollection.activeIndexOf[executorAddress] != 0, \"This address does not belong to an active executor\");\n        uint executorIndex = executorsCollection.activeIndexOf[executorAddress];\n        Executor memory executor = executorsCollection.activeExecutors[executorIndex];\n        executor.assignedRequestID = requestID;\n        executor.taskAssignmentIndex = taskAssignmentIndex;\n        executorsCollection.busyExecutors[executorAddress] = executor;\n        delete executorsCollection.activeExecutors[executorIndex];\n        delete executorsCollection.activeIndexOf[executorAddress];\n        executorsCollection.amountOfActiveExecutors--;\n        emit executorLocked(executorAddress);\n    }\n\n    function _unlockExecutor(address executorAddress) private {\n        require(executorsCollection.busyExecutors[executorAddress].executorAddress == executorAddress, \"This address does not belong to a locked executor\");\n        executorsCollection.busyExecutors[executorAddress].assignedRequestID = 0;\n        executorsCollection.busyExecutors[executorAddress].taskAssignmentIndex = 0;\n        _activateExecutor(executorsCollection.busyExecutors[executorAddress]);\n        delete executorsCollection.busyExecutors[executorAddress];\n        emit executorUnlocked(executorAddress);\n    }\n\n    function _activateExecutor(Executor memory executor) private {\n        require(executorsCollection.activeIndexOf[executor.executorAddress] == 0, \"This address is already registered as an active executor\");\n        uint16 executorIndex;\n        for (executorIndex = 1; executorIndex < executorsCollection.activeExecutors.length; executorIndex++) {\n            if (executorsCollection.activeExecutors[executorIndex].executorAddress == address(0x0)) {\n                break;\n            }\n        }\n        if (executorIndex == executorsCollection.activeExecutors.length) {\n            executorsCollection.activeExecutors.push(executor);\n        } else {\n            executorsCollection.activeExecutors[executorIndex] = executor;\n        }\n        executorsCollection.activeIndexOf[executor.executorAddress] = executorIndex;\n        executorsCollection.amountOfActiveExecutors++;\n    }\n\n}",
  "sourcePath": "contracts/ExecutionBroker.sol",
  "type": "contract"
}