{
  "abi": [
    {
      "inputs": [
        {
          "internalType": "address",
          "name": "brokerAddress",
          "type": "address"
        }
      ],
      "stateMutability": "nonpayable",
      "type": "constructor"
    },
    {
      "anonymous": false,
      "inputs": [
        {
          "indexed": false,
          "internalType": "uint256",
          "name": "requestID",
          "type": "uint256"
        }
      ],
      "name": "requestSubmitted",
      "type": "event"
    },
    {
      "anonymous": false,
      "inputs": [
        {
          "indexed": false,
          "internalType": "uint256",
          "name": "requestID",
          "type": "uint256"
        },
        {
          "indexed": false,
          "internalType": "bool",
          "name": "success",
          "type": "bool"
        }
      ],
      "name": "resultPostProcessed",
      "type": "event"
    },
    {
      "inputs": [],
      "name": "brokerContract",
      "outputs": [
        {
          "internalType": "contract ExecutionBroker",
          "name": "",
          "type": "address"
        }
      ],
      "stateMutability": "view",
      "type": "function"
    },
    {
      "inputs": [
        {
          "internalType": "uint256",
          "name": "requestID",
          "type": "uint256"
        }
      ],
      "name": "cancelRequest",
      "outputs": [],
      "stateMutability": "nonpayable",
      "type": "function"
    },
    {
      "inputs": [
        {
          "internalType": "uint256",
          "name": "requestID",
          "type": "uint256"
        }
      ],
      "name": "challengeSubmission",
      "outputs": [
        {
          "internalType": "bool",
          "name": "",
          "type": "bool"
        }
      ],
      "stateMutability": "nonpayable",
      "type": "function"
    },
    {
      "inputs": [
        {
          "internalType": "uint256",
          "name": "requestID",
          "type": "uint256"
        }
      ],
      "name": "claimPayment",
      "outputs": [
        {
          "internalType": "bool",
          "name": "",
          "type": "bool"
        }
      ],
      "stateMutability": "nonpayable",
      "type": "function"
    },
    {
      "inputs": [
        {
          "components": [
            {
              "internalType": "uint256",
              "name": "functionToRun",
              "type": "uint256"
            },
            {
              "internalType": "bytes",
              "name": "data",
              "type": "bytes"
            }
          ],
          "internalType": "struct BaseClient.ClientInput",
          "name": "input",
          "type": "tuple"
        }
      ],
      "name": "clientLogic",
      "outputs": [
        {
          "internalType": "bytes",
          "name": "",
          "type": "bytes"
        }
      ],
      "stateMutability": "pure",
      "type": "function"
    },
    {
      "inputs": [
        {
          "internalType": "uint256",
          "name": "functionID",
          "type": "uint256"
        }
      ],
      "name": "getInputStructure",
      "outputs": [
        {
          "internalType": "string",
          "name": "",
          "type": "string"
        }
      ],
      "stateMutability": "pure",
      "type": "function"
    },
    {
      "inputs": [],
      "name": "isOwner",
      "outputs": [
        {
          "internalType": "bool",
          "name": "",
          "type": "bool"
        }
      ],
      "stateMutability": "view",
      "type": "function"
    },
    {
      "inputs": [],
      "name": "owner",
      "outputs": [
        {
          "internalType": "address",
          "name": "",
          "type": "address"
        }
      ],
      "stateMutability": "view",
      "type": "function"
    },
    {
      "inputs": [
        {
          "internalType": "bytes",
          "name": "result",
          "type": "bytes"
        }
      ],
      "name": "processResult",
      "outputs": [],
      "stateMutability": "nonpayable",
      "type": "function"
    },
    {
      "inputs": [],
      "name": "sendFunds",
      "outputs": [],
      "stateMutability": "payable",
      "type": "function"
    },
    {
      "inputs": [
        {
          "internalType": "uint256",
          "name": "payment",
          "type": "uint256"
        },
        {
          "components": [
            {
              "internalType": "uint256",
              "name": "functionToRun",
              "type": "uint256"
            },
            {
              "internalType": "bytes",
              "name": "data",
              "type": "bytes"
            }
          ],
          "internalType": "struct BaseClient.ClientInput",
          "name": "input",
          "type": "tuple"
        },
        {
          "internalType": "uint256",
          "name": "postProcessingGas",
          "type": "uint256"
        },
        {
          "internalType": "uint256",
          "name": "requestedInsurance",
          "type": "uint256"
        },
        {
          "internalType": "uint256",
          "name": "claimDelay",
          "type": "uint256"
        }
      ],
      "name": "submitRequest",
      "outputs": [
        {
          "internalType": "uint256",
          "name": "",
          "type": "uint256"
        }
      ],
      "stateMutability": "payable",
      "type": "function"
    },
    {
      "inputs": [
        {
          "internalType": "uint256",
          "name": "value",
          "type": "uint256"
        }
      ],
      "name": "withdrawFunds",
      "outputs": [
        {
          "internalType": "bool",
          "name": "",
          "type": "bool"
        }
      ],
      "stateMutability": "nonpayable",
      "type": "function"
    },
    {
      "stateMutability": "payable",
      "type": "receive"
    }
  ],
  "bytecode": "608060405234801561001057600080fd5b5060405161156238038061156283398101604081905261002f91610062565b600080546001600160a01b03199081163317909155600180546001600160a01b0390931692909116919091179055610092565b60006020828403121561007457600080fd5b81516001600160a01b038116811461008b57600080fd5b9392505050565b6114c1806100a16000396000f3fe6080604052600436106100ab5760003560e01c80638f32d59b116100645780638f32d59b1461019c578063a9b1dac3146101bc578063b2c221f2146101d7578063c2c56245146101f7578063c63fdcc714610217578063cb3927471461023757600080fd5b8063155dd5ee146100b757806329643021146100ec5780633015394c1461010d578063886eb81d1461012f5780638d68cf591461012d5780638da5cb5b1461016a57600080fd5b366100b257005b600080fd5b3480156100c357600080fd5b506100d76100d2366004610cbd565b610257565b60405190151581526020015b60405180910390f35b6100ff6100fa366004610cee565b6102e1565b6040519081526020016100e3565b34801561011957600080fd5b5061012d610128366004610cbd565b61032b565b005b34801561013b57600080fd5b5061015d61014a366004610cbd565b5060408051602081019091526000815290565b6040516100e39190610da0565b34801561017657600080fd5b506000546001600160a01b03165b6040516001600160a01b0390911681526020016100e3565b3480156101a857600080fd5b506000546001600160a01b031633146100d7565b3480156101c857600080fd5b5061015d61014a366004610dba565b3480156101e357600080fd5b506100d76101f2366004610cbd565b6103b6565b34801561020357600080fd5b50600154610184906001600160a01b031681565b34801561022357600080fd5b506100d7610232366004610cbd565b6106c9565b34801561024357600080fd5b5061012d610252366004610f09565b6109da565b600080546001600160a01b0316331461028b5760405162461bcd60e51b815260040161028290610f3e565b60405180910390fd5b6040513390600090829085908381818185875af1925050503d80600081146102cf576040519150601f19603f3d011682016040523d82523d6000602084013e6102d4565b606091505b509093505050505b919050565b600080546001600160a01b0316331461030c5760405162461bcd60e51b815260040161028290610f3e565b6103218661031987610f83565b868686610a44565b9695505050505050565b6000546001600160a01b031633146103555760405162461bcd60e51b815260040161028290610f3e565b600154604051630c054e5360e21b8152600481018390526001600160a01b0390911690633015394c90602401600060405180830381600087803b15801561039b57600080fd5b505af11580156103af573d6000803e3d6000fd5b5050505050565b60008181526002602052604081205460ff1615156001146103e95760405162461bcd60e51b815260040161028290610fd3565b60015460405163c58343ef60e01b8152600481018490526000916001600160a01b03169063c58343ef90602401600060405180830381865afa158015610433573d6000803e3d6000fd5b505050506040513d6000823e601f3d908101601f1916820160405261045b9190810190611245565b610120810151519091506001600160a01b03166104d65760405162461bcd60e51b815260206004820152603360248201527f546865726520617265206e6f207375626d697373696f6e7320666f72207468656044820152720818da185b1b195b99d959081c995c5d595cdd606a1b6064820152608401610282565b80610120015160600151156105465760405162461bcd60e51b815260206004820152603060248201527f546865206368616c6c656e676564207375626d697373696f6e2068617320616c60448201526f1c9958591e481cdbdb1a591a599a595960821b6064820152608401610282565b60015460405163740c981360e11b8152600481018590523360248201526000916001600160a01b03169063e8193026906044016020604051808303816000875af1158015610598573d6000803e3d6000fd5b505050506040513d601f19601f820116820180604052508101906105bc9190611365565b610120830151604090810151905191925060009163cb39274760e01b916105e591602401610da0565b604051602081830303815290604052906001600160e01b0319166020820180516001600160e01b038381831617835250505050905060008360e001516001600160a01b031684608001518360405161063d9190611380565b60006040518083038160008787f1925050503d806000811461067b576040519150601f19603f3d011682016040523d82523d6000602084013e610680565b606091505b50506040805188815282151560208201529192507fa531c8f4bbf2a18049d85528bb5aaae66874af94bcb325738ee729a2b6cf8428910160405180910390a15090949350505050565b60008181526002602052604081205460ff1615156001146106fc5760405162461bcd60e51b815260040161028290610fd3565b60015460405163c58343ef60e01b8152600481018490526000916001600160a01b03169063c58343ef90602401600060405180830381865afa158015610746573d6000803e3d6000fd5b505050506040513d6000823e601f3d908101601f1916820160405261076e9190810190611245565b610120810151519091506001600160a01b03166107e75760405162461bcd60e51b815260206004820152603160248201527f546865726520617265206e6f207375626d697373696f6e7320666f7220746865604482015270081c1c9bdd9a591959081c995c5d595cdd607a1b6064820152608401610282565b610120810151516001600160a01b031633146108515760405162461bcd60e51b815260206004820152602360248201527f54686973207061796d656e7420646f6573206e6f742062656c6f6e6720746f20604482015262796f7560e81b6064820152608401610282565b80610120015160600151156108bc5760405162461bcd60e51b815260206004820152602b60248201527f5468652070726f766964656420726571756573742068617320616c726561647960448201526a081cdbdb1a591a599a595960aa1b6064820152608401610282565b428160c00151826101200151602001516108d691906113b2565b111561092e5760405162461bcd60e51b815260206004820152602160248201527f54686520636c61696d2064656c6179206861736e2774207061737365642079656044820152601d60fa1b6064820152608401610282565b60015460405163c63fdcc760e01b8152600481018590526000916001600160a01b03169063c63fdcc7906024016020604051808303816000875af115801561097a573d6000803e3d6000fd5b505050506040513d601f19601f8201168201806040525081019061099e9190611365565b600085815260026020526040808220805460ff191690556101208501518101519051929350909163cb39274760e01b916105e591602401610da0565b333014610a415760405162461bcd60e51b815260206004820152602f60248201527f46756e6374696f6e2061636365737369626c65206f6e6c79206279207468652060448201526e31b7b73a3930b1ba1034ba39b2b63360891b6064820152608401610282565b50565b6000806064600160009054906101000a90046001600160a01b03166001600160a01b031663dd2be25b6040518163ffffffff1660e01b8152600401602060405180830381865afa158015610a9c573d6000803e3d6000fd5b505050506040513d601f19601f82011682018060405250810190610ac091906113cb565b60ff16600160009054906101000a90046001600160a01b03166001600160a01b0316636af587fa6040518163ffffffff1660e01b8152600401602060405180830381865afa158015610b16573d6000803e3d6000fd5b505050506040513d601f19601f82011682018060405250810190610b3a91906113cb565b610b479060ff168a6113ee565b610b5191906113ee565b610b5b9190611405565b610b6590886113b2565b905047811115610bdf576040805162461bcd60e51b81526020600482015260248101919091527f496e73756666696369656e742066756e64733a20796f75206d7573742070617960448201527f20666f7220746865206578656375746f7220616e6420636f6e6669726d6572736064820152608401610282565b600154604051635400247160e11b81526000916001600160a01b03169063a80048e2908490610c1a908b908d908c908c908c90600401611427565b60206040518083038185885af1158015610c38573d6000803e3d6000fd5b50505050506040513d601f19601f82011682018060405250810190610c5d9190611472565b90507fd3b0b0209035a5613265e8fb1f38873ea24c7c6189b128eebe3689c03d13905c81604051610c9091815260200190565b60405180910390a16000818152600260205260409020805460ff1916600117905591505095945050505050565b600060208284031215610ccf57600080fd5b5035919050565b600060408284031215610ce857600080fd5b50919050565b600080600080600060a08688031215610d0657600080fd5b85359450602086013567ffffffffffffffff811115610d2457600080fd5b610d3088828901610cd6565b959895975050505060408401359360608101359360809091013592509050565b60005b83811015610d6b578181015183820152602001610d53565b50506000910152565b60008151808452610d8c816020860160208601610d50565b601f01601f19169290920160200192915050565b602081526000610db36020830184610d74565b9392505050565b600060208284031215610dcc57600080fd5b813567ffffffffffffffff811115610de357600080fd5b610def84828501610cd6565b949350505050565b634e487b7160e01b600052604160045260246000fd5b6040805190810167ffffffffffffffff81118282101715610e3057610e30610df7565b60405290565b604051610160810167ffffffffffffffff81118282101715610e3057610e30610df7565b604051601f8201601f1916810167ffffffffffffffff81118282101715610e8357610e83610df7565b604052919050565b600067ffffffffffffffff821115610ea557610ea5610df7565b50601f01601f191660200190565b600082601f830112610ec457600080fd5b8135610ed7610ed282610e8b565b610e5a565b818152846020838601011115610eec57600080fd5b816020850160208301376000918101602001919091529392505050565b600060208284031215610f1b57600080fd5b813567ffffffffffffffff811115610f3257600080fd5b610def84828501610eb3565b60208082526025908201527f46756e6374696f6e2061636365737369626c65206f6e6c79206279207468652060408201526437bbb732b960d91b606082015260800190565b600060408236031215610f9557600080fd5b610f9d610e0d565b82358152602083013567ffffffffffffffff811115610fbb57600080fd5b610fc736828601610eb3565b60208301525092915050565b6020808252603f908201527f5468697320494420646f6573206e6f742062656c6f6e6720746f20616e20616360408201527f7469766520726571756573742077697468696e207468697320636c69656e7400606082015260800190565b600082601f83011261104157600080fd5b815161104f610ed282610e8b565b81815284602083860101111561106457600080fd5b610def826020830160208701610d50565b60006040828403121561108757600080fd5b61108f610e0d565b905081518152602082015167ffffffffffffffff8111156110af57600080fd5b610fc784828501611030565b6001600160a01b0381168114610a4157600080fd5b600082601f8301126110e157600080fd5b8151602067ffffffffffffffff8211156110fd576110fd610df7565b8160051b61110c828201610e5a565b928352848101820192828101908785111561112657600080fd5b83870192505b8483101561114e57825161113f816110bb565b8252918301919083019061112c565b979650505050505050565b80516102dc816110bb565b60006040828403121561117657600080fd5b61117e610e0d565b9050815161118b816110bb565b808252506020820151602082015292915050565b805180151581146102dc57600080fd5b6000608082840312156111c157600080fd5b6040516080810167ffffffffffffffff82821081831117156111e5576111e5610df7565b81604052829350845191506111f9826110bb565b81835260208501516020840152604085015191508082111561121a57600080fd5b5061122785828601611030565b6040830152506112396060840161119f565b60608201525092915050565b60006020828403121561125757600080fd5b815167ffffffffffffffff8082111561126f57600080fd5b90830190610180828603121561128457600080fd5b61128c610e36565b825181526020830151828111156112a257600080fd5b6112ae87828601611075565b602083015250604083015160408201526060830151828111156112d057600080fd5b6112dc878286016110d0565b6060830152506080830151608082015260a083015160a082015260c083015160c082015261130c60e08401611159565b60e082015261010061132087828601611164565b90820152610140838101518381111561133857600080fd5b611344888287016111af565b61012084015250611358610160850161119f565b9082015295945050505050565b60006020828403121561137757600080fd5b610db38261119f565b60008251611392818460208701610d50565b9190910192915050565b634e487b7160e01b600052601160045260246000fd5b808201808211156113c5576113c561139c565b92915050565b6000602082840312156113dd57600080fd5b815160ff81168114610db357600080fd5b80820281158282048414176113c5576113c561139c565b60008261142257634e487b7160e01b600052601260045260246000fd5b500490565b60a08152855160a082015260006020870151604060c084015261144d60e0840182610d74565b9150508560208301528460408301528360608301528260808301529695505050505050565b60006020828403121561148457600080fd5b505191905056fea2646970667358221220caad377c0f13f4797c9c569b4f900e82e44a00f0eabf78cb75805b49bc9a463264736f6c63430008170033",
  "bytecodeSha1": "621b2258384435b9c10ea193e483d8e0b77599af",
  "compiler": {
    "evm_version": "istanbul",
    "optimizer": {
      "enabled": true,
      "runs": 200
    },
    "version": "0.8.23+commit.f704f362"
  },
  "contractName": "DummyClient",
  "language": "Solidity",
  "natspec": {
    "kind": "dev",
    "methods": {},
    "version": 1
  },
  "opcodes": "PUSH1 0x80 PUSH1 0x40 MSTORE PUSH1 0x4 CALLDATASIZE LT PUSH2 0xAB JUMPI PUSH1 0x0 CALLDATALOAD PUSH1 0xE0 SHR DUP1 PUSH4 0x8F32D59B GT PUSH2 0x64 JUMPI DUP1 PUSH4 0x8F32D59B EQ PUSH2 0x19C JUMPI DUP1 PUSH4 0xA9B1DAC3 EQ PUSH2 0x1BC JUMPI DUP1 PUSH4 0xB2C221F2 EQ PUSH2 0x1D7 JUMPI DUP1 PUSH4 0xC2C56245 EQ PUSH2 0x1F7 JUMPI DUP1 PUSH4 0xC63FDCC7 EQ PUSH2 0x217 JUMPI DUP1 PUSH4 0xCB392747 EQ PUSH2 0x237 JUMPI PUSH1 0x0 DUP1 REVERT JUMPDEST DUP1 PUSH4 0x155DD5EE EQ PUSH2 0xB7 JUMPI DUP1 PUSH4 0x29643021 EQ PUSH2 0xEC JUMPI DUP1 PUSH4 0x3015394C EQ PUSH2 0x10D JUMPI DUP1 PUSH4 0x886EB81D EQ PUSH2 0x12F JUMPI DUP1 PUSH4 0x8D68CF59 EQ PUSH2 0x12D JUMPI DUP1 PUSH4 0x8DA5CB5B EQ PUSH2 0x16A JUMPI PUSH1 0x0 DUP1 REVERT JUMPDEST CALLDATASIZE PUSH2 0xB2 JUMPI STOP JUMPDEST PUSH1 0x0 DUP1 REVERT JUMPDEST CALLVALUE DUP1 ISZERO PUSH2 0xC3 JUMPI PUSH1 0x0 DUP1 REVERT JUMPDEST POP PUSH2 0xD7 PUSH2 0xD2 CALLDATASIZE PUSH1 0x4 PUSH2 0xCBD JUMP JUMPDEST PUSH2 0x257 JUMP JUMPDEST PUSH1 0x40 MLOAD SWAP1 ISZERO ISZERO DUP2 MSTORE PUSH1 0x20 ADD JUMPDEST PUSH1 0x40 MLOAD DUP1 SWAP2 SUB SWAP1 RETURN JUMPDEST PUSH2 0xFF PUSH2 0xFA CALLDATASIZE PUSH1 0x4 PUSH2 0xCEE JUMP JUMPDEST PUSH2 0x2E1 JUMP JUMPDEST PUSH1 0x40 MLOAD SWAP1 DUP2 MSTORE PUSH1 0x20 ADD PUSH2 0xE3 JUMP JUMPDEST CALLVALUE DUP1 ISZERO PUSH2 0x119 JUMPI PUSH1 0x0 DUP1 REVERT JUMPDEST POP PUSH2 0x12D PUSH2 0x128 CALLDATASIZE PUSH1 0x4 PUSH2 0xCBD JUMP JUMPDEST PUSH2 0x32B JUMP JUMPDEST STOP JUMPDEST CALLVALUE DUP1 ISZERO PUSH2 0x13B JUMPI PUSH1 0x0 DUP1 REVERT JUMPDEST POP PUSH2 0x15D PUSH2 0x14A CALLDATASIZE PUSH1 0x4 PUSH2 0xCBD JUMP JUMPDEST POP PUSH1 0x40 DUP1 MLOAD PUSH1 0x20 DUP2 ADD SWAP1 SWAP2 MSTORE PUSH1 0x0 DUP2 MSTORE SWAP1 JUMP JUMPDEST PUSH1 0x40 MLOAD PUSH2 0xE3 SWAP2 SWAP1 PUSH2 0xDA0 JUMP JUMPDEST CALLVALUE DUP1 ISZERO PUSH2 0x176 JUMPI PUSH1 0x0 DUP1 REVERT JUMPDEST POP PUSH1 0x0 SLOAD PUSH1 0x1 PUSH1 0x1 PUSH1 0xA0 SHL SUB AND JUMPDEST PUSH1 0x40 MLOAD PUSH1 0x1 PUSH1 0x1 PUSH1 0xA0 SHL SUB SWAP1 SWAP2 AND DUP2 MSTORE PUSH1 0x20 ADD PUSH2 0xE3 JUMP JUMPDEST CALLVALUE DUP1 ISZERO PUSH2 0x1A8 JUMPI PUSH1 0x0 DUP1 REVERT JUMPDEST POP PUSH1 0x0 SLOAD PUSH1 0x1 PUSH1 0x1 PUSH1 0xA0 SHL SUB AND CALLER EQ PUSH2 0xD7 JUMP JUMPDEST CALLVALUE DUP1 ISZERO PUSH2 0x1C8 JUMPI PUSH1 0x0 DUP1 REVERT JUMPDEST POP PUSH2 0x15D PUSH2 0x14A CALLDATASIZE PUSH1 0x4 PUSH2 0xDBA JUMP JUMPDEST CALLVALUE DUP1 ISZERO PUSH2 0x1E3 JUMPI PUSH1 0x0 DUP1 REVERT JUMPDEST POP PUSH2 0xD7 PUSH2 0x1F2 CALLDATASIZE PUSH1 0x4 PUSH2 0xCBD JUMP JUMPDEST PUSH2 0x3B6 JUMP JUMPDEST CALLVALUE DUP1 ISZERO PUSH2 0x203 JUMPI PUSH1 0x0 DUP1 REVERT JUMPDEST POP PUSH1 0x1 SLOAD PUSH2 0x184 SWAP1 PUSH1 0x1 PUSH1 0x1 PUSH1 0xA0 SHL SUB AND DUP2 JUMP JUMPDEST CALLVALUE DUP1 ISZERO PUSH2 0x223 JUMPI PUSH1 0x0 DUP1 REVERT JUMPDEST POP PUSH2 0xD7 PUSH2 0x232 CALLDATASIZE PUSH1 0x4 PUSH2 0xCBD JUMP JUMPDEST PUSH2 0x6C9 JUMP JUMPDEST CALLVALUE DUP1 ISZERO PUSH2 0x243 JUMPI PUSH1 0x0 DUP1 REVERT JUMPDEST POP PUSH2 0x12D PUSH2 0x252 CALLDATASIZE PUSH1 0x4 PUSH2 0xF09 JUMP JUMPDEST PUSH2 0x9DA JUMP JUMPDEST PUSH1 0x0 DUP1 SLOAD PUSH1 0x1 PUSH1 0x1 PUSH1 0xA0 SHL SUB AND CALLER EQ PUSH2 0x28B JUMPI PUSH1 0x40 MLOAD PUSH3 0x461BCD PUSH1 0xE5 SHL DUP2 MSTORE PUSH1 0x4 ADD PUSH2 0x282 SWAP1 PUSH2 0xF3E JUMP JUMPDEST PUSH1 0x40 MLOAD DUP1 SWAP2 SUB SWAP1 REVERT JUMPDEST PUSH1 0x40 MLOAD CALLER SWAP1 PUSH1 0x0 SWAP1 DUP3 SWAP1 DUP6 SWAP1 DUP4 DUP2 DUP2 DUP2 DUP6 DUP8 GAS CALL SWAP3 POP POP POP RETURNDATASIZE DUP1 PUSH1 0x0 DUP2 EQ PUSH2 0x2CF JUMPI PUSH1 0x40 MLOAD SWAP2 POP PUSH1 0x1F NOT PUSH1 0x3F RETURNDATASIZE ADD AND DUP3 ADD PUSH1 0x40 MSTORE RETURNDATASIZE DUP3 MSTORE RETURNDATASIZE PUSH1 0x0 PUSH1 0x20 DUP5 ADD RETURNDATACOPY PUSH2 0x2D4 JUMP JUMPDEST PUSH1 0x60 SWAP2 POP JUMPDEST POP SWAP1 SWAP4 POP POP POP POP JUMPDEST SWAP2 SWAP1 POP JUMP JUMPDEST PUSH1 0x0 DUP1 SLOAD PUSH1 0x1 PUSH1 0x1 PUSH1 0xA0 SHL SUB AND CALLER EQ PUSH2 0x30C JUMPI PUSH1 0x40 MLOAD PUSH3 0x461BCD PUSH1 0xE5 SHL DUP2 MSTORE PUSH1 0x4 ADD PUSH2 0x282 SWAP1 PUSH2 0xF3E JUMP JUMPDEST PUSH2 0x321 DUP7 PUSH2 0x319 DUP8 PUSH2 0xF83 JUMP JUMPDEST DUP7 DUP7 DUP7 PUSH2 0xA44 JUMP JUMPDEST SWAP7 SWAP6 POP POP POP POP POP POP JUMP JUMPDEST PUSH1 0x0 SLOAD PUSH1 0x1 PUSH1 0x1 PUSH1 0xA0 SHL SUB AND CALLER EQ PUSH2 0x355 JUMPI PUSH1 0x40 MLOAD PUSH3 0x461BCD PUSH1 0xE5 SHL DUP2 MSTORE PUSH1 0x4 ADD PUSH2 0x282 SWAP1 PUSH2 0xF3E JUMP JUMPDEST PUSH1 0x1 SLOAD PUSH1 0x40 MLOAD PUSH4 0xC054E53 PUSH1 0xE2 SHL DUP2 MSTORE PUSH1 0x4 DUP2 ADD DUP4 SWAP1 MSTORE PUSH1 0x1 PUSH1 0x1 PUSH1 0xA0 SHL SUB SWAP1 SWAP2 AND SWAP1 PUSH4 0x3015394C SWAP1 PUSH1 0x24 ADD PUSH1 0x0 PUSH1 0x40 MLOAD DUP1 DUP4 SUB DUP2 PUSH1 0x0 DUP8 DUP1 EXTCODESIZE ISZERO DUP1 ISZERO PUSH2 0x39B JUMPI PUSH1 0x0 DUP1 REVERT JUMPDEST POP GAS CALL ISZERO DUP1 ISZERO PUSH2 0x3AF JUMPI RETURNDATASIZE PUSH1 0x0 DUP1 RETURNDATACOPY RETURNDATASIZE PUSH1 0x0 REVERT JUMPDEST POP POP POP POP POP JUMP JUMPDEST PUSH1 0x0 DUP2 DUP2 MSTORE PUSH1 0x2 PUSH1 0x20 MSTORE PUSH1 0x40 DUP2 KECCAK256 SLOAD PUSH1 0xFF AND ISZERO ISZERO PUSH1 0x1 EQ PUSH2 0x3E9 JUMPI PUSH1 0x40 MLOAD PUSH3 0x461BCD PUSH1 0xE5 SHL DUP2 MSTORE PUSH1 0x4 ADD PUSH2 0x282 SWAP1 PUSH2 0xFD3 JUMP JUMPDEST PUSH1 0x1 SLOAD PUSH1 0x40 MLOAD PUSH4 0xC58343EF PUSH1 0xE0 SHL DUP2 MSTORE PUSH1 0x4 DUP2 ADD DUP5 SWAP1 MSTORE PUSH1 0x0 SWAP2 PUSH1 0x1 PUSH1 0x1 PUSH1 0xA0 SHL SUB AND SWAP1 PUSH4 0xC58343EF SWAP1 PUSH1 0x24 ADD PUSH1 0x0 PUSH1 0x40 MLOAD DUP1 DUP4 SUB DUP2 DUP7 GAS STATICCALL ISZERO DUP1 ISZERO PUSH2 0x433 JUMPI RETURNDATASIZE PUSH1 0x0 DUP1 RETURNDATACOPY RETURNDATASIZE PUSH1 0x0 REVERT JUMPDEST POP POP POP POP PUSH1 0x40 MLOAD RETURNDATASIZE PUSH1 0x0 DUP3 RETURNDATACOPY PUSH1 0x1F RETURNDATASIZE SWAP1 DUP2 ADD PUSH1 0x1F NOT AND DUP3 ADD PUSH1 0x40 MSTORE PUSH2 0x45B SWAP2 SWAP1 DUP2 ADD SWAP1 PUSH2 0x1245 JUMP JUMPDEST PUSH2 0x120 DUP2 ADD MLOAD MLOAD SWAP1 SWAP2 POP PUSH1 0x1 PUSH1 0x1 PUSH1 0xA0 SHL SUB AND PUSH2 0x4D6 JUMPI PUSH1 0x40 MLOAD PUSH3 0x461BCD PUSH1 0xE5 SHL DUP2 MSTORE PUSH1 0x20 PUSH1 0x4 DUP3 ADD MSTORE PUSH1 0x33 PUSH1 0x24 DUP3 ADD MSTORE PUSH32 0x546865726520617265206E6F207375626D697373696F6E7320666F7220746865 PUSH1 0x44 DUP3 ADD MSTORE PUSH19 0x818DA185B1B195B99D959081C995C5D595CDD PUSH1 0x6A SHL PUSH1 0x64 DUP3 ADD MSTORE PUSH1 0x84 ADD PUSH2 0x282 JUMP JUMPDEST DUP1 PUSH2 0x120 ADD MLOAD PUSH1 0x60 ADD MLOAD ISZERO PUSH2 0x546 JUMPI PUSH1 0x40 MLOAD PUSH3 0x461BCD PUSH1 0xE5 SHL DUP2 MSTORE PUSH1 0x20 PUSH1 0x4 DUP3 ADD MSTORE PUSH1 0x30 PUSH1 0x24 DUP3 ADD MSTORE PUSH32 0x546865206368616C6C656E676564207375626D697373696F6E2068617320616C PUSH1 0x44 DUP3 ADD MSTORE PUSH16 0x1C9958591E481CDBDB1A591A599A5959 PUSH1 0x82 SHL PUSH1 0x64 DUP3 ADD MSTORE PUSH1 0x84 ADD PUSH2 0x282 JUMP JUMPDEST PUSH1 0x1 SLOAD PUSH1 0x40 MLOAD PUSH4 0x740C9813 PUSH1 0xE1 SHL DUP2 MSTORE PUSH1 0x4 DUP2 ADD DUP6 SWAP1 MSTORE CALLER PUSH1 0x24 DUP3 ADD MSTORE PUSH1 0x0 SWAP2 PUSH1 0x1 PUSH1 0x1 PUSH1 0xA0 SHL SUB AND SWAP1 PUSH4 0xE8193026 SWAP1 PUSH1 0x44 ADD PUSH1 0x20 PUSH1 0x40 MLOAD DUP1 DUP4 SUB DUP2 PUSH1 0x0 DUP8 GAS CALL ISZERO DUP1 ISZERO PUSH2 0x598 JUMPI RETURNDATASIZE PUSH1 0x0 DUP1 RETURNDATACOPY RETURNDATASIZE PUSH1 0x0 REVERT JUMPDEST POP POP POP POP PUSH1 0x40 MLOAD RETURNDATASIZE PUSH1 0x1F NOT PUSH1 0x1F DUP3 ADD AND DUP3 ADD DUP1 PUSH1 0x40 MSTORE POP DUP2 ADD SWAP1 PUSH2 0x5BC SWAP2 SWAP1 PUSH2 0x1365 JUMP JUMPDEST PUSH2 0x120 DUP4 ADD MLOAD PUSH1 0x40 SWAP1 DUP2 ADD MLOAD SWAP1 MLOAD SWAP2 SWAP3 POP PUSH1 0x0 SWAP2 PUSH4 0xCB392747 PUSH1 0xE0 SHL SWAP2 PUSH2 0x5E5 SWAP2 PUSH1 0x24 ADD PUSH2 0xDA0 JUMP JUMPDEST PUSH1 0x40 MLOAD PUSH1 0x20 DUP2 DUP4 SUB SUB DUP2 MSTORE SWAP1 PUSH1 0x40 MSTORE SWAP1 PUSH1 0x1 PUSH1 0x1 PUSH1 0xE0 SHL SUB NOT AND PUSH1 0x20 DUP3 ADD DUP1 MLOAD PUSH1 0x1 PUSH1 0x1 PUSH1 0xE0 SHL SUB DUP4 DUP2 DUP4 AND OR DUP4 MSTORE POP POP POP POP SWAP1 POP PUSH1 0x0 DUP4 PUSH1 0xE0 ADD MLOAD PUSH1 0x1 PUSH1 0x1 PUSH1 0xA0 SHL SUB AND DUP5 PUSH1 0x80 ADD MLOAD DUP4 PUSH1 0x40 MLOAD PUSH2 0x63D SWAP2 SWAP1 PUSH2 0x1380 JUMP JUMPDEST PUSH1 0x0 PUSH1 0x40 MLOAD DUP1 DUP4 SUB DUP2 PUSH1 0x0 DUP8 DUP8 CALL SWAP3 POP POP POP RETURNDATASIZE DUP1 PUSH1 0x0 DUP2 EQ PUSH2 0x67B JUMPI PUSH1 0x40 MLOAD SWAP2 POP PUSH1 0x1F NOT PUSH1 0x3F RETURNDATASIZE ADD AND DUP3 ADD PUSH1 0x40 MSTORE RETURNDATASIZE DUP3 MSTORE RETURNDATASIZE PUSH1 0x0 PUSH1 0x20 DUP5 ADD RETURNDATACOPY PUSH2 0x680 JUMP JUMPDEST PUSH1 0x60 SWAP2 POP JUMPDEST POP POP PUSH1 0x40 DUP1 MLOAD DUP9 DUP2 MSTORE DUP3 ISZERO ISZERO PUSH1 0x20 DUP3 ADD MSTORE SWAP2 SWAP3 POP PUSH32 0xA531C8F4BBF2A18049D85528BB5AAAE66874AF94BCB325738EE729A2B6CF8428 SWAP2 ADD PUSH1 0x40 MLOAD DUP1 SWAP2 SUB SWAP1 LOG1 POP SWAP1 SWAP5 SWAP4 POP POP POP POP JUMP JUMPDEST PUSH1 0x0 DUP2 DUP2 MSTORE PUSH1 0x2 PUSH1 0x20 MSTORE PUSH1 0x40 DUP2 KECCAK256 SLOAD PUSH1 0xFF AND ISZERO ISZERO PUSH1 0x1 EQ PUSH2 0x6FC JUMPI PUSH1 0x40 MLOAD PUSH3 0x461BCD PUSH1 0xE5 SHL DUP2 MSTORE PUSH1 0x4 ADD PUSH2 0x282 SWAP1 PUSH2 0xFD3 JUMP JUMPDEST PUSH1 0x1 SLOAD PUSH1 0x40 MLOAD PUSH4 0xC58343EF PUSH1 0xE0 SHL DUP2 MSTORE PUSH1 0x4 DUP2 ADD DUP5 SWAP1 MSTORE PUSH1 0x0 SWAP2 PUSH1 0x1 PUSH1 0x1 PUSH1 0xA0 SHL SUB AND SWAP1 PUSH4 0xC58343EF SWAP1 PUSH1 0x24 ADD PUSH1 0x0 PUSH1 0x40 MLOAD DUP1 DUP4 SUB DUP2 DUP7 GAS STATICCALL ISZERO DUP1 ISZERO PUSH2 0x746 JUMPI RETURNDATASIZE PUSH1 0x0 DUP1 RETURNDATACOPY RETURNDATASIZE PUSH1 0x0 REVERT JUMPDEST POP POP POP POP PUSH1 0x40 MLOAD RETURNDATASIZE PUSH1 0x0 DUP3 RETURNDATACOPY PUSH1 0x1F RETURNDATASIZE SWAP1 DUP2 ADD PUSH1 0x1F NOT AND DUP3 ADD PUSH1 0x40 MSTORE PUSH2 0x76E SWAP2 SWAP1 DUP2 ADD SWAP1 PUSH2 0x1245 JUMP JUMPDEST PUSH2 0x120 DUP2 ADD MLOAD MLOAD SWAP1 SWAP2 POP PUSH1 0x1 PUSH1 0x1 PUSH1 0xA0 SHL SUB AND PUSH2 0x7E7 JUMPI PUSH1 0x40 MLOAD PUSH3 0x461BCD PUSH1 0xE5 SHL DUP2 MSTORE PUSH1 0x20 PUSH1 0x4 DUP3 ADD MSTORE PUSH1 0x31 PUSH1 0x24 DUP3 ADD MSTORE PUSH32 0x546865726520617265206E6F207375626D697373696F6E7320666F7220746865 PUSH1 0x44 DUP3 ADD MSTORE PUSH17 0x81C1C9BDD9A591959081C995C5D595CDD PUSH1 0x7A SHL PUSH1 0x64 DUP3 ADD MSTORE PUSH1 0x84 ADD PUSH2 0x282 JUMP JUMPDEST PUSH2 0x120 DUP2 ADD MLOAD MLOAD PUSH1 0x1 PUSH1 0x1 PUSH1 0xA0 SHL SUB AND CALLER EQ PUSH2 0x851 JUMPI PUSH1 0x40 MLOAD PUSH3 0x461BCD PUSH1 0xE5 SHL DUP2 MSTORE PUSH1 0x20 PUSH1 0x4 DUP3 ADD MSTORE PUSH1 0x23 PUSH1 0x24 DUP3 ADD MSTORE PUSH32 0x54686973207061796D656E7420646F6573206E6F742062656C6F6E6720746F20 PUSH1 0x44 DUP3 ADD MSTORE PUSH3 0x796F75 PUSH1 0xE8 SHL PUSH1 0x64 DUP3 ADD MSTORE PUSH1 0x84 ADD PUSH2 0x282 JUMP JUMPDEST DUP1 PUSH2 0x120 ADD MLOAD PUSH1 0x60 ADD MLOAD ISZERO PUSH2 0x8BC JUMPI PUSH1 0x40 MLOAD PUSH3 0x461BCD PUSH1 0xE5 SHL DUP2 MSTORE PUSH1 0x20 PUSH1 0x4 DUP3 ADD MSTORE PUSH1 0x2B PUSH1 0x24 DUP3 ADD MSTORE PUSH32 0x5468652070726F766964656420726571756573742068617320616C7265616479 PUSH1 0x44 DUP3 ADD MSTORE PUSH11 0x81CDBDB1A591A599A5959 PUSH1 0xAA SHL PUSH1 0x64 DUP3 ADD MSTORE PUSH1 0x84 ADD PUSH2 0x282 JUMP JUMPDEST TIMESTAMP DUP2 PUSH1 0xC0 ADD MLOAD DUP3 PUSH2 0x120 ADD MLOAD PUSH1 0x20 ADD MLOAD PUSH2 0x8D6 SWAP2 SWAP1 PUSH2 0x13B2 JUMP JUMPDEST GT ISZERO PUSH2 0x92E JUMPI PUSH1 0x40 MLOAD PUSH3 0x461BCD PUSH1 0xE5 SHL DUP2 MSTORE PUSH1 0x20 PUSH1 0x4 DUP3 ADD MSTORE PUSH1 0x21 PUSH1 0x24 DUP3 ADD MSTORE PUSH32 0x54686520636C61696D2064656C6179206861736E277420706173736564207965 PUSH1 0x44 DUP3 ADD MSTORE PUSH1 0x1D PUSH1 0xFA SHL PUSH1 0x64 DUP3 ADD MSTORE PUSH1 0x84 ADD PUSH2 0x282 JUMP JUMPDEST PUSH1 0x1 SLOAD PUSH1 0x40 MLOAD PUSH4 0xC63FDCC7 PUSH1 0xE0 SHL DUP2 MSTORE PUSH1 0x4 DUP2 ADD DUP6 SWAP1 MSTORE PUSH1 0x0 SWAP2 PUSH1 0x1 PUSH1 0x1 PUSH1 0xA0 SHL SUB AND SWAP1 PUSH4 0xC63FDCC7 SWAP1 PUSH1 0x24 ADD PUSH1 0x20 PUSH1 0x40 MLOAD DUP1 DUP4 SUB DUP2 PUSH1 0x0 DUP8 GAS CALL ISZERO DUP1 ISZERO PUSH2 0x97A JUMPI RETURNDATASIZE PUSH1 0x0 DUP1 RETURNDATACOPY RETURNDATASIZE PUSH1 0x0 REVERT JUMPDEST POP POP POP POP PUSH1 0x40 MLOAD RETURNDATASIZE PUSH1 0x1F NOT PUSH1 0x1F DUP3 ADD AND DUP3 ADD DUP1 PUSH1 0x40 MSTORE POP DUP2 ADD SWAP1 PUSH2 0x99E SWAP2 SWAP1 PUSH2 0x1365 JUMP JUMPDEST PUSH1 0x0 DUP6 DUP2 MSTORE PUSH1 0x2 PUSH1 0x20 MSTORE PUSH1 0x40 DUP1 DUP3 KECCAK256 DUP1 SLOAD PUSH1 0xFF NOT AND SWAP1 SSTORE PUSH2 0x120 DUP6 ADD MLOAD DUP2 ADD MLOAD SWAP1 MLOAD SWAP3 SWAP4 POP SWAP1 SWAP2 PUSH4 0xCB392747 PUSH1 0xE0 SHL SWAP2 PUSH2 0x5E5 SWAP2 PUSH1 0x24 ADD PUSH2 0xDA0 JUMP JUMPDEST CALLER ADDRESS EQ PUSH2 0xA41 JUMPI PUSH1 0x40 MLOAD PUSH3 0x461BCD PUSH1 0xE5 SHL DUP2 MSTORE PUSH1 0x20 PUSH1 0x4 DUP3 ADD MSTORE PUSH1 0x2F PUSH1 0x24 DUP3 ADD MSTORE PUSH32 0x46756E6374696F6E2061636365737369626C65206F6E6C792062792074686520 PUSH1 0x44 DUP3 ADD MSTORE PUSH15 0x31B7B73A3930B1BA1034BA39B2B633 PUSH1 0x89 SHL PUSH1 0x64 DUP3 ADD MSTORE PUSH1 0x84 ADD PUSH2 0x282 JUMP JUMPDEST POP JUMP JUMPDEST PUSH1 0x0 DUP1 PUSH1 0x64 PUSH1 0x1 PUSH1 0x0 SWAP1 SLOAD SWAP1 PUSH2 0x100 EXP SWAP1 DIV PUSH1 0x1 PUSH1 0x1 PUSH1 0xA0 SHL SUB AND PUSH1 0x1 PUSH1 0x1 PUSH1 0xA0 SHL SUB AND PUSH4 0xDD2BE25B PUSH1 0x40 MLOAD DUP2 PUSH4 0xFFFFFFFF AND PUSH1 0xE0 SHL DUP2 MSTORE PUSH1 0x4 ADD PUSH1 0x20 PUSH1 0x40 MLOAD DUP1 DUP4 SUB DUP2 DUP7 GAS STATICCALL ISZERO DUP1 ISZERO PUSH2 0xA9C JUMPI RETURNDATASIZE PUSH1 0x0 DUP1 RETURNDATACOPY RETURNDATASIZE PUSH1 0x0 REVERT JUMPDEST POP POP POP POP PUSH1 0x40 MLOAD RETURNDATASIZE PUSH1 0x1F NOT PUSH1 0x1F DUP3 ADD AND DUP3 ADD DUP1 PUSH1 0x40 MSTORE POP DUP2 ADD SWAP1 PUSH2 0xAC0 SWAP2 SWAP1 PUSH2 0x13CB JUMP JUMPDEST PUSH1 0xFF AND PUSH1 0x1 PUSH1 0x0 SWAP1 SLOAD SWAP1 PUSH2 0x100 EXP SWAP1 DIV PUSH1 0x1 PUSH1 0x1 PUSH1 0xA0 SHL SUB AND PUSH1 0x1 PUSH1 0x1 PUSH1 0xA0 SHL SUB AND PUSH4 0x6AF587FA PUSH1 0x40 MLOAD DUP2 PUSH4 0xFFFFFFFF AND PUSH1 0xE0 SHL DUP2 MSTORE PUSH1 0x4 ADD PUSH1 0x20 PUSH1 0x40 MLOAD DUP1 DUP4 SUB DUP2 DUP7 GAS STATICCALL ISZERO DUP1 ISZERO PUSH2 0xB16 JUMPI RETURNDATASIZE PUSH1 0x0 DUP1 RETURNDATACOPY RETURNDATASIZE PUSH1 0x0 REVERT JUMPDEST POP POP POP POP PUSH1 0x40 MLOAD RETURNDATASIZE PUSH1 0x1F NOT PUSH1 0x1F DUP3 ADD AND DUP3 ADD DUP1 PUSH1 0x40 MSTORE POP DUP2 ADD SWAP1 PUSH2 0xB3A SWAP2 SWAP1 PUSH2 0x13CB JUMP JUMPDEST PUSH2 0xB47 SWAP1 PUSH1 0xFF AND DUP11 PUSH2 0x13EE JUMP JUMPDEST PUSH2 0xB51 SWAP2 SWAP1 PUSH2 0x13EE JUMP JUMPDEST PUSH2 0xB5B SWAP2 SWAP1 PUSH2 0x1405 JUMP JUMPDEST PUSH2 0xB65 SWAP1 DUP9 PUSH2 0x13B2 JUMP JUMPDEST SWAP1 POP SELFBALANCE DUP2 GT ISZERO PUSH2 0xBDF JUMPI PUSH1 0x40 DUP1 MLOAD PUSH3 0x461BCD PUSH1 0xE5 SHL DUP2 MSTORE PUSH1 0x20 PUSH1 0x4 DUP3 ADD MSTORE PUSH1 0x24 DUP2 ADD SWAP2 SWAP1 SWAP2 MSTORE PUSH32 0x496E73756666696369656E742066756E64733A20796F75206D75737420706179 PUSH1 0x44 DUP3 ADD MSTORE PUSH32 0x20666F7220746865206578656375746F7220616E6420636F6E6669726D657273 PUSH1 0x64 DUP3 ADD MSTORE PUSH1 0x84 ADD PUSH2 0x282 JUMP JUMPDEST PUSH1 0x1 SLOAD PUSH1 0x40 MLOAD PUSH4 0x54002471 PUSH1 0xE1 SHL DUP2 MSTORE PUSH1 0x0 SWAP2 PUSH1 0x1 PUSH1 0x1 PUSH1 0xA0 SHL SUB AND SWAP1 PUSH4 0xA80048E2 SWAP1 DUP5 SWAP1 PUSH2 0xC1A SWAP1 DUP12 SWAP1 DUP14 SWAP1 DUP13 SWAP1 DUP13 SWAP1 DUP13 SWAP1 PUSH1 0x4 ADD PUSH2 0x1427 JUMP JUMPDEST PUSH1 0x20 PUSH1 0x40 MLOAD DUP1 DUP4 SUB DUP2 DUP6 DUP9 GAS CALL ISZERO DUP1 ISZERO PUSH2 0xC38 JUMPI RETURNDATASIZE PUSH1 0x0 DUP1 RETURNDATACOPY RETURNDATASIZE PUSH1 0x0 REVERT JUMPDEST POP POP POP POP POP PUSH1 0x40 MLOAD RETURNDATASIZE PUSH1 0x1F NOT PUSH1 0x1F DUP3 ADD AND DUP3 ADD DUP1 PUSH1 0x40 MSTORE POP DUP2 ADD SWAP1 PUSH2 0xC5D SWAP2 SWAP1 PUSH2 0x1472 JUMP JUMPDEST SWAP1 POP PUSH32 0xD3B0B0209035A5613265E8FB1F38873EA24C7C6189B128EEBE3689C03D13905C DUP2 PUSH1 0x40 MLOAD PUSH2 0xC90 SWAP2 DUP2 MSTORE PUSH1 0x20 ADD SWAP1 JUMP JUMPDEST PUSH1 0x40 MLOAD DUP1 SWAP2 SUB SWAP1 LOG1 PUSH1 0x0 DUP2 DUP2 MSTORE PUSH1 0x2 PUSH1 0x20 MSTORE PUSH1 0x40 SWAP1 KECCAK256 DUP1 SLOAD PUSH1 0xFF NOT AND PUSH1 0x1 OR SWAP1 SSTORE SWAP2 POP POP SWAP6 SWAP5 POP POP POP POP POP JUMP JUMPDEST PUSH1 0x0 PUSH1 0x20 DUP3 DUP5 SUB SLT ISZERO PUSH2 0xCCF JUMPI PUSH1 0x0 DUP1 REVERT JUMPDEST POP CALLDATALOAD SWAP2 SWAP1 POP JUMP JUMPDEST PUSH1 0x0 PUSH1 0x40 DUP3 DUP5 SUB SLT ISZERO PUSH2 0xCE8 JUMPI PUSH1 0x0 DUP1 REVERT JUMPDEST POP SWAP2 SWAP1 POP JUMP JUMPDEST PUSH1 0x0 DUP1 PUSH1 0x0 DUP1 PUSH1 0x0 PUSH1 0xA0 DUP7 DUP9 SUB SLT ISZERO PUSH2 0xD06 JUMPI PUSH1 0x0 DUP1 REVERT JUMPDEST DUP6 CALLDATALOAD SWAP5 POP PUSH1 0x20 DUP7 ADD CALLDATALOAD PUSH8 0xFFFFFFFFFFFFFFFF DUP2 GT ISZERO PUSH2 0xD24 JUMPI PUSH1 0x0 DUP1 REVERT JUMPDEST PUSH2 0xD30 DUP9 DUP3 DUP10 ADD PUSH2 0xCD6 JUMP JUMPDEST SWAP6 SWAP9 SWAP6 SWAP8 POP POP POP POP PUSH1 0x40 DUP5 ADD CALLDATALOAD SWAP4 PUSH1 0x60 DUP2 ADD CALLDATALOAD SWAP4 PUSH1 0x80 SWAP1 SWAP2 ADD CALLDATALOAD SWAP3 POP SWAP1 POP JUMP JUMPDEST PUSH1 0x0 JUMPDEST DUP4 DUP2 LT ISZERO PUSH2 0xD6B JUMPI DUP2 DUP2 ADD MLOAD DUP4 DUP3 ADD MSTORE PUSH1 0x20 ADD PUSH2 0xD53 JUMP JUMPDEST POP POP PUSH1 0x0 SWAP2 ADD MSTORE JUMP JUMPDEST PUSH1 0x0 DUP2 MLOAD DUP1 DUP5 MSTORE PUSH2 0xD8C DUP2 PUSH1 0x20 DUP7 ADD PUSH1 0x20 DUP7 ADD PUSH2 0xD50 JUMP JUMPDEST PUSH1 0x1F ADD PUSH1 0x1F NOT AND SWAP3 SWAP1 SWAP3 ADD PUSH1 0x20 ADD SWAP3 SWAP2 POP POP JUMP JUMPDEST PUSH1 0x20 DUP2 MSTORE PUSH1 0x0 PUSH2 0xDB3 PUSH1 0x20 DUP4 ADD DUP5 PUSH2 0xD74 JUMP JUMPDEST SWAP4 SWAP3 POP POP POP JUMP JUMPDEST PUSH1 0x0 PUSH1 0x20 DUP3 DUP5 SUB SLT ISZERO PUSH2 0xDCC JUMPI PUSH1 0x0 DUP1 REVERT JUMPDEST DUP2 CALLDATALOAD PUSH8 0xFFFFFFFFFFFFFFFF DUP2 GT ISZERO PUSH2 0xDE3 JUMPI PUSH1 0x0 DUP1 REVERT JUMPDEST PUSH2 0xDEF DUP5 DUP3 DUP6 ADD PUSH2 0xCD6 JUMP JUMPDEST SWAP5 SWAP4 POP POP POP POP JUMP JUMPDEST PUSH4 0x4E487B71 PUSH1 0xE0 SHL PUSH1 0x0 MSTORE PUSH1 0x41 PUSH1 0x4 MSTORE PUSH1 0x24 PUSH1 0x0 REVERT JUMPDEST PUSH1 0x40 DUP1 MLOAD SWAP1 DUP2 ADD PUSH8 0xFFFFFFFFFFFFFFFF DUP2 GT DUP3 DUP3 LT OR ISZERO PUSH2 0xE30 JUMPI PUSH2 0xE30 PUSH2 0xDF7 JUMP JUMPDEST PUSH1 0x40 MSTORE SWAP1 JUMP JUMPDEST PUSH1 0x40 MLOAD PUSH2 0x160 DUP2 ADD PUSH8 0xFFFFFFFFFFFFFFFF DUP2 GT DUP3 DUP3 LT OR ISZERO PUSH2 0xE30 JUMPI PUSH2 0xE30 PUSH2 0xDF7 JUMP JUMPDEST PUSH1 0x40 MLOAD PUSH1 0x1F DUP3 ADD PUSH1 0x1F NOT AND DUP2 ADD PUSH8 0xFFFFFFFFFFFFFFFF DUP2 GT DUP3 DUP3 LT OR ISZERO PUSH2 0xE83 JUMPI PUSH2 0xE83 PUSH2 0xDF7 JUMP JUMPDEST PUSH1 0x40 MSTORE SWAP2 SWAP1 POP JUMP JUMPDEST PUSH1 0x0 PUSH8 0xFFFFFFFFFFFFFFFF DUP3 GT ISZERO PUSH2 0xEA5 JUMPI PUSH2 0xEA5 PUSH2 0xDF7 JUMP JUMPDEST POP PUSH1 0x1F ADD PUSH1 0x1F NOT AND PUSH1 0x20 ADD SWAP1 JUMP JUMPDEST PUSH1 0x0 DUP3 PUSH1 0x1F DUP4 ADD SLT PUSH2 0xEC4 JUMPI PUSH1 0x0 DUP1 REVERT JUMPDEST DUP2 CALLDATALOAD PUSH2 0xED7 PUSH2 0xED2 DUP3 PUSH2 0xE8B JUMP JUMPDEST PUSH2 0xE5A JUMP JUMPDEST DUP2 DUP2 MSTORE DUP5 PUSH1 0x20 DUP4 DUP7 ADD ADD GT ISZERO PUSH2 0xEEC JUMPI PUSH1 0x0 DUP1 REVERT JUMPDEST DUP2 PUSH1 0x20 DUP6 ADD PUSH1 0x20 DUP4 ADD CALLDATACOPY PUSH1 0x0 SWAP2 DUP2 ADD PUSH1 0x20 ADD SWAP2 SWAP1 SWAP2 MSTORE SWAP4 SWAP3 POP POP POP JUMP JUMPDEST PUSH1 0x0 PUSH1 0x20 DUP3 DUP5 SUB SLT ISZERO PUSH2 0xF1B JUMPI PUSH1 0x0 DUP1 REVERT JUMPDEST DUP2 CALLDATALOAD PUSH8 0xFFFFFFFFFFFFFFFF DUP2 GT ISZERO PUSH2 0xF32 JUMPI PUSH1 0x0 DUP1 REVERT JUMPDEST PUSH2 0xDEF DUP5 DUP3 DUP6 ADD PUSH2 0xEB3 JUMP JUMPDEST PUSH1 0x20 DUP1 DUP3 MSTORE PUSH1 0x25 SWAP1 DUP3 ADD MSTORE PUSH32 0x46756E6374696F6E2061636365737369626C65206F6E6C792062792074686520 PUSH1 0x40 DUP3 ADD MSTORE PUSH5 0x37BBB732B9 PUSH1 0xD9 SHL PUSH1 0x60 DUP3 ADD MSTORE PUSH1 0x80 ADD SWAP1 JUMP JUMPDEST PUSH1 0x0 PUSH1 0x40 DUP3 CALLDATASIZE SUB SLT ISZERO PUSH2 0xF95 JUMPI PUSH1 0x0 DUP1 REVERT JUMPDEST PUSH2 0xF9D PUSH2 0xE0D JUMP JUMPDEST DUP3 CALLDATALOAD DUP2 MSTORE PUSH1 0x20 DUP4 ADD CALLDATALOAD PUSH8 0xFFFFFFFFFFFFFFFF DUP2 GT ISZERO PUSH2 0xFBB JUMPI PUSH1 0x0 DUP1 REVERT JUMPDEST PUSH2 0xFC7 CALLDATASIZE DUP3 DUP7 ADD PUSH2 0xEB3 JUMP JUMPDEST PUSH1 0x20 DUP4 ADD MSTORE POP SWAP3 SWAP2 POP POP JUMP JUMPDEST PUSH1 0x20 DUP1 DUP3 MSTORE PUSH1 0x3F SWAP1 DUP3 ADD MSTORE PUSH32 0x5468697320494420646F6573206E6F742062656C6F6E6720746F20616E206163 PUSH1 0x40 DUP3 ADD MSTORE PUSH32 0x7469766520726571756573742077697468696E207468697320636C69656E7400 PUSH1 0x60 DUP3 ADD MSTORE PUSH1 0x80 ADD SWAP1 JUMP JUMPDEST PUSH1 0x0 DUP3 PUSH1 0x1F DUP4 ADD SLT PUSH2 0x1041 JUMPI PUSH1 0x0 DUP1 REVERT JUMPDEST DUP2 MLOAD PUSH2 0x104F PUSH2 0xED2 DUP3 PUSH2 0xE8B JUMP JUMPDEST DUP2 DUP2 MSTORE DUP5 PUSH1 0x20 DUP4 DUP7 ADD ADD GT ISZERO PUSH2 0x1064 JUMPI PUSH1 0x0 DUP1 REVERT JUMPDEST PUSH2 0xDEF DUP3 PUSH1 0x20 DUP4 ADD PUSH1 0x20 DUP8 ADD PUSH2 0xD50 JUMP JUMPDEST PUSH1 0x0 PUSH1 0x40 DUP3 DUP5 SUB SLT ISZERO PUSH2 0x1087 JUMPI PUSH1 0x0 DUP1 REVERT JUMPDEST PUSH2 0x108F PUSH2 0xE0D JUMP JUMPDEST SWAP1 POP DUP2 MLOAD DUP2 MSTORE PUSH1 0x20 DUP3 ADD MLOAD PUSH8 0xFFFFFFFFFFFFFFFF DUP2 GT ISZERO PUSH2 0x10AF JUMPI PUSH1 0x0 DUP1 REVERT JUMPDEST PUSH2 0xFC7 DUP5 DUP3 DUP6 ADD PUSH2 0x1030 JUMP JUMPDEST PUSH1 0x1 PUSH1 0x1 PUSH1 0xA0 SHL SUB DUP2 AND DUP2 EQ PUSH2 0xA41 JUMPI PUSH1 0x0 DUP1 REVERT JUMPDEST PUSH1 0x0 DUP3 PUSH1 0x1F DUP4 ADD SLT PUSH2 0x10E1 JUMPI PUSH1 0x0 DUP1 REVERT JUMPDEST DUP2 MLOAD PUSH1 0x20 PUSH8 0xFFFFFFFFFFFFFFFF DUP3 GT ISZERO PUSH2 0x10FD JUMPI PUSH2 0x10FD PUSH2 0xDF7 JUMP JUMPDEST DUP2 PUSH1 0x5 SHL PUSH2 0x110C DUP3 DUP3 ADD PUSH2 0xE5A JUMP JUMPDEST SWAP3 DUP4 MSTORE DUP5 DUP2 ADD DUP3 ADD SWAP3 DUP3 DUP2 ADD SWAP1 DUP8 DUP6 GT ISZERO PUSH2 0x1126 JUMPI PUSH1 0x0 DUP1 REVERT JUMPDEST DUP4 DUP8 ADD SWAP3 POP JUMPDEST DUP5 DUP4 LT ISZERO PUSH2 0x114E JUMPI DUP3 MLOAD PUSH2 0x113F DUP2 PUSH2 0x10BB JUMP JUMPDEST DUP3 MSTORE SWAP2 DUP4 ADD SWAP2 SWAP1 DUP4 ADD SWAP1 PUSH2 0x112C JUMP JUMPDEST SWAP8 SWAP7 POP POP POP POP POP POP POP JUMP JUMPDEST DUP1 MLOAD PUSH2 0x2DC DUP2 PUSH2 0x10BB JUMP JUMPDEST PUSH1 0x0 PUSH1 0x40 DUP3 DUP5 SUB SLT ISZERO PUSH2 0x1176 JUMPI PUSH1 0x0 DUP1 REVERT JUMPDEST PUSH2 0x117E PUSH2 0xE0D JUMP JUMPDEST SWAP1 POP DUP2 MLOAD PUSH2 0x118B DUP2 PUSH2 0x10BB JUMP JUMPDEST DUP1 DUP3 MSTORE POP PUSH1 0x20 DUP3 ADD MLOAD PUSH1 0x20 DUP3 ADD MSTORE SWAP3 SWAP2 POP POP JUMP JUMPDEST DUP1 MLOAD DUP1 ISZERO ISZERO DUP2 EQ PUSH2 0x2DC JUMPI PUSH1 0x0 DUP1 REVERT JUMPDEST PUSH1 0x0 PUSH1 0x80 DUP3 DUP5 SUB SLT ISZERO PUSH2 0x11C1 JUMPI PUSH1 0x0 DUP1 REVERT JUMPDEST PUSH1 0x40 MLOAD PUSH1 0x80 DUP2 ADD PUSH8 0xFFFFFFFFFFFFFFFF DUP3 DUP3 LT DUP2 DUP4 GT OR ISZERO PUSH2 0x11E5 JUMPI PUSH2 0x11E5 PUSH2 0xDF7 JUMP JUMPDEST DUP2 PUSH1 0x40 MSTORE DUP3 SWAP4 POP DUP5 MLOAD SWAP2 POP PUSH2 0x11F9 DUP3 PUSH2 0x10BB JUMP JUMPDEST DUP2 DUP4 MSTORE PUSH1 0x20 DUP6 ADD MLOAD PUSH1 0x20 DUP5 ADD MSTORE PUSH1 0x40 DUP6 ADD MLOAD SWAP2 POP DUP1 DUP3 GT ISZERO PUSH2 0x121A JUMPI PUSH1 0x0 DUP1 REVERT JUMPDEST POP PUSH2 0x1227 DUP6 DUP3 DUP7 ADD PUSH2 0x1030 JUMP JUMPDEST PUSH1 0x40 DUP4 ADD MSTORE POP PUSH2 0x1239 PUSH1 0x60 DUP5 ADD PUSH2 0x119F JUMP JUMPDEST PUSH1 0x60 DUP3 ADD MSTORE POP SWAP3 SWAP2 POP POP JUMP JUMPDEST PUSH1 0x0 PUSH1 0x20 DUP3 DUP5 SUB SLT ISZERO PUSH2 0x1257 JUMPI PUSH1 0x0 DUP1 REVERT JUMPDEST DUP2 MLOAD PUSH8 0xFFFFFFFFFFFFFFFF DUP1 DUP3 GT ISZERO PUSH2 0x126F JUMPI PUSH1 0x0 DUP1 REVERT JUMPDEST SWAP1 DUP4 ADD SWAP1 PUSH2 0x180 DUP3 DUP7 SUB SLT ISZERO PUSH2 0x1284 JUMPI PUSH1 0x0 DUP1 REVERT JUMPDEST PUSH2 0x128C PUSH2 0xE36 JUMP JUMPDEST DUP3 MLOAD DUP2 MSTORE PUSH1 0x20 DUP4 ADD MLOAD DUP3 DUP2 GT ISZERO PUSH2 0x12A2 JUMPI PUSH1 0x0 DUP1 REVERT JUMPDEST PUSH2 0x12AE DUP8 DUP3 DUP7 ADD PUSH2 0x1075 JUMP JUMPDEST PUSH1 0x20 DUP4 ADD MSTORE POP PUSH1 0x40 DUP4 ADD MLOAD PUSH1 0x40 DUP3 ADD MSTORE PUSH1 0x60 DUP4 ADD MLOAD DUP3 DUP2 GT ISZERO PUSH2 0x12D0 JUMPI PUSH1 0x0 DUP1 REVERT JUMPDEST PUSH2 0x12DC DUP8 DUP3 DUP7 ADD PUSH2 0x10D0 JUMP JUMPDEST PUSH1 0x60 DUP4 ADD MSTORE POP PUSH1 0x80 DUP4 ADD MLOAD PUSH1 0x80 DUP3 ADD MSTORE PUSH1 0xA0 DUP4 ADD MLOAD PUSH1 0xA0 DUP3 ADD MSTORE PUSH1 0xC0 DUP4 ADD MLOAD PUSH1 0xC0 DUP3 ADD MSTORE PUSH2 0x130C PUSH1 0xE0 DUP5 ADD PUSH2 0x1159 JUMP JUMPDEST PUSH1 0xE0 DUP3 ADD MSTORE PUSH2 0x100 PUSH2 0x1320 DUP8 DUP3 DUP7 ADD PUSH2 0x1164 JUMP JUMPDEST SWAP1 DUP3 ADD MSTORE PUSH2 0x140 DUP4 DUP2 ADD MLOAD DUP4 DUP2 GT ISZERO PUSH2 0x1338 JUMPI PUSH1 0x0 DUP1 REVERT JUMPDEST PUSH2 0x1344 DUP9 DUP3 DUP8 ADD PUSH2 0x11AF JUMP JUMPDEST PUSH2 0x120 DUP5 ADD MSTORE POP PUSH2 0x1358 PUSH2 0x160 DUP6 ADD PUSH2 0x119F JUMP JUMPDEST SWAP1 DUP3 ADD MSTORE SWAP6 SWAP5 POP POP POP POP POP JUMP JUMPDEST PUSH1 0x0 PUSH1 0x20 DUP3 DUP5 SUB SLT ISZERO PUSH2 0x1377 JUMPI PUSH1 0x0 DUP1 REVERT JUMPDEST PUSH2 0xDB3 DUP3 PUSH2 0x119F JUMP JUMPDEST PUSH1 0x0 DUP3 MLOAD PUSH2 0x1392 DUP2 DUP5 PUSH1 0x20 DUP8 ADD PUSH2 0xD50 JUMP JUMPDEST SWAP2 SWAP1 SWAP2 ADD SWAP3 SWAP2 POP POP JUMP JUMPDEST PUSH4 0x4E487B71 PUSH1 0xE0 SHL PUSH1 0x0 MSTORE PUSH1 0x11 PUSH1 0x4 MSTORE PUSH1 0x24 PUSH1 0x0 REVERT JUMPDEST DUP1 DUP3 ADD DUP1 DUP3 GT ISZERO PUSH2 0x13C5 JUMPI PUSH2 0x13C5 PUSH2 0x139C JUMP JUMPDEST SWAP3 SWAP2 POP POP JUMP JUMPDEST PUSH1 0x0 PUSH1 0x20 DUP3 DUP5 SUB SLT ISZERO PUSH2 0x13DD JUMPI PUSH1 0x0 DUP1 REVERT JUMPDEST DUP2 MLOAD PUSH1 0xFF DUP2 AND DUP2 EQ PUSH2 0xDB3 JUMPI PUSH1 0x0 DUP1 REVERT JUMPDEST DUP1 DUP3 MUL DUP2 ISZERO DUP3 DUP3 DIV DUP5 EQ OR PUSH2 0x13C5 JUMPI PUSH2 0x13C5 PUSH2 0x139C JUMP JUMPDEST PUSH1 0x0 DUP3 PUSH2 0x1422 JUMPI PUSH4 0x4E487B71 PUSH1 0xE0 SHL PUSH1 0x0 MSTORE PUSH1 0x12 PUSH1 0x4 MSTORE PUSH1 0x24 PUSH1 0x0 REVERT JUMPDEST POP DIV SWAP1 JUMP JUMPDEST PUSH1 0xA0 DUP2 MSTORE DUP6 MLOAD PUSH1 0xA0 DUP3 ADD MSTORE PUSH1 0x0 PUSH1 0x20 DUP8 ADD MLOAD PUSH1 0x40 PUSH1 0xC0 DUP5 ADD MSTORE PUSH2 0x144D PUSH1 0xE0 DUP5 ADD DUP3 PUSH2 0xD74 JUMP JUMPDEST SWAP2 POP POP DUP6 PUSH1 0x20 DUP4 ADD MSTORE DUP5 PUSH1 0x40 DUP4 ADD MSTORE DUP4 PUSH1 0x60 DUP4 ADD MSTORE DUP3 PUSH1 0x80 DUP4 ADD MSTORE SWAP7 SWAP6 POP POP POP POP POP POP JUMP JUMPDEST PUSH1 0x0 PUSH1 0x20 DUP3 DUP5 SUB SLT ISZERO PUSH2 0x1484 JUMPI PUSH1 0x0 DUP1 REVERT JUMPDEST POP MLOAD SWAP2 SWAP1 POP JUMP INVALID LOG2 PUSH5 0x6970667358 0x22 SLT KECCAK256 0xCA 0xAD CALLDATACOPY PUSH29 0xF13F4797C9C569B4F900E82E44A00F0EABF78CB75805B49BC9A463264 PUSH20 0x6F6C634300081700330000000000000000000000 ",
  "sha1": "8dc123afb3b544f59ccfddc49deee7cfade17280",
  "source": "// SPDX-License-Identifier: GPL-3.0\n\npragma solidity >=0.7.0 <0.9.0;\n\nimport \"./BaseClient.sol\";\n\n\ncontract DummyClient is BaseClient {\n\n    constructor(address brokerAddress) BaseClient(brokerAddress) {}\n\n    function clientLogic(ClientInput calldata input) external override pure returns (bytes memory) {\n        bytes memory output = \"\";\n        return output;\n    }\n\n    function getInputStructure(uint functionID) external override pure returns (string memory) {\n        return \"\";\n    }\n}",
  "sourcePath": "contracts/DummyClient.sol",
  "type": "contract"
}