{
  "abi": [
    {
      "anonymous": false,
      "inputs": [
        {
          "indexed": false,
          "internalType": "uint256",
          "name": "requestID",
          "type": "uint256"
        },
        {
          "indexed": false,
          "internalType": "address",
          "name": "acceptor",
          "type": "address"
        },
        {
          "indexed": false,
          "internalType": "bool",
          "name": "refundSuccess",
          "type": "bool"
        }
      ],
      "name": "acceptanceCancelled",
      "type": "event"
    },
    {
      "anonymous": false,
      "inputs": [
        {
          "indexed": false,
          "internalType": "uint256",
          "name": "requestID",
          "type": "uint256"
        },
        {
          "indexed": false,
          "internalType": "bool",
          "name": "success",
          "type": "bool"
        }
      ],
      "name": "challengePayment",
      "type": "event"
    },
    {
      "anonymous": false,
      "inputs": [
        {
          "indexed": false,
          "internalType": "uint256",
          "name": "requestID",
          "type": "uint256"
        },
        {
          "indexed": false,
          "internalType": "bytes",
          "name": "result",
          "type": "bytes"
        }
      ],
      "name": "challengeProcessed",
      "type": "event"
    },
    {
      "anonymous": false,
      "inputs": [
        {
          "indexed": false,
          "internalType": "uint256",
          "name": "requestID",
          "type": "uint256"
        },
        {
          "indexed": false,
          "internalType": "address",
          "name": "acceptor",
          "type": "address"
        }
      ],
      "name": "requestAccepted",
      "type": "event"
    },
    {
      "anonymous": false,
      "inputs": [
        {
          "indexed": false,
          "internalType": "uint256",
          "name": "requestID",
          "type": "uint256"
        },
        {
          "indexed": false,
          "internalType": "bool",
          "name": "refundSuccess",
          "type": "bool"
        }
      ],
      "name": "requestCancelled",
      "type": "event"
    },
    {
      "anonymous": false,
      "inputs": [
        {
          "indexed": false,
          "internalType": "uint256",
          "name": "requestID",
          "type": "uint256"
        },
        {
          "indexed": false,
          "internalType": "uint256",
          "name": "payment",
          "type": "uint256"
        },
        {
          "indexed": false,
          "internalType": "uint256",
          "name": "challengeInsurance",
          "type": "uint256"
        },
        {
          "indexed": false,
          "internalType": "uint256",
          "name": "claimDelay",
          "type": "uint256"
        }
      ],
      "name": "requestCreated",
      "type": "event"
    },
    {
      "anonymous": false,
      "inputs": [
        {
          "indexed": false,
          "internalType": "uint256",
          "name": "requestID",
          "type": "uint256"
        }
      ],
      "name": "requestSolidified",
      "type": "event"
    },
    {
      "anonymous": false,
      "inputs": [
        {
          "indexed": false,
          "internalType": "uint256",
          "name": "requestID",
          "type": "uint256"
        },
        {
          "indexed": false,
          "internalType": "bool",
          "name": "success",
          "type": "bool"
        }
      ],
      "name": "resultPostProcessed",
      "type": "event"
    },
    {
      "anonymous": false,
      "inputs": [
        {
          "indexed": false,
          "internalType": "uint256",
          "name": "requestID",
          "type": "uint256"
        },
        {
          "indexed": false,
          "internalType": "bytes",
          "name": "result",
          "type": "bytes"
        },
        {
          "indexed": false,
          "internalType": "address",
          "name": "submitter",
          "type": "address"
        }
      ],
      "name": "resultSubmitted",
      "type": "event"
    },
    {
      "inputs": [
        {
          "internalType": "uint256",
          "name": "requestID",
          "type": "uint256"
        }
      ],
      "name": "acceptRequest",
      "outputs": [],
      "stateMutability": "payable",
      "type": "function"
    },
    {
      "inputs": [
        {
          "internalType": "uint256",
          "name": "requestID",
          "type": "uint256"
        }
      ],
      "name": "cancelAcceptance",
      "outputs": [],
      "stateMutability": "nonpayable",
      "type": "function"
    },
    {
      "inputs": [
        {
          "internalType": "uint256",
          "name": "requestID",
          "type": "uint256"
        }
      ],
      "name": "cancelRequest",
      "outputs": [],
      "stateMutability": "nonpayable",
      "type": "function"
    },
    {
      "inputs": [
        {
          "internalType": "uint256",
          "name": "requestID",
          "type": "uint256"
        }
      ],
      "name": "challengeSubmission",
      "outputs": [
        {
          "internalType": "bool",
          "name": "",
          "type": "bool"
        }
      ],
      "stateMutability": "nonpayable",
      "type": "function"
    },
    {
      "inputs": [
        {
          "internalType": "uint256",
          "name": "requestID",
          "type": "uint256"
        }
      ],
      "name": "claimPayment",
      "outputs": [
        {
          "internalType": "bool",
          "name": "",
          "type": "bool"
        }
      ],
      "stateMutability": "nonpayable",
      "type": "function"
    },
    {
      "inputs": [
        {
          "internalType": "uint256",
          "name": "requestID",
          "type": "uint256"
        }
      ],
      "name": "isRequestOpen",
      "outputs": [
        {
          "internalType": "bool",
          "name": "",
          "type": "bool"
        }
      ],
      "stateMutability": "view",
      "type": "function"
    },
    {
      "inputs": [
        {
          "internalType": "uint256",
          "name": "amount",
          "type": "uint256"
        },
        {
          "internalType": "address",
          "name": "destination",
          "type": "address"
        }
      ],
      "name": "publicTransferFunds",
      "outputs": [
        {
          "internalType": "bool",
          "name": "",
          "type": "bool"
        }
      ],
      "stateMutability": "nonpayable",
      "type": "function"
    },
    {
      "inputs": [
        {
          "internalType": "uint256",
          "name": "requestID",
          "type": "uint256"
        }
      ],
      "name": "publicizeRequest",
      "outputs": [],
      "stateMutability": "nonpayable",
      "type": "function"
    },
    {
      "inputs": [
        {
          "internalType": "uint256",
          "name": "",
          "type": "uint256"
        }
      ],
      "name": "requests",
      "outputs": [
        {
          "components": [
            {
              "internalType": "uint256",
              "name": "functionToRun",
              "type": "uint256"
            },
            {
              "internalType": "bytes",
              "name": "data",
              "type": "bytes"
            }
          ],
          "internalType": "struct BaseClient.ClientInput",
          "name": "input",
          "type": "tuple"
        },
        {
          "internalType": "uint256",
          "name": "payment",
          "type": "uint256"
        },
        {
          "internalType": "uint256",
          "name": "postProcessingGas",
          "type": "uint256"
        },
        {
          "internalType": "uint256",
          "name": "challengeInsurance",
          "type": "uint256"
        },
        {
          "internalType": "uint256",
          "name": "claimDelay",
          "type": "uint256"
        },
        {
          "internalType": "contract BaseClient",
          "name": "client",
          "type": "address"
        },
        {
          "components": [
            {
              "internalType": "address",
              "name": "acceptor",
              "type": "address"
            },
            {
              "internalType": "uint256",
              "name": "timestamp",
              "type": "uint256"
            }
          ],
          "internalType": "struct RequestAcceptance",
          "name": "acceptance",
          "type": "tuple"
        },
        {
          "components": [
            {
              "internalType": "address",
              "name": "issuer",
              "type": "address"
            },
            {
              "internalType": "uint256",
              "name": "timestamp",
              "type": "uint256"
            },
            {
              "internalType": "bytes",
              "name": "result",
              "type": "bytes"
            },
            {
              "internalType": "bool",
              "name": "solidified",
              "type": "bool"
            }
          ],
          "internalType": "struct Submission",
          "name": "submission",
          "type": "tuple"
        },
        {
          "internalType": "bool",
          "name": "cancelled",
          "type": "bool"
        }
      ],
      "stateMutability": "view",
      "type": "function"
    },
    {
      "inputs": [
        {
          "components": [
            {
              "internalType": "uint256",
              "name": "functionToRun",
              "type": "uint256"
            },
            {
              "internalType": "bytes",
              "name": "data",
              "type": "bytes"
            }
          ],
          "internalType": "struct BaseClient.ClientInput",
          "name": "input",
          "type": "tuple"
        },
        {
          "internalType": "uint256",
          "name": "postProcessingGas",
          "type": "uint256"
        },
        {
          "internalType": "uint256",
          "name": "requestedInsurance",
          "type": "uint256"
        },
        {
          "internalType": "uint256",
          "name": "claimDelay",
          "type": "uint256"
        }
      ],
      "name": "submitRequest",
      "outputs": [
        {
          "internalType": "uint256",
          "name": "",
          "type": "uint256"
        }
      ],
      "stateMutability": "payable",
      "type": "function"
    },
    {
      "inputs": [
        {
          "internalType": "uint256",
          "name": "requestID",
          "type": "uint256"
        },
        {
          "internalType": "bytes",
          "name": "result",
          "type": "bytes"
        }
      ],
      "name": "submitResult",
      "outputs": [],
      "stateMutability": "nonpayable",
      "type": "function"
    },
    {
      "inputs": [
        {
          "internalType": "address",
          "name": "",
          "type": "address"
        }
      ],
      "name": "weiBalances",
      "outputs": [
        {
          "internalType": "uint256",
          "name": "",
          "type": "uint256"
        }
      ],
      "stateMutability": "view",
      "type": "function"
    }
  ],
  "bytecode": "608060405234801561001057600080fd5b50612520806100206000396000f3fe6080604052600436106100a75760003560e01c80636ef9e145116100645780636ef9e1451461017657806381d12c58146101b15780638274fbf5146101e6578063b2c221f214610206578063c63fdcc714610226578063d900f9341461024657600080fd5b80630d45c199146100ac5780633015394c146100e157806349875db2146101035780634ba1f09814610123578063540a61781461013657806354c7d90614610156575b600080fd5b3480156100b857600080fd5b506100cc6100c7366004611e48565b610259565b60405190151581526020015b60405180910390f35b3480156100ed57600080fd5b506101016100fc366004611e74565b61037e565b005b34801561010f57600080fd5b5061010161011e366004611e8d565b61060a565b610101610131366004611e74565b610908565b34801561014257600080fd5b50610101610151366004611e74565b610b40565b34801561016257600080fd5b50610101610171366004611e74565b610c8b565b34801561018257600080fd5b506101a3610191366004611f09565b60006020819052908152604090205481565b6040519081526020016100d8565b3480156101bd57600080fd5b506101d16101cc366004611e74565b610f93565b6040516100d899989796959493929190611f9b565b3480156101f257600080fd5b506100cc610201366004611e74565b611191565b34801561021257600080fd5b506100cc610221366004611e74565b611207565b34801561023257600080fd5b506100cc610241366004611e74565b6116ba565b6101a3610254366004612046565b61189b565b336000908152602081905260408120548311156102c75760405162461bcd60e51b815260206004820152602160248201527f53656e64657220646f6573206e6f74206861766520656e6f7567682066756e646044820152607360f81b60648201526084015b60405180910390fd5b33600090815260208190526040812080548592906102e69084906120b5565b909155505060405182906000906001600160a01b0383169086908381818185875af1925050503d8060008114610338576040519150601f19603f3d011682016040523d82523d6000602084013e61033d565b606091505b5050905080610374576001600160a01b0384166000908152602081905260408120805487929061036e9084906120c8565b90915550505b9150505b92915050565b60018181548110610391576103916120db565b60009182526020909120600d600e90920201015460ff16156103ff5760405162461bcd60e51b815260206004820152602160248201527f54686520726571756573742077617320616c72656164792063616e63656c6c656044820152601960fa1b60648201526084016102be565b60018181548110610412576104126120db565b60009182526020909120600e90910201600601546001600160a01b031633146104985760405162461bcd60e51b815260206004820152603260248201527f596f752063616e742063616e63656c20612072657175657374207468617420776044820152716173206e6f74206d61646520627920796f7560701b60648201526084016102be565b60006001600160a01b0316600182815481106104b6576104b66120db565b600091825260209091206007600e9092020101546001600160a01b03161461052c5760405162461bcd60e51b815260206004820152602360248201527f596f752063616e742063616e63656c20616e2061636365707465642072657175604482015262195cdd60ea1b60648201526084016102be565b6001808281548110610540576105406120db565b600091825260208220600e9190910201600d01805460ff1916921515929092179091556001805483908110610577576105776120db565b6000918252602082206006600e909202010154600180546001600160a01b0390921693506105c791859081106105af576105af6120db565b90600052602060002090600e02016002015483611b89565b6040805185815282151560208201529192507f84cdfa87c52a6c23a244b289457de2d062d5da21bea2aeabf5227da0e186768891015b60405180910390a1505050565b60006001600160a01b031660018481548110610628576106286120db565b600091825260209091206007600e9092020101546001600160a01b03160361069e5760405162461bcd60e51b8152602060048201526024808201527f596f75206e65656420746f2061636365707420746865207265717565737420666044820152631a5c9cdd60e21b60648201526084016102be565b60006001600160a01b0316600184815481106106bc576106bc6120db565b600091825260209091206009600e9092020101546001600160a01b03161461073d5760405162461bcd60e51b815260206004820152602e60248201527f546865726520697320616c72656164792061207375626d697373696f6e20666f60448201526d1c881d1a1a5cc81c995c5d595cdd60921b60648201526084016102be565b336001600160a01b03166001848154811061075a5761075a6120db565b600091825260209091206007600e9092020101546001600160a01b0316146107d25760405162461bcd60e51b815260206004820152602560248201527f536f6d656f6e6520656c736520686173206163636570746564207468652052656044820152641c5d595cdd60da1b60648201526084016102be565b60006040518060800160405280336001600160a01b0316815260200142815260200184848080601f01602080910402602001604051908101604052809392919081815260200183838082843760009201829052509385525050506020909101526001805491925082918690811061084b5761084b6120db565b90600052602060002090600e020160090160008201518160000160006101000a8154816001600160a01b0302191690836001600160a01b031602179055506020820151816001015560408201518160020190816108a89190612190565b50606091909101516003909101805460ff19169115159190911790556040517f7aae710ce9f6d670ecb8ad67272894bd8e8bd7878c1f1113c2646f4e465f390f906108fa908690869086903390612250565b60405180910390a150505050565b6001818154811061091b5761091b6120db565b60009182526020909120600d600e90920201015460ff161561097f5760405162461bcd60e51b815260206004820152601960248201527f5468652072657175657374207761732063616e63656c6c65640000000000000060448201526064016102be565b60006001600160a01b03166001828154811061099d5761099d6120db565b600091825260209091206007600e9092020101546001600160a01b031614610a135760405162461bcd60e51b8152602060048201526024808201527f536f6d656f6e6520616c726561647920616363657074656420746865207265716044820152631d595cdd60e21b60648201526084016102be565b60018181548110610a2657610a266120db565b90600052602060002090600e0201600401543414610a955760405162461bcd60e51b815260206004820152602660248201527f496e636f727265637420616d6f756e74206f6620696e737572616e63652070726044820152651bdd9a59195960d21b60648201526084016102be565b604080518082019091523381524260208201526001805482919084908110610abf57610abf6120db565b60009182526020918290208351600e92909202016007810180546001600160a01b0319166001600160a01b0390931692909217909155918101516008909201919091556040805184815233928101929092527f08f298fd72dbd217fb0a6d75ebb7814f41823b563772413db23636b1600a0aca910160405180910390a15050565b60006001600160a01b031660018281548110610b5e57610b5e6120db565b600091825260209091206007600e9092020101546001600160a01b031614610bd35760405162461bcd60e51b815260206004820152602260248201527f596f752063616e74207075626c6963697a6520612074616b656e2072657175656044820152611cdd60f21b60648201526084016102be565b7fd070e27de467a3a003dae95fcda57ce3b642283b9965c061fa24acf1d996eec78160018381548110610c0857610c086120db565b90600052602060002090600e02016002015460018481548110610c2d57610c2d6120db565b90600052602060002090600e02016004015460018581548110610c5257610c526120db565b60009182526020918290206005600e9092020101546040805195865291850193909352830152606082015260800160405180910390a150565b60006001600160a01b031660018281548110610ca957610ca96120db565b600091825260209091206007600e9092020101546001600160a01b031603610d395760405162461bcd60e51b815260206004820152603a60248201527f5468657265206973206e6f20616363657074616e636520696e20706c6163652060448201527f666f72207468652070726f76696465642072657175657374494400000000000060648201526084016102be565b60006001600160a01b031660018281548110610d5757610d576120db565b600091825260209091206009600e9092020101546001600160a01b031614610de75760405162461bcd60e51b815260206004820152603860248201527f54686520726573756c747320666f72207468697320726571756573742068617660448201527f6520616c7265616479206265656d207375626d6974746564000000000000000060648201526084016102be565b336001600160a01b031660018281548110610e0457610e046120db565b600091825260209091206007600e9092020101546001600160a01b031614610e945760405162461bcd60e51b815260206004820152603960248201527f596f752063616e742063616e63656c20616e20616363657074616e636520746860448201527f617420646f6573206e6f742062656c6f6e6720746f20796f750000000000000060648201526084016102be565b600060018281548110610ea957610ea96120db565b6000918252602082206007600e909202010154600180546001600160a01b0390921693509084908110610ede57610ede6120db565b90600052602060002090600e020160070160000160006101000a8154816001600160a01b0302191690836001600160a01b031602179055506000610f4660018481548110610f2e57610f2e6120db565b90600052602060002090600e02016004015483611b89565b604080518581526001600160a01b0385166020820152821515918101919091529091507f233aebe1d7c90b97e1fe6ce1e226cca4feee120bc312447d954c577a9e2255e4906060016105fd565b60018181548110610fa357600080fd5b90600052602060002090600e02016000915090508060000160405180604001604052908160008201548152602001600182018054610fe090612107565b80601f016020809104026020016040519081016040528092919081815260200182805461100c90612107565b80156110595780601f1061102e57610100808354040283529160200191611059565b820191906000526020600020905b81548152906001019060200180831161103c57829003601f168201915b505050919092525050506002820154600383015460048401546005850154600686015460408051808201825260078901546001600160a01b03908116825260088a0154602080840191909152835160808101855260098c01805484168252600a8d015492820192909252600b8c0180549b9c9a9b999a9899979893909616969395929490939192908401916110ed90612107565b80601f016020809104026020016040519081016040528092919081815260200182805461111990612107565b80156111665780601f1061113b57610100808354040283529160200191611166565b820191906000526020600020905b81548152906001019060200180831161114957829003601f168201915b50505091835250506003919091015460ff9081161515602090920191909152600d9092015490911689565b6000600182815481106111a6576111a66120db565b60009182526020909120600d600e90920201015460ff16158015610378575060006001600160a01b0316600183815481106111e3576111e36120db565b600091825260209091206007600e9092020101546001600160a01b03161492915050565b6000806001600160a01b031660018381548110611226576112266120db565b600091825260209091206009600e9092020101546001600160a01b0316036112ac5760405162461bcd60e51b815260206004820152603360248201527f546865726520617265206e6f207375626d697373696f6e7320666f72207468656044820152720818da185b1b195b99d959081c995c5d595cdd606a1b60648201526084016102be565b600182815481106112bf576112bf6120db565b60009182526020909120600c600e90920201015460ff161561133c5760405162461bcd60e51b815260206004820152603060248201527f546865206368616c6c656e676564207375626d697373696f6e2068617320616c60448201526f1c9958591e481cdbdb1a591a599a595960821b60648201526084016102be565b600060018381548110611351576113516120db565b90600052602060002090600e0201600901600201805461137090612107565b80601f016020809104026020016040519081016040528092919081815260200182805461139c90612107565b80156113e95780601f106113be576101008083540402835291602001916113e9565b820191906000526020600020905b8154815290600101906020018083116113cc57829003601f168201915b50505050509050600060018481548110611405576114056120db565b90600052602060002090600e02016000016040518060400160405290816000820154815260200160018201805461143b90612107565b80601f016020809104026020016040519081016040528092919081815260200182805461146790612107565b80156114b45780601f10611489576101008083540402835291602001916114b4565b820191906000526020600020905b81548152906001019060200180831161149757829003601f168201915b50505050508152505090506000600185815481106114d4576114d46120db565b600091825260209091206006600e90920201015460405163a9b1dac360e01b81526001600160a01b039091169063a9b1dac390611515908590600401612299565b600060405180830381865afa158015611532573d6000803e3d6000fd5b505050506040513d6000823e601f3d908101601f1916820160405261155a9190810190612305565b90507f0a3dfd2216a2448c62e6f94b05a7686722a4de162a822b40701563c5a19fe7ee858260405161158d929190612381565b60405180910390a180805190602001208380519060200120146116af57604080516080810182523381524260208201529081018290526000606082015260018054829190889081106115e1576115e16120db565b90600052602060002090600e020160090160008201518160000160006101000a8154816001600160a01b0302191690836001600160a01b0316021790555060208201518160010155604082015181600201908161163e9190612190565b50606091909101516003909101805460ff1916911515919091179055600061166587611bba565b6040805189815282151560208201529192507fd93e094fe9f982d893b2cf334b8efd17855720efbccc90b82b91a2529dbe4620910160405180910390a15060019695505050505050565b506000949350505050565b6000336001600160a01b0316600183815481106116d9576116d96120db565b600091825260209091206009600e9092020101546001600160a01b03161461174f5760405162461bcd60e51b815260206004820152602360248201527f54686973207061796d656e7420646f6573206e6f742062656c6f6e6720746f20604482015262796f7560e81b60648201526084016102be565b60018281548110611762576117626120db565b60009182526020909120600c600e90920201015460ff16156117da5760405162461bcd60e51b815260206004820152602b60248201527f5468652070726f766964656420726571756573742068617320616c726561647960448201526a081cdbdb1a591a599a595960aa1b60648201526084016102be565b42600183815481106117ee576117ee6120db565b90600052602060002090600e02016005015460018481548110611813576118136120db565b90600052602060002090600e02016009016001015461183291906120c8565b106118895760405162461bcd60e51b815260206004820152602160248201527f54686520636c61696d2064656c6179206861736e2774207061737365642079656044820152601d60fa1b60648201526084016102be565b600061189483611bba565b9392505050565b6000806118a885346120b5565b1161191b5760405162461bcd60e51b815260206004820152603f60248201527f54686520706f73742070726f63657373696e67206761732063616e6e6f74207460448201527f616b65757020616c6c206f662074686520737570706c6965642065746865720060648201526084016102be565b6040805180820182526000808252602080830182905283516080810185528281528082018390528451808301849052855180820390930183528501855280850191909152606081018290528351610120810190945233939091908061197f8b61239a565b815234602080830191909152604082018b9052606082018a9052608082018990526001600160a01b03871660a083015260c0820186905260e082018590526000610100909201829052600180548082018255925282518051600e9093027fb10e2d527612073b26eecdfd717e6a320cf44b4afac2b0732d9fcbe2b7fa0cf68101938455918101519394508493909183917fb10e2d527612073b26eecdfd717e6a320cf44b4afac2b0732d9fcbe2b7fa0cf790910190611a3e9082612190565b50505060208281015160028301556040808401516003840155606084015160048401556080840151600584015560a08401516006840180546001600160a01b039283166001600160a01b03199182161790915560c08601518051600787018054918516918416919091179055840151600886015560e0860151805160098701805491909416921691909117825592830151600a85015590820151600b840190611ae79082612190565b50606091909101516003909101805491151560ff199283161790556101009290920151600d909101805491151591909216179055600180547fd070e27de467a3a003dae95fcda57ce3b642283b9965c061fa24acf1d996eec791611b4a916120b5565b6040805191825234602083015281018990526060810188905260800160405180910390a160018054611b7c91906120b5565b9998505050505050505050565b33600090815260208190526040812080548491908390611baa9084906120c8565b9091555061189490508383610259565b60006001808381548110611bd057611bd06120db565b6000918252602091829020600e90910201600c01805460ff1916921515929092179091556040518381527f5a80336cedd647533d99fefc5a4618f060834efa1a3e774e2728c9874a491d38910160405180910390a1600060018381548110611c3a57611c3a6120db565b6000918252602082206009600e909202010154600180546001600160a01b0390921693509085908110611c6f57611c6f6120db565b90600052602060002090600e02016004015460018581548110611c9457611c946120db565b90600052602060002090600e020160020154611cb091906120c8565b90506000611cbe8284611b89565b9050600063cb39274760e01b60018781548110611cdd57611cdd6120db565b90600052602060002090600e0201600901600201604051602401611d019190612443565b604051602081830303815290604052906001600160e01b0319166020820180516001600160e01b0383818316178352505050509050600060018781548110611d4b57611d4b6120db565b600091825260209091206006600e909202010154600180546001600160a01b039092169189908110611d7f57611d7f6120db565b90600052602060002090600e02016003015483604051611d9f91906124ce565b60006040518083038160008787f1925050503d8060008114611ddd576040519150601f19603f3d011682016040523d82523d6000602084013e611de2565b606091505b50506040805189815282151560208201529192507fa531c8f4bbf2a18049d85528bb5aaae66874af94bcb325738ee729a2b6cf8428910160405180910390a1509095945050505050565b80356001600160a01b0381168114611e4357600080fd5b919050565b60008060408385031215611e5b57600080fd5b82359150611e6b60208401611e2c565b90509250929050565b600060208284031215611e8657600080fd5b5035919050565b600080600060408486031215611ea257600080fd5b83359250602084013567ffffffffffffffff80821115611ec157600080fd5b818601915086601f830112611ed557600080fd5b813581811115611ee457600080fd5b876020828501011115611ef657600080fd5b6020830194508093505050509250925092565b600060208284031215611f1b57600080fd5b61189482611e2c565b60005b83811015611f3f578181015183820152602001611f27565b50506000910152565b60008151808452611f60816020860160208601611f24565b601f01601f19169290920160200192915050565b805182526000602082015160406020850152611f936040850182611f48565b949350505050565b6000610140808352611faf8184018d611f74565b90508a602084015289604084015288606084015287608084015260018060a01b0380881660a08501528087511660c0850152602087015160e0850152838203610100850152808651168252506020850151602082015260408501516080604083015261201e6080830182611f48565b60608781015115159301929092525083151561012084015290509a9950505050505050505050565b6000806000806080858703121561205c57600080fd5b843567ffffffffffffffff81111561207357600080fd5b85016040818803121561208557600080fd5b966020860135965060408601359560600135945092505050565b634e487b7160e01b600052601160045260246000fd5b818103818111156103785761037861209f565b808201808211156103785761037861209f565b634e487b7160e01b600052603260045260246000fd5b634e487b7160e01b600052604160045260246000fd5b600181811c9082168061211b57607f821691505b60208210810361213b57634e487b7160e01b600052602260045260246000fd5b50919050565b601f82111561218b57600081815260208120601f850160051c810160208610156121685750805b601f850160051c820191505b8181101561218757828155600101612174565b5050505b505050565b815167ffffffffffffffff8111156121aa576121aa6120f1565b6121be816121b88454612107565b84612141565b602080601f8311600181146121f357600084156121db5750858301515b600019600386901b1c1916600185901b178555612187565b600085815260208120601f198616915b8281101561222257888601518255948401946001909101908401612203565b50858210156122405787850151600019600388901b60f8161c191681555b5050505050600190811b01905550565b848152606060208201528260608201528284608083013760008184016080908101919091526001600160a01b03929092166040820152601f909201601f19169091010192915050565b6020815260006118946020830184611f74565b604051601f8201601f1916810167ffffffffffffffff811182821017156122d5576122d56120f1565b604052919050565b600067ffffffffffffffff8211156122f7576122f76120f1565b50601f01601f191660200190565b60006020828403121561231757600080fd5b815167ffffffffffffffff81111561232e57600080fd5b8201601f8101841361233f57600080fd5b805161235261234d826122dd565b6122ac565b81815285602083850101111561236757600080fd5b612378826020830160208601611f24565b95945050505050565b828152604060208201526000611f936040830184611f48565b6000604082360312156123ac57600080fd5b6040516040810167ffffffffffffffff82821081831117156123d0576123d06120f1565b81604052843583526020915081850135818111156123ed57600080fd5b8501905036601f82011261240057600080fd5b803561240e61234d826122dd565b818152368483850101111561242257600080fd5b81848401858301376000918101840191909152918301919091525092915050565b600060208083526000845461245781612107565b808487015260406001808416600081146124785760018114612492576124c0565b60ff1985168984015283151560051b8901830195506124c0565b896000528660002060005b858110156124b85781548b820186015290830190880161249d565b8a0184019650505b509398975050505050505050565b600082516124e0818460208701611f24565b919091019291505056fea264697066735822122034631b88317300ef82bc592c676cfc293aa5c7ea642e7ce1bd33071de6d8af3b64736f6c63430008110033",
  "bytecodeSha1": "bd53b2f2649da90e4c8be861aa2688507a50c1b8",
  "compiler": {
    "evm_version": "istanbul",
    "optimizer": {
      "enabled": true,
      "runs": 200
    },
    "version": "0.8.17+commit.8df45f5f"
  },
  "contractName": "ExecutionBroker",
  "language": "Solidity",
  "natspec": {
    "kind": "dev",
    "methods": {},
    "version": 1
  },
  "opcodes": "PUSH1 0x80 PUSH1 0x40 MSTORE PUSH1 0x4 CALLDATASIZE LT PUSH2 0xA7 JUMPI PUSH1 0x0 CALLDATALOAD PUSH1 0xE0 SHR DUP1 PUSH4 0x6EF9E145 GT PUSH2 0x64 JUMPI DUP1 PUSH4 0x6EF9E145 EQ PUSH2 0x176 JUMPI DUP1 PUSH4 0x81D12C58 EQ PUSH2 0x1B1 JUMPI DUP1 PUSH4 0x8274FBF5 EQ PUSH2 0x1E6 JUMPI DUP1 PUSH4 0xB2C221F2 EQ PUSH2 0x206 JUMPI DUP1 PUSH4 0xC63FDCC7 EQ PUSH2 0x226 JUMPI DUP1 PUSH4 0xD900F934 EQ PUSH2 0x246 JUMPI PUSH1 0x0 DUP1 REVERT JUMPDEST DUP1 PUSH4 0xD45C199 EQ PUSH2 0xAC JUMPI DUP1 PUSH4 0x3015394C EQ PUSH2 0xE1 JUMPI DUP1 PUSH4 0x49875DB2 EQ PUSH2 0x103 JUMPI DUP1 PUSH4 0x4BA1F098 EQ PUSH2 0x123 JUMPI DUP1 PUSH4 0x540A6178 EQ PUSH2 0x136 JUMPI DUP1 PUSH4 0x54C7D906 EQ PUSH2 0x156 JUMPI JUMPDEST PUSH1 0x0 DUP1 REVERT JUMPDEST CALLVALUE DUP1 ISZERO PUSH2 0xB8 JUMPI PUSH1 0x0 DUP1 REVERT JUMPDEST POP PUSH2 0xCC PUSH2 0xC7 CALLDATASIZE PUSH1 0x4 PUSH2 0x1E48 JUMP JUMPDEST PUSH2 0x259 JUMP JUMPDEST PUSH1 0x40 MLOAD SWAP1 ISZERO ISZERO DUP2 MSTORE PUSH1 0x20 ADD JUMPDEST PUSH1 0x40 MLOAD DUP1 SWAP2 SUB SWAP1 RETURN JUMPDEST CALLVALUE DUP1 ISZERO PUSH2 0xED JUMPI PUSH1 0x0 DUP1 REVERT JUMPDEST POP PUSH2 0x101 PUSH2 0xFC CALLDATASIZE PUSH1 0x4 PUSH2 0x1E74 JUMP JUMPDEST PUSH2 0x37E JUMP JUMPDEST STOP JUMPDEST CALLVALUE DUP1 ISZERO PUSH2 0x10F JUMPI PUSH1 0x0 DUP1 REVERT JUMPDEST POP PUSH2 0x101 PUSH2 0x11E CALLDATASIZE PUSH1 0x4 PUSH2 0x1E8D JUMP JUMPDEST PUSH2 0x60A JUMP JUMPDEST PUSH2 0x101 PUSH2 0x131 CALLDATASIZE PUSH1 0x4 PUSH2 0x1E74 JUMP JUMPDEST PUSH2 0x908 JUMP JUMPDEST CALLVALUE DUP1 ISZERO PUSH2 0x142 JUMPI PUSH1 0x0 DUP1 REVERT JUMPDEST POP PUSH2 0x101 PUSH2 0x151 CALLDATASIZE PUSH1 0x4 PUSH2 0x1E74 JUMP JUMPDEST PUSH2 0xB40 JUMP JUMPDEST CALLVALUE DUP1 ISZERO PUSH2 0x162 JUMPI PUSH1 0x0 DUP1 REVERT JUMPDEST POP PUSH2 0x101 PUSH2 0x171 CALLDATASIZE PUSH1 0x4 PUSH2 0x1E74 JUMP JUMPDEST PUSH2 0xC8B JUMP JUMPDEST CALLVALUE DUP1 ISZERO PUSH2 0x182 JUMPI PUSH1 0x0 DUP1 REVERT JUMPDEST POP PUSH2 0x1A3 PUSH2 0x191 CALLDATASIZE PUSH1 0x4 PUSH2 0x1F09 JUMP JUMPDEST PUSH1 0x0 PUSH1 0x20 DUP2 SWAP1 MSTORE SWAP1 DUP2 MSTORE PUSH1 0x40 SWAP1 KECCAK256 SLOAD DUP2 JUMP JUMPDEST PUSH1 0x40 MLOAD SWAP1 DUP2 MSTORE PUSH1 0x20 ADD PUSH2 0xD8 JUMP JUMPDEST CALLVALUE DUP1 ISZERO PUSH2 0x1BD JUMPI PUSH1 0x0 DUP1 REVERT JUMPDEST POP PUSH2 0x1D1 PUSH2 0x1CC CALLDATASIZE PUSH1 0x4 PUSH2 0x1E74 JUMP JUMPDEST PUSH2 0xF93 JUMP JUMPDEST PUSH1 0x40 MLOAD PUSH2 0xD8 SWAP10 SWAP9 SWAP8 SWAP7 SWAP6 SWAP5 SWAP4 SWAP3 SWAP2 SWAP1 PUSH2 0x1F9B JUMP JUMPDEST CALLVALUE DUP1 ISZERO PUSH2 0x1F2 JUMPI PUSH1 0x0 DUP1 REVERT JUMPDEST POP PUSH2 0xCC PUSH2 0x201 CALLDATASIZE PUSH1 0x4 PUSH2 0x1E74 JUMP JUMPDEST PUSH2 0x1191 JUMP JUMPDEST CALLVALUE DUP1 ISZERO PUSH2 0x212 JUMPI PUSH1 0x0 DUP1 REVERT JUMPDEST POP PUSH2 0xCC PUSH2 0x221 CALLDATASIZE PUSH1 0x4 PUSH2 0x1E74 JUMP JUMPDEST PUSH2 0x1207 JUMP JUMPDEST CALLVALUE DUP1 ISZERO PUSH2 0x232 JUMPI PUSH1 0x0 DUP1 REVERT JUMPDEST POP PUSH2 0xCC PUSH2 0x241 CALLDATASIZE PUSH1 0x4 PUSH2 0x1E74 JUMP JUMPDEST PUSH2 0x16BA JUMP JUMPDEST PUSH2 0x1A3 PUSH2 0x254 CALLDATASIZE PUSH1 0x4 PUSH2 0x2046 JUMP JUMPDEST PUSH2 0x189B JUMP JUMPDEST CALLER PUSH1 0x0 SWAP1 DUP2 MSTORE PUSH1 0x20 DUP2 SWAP1 MSTORE PUSH1 0x40 DUP2 KECCAK256 SLOAD DUP4 GT ISZERO PUSH2 0x2C7 JUMPI PUSH1 0x40 MLOAD PUSH3 0x461BCD PUSH1 0xE5 SHL DUP2 MSTORE PUSH1 0x20 PUSH1 0x4 DUP3 ADD MSTORE PUSH1 0x21 PUSH1 0x24 DUP3 ADD MSTORE PUSH32 0x53656E64657220646F6573206E6F74206861766520656E6F7567682066756E64 PUSH1 0x44 DUP3 ADD MSTORE PUSH1 0x73 PUSH1 0xF8 SHL PUSH1 0x64 DUP3 ADD MSTORE PUSH1 0x84 ADD JUMPDEST PUSH1 0x40 MLOAD DUP1 SWAP2 SUB SWAP1 REVERT JUMPDEST CALLER PUSH1 0x0 SWAP1 DUP2 MSTORE PUSH1 0x20 DUP2 SWAP1 MSTORE PUSH1 0x40 DUP2 KECCAK256 DUP1 SLOAD DUP6 SWAP3 SWAP1 PUSH2 0x2E6 SWAP1 DUP5 SWAP1 PUSH2 0x20B5 JUMP JUMPDEST SWAP1 SWAP2 SSTORE POP POP PUSH1 0x40 MLOAD DUP3 SWAP1 PUSH1 0x0 SWAP1 PUSH1 0x1 PUSH1 0x1 PUSH1 0xA0 SHL SUB DUP4 AND SWAP1 DUP7 SWAP1 DUP4 DUP2 DUP2 DUP2 DUP6 DUP8 GAS CALL SWAP3 POP POP POP RETURNDATASIZE DUP1 PUSH1 0x0 DUP2 EQ PUSH2 0x338 JUMPI PUSH1 0x40 MLOAD SWAP2 POP PUSH1 0x1F NOT PUSH1 0x3F RETURNDATASIZE ADD AND DUP3 ADD PUSH1 0x40 MSTORE RETURNDATASIZE DUP3 MSTORE RETURNDATASIZE PUSH1 0x0 PUSH1 0x20 DUP5 ADD RETURNDATACOPY PUSH2 0x33D JUMP JUMPDEST PUSH1 0x60 SWAP2 POP JUMPDEST POP POP SWAP1 POP DUP1 PUSH2 0x374 JUMPI PUSH1 0x1 PUSH1 0x1 PUSH1 0xA0 SHL SUB DUP5 AND PUSH1 0x0 SWAP1 DUP2 MSTORE PUSH1 0x20 DUP2 SWAP1 MSTORE PUSH1 0x40 DUP2 KECCAK256 DUP1 SLOAD DUP8 SWAP3 SWAP1 PUSH2 0x36E SWAP1 DUP5 SWAP1 PUSH2 0x20C8 JUMP JUMPDEST SWAP1 SWAP2 SSTORE POP POP JUMPDEST SWAP2 POP POP JUMPDEST SWAP3 SWAP2 POP POP JUMP JUMPDEST PUSH1 0x1 DUP2 DUP2 SLOAD DUP2 LT PUSH2 0x391 JUMPI PUSH2 0x391 PUSH2 0x20DB JUMP JUMPDEST PUSH1 0x0 SWAP2 DUP3 MSTORE PUSH1 0x20 SWAP1 SWAP2 KECCAK256 PUSH1 0xD PUSH1 0xE SWAP1 SWAP3 MUL ADD ADD SLOAD PUSH1 0xFF AND ISZERO PUSH2 0x3FF JUMPI PUSH1 0x40 MLOAD PUSH3 0x461BCD PUSH1 0xE5 SHL DUP2 MSTORE PUSH1 0x20 PUSH1 0x4 DUP3 ADD MSTORE PUSH1 0x21 PUSH1 0x24 DUP3 ADD MSTORE PUSH32 0x54686520726571756573742077617320616C72656164792063616E63656C6C65 PUSH1 0x44 DUP3 ADD MSTORE PUSH1 0x19 PUSH1 0xFA SHL PUSH1 0x64 DUP3 ADD MSTORE PUSH1 0x84 ADD PUSH2 0x2BE JUMP JUMPDEST PUSH1 0x1 DUP2 DUP2 SLOAD DUP2 LT PUSH2 0x412 JUMPI PUSH2 0x412 PUSH2 0x20DB JUMP JUMPDEST PUSH1 0x0 SWAP2 DUP3 MSTORE PUSH1 0x20 SWAP1 SWAP2 KECCAK256 PUSH1 0xE SWAP1 SWAP2 MUL ADD PUSH1 0x6 ADD SLOAD PUSH1 0x1 PUSH1 0x1 PUSH1 0xA0 SHL SUB AND CALLER EQ PUSH2 0x498 JUMPI PUSH1 0x40 MLOAD PUSH3 0x461BCD PUSH1 0xE5 SHL DUP2 MSTORE PUSH1 0x20 PUSH1 0x4 DUP3 ADD MSTORE PUSH1 0x32 PUSH1 0x24 DUP3 ADD MSTORE PUSH32 0x596F752063616E742063616E63656C2061207265717565737420746861742077 PUSH1 0x44 DUP3 ADD MSTORE PUSH18 0x6173206E6F74206D61646520627920796F75 PUSH1 0x70 SHL PUSH1 0x64 DUP3 ADD MSTORE PUSH1 0x84 ADD PUSH2 0x2BE JUMP JUMPDEST PUSH1 0x0 PUSH1 0x1 PUSH1 0x1 PUSH1 0xA0 SHL SUB AND PUSH1 0x1 DUP3 DUP2 SLOAD DUP2 LT PUSH2 0x4B6 JUMPI PUSH2 0x4B6 PUSH2 0x20DB JUMP JUMPDEST PUSH1 0x0 SWAP2 DUP3 MSTORE PUSH1 0x20 SWAP1 SWAP2 KECCAK256 PUSH1 0x7 PUSH1 0xE SWAP1 SWAP3 MUL ADD ADD SLOAD PUSH1 0x1 PUSH1 0x1 PUSH1 0xA0 SHL SUB AND EQ PUSH2 0x52C JUMPI PUSH1 0x40 MLOAD PUSH3 0x461BCD PUSH1 0xE5 SHL DUP2 MSTORE PUSH1 0x20 PUSH1 0x4 DUP3 ADD MSTORE PUSH1 0x23 PUSH1 0x24 DUP3 ADD MSTORE PUSH32 0x596F752063616E742063616E63656C20616E2061636365707465642072657175 PUSH1 0x44 DUP3 ADD MSTORE PUSH3 0x195CDD PUSH1 0xEA SHL PUSH1 0x64 DUP3 ADD MSTORE PUSH1 0x84 ADD PUSH2 0x2BE JUMP JUMPDEST PUSH1 0x1 DUP1 DUP3 DUP2 SLOAD DUP2 LT PUSH2 0x540 JUMPI PUSH2 0x540 PUSH2 0x20DB JUMP JUMPDEST PUSH1 0x0 SWAP2 DUP3 MSTORE PUSH1 0x20 DUP3 KECCAK256 PUSH1 0xE SWAP2 SWAP1 SWAP2 MUL ADD PUSH1 0xD ADD DUP1 SLOAD PUSH1 0xFF NOT AND SWAP3 ISZERO ISZERO SWAP3 SWAP1 SWAP3 OR SWAP1 SWAP2 SSTORE PUSH1 0x1 DUP1 SLOAD DUP4 SWAP1 DUP2 LT PUSH2 0x577 JUMPI PUSH2 0x577 PUSH2 0x20DB JUMP JUMPDEST PUSH1 0x0 SWAP2 DUP3 MSTORE PUSH1 0x20 DUP3 KECCAK256 PUSH1 0x6 PUSH1 0xE SWAP1 SWAP3 MUL ADD ADD SLOAD PUSH1 0x1 DUP1 SLOAD PUSH1 0x1 PUSH1 0x1 PUSH1 0xA0 SHL SUB SWAP1 SWAP3 AND SWAP4 POP PUSH2 0x5C7 SWAP2 DUP6 SWAP1 DUP2 LT PUSH2 0x5AF JUMPI PUSH2 0x5AF PUSH2 0x20DB JUMP JUMPDEST SWAP1 PUSH1 0x0 MSTORE PUSH1 0x20 PUSH1 0x0 KECCAK256 SWAP1 PUSH1 0xE MUL ADD PUSH1 0x2 ADD SLOAD DUP4 PUSH2 0x1B89 JUMP JUMPDEST PUSH1 0x40 DUP1 MLOAD DUP6 DUP2 MSTORE DUP3 ISZERO ISZERO PUSH1 0x20 DUP3 ADD MSTORE SWAP2 SWAP3 POP PUSH32 0x84CDFA87C52A6C23A244B289457DE2D062D5DA21BEA2AEABF5227DA0E1867688 SWAP2 ADD JUMPDEST PUSH1 0x40 MLOAD DUP1 SWAP2 SUB SWAP1 LOG1 POP POP POP JUMP JUMPDEST PUSH1 0x0 PUSH1 0x1 PUSH1 0x1 PUSH1 0xA0 SHL SUB AND PUSH1 0x1 DUP5 DUP2 SLOAD DUP2 LT PUSH2 0x628 JUMPI PUSH2 0x628 PUSH2 0x20DB JUMP JUMPDEST PUSH1 0x0 SWAP2 DUP3 MSTORE PUSH1 0x20 SWAP1 SWAP2 KECCAK256 PUSH1 0x7 PUSH1 0xE SWAP1 SWAP3 MUL ADD ADD SLOAD PUSH1 0x1 PUSH1 0x1 PUSH1 0xA0 SHL SUB AND SUB PUSH2 0x69E JUMPI PUSH1 0x40 MLOAD PUSH3 0x461BCD PUSH1 0xE5 SHL DUP2 MSTORE PUSH1 0x20 PUSH1 0x4 DUP3 ADD MSTORE PUSH1 0x24 DUP1 DUP3 ADD MSTORE PUSH32 0x596F75206E65656420746F206163636570742074686520726571756573742066 PUSH1 0x44 DUP3 ADD MSTORE PUSH4 0x1A5C9CDD PUSH1 0xE2 SHL PUSH1 0x64 DUP3 ADD MSTORE PUSH1 0x84 ADD PUSH2 0x2BE JUMP JUMPDEST PUSH1 0x0 PUSH1 0x1 PUSH1 0x1 PUSH1 0xA0 SHL SUB AND PUSH1 0x1 DUP5 DUP2 SLOAD DUP2 LT PUSH2 0x6BC JUMPI PUSH2 0x6BC PUSH2 0x20DB JUMP JUMPDEST PUSH1 0x0 SWAP2 DUP3 MSTORE PUSH1 0x20 SWAP1 SWAP2 KECCAK256 PUSH1 0x9 PUSH1 0xE SWAP1 SWAP3 MUL ADD ADD SLOAD PUSH1 0x1 PUSH1 0x1 PUSH1 0xA0 SHL SUB AND EQ PUSH2 0x73D JUMPI PUSH1 0x40 MLOAD PUSH3 0x461BCD PUSH1 0xE5 SHL DUP2 MSTORE PUSH1 0x20 PUSH1 0x4 DUP3 ADD MSTORE PUSH1 0x2E PUSH1 0x24 DUP3 ADD MSTORE PUSH32 0x546865726520697320616C72656164792061207375626D697373696F6E20666F PUSH1 0x44 DUP3 ADD MSTORE PUSH14 0x1C881D1A1A5CC81C995C5D595CDD PUSH1 0x92 SHL PUSH1 0x64 DUP3 ADD MSTORE PUSH1 0x84 ADD PUSH2 0x2BE JUMP JUMPDEST CALLER PUSH1 0x1 PUSH1 0x1 PUSH1 0xA0 SHL SUB AND PUSH1 0x1 DUP5 DUP2 SLOAD DUP2 LT PUSH2 0x75A JUMPI PUSH2 0x75A PUSH2 0x20DB JUMP JUMPDEST PUSH1 0x0 SWAP2 DUP3 MSTORE PUSH1 0x20 SWAP1 SWAP2 KECCAK256 PUSH1 0x7 PUSH1 0xE SWAP1 SWAP3 MUL ADD ADD SLOAD PUSH1 0x1 PUSH1 0x1 PUSH1 0xA0 SHL SUB AND EQ PUSH2 0x7D2 JUMPI PUSH1 0x40 MLOAD PUSH3 0x461BCD PUSH1 0xE5 SHL DUP2 MSTORE PUSH1 0x20 PUSH1 0x4 DUP3 ADD MSTORE PUSH1 0x25 PUSH1 0x24 DUP3 ADD MSTORE PUSH32 0x536F6D656F6E6520656C73652068617320616363657074656420746865205265 PUSH1 0x44 DUP3 ADD MSTORE PUSH5 0x1C5D595CDD PUSH1 0xDA SHL PUSH1 0x64 DUP3 ADD MSTORE PUSH1 0x84 ADD PUSH2 0x2BE JUMP JUMPDEST PUSH1 0x0 PUSH1 0x40 MLOAD DUP1 PUSH1 0x80 ADD PUSH1 0x40 MSTORE DUP1 CALLER PUSH1 0x1 PUSH1 0x1 PUSH1 0xA0 SHL SUB AND DUP2 MSTORE PUSH1 0x20 ADD TIMESTAMP DUP2 MSTORE PUSH1 0x20 ADD DUP5 DUP5 DUP1 DUP1 PUSH1 0x1F ADD PUSH1 0x20 DUP1 SWAP2 DIV MUL PUSH1 0x20 ADD PUSH1 0x40 MLOAD SWAP1 DUP2 ADD PUSH1 0x40 MSTORE DUP1 SWAP4 SWAP3 SWAP2 SWAP1 DUP2 DUP2 MSTORE PUSH1 0x20 ADD DUP4 DUP4 DUP1 DUP3 DUP5 CALLDATACOPY PUSH1 0x0 SWAP3 ADD DUP3 SWAP1 MSTORE POP SWAP4 DUP6 MSTORE POP POP POP PUSH1 0x20 SWAP1 SWAP2 ADD MSTORE PUSH1 0x1 DUP1 SLOAD SWAP2 SWAP3 POP DUP3 SWAP2 DUP7 SWAP1 DUP2 LT PUSH2 0x84B JUMPI PUSH2 0x84B PUSH2 0x20DB JUMP JUMPDEST SWAP1 PUSH1 0x0 MSTORE PUSH1 0x20 PUSH1 0x0 KECCAK256 SWAP1 PUSH1 0xE MUL ADD PUSH1 0x9 ADD PUSH1 0x0 DUP3 ADD MLOAD DUP2 PUSH1 0x0 ADD PUSH1 0x0 PUSH2 0x100 EXP DUP2 SLOAD DUP2 PUSH1 0x1 PUSH1 0x1 PUSH1 0xA0 SHL SUB MUL NOT AND SWAP1 DUP4 PUSH1 0x1 PUSH1 0x1 PUSH1 0xA0 SHL SUB AND MUL OR SWAP1 SSTORE POP PUSH1 0x20 DUP3 ADD MLOAD DUP2 PUSH1 0x1 ADD SSTORE PUSH1 0x40 DUP3 ADD MLOAD DUP2 PUSH1 0x2 ADD SWAP1 DUP2 PUSH2 0x8A8 SWAP2 SWAP1 PUSH2 0x2190 JUMP JUMPDEST POP PUSH1 0x60 SWAP2 SWAP1 SWAP2 ADD MLOAD PUSH1 0x3 SWAP1 SWAP2 ADD DUP1 SLOAD PUSH1 0xFF NOT AND SWAP2 ISZERO ISZERO SWAP2 SWAP1 SWAP2 OR SWAP1 SSTORE PUSH1 0x40 MLOAD PUSH32 0x7AAE710CE9F6D670ECB8AD67272894BD8E8BD7878C1F1113C2646F4E465F390F SWAP1 PUSH2 0x8FA SWAP1 DUP7 SWAP1 DUP7 SWAP1 DUP7 SWAP1 CALLER SWAP1 PUSH2 0x2250 JUMP JUMPDEST PUSH1 0x40 MLOAD DUP1 SWAP2 SUB SWAP1 LOG1 POP POP POP POP JUMP JUMPDEST PUSH1 0x1 DUP2 DUP2 SLOAD DUP2 LT PUSH2 0x91B JUMPI PUSH2 0x91B PUSH2 0x20DB JUMP JUMPDEST PUSH1 0x0 SWAP2 DUP3 MSTORE PUSH1 0x20 SWAP1 SWAP2 KECCAK256 PUSH1 0xD PUSH1 0xE SWAP1 SWAP3 MUL ADD ADD SLOAD PUSH1 0xFF AND ISZERO PUSH2 0x97F JUMPI PUSH1 0x40 MLOAD PUSH3 0x461BCD PUSH1 0xE5 SHL DUP2 MSTORE PUSH1 0x20 PUSH1 0x4 DUP3 ADD MSTORE PUSH1 0x19 PUSH1 0x24 DUP3 ADD MSTORE PUSH32 0x5468652072657175657374207761732063616E63656C6C656400000000000000 PUSH1 0x44 DUP3 ADD MSTORE PUSH1 0x64 ADD PUSH2 0x2BE JUMP JUMPDEST PUSH1 0x0 PUSH1 0x1 PUSH1 0x1 PUSH1 0xA0 SHL SUB AND PUSH1 0x1 DUP3 DUP2 SLOAD DUP2 LT PUSH2 0x99D JUMPI PUSH2 0x99D PUSH2 0x20DB JUMP JUMPDEST PUSH1 0x0 SWAP2 DUP3 MSTORE PUSH1 0x20 SWAP1 SWAP2 KECCAK256 PUSH1 0x7 PUSH1 0xE SWAP1 SWAP3 MUL ADD ADD SLOAD PUSH1 0x1 PUSH1 0x1 PUSH1 0xA0 SHL SUB AND EQ PUSH2 0xA13 JUMPI PUSH1 0x40 MLOAD PUSH3 0x461BCD PUSH1 0xE5 SHL DUP2 MSTORE PUSH1 0x20 PUSH1 0x4 DUP3 ADD MSTORE PUSH1 0x24 DUP1 DUP3 ADD MSTORE PUSH32 0x536F6D656F6E6520616C72656164792061636365707465642074686520726571 PUSH1 0x44 DUP3 ADD MSTORE PUSH4 0x1D595CDD PUSH1 0xE2 SHL PUSH1 0x64 DUP3 ADD MSTORE PUSH1 0x84 ADD PUSH2 0x2BE JUMP JUMPDEST PUSH1 0x1 DUP2 DUP2 SLOAD DUP2 LT PUSH2 0xA26 JUMPI PUSH2 0xA26 PUSH2 0x20DB JUMP JUMPDEST SWAP1 PUSH1 0x0 MSTORE PUSH1 0x20 PUSH1 0x0 KECCAK256 SWAP1 PUSH1 0xE MUL ADD PUSH1 0x4 ADD SLOAD CALLVALUE EQ PUSH2 0xA95 JUMPI PUSH1 0x40 MLOAD PUSH3 0x461BCD PUSH1 0xE5 SHL DUP2 MSTORE PUSH1 0x20 PUSH1 0x4 DUP3 ADD MSTORE PUSH1 0x26 PUSH1 0x24 DUP3 ADD MSTORE PUSH32 0x496E636F727265637420616D6F756E74206F6620696E737572616E6365207072 PUSH1 0x44 DUP3 ADD MSTORE PUSH6 0x1BDD9A591959 PUSH1 0xD2 SHL PUSH1 0x64 DUP3 ADD MSTORE PUSH1 0x84 ADD PUSH2 0x2BE JUMP JUMPDEST PUSH1 0x40 DUP1 MLOAD DUP1 DUP3 ADD SWAP1 SWAP2 MSTORE CALLER DUP2 MSTORE TIMESTAMP PUSH1 0x20 DUP3 ADD MSTORE PUSH1 0x1 DUP1 SLOAD DUP3 SWAP2 SWAP1 DUP5 SWAP1 DUP2 LT PUSH2 0xABF JUMPI PUSH2 0xABF PUSH2 0x20DB JUMP JUMPDEST PUSH1 0x0 SWAP2 DUP3 MSTORE PUSH1 0x20 SWAP2 DUP3 SWAP1 KECCAK256 DUP4 MLOAD PUSH1 0xE SWAP3 SWAP1 SWAP3 MUL ADD PUSH1 0x7 DUP2 ADD DUP1 SLOAD PUSH1 0x1 PUSH1 0x1 PUSH1 0xA0 SHL SUB NOT AND PUSH1 0x1 PUSH1 0x1 PUSH1 0xA0 SHL SUB SWAP1 SWAP4 AND SWAP3 SWAP1 SWAP3 OR SWAP1 SWAP2 SSTORE SWAP2 DUP2 ADD MLOAD PUSH1 0x8 SWAP1 SWAP3 ADD SWAP2 SWAP1 SWAP2 SSTORE PUSH1 0x40 DUP1 MLOAD DUP5 DUP2 MSTORE CALLER SWAP3 DUP2 ADD SWAP3 SWAP1 SWAP3 MSTORE PUSH32 0x8F298FD72DBD217FB0A6D75EBB7814F41823B563772413DB23636B1600A0ACA SWAP2 ADD PUSH1 0x40 MLOAD DUP1 SWAP2 SUB SWAP1 LOG1 POP POP JUMP JUMPDEST PUSH1 0x0 PUSH1 0x1 PUSH1 0x1 PUSH1 0xA0 SHL SUB AND PUSH1 0x1 DUP3 DUP2 SLOAD DUP2 LT PUSH2 0xB5E JUMPI PUSH2 0xB5E PUSH2 0x20DB JUMP JUMPDEST PUSH1 0x0 SWAP2 DUP3 MSTORE PUSH1 0x20 SWAP1 SWAP2 KECCAK256 PUSH1 0x7 PUSH1 0xE SWAP1 SWAP3 MUL ADD ADD SLOAD PUSH1 0x1 PUSH1 0x1 PUSH1 0xA0 SHL SUB AND EQ PUSH2 0xBD3 JUMPI PUSH1 0x40 MLOAD PUSH3 0x461BCD PUSH1 0xE5 SHL DUP2 MSTORE PUSH1 0x20 PUSH1 0x4 DUP3 ADD MSTORE PUSH1 0x22 PUSH1 0x24 DUP3 ADD MSTORE PUSH32 0x596F752063616E74207075626C6963697A6520612074616B656E207265717565 PUSH1 0x44 DUP3 ADD MSTORE PUSH2 0x1CDD PUSH1 0xF2 SHL PUSH1 0x64 DUP3 ADD MSTORE PUSH1 0x84 ADD PUSH2 0x2BE JUMP JUMPDEST PUSH32 0xD070E27DE467A3A003DAE95FCDA57CE3B642283B9965C061FA24ACF1D996EEC7 DUP2 PUSH1 0x1 DUP4 DUP2 SLOAD DUP2 LT PUSH2 0xC08 JUMPI PUSH2 0xC08 PUSH2 0x20DB JUMP JUMPDEST SWAP1 PUSH1 0x0 MSTORE PUSH1 0x20 PUSH1 0x0 KECCAK256 SWAP1 PUSH1 0xE MUL ADD PUSH1 0x2 ADD SLOAD PUSH1 0x1 DUP5 DUP2 SLOAD DUP2 LT PUSH2 0xC2D JUMPI PUSH2 0xC2D PUSH2 0x20DB JUMP JUMPDEST SWAP1 PUSH1 0x0 MSTORE PUSH1 0x20 PUSH1 0x0 KECCAK256 SWAP1 PUSH1 0xE MUL ADD PUSH1 0x4 ADD SLOAD PUSH1 0x1 DUP6 DUP2 SLOAD DUP2 LT PUSH2 0xC52 JUMPI PUSH2 0xC52 PUSH2 0x20DB JUMP JUMPDEST PUSH1 0x0 SWAP2 DUP3 MSTORE PUSH1 0x20 SWAP2 DUP3 SWAP1 KECCAK256 PUSH1 0x5 PUSH1 0xE SWAP1 SWAP3 MUL ADD ADD SLOAD PUSH1 0x40 DUP1 MLOAD SWAP6 DUP7 MSTORE SWAP2 DUP6 ADD SWAP4 SWAP1 SWAP4 MSTORE DUP4 ADD MSTORE PUSH1 0x60 DUP3 ADD MSTORE PUSH1 0x80 ADD PUSH1 0x40 MLOAD DUP1 SWAP2 SUB SWAP1 LOG1 POP JUMP JUMPDEST PUSH1 0x0 PUSH1 0x1 PUSH1 0x1 PUSH1 0xA0 SHL SUB AND PUSH1 0x1 DUP3 DUP2 SLOAD DUP2 LT PUSH2 0xCA9 JUMPI PUSH2 0xCA9 PUSH2 0x20DB JUMP JUMPDEST PUSH1 0x0 SWAP2 DUP3 MSTORE PUSH1 0x20 SWAP1 SWAP2 KECCAK256 PUSH1 0x7 PUSH1 0xE SWAP1 SWAP3 MUL ADD ADD SLOAD PUSH1 0x1 PUSH1 0x1 PUSH1 0xA0 SHL SUB AND SUB PUSH2 0xD39 JUMPI PUSH1 0x40 MLOAD PUSH3 0x461BCD PUSH1 0xE5 SHL DUP2 MSTORE PUSH1 0x20 PUSH1 0x4 DUP3 ADD MSTORE PUSH1 0x3A PUSH1 0x24 DUP3 ADD MSTORE PUSH32 0x5468657265206973206E6F20616363657074616E636520696E20706C61636520 PUSH1 0x44 DUP3 ADD MSTORE PUSH32 0x666F72207468652070726F766964656420726571756573744944000000000000 PUSH1 0x64 DUP3 ADD MSTORE PUSH1 0x84 ADD PUSH2 0x2BE JUMP JUMPDEST PUSH1 0x0 PUSH1 0x1 PUSH1 0x1 PUSH1 0xA0 SHL SUB AND PUSH1 0x1 DUP3 DUP2 SLOAD DUP2 LT PUSH2 0xD57 JUMPI PUSH2 0xD57 PUSH2 0x20DB JUMP JUMPDEST PUSH1 0x0 SWAP2 DUP3 MSTORE PUSH1 0x20 SWAP1 SWAP2 KECCAK256 PUSH1 0x9 PUSH1 0xE SWAP1 SWAP3 MUL ADD ADD SLOAD PUSH1 0x1 PUSH1 0x1 PUSH1 0xA0 SHL SUB AND EQ PUSH2 0xDE7 JUMPI PUSH1 0x40 MLOAD PUSH3 0x461BCD PUSH1 0xE5 SHL DUP2 MSTORE PUSH1 0x20 PUSH1 0x4 DUP3 ADD MSTORE PUSH1 0x38 PUSH1 0x24 DUP3 ADD MSTORE PUSH32 0x54686520726573756C747320666F722074686973207265717565737420686176 PUSH1 0x44 DUP3 ADD MSTORE PUSH32 0x6520616C7265616479206265656D207375626D69747465640000000000000000 PUSH1 0x64 DUP3 ADD MSTORE PUSH1 0x84 ADD PUSH2 0x2BE JUMP JUMPDEST CALLER PUSH1 0x1 PUSH1 0x1 PUSH1 0xA0 SHL SUB AND PUSH1 0x1 DUP3 DUP2 SLOAD DUP2 LT PUSH2 0xE04 JUMPI PUSH2 0xE04 PUSH2 0x20DB JUMP JUMPDEST PUSH1 0x0 SWAP2 DUP3 MSTORE PUSH1 0x20 SWAP1 SWAP2 KECCAK256 PUSH1 0x7 PUSH1 0xE SWAP1 SWAP3 MUL ADD ADD SLOAD PUSH1 0x1 PUSH1 0x1 PUSH1 0xA0 SHL SUB AND EQ PUSH2 0xE94 JUMPI PUSH1 0x40 MLOAD PUSH3 0x461BCD PUSH1 0xE5 SHL DUP2 MSTORE PUSH1 0x20 PUSH1 0x4 DUP3 ADD MSTORE PUSH1 0x39 PUSH1 0x24 DUP3 ADD MSTORE PUSH32 0x596F752063616E742063616E63656C20616E20616363657074616E6365207468 PUSH1 0x44 DUP3 ADD MSTORE PUSH32 0x617420646F6573206E6F742062656C6F6E6720746F20796F7500000000000000 PUSH1 0x64 DUP3 ADD MSTORE PUSH1 0x84 ADD PUSH2 0x2BE JUMP JUMPDEST PUSH1 0x0 PUSH1 0x1 DUP3 DUP2 SLOAD DUP2 LT PUSH2 0xEA9 JUMPI PUSH2 0xEA9 PUSH2 0x20DB JUMP JUMPDEST PUSH1 0x0 SWAP2 DUP3 MSTORE PUSH1 0x20 DUP3 KECCAK256 PUSH1 0x7 PUSH1 0xE SWAP1 SWAP3 MUL ADD ADD SLOAD PUSH1 0x1 DUP1 SLOAD PUSH1 0x1 PUSH1 0x1 PUSH1 0xA0 SHL SUB SWAP1 SWAP3 AND SWAP4 POP SWAP1 DUP5 SWAP1 DUP2 LT PUSH2 0xEDE JUMPI PUSH2 0xEDE PUSH2 0x20DB JUMP JUMPDEST SWAP1 PUSH1 0x0 MSTORE PUSH1 0x20 PUSH1 0x0 KECCAK256 SWAP1 PUSH1 0xE MUL ADD PUSH1 0x7 ADD PUSH1 0x0 ADD PUSH1 0x0 PUSH2 0x100 EXP DUP2 SLOAD DUP2 PUSH1 0x1 PUSH1 0x1 PUSH1 0xA0 SHL SUB MUL NOT AND SWAP1 DUP4 PUSH1 0x1 PUSH1 0x1 PUSH1 0xA0 SHL SUB AND MUL OR SWAP1 SSTORE POP PUSH1 0x0 PUSH2 0xF46 PUSH1 0x1 DUP5 DUP2 SLOAD DUP2 LT PUSH2 0xF2E JUMPI PUSH2 0xF2E PUSH2 0x20DB JUMP JUMPDEST SWAP1 PUSH1 0x0 MSTORE PUSH1 0x20 PUSH1 0x0 KECCAK256 SWAP1 PUSH1 0xE MUL ADD PUSH1 0x4 ADD SLOAD DUP4 PUSH2 0x1B89 JUMP JUMPDEST PUSH1 0x40 DUP1 MLOAD DUP6 DUP2 MSTORE PUSH1 0x1 PUSH1 0x1 PUSH1 0xA0 SHL SUB DUP6 AND PUSH1 0x20 DUP3 ADD MSTORE DUP3 ISZERO ISZERO SWAP2 DUP2 ADD SWAP2 SWAP1 SWAP2 MSTORE SWAP1 SWAP2 POP PUSH32 0x233AEBE1D7C90B97E1FE6CE1E226CCA4FEEE120BC312447D954C577A9E2255E4 SWAP1 PUSH1 0x60 ADD PUSH2 0x5FD JUMP JUMPDEST PUSH1 0x1 DUP2 DUP2 SLOAD DUP2 LT PUSH2 0xFA3 JUMPI PUSH1 0x0 DUP1 REVERT JUMPDEST SWAP1 PUSH1 0x0 MSTORE PUSH1 0x20 PUSH1 0x0 KECCAK256 SWAP1 PUSH1 0xE MUL ADD PUSH1 0x0 SWAP2 POP SWAP1 POP DUP1 PUSH1 0x0 ADD PUSH1 0x40 MLOAD DUP1 PUSH1 0x40 ADD PUSH1 0x40 MSTORE SWAP1 DUP2 PUSH1 0x0 DUP3 ADD SLOAD DUP2 MSTORE PUSH1 0x20 ADD PUSH1 0x1 DUP3 ADD DUP1 SLOAD PUSH2 0xFE0 SWAP1 PUSH2 0x2107 JUMP JUMPDEST DUP1 PUSH1 0x1F ADD PUSH1 0x20 DUP1 SWAP2 DIV MUL PUSH1 0x20 ADD PUSH1 0x40 MLOAD SWAP1 DUP2 ADD PUSH1 0x40 MSTORE DUP1 SWAP3 SWAP2 SWAP1 DUP2 DUP2 MSTORE PUSH1 0x20 ADD DUP3 DUP1 SLOAD PUSH2 0x100C SWAP1 PUSH2 0x2107 JUMP JUMPDEST DUP1 ISZERO PUSH2 0x1059 JUMPI DUP1 PUSH1 0x1F LT PUSH2 0x102E JUMPI PUSH2 0x100 DUP1 DUP4 SLOAD DIV MUL DUP4 MSTORE SWAP2 PUSH1 0x20 ADD SWAP2 PUSH2 0x1059 JUMP JUMPDEST DUP3 ADD SWAP2 SWAP1 PUSH1 0x0 MSTORE PUSH1 0x20 PUSH1 0x0 KECCAK256 SWAP1 JUMPDEST DUP2 SLOAD DUP2 MSTORE SWAP1 PUSH1 0x1 ADD SWAP1 PUSH1 0x20 ADD DUP1 DUP4 GT PUSH2 0x103C JUMPI DUP3 SWAP1 SUB PUSH1 0x1F AND DUP3 ADD SWAP2 JUMPDEST POP POP POP SWAP2 SWAP1 SWAP3 MSTORE POP POP POP PUSH1 0x2 DUP3 ADD SLOAD PUSH1 0x3 DUP4 ADD SLOAD PUSH1 0x4 DUP5 ADD SLOAD PUSH1 0x5 DUP6 ADD SLOAD PUSH1 0x6 DUP7 ADD SLOAD PUSH1 0x40 DUP1 MLOAD DUP1 DUP3 ADD DUP3 MSTORE PUSH1 0x7 DUP10 ADD SLOAD PUSH1 0x1 PUSH1 0x1 PUSH1 0xA0 SHL SUB SWAP1 DUP2 AND DUP3 MSTORE PUSH1 0x8 DUP11 ADD SLOAD PUSH1 0x20 DUP1 DUP5 ADD SWAP2 SWAP1 SWAP2 MSTORE DUP4 MLOAD PUSH1 0x80 DUP2 ADD DUP6 MSTORE PUSH1 0x9 DUP13 ADD DUP1 SLOAD DUP5 AND DUP3 MSTORE PUSH1 0xA DUP14 ADD SLOAD SWAP3 DUP3 ADD SWAP3 SWAP1 SWAP3 MSTORE PUSH1 0xB DUP13 ADD DUP1 SLOAD SWAP12 SWAP13 SWAP11 SWAP12 SWAP10 SWAP11 SWAP9 SWAP10 SWAP8 SWAP9 SWAP4 SWAP1 SWAP7 AND SWAP7 SWAP4 SWAP6 SWAP3 SWAP5 SWAP1 SWAP4 SWAP2 SWAP3 SWAP1 DUP5 ADD SWAP2 PUSH2 0x10ED SWAP1 PUSH2 0x2107 JUMP JUMPDEST DUP1 PUSH1 0x1F ADD PUSH1 0x20 DUP1 SWAP2 DIV MUL PUSH1 0x20 ADD PUSH1 0x40 MLOAD SWAP1 DUP2 ADD PUSH1 0x40 MSTORE DUP1 SWAP3 SWAP2 SWAP1 DUP2 DUP2 MSTORE PUSH1 0x20 ADD DUP3 DUP1 SLOAD PUSH2 0x1119 SWAP1 PUSH2 0x2107 JUMP JUMPDEST DUP1 ISZERO PUSH2 0x1166 JUMPI DUP1 PUSH1 0x1F LT PUSH2 0x113B JUMPI PUSH2 0x100 DUP1 DUP4 SLOAD DIV MUL DUP4 MSTORE SWAP2 PUSH1 0x20 ADD SWAP2 PUSH2 0x1166 JUMP JUMPDEST DUP3 ADD SWAP2 SWAP1 PUSH1 0x0 MSTORE PUSH1 0x20 PUSH1 0x0 KECCAK256 SWAP1 JUMPDEST DUP2 SLOAD DUP2 MSTORE SWAP1 PUSH1 0x1 ADD SWAP1 PUSH1 0x20 ADD DUP1 DUP4 GT PUSH2 0x1149 JUMPI DUP3 SWAP1 SUB PUSH1 0x1F AND DUP3 ADD SWAP2 JUMPDEST POP POP POP SWAP2 DUP4 MSTORE POP POP PUSH1 0x3 SWAP2 SWAP1 SWAP2 ADD SLOAD PUSH1 0xFF SWAP1 DUP2 AND ISZERO ISZERO PUSH1 0x20 SWAP1 SWAP3 ADD SWAP2 SWAP1 SWAP2 MSTORE PUSH1 0xD SWAP1 SWAP3 ADD SLOAD SWAP1 SWAP2 AND DUP10 JUMP JUMPDEST PUSH1 0x0 PUSH1 0x1 DUP3 DUP2 SLOAD DUP2 LT PUSH2 0x11A6 JUMPI PUSH2 0x11A6 PUSH2 0x20DB JUMP JUMPDEST PUSH1 0x0 SWAP2 DUP3 MSTORE PUSH1 0x20 SWAP1 SWAP2 KECCAK256 PUSH1 0xD PUSH1 0xE SWAP1 SWAP3 MUL ADD ADD SLOAD PUSH1 0xFF AND ISZERO DUP1 ISZERO PUSH2 0x378 JUMPI POP PUSH1 0x0 PUSH1 0x1 PUSH1 0x1 PUSH1 0xA0 SHL SUB AND PUSH1 0x1 DUP4 DUP2 SLOAD DUP2 LT PUSH2 0x11E3 JUMPI PUSH2 0x11E3 PUSH2 0x20DB JUMP JUMPDEST PUSH1 0x0 SWAP2 DUP3 MSTORE PUSH1 0x20 SWAP1 SWAP2 KECCAK256 PUSH1 0x7 PUSH1 0xE SWAP1 SWAP3 MUL ADD ADD SLOAD PUSH1 0x1 PUSH1 0x1 PUSH1 0xA0 SHL SUB AND EQ SWAP3 SWAP2 POP POP JUMP JUMPDEST PUSH1 0x0 DUP1 PUSH1 0x1 PUSH1 0x1 PUSH1 0xA0 SHL SUB AND PUSH1 0x1 DUP4 DUP2 SLOAD DUP2 LT PUSH2 0x1226 JUMPI PUSH2 0x1226 PUSH2 0x20DB JUMP JUMPDEST PUSH1 0x0 SWAP2 DUP3 MSTORE PUSH1 0x20 SWAP1 SWAP2 KECCAK256 PUSH1 0x9 PUSH1 0xE SWAP1 SWAP3 MUL ADD ADD SLOAD PUSH1 0x1 PUSH1 0x1 PUSH1 0xA0 SHL SUB AND SUB PUSH2 0x12AC JUMPI PUSH1 0x40 MLOAD PUSH3 0x461BCD PUSH1 0xE5 SHL DUP2 MSTORE PUSH1 0x20 PUSH1 0x4 DUP3 ADD MSTORE PUSH1 0x33 PUSH1 0x24 DUP3 ADD MSTORE PUSH32 0x546865726520617265206E6F207375626D697373696F6E7320666F7220746865 PUSH1 0x44 DUP3 ADD MSTORE PUSH19 0x818DA185B1B195B99D959081C995C5D595CDD PUSH1 0x6A SHL PUSH1 0x64 DUP3 ADD MSTORE PUSH1 0x84 ADD PUSH2 0x2BE JUMP JUMPDEST PUSH1 0x1 DUP3 DUP2 SLOAD DUP2 LT PUSH2 0x12BF JUMPI PUSH2 0x12BF PUSH2 0x20DB JUMP JUMPDEST PUSH1 0x0 SWAP2 DUP3 MSTORE PUSH1 0x20 SWAP1 SWAP2 KECCAK256 PUSH1 0xC PUSH1 0xE SWAP1 SWAP3 MUL ADD ADD SLOAD PUSH1 0xFF AND ISZERO PUSH2 0x133C JUMPI PUSH1 0x40 MLOAD PUSH3 0x461BCD PUSH1 0xE5 SHL DUP2 MSTORE PUSH1 0x20 PUSH1 0x4 DUP3 ADD MSTORE PUSH1 0x30 PUSH1 0x24 DUP3 ADD MSTORE PUSH32 0x546865206368616C6C656E676564207375626D697373696F6E2068617320616C PUSH1 0x44 DUP3 ADD MSTORE PUSH16 0x1C9958591E481CDBDB1A591A599A5959 PUSH1 0x82 SHL PUSH1 0x64 DUP3 ADD MSTORE PUSH1 0x84 ADD PUSH2 0x2BE JUMP JUMPDEST PUSH1 0x0 PUSH1 0x1 DUP4 DUP2 SLOAD DUP2 LT PUSH2 0x1351 JUMPI PUSH2 0x1351 PUSH2 0x20DB JUMP JUMPDEST SWAP1 PUSH1 0x0 MSTORE PUSH1 0x20 PUSH1 0x0 KECCAK256 SWAP1 PUSH1 0xE MUL ADD PUSH1 0x9 ADD PUSH1 0x2 ADD DUP1 SLOAD PUSH2 0x1370 SWAP1 PUSH2 0x2107 JUMP JUMPDEST DUP1 PUSH1 0x1F ADD PUSH1 0x20 DUP1 SWAP2 DIV MUL PUSH1 0x20 ADD PUSH1 0x40 MLOAD SWAP1 DUP2 ADD PUSH1 0x40 MSTORE DUP1 SWAP3 SWAP2 SWAP1 DUP2 DUP2 MSTORE PUSH1 0x20 ADD DUP3 DUP1 SLOAD PUSH2 0x139C SWAP1 PUSH2 0x2107 JUMP JUMPDEST DUP1 ISZERO PUSH2 0x13E9 JUMPI DUP1 PUSH1 0x1F LT PUSH2 0x13BE JUMPI PUSH2 0x100 DUP1 DUP4 SLOAD DIV MUL DUP4 MSTORE SWAP2 PUSH1 0x20 ADD SWAP2 PUSH2 0x13E9 JUMP JUMPDEST DUP3 ADD SWAP2 SWAP1 PUSH1 0x0 MSTORE PUSH1 0x20 PUSH1 0x0 KECCAK256 SWAP1 JUMPDEST DUP2 SLOAD DUP2 MSTORE SWAP1 PUSH1 0x1 ADD SWAP1 PUSH1 0x20 ADD DUP1 DUP4 GT PUSH2 0x13CC JUMPI DUP3 SWAP1 SUB PUSH1 0x1F AND DUP3 ADD SWAP2 JUMPDEST POP POP POP POP POP SWAP1 POP PUSH1 0x0 PUSH1 0x1 DUP5 DUP2 SLOAD DUP2 LT PUSH2 0x1405 JUMPI PUSH2 0x1405 PUSH2 0x20DB JUMP JUMPDEST SWAP1 PUSH1 0x0 MSTORE PUSH1 0x20 PUSH1 0x0 KECCAK256 SWAP1 PUSH1 0xE MUL ADD PUSH1 0x0 ADD PUSH1 0x40 MLOAD DUP1 PUSH1 0x40 ADD PUSH1 0x40 MSTORE SWAP1 DUP2 PUSH1 0x0 DUP3 ADD SLOAD DUP2 MSTORE PUSH1 0x20 ADD PUSH1 0x1 DUP3 ADD DUP1 SLOAD PUSH2 0x143B SWAP1 PUSH2 0x2107 JUMP JUMPDEST DUP1 PUSH1 0x1F ADD PUSH1 0x20 DUP1 SWAP2 DIV MUL PUSH1 0x20 ADD PUSH1 0x40 MLOAD SWAP1 DUP2 ADD PUSH1 0x40 MSTORE DUP1 SWAP3 SWAP2 SWAP1 DUP2 DUP2 MSTORE PUSH1 0x20 ADD DUP3 DUP1 SLOAD PUSH2 0x1467 SWAP1 PUSH2 0x2107 JUMP JUMPDEST DUP1 ISZERO PUSH2 0x14B4 JUMPI DUP1 PUSH1 0x1F LT PUSH2 0x1489 JUMPI PUSH2 0x100 DUP1 DUP4 SLOAD DIV MUL DUP4 MSTORE SWAP2 PUSH1 0x20 ADD SWAP2 PUSH2 0x14B4 JUMP JUMPDEST DUP3 ADD SWAP2 SWAP1 PUSH1 0x0 MSTORE PUSH1 0x20 PUSH1 0x0 KECCAK256 SWAP1 JUMPDEST DUP2 SLOAD DUP2 MSTORE SWAP1 PUSH1 0x1 ADD SWAP1 PUSH1 0x20 ADD DUP1 DUP4 GT PUSH2 0x1497 JUMPI DUP3 SWAP1 SUB PUSH1 0x1F AND DUP3 ADD SWAP2 JUMPDEST POP POP POP POP POP DUP2 MSTORE POP POP SWAP1 POP PUSH1 0x0 PUSH1 0x1 DUP6 DUP2 SLOAD DUP2 LT PUSH2 0x14D4 JUMPI PUSH2 0x14D4 PUSH2 0x20DB JUMP JUMPDEST PUSH1 0x0 SWAP2 DUP3 MSTORE PUSH1 0x20 SWAP1 SWAP2 KECCAK256 PUSH1 0x6 PUSH1 0xE SWAP1 SWAP3 MUL ADD ADD SLOAD PUSH1 0x40 MLOAD PUSH4 0xA9B1DAC3 PUSH1 0xE0 SHL DUP2 MSTORE PUSH1 0x1 PUSH1 0x1 PUSH1 0xA0 SHL SUB SWAP1 SWAP2 AND SWAP1 PUSH4 0xA9B1DAC3 SWAP1 PUSH2 0x1515 SWAP1 DUP6 SWAP1 PUSH1 0x4 ADD PUSH2 0x2299 JUMP JUMPDEST PUSH1 0x0 PUSH1 0x40 MLOAD DUP1 DUP4 SUB DUP2 DUP7 GAS STATICCALL ISZERO DUP1 ISZERO PUSH2 0x1532 JUMPI RETURNDATASIZE PUSH1 0x0 DUP1 RETURNDATACOPY RETURNDATASIZE PUSH1 0x0 REVERT JUMPDEST POP POP POP POP PUSH1 0x40 MLOAD RETURNDATASIZE PUSH1 0x0 DUP3 RETURNDATACOPY PUSH1 0x1F RETURNDATASIZE SWAP1 DUP2 ADD PUSH1 0x1F NOT AND DUP3 ADD PUSH1 0x40 MSTORE PUSH2 0x155A SWAP2 SWAP1 DUP2 ADD SWAP1 PUSH2 0x2305 JUMP JUMPDEST SWAP1 POP PUSH32 0xA3DFD2216A2448C62E6F94B05A7686722A4DE162A822B40701563C5A19FE7EE DUP6 DUP3 PUSH1 0x40 MLOAD PUSH2 0x158D SWAP3 SWAP2 SWAP1 PUSH2 0x2381 JUMP JUMPDEST PUSH1 0x40 MLOAD DUP1 SWAP2 SUB SWAP1 LOG1 DUP1 DUP1 MLOAD SWAP1 PUSH1 0x20 ADD KECCAK256 DUP4 DUP1 MLOAD SWAP1 PUSH1 0x20 ADD KECCAK256 EQ PUSH2 0x16AF JUMPI PUSH1 0x40 DUP1 MLOAD PUSH1 0x80 DUP2 ADD DUP3 MSTORE CALLER DUP2 MSTORE TIMESTAMP PUSH1 0x20 DUP3 ADD MSTORE SWAP1 DUP2 ADD DUP3 SWAP1 MSTORE PUSH1 0x0 PUSH1 0x60 DUP3 ADD MSTORE PUSH1 0x1 DUP1 SLOAD DUP3 SWAP2 SWAP1 DUP9 SWAP1 DUP2 LT PUSH2 0x15E1 JUMPI PUSH2 0x15E1 PUSH2 0x20DB JUMP JUMPDEST SWAP1 PUSH1 0x0 MSTORE PUSH1 0x20 PUSH1 0x0 KECCAK256 SWAP1 PUSH1 0xE MUL ADD PUSH1 0x9 ADD PUSH1 0x0 DUP3 ADD MLOAD DUP2 PUSH1 0x0 ADD PUSH1 0x0 PUSH2 0x100 EXP DUP2 SLOAD DUP2 PUSH1 0x1 PUSH1 0x1 PUSH1 0xA0 SHL SUB MUL NOT AND SWAP1 DUP4 PUSH1 0x1 PUSH1 0x1 PUSH1 0xA0 SHL SUB AND MUL OR SWAP1 SSTORE POP PUSH1 0x20 DUP3 ADD MLOAD DUP2 PUSH1 0x1 ADD SSTORE PUSH1 0x40 DUP3 ADD MLOAD DUP2 PUSH1 0x2 ADD SWAP1 DUP2 PUSH2 0x163E SWAP2 SWAP1 PUSH2 0x2190 JUMP JUMPDEST POP PUSH1 0x60 SWAP2 SWAP1 SWAP2 ADD MLOAD PUSH1 0x3 SWAP1 SWAP2 ADD DUP1 SLOAD PUSH1 0xFF NOT AND SWAP2 ISZERO ISZERO SWAP2 SWAP1 SWAP2 OR SWAP1 SSTORE PUSH1 0x0 PUSH2 0x1665 DUP8 PUSH2 0x1BBA JUMP JUMPDEST PUSH1 0x40 DUP1 MLOAD DUP10 DUP2 MSTORE DUP3 ISZERO ISZERO PUSH1 0x20 DUP3 ADD MSTORE SWAP2 SWAP3 POP PUSH32 0xD93E094FE9F982D893B2CF334B8EFD17855720EFBCCC90B82B91A2529DBE4620 SWAP2 ADD PUSH1 0x40 MLOAD DUP1 SWAP2 SUB SWAP1 LOG1 POP PUSH1 0x1 SWAP7 SWAP6 POP POP POP POP POP POP JUMP JUMPDEST POP PUSH1 0x0 SWAP5 SWAP4 POP POP POP POP JUMP JUMPDEST PUSH1 0x0 CALLER PUSH1 0x1 PUSH1 0x1 PUSH1 0xA0 SHL SUB AND PUSH1 0x1 DUP4 DUP2 SLOAD DUP2 LT PUSH2 0x16D9 JUMPI PUSH2 0x16D9 PUSH2 0x20DB JUMP JUMPDEST PUSH1 0x0 SWAP2 DUP3 MSTORE PUSH1 0x20 SWAP1 SWAP2 KECCAK256 PUSH1 0x9 PUSH1 0xE SWAP1 SWAP3 MUL ADD ADD SLOAD PUSH1 0x1 PUSH1 0x1 PUSH1 0xA0 SHL SUB AND EQ PUSH2 0x174F JUMPI PUSH1 0x40 MLOAD PUSH3 0x461BCD PUSH1 0xE5 SHL DUP2 MSTORE PUSH1 0x20 PUSH1 0x4 DUP3 ADD MSTORE PUSH1 0x23 PUSH1 0x24 DUP3 ADD MSTORE PUSH32 0x54686973207061796D656E7420646F6573206E6F742062656C6F6E6720746F20 PUSH1 0x44 DUP3 ADD MSTORE PUSH3 0x796F75 PUSH1 0xE8 SHL PUSH1 0x64 DUP3 ADD MSTORE PUSH1 0x84 ADD PUSH2 0x2BE JUMP JUMPDEST PUSH1 0x1 DUP3 DUP2 SLOAD DUP2 LT PUSH2 0x1762 JUMPI PUSH2 0x1762 PUSH2 0x20DB JUMP JUMPDEST PUSH1 0x0 SWAP2 DUP3 MSTORE PUSH1 0x20 SWAP1 SWAP2 KECCAK256 PUSH1 0xC PUSH1 0xE SWAP1 SWAP3 MUL ADD ADD SLOAD PUSH1 0xFF AND ISZERO PUSH2 0x17DA JUMPI PUSH1 0x40 MLOAD PUSH3 0x461BCD PUSH1 0xE5 SHL DUP2 MSTORE PUSH1 0x20 PUSH1 0x4 DUP3 ADD MSTORE PUSH1 0x2B PUSH1 0x24 DUP3 ADD MSTORE PUSH32 0x5468652070726F766964656420726571756573742068617320616C7265616479 PUSH1 0x44 DUP3 ADD MSTORE PUSH11 0x81CDBDB1A591A599A5959 PUSH1 0xAA SHL PUSH1 0x64 DUP3 ADD MSTORE PUSH1 0x84 ADD PUSH2 0x2BE JUMP JUMPDEST TIMESTAMP PUSH1 0x1 DUP4 DUP2 SLOAD DUP2 LT PUSH2 0x17EE JUMPI PUSH2 0x17EE PUSH2 0x20DB JUMP JUMPDEST SWAP1 PUSH1 0x0 MSTORE PUSH1 0x20 PUSH1 0x0 KECCAK256 SWAP1 PUSH1 0xE MUL ADD PUSH1 0x5 ADD SLOAD PUSH1 0x1 DUP5 DUP2 SLOAD DUP2 LT PUSH2 0x1813 JUMPI PUSH2 0x1813 PUSH2 0x20DB JUMP JUMPDEST SWAP1 PUSH1 0x0 MSTORE PUSH1 0x20 PUSH1 0x0 KECCAK256 SWAP1 PUSH1 0xE MUL ADD PUSH1 0x9 ADD PUSH1 0x1 ADD SLOAD PUSH2 0x1832 SWAP2 SWAP1 PUSH2 0x20C8 JUMP JUMPDEST LT PUSH2 0x1889 JUMPI PUSH1 0x40 MLOAD PUSH3 0x461BCD PUSH1 0xE5 SHL DUP2 MSTORE PUSH1 0x20 PUSH1 0x4 DUP3 ADD MSTORE PUSH1 0x21 PUSH1 0x24 DUP3 ADD MSTORE PUSH32 0x54686520636C61696D2064656C6179206861736E277420706173736564207965 PUSH1 0x44 DUP3 ADD MSTORE PUSH1 0x1D PUSH1 0xFA SHL PUSH1 0x64 DUP3 ADD MSTORE PUSH1 0x84 ADD PUSH2 0x2BE JUMP JUMPDEST PUSH1 0x0 PUSH2 0x1894 DUP4 PUSH2 0x1BBA JUMP JUMPDEST SWAP4 SWAP3 POP POP POP JUMP JUMPDEST PUSH1 0x0 DUP1 PUSH2 0x18A8 DUP6 CALLVALUE PUSH2 0x20B5 JUMP JUMPDEST GT PUSH2 0x191B JUMPI PUSH1 0x40 MLOAD PUSH3 0x461BCD PUSH1 0xE5 SHL DUP2 MSTORE PUSH1 0x20 PUSH1 0x4 DUP3 ADD MSTORE PUSH1 0x3F PUSH1 0x24 DUP3 ADD MSTORE PUSH32 0x54686520706F73742070726F63657373696E67206761732063616E6E6F742074 PUSH1 0x44 DUP3 ADD MSTORE PUSH32 0x616B65757020616C6C206F662074686520737570706C69656420657468657200 PUSH1 0x64 DUP3 ADD MSTORE PUSH1 0x84 ADD PUSH2 0x2BE JUMP JUMPDEST PUSH1 0x40 DUP1 MLOAD DUP1 DUP3 ADD DUP3 MSTORE PUSH1 0x0 DUP1 DUP3 MSTORE PUSH1 0x20 DUP1 DUP4 ADD DUP3 SWAP1 MSTORE DUP4 MLOAD PUSH1 0x80 DUP2 ADD DUP6 MSTORE DUP3 DUP2 MSTORE DUP1 DUP3 ADD DUP4 SWAP1 MSTORE DUP5 MLOAD DUP1 DUP4 ADD DUP5 SWAP1 MSTORE DUP6 MLOAD DUP1 DUP3 SUB SWAP1 SWAP4 ADD DUP4 MSTORE DUP6 ADD DUP6 MSTORE DUP1 DUP6 ADD SWAP2 SWAP1 SWAP2 MSTORE PUSH1 0x60 DUP2 ADD DUP3 SWAP1 MSTORE DUP4 MLOAD PUSH2 0x120 DUP2 ADD SWAP1 SWAP5 MSTORE CALLER SWAP4 SWAP1 SWAP2 SWAP1 DUP1 PUSH2 0x197F DUP12 PUSH2 0x239A JUMP JUMPDEST DUP2 MSTORE CALLVALUE PUSH1 0x20 DUP1 DUP4 ADD SWAP2 SWAP1 SWAP2 MSTORE PUSH1 0x40 DUP3 ADD DUP12 SWAP1 MSTORE PUSH1 0x60 DUP3 ADD DUP11 SWAP1 MSTORE PUSH1 0x80 DUP3 ADD DUP10 SWAP1 MSTORE PUSH1 0x1 PUSH1 0x1 PUSH1 0xA0 SHL SUB DUP8 AND PUSH1 0xA0 DUP4 ADD MSTORE PUSH1 0xC0 DUP3 ADD DUP7 SWAP1 MSTORE PUSH1 0xE0 DUP3 ADD DUP6 SWAP1 MSTORE PUSH1 0x0 PUSH2 0x100 SWAP1 SWAP3 ADD DUP3 SWAP1 MSTORE PUSH1 0x1 DUP1 SLOAD DUP1 DUP3 ADD DUP3 SSTORE SWAP3 MSTORE DUP3 MLOAD DUP1 MLOAD PUSH1 0xE SWAP1 SWAP4 MUL PUSH32 0xB10E2D527612073B26EECDFD717E6A320CF44B4AFAC2B0732D9FCBE2B7FA0CF6 DUP2 ADD SWAP4 DUP5 SSTORE SWAP2 DUP2 ADD MLOAD SWAP4 SWAP5 POP DUP5 SWAP4 SWAP1 SWAP2 DUP4 SWAP2 PUSH32 0xB10E2D527612073B26EECDFD717E6A320CF44B4AFAC2B0732D9FCBE2B7FA0CF7 SWAP1 SWAP2 ADD SWAP1 PUSH2 0x1A3E SWAP1 DUP3 PUSH2 0x2190 JUMP JUMPDEST POP POP POP PUSH1 0x20 DUP3 DUP2 ADD MLOAD PUSH1 0x2 DUP4 ADD SSTORE PUSH1 0x40 DUP1 DUP5 ADD MLOAD PUSH1 0x3 DUP5 ADD SSTORE PUSH1 0x60 DUP5 ADD MLOAD PUSH1 0x4 DUP5 ADD SSTORE PUSH1 0x80 DUP5 ADD MLOAD PUSH1 0x5 DUP5 ADD SSTORE PUSH1 0xA0 DUP5 ADD MLOAD PUSH1 0x6 DUP5 ADD DUP1 SLOAD PUSH1 0x1 PUSH1 0x1 PUSH1 0xA0 SHL SUB SWAP3 DUP4 AND PUSH1 0x1 PUSH1 0x1 PUSH1 0xA0 SHL SUB NOT SWAP2 DUP3 AND OR SWAP1 SWAP2 SSTORE PUSH1 0xC0 DUP7 ADD MLOAD DUP1 MLOAD PUSH1 0x7 DUP8 ADD DUP1 SLOAD SWAP2 DUP6 AND SWAP2 DUP5 AND SWAP2 SWAP1 SWAP2 OR SWAP1 SSTORE DUP5 ADD MLOAD PUSH1 0x8 DUP7 ADD SSTORE PUSH1 0xE0 DUP7 ADD MLOAD DUP1 MLOAD PUSH1 0x9 DUP8 ADD DUP1 SLOAD SWAP2 SWAP1 SWAP5 AND SWAP3 AND SWAP2 SWAP1 SWAP2 OR DUP3 SSTORE SWAP3 DUP4 ADD MLOAD PUSH1 0xA DUP6 ADD SSTORE SWAP1 DUP3 ADD MLOAD PUSH1 0xB DUP5 ADD SWAP1 PUSH2 0x1AE7 SWAP1 DUP3 PUSH2 0x2190 JUMP JUMPDEST POP PUSH1 0x60 SWAP2 SWAP1 SWAP2 ADD MLOAD PUSH1 0x3 SWAP1 SWAP2 ADD DUP1 SLOAD SWAP2 ISZERO ISZERO PUSH1 0xFF NOT SWAP3 DUP4 AND OR SWAP1 SSTORE PUSH2 0x100 SWAP3 SWAP1 SWAP3 ADD MLOAD PUSH1 0xD SWAP1 SWAP2 ADD DUP1 SLOAD SWAP2 ISZERO ISZERO SWAP2 SWAP1 SWAP3 AND OR SWAP1 SSTORE PUSH1 0x1 DUP1 SLOAD PUSH32 0xD070E27DE467A3A003DAE95FCDA57CE3B642283B9965C061FA24ACF1D996EEC7 SWAP2 PUSH2 0x1B4A SWAP2 PUSH2 0x20B5 JUMP JUMPDEST PUSH1 0x40 DUP1 MLOAD SWAP2 DUP3 MSTORE CALLVALUE PUSH1 0x20 DUP4 ADD MSTORE DUP2 ADD DUP10 SWAP1 MSTORE PUSH1 0x60 DUP2 ADD DUP9 SWAP1 MSTORE PUSH1 0x80 ADD PUSH1 0x40 MLOAD DUP1 SWAP2 SUB SWAP1 LOG1 PUSH1 0x1 DUP1 SLOAD PUSH2 0x1B7C SWAP2 SWAP1 PUSH2 0x20B5 JUMP JUMPDEST SWAP10 SWAP9 POP POP POP POP POP POP POP POP POP JUMP JUMPDEST CALLER PUSH1 0x0 SWAP1 DUP2 MSTORE PUSH1 0x20 DUP2 SWAP1 MSTORE PUSH1 0x40 DUP2 KECCAK256 DUP1 SLOAD DUP5 SWAP2 SWAP1 DUP4 SWAP1 PUSH2 0x1BAA SWAP1 DUP5 SWAP1 PUSH2 0x20C8 JUMP JUMPDEST SWAP1 SWAP2 SSTORE POP PUSH2 0x1894 SWAP1 POP DUP4 DUP4 PUSH2 0x259 JUMP JUMPDEST PUSH1 0x0 PUSH1 0x1 DUP1 DUP4 DUP2 SLOAD DUP2 LT PUSH2 0x1BD0 JUMPI PUSH2 0x1BD0 PUSH2 0x20DB JUMP JUMPDEST PUSH1 0x0 SWAP2 DUP3 MSTORE PUSH1 0x20 SWAP2 DUP3 SWAP1 KECCAK256 PUSH1 0xE SWAP1 SWAP2 MUL ADD PUSH1 0xC ADD DUP1 SLOAD PUSH1 0xFF NOT AND SWAP3 ISZERO ISZERO SWAP3 SWAP1 SWAP3 OR SWAP1 SWAP2 SSTORE PUSH1 0x40 MLOAD DUP4 DUP2 MSTORE PUSH32 0x5A80336CEDD647533D99FEFC5A4618F060834EFA1A3E774E2728C9874A491D38 SWAP2 ADD PUSH1 0x40 MLOAD DUP1 SWAP2 SUB SWAP1 LOG1 PUSH1 0x0 PUSH1 0x1 DUP4 DUP2 SLOAD DUP2 LT PUSH2 0x1C3A JUMPI PUSH2 0x1C3A PUSH2 0x20DB JUMP JUMPDEST PUSH1 0x0 SWAP2 DUP3 MSTORE PUSH1 0x20 DUP3 KECCAK256 PUSH1 0x9 PUSH1 0xE SWAP1 SWAP3 MUL ADD ADD SLOAD PUSH1 0x1 DUP1 SLOAD PUSH1 0x1 PUSH1 0x1 PUSH1 0xA0 SHL SUB SWAP1 SWAP3 AND SWAP4 POP SWAP1 DUP6 SWAP1 DUP2 LT PUSH2 0x1C6F JUMPI PUSH2 0x1C6F PUSH2 0x20DB JUMP JUMPDEST SWAP1 PUSH1 0x0 MSTORE PUSH1 0x20 PUSH1 0x0 KECCAK256 SWAP1 PUSH1 0xE MUL ADD PUSH1 0x4 ADD SLOAD PUSH1 0x1 DUP6 DUP2 SLOAD DUP2 LT PUSH2 0x1C94 JUMPI PUSH2 0x1C94 PUSH2 0x20DB JUMP JUMPDEST SWAP1 PUSH1 0x0 MSTORE PUSH1 0x20 PUSH1 0x0 KECCAK256 SWAP1 PUSH1 0xE MUL ADD PUSH1 0x2 ADD SLOAD PUSH2 0x1CB0 SWAP2 SWAP1 PUSH2 0x20C8 JUMP JUMPDEST SWAP1 POP PUSH1 0x0 PUSH2 0x1CBE DUP3 DUP5 PUSH2 0x1B89 JUMP JUMPDEST SWAP1 POP PUSH1 0x0 PUSH4 0xCB392747 PUSH1 0xE0 SHL PUSH1 0x1 DUP8 DUP2 SLOAD DUP2 LT PUSH2 0x1CDD JUMPI PUSH2 0x1CDD PUSH2 0x20DB JUMP JUMPDEST SWAP1 PUSH1 0x0 MSTORE PUSH1 0x20 PUSH1 0x0 KECCAK256 SWAP1 PUSH1 0xE MUL ADD PUSH1 0x9 ADD PUSH1 0x2 ADD PUSH1 0x40 MLOAD PUSH1 0x24 ADD PUSH2 0x1D01 SWAP2 SWAP1 PUSH2 0x2443 JUMP JUMPDEST PUSH1 0x40 MLOAD PUSH1 0x20 DUP2 DUP4 SUB SUB DUP2 MSTORE SWAP1 PUSH1 0x40 MSTORE SWAP1 PUSH1 0x1 PUSH1 0x1 PUSH1 0xE0 SHL SUB NOT AND PUSH1 0x20 DUP3 ADD DUP1 MLOAD PUSH1 0x1 PUSH1 0x1 PUSH1 0xE0 SHL SUB DUP4 DUP2 DUP4 AND OR DUP4 MSTORE POP POP POP POP SWAP1 POP PUSH1 0x0 PUSH1 0x1 DUP8 DUP2 SLOAD DUP2 LT PUSH2 0x1D4B JUMPI PUSH2 0x1D4B PUSH2 0x20DB JUMP JUMPDEST PUSH1 0x0 SWAP2 DUP3 MSTORE PUSH1 0x20 SWAP1 SWAP2 KECCAK256 PUSH1 0x6 PUSH1 0xE SWAP1 SWAP3 MUL ADD ADD SLOAD PUSH1 0x1 DUP1 SLOAD PUSH1 0x1 PUSH1 0x1 PUSH1 0xA0 SHL SUB SWAP1 SWAP3 AND SWAP2 DUP10 SWAP1 DUP2 LT PUSH2 0x1D7F JUMPI PUSH2 0x1D7F PUSH2 0x20DB JUMP JUMPDEST SWAP1 PUSH1 0x0 MSTORE PUSH1 0x20 PUSH1 0x0 KECCAK256 SWAP1 PUSH1 0xE MUL ADD PUSH1 0x3 ADD SLOAD DUP4 PUSH1 0x40 MLOAD PUSH2 0x1D9F SWAP2 SWAP1 PUSH2 0x24CE JUMP JUMPDEST PUSH1 0x0 PUSH1 0x40 MLOAD DUP1 DUP4 SUB DUP2 PUSH1 0x0 DUP8 DUP8 CALL SWAP3 POP POP POP RETURNDATASIZE DUP1 PUSH1 0x0 DUP2 EQ PUSH2 0x1DDD JUMPI PUSH1 0x40 MLOAD SWAP2 POP PUSH1 0x1F NOT PUSH1 0x3F RETURNDATASIZE ADD AND DUP3 ADD PUSH1 0x40 MSTORE RETURNDATASIZE DUP3 MSTORE RETURNDATASIZE PUSH1 0x0 PUSH1 0x20 DUP5 ADD RETURNDATACOPY PUSH2 0x1DE2 JUMP JUMPDEST PUSH1 0x60 SWAP2 POP JUMPDEST POP POP PUSH1 0x40 DUP1 MLOAD DUP10 DUP2 MSTORE DUP3 ISZERO ISZERO PUSH1 0x20 DUP3 ADD MSTORE SWAP2 SWAP3 POP PUSH32 0xA531C8F4BBF2A18049D85528BB5AAAE66874AF94BCB325738EE729A2B6CF8428 SWAP2 ADD PUSH1 0x40 MLOAD DUP1 SWAP2 SUB SWAP1 LOG1 POP SWAP1 SWAP6 SWAP5 POP POP POP POP POP JUMP JUMPDEST DUP1 CALLDATALOAD PUSH1 0x1 PUSH1 0x1 PUSH1 0xA0 SHL SUB DUP2 AND DUP2 EQ PUSH2 0x1E43 JUMPI PUSH1 0x0 DUP1 REVERT JUMPDEST SWAP2 SWAP1 POP JUMP JUMPDEST PUSH1 0x0 DUP1 PUSH1 0x40 DUP4 DUP6 SUB SLT ISZERO PUSH2 0x1E5B JUMPI PUSH1 0x0 DUP1 REVERT JUMPDEST DUP3 CALLDATALOAD SWAP2 POP PUSH2 0x1E6B PUSH1 0x20 DUP5 ADD PUSH2 0x1E2C JUMP JUMPDEST SWAP1 POP SWAP3 POP SWAP3 SWAP1 POP JUMP JUMPDEST PUSH1 0x0 PUSH1 0x20 DUP3 DUP5 SUB SLT ISZERO PUSH2 0x1E86 JUMPI PUSH1 0x0 DUP1 REVERT JUMPDEST POP CALLDATALOAD SWAP2 SWAP1 POP JUMP JUMPDEST PUSH1 0x0 DUP1 PUSH1 0x0 PUSH1 0x40 DUP5 DUP7 SUB SLT ISZERO PUSH2 0x1EA2 JUMPI PUSH1 0x0 DUP1 REVERT JUMPDEST DUP4 CALLDATALOAD SWAP3 POP PUSH1 0x20 DUP5 ADD CALLDATALOAD PUSH8 0xFFFFFFFFFFFFFFFF DUP1 DUP3 GT ISZERO PUSH2 0x1EC1 JUMPI PUSH1 0x0 DUP1 REVERT JUMPDEST DUP2 DUP7 ADD SWAP2 POP DUP7 PUSH1 0x1F DUP4 ADD SLT PUSH2 0x1ED5 JUMPI PUSH1 0x0 DUP1 REVERT JUMPDEST DUP2 CALLDATALOAD DUP2 DUP2 GT ISZERO PUSH2 0x1EE4 JUMPI PUSH1 0x0 DUP1 REVERT JUMPDEST DUP8 PUSH1 0x20 DUP3 DUP6 ADD ADD GT ISZERO PUSH2 0x1EF6 JUMPI PUSH1 0x0 DUP1 REVERT JUMPDEST PUSH1 0x20 DUP4 ADD SWAP5 POP DUP1 SWAP4 POP POP POP POP SWAP3 POP SWAP3 POP SWAP3 JUMP JUMPDEST PUSH1 0x0 PUSH1 0x20 DUP3 DUP5 SUB SLT ISZERO PUSH2 0x1F1B JUMPI PUSH1 0x0 DUP1 REVERT JUMPDEST PUSH2 0x1894 DUP3 PUSH2 0x1E2C JUMP JUMPDEST PUSH1 0x0 JUMPDEST DUP4 DUP2 LT ISZERO PUSH2 0x1F3F JUMPI DUP2 DUP2 ADD MLOAD DUP4 DUP3 ADD MSTORE PUSH1 0x20 ADD PUSH2 0x1F27 JUMP JUMPDEST POP POP PUSH1 0x0 SWAP2 ADD MSTORE JUMP JUMPDEST PUSH1 0x0 DUP2 MLOAD DUP1 DUP5 MSTORE PUSH2 0x1F60 DUP2 PUSH1 0x20 DUP7 ADD PUSH1 0x20 DUP7 ADD PUSH2 0x1F24 JUMP JUMPDEST PUSH1 0x1F ADD PUSH1 0x1F NOT AND SWAP3 SWAP1 SWAP3 ADD PUSH1 0x20 ADD SWAP3 SWAP2 POP POP JUMP JUMPDEST DUP1 MLOAD DUP3 MSTORE PUSH1 0x0 PUSH1 0x20 DUP3 ADD MLOAD PUSH1 0x40 PUSH1 0x20 DUP6 ADD MSTORE PUSH2 0x1F93 PUSH1 0x40 DUP6 ADD DUP3 PUSH2 0x1F48 JUMP JUMPDEST SWAP5 SWAP4 POP POP POP POP JUMP JUMPDEST PUSH1 0x0 PUSH2 0x140 DUP1 DUP4 MSTORE PUSH2 0x1FAF DUP2 DUP5 ADD DUP14 PUSH2 0x1F74 JUMP JUMPDEST SWAP1 POP DUP11 PUSH1 0x20 DUP5 ADD MSTORE DUP10 PUSH1 0x40 DUP5 ADD MSTORE DUP9 PUSH1 0x60 DUP5 ADD MSTORE DUP8 PUSH1 0x80 DUP5 ADD MSTORE PUSH1 0x1 DUP1 PUSH1 0xA0 SHL SUB DUP1 DUP9 AND PUSH1 0xA0 DUP6 ADD MSTORE DUP1 DUP8 MLOAD AND PUSH1 0xC0 DUP6 ADD MSTORE PUSH1 0x20 DUP8 ADD MLOAD PUSH1 0xE0 DUP6 ADD MSTORE DUP4 DUP3 SUB PUSH2 0x100 DUP6 ADD MSTORE DUP1 DUP7 MLOAD AND DUP3 MSTORE POP PUSH1 0x20 DUP6 ADD MLOAD PUSH1 0x20 DUP3 ADD MSTORE PUSH1 0x40 DUP6 ADD MLOAD PUSH1 0x80 PUSH1 0x40 DUP4 ADD MSTORE PUSH2 0x201E PUSH1 0x80 DUP4 ADD DUP3 PUSH2 0x1F48 JUMP JUMPDEST PUSH1 0x60 DUP8 DUP2 ADD MLOAD ISZERO ISZERO SWAP4 ADD SWAP3 SWAP1 SWAP3 MSTORE POP DUP4 ISZERO ISZERO PUSH2 0x120 DUP5 ADD MSTORE SWAP1 POP SWAP11 SWAP10 POP POP POP POP POP POP POP POP POP POP JUMP JUMPDEST PUSH1 0x0 DUP1 PUSH1 0x0 DUP1 PUSH1 0x80 DUP6 DUP8 SUB SLT ISZERO PUSH2 0x205C JUMPI PUSH1 0x0 DUP1 REVERT JUMPDEST DUP5 CALLDATALOAD PUSH8 0xFFFFFFFFFFFFFFFF DUP2 GT ISZERO PUSH2 0x2073 JUMPI PUSH1 0x0 DUP1 REVERT JUMPDEST DUP6 ADD PUSH1 0x40 DUP2 DUP9 SUB SLT ISZERO PUSH2 0x2085 JUMPI PUSH1 0x0 DUP1 REVERT JUMPDEST SWAP7 PUSH1 0x20 DUP7 ADD CALLDATALOAD SWAP7 POP PUSH1 0x40 DUP7 ADD CALLDATALOAD SWAP6 PUSH1 0x60 ADD CALLDATALOAD SWAP5 POP SWAP3 POP POP POP JUMP JUMPDEST PUSH4 0x4E487B71 PUSH1 0xE0 SHL PUSH1 0x0 MSTORE PUSH1 0x11 PUSH1 0x4 MSTORE PUSH1 0x24 PUSH1 0x0 REVERT JUMPDEST DUP2 DUP2 SUB DUP2 DUP2 GT ISZERO PUSH2 0x378 JUMPI PUSH2 0x378 PUSH2 0x209F JUMP JUMPDEST DUP1 DUP3 ADD DUP1 DUP3 GT ISZERO PUSH2 0x378 JUMPI PUSH2 0x378 PUSH2 0x209F JUMP JUMPDEST PUSH4 0x4E487B71 PUSH1 0xE0 SHL PUSH1 0x0 MSTORE PUSH1 0x32 PUSH1 0x4 MSTORE PUSH1 0x24 PUSH1 0x0 REVERT JUMPDEST PUSH4 0x4E487B71 PUSH1 0xE0 SHL PUSH1 0x0 MSTORE PUSH1 0x41 PUSH1 0x4 MSTORE PUSH1 0x24 PUSH1 0x0 REVERT JUMPDEST PUSH1 0x1 DUP2 DUP2 SHR SWAP1 DUP3 AND DUP1 PUSH2 0x211B JUMPI PUSH1 0x7F DUP3 AND SWAP2 POP JUMPDEST PUSH1 0x20 DUP3 LT DUP2 SUB PUSH2 0x213B JUMPI PUSH4 0x4E487B71 PUSH1 0xE0 SHL PUSH1 0x0 MSTORE PUSH1 0x22 PUSH1 0x4 MSTORE PUSH1 0x24 PUSH1 0x0 REVERT JUMPDEST POP SWAP2 SWAP1 POP JUMP JUMPDEST PUSH1 0x1F DUP3 GT ISZERO PUSH2 0x218B JUMPI PUSH1 0x0 DUP2 DUP2 MSTORE PUSH1 0x20 DUP2 KECCAK256 PUSH1 0x1F DUP6 ADD PUSH1 0x5 SHR DUP2 ADD PUSH1 0x20 DUP7 LT ISZERO PUSH2 0x2168 JUMPI POP DUP1 JUMPDEST PUSH1 0x1F DUP6 ADD PUSH1 0x5 SHR DUP3 ADD SWAP2 POP JUMPDEST DUP2 DUP2 LT ISZERO PUSH2 0x2187 JUMPI DUP3 DUP2 SSTORE PUSH1 0x1 ADD PUSH2 0x2174 JUMP JUMPDEST POP POP POP JUMPDEST POP POP POP JUMP JUMPDEST DUP2 MLOAD PUSH8 0xFFFFFFFFFFFFFFFF DUP2 GT ISZERO PUSH2 0x21AA JUMPI PUSH2 0x21AA PUSH2 0x20F1 JUMP JUMPDEST PUSH2 0x21BE DUP2 PUSH2 0x21B8 DUP5 SLOAD PUSH2 0x2107 JUMP JUMPDEST DUP5 PUSH2 0x2141 JUMP JUMPDEST PUSH1 0x20 DUP1 PUSH1 0x1F DUP4 GT PUSH1 0x1 DUP2 EQ PUSH2 0x21F3 JUMPI PUSH1 0x0 DUP5 ISZERO PUSH2 0x21DB JUMPI POP DUP6 DUP4 ADD MLOAD JUMPDEST PUSH1 0x0 NOT PUSH1 0x3 DUP7 SWAP1 SHL SHR NOT AND PUSH1 0x1 DUP6 SWAP1 SHL OR DUP6 SSTORE PUSH2 0x2187 JUMP JUMPDEST PUSH1 0x0 DUP6 DUP2 MSTORE PUSH1 0x20 DUP2 KECCAK256 PUSH1 0x1F NOT DUP7 AND SWAP2 JUMPDEST DUP3 DUP2 LT ISZERO PUSH2 0x2222 JUMPI DUP9 DUP7 ADD MLOAD DUP3 SSTORE SWAP5 DUP5 ADD SWAP5 PUSH1 0x1 SWAP1 SWAP2 ADD SWAP1 DUP5 ADD PUSH2 0x2203 JUMP JUMPDEST POP DUP6 DUP3 LT ISZERO PUSH2 0x2240 JUMPI DUP8 DUP6 ADD MLOAD PUSH1 0x0 NOT PUSH1 0x3 DUP9 SWAP1 SHL PUSH1 0xF8 AND SHR NOT AND DUP2 SSTORE JUMPDEST POP POP POP POP POP PUSH1 0x1 SWAP1 DUP2 SHL ADD SWAP1 SSTORE POP JUMP JUMPDEST DUP5 DUP2 MSTORE PUSH1 0x60 PUSH1 0x20 DUP3 ADD MSTORE DUP3 PUSH1 0x60 DUP3 ADD MSTORE DUP3 DUP5 PUSH1 0x80 DUP4 ADD CALLDATACOPY PUSH1 0x0 DUP2 DUP5 ADD PUSH1 0x80 SWAP1 DUP2 ADD SWAP2 SWAP1 SWAP2 MSTORE PUSH1 0x1 PUSH1 0x1 PUSH1 0xA0 SHL SUB SWAP3 SWAP1 SWAP3 AND PUSH1 0x40 DUP3 ADD MSTORE PUSH1 0x1F SWAP1 SWAP3 ADD PUSH1 0x1F NOT AND SWAP1 SWAP2 ADD ADD SWAP3 SWAP2 POP POP JUMP JUMPDEST PUSH1 0x20 DUP2 MSTORE PUSH1 0x0 PUSH2 0x1894 PUSH1 0x20 DUP4 ADD DUP5 PUSH2 0x1F74 JUMP JUMPDEST PUSH1 0x40 MLOAD PUSH1 0x1F DUP3 ADD PUSH1 0x1F NOT AND DUP2 ADD PUSH8 0xFFFFFFFFFFFFFFFF DUP2 GT DUP3 DUP3 LT OR ISZERO PUSH2 0x22D5 JUMPI PUSH2 0x22D5 PUSH2 0x20F1 JUMP JUMPDEST PUSH1 0x40 MSTORE SWAP2 SWAP1 POP JUMP JUMPDEST PUSH1 0x0 PUSH8 0xFFFFFFFFFFFFFFFF DUP3 GT ISZERO PUSH2 0x22F7 JUMPI PUSH2 0x22F7 PUSH2 0x20F1 JUMP JUMPDEST POP PUSH1 0x1F ADD PUSH1 0x1F NOT AND PUSH1 0x20 ADD SWAP1 JUMP JUMPDEST PUSH1 0x0 PUSH1 0x20 DUP3 DUP5 SUB SLT ISZERO PUSH2 0x2317 JUMPI PUSH1 0x0 DUP1 REVERT JUMPDEST DUP2 MLOAD PUSH8 0xFFFFFFFFFFFFFFFF DUP2 GT ISZERO PUSH2 0x232E JUMPI PUSH1 0x0 DUP1 REVERT JUMPDEST DUP3 ADD PUSH1 0x1F DUP2 ADD DUP5 SGT PUSH2 0x233F JUMPI PUSH1 0x0 DUP1 REVERT JUMPDEST DUP1 MLOAD PUSH2 0x2352 PUSH2 0x234D DUP3 PUSH2 0x22DD JUMP JUMPDEST PUSH2 0x22AC JUMP JUMPDEST DUP2 DUP2 MSTORE DUP6 PUSH1 0x20 DUP4 DUP6 ADD ADD GT ISZERO PUSH2 0x2367 JUMPI PUSH1 0x0 DUP1 REVERT JUMPDEST PUSH2 0x2378 DUP3 PUSH1 0x20 DUP4 ADD PUSH1 0x20 DUP7 ADD PUSH2 0x1F24 JUMP JUMPDEST SWAP6 SWAP5 POP POP POP POP POP JUMP JUMPDEST DUP3 DUP2 MSTORE PUSH1 0x40 PUSH1 0x20 DUP3 ADD MSTORE PUSH1 0x0 PUSH2 0x1F93 PUSH1 0x40 DUP4 ADD DUP5 PUSH2 0x1F48 JUMP JUMPDEST PUSH1 0x0 PUSH1 0x40 DUP3 CALLDATASIZE SUB SLT ISZERO PUSH2 0x23AC JUMPI PUSH1 0x0 DUP1 REVERT JUMPDEST PUSH1 0x40 MLOAD PUSH1 0x40 DUP2 ADD PUSH8 0xFFFFFFFFFFFFFFFF DUP3 DUP3 LT DUP2 DUP4 GT OR ISZERO PUSH2 0x23D0 JUMPI PUSH2 0x23D0 PUSH2 0x20F1 JUMP JUMPDEST DUP2 PUSH1 0x40 MSTORE DUP5 CALLDATALOAD DUP4 MSTORE PUSH1 0x20 SWAP2 POP DUP2 DUP6 ADD CALLDATALOAD DUP2 DUP2 GT ISZERO PUSH2 0x23ED JUMPI PUSH1 0x0 DUP1 REVERT JUMPDEST DUP6 ADD SWAP1 POP CALLDATASIZE PUSH1 0x1F DUP3 ADD SLT PUSH2 0x2400 JUMPI PUSH1 0x0 DUP1 REVERT JUMPDEST DUP1 CALLDATALOAD PUSH2 0x240E PUSH2 0x234D DUP3 PUSH2 0x22DD JUMP JUMPDEST DUP2 DUP2 MSTORE CALLDATASIZE DUP5 DUP4 DUP6 ADD ADD GT ISZERO PUSH2 0x2422 JUMPI PUSH1 0x0 DUP1 REVERT JUMPDEST DUP2 DUP5 DUP5 ADD DUP6 DUP4 ADD CALLDATACOPY PUSH1 0x0 SWAP2 DUP2 ADD DUP5 ADD SWAP2 SWAP1 SWAP2 MSTORE SWAP2 DUP4 ADD SWAP2 SWAP1 SWAP2 MSTORE POP SWAP3 SWAP2 POP POP JUMP JUMPDEST PUSH1 0x0 PUSH1 0x20 DUP1 DUP4 MSTORE PUSH1 0x0 DUP5 SLOAD PUSH2 0x2457 DUP2 PUSH2 0x2107 JUMP JUMPDEST DUP1 DUP5 DUP8 ADD MSTORE PUSH1 0x40 PUSH1 0x1 DUP1 DUP5 AND PUSH1 0x0 DUP2 EQ PUSH2 0x2478 JUMPI PUSH1 0x1 DUP2 EQ PUSH2 0x2492 JUMPI PUSH2 0x24C0 JUMP JUMPDEST PUSH1 0xFF NOT DUP6 AND DUP10 DUP5 ADD MSTORE DUP4 ISZERO ISZERO PUSH1 0x5 SHL DUP10 ADD DUP4 ADD SWAP6 POP PUSH2 0x24C0 JUMP JUMPDEST DUP10 PUSH1 0x0 MSTORE DUP7 PUSH1 0x0 KECCAK256 PUSH1 0x0 JUMPDEST DUP6 DUP2 LT ISZERO PUSH2 0x24B8 JUMPI DUP2 SLOAD DUP12 DUP3 ADD DUP7 ADD MSTORE SWAP1 DUP4 ADD SWAP1 DUP9 ADD PUSH2 0x249D JUMP JUMPDEST DUP11 ADD DUP5 ADD SWAP7 POP POP JUMPDEST POP SWAP4 SWAP9 SWAP8 POP POP POP POP POP POP POP POP JUMP JUMPDEST PUSH1 0x0 DUP3 MLOAD PUSH2 0x24E0 DUP2 DUP5 PUSH1 0x20 DUP8 ADD PUSH2 0x1F24 JUMP JUMPDEST SWAP2 SWAP1 SWAP2 ADD SWAP3 SWAP2 POP POP JUMP INVALID LOG2 PUSH5 0x6970667358 0x22 SLT KECCAK256 CALLVALUE PUSH4 0x1B883173 STOP 0xEF DUP3 0xBC MSIZE 0x2C PUSH8 0x6CFC293AA5C7EA64 0x2E PUSH29 0xE1BD33071DE6D8AF3B64736F6C63430008110033000000000000000000 ",
  "sha1": "223d2cc30c7eba688dccb245795b518057420f5e",
  "source": "// SPDX-License-Identifier: GPL-3.0\n\npragma solidity >=0.7.0 <0.9.0;\n\nimport \"./Transferable.sol\";\nimport \"./BaseClient.sol\";\n\n\nstruct Request {\n    BaseClient.ClientInput input;\n    uint payment; // In Wei; deberia tener en cuenta el computo y el gas de las operaciones de submit y claim\n    uint postProcessingGas;  // In Wei; for the post processing, if any\n    uint challengeInsurance;  // amount of gas for challenges, deberia ser mayor al gas estimado, just in case\n    uint claimDelay;  // the minimum amount of time that needs to pass between a submission and a payment claim, to allow for possible challengers, in secconds\n    BaseClient client;\n    RequestAcceptance acceptance;\n    Submission submission;\n    bool cancelled;\n}\n\nstruct RequestAcceptance {\n    address acceptor;\n    uint timestamp;  // TODO ver tema vencimiento o el castigo es la retencion de fondos?\n}\n\nstruct Submission {\n    address issuer;\n    uint timestamp;\n    bytes result;\n    bool solidified;\n}\n\n\ncontract ExecutionBroker is Transferable {\n\n    Request[] public requests;\n\n    event requestCreated(uint requestID, uint payment, uint challengeInsurance, uint claimDelay);\n    event requestCancelled(uint requestID, bool refundSuccess);\n\n    event requestAccepted(uint requestID, address acceptor);\n    event acceptanceCancelled(uint requestID, address acceptor, bool refundSuccess);\n    \n    event resultSubmitted(uint requestID, bytes result, address submitter);\n    event resultPostProcessed(uint requestID, bool success);\n    event requestSolidified(uint requestID);\n    \n    event challengeProcessed(uint requestID, bytes result);\n    event challengePayment(uint requestID, bool success);\n    \n\n    // Restricted interaction functions\n\n    function submitRequest(BaseClient.ClientInput calldata input, uint postProcessingGas, uint requestedInsurance, uint claimDelay) public payable returns (uint) {\n        // check msg.sender is an actual client - creo que no se puede, me parece que lo voy a tener que dejar asi, creo que no es una vulnerabilidad, onda, si no es del tipo, va a fallar eventualmente, y problema del boludo que lo registro mal\n        require(msg.value - postProcessingGas > 0, \"The post processing gas cannot takeup all of the supplied ether\");  // en el bot de python, ver que efectivamente el net payment, valga la pena\n        BaseClient clientImplementation = BaseClient(msg.sender);\n        RequestAcceptance memory acceptance = RequestAcceptance({\n            acceptor: address(0x0),\n            timestamp: 0\n        });\n        Submission memory submission = Submission({\n            issuer: address(0x0),\n            timestamp: 0,\n            result: abi.encode(0),\n            solidified: false\n        });\n        Request memory request = Request({\n            input: input,\n            payment: msg.value,  // aca esta incluido el post processing gas, para evitar tener que devolver aparte\n            postProcessingGas: postProcessingGas,\n            challengeInsurance: requestedInsurance,\n            claimDelay: claimDelay,\n            client: clientImplementation,\n            acceptance: acceptance,\n            submission: submission,\n            cancelled: false\n        });\n        requests.push(request);\n        emit requestCreated(requests.length-1, msg.value, requestedInsurance, claimDelay);\n        return requests.length - 1;\n    }\n\n    function cancelRequest(uint requestID) public {\n        require(!requests[requestID].cancelled, \"The request was already cancelled\");\n        require(msg.sender == address(requests[requestID].client), \"You cant cancel a request that was not made by you\");\n        require(requests[requestID].acceptance.acceptor == address(0x0), \"You cant cancel an accepted request\");\n        //delete requests[requestID], no puedo hacer esto, this fucks up the ids\n        requests[requestID].cancelled = true;\n        address payable payee = payable(address(requests[requestID].client));\n        bool transferSuccess = internalTransferFunds(requests[requestID].payment, payee);\n        emit requestCancelled(requestID, transferSuccess);\n    }\n\n    // Open interaction functions\n\n    function publicizeRequest(uint requestID) public {  // This is to re emit the event In case the request gets forgotten\n        require(requests[requestID].acceptance.acceptor == address(0x00), \"You cant publicize a taken request\");\n        emit requestCreated(requestID, requests[requestID].payment, requests[requestID].challengeInsurance, requests[requestID].claimDelay);\n    }\n\n    function acceptRequest(uint requestID) public payable {\n        // what if Request does not exist? what happens to the funds? IF YOU TRY TO ACCESS AN INVALID INDEX IN AN ARRAY, THE FUNCTION GETS REVERTED AND FUNDS RETURNED TOGETHER WITH SPARE GAS (BUT NOT ALREADY CONSUMED GAS)\n        // what happens to the funds if one of the requires fail? THEY GET RETURNED\n        require(!requests[requestID].cancelled, \"The request was cancelled\");\n        require(requests[requestID].acceptance.acceptor == address(0x0) , \"Someone already accepted the request\");\n        require(msg.value == requests[requestID].challengeInsurance, \"Incorrect amount of insurance provided\");\n        RequestAcceptance memory acceptance = RequestAcceptance({\n            acceptor: msg.sender,\n            timestamp: block.timestamp\n        });\n        requests[requestID].acceptance = acceptance;\n        emit requestAccepted(requestID, msg.sender);\n    }\n\n    function cancelAcceptance(uint requestID) public {\n        // check request unsubmitted (at this point it cant be cancelled because the acceptance blocks it\n        require(requests[requestID].acceptance.acceptor != address(0x0), \"There is no acceptance in place for the provided requestID\");\n        require(requests[requestID].submission.issuer == address(0x0), \"The results for this request have already beem submitted\");\n        require(requests[requestID].acceptance.acceptor == msg.sender, \"You cant cancel an acceptance that does not belong to you\");\n        address payable payee = payable(requests[requestID].acceptance.acceptor);\n        requests[requestID].acceptance.acceptor = address(0x0);\n        bool transferSuccess = internalTransferFunds(requests[requestID].challengeInsurance, payee);\n        emit acceptanceCancelled(requestID, payee, transferSuccess);\n    }\n\n    function submitResult(uint requestID, bytes calldata result) public {\n        // para evitar que le roben el resultado, puede subirlo encriptado y posteriormente subir la clave de decrypt, NAAAA, no es eficiente\n        // pero aca caigo en el mismo dilema, tengo que esperar que pase la clave decrypt y tengo que poner un timer para que no ponga cualquier cosa y se vaya, aunque supongo que no lo quiere hacer porque quiere recuperar la insurance. Entonces capaz saco el tiempo de acceptance time window, y confiar que el tipo va a cumplir porque quiere cobrar, aunque capaz se cuelga y no lo puede resolver, entonces capaz es mejor que se haga con encriptacion? no pero eso no me sirve porque desencriptar es costoso. Mejor le pongo una opcion al tipo para cancelar la aceptacion, y se come el gas pero recupera la prima\n        require(requests[requestID].acceptance.acceptor != address(0x0), \"You need to accept the request first\");\n        require(requests[requestID].submission.issuer == address(0x0), \"There is already a submission for this request\");\n        require(requests[requestID].acceptance.acceptor == msg.sender, \"Someone else has accepted the Request\");  // no chequeo el timestamp porque el timestamp es solo para ofertar, si se vencio, pero nadie mas contra oferto, vale\n        Submission memory submission = Submission({\n            issuer: msg.sender,\n            timestamp: block.timestamp,\n            result: result,\n            solidified: false\n        });\n        requests[requestID].submission = submission;\n        emit resultSubmitted(requestID, result, msg.sender);\n    }\n\n    function challengeSubmission(uint requestID) public returns (bool) {  // no hace falta el nuevo resultado ya que se va a recalcular regardless\n        require(requests[requestID].submission.issuer != address(0x0), \"There are no submissions for the challenged request\");\n        require(!requests[requestID].submission.solidified, \"The challenged submission has already solidified\");\n\n\t\tbytes memory submittedResult = requests[requestID].submission.result;\n        BaseClient.ClientInput memory requestInput = requests[requestID].input;\n        bytes memory trueFinalResult = requests[requestID].client.clientLogic(requestInput);\n        emit challengeProcessed(requestID, trueFinalResult);\n\n        if (keccak256(submittedResult) != keccak256(trueFinalResult)) { // corregir el resultado\n            Submission memory submission = Submission({\n                issuer: msg.sender,\n                timestamp: block.timestamp,\n                result: trueFinalResult,\n                solidified: false\n            });\n            requests[requestID].submission = submission;  // notar que en las requests que se resolvieron por challenge el acceptor es diferente al issuer (a menos que alguien se autochallengee)\n            bool transferSuccess = solidify(requestID);\n            // No revierto si no es success porque una corrida on chain es muy valiosa como para arriesgar el revert\n            emit challengePayment(requestID, transferSuccess);\n            return true;  // result was corrected\n        } // else, el original lo hizo bien, dejo que pase el tiempo y cobre\n        return false;  // original was correct\n    }\n\n    function claimPayment(uint requestID) public returns (bool) {\n        require(requests[requestID].submission.issuer == msg.sender, \"This payment does not belong to you\");\n        require(!requests[requestID].submission.solidified, \"The provided request has already solidified\");\n        require(requests[requestID].submission.timestamp + requests[requestID].claimDelay < block.timestamp, \"The claim delay hasn't passed yet\");\n        bool transferSuccess = solidify(requestID);\n        return transferSuccess;\n    }\n\n    // Public views\n\n    function isRequestOpen(uint requestID) public view returns (bool) {  // solo a modo de ayuda\n        return (!requests[requestID].cancelled && requests[requestID].acceptance.acceptor == address(0x0));\n    }\n\n    // Private functions\n\n    function solidify(uint requestID) private returns (bool) {\n        // first solidify, then pay, for reentrancy issues\n        requests[requestID].submission.solidified = true;\n        emit requestSolidified(requestID);\n        address payee = requests[requestID].submission.issuer;\n        uint payAmount = requests[requestID].payment + requests[requestID].challengeInsurance;\n        bool transferSuccess = internalTransferFunds(payAmount, payee);\n        \n        // capaz la logica de encadenamiento es mejor definirla en python, o un mix\n        bytes memory data = abi.encodeWithSelector(requests[requestID].client.processResult.selector, requests[requestID].submission.result);\n        (bool callSuccess, ) = address(requests[requestID].client).call{gas: requests[requestID].postProcessingGas}(data);  // el delegate para que me aparezca el sender como el broker. cuidado si esto no me hace una vulnerabilidad, puedo vaciar fondos desde client? no deberia pasar nada, ni el broker ni el client puede extraer fondos\n        emit resultPostProcessed(requestID, callSuccess);\n\n        return transferSuccess;\n    }\n}",
  "sourcePath": "contracts/ExecutionBroker.sol",
  "type": "contract"
}