{
  "abi": [
    {
      "inputs": [
        {
          "internalType": "uint256",
          "name": "acceptanceGracePeriod",
          "type": "uint256"
        }
      ],
      "stateMutability": "nonpayable",
      "type": "constructor"
    },
    {
      "anonymous": false,
      "inputs": [
        {
          "indexed": false,
          "internalType": "uint256",
          "name": "requestID",
          "type": "uint256"
        },
        {
          "indexed": false,
          "internalType": "address",
          "name": "acceptor",
          "type": "address"
        },
        {
          "indexed": false,
          "internalType": "bool",
          "name": "refundSuccess",
          "type": "bool"
        }
      ],
      "name": "acceptanceCancelled",
      "type": "event"
    },
    {
      "anonymous": false,
      "inputs": [
        {
          "indexed": false,
          "internalType": "uint256",
          "name": "requestID",
          "type": "uint256"
        },
        {
          "indexed": false,
          "internalType": "address",
          "name": "payee",
          "type": "address"
        },
        {
          "indexed": false,
          "internalType": "bool",
          "name": "success",
          "type": "bool"
        }
      ],
      "name": "challengePayment",
      "type": "event"
    },
    {
      "anonymous": false,
      "inputs": [
        {
          "indexed": false,
          "internalType": "uint256",
          "name": "requestID",
          "type": "uint256"
        },
        {
          "indexed": false,
          "internalType": "bytes",
          "name": "result",
          "type": "bytes"
        }
      ],
      "name": "challengeProcessed",
      "type": "event"
    },
    {
      "anonymous": false,
      "inputs": [
        {
          "indexed": false,
          "internalType": "uint256",
          "name": "requestID",
          "type": "uint256"
        },
        {
          "indexed": false,
          "internalType": "address",
          "name": "acceptor",
          "type": "address"
        }
      ],
      "name": "requestAccepted",
      "type": "event"
    },
    {
      "anonymous": false,
      "inputs": [
        {
          "indexed": false,
          "internalType": "uint256",
          "name": "requestID",
          "type": "uint256"
        },
        {
          "indexed": false,
          "internalType": "bool",
          "name": "refundSuccess",
          "type": "bool"
        }
      ],
      "name": "requestCancelled",
      "type": "event"
    },
    {
      "anonymous": false,
      "inputs": [
        {
          "indexed": false,
          "internalType": "uint256",
          "name": "requestID",
          "type": "uint256"
        },
        {
          "indexed": false,
          "internalType": "uint256",
          "name": "payment",
          "type": "uint256"
        },
        {
          "indexed": false,
          "internalType": "uint256",
          "name": "postProcessingGas",
          "type": "uint256"
        },
        {
          "indexed": false,
          "internalType": "uint256",
          "name": "challengeInsurance",
          "type": "uint256"
        },
        {
          "indexed": false,
          "internalType": "uint256",
          "name": "claimDelay",
          "type": "uint256"
        }
      ],
      "name": "requestCreated",
      "type": "event"
    },
    {
      "anonymous": false,
      "inputs": [
        {
          "indexed": false,
          "internalType": "uint256",
          "name": "requestID",
          "type": "uint256"
        }
      ],
      "name": "requestSolidified",
      "type": "event"
    },
    {
      "anonymous": false,
      "inputs": [
        {
          "indexed": false,
          "internalType": "uint256",
          "name": "requestID",
          "type": "uint256"
        },
        {
          "indexed": false,
          "internalType": "bool",
          "name": "success",
          "type": "bool"
        }
      ],
      "name": "resultPostProcessed",
      "type": "event"
    },
    {
      "anonymous": false,
      "inputs": [
        {
          "indexed": false,
          "internalType": "uint256",
          "name": "requestID",
          "type": "uint256"
        },
        {
          "indexed": false,
          "internalType": "bytes",
          "name": "result",
          "type": "bytes"
        },
        {
          "indexed": false,
          "internalType": "address",
          "name": "submitter",
          "type": "address"
        }
      ],
      "name": "resultSubmitted",
      "type": "event"
    },
    {
      "inputs": [],
      "name": "ACCEPTANCE_GRACE_PERIOD",
      "outputs": [
        {
          "internalType": "uint256",
          "name": "",
          "type": "uint256"
        }
      ],
      "stateMutability": "view",
      "type": "function"
    },
    {
      "inputs": [
        {
          "internalType": "uint256",
          "name": "requestID",
          "type": "uint256"
        }
      ],
      "name": "acceptRequest",
      "outputs": [],
      "stateMutability": "payable",
      "type": "function"
    },
    {
      "inputs": [
        {
          "internalType": "uint256",
          "name": "requestID",
          "type": "uint256"
        }
      ],
      "name": "cancelAcceptance",
      "outputs": [],
      "stateMutability": "nonpayable",
      "type": "function"
    },
    {
      "inputs": [
        {
          "internalType": "uint256",
          "name": "requestID",
          "type": "uint256"
        }
      ],
      "name": "cancelRequest",
      "outputs": [],
      "stateMutability": "nonpayable",
      "type": "function"
    },
    {
      "inputs": [
        {
          "internalType": "uint256",
          "name": "requestID",
          "type": "uint256"
        }
      ],
      "name": "challengeSubmission",
      "outputs": [
        {
          "internalType": "bool",
          "name": "",
          "type": "bool"
        }
      ],
      "stateMutability": "nonpayable",
      "type": "function"
    },
    {
      "inputs": [
        {
          "internalType": "uint256",
          "name": "requestID",
          "type": "uint256"
        }
      ],
      "name": "claimPayment",
      "outputs": [
        {
          "internalType": "bool",
          "name": "",
          "type": "bool"
        }
      ],
      "stateMutability": "nonpayable",
      "type": "function"
    },
    {
      "inputs": [
        {
          "internalType": "uint256",
          "name": "requestID",
          "type": "uint256"
        }
      ],
      "name": "isRequestOpen",
      "outputs": [
        {
          "internalType": "bool",
          "name": "",
          "type": "bool"
        }
      ],
      "stateMutability": "view",
      "type": "function"
    },
    {
      "inputs": [
        {
          "internalType": "uint256",
          "name": "amount",
          "type": "uint256"
        },
        {
          "internalType": "address",
          "name": "destination",
          "type": "address"
        }
      ],
      "name": "publicTransferFunds",
      "outputs": [
        {
          "internalType": "bool",
          "name": "",
          "type": "bool"
        }
      ],
      "stateMutability": "nonpayable",
      "type": "function"
    },
    {
      "inputs": [
        {
          "internalType": "uint256",
          "name": "requestID",
          "type": "uint256"
        }
      ],
      "name": "publicizeRequest",
      "outputs": [],
      "stateMutability": "nonpayable",
      "type": "function"
    },
    {
      "inputs": [],
      "name": "requestCount",
      "outputs": [
        {
          "internalType": "uint256",
          "name": "",
          "type": "uint256"
        }
      ],
      "stateMutability": "view",
      "type": "function"
    },
    {
      "inputs": [
        {
          "internalType": "uint256",
          "name": "",
          "type": "uint256"
        }
      ],
      "name": "requests",
      "outputs": [
        {
          "internalType": "uint256",
          "name": "id",
          "type": "uint256"
        },
        {
          "components": [
            {
              "internalType": "uint256",
              "name": "functionToRun",
              "type": "uint256"
            },
            {
              "internalType": "bytes",
              "name": "data",
              "type": "bytes"
            }
          ],
          "internalType": "struct BaseClient.ClientInput",
          "name": "input",
          "type": "tuple"
        },
        {
          "internalType": "uint256",
          "name": "payment",
          "type": "uint256"
        },
        {
          "internalType": "uint256",
          "name": "postProcessingGas",
          "type": "uint256"
        },
        {
          "internalType": "uint256",
          "name": "challengeInsurance",
          "type": "uint256"
        },
        {
          "internalType": "uint256",
          "name": "claimDelay",
          "type": "uint256"
        },
        {
          "internalType": "contract BaseClient",
          "name": "client",
          "type": "address"
        },
        {
          "components": [
            {
              "internalType": "address",
              "name": "acceptor",
              "type": "address"
            },
            {
              "internalType": "uint256",
              "name": "timestamp",
              "type": "uint256"
            }
          ],
          "internalType": "struct Acceptance",
          "name": "acceptance",
          "type": "tuple"
        },
        {
          "components": [
            {
              "internalType": "address",
              "name": "issuer",
              "type": "address"
            },
            {
              "internalType": "uint256",
              "name": "timestamp",
              "type": "uint256"
            },
            {
              "internalType": "bytes",
              "name": "result",
              "type": "bytes"
            },
            {
              "internalType": "bool",
              "name": "solidified",
              "type": "bool"
            }
          ],
          "internalType": "struct Submission",
          "name": "submission",
          "type": "tuple"
        },
        {
          "internalType": "bool",
          "name": "cancelled",
          "type": "bool"
        }
      ],
      "stateMutability": "view",
      "type": "function"
    },
    {
      "inputs": [
        {
          "components": [
            {
              "internalType": "uint256",
              "name": "functionToRun",
              "type": "uint256"
            },
            {
              "internalType": "bytes",
              "name": "data",
              "type": "bytes"
            }
          ],
          "internalType": "struct BaseClient.ClientInput",
          "name": "input",
          "type": "tuple"
        },
        {
          "internalType": "uint256",
          "name": "postProcessingGas",
          "type": "uint256"
        },
        {
          "internalType": "uint256",
          "name": "requestedInsurance",
          "type": "uint256"
        },
        {
          "internalType": "uint256",
          "name": "claimDelay",
          "type": "uint256"
        }
      ],
      "name": "submitRequest",
      "outputs": [
        {
          "internalType": "uint256",
          "name": "",
          "type": "uint256"
        }
      ],
      "stateMutability": "payable",
      "type": "function"
    },
    {
      "inputs": [
        {
          "internalType": "uint256",
          "name": "requestID",
          "type": "uint256"
        },
        {
          "internalType": "bytes",
          "name": "result",
          "type": "bytes"
        }
      ],
      "name": "submitResult",
      "outputs": [],
      "stateMutability": "nonpayable",
      "type": "function"
    },
    {
      "inputs": [
        {
          "internalType": "address",
          "name": "",
          "type": "address"
        }
      ],
      "name": "weiBalances",
      "outputs": [
        {
          "internalType": "uint256",
          "name": "",
          "type": "uint256"
        }
      ],
      "stateMutability": "view",
      "type": "function"
    }
  ],
  "bytecode": "608060405234801561001057600080fd5b50604051620029223803806200292283398101604081905261003191610039565b600155610052565b60006020828403121561004b57600080fd5b5051919050565b6128c080620000626000396000f3fe6080604052600436106100dd5760003560e01c80635badbe4c1161007f5780638274fbf5116100595780638274fbf514610248578063b2c221f214610268578063c63fdcc714610288578063d900f934146102a857600080fd5b80635badbe4c146101d05780636ef9e145146101e557806381d12c581461021257600080fd5b806349875db2116100bb57806349875db21461015d5780634ba1f0981461017d578063540a61781461019057806354c7d906146101b057600080fd5b806303f94dbd146100e25780630d45c1991461010b5780633015394c1461013b575b600080fd5b3480156100ee57600080fd5b506100f860015481565b6040519081526020015b60405180910390f35b34801561011757600080fd5b5061012b610126366004612192565b6102bb565b6040519015158152602001610102565b34801561014757600080fd5b5061015b6101563660046121be565b6103e0565b005b34801561016957600080fd5b5061015b6101783660046121d7565b6106b3565b61015b61018b3660046121be565b61096a565b34801561019c57600080fd5b5061015b6101ab3660046121be565b610d13565b3480156101bc57600080fd5b5061015b6101cb3660046121be565b610e85565b3480156101dc57600080fd5b506002546100f8565b3480156101f157600080fd5b506100f8610200366004612253565b60006020819052908152604090205481565b34801561021e57600080fd5b5061023261022d3660046121be565b61118d565b6040516101029a999897969594939291906122e5565b34801561025457600080fd5b5061012b6102633660046121be565b611391565b34801561027457600080fd5b5061012b6102833660046121be565b611407565b34801561029457600080fd5b5061012b6102a33660046121be565b611944565b6100f86102b6366004612398565b611bc6565b336000908152602081905260408120548311156103295760405162461bcd60e51b815260206004820152602160248201527f53656e64657220646f6573206e6f74206861766520656e6f7567682066756e646044820152607360f81b60648201526084015b60405180910390fd5b3360009081526020819052604081208054859290610348908490612407565b909155505060405182906000906001600160a01b0383169086908381818185875af1925050503d806000811461039a576040519150601f19603f3d011682016040523d82523d6000602084013e61039f565b606091505b50509050806103d6576001600160a01b038416600090815260208190526040812080548792906103d090849061241a565b90915550505b9150505b92915050565b60025481106104265760405162461bcd60e51b8152602060048201526012602482015271496e646578206f7574206f662072616e676560701b6044820152606401610320565b600281815481106104395761043961242d565b60009182526020909120600e600f90920201015460ff16156104a75760405162461bcd60e51b815260206004820152602160248201527f54686520726571756573742077617320616c72656164792063616e63656c6c656044820152601960fa1b6064820152608401610320565b600281815481106104ba576104ba61242d565b60009182526020909120600f90910201600701546001600160a01b031633146105405760405162461bcd60e51b815260206004820152603260248201527f596f752063616e742063616e63656c20612072657175657374207468617420776044820152716173206e6f74206d61646520627920796f7560701b6064820152608401610320565b60006001600160a01b03166002828154811061055e5761055e61242d565b600091825260209091206008600f9092020101546001600160a01b0316146105d45760405162461bcd60e51b815260206004820152602360248201527f596f752063616e742063616e63656c20616e2061636365707465642072657175604482015262195cdd60ea1b6064820152608401610320565b6001600282815481106105e9576105e961242d565b600091825260208220600f9190910201600e01805460ff19169215159290921790915560028054839081106106205761062061242d565b6000918252602082206007600f909202010154600280546001600160a01b03909216935061067091859081106106585761065861242d565b90600052602060002090600f02016003015483611ed2565b6040805185815282151560208201529192507f84cdfa87c52a6c23a244b289457de2d062d5da21bea2aeabf5227da0e186768891015b60405180910390a1505050565b60006001600160a01b0316600284815481106106d1576106d161242d565b600091825260209091206008600f9092020101546001600160a01b0316036107475760405162461bcd60e51b8152602060048201526024808201527f596f75206e65656420746f2061636365707420746865207265717565737420666044820152631a5c9cdd60e21b6064820152608401610320565b60006001600160a01b0316600284815481106107655761076561242d565b60009182526020909120600a600f9092020101546001600160a01b03161461079f5760405162461bcd60e51b815260040161032090612443565b336001600160a01b0316600284815481106107bc576107bc61242d565b600091825260209091206008600f9092020101546001600160a01b0316146108345760405162461bcd60e51b815260206004820152602560248201527f536f6d656f6e6520656c736520686173206163636570746564207468652052656044820152641c5d595cdd60da1b6064820152608401610320565b60006040518060800160405280336001600160a01b0316815260200142815260200184848080601f0160208091040260200160405190810160405280939291908181526020018383808284376000920182905250938552505050602090910152600280549192508291869081106108ad576108ad61242d565b90600052602060002090600f0201600a0160008201518160000160006101000a8154816001600160a01b0302191690836001600160a01b0316021790555060208201518160010155604082015181600201908161090a9190612530565b50606091909101516003909101805460ff19169115159190911790556040517f7aae710ce9f6d670ecb8ad67272894bd8e8bd7878c1f1113c2646f4e465f390f9061095c9086908690869033906125f0565b60405180910390a150505050565b6002818154811061097d5761097d61242d565b60009182526020909120600e600f90920201015460ff16156109e15760405162461bcd60e51b815260206004820152601960248201527f5468652072657175657374207761732063616e63656c6c6564000000000000006044820152606401610320565b60006001600160a01b0316600282815481106109ff576109ff61242d565b60009182526020909120600a600f9092020101546001600160a01b031614610a395760405162461bcd60e51b815260040161032090612443565b60006001600160a01b031660028281548110610a5757610a5761242d565b600091825260209091206008600f9092020101546001600160a01b03161480610ab357504260015460028381548110610a9257610a9261242d565b90600052602060002090600f020160080160010154610ab1919061241a565b105b610b255760405162461bcd60e51b815260206004820152603960248201527f546865726520616c726561647920697320616e20756e6578706972656420616360448201527f63657074616e636520666f7220746869732072657175657374000000000000006064820152608401610320565b60028181548110610b3857610b3861242d565b90600052602060002090600f0201600501543414610ba75760405162461bcd60e51b815260206004820152602660248201527f496e636f727265637420616d6f756e74206f6620696e737572616e63652070726044820152651bdd9a59195960d21b6064820152608401610320565b60006001600160a01b031660028281548110610bc557610bc561242d565b600091825260209091206008600f9092020101546001600160a01b031614610c5057600060028281548110610bfc57610bfc61242d565b600091825260209091206008600f909202010154600280546001600160a01b039092169250610c4d9184908110610c3557610c3561242d565b90600052602060002090600f02016005015482611ed2565b50505b3360028281548110610c6457610c6461242d565b90600052602060002090600f020160080160000160006101000a8154816001600160a01b0302191690836001600160a01b031602179055504260028281548110610cb057610cb061242d565b600091825260209091206009600f9092020101556040517f08f298fd72dbd217fb0a6d75ebb7814f41823b563772413db23636b1600a0aca90610d0890839033909182526001600160a01b0316602082015260400190565b60405180910390a150565b60006001600160a01b031660028281548110610d3157610d3161242d565b600091825260209091206008600f9092020101546001600160a01b031614610da65760405162461bcd60e51b815260206004820152602260248201527f596f752063616e74207075626c6963697a6520612074616b656e2072657175656044820152611cdd60f21b6064820152608401610320565b7f8d65cadb1c3c8ae25c12c040286aee7825df75a851362b5d7e16ac82555d98368160028381548110610ddb57610ddb61242d565b90600052602060002090600f02016003015460028481548110610e0057610e0061242d565b90600052602060002090600f02016004015460028581548110610e2557610e2561242d565b90600052602060002090600f02016005015460028681548110610e4a57610e4a61242d565b60009182526020918290206006600f90920201015460408051968752918601949094528401919091526060830152608082015260a001610d08565b60006001600160a01b031660028281548110610ea357610ea361242d565b600091825260209091206008600f9092020101546001600160a01b031603610f255760405162461bcd60e51b815260206004820152602f60248201527f5468657265206973206e6f206163636570746f7220666f72207468652070726f60448201526e1d9a591959081c995c5d595cdd1251608a1b6064820152608401610320565b60006001600160a01b031660028281548110610f4357610f4361242d565b60009182526020909120600a600f9092020101546001600160a01b031614610fbb5760405162461bcd60e51b815260206004820152602560248201527f54686973207265717565737420616c7265616479206861732061207375626d6960448201526439b9b4b7b760d91b6064820152608401610320565b336001600160a01b031660028281548110610fd857610fd861242d565b600091825260209091206008600f9092020101546001600160a01b0316146110685760405162461bcd60e51b815260206004820152603960248201527f596f752063616e742063616e63656c20616e20616363657074616e636520746860448201527f617420646f6573206e6f742062656c6f6e6720746f20796f75000000000000006064820152608401610320565b60006002828154811061107d5761107d61242d565b6000918252602082206008600f909202010154600280546001600160a01b03909216935090849081106110b2576110b261242d565b600091825260208220600f919091020160080180546001600160a01b0319166001600160a01b03939093169290921790915560028054849081106110f8576110f861242d565b90600052602060002090600f0201600801600101819055506000611140600284815481106111285761112861242d565b90600052602060002090600f02016005015483611ed2565b604080518581526001600160a01b0385166020820152821515918101919091529091507f233aebe1d7c90b97e1fe6ce1e226cca4feee120bc312447d954c577a9e2255e4906060016106a6565b6002818154811061119d57600080fd5b90600052602060002090600f020160009150905080600001549080600101604051806040016040529081600082015481526020016001820180546111e0906124a7565b80601f016020809104026020016040519081016040528092919081815260200182805461120c906124a7565b80156112595780601f1061122e57610100808354040283529160200191611259565b820191906000526020600020905b81548152906001019060200180831161123c57829003601f168201915b505050919092525050506003820154600483015460058401546006850154600786015460408051808201825260088901546001600160a01b03908116825260098a01546020808401919091528351608081018552600a8c01805484168252600b8d015492820192909252600c8c0180549b9c9a9b999a9899979893909616969395929490939192908401916112ed906124a7565b80601f0160208091040260200160405190810160405280929190818152602001828054611319906124a7565b80156113665780601f1061133b57610100808354040283529160200191611366565b820191906000526020600020905b81548152906001019060200180831161134957829003601f168201915b50505091835250506003919091015460ff9081161515602090920191909152600e909201549091168a565b6000600282815481106113a6576113a661242d565b60009182526020909120600e600f90920201015460ff161580156103da575060006001600160a01b0316600283815481106113e3576113e361242d565b600091825260209091206008600f9092020101546001600160a01b03161492915050565b6000806001600160a01b0316600283815481106114265761142661242d565b60009182526020909120600a600f9092020101546001600160a01b0316036114ac5760405162461bcd60e51b815260206004820152603360248201527f546865726520617265206e6f207375626d697373696f6e7320666f72207468656044820152720818da185b1b195b99d959081c995c5d595cdd606a1b6064820152608401610320565b600282815481106114bf576114bf61242d565b60009182526020909120600d600f90920201015460ff161561153c5760405162461bcd60e51b815260206004820152603060248201527f546865206368616c6c656e676564207375626d697373696f6e2068617320616c60448201526f1c9958591e481cdbdb1a591a599a595960821b6064820152608401610320565b6000600283815481106115515761155161242d565b90600052602060002090600f0201600a016002018054611570906124a7565b80601f016020809104026020016040519081016040528092919081815260200182805461159c906124a7565b80156115e95780601f106115be576101008083540402835291602001916115e9565b820191906000526020600020905b8154815290600101906020018083116115cc57829003601f168201915b505050505090506000600284815481106116055761160561242d565b90600052602060002090600f02016001016040518060400160405290816000820154815260200160018201805461163b906124a7565b80601f0160208091040260200160405190810160405280929190818152602001828054611667906124a7565b80156116b45780601f10611689576101008083540402835291602001916116b4565b820191906000526020600020905b81548152906001019060200180831161169757829003601f168201915b50505050508152505090506000600285815481106116d4576116d461242d565b600091825260209091206007600f90920201015460405163a9b1dac360e01b81526001600160a01b039091169063a9b1dac390611715908590600401612639565b600060405180830381865afa158015611732573d6000803e3d6000fd5b505050506040513d6000823e601f3d908101601f1916820160405261175a91908101906126a5565b90507f0a3dfd2216a2448c62e6f94b05a7686722a4de162a822b40701563c5a19fe7ee858260405161178d929190612721565b60405180910390a180805190602001208380519060200120146118b657604080516080810182523381524260208201529081018290526000606082015260028054829190889081106117e1576117e161242d565b90600052602060002090600f0201600a0160008201518160000160006101000a8154816001600160a01b0302191690836001600160a01b0316021790555060208201518160010155604082015181600201908161183e9190612530565b50606091909101516003909101805460ff1916911515919091179055600061186587611f03565b604080518981523360208201528215158183015290519192507f3da0edc911d0bffdd668df0c923ada9e815790bb431e664403ec3ddfcfcb2c36919081900360600190a15060019695505050505050565b60006118c186611f03565b90507f3da0edc911d0bffdd668df0c923ada9e815790bb431e664403ec3ddfcfcb2c3686600288815481106118f8576118f861242d565b6000918252602091829020600f90910201600a0154604080519384526001600160a01b03909116918301919091528315159082015260600160405180910390a150600095945050505050565b6000806001600160a01b0316600283815481106119635761196361242d565b60009182526020909120600a600f9092020101546001600160a01b0316036119e75760405162461bcd60e51b815260206004820152603160248201527f546865726520617265206e6f207375626d697373696f6e7320666f7220746865604482015270081c1c9bdd9a591959081c995c5d595cdd607a1b6064820152608401610320565b336001600160a01b031660028381548110611a0457611a0461242d565b60009182526020909120600a600f9092020101546001600160a01b031614611a7a5760405162461bcd60e51b815260206004820152602360248201527f54686973207061796d656e7420646f6573206e6f742062656c6f6e6720746f20604482015262796f7560e81b6064820152608401610320565b60028281548110611a8d57611a8d61242d565b60009182526020909120600d600f90920201015460ff1615611b055760405162461bcd60e51b815260206004820152602b60248201527f5468652070726f766964656420726571756573742068617320616c726561647960448201526a081cdbdb1a591a599a595960aa1b6064820152608401610320565b4260028381548110611b1957611b1961242d565b90600052602060002090600f02016006015460028481548110611b3e57611b3e61242d565b90600052602060002090600f0201600a0160010154611b5d919061241a565b10611bb45760405162461bcd60e51b815260206004820152602160248201527f54686520636c61696d2064656c6179206861736e2774207061737365642079656044820152601d60fa1b6064820152608401610320565b6000611bbf83611f03565b9392505050565b6000833411611c3d5760405162461bcd60e51b815260206004820152603f60248201527f54686520706f73742070726f63657373696e67206761732063616e6e6f74207460448201527f616b65757020616c6c206f662074686520737570706c696564206574686572006064820152608401610320565b6040805180820182526000808252602080830182905283516080810185528281528082018390528451808301849052855180820384018152908601865281860152606081018390528451610140810190955260025485529293908101611ca28a61273a565b8152602001348152602001888152602001878152602001868152602001336001600160a01b031681526020018481526020018381526020016000151581525090507f8d65cadb1c3c8ae25c12c040286aee7825df75a851362b5d7e16ac82555d9836816000015134898989604051611d3c959493929190948552602085019390935260408401919091526060830152608082015260a00190565b60405180910390a1600280546001810182556000919091528151600f9091027f405787fa12a823e0f2b7631cc41b3ba8828b3321ca811111fa75cd3aa3bb5ace810191825560208084015180517f405787fa12a823e0f2b7631cc41b3ba8828b3321ca811111fa75cd3aa3bb5acf8401908155918101518594939192917f405787fa12a823e0f2b7631cc41b3ba8828b3321ca811111fa75cd3aa3bb5ad00190611de69082612530565b5050506040828101516003830155606083015160048301556080830151600583015560a0830151600683015560c08301516007830180546001600160a01b039283166001600160a01b03199182161790915560e0850151805160088601805491851691841691909117905560209081015160098601556101008601518051600a87018054919095169316929092178355810151600b85015591820151600c840190611e919082612530565b50606091909101516003909101805491151560ff199283161790556101209290920151600e9091018054911515919092161790555192505050949350505050565b33600090815260208190526040812080548491908390611ef390849061241a565b90915550611bbf905083836102bb565b6000600160028381548110611f1a57611f1a61242d565b6000918252602091829020600f90910201600d01805460ff1916921515929092179091556040518381527f5a80336cedd647533d99fefc5a4618f060834efa1a3e774e2728c9874a491d38910160405180910390a1600060028381548110611f8457611f8461242d565b600091825260208220600a600f909202010154600280546001600160a01b0390921693509085908110611fb957611fb961242d565b90600052602060002090600f02016005015460028581548110611fde57611fde61242d565b90600052602060002090600f020160030154611ffa919061241a565b905060006120088284611ed2565b9050600063cb39274760e01b600287815481106120275761202761242d565b90600052602060002090600f0201600a0160020160405160240161204b91906127e3565b604051602081830303815290604052906001600160e01b0319166020820180516001600160e01b03838183161783525050505090506000600287815481106120955761209561242d565b600091825260209091206007600f909202010154600280546001600160a01b0390921691899081106120c9576120c961242d565b90600052602060002090600f020160040154836040516120e9919061286e565b60006040518083038160008787f1925050503d8060008114612127576040519150601f19603f3d011682016040523d82523d6000602084013e61212c565b606091505b50506040805189815282151560208201529192507fa531c8f4bbf2a18049d85528bb5aaae66874af94bcb325738ee729a2b6cf8428910160405180910390a1509095945050505050565b80356001600160a01b038116811461218d57600080fd5b919050565b600080604083850312156121a557600080fd5b823591506121b560208401612176565b90509250929050565b6000602082840312156121d057600080fd5b5035919050565b6000806000604084860312156121ec57600080fd5b83359250602084013567ffffffffffffffff8082111561220b57600080fd5b818601915086601f83011261221f57600080fd5b81358181111561222e57600080fd5b87602082850101111561224057600080fd5b6020830194508093505050509250925092565b60006020828403121561226557600080fd5b611bbf82612176565b60005b83811015612289578181015183820152602001612271565b50506000910152565b600081518084526122aa81602086016020860161226e565b601f01601f19169290920160200192915050565b8051825260006020820151604060208501526122dd6040850182612292565b949350505050565b60006101608c83528060208401526122ff8184018d6122be565b90508a60408401528960608401528860808401528760a084015260018060a01b0380881660c08501528087511660e08501526020870151610100850152838203610120850152808651168252506020850151602082015260408501516080604083015261236f6080830182612292565b60608781015115159301929092525083151561014084015290509b9a5050505050505050505050565b600080600080608085870312156123ae57600080fd5b843567ffffffffffffffff8111156123c557600080fd5b8501604081880312156123d757600080fd5b966020860135965060408601359560600135945092505050565b634e487b7160e01b600052601160045260246000fd5b818103818111156103da576103da6123f1565b808201808211156103da576103da6123f1565b634e487b7160e01b600052603260045260246000fd5b6020808252602e908201527f546865726520697320616c72656164792061207375626d697373696f6e20666f60408201526d1c881d1a1a5cc81c995c5d595cdd60921b606082015260800190565b634e487b7160e01b600052604160045260246000fd5b600181811c908216806124bb57607f821691505b6020821081036124db57634e487b7160e01b600052602260045260246000fd5b50919050565b601f82111561252b57600081815260208120601f850160051c810160208610156125085750805b601f850160051c820191505b8181101561252757828155600101612514565b5050505b505050565b815167ffffffffffffffff81111561254a5761254a612491565b61255e8161255884546124a7565b846124e1565b602080601f831160018114612593576000841561257b5750858301515b600019600386901b1c1916600185901b178555612527565b600085815260208120601f198616915b828110156125c2578886015182559484019460019091019084016125a3565b50858210156125e05787850151600019600388901b60f8161c191681555b5050505050600190811b01905550565b848152606060208201528260608201528284608083013760008184016080908101919091526001600160a01b03929092166040820152601f909201601f19169091010192915050565b602081526000611bbf60208301846122be565b604051601f8201601f1916810167ffffffffffffffff8111828210171561267557612675612491565b604052919050565b600067ffffffffffffffff82111561269757612697612491565b50601f01601f191660200190565b6000602082840312156126b757600080fd5b815167ffffffffffffffff8111156126ce57600080fd5b8201601f810184136126df57600080fd5b80516126f26126ed8261267d565b61264c565b81815285602083850101111561270757600080fd5b61271882602083016020860161226e565b95945050505050565b8281526040602082015260006122dd6040830184612292565b60006040823603121561274c57600080fd5b6040516040810167ffffffffffffffff828210818311171561277057612770612491565b816040528435835260209150818501358181111561278d57600080fd5b8501905036601f8201126127a057600080fd5b80356127ae6126ed8261267d565b81815236848385010111156127c257600080fd5b81848401858301376000918101840191909152918301919091525092915050565b60006020808352600084546127f7816124a7565b80848701526040600180841660008114612818576001811461283257612860565b60ff1985168984015283151560051b890183019550612860565b896000528660002060005b858110156128585781548b820186015290830190880161283d565b8a0184019650505b509398975050505050505050565b6000825161288081846020870161226e565b919091019291505056fea264697066735822122024e3436f750974c68fc5eb88c3d69f90d06704d56679a05b8ca5bd0e611a602864736f6c63430008130033",
  "bytecodeSha1": "aadc14b63a1646ecbfeb0c96c99e9fb750fe913f",
  "compiler": {
    "evm_version": "istanbul",
    "optimizer": {
      "enabled": true,
      "runs": 200
    },
    "version": "0.8.19+commit.7dd6d404"
  },
  "contractName": "ExecutionBroker",
  "language": "Solidity",
  "natspec": {
    "kind": "dev",
    "methods": {},
    "version": 1
  },
  "opcodes": "PUSH1 0x80 PUSH1 0x40 MSTORE PUSH1 0x4 CALLDATASIZE LT PUSH2 0xDD JUMPI PUSH1 0x0 CALLDATALOAD PUSH1 0xE0 SHR DUP1 PUSH4 0x5BADBE4C GT PUSH2 0x7F JUMPI DUP1 PUSH4 0x8274FBF5 GT PUSH2 0x59 JUMPI DUP1 PUSH4 0x8274FBF5 EQ PUSH2 0x248 JUMPI DUP1 PUSH4 0xB2C221F2 EQ PUSH2 0x268 JUMPI DUP1 PUSH4 0xC63FDCC7 EQ PUSH2 0x288 JUMPI DUP1 PUSH4 0xD900F934 EQ PUSH2 0x2A8 JUMPI PUSH1 0x0 DUP1 REVERT JUMPDEST DUP1 PUSH4 0x5BADBE4C EQ PUSH2 0x1D0 JUMPI DUP1 PUSH4 0x6EF9E145 EQ PUSH2 0x1E5 JUMPI DUP1 PUSH4 0x81D12C58 EQ PUSH2 0x212 JUMPI PUSH1 0x0 DUP1 REVERT JUMPDEST DUP1 PUSH4 0x49875DB2 GT PUSH2 0xBB JUMPI DUP1 PUSH4 0x49875DB2 EQ PUSH2 0x15D JUMPI DUP1 PUSH4 0x4BA1F098 EQ PUSH2 0x17D JUMPI DUP1 PUSH4 0x540A6178 EQ PUSH2 0x190 JUMPI DUP1 PUSH4 0x54C7D906 EQ PUSH2 0x1B0 JUMPI PUSH1 0x0 DUP1 REVERT JUMPDEST DUP1 PUSH4 0x3F94DBD EQ PUSH2 0xE2 JUMPI DUP1 PUSH4 0xD45C199 EQ PUSH2 0x10B JUMPI DUP1 PUSH4 0x3015394C EQ PUSH2 0x13B JUMPI JUMPDEST PUSH1 0x0 DUP1 REVERT JUMPDEST CALLVALUE DUP1 ISZERO PUSH2 0xEE JUMPI PUSH1 0x0 DUP1 REVERT JUMPDEST POP PUSH2 0xF8 PUSH1 0x1 SLOAD DUP2 JUMP JUMPDEST PUSH1 0x40 MLOAD SWAP1 DUP2 MSTORE PUSH1 0x20 ADD JUMPDEST PUSH1 0x40 MLOAD DUP1 SWAP2 SUB SWAP1 RETURN JUMPDEST CALLVALUE DUP1 ISZERO PUSH2 0x117 JUMPI PUSH1 0x0 DUP1 REVERT JUMPDEST POP PUSH2 0x12B PUSH2 0x126 CALLDATASIZE PUSH1 0x4 PUSH2 0x2192 JUMP JUMPDEST PUSH2 0x2BB JUMP JUMPDEST PUSH1 0x40 MLOAD SWAP1 ISZERO ISZERO DUP2 MSTORE PUSH1 0x20 ADD PUSH2 0x102 JUMP JUMPDEST CALLVALUE DUP1 ISZERO PUSH2 0x147 JUMPI PUSH1 0x0 DUP1 REVERT JUMPDEST POP PUSH2 0x15B PUSH2 0x156 CALLDATASIZE PUSH1 0x4 PUSH2 0x21BE JUMP JUMPDEST PUSH2 0x3E0 JUMP JUMPDEST STOP JUMPDEST CALLVALUE DUP1 ISZERO PUSH2 0x169 JUMPI PUSH1 0x0 DUP1 REVERT JUMPDEST POP PUSH2 0x15B PUSH2 0x178 CALLDATASIZE PUSH1 0x4 PUSH2 0x21D7 JUMP JUMPDEST PUSH2 0x6B3 JUMP JUMPDEST PUSH2 0x15B PUSH2 0x18B CALLDATASIZE PUSH1 0x4 PUSH2 0x21BE JUMP JUMPDEST PUSH2 0x96A JUMP JUMPDEST CALLVALUE DUP1 ISZERO PUSH2 0x19C JUMPI PUSH1 0x0 DUP1 REVERT JUMPDEST POP PUSH2 0x15B PUSH2 0x1AB CALLDATASIZE PUSH1 0x4 PUSH2 0x21BE JUMP JUMPDEST PUSH2 0xD13 JUMP JUMPDEST CALLVALUE DUP1 ISZERO PUSH2 0x1BC JUMPI PUSH1 0x0 DUP1 REVERT JUMPDEST POP PUSH2 0x15B PUSH2 0x1CB CALLDATASIZE PUSH1 0x4 PUSH2 0x21BE JUMP JUMPDEST PUSH2 0xE85 JUMP JUMPDEST CALLVALUE DUP1 ISZERO PUSH2 0x1DC JUMPI PUSH1 0x0 DUP1 REVERT JUMPDEST POP PUSH1 0x2 SLOAD PUSH2 0xF8 JUMP JUMPDEST CALLVALUE DUP1 ISZERO PUSH2 0x1F1 JUMPI PUSH1 0x0 DUP1 REVERT JUMPDEST POP PUSH2 0xF8 PUSH2 0x200 CALLDATASIZE PUSH1 0x4 PUSH2 0x2253 JUMP JUMPDEST PUSH1 0x0 PUSH1 0x20 DUP2 SWAP1 MSTORE SWAP1 DUP2 MSTORE PUSH1 0x40 SWAP1 KECCAK256 SLOAD DUP2 JUMP JUMPDEST CALLVALUE DUP1 ISZERO PUSH2 0x21E JUMPI PUSH1 0x0 DUP1 REVERT JUMPDEST POP PUSH2 0x232 PUSH2 0x22D CALLDATASIZE PUSH1 0x4 PUSH2 0x21BE JUMP JUMPDEST PUSH2 0x118D JUMP JUMPDEST PUSH1 0x40 MLOAD PUSH2 0x102 SWAP11 SWAP10 SWAP9 SWAP8 SWAP7 SWAP6 SWAP5 SWAP4 SWAP3 SWAP2 SWAP1 PUSH2 0x22E5 JUMP JUMPDEST CALLVALUE DUP1 ISZERO PUSH2 0x254 JUMPI PUSH1 0x0 DUP1 REVERT JUMPDEST POP PUSH2 0x12B PUSH2 0x263 CALLDATASIZE PUSH1 0x4 PUSH2 0x21BE JUMP JUMPDEST PUSH2 0x1391 JUMP JUMPDEST CALLVALUE DUP1 ISZERO PUSH2 0x274 JUMPI PUSH1 0x0 DUP1 REVERT JUMPDEST POP PUSH2 0x12B PUSH2 0x283 CALLDATASIZE PUSH1 0x4 PUSH2 0x21BE JUMP JUMPDEST PUSH2 0x1407 JUMP JUMPDEST CALLVALUE DUP1 ISZERO PUSH2 0x294 JUMPI PUSH1 0x0 DUP1 REVERT JUMPDEST POP PUSH2 0x12B PUSH2 0x2A3 CALLDATASIZE PUSH1 0x4 PUSH2 0x21BE JUMP JUMPDEST PUSH2 0x1944 JUMP JUMPDEST PUSH2 0xF8 PUSH2 0x2B6 CALLDATASIZE PUSH1 0x4 PUSH2 0x2398 JUMP JUMPDEST PUSH2 0x1BC6 JUMP JUMPDEST CALLER PUSH1 0x0 SWAP1 DUP2 MSTORE PUSH1 0x20 DUP2 SWAP1 MSTORE PUSH1 0x40 DUP2 KECCAK256 SLOAD DUP4 GT ISZERO PUSH2 0x329 JUMPI PUSH1 0x40 MLOAD PUSH3 0x461BCD PUSH1 0xE5 SHL DUP2 MSTORE PUSH1 0x20 PUSH1 0x4 DUP3 ADD MSTORE PUSH1 0x21 PUSH1 0x24 DUP3 ADD MSTORE PUSH32 0x53656E64657220646F6573206E6F74206861766520656E6F7567682066756E64 PUSH1 0x44 DUP3 ADD MSTORE PUSH1 0x73 PUSH1 0xF8 SHL PUSH1 0x64 DUP3 ADD MSTORE PUSH1 0x84 ADD JUMPDEST PUSH1 0x40 MLOAD DUP1 SWAP2 SUB SWAP1 REVERT JUMPDEST CALLER PUSH1 0x0 SWAP1 DUP2 MSTORE PUSH1 0x20 DUP2 SWAP1 MSTORE PUSH1 0x40 DUP2 KECCAK256 DUP1 SLOAD DUP6 SWAP3 SWAP1 PUSH2 0x348 SWAP1 DUP5 SWAP1 PUSH2 0x2407 JUMP JUMPDEST SWAP1 SWAP2 SSTORE POP POP PUSH1 0x40 MLOAD DUP3 SWAP1 PUSH1 0x0 SWAP1 PUSH1 0x1 PUSH1 0x1 PUSH1 0xA0 SHL SUB DUP4 AND SWAP1 DUP7 SWAP1 DUP4 DUP2 DUP2 DUP2 DUP6 DUP8 GAS CALL SWAP3 POP POP POP RETURNDATASIZE DUP1 PUSH1 0x0 DUP2 EQ PUSH2 0x39A JUMPI PUSH1 0x40 MLOAD SWAP2 POP PUSH1 0x1F NOT PUSH1 0x3F RETURNDATASIZE ADD AND DUP3 ADD PUSH1 0x40 MSTORE RETURNDATASIZE DUP3 MSTORE RETURNDATASIZE PUSH1 0x0 PUSH1 0x20 DUP5 ADD RETURNDATACOPY PUSH2 0x39F JUMP JUMPDEST PUSH1 0x60 SWAP2 POP JUMPDEST POP POP SWAP1 POP DUP1 PUSH2 0x3D6 JUMPI PUSH1 0x1 PUSH1 0x1 PUSH1 0xA0 SHL SUB DUP5 AND PUSH1 0x0 SWAP1 DUP2 MSTORE PUSH1 0x20 DUP2 SWAP1 MSTORE PUSH1 0x40 DUP2 KECCAK256 DUP1 SLOAD DUP8 SWAP3 SWAP1 PUSH2 0x3D0 SWAP1 DUP5 SWAP1 PUSH2 0x241A JUMP JUMPDEST SWAP1 SWAP2 SSTORE POP POP JUMPDEST SWAP2 POP POP JUMPDEST SWAP3 SWAP2 POP POP JUMP JUMPDEST PUSH1 0x2 SLOAD DUP2 LT PUSH2 0x426 JUMPI PUSH1 0x40 MLOAD PUSH3 0x461BCD PUSH1 0xE5 SHL DUP2 MSTORE PUSH1 0x20 PUSH1 0x4 DUP3 ADD MSTORE PUSH1 0x12 PUSH1 0x24 DUP3 ADD MSTORE PUSH18 0x496E646578206F7574206F662072616E6765 PUSH1 0x70 SHL PUSH1 0x44 DUP3 ADD MSTORE PUSH1 0x64 ADD PUSH2 0x320 JUMP JUMPDEST PUSH1 0x2 DUP2 DUP2 SLOAD DUP2 LT PUSH2 0x439 JUMPI PUSH2 0x439 PUSH2 0x242D JUMP JUMPDEST PUSH1 0x0 SWAP2 DUP3 MSTORE PUSH1 0x20 SWAP1 SWAP2 KECCAK256 PUSH1 0xE PUSH1 0xF SWAP1 SWAP3 MUL ADD ADD SLOAD PUSH1 0xFF AND ISZERO PUSH2 0x4A7 JUMPI PUSH1 0x40 MLOAD PUSH3 0x461BCD PUSH1 0xE5 SHL DUP2 MSTORE PUSH1 0x20 PUSH1 0x4 DUP3 ADD MSTORE PUSH1 0x21 PUSH1 0x24 DUP3 ADD MSTORE PUSH32 0x54686520726571756573742077617320616C72656164792063616E63656C6C65 PUSH1 0x44 DUP3 ADD MSTORE PUSH1 0x19 PUSH1 0xFA SHL PUSH1 0x64 DUP3 ADD MSTORE PUSH1 0x84 ADD PUSH2 0x320 JUMP JUMPDEST PUSH1 0x2 DUP2 DUP2 SLOAD DUP2 LT PUSH2 0x4BA JUMPI PUSH2 0x4BA PUSH2 0x242D JUMP JUMPDEST PUSH1 0x0 SWAP2 DUP3 MSTORE PUSH1 0x20 SWAP1 SWAP2 KECCAK256 PUSH1 0xF SWAP1 SWAP2 MUL ADD PUSH1 0x7 ADD SLOAD PUSH1 0x1 PUSH1 0x1 PUSH1 0xA0 SHL SUB AND CALLER EQ PUSH2 0x540 JUMPI PUSH1 0x40 MLOAD PUSH3 0x461BCD PUSH1 0xE5 SHL DUP2 MSTORE PUSH1 0x20 PUSH1 0x4 DUP3 ADD MSTORE PUSH1 0x32 PUSH1 0x24 DUP3 ADD MSTORE PUSH32 0x596F752063616E742063616E63656C2061207265717565737420746861742077 PUSH1 0x44 DUP3 ADD MSTORE PUSH18 0x6173206E6F74206D61646520627920796F75 PUSH1 0x70 SHL PUSH1 0x64 DUP3 ADD MSTORE PUSH1 0x84 ADD PUSH2 0x320 JUMP JUMPDEST PUSH1 0x0 PUSH1 0x1 PUSH1 0x1 PUSH1 0xA0 SHL SUB AND PUSH1 0x2 DUP3 DUP2 SLOAD DUP2 LT PUSH2 0x55E JUMPI PUSH2 0x55E PUSH2 0x242D JUMP JUMPDEST PUSH1 0x0 SWAP2 DUP3 MSTORE PUSH1 0x20 SWAP1 SWAP2 KECCAK256 PUSH1 0x8 PUSH1 0xF SWAP1 SWAP3 MUL ADD ADD SLOAD PUSH1 0x1 PUSH1 0x1 PUSH1 0xA0 SHL SUB AND EQ PUSH2 0x5D4 JUMPI PUSH1 0x40 MLOAD PUSH3 0x461BCD PUSH1 0xE5 SHL DUP2 MSTORE PUSH1 0x20 PUSH1 0x4 DUP3 ADD MSTORE PUSH1 0x23 PUSH1 0x24 DUP3 ADD MSTORE PUSH32 0x596F752063616E742063616E63656C20616E2061636365707465642072657175 PUSH1 0x44 DUP3 ADD MSTORE PUSH3 0x195CDD PUSH1 0xEA SHL PUSH1 0x64 DUP3 ADD MSTORE PUSH1 0x84 ADD PUSH2 0x320 JUMP JUMPDEST PUSH1 0x1 PUSH1 0x2 DUP3 DUP2 SLOAD DUP2 LT PUSH2 0x5E9 JUMPI PUSH2 0x5E9 PUSH2 0x242D JUMP JUMPDEST PUSH1 0x0 SWAP2 DUP3 MSTORE PUSH1 0x20 DUP3 KECCAK256 PUSH1 0xF SWAP2 SWAP1 SWAP2 MUL ADD PUSH1 0xE ADD DUP1 SLOAD PUSH1 0xFF NOT AND SWAP3 ISZERO ISZERO SWAP3 SWAP1 SWAP3 OR SWAP1 SWAP2 SSTORE PUSH1 0x2 DUP1 SLOAD DUP4 SWAP1 DUP2 LT PUSH2 0x620 JUMPI PUSH2 0x620 PUSH2 0x242D JUMP JUMPDEST PUSH1 0x0 SWAP2 DUP3 MSTORE PUSH1 0x20 DUP3 KECCAK256 PUSH1 0x7 PUSH1 0xF SWAP1 SWAP3 MUL ADD ADD SLOAD PUSH1 0x2 DUP1 SLOAD PUSH1 0x1 PUSH1 0x1 PUSH1 0xA0 SHL SUB SWAP1 SWAP3 AND SWAP4 POP PUSH2 0x670 SWAP2 DUP6 SWAP1 DUP2 LT PUSH2 0x658 JUMPI PUSH2 0x658 PUSH2 0x242D JUMP JUMPDEST SWAP1 PUSH1 0x0 MSTORE PUSH1 0x20 PUSH1 0x0 KECCAK256 SWAP1 PUSH1 0xF MUL ADD PUSH1 0x3 ADD SLOAD DUP4 PUSH2 0x1ED2 JUMP JUMPDEST PUSH1 0x40 DUP1 MLOAD DUP6 DUP2 MSTORE DUP3 ISZERO ISZERO PUSH1 0x20 DUP3 ADD MSTORE SWAP2 SWAP3 POP PUSH32 0x84CDFA87C52A6C23A244B289457DE2D062D5DA21BEA2AEABF5227DA0E1867688 SWAP2 ADD JUMPDEST PUSH1 0x40 MLOAD DUP1 SWAP2 SUB SWAP1 LOG1 POP POP POP JUMP JUMPDEST PUSH1 0x0 PUSH1 0x1 PUSH1 0x1 PUSH1 0xA0 SHL SUB AND PUSH1 0x2 DUP5 DUP2 SLOAD DUP2 LT PUSH2 0x6D1 JUMPI PUSH2 0x6D1 PUSH2 0x242D JUMP JUMPDEST PUSH1 0x0 SWAP2 DUP3 MSTORE PUSH1 0x20 SWAP1 SWAP2 KECCAK256 PUSH1 0x8 PUSH1 0xF SWAP1 SWAP3 MUL ADD ADD SLOAD PUSH1 0x1 PUSH1 0x1 PUSH1 0xA0 SHL SUB AND SUB PUSH2 0x747 JUMPI PUSH1 0x40 MLOAD PUSH3 0x461BCD PUSH1 0xE5 SHL DUP2 MSTORE PUSH1 0x20 PUSH1 0x4 DUP3 ADD MSTORE PUSH1 0x24 DUP1 DUP3 ADD MSTORE PUSH32 0x596F75206E65656420746F206163636570742074686520726571756573742066 PUSH1 0x44 DUP3 ADD MSTORE PUSH4 0x1A5C9CDD PUSH1 0xE2 SHL PUSH1 0x64 DUP3 ADD MSTORE PUSH1 0x84 ADD PUSH2 0x320 JUMP JUMPDEST PUSH1 0x0 PUSH1 0x1 PUSH1 0x1 PUSH1 0xA0 SHL SUB AND PUSH1 0x2 DUP5 DUP2 SLOAD DUP2 LT PUSH2 0x765 JUMPI PUSH2 0x765 PUSH2 0x242D JUMP JUMPDEST PUSH1 0x0 SWAP2 DUP3 MSTORE PUSH1 0x20 SWAP1 SWAP2 KECCAK256 PUSH1 0xA PUSH1 0xF SWAP1 SWAP3 MUL ADD ADD SLOAD PUSH1 0x1 PUSH1 0x1 PUSH1 0xA0 SHL SUB AND EQ PUSH2 0x79F JUMPI PUSH1 0x40 MLOAD PUSH3 0x461BCD PUSH1 0xE5 SHL DUP2 MSTORE PUSH1 0x4 ADD PUSH2 0x320 SWAP1 PUSH2 0x2443 JUMP JUMPDEST CALLER PUSH1 0x1 PUSH1 0x1 PUSH1 0xA0 SHL SUB AND PUSH1 0x2 DUP5 DUP2 SLOAD DUP2 LT PUSH2 0x7BC JUMPI PUSH2 0x7BC PUSH2 0x242D JUMP JUMPDEST PUSH1 0x0 SWAP2 DUP3 MSTORE PUSH1 0x20 SWAP1 SWAP2 KECCAK256 PUSH1 0x8 PUSH1 0xF SWAP1 SWAP3 MUL ADD ADD SLOAD PUSH1 0x1 PUSH1 0x1 PUSH1 0xA0 SHL SUB AND EQ PUSH2 0x834 JUMPI PUSH1 0x40 MLOAD PUSH3 0x461BCD PUSH1 0xE5 SHL DUP2 MSTORE PUSH1 0x20 PUSH1 0x4 DUP3 ADD MSTORE PUSH1 0x25 PUSH1 0x24 DUP3 ADD MSTORE PUSH32 0x536F6D656F6E6520656C73652068617320616363657074656420746865205265 PUSH1 0x44 DUP3 ADD MSTORE PUSH5 0x1C5D595CDD PUSH1 0xDA SHL PUSH1 0x64 DUP3 ADD MSTORE PUSH1 0x84 ADD PUSH2 0x320 JUMP JUMPDEST PUSH1 0x0 PUSH1 0x40 MLOAD DUP1 PUSH1 0x80 ADD PUSH1 0x40 MSTORE DUP1 CALLER PUSH1 0x1 PUSH1 0x1 PUSH1 0xA0 SHL SUB AND DUP2 MSTORE PUSH1 0x20 ADD TIMESTAMP DUP2 MSTORE PUSH1 0x20 ADD DUP5 DUP5 DUP1 DUP1 PUSH1 0x1F ADD PUSH1 0x20 DUP1 SWAP2 DIV MUL PUSH1 0x20 ADD PUSH1 0x40 MLOAD SWAP1 DUP2 ADD PUSH1 0x40 MSTORE DUP1 SWAP4 SWAP3 SWAP2 SWAP1 DUP2 DUP2 MSTORE PUSH1 0x20 ADD DUP4 DUP4 DUP1 DUP3 DUP5 CALLDATACOPY PUSH1 0x0 SWAP3 ADD DUP3 SWAP1 MSTORE POP SWAP4 DUP6 MSTORE POP POP POP PUSH1 0x20 SWAP1 SWAP2 ADD MSTORE PUSH1 0x2 DUP1 SLOAD SWAP2 SWAP3 POP DUP3 SWAP2 DUP7 SWAP1 DUP2 LT PUSH2 0x8AD JUMPI PUSH2 0x8AD PUSH2 0x242D JUMP JUMPDEST SWAP1 PUSH1 0x0 MSTORE PUSH1 0x20 PUSH1 0x0 KECCAK256 SWAP1 PUSH1 0xF MUL ADD PUSH1 0xA ADD PUSH1 0x0 DUP3 ADD MLOAD DUP2 PUSH1 0x0 ADD PUSH1 0x0 PUSH2 0x100 EXP DUP2 SLOAD DUP2 PUSH1 0x1 PUSH1 0x1 PUSH1 0xA0 SHL SUB MUL NOT AND SWAP1 DUP4 PUSH1 0x1 PUSH1 0x1 PUSH1 0xA0 SHL SUB AND MUL OR SWAP1 SSTORE POP PUSH1 0x20 DUP3 ADD MLOAD DUP2 PUSH1 0x1 ADD SSTORE PUSH1 0x40 DUP3 ADD MLOAD DUP2 PUSH1 0x2 ADD SWAP1 DUP2 PUSH2 0x90A SWAP2 SWAP1 PUSH2 0x2530 JUMP JUMPDEST POP PUSH1 0x60 SWAP2 SWAP1 SWAP2 ADD MLOAD PUSH1 0x3 SWAP1 SWAP2 ADD DUP1 SLOAD PUSH1 0xFF NOT AND SWAP2 ISZERO ISZERO SWAP2 SWAP1 SWAP2 OR SWAP1 SSTORE PUSH1 0x40 MLOAD PUSH32 0x7AAE710CE9F6D670ECB8AD67272894BD8E8BD7878C1F1113C2646F4E465F390F SWAP1 PUSH2 0x95C SWAP1 DUP7 SWAP1 DUP7 SWAP1 DUP7 SWAP1 CALLER SWAP1 PUSH2 0x25F0 JUMP JUMPDEST PUSH1 0x40 MLOAD DUP1 SWAP2 SUB SWAP1 LOG1 POP POP POP POP JUMP JUMPDEST PUSH1 0x2 DUP2 DUP2 SLOAD DUP2 LT PUSH2 0x97D JUMPI PUSH2 0x97D PUSH2 0x242D JUMP JUMPDEST PUSH1 0x0 SWAP2 DUP3 MSTORE PUSH1 0x20 SWAP1 SWAP2 KECCAK256 PUSH1 0xE PUSH1 0xF SWAP1 SWAP3 MUL ADD ADD SLOAD PUSH1 0xFF AND ISZERO PUSH2 0x9E1 JUMPI PUSH1 0x40 MLOAD PUSH3 0x461BCD PUSH1 0xE5 SHL DUP2 MSTORE PUSH1 0x20 PUSH1 0x4 DUP3 ADD MSTORE PUSH1 0x19 PUSH1 0x24 DUP3 ADD MSTORE PUSH32 0x5468652072657175657374207761732063616E63656C6C656400000000000000 PUSH1 0x44 DUP3 ADD MSTORE PUSH1 0x64 ADD PUSH2 0x320 JUMP JUMPDEST PUSH1 0x0 PUSH1 0x1 PUSH1 0x1 PUSH1 0xA0 SHL SUB AND PUSH1 0x2 DUP3 DUP2 SLOAD DUP2 LT PUSH2 0x9FF JUMPI PUSH2 0x9FF PUSH2 0x242D JUMP JUMPDEST PUSH1 0x0 SWAP2 DUP3 MSTORE PUSH1 0x20 SWAP1 SWAP2 KECCAK256 PUSH1 0xA PUSH1 0xF SWAP1 SWAP3 MUL ADD ADD SLOAD PUSH1 0x1 PUSH1 0x1 PUSH1 0xA0 SHL SUB AND EQ PUSH2 0xA39 JUMPI PUSH1 0x40 MLOAD PUSH3 0x461BCD PUSH1 0xE5 SHL DUP2 MSTORE PUSH1 0x4 ADD PUSH2 0x320 SWAP1 PUSH2 0x2443 JUMP JUMPDEST PUSH1 0x0 PUSH1 0x1 PUSH1 0x1 PUSH1 0xA0 SHL SUB AND PUSH1 0x2 DUP3 DUP2 SLOAD DUP2 LT PUSH2 0xA57 JUMPI PUSH2 0xA57 PUSH2 0x242D JUMP JUMPDEST PUSH1 0x0 SWAP2 DUP3 MSTORE PUSH1 0x20 SWAP1 SWAP2 KECCAK256 PUSH1 0x8 PUSH1 0xF SWAP1 SWAP3 MUL ADD ADD SLOAD PUSH1 0x1 PUSH1 0x1 PUSH1 0xA0 SHL SUB AND EQ DUP1 PUSH2 0xAB3 JUMPI POP TIMESTAMP PUSH1 0x1 SLOAD PUSH1 0x2 DUP4 DUP2 SLOAD DUP2 LT PUSH2 0xA92 JUMPI PUSH2 0xA92 PUSH2 0x242D JUMP JUMPDEST SWAP1 PUSH1 0x0 MSTORE PUSH1 0x20 PUSH1 0x0 KECCAK256 SWAP1 PUSH1 0xF MUL ADD PUSH1 0x8 ADD PUSH1 0x1 ADD SLOAD PUSH2 0xAB1 SWAP2 SWAP1 PUSH2 0x241A JUMP JUMPDEST LT JUMPDEST PUSH2 0xB25 JUMPI PUSH1 0x40 MLOAD PUSH3 0x461BCD PUSH1 0xE5 SHL DUP2 MSTORE PUSH1 0x20 PUSH1 0x4 DUP3 ADD MSTORE PUSH1 0x39 PUSH1 0x24 DUP3 ADD MSTORE PUSH32 0x546865726520616C726561647920697320616E20756E65787069726564206163 PUSH1 0x44 DUP3 ADD MSTORE PUSH32 0x63657074616E636520666F722074686973207265717565737400000000000000 PUSH1 0x64 DUP3 ADD MSTORE PUSH1 0x84 ADD PUSH2 0x320 JUMP JUMPDEST PUSH1 0x2 DUP2 DUP2 SLOAD DUP2 LT PUSH2 0xB38 JUMPI PUSH2 0xB38 PUSH2 0x242D JUMP JUMPDEST SWAP1 PUSH1 0x0 MSTORE PUSH1 0x20 PUSH1 0x0 KECCAK256 SWAP1 PUSH1 0xF MUL ADD PUSH1 0x5 ADD SLOAD CALLVALUE EQ PUSH2 0xBA7 JUMPI PUSH1 0x40 MLOAD PUSH3 0x461BCD PUSH1 0xE5 SHL DUP2 MSTORE PUSH1 0x20 PUSH1 0x4 DUP3 ADD MSTORE PUSH1 0x26 PUSH1 0x24 DUP3 ADD MSTORE PUSH32 0x496E636F727265637420616D6F756E74206F6620696E737572616E6365207072 PUSH1 0x44 DUP3 ADD MSTORE PUSH6 0x1BDD9A591959 PUSH1 0xD2 SHL PUSH1 0x64 DUP3 ADD MSTORE PUSH1 0x84 ADD PUSH2 0x320 JUMP JUMPDEST PUSH1 0x0 PUSH1 0x1 PUSH1 0x1 PUSH1 0xA0 SHL SUB AND PUSH1 0x2 DUP3 DUP2 SLOAD DUP2 LT PUSH2 0xBC5 JUMPI PUSH2 0xBC5 PUSH2 0x242D JUMP JUMPDEST PUSH1 0x0 SWAP2 DUP3 MSTORE PUSH1 0x20 SWAP1 SWAP2 KECCAK256 PUSH1 0x8 PUSH1 0xF SWAP1 SWAP3 MUL ADD ADD SLOAD PUSH1 0x1 PUSH1 0x1 PUSH1 0xA0 SHL SUB AND EQ PUSH2 0xC50 JUMPI PUSH1 0x0 PUSH1 0x2 DUP3 DUP2 SLOAD DUP2 LT PUSH2 0xBFC JUMPI PUSH2 0xBFC PUSH2 0x242D JUMP JUMPDEST PUSH1 0x0 SWAP2 DUP3 MSTORE PUSH1 0x20 SWAP1 SWAP2 KECCAK256 PUSH1 0x8 PUSH1 0xF SWAP1 SWAP3 MUL ADD ADD SLOAD PUSH1 0x2 DUP1 SLOAD PUSH1 0x1 PUSH1 0x1 PUSH1 0xA0 SHL SUB SWAP1 SWAP3 AND SWAP3 POP PUSH2 0xC4D SWAP2 DUP5 SWAP1 DUP2 LT PUSH2 0xC35 JUMPI PUSH2 0xC35 PUSH2 0x242D JUMP JUMPDEST SWAP1 PUSH1 0x0 MSTORE PUSH1 0x20 PUSH1 0x0 KECCAK256 SWAP1 PUSH1 0xF MUL ADD PUSH1 0x5 ADD SLOAD DUP3 PUSH2 0x1ED2 JUMP JUMPDEST POP POP JUMPDEST CALLER PUSH1 0x2 DUP3 DUP2 SLOAD DUP2 LT PUSH2 0xC64 JUMPI PUSH2 0xC64 PUSH2 0x242D JUMP JUMPDEST SWAP1 PUSH1 0x0 MSTORE PUSH1 0x20 PUSH1 0x0 KECCAK256 SWAP1 PUSH1 0xF MUL ADD PUSH1 0x8 ADD PUSH1 0x0 ADD PUSH1 0x0 PUSH2 0x100 EXP DUP2 SLOAD DUP2 PUSH1 0x1 PUSH1 0x1 PUSH1 0xA0 SHL SUB MUL NOT AND SWAP1 DUP4 PUSH1 0x1 PUSH1 0x1 PUSH1 0xA0 SHL SUB AND MUL OR SWAP1 SSTORE POP TIMESTAMP PUSH1 0x2 DUP3 DUP2 SLOAD DUP2 LT PUSH2 0xCB0 JUMPI PUSH2 0xCB0 PUSH2 0x242D JUMP JUMPDEST PUSH1 0x0 SWAP2 DUP3 MSTORE PUSH1 0x20 SWAP1 SWAP2 KECCAK256 PUSH1 0x9 PUSH1 0xF SWAP1 SWAP3 MUL ADD ADD SSTORE PUSH1 0x40 MLOAD PUSH32 0x8F298FD72DBD217FB0A6D75EBB7814F41823B563772413DB23636B1600A0ACA SWAP1 PUSH2 0xD08 SWAP1 DUP4 SWAP1 CALLER SWAP1 SWAP2 DUP3 MSTORE PUSH1 0x1 PUSH1 0x1 PUSH1 0xA0 SHL SUB AND PUSH1 0x20 DUP3 ADD MSTORE PUSH1 0x40 ADD SWAP1 JUMP JUMPDEST PUSH1 0x40 MLOAD DUP1 SWAP2 SUB SWAP1 LOG1 POP JUMP JUMPDEST PUSH1 0x0 PUSH1 0x1 PUSH1 0x1 PUSH1 0xA0 SHL SUB AND PUSH1 0x2 DUP3 DUP2 SLOAD DUP2 LT PUSH2 0xD31 JUMPI PUSH2 0xD31 PUSH2 0x242D JUMP JUMPDEST PUSH1 0x0 SWAP2 DUP3 MSTORE PUSH1 0x20 SWAP1 SWAP2 KECCAK256 PUSH1 0x8 PUSH1 0xF SWAP1 SWAP3 MUL ADD ADD SLOAD PUSH1 0x1 PUSH1 0x1 PUSH1 0xA0 SHL SUB AND EQ PUSH2 0xDA6 JUMPI PUSH1 0x40 MLOAD PUSH3 0x461BCD PUSH1 0xE5 SHL DUP2 MSTORE PUSH1 0x20 PUSH1 0x4 DUP3 ADD MSTORE PUSH1 0x22 PUSH1 0x24 DUP3 ADD MSTORE PUSH32 0x596F752063616E74207075626C6963697A6520612074616B656E207265717565 PUSH1 0x44 DUP3 ADD MSTORE PUSH2 0x1CDD PUSH1 0xF2 SHL PUSH1 0x64 DUP3 ADD MSTORE PUSH1 0x84 ADD PUSH2 0x320 JUMP JUMPDEST PUSH32 0x8D65CADB1C3C8AE25C12C040286AEE7825DF75A851362B5D7E16AC82555D9836 DUP2 PUSH1 0x2 DUP4 DUP2 SLOAD DUP2 LT PUSH2 0xDDB JUMPI PUSH2 0xDDB PUSH2 0x242D JUMP JUMPDEST SWAP1 PUSH1 0x0 MSTORE PUSH1 0x20 PUSH1 0x0 KECCAK256 SWAP1 PUSH1 0xF MUL ADD PUSH1 0x3 ADD SLOAD PUSH1 0x2 DUP5 DUP2 SLOAD DUP2 LT PUSH2 0xE00 JUMPI PUSH2 0xE00 PUSH2 0x242D JUMP JUMPDEST SWAP1 PUSH1 0x0 MSTORE PUSH1 0x20 PUSH1 0x0 KECCAK256 SWAP1 PUSH1 0xF MUL ADD PUSH1 0x4 ADD SLOAD PUSH1 0x2 DUP6 DUP2 SLOAD DUP2 LT PUSH2 0xE25 JUMPI PUSH2 0xE25 PUSH2 0x242D JUMP JUMPDEST SWAP1 PUSH1 0x0 MSTORE PUSH1 0x20 PUSH1 0x0 KECCAK256 SWAP1 PUSH1 0xF MUL ADD PUSH1 0x5 ADD SLOAD PUSH1 0x2 DUP7 DUP2 SLOAD DUP2 LT PUSH2 0xE4A JUMPI PUSH2 0xE4A PUSH2 0x242D JUMP JUMPDEST PUSH1 0x0 SWAP2 DUP3 MSTORE PUSH1 0x20 SWAP2 DUP3 SWAP1 KECCAK256 PUSH1 0x6 PUSH1 0xF SWAP1 SWAP3 MUL ADD ADD SLOAD PUSH1 0x40 DUP1 MLOAD SWAP7 DUP8 MSTORE SWAP2 DUP7 ADD SWAP5 SWAP1 SWAP5 MSTORE DUP5 ADD SWAP2 SWAP1 SWAP2 MSTORE PUSH1 0x60 DUP4 ADD MSTORE PUSH1 0x80 DUP3 ADD MSTORE PUSH1 0xA0 ADD PUSH2 0xD08 JUMP JUMPDEST PUSH1 0x0 PUSH1 0x1 PUSH1 0x1 PUSH1 0xA0 SHL SUB AND PUSH1 0x2 DUP3 DUP2 SLOAD DUP2 LT PUSH2 0xEA3 JUMPI PUSH2 0xEA3 PUSH2 0x242D JUMP JUMPDEST PUSH1 0x0 SWAP2 DUP3 MSTORE PUSH1 0x20 SWAP1 SWAP2 KECCAK256 PUSH1 0x8 PUSH1 0xF SWAP1 SWAP3 MUL ADD ADD SLOAD PUSH1 0x1 PUSH1 0x1 PUSH1 0xA0 SHL SUB AND SUB PUSH2 0xF25 JUMPI PUSH1 0x40 MLOAD PUSH3 0x461BCD PUSH1 0xE5 SHL DUP2 MSTORE PUSH1 0x20 PUSH1 0x4 DUP3 ADD MSTORE PUSH1 0x2F PUSH1 0x24 DUP3 ADD MSTORE PUSH32 0x5468657265206973206E6F206163636570746F7220666F72207468652070726F PUSH1 0x44 DUP3 ADD MSTORE PUSH15 0x1D9A591959081C995C5D595CDD1251 PUSH1 0x8A SHL PUSH1 0x64 DUP3 ADD MSTORE PUSH1 0x84 ADD PUSH2 0x320 JUMP JUMPDEST PUSH1 0x0 PUSH1 0x1 PUSH1 0x1 PUSH1 0xA0 SHL SUB AND PUSH1 0x2 DUP3 DUP2 SLOAD DUP2 LT PUSH2 0xF43 JUMPI PUSH2 0xF43 PUSH2 0x242D JUMP JUMPDEST PUSH1 0x0 SWAP2 DUP3 MSTORE PUSH1 0x20 SWAP1 SWAP2 KECCAK256 PUSH1 0xA PUSH1 0xF SWAP1 SWAP3 MUL ADD ADD SLOAD PUSH1 0x1 PUSH1 0x1 PUSH1 0xA0 SHL SUB AND EQ PUSH2 0xFBB JUMPI PUSH1 0x40 MLOAD PUSH3 0x461BCD PUSH1 0xE5 SHL DUP2 MSTORE PUSH1 0x20 PUSH1 0x4 DUP3 ADD MSTORE PUSH1 0x25 PUSH1 0x24 DUP3 ADD MSTORE PUSH32 0x54686973207265717565737420616C7265616479206861732061207375626D69 PUSH1 0x44 DUP3 ADD MSTORE PUSH5 0x39B9B4B7B7 PUSH1 0xD9 SHL PUSH1 0x64 DUP3 ADD MSTORE PUSH1 0x84 ADD PUSH2 0x320 JUMP JUMPDEST CALLER PUSH1 0x1 PUSH1 0x1 PUSH1 0xA0 SHL SUB AND PUSH1 0x2 DUP3 DUP2 SLOAD DUP2 LT PUSH2 0xFD8 JUMPI PUSH2 0xFD8 PUSH2 0x242D JUMP JUMPDEST PUSH1 0x0 SWAP2 DUP3 MSTORE PUSH1 0x20 SWAP1 SWAP2 KECCAK256 PUSH1 0x8 PUSH1 0xF SWAP1 SWAP3 MUL ADD ADD SLOAD PUSH1 0x1 PUSH1 0x1 PUSH1 0xA0 SHL SUB AND EQ PUSH2 0x1068 JUMPI PUSH1 0x40 MLOAD PUSH3 0x461BCD PUSH1 0xE5 SHL DUP2 MSTORE PUSH1 0x20 PUSH1 0x4 DUP3 ADD MSTORE PUSH1 0x39 PUSH1 0x24 DUP3 ADD MSTORE PUSH32 0x596F752063616E742063616E63656C20616E20616363657074616E6365207468 PUSH1 0x44 DUP3 ADD MSTORE PUSH32 0x617420646F6573206E6F742062656C6F6E6720746F20796F7500000000000000 PUSH1 0x64 DUP3 ADD MSTORE PUSH1 0x84 ADD PUSH2 0x320 JUMP JUMPDEST PUSH1 0x0 PUSH1 0x2 DUP3 DUP2 SLOAD DUP2 LT PUSH2 0x107D JUMPI PUSH2 0x107D PUSH2 0x242D JUMP JUMPDEST PUSH1 0x0 SWAP2 DUP3 MSTORE PUSH1 0x20 DUP3 KECCAK256 PUSH1 0x8 PUSH1 0xF SWAP1 SWAP3 MUL ADD ADD SLOAD PUSH1 0x2 DUP1 SLOAD PUSH1 0x1 PUSH1 0x1 PUSH1 0xA0 SHL SUB SWAP1 SWAP3 AND SWAP4 POP SWAP1 DUP5 SWAP1 DUP2 LT PUSH2 0x10B2 JUMPI PUSH2 0x10B2 PUSH2 0x242D JUMP JUMPDEST PUSH1 0x0 SWAP2 DUP3 MSTORE PUSH1 0x20 DUP3 KECCAK256 PUSH1 0xF SWAP2 SWAP1 SWAP2 MUL ADD PUSH1 0x8 ADD DUP1 SLOAD PUSH1 0x1 PUSH1 0x1 PUSH1 0xA0 SHL SUB NOT AND PUSH1 0x1 PUSH1 0x1 PUSH1 0xA0 SHL SUB SWAP4 SWAP1 SWAP4 AND SWAP3 SWAP1 SWAP3 OR SWAP1 SWAP2 SSTORE PUSH1 0x2 DUP1 SLOAD DUP5 SWAP1 DUP2 LT PUSH2 0x10F8 JUMPI PUSH2 0x10F8 PUSH2 0x242D JUMP JUMPDEST SWAP1 PUSH1 0x0 MSTORE PUSH1 0x20 PUSH1 0x0 KECCAK256 SWAP1 PUSH1 0xF MUL ADD PUSH1 0x8 ADD PUSH1 0x1 ADD DUP2 SWAP1 SSTORE POP PUSH1 0x0 PUSH2 0x1140 PUSH1 0x2 DUP5 DUP2 SLOAD DUP2 LT PUSH2 0x1128 JUMPI PUSH2 0x1128 PUSH2 0x242D JUMP JUMPDEST SWAP1 PUSH1 0x0 MSTORE PUSH1 0x20 PUSH1 0x0 KECCAK256 SWAP1 PUSH1 0xF MUL ADD PUSH1 0x5 ADD SLOAD DUP4 PUSH2 0x1ED2 JUMP JUMPDEST PUSH1 0x40 DUP1 MLOAD DUP6 DUP2 MSTORE PUSH1 0x1 PUSH1 0x1 PUSH1 0xA0 SHL SUB DUP6 AND PUSH1 0x20 DUP3 ADD MSTORE DUP3 ISZERO ISZERO SWAP2 DUP2 ADD SWAP2 SWAP1 SWAP2 MSTORE SWAP1 SWAP2 POP PUSH32 0x233AEBE1D7C90B97E1FE6CE1E226CCA4FEEE120BC312447D954C577A9E2255E4 SWAP1 PUSH1 0x60 ADD PUSH2 0x6A6 JUMP JUMPDEST PUSH1 0x2 DUP2 DUP2 SLOAD DUP2 LT PUSH2 0x119D JUMPI PUSH1 0x0 DUP1 REVERT JUMPDEST SWAP1 PUSH1 0x0 MSTORE PUSH1 0x20 PUSH1 0x0 KECCAK256 SWAP1 PUSH1 0xF MUL ADD PUSH1 0x0 SWAP2 POP SWAP1 POP DUP1 PUSH1 0x0 ADD SLOAD SWAP1 DUP1 PUSH1 0x1 ADD PUSH1 0x40 MLOAD DUP1 PUSH1 0x40 ADD PUSH1 0x40 MSTORE SWAP1 DUP2 PUSH1 0x0 DUP3 ADD SLOAD DUP2 MSTORE PUSH1 0x20 ADD PUSH1 0x1 DUP3 ADD DUP1 SLOAD PUSH2 0x11E0 SWAP1 PUSH2 0x24A7 JUMP JUMPDEST DUP1 PUSH1 0x1F ADD PUSH1 0x20 DUP1 SWAP2 DIV MUL PUSH1 0x20 ADD PUSH1 0x40 MLOAD SWAP1 DUP2 ADD PUSH1 0x40 MSTORE DUP1 SWAP3 SWAP2 SWAP1 DUP2 DUP2 MSTORE PUSH1 0x20 ADD DUP3 DUP1 SLOAD PUSH2 0x120C SWAP1 PUSH2 0x24A7 JUMP JUMPDEST DUP1 ISZERO PUSH2 0x1259 JUMPI DUP1 PUSH1 0x1F LT PUSH2 0x122E JUMPI PUSH2 0x100 DUP1 DUP4 SLOAD DIV MUL DUP4 MSTORE SWAP2 PUSH1 0x20 ADD SWAP2 PUSH2 0x1259 JUMP JUMPDEST DUP3 ADD SWAP2 SWAP1 PUSH1 0x0 MSTORE PUSH1 0x20 PUSH1 0x0 KECCAK256 SWAP1 JUMPDEST DUP2 SLOAD DUP2 MSTORE SWAP1 PUSH1 0x1 ADD SWAP1 PUSH1 0x20 ADD DUP1 DUP4 GT PUSH2 0x123C JUMPI DUP3 SWAP1 SUB PUSH1 0x1F AND DUP3 ADD SWAP2 JUMPDEST POP POP POP SWAP2 SWAP1 SWAP3 MSTORE POP POP POP PUSH1 0x3 DUP3 ADD SLOAD PUSH1 0x4 DUP4 ADD SLOAD PUSH1 0x5 DUP5 ADD SLOAD PUSH1 0x6 DUP6 ADD SLOAD PUSH1 0x7 DUP7 ADD SLOAD PUSH1 0x40 DUP1 MLOAD DUP1 DUP3 ADD DUP3 MSTORE PUSH1 0x8 DUP10 ADD SLOAD PUSH1 0x1 PUSH1 0x1 PUSH1 0xA0 SHL SUB SWAP1 DUP2 AND DUP3 MSTORE PUSH1 0x9 DUP11 ADD SLOAD PUSH1 0x20 DUP1 DUP5 ADD SWAP2 SWAP1 SWAP2 MSTORE DUP4 MLOAD PUSH1 0x80 DUP2 ADD DUP6 MSTORE PUSH1 0xA DUP13 ADD DUP1 SLOAD DUP5 AND DUP3 MSTORE PUSH1 0xB DUP14 ADD SLOAD SWAP3 DUP3 ADD SWAP3 SWAP1 SWAP3 MSTORE PUSH1 0xC DUP13 ADD DUP1 SLOAD SWAP12 SWAP13 SWAP11 SWAP12 SWAP10 SWAP11 SWAP9 SWAP10 SWAP8 SWAP9 SWAP4 SWAP1 SWAP7 AND SWAP7 SWAP4 SWAP6 SWAP3 SWAP5 SWAP1 SWAP4 SWAP2 SWAP3 SWAP1 DUP5 ADD SWAP2 PUSH2 0x12ED SWAP1 PUSH2 0x24A7 JUMP JUMPDEST DUP1 PUSH1 0x1F ADD PUSH1 0x20 DUP1 SWAP2 DIV MUL PUSH1 0x20 ADD PUSH1 0x40 MLOAD SWAP1 DUP2 ADD PUSH1 0x40 MSTORE DUP1 SWAP3 SWAP2 SWAP1 DUP2 DUP2 MSTORE PUSH1 0x20 ADD DUP3 DUP1 SLOAD PUSH2 0x1319 SWAP1 PUSH2 0x24A7 JUMP JUMPDEST DUP1 ISZERO PUSH2 0x1366 JUMPI DUP1 PUSH1 0x1F LT PUSH2 0x133B JUMPI PUSH2 0x100 DUP1 DUP4 SLOAD DIV MUL DUP4 MSTORE SWAP2 PUSH1 0x20 ADD SWAP2 PUSH2 0x1366 JUMP JUMPDEST DUP3 ADD SWAP2 SWAP1 PUSH1 0x0 MSTORE PUSH1 0x20 PUSH1 0x0 KECCAK256 SWAP1 JUMPDEST DUP2 SLOAD DUP2 MSTORE SWAP1 PUSH1 0x1 ADD SWAP1 PUSH1 0x20 ADD DUP1 DUP4 GT PUSH2 0x1349 JUMPI DUP3 SWAP1 SUB PUSH1 0x1F AND DUP3 ADD SWAP2 JUMPDEST POP POP POP SWAP2 DUP4 MSTORE POP POP PUSH1 0x3 SWAP2 SWAP1 SWAP2 ADD SLOAD PUSH1 0xFF SWAP1 DUP2 AND ISZERO ISZERO PUSH1 0x20 SWAP1 SWAP3 ADD SWAP2 SWAP1 SWAP2 MSTORE PUSH1 0xE SWAP1 SWAP3 ADD SLOAD SWAP1 SWAP2 AND DUP11 JUMP JUMPDEST PUSH1 0x0 PUSH1 0x2 DUP3 DUP2 SLOAD DUP2 LT PUSH2 0x13A6 JUMPI PUSH2 0x13A6 PUSH2 0x242D JUMP JUMPDEST PUSH1 0x0 SWAP2 DUP3 MSTORE PUSH1 0x20 SWAP1 SWAP2 KECCAK256 PUSH1 0xE PUSH1 0xF SWAP1 SWAP3 MUL ADD ADD SLOAD PUSH1 0xFF AND ISZERO DUP1 ISZERO PUSH2 0x3DA JUMPI POP PUSH1 0x0 PUSH1 0x1 PUSH1 0x1 PUSH1 0xA0 SHL SUB AND PUSH1 0x2 DUP4 DUP2 SLOAD DUP2 LT PUSH2 0x13E3 JUMPI PUSH2 0x13E3 PUSH2 0x242D JUMP JUMPDEST PUSH1 0x0 SWAP2 DUP3 MSTORE PUSH1 0x20 SWAP1 SWAP2 KECCAK256 PUSH1 0x8 PUSH1 0xF SWAP1 SWAP3 MUL ADD ADD SLOAD PUSH1 0x1 PUSH1 0x1 PUSH1 0xA0 SHL SUB AND EQ SWAP3 SWAP2 POP POP JUMP JUMPDEST PUSH1 0x0 DUP1 PUSH1 0x1 PUSH1 0x1 PUSH1 0xA0 SHL SUB AND PUSH1 0x2 DUP4 DUP2 SLOAD DUP2 LT PUSH2 0x1426 JUMPI PUSH2 0x1426 PUSH2 0x242D JUMP JUMPDEST PUSH1 0x0 SWAP2 DUP3 MSTORE PUSH1 0x20 SWAP1 SWAP2 KECCAK256 PUSH1 0xA PUSH1 0xF SWAP1 SWAP3 MUL ADD ADD SLOAD PUSH1 0x1 PUSH1 0x1 PUSH1 0xA0 SHL SUB AND SUB PUSH2 0x14AC JUMPI PUSH1 0x40 MLOAD PUSH3 0x461BCD PUSH1 0xE5 SHL DUP2 MSTORE PUSH1 0x20 PUSH1 0x4 DUP3 ADD MSTORE PUSH1 0x33 PUSH1 0x24 DUP3 ADD MSTORE PUSH32 0x546865726520617265206E6F207375626D697373696F6E7320666F7220746865 PUSH1 0x44 DUP3 ADD MSTORE PUSH19 0x818DA185B1B195B99D959081C995C5D595CDD PUSH1 0x6A SHL PUSH1 0x64 DUP3 ADD MSTORE PUSH1 0x84 ADD PUSH2 0x320 JUMP JUMPDEST PUSH1 0x2 DUP3 DUP2 SLOAD DUP2 LT PUSH2 0x14BF JUMPI PUSH2 0x14BF PUSH2 0x242D JUMP JUMPDEST PUSH1 0x0 SWAP2 DUP3 MSTORE PUSH1 0x20 SWAP1 SWAP2 KECCAK256 PUSH1 0xD PUSH1 0xF SWAP1 SWAP3 MUL ADD ADD SLOAD PUSH1 0xFF AND ISZERO PUSH2 0x153C JUMPI PUSH1 0x40 MLOAD PUSH3 0x461BCD PUSH1 0xE5 SHL DUP2 MSTORE PUSH1 0x20 PUSH1 0x4 DUP3 ADD MSTORE PUSH1 0x30 PUSH1 0x24 DUP3 ADD MSTORE PUSH32 0x546865206368616C6C656E676564207375626D697373696F6E2068617320616C PUSH1 0x44 DUP3 ADD MSTORE PUSH16 0x1C9958591E481CDBDB1A591A599A5959 PUSH1 0x82 SHL PUSH1 0x64 DUP3 ADD MSTORE PUSH1 0x84 ADD PUSH2 0x320 JUMP JUMPDEST PUSH1 0x0 PUSH1 0x2 DUP4 DUP2 SLOAD DUP2 LT PUSH2 0x1551 JUMPI PUSH2 0x1551 PUSH2 0x242D JUMP JUMPDEST SWAP1 PUSH1 0x0 MSTORE PUSH1 0x20 PUSH1 0x0 KECCAK256 SWAP1 PUSH1 0xF MUL ADD PUSH1 0xA ADD PUSH1 0x2 ADD DUP1 SLOAD PUSH2 0x1570 SWAP1 PUSH2 0x24A7 JUMP JUMPDEST DUP1 PUSH1 0x1F ADD PUSH1 0x20 DUP1 SWAP2 DIV MUL PUSH1 0x20 ADD PUSH1 0x40 MLOAD SWAP1 DUP2 ADD PUSH1 0x40 MSTORE DUP1 SWAP3 SWAP2 SWAP1 DUP2 DUP2 MSTORE PUSH1 0x20 ADD DUP3 DUP1 SLOAD PUSH2 0x159C SWAP1 PUSH2 0x24A7 JUMP JUMPDEST DUP1 ISZERO PUSH2 0x15E9 JUMPI DUP1 PUSH1 0x1F LT PUSH2 0x15BE JUMPI PUSH2 0x100 DUP1 DUP4 SLOAD DIV MUL DUP4 MSTORE SWAP2 PUSH1 0x20 ADD SWAP2 PUSH2 0x15E9 JUMP JUMPDEST DUP3 ADD SWAP2 SWAP1 PUSH1 0x0 MSTORE PUSH1 0x20 PUSH1 0x0 KECCAK256 SWAP1 JUMPDEST DUP2 SLOAD DUP2 MSTORE SWAP1 PUSH1 0x1 ADD SWAP1 PUSH1 0x20 ADD DUP1 DUP4 GT PUSH2 0x15CC JUMPI DUP3 SWAP1 SUB PUSH1 0x1F AND DUP3 ADD SWAP2 JUMPDEST POP POP POP POP POP SWAP1 POP PUSH1 0x0 PUSH1 0x2 DUP5 DUP2 SLOAD DUP2 LT PUSH2 0x1605 JUMPI PUSH2 0x1605 PUSH2 0x242D JUMP JUMPDEST SWAP1 PUSH1 0x0 MSTORE PUSH1 0x20 PUSH1 0x0 KECCAK256 SWAP1 PUSH1 0xF MUL ADD PUSH1 0x1 ADD PUSH1 0x40 MLOAD DUP1 PUSH1 0x40 ADD PUSH1 0x40 MSTORE SWAP1 DUP2 PUSH1 0x0 DUP3 ADD SLOAD DUP2 MSTORE PUSH1 0x20 ADD PUSH1 0x1 DUP3 ADD DUP1 SLOAD PUSH2 0x163B SWAP1 PUSH2 0x24A7 JUMP JUMPDEST DUP1 PUSH1 0x1F ADD PUSH1 0x20 DUP1 SWAP2 DIV MUL PUSH1 0x20 ADD PUSH1 0x40 MLOAD SWAP1 DUP2 ADD PUSH1 0x40 MSTORE DUP1 SWAP3 SWAP2 SWAP1 DUP2 DUP2 MSTORE PUSH1 0x20 ADD DUP3 DUP1 SLOAD PUSH2 0x1667 SWAP1 PUSH2 0x24A7 JUMP JUMPDEST DUP1 ISZERO PUSH2 0x16B4 JUMPI DUP1 PUSH1 0x1F LT PUSH2 0x1689 JUMPI PUSH2 0x100 DUP1 DUP4 SLOAD DIV MUL DUP4 MSTORE SWAP2 PUSH1 0x20 ADD SWAP2 PUSH2 0x16B4 JUMP JUMPDEST DUP3 ADD SWAP2 SWAP1 PUSH1 0x0 MSTORE PUSH1 0x20 PUSH1 0x0 KECCAK256 SWAP1 JUMPDEST DUP2 SLOAD DUP2 MSTORE SWAP1 PUSH1 0x1 ADD SWAP1 PUSH1 0x20 ADD DUP1 DUP4 GT PUSH2 0x1697 JUMPI DUP3 SWAP1 SUB PUSH1 0x1F AND DUP3 ADD SWAP2 JUMPDEST POP POP POP POP POP DUP2 MSTORE POP POP SWAP1 POP PUSH1 0x0 PUSH1 0x2 DUP6 DUP2 SLOAD DUP2 LT PUSH2 0x16D4 JUMPI PUSH2 0x16D4 PUSH2 0x242D JUMP JUMPDEST PUSH1 0x0 SWAP2 DUP3 MSTORE PUSH1 0x20 SWAP1 SWAP2 KECCAK256 PUSH1 0x7 PUSH1 0xF SWAP1 SWAP3 MUL ADD ADD SLOAD PUSH1 0x40 MLOAD PUSH4 0xA9B1DAC3 PUSH1 0xE0 SHL DUP2 MSTORE PUSH1 0x1 PUSH1 0x1 PUSH1 0xA0 SHL SUB SWAP1 SWAP2 AND SWAP1 PUSH4 0xA9B1DAC3 SWAP1 PUSH2 0x1715 SWAP1 DUP6 SWAP1 PUSH1 0x4 ADD PUSH2 0x2639 JUMP JUMPDEST PUSH1 0x0 PUSH1 0x40 MLOAD DUP1 DUP4 SUB DUP2 DUP7 GAS STATICCALL ISZERO DUP1 ISZERO PUSH2 0x1732 JUMPI RETURNDATASIZE PUSH1 0x0 DUP1 RETURNDATACOPY RETURNDATASIZE PUSH1 0x0 REVERT JUMPDEST POP POP POP POP PUSH1 0x40 MLOAD RETURNDATASIZE PUSH1 0x0 DUP3 RETURNDATACOPY PUSH1 0x1F RETURNDATASIZE SWAP1 DUP2 ADD PUSH1 0x1F NOT AND DUP3 ADD PUSH1 0x40 MSTORE PUSH2 0x175A SWAP2 SWAP1 DUP2 ADD SWAP1 PUSH2 0x26A5 JUMP JUMPDEST SWAP1 POP PUSH32 0xA3DFD2216A2448C62E6F94B05A7686722A4DE162A822B40701563C5A19FE7EE DUP6 DUP3 PUSH1 0x40 MLOAD PUSH2 0x178D SWAP3 SWAP2 SWAP1 PUSH2 0x2721 JUMP JUMPDEST PUSH1 0x40 MLOAD DUP1 SWAP2 SUB SWAP1 LOG1 DUP1 DUP1 MLOAD SWAP1 PUSH1 0x20 ADD KECCAK256 DUP4 DUP1 MLOAD SWAP1 PUSH1 0x20 ADD KECCAK256 EQ PUSH2 0x18B6 JUMPI PUSH1 0x40 DUP1 MLOAD PUSH1 0x80 DUP2 ADD DUP3 MSTORE CALLER DUP2 MSTORE TIMESTAMP PUSH1 0x20 DUP3 ADD MSTORE SWAP1 DUP2 ADD DUP3 SWAP1 MSTORE PUSH1 0x0 PUSH1 0x60 DUP3 ADD MSTORE PUSH1 0x2 DUP1 SLOAD DUP3 SWAP2 SWAP1 DUP9 SWAP1 DUP2 LT PUSH2 0x17E1 JUMPI PUSH2 0x17E1 PUSH2 0x242D JUMP JUMPDEST SWAP1 PUSH1 0x0 MSTORE PUSH1 0x20 PUSH1 0x0 KECCAK256 SWAP1 PUSH1 0xF MUL ADD PUSH1 0xA ADD PUSH1 0x0 DUP3 ADD MLOAD DUP2 PUSH1 0x0 ADD PUSH1 0x0 PUSH2 0x100 EXP DUP2 SLOAD DUP2 PUSH1 0x1 PUSH1 0x1 PUSH1 0xA0 SHL SUB MUL NOT AND SWAP1 DUP4 PUSH1 0x1 PUSH1 0x1 PUSH1 0xA0 SHL SUB AND MUL OR SWAP1 SSTORE POP PUSH1 0x20 DUP3 ADD MLOAD DUP2 PUSH1 0x1 ADD SSTORE PUSH1 0x40 DUP3 ADD MLOAD DUP2 PUSH1 0x2 ADD SWAP1 DUP2 PUSH2 0x183E SWAP2 SWAP1 PUSH2 0x2530 JUMP JUMPDEST POP PUSH1 0x60 SWAP2 SWAP1 SWAP2 ADD MLOAD PUSH1 0x3 SWAP1 SWAP2 ADD DUP1 SLOAD PUSH1 0xFF NOT AND SWAP2 ISZERO ISZERO SWAP2 SWAP1 SWAP2 OR SWAP1 SSTORE PUSH1 0x0 PUSH2 0x1865 DUP8 PUSH2 0x1F03 JUMP JUMPDEST PUSH1 0x40 DUP1 MLOAD DUP10 DUP2 MSTORE CALLER PUSH1 0x20 DUP3 ADD MSTORE DUP3 ISZERO ISZERO DUP2 DUP4 ADD MSTORE SWAP1 MLOAD SWAP2 SWAP3 POP PUSH32 0x3DA0EDC911D0BFFDD668DF0C923ADA9E815790BB431E664403EC3DDFCFCB2C36 SWAP2 SWAP1 DUP2 SWAP1 SUB PUSH1 0x60 ADD SWAP1 LOG1 POP PUSH1 0x1 SWAP7 SWAP6 POP POP POP POP POP POP JUMP JUMPDEST PUSH1 0x0 PUSH2 0x18C1 DUP7 PUSH2 0x1F03 JUMP JUMPDEST SWAP1 POP PUSH32 0x3DA0EDC911D0BFFDD668DF0C923ADA9E815790BB431E664403EC3DDFCFCB2C36 DUP7 PUSH1 0x2 DUP9 DUP2 SLOAD DUP2 LT PUSH2 0x18F8 JUMPI PUSH2 0x18F8 PUSH2 0x242D JUMP JUMPDEST PUSH1 0x0 SWAP2 DUP3 MSTORE PUSH1 0x20 SWAP2 DUP3 SWAP1 KECCAK256 PUSH1 0xF SWAP1 SWAP2 MUL ADD PUSH1 0xA ADD SLOAD PUSH1 0x40 DUP1 MLOAD SWAP4 DUP5 MSTORE PUSH1 0x1 PUSH1 0x1 PUSH1 0xA0 SHL SUB SWAP1 SWAP2 AND SWAP2 DUP4 ADD SWAP2 SWAP1 SWAP2 MSTORE DUP4 ISZERO ISZERO SWAP1 DUP3 ADD MSTORE PUSH1 0x60 ADD PUSH1 0x40 MLOAD DUP1 SWAP2 SUB SWAP1 LOG1 POP PUSH1 0x0 SWAP6 SWAP5 POP POP POP POP POP JUMP JUMPDEST PUSH1 0x0 DUP1 PUSH1 0x1 PUSH1 0x1 PUSH1 0xA0 SHL SUB AND PUSH1 0x2 DUP4 DUP2 SLOAD DUP2 LT PUSH2 0x1963 JUMPI PUSH2 0x1963 PUSH2 0x242D JUMP JUMPDEST PUSH1 0x0 SWAP2 DUP3 MSTORE PUSH1 0x20 SWAP1 SWAP2 KECCAK256 PUSH1 0xA PUSH1 0xF SWAP1 SWAP3 MUL ADD ADD SLOAD PUSH1 0x1 PUSH1 0x1 PUSH1 0xA0 SHL SUB AND SUB PUSH2 0x19E7 JUMPI PUSH1 0x40 MLOAD PUSH3 0x461BCD PUSH1 0xE5 SHL DUP2 MSTORE PUSH1 0x20 PUSH1 0x4 DUP3 ADD MSTORE PUSH1 0x31 PUSH1 0x24 DUP3 ADD MSTORE PUSH32 0x546865726520617265206E6F207375626D697373696F6E7320666F7220746865 PUSH1 0x44 DUP3 ADD MSTORE PUSH17 0x81C1C9BDD9A591959081C995C5D595CDD PUSH1 0x7A SHL PUSH1 0x64 DUP3 ADD MSTORE PUSH1 0x84 ADD PUSH2 0x320 JUMP JUMPDEST CALLER PUSH1 0x1 PUSH1 0x1 PUSH1 0xA0 SHL SUB AND PUSH1 0x2 DUP4 DUP2 SLOAD DUP2 LT PUSH2 0x1A04 JUMPI PUSH2 0x1A04 PUSH2 0x242D JUMP JUMPDEST PUSH1 0x0 SWAP2 DUP3 MSTORE PUSH1 0x20 SWAP1 SWAP2 KECCAK256 PUSH1 0xA PUSH1 0xF SWAP1 SWAP3 MUL ADD ADD SLOAD PUSH1 0x1 PUSH1 0x1 PUSH1 0xA0 SHL SUB AND EQ PUSH2 0x1A7A JUMPI PUSH1 0x40 MLOAD PUSH3 0x461BCD PUSH1 0xE5 SHL DUP2 MSTORE PUSH1 0x20 PUSH1 0x4 DUP3 ADD MSTORE PUSH1 0x23 PUSH1 0x24 DUP3 ADD MSTORE PUSH32 0x54686973207061796D656E7420646F6573206E6F742062656C6F6E6720746F20 PUSH1 0x44 DUP3 ADD MSTORE PUSH3 0x796F75 PUSH1 0xE8 SHL PUSH1 0x64 DUP3 ADD MSTORE PUSH1 0x84 ADD PUSH2 0x320 JUMP JUMPDEST PUSH1 0x2 DUP3 DUP2 SLOAD DUP2 LT PUSH2 0x1A8D JUMPI PUSH2 0x1A8D PUSH2 0x242D JUMP JUMPDEST PUSH1 0x0 SWAP2 DUP3 MSTORE PUSH1 0x20 SWAP1 SWAP2 KECCAK256 PUSH1 0xD PUSH1 0xF SWAP1 SWAP3 MUL ADD ADD SLOAD PUSH1 0xFF AND ISZERO PUSH2 0x1B05 JUMPI PUSH1 0x40 MLOAD PUSH3 0x461BCD PUSH1 0xE5 SHL DUP2 MSTORE PUSH1 0x20 PUSH1 0x4 DUP3 ADD MSTORE PUSH1 0x2B PUSH1 0x24 DUP3 ADD MSTORE PUSH32 0x5468652070726F766964656420726571756573742068617320616C7265616479 PUSH1 0x44 DUP3 ADD MSTORE PUSH11 0x81CDBDB1A591A599A5959 PUSH1 0xAA SHL PUSH1 0x64 DUP3 ADD MSTORE PUSH1 0x84 ADD PUSH2 0x320 JUMP JUMPDEST TIMESTAMP PUSH1 0x2 DUP4 DUP2 SLOAD DUP2 LT PUSH2 0x1B19 JUMPI PUSH2 0x1B19 PUSH2 0x242D JUMP JUMPDEST SWAP1 PUSH1 0x0 MSTORE PUSH1 0x20 PUSH1 0x0 KECCAK256 SWAP1 PUSH1 0xF MUL ADD PUSH1 0x6 ADD SLOAD PUSH1 0x2 DUP5 DUP2 SLOAD DUP2 LT PUSH2 0x1B3E JUMPI PUSH2 0x1B3E PUSH2 0x242D JUMP JUMPDEST SWAP1 PUSH1 0x0 MSTORE PUSH1 0x20 PUSH1 0x0 KECCAK256 SWAP1 PUSH1 0xF MUL ADD PUSH1 0xA ADD PUSH1 0x1 ADD SLOAD PUSH2 0x1B5D SWAP2 SWAP1 PUSH2 0x241A JUMP JUMPDEST LT PUSH2 0x1BB4 JUMPI PUSH1 0x40 MLOAD PUSH3 0x461BCD PUSH1 0xE5 SHL DUP2 MSTORE PUSH1 0x20 PUSH1 0x4 DUP3 ADD MSTORE PUSH1 0x21 PUSH1 0x24 DUP3 ADD MSTORE PUSH32 0x54686520636C61696D2064656C6179206861736E277420706173736564207965 PUSH1 0x44 DUP3 ADD MSTORE PUSH1 0x1D PUSH1 0xFA SHL PUSH1 0x64 DUP3 ADD MSTORE PUSH1 0x84 ADD PUSH2 0x320 JUMP JUMPDEST PUSH1 0x0 PUSH2 0x1BBF DUP4 PUSH2 0x1F03 JUMP JUMPDEST SWAP4 SWAP3 POP POP POP JUMP JUMPDEST PUSH1 0x0 DUP4 CALLVALUE GT PUSH2 0x1C3D JUMPI PUSH1 0x40 MLOAD PUSH3 0x461BCD PUSH1 0xE5 SHL DUP2 MSTORE PUSH1 0x20 PUSH1 0x4 DUP3 ADD MSTORE PUSH1 0x3F PUSH1 0x24 DUP3 ADD MSTORE PUSH32 0x54686520706F73742070726F63657373696E67206761732063616E6E6F742074 PUSH1 0x44 DUP3 ADD MSTORE PUSH32 0x616B65757020616C6C206F662074686520737570706C69656420657468657200 PUSH1 0x64 DUP3 ADD MSTORE PUSH1 0x84 ADD PUSH2 0x320 JUMP JUMPDEST PUSH1 0x40 DUP1 MLOAD DUP1 DUP3 ADD DUP3 MSTORE PUSH1 0x0 DUP1 DUP3 MSTORE PUSH1 0x20 DUP1 DUP4 ADD DUP3 SWAP1 MSTORE DUP4 MLOAD PUSH1 0x80 DUP2 ADD DUP6 MSTORE DUP3 DUP2 MSTORE DUP1 DUP3 ADD DUP4 SWAP1 MSTORE DUP5 MLOAD DUP1 DUP4 ADD DUP5 SWAP1 MSTORE DUP6 MLOAD DUP1 DUP3 SUB DUP5 ADD DUP2 MSTORE SWAP1 DUP7 ADD DUP7 MSTORE DUP2 DUP7 ADD MSTORE PUSH1 0x60 DUP2 ADD DUP4 SWAP1 MSTORE DUP5 MLOAD PUSH2 0x140 DUP2 ADD SWAP1 SWAP6 MSTORE PUSH1 0x2 SLOAD DUP6 MSTORE SWAP3 SWAP4 SWAP1 DUP2 ADD PUSH2 0x1CA2 DUP11 PUSH2 0x273A JUMP JUMPDEST DUP2 MSTORE PUSH1 0x20 ADD CALLVALUE DUP2 MSTORE PUSH1 0x20 ADD DUP9 DUP2 MSTORE PUSH1 0x20 ADD DUP8 DUP2 MSTORE PUSH1 0x20 ADD DUP7 DUP2 MSTORE PUSH1 0x20 ADD CALLER PUSH1 0x1 PUSH1 0x1 PUSH1 0xA0 SHL SUB AND DUP2 MSTORE PUSH1 0x20 ADD DUP5 DUP2 MSTORE PUSH1 0x20 ADD DUP4 DUP2 MSTORE PUSH1 0x20 ADD PUSH1 0x0 ISZERO ISZERO DUP2 MSTORE POP SWAP1 POP PUSH32 0x8D65CADB1C3C8AE25C12C040286AEE7825DF75A851362B5D7E16AC82555D9836 DUP2 PUSH1 0x0 ADD MLOAD CALLVALUE DUP10 DUP10 DUP10 PUSH1 0x40 MLOAD PUSH2 0x1D3C SWAP6 SWAP5 SWAP4 SWAP3 SWAP2 SWAP1 SWAP5 DUP6 MSTORE PUSH1 0x20 DUP6 ADD SWAP4 SWAP1 SWAP4 MSTORE PUSH1 0x40 DUP5 ADD SWAP2 SWAP1 SWAP2 MSTORE PUSH1 0x60 DUP4 ADD MSTORE PUSH1 0x80 DUP3 ADD MSTORE PUSH1 0xA0 ADD SWAP1 JUMP JUMPDEST PUSH1 0x40 MLOAD DUP1 SWAP2 SUB SWAP1 LOG1 PUSH1 0x2 DUP1 SLOAD PUSH1 0x1 DUP2 ADD DUP3 SSTORE PUSH1 0x0 SWAP2 SWAP1 SWAP2 MSTORE DUP2 MLOAD PUSH1 0xF SWAP1 SWAP2 MUL PUSH32 0x405787FA12A823E0F2B7631CC41B3BA8828B3321CA811111FA75CD3AA3BB5ACE DUP2 ADD SWAP2 DUP3 SSTORE PUSH1 0x20 DUP1 DUP5 ADD MLOAD DUP1 MLOAD PUSH32 0x405787FA12A823E0F2B7631CC41B3BA8828B3321CA811111FA75CD3AA3BB5ACF DUP5 ADD SWAP1 DUP2 SSTORE SWAP2 DUP2 ADD MLOAD DUP6 SWAP5 SWAP4 SWAP2 SWAP3 SWAP2 PUSH32 0x405787FA12A823E0F2B7631CC41B3BA8828B3321CA811111FA75CD3AA3BB5AD0 ADD SWAP1 PUSH2 0x1DE6 SWAP1 DUP3 PUSH2 0x2530 JUMP JUMPDEST POP POP POP PUSH1 0x40 DUP3 DUP2 ADD MLOAD PUSH1 0x3 DUP4 ADD SSTORE PUSH1 0x60 DUP4 ADD MLOAD PUSH1 0x4 DUP4 ADD SSTORE PUSH1 0x80 DUP4 ADD MLOAD PUSH1 0x5 DUP4 ADD SSTORE PUSH1 0xA0 DUP4 ADD MLOAD PUSH1 0x6 DUP4 ADD SSTORE PUSH1 0xC0 DUP4 ADD MLOAD PUSH1 0x7 DUP4 ADD DUP1 SLOAD PUSH1 0x1 PUSH1 0x1 PUSH1 0xA0 SHL SUB SWAP3 DUP4 AND PUSH1 0x1 PUSH1 0x1 PUSH1 0xA0 SHL SUB NOT SWAP2 DUP3 AND OR SWAP1 SWAP2 SSTORE PUSH1 0xE0 DUP6 ADD MLOAD DUP1 MLOAD PUSH1 0x8 DUP7 ADD DUP1 SLOAD SWAP2 DUP6 AND SWAP2 DUP5 AND SWAP2 SWAP1 SWAP2 OR SWAP1 SSTORE PUSH1 0x20 SWAP1 DUP2 ADD MLOAD PUSH1 0x9 DUP7 ADD SSTORE PUSH2 0x100 DUP7 ADD MLOAD DUP1 MLOAD PUSH1 0xA DUP8 ADD DUP1 SLOAD SWAP2 SWAP1 SWAP6 AND SWAP4 AND SWAP3 SWAP1 SWAP3 OR DUP4 SSTORE DUP2 ADD MLOAD PUSH1 0xB DUP6 ADD SSTORE SWAP2 DUP3 ADD MLOAD PUSH1 0xC DUP5 ADD SWAP1 PUSH2 0x1E91 SWAP1 DUP3 PUSH2 0x2530 JUMP JUMPDEST POP PUSH1 0x60 SWAP2 SWAP1 SWAP2 ADD MLOAD PUSH1 0x3 SWAP1 SWAP2 ADD DUP1 SLOAD SWAP2 ISZERO ISZERO PUSH1 0xFF NOT SWAP3 DUP4 AND OR SWAP1 SSTORE PUSH2 0x120 SWAP3 SWAP1 SWAP3 ADD MLOAD PUSH1 0xE SWAP1 SWAP2 ADD DUP1 SLOAD SWAP2 ISZERO ISZERO SWAP2 SWAP1 SWAP3 AND OR SWAP1 SSTORE MLOAD SWAP3 POP POP POP SWAP5 SWAP4 POP POP POP POP JUMP JUMPDEST CALLER PUSH1 0x0 SWAP1 DUP2 MSTORE PUSH1 0x20 DUP2 SWAP1 MSTORE PUSH1 0x40 DUP2 KECCAK256 DUP1 SLOAD DUP5 SWAP2 SWAP1 DUP4 SWAP1 PUSH2 0x1EF3 SWAP1 DUP5 SWAP1 PUSH2 0x241A JUMP JUMPDEST SWAP1 SWAP2 SSTORE POP PUSH2 0x1BBF SWAP1 POP DUP4 DUP4 PUSH2 0x2BB JUMP JUMPDEST PUSH1 0x0 PUSH1 0x1 PUSH1 0x2 DUP4 DUP2 SLOAD DUP2 LT PUSH2 0x1F1A JUMPI PUSH2 0x1F1A PUSH2 0x242D JUMP JUMPDEST PUSH1 0x0 SWAP2 DUP3 MSTORE PUSH1 0x20 SWAP2 DUP3 SWAP1 KECCAK256 PUSH1 0xF SWAP1 SWAP2 MUL ADD PUSH1 0xD ADD DUP1 SLOAD PUSH1 0xFF NOT AND SWAP3 ISZERO ISZERO SWAP3 SWAP1 SWAP3 OR SWAP1 SWAP2 SSTORE PUSH1 0x40 MLOAD DUP4 DUP2 MSTORE PUSH32 0x5A80336CEDD647533D99FEFC5A4618F060834EFA1A3E774E2728C9874A491D38 SWAP2 ADD PUSH1 0x40 MLOAD DUP1 SWAP2 SUB SWAP1 LOG1 PUSH1 0x0 PUSH1 0x2 DUP4 DUP2 SLOAD DUP2 LT PUSH2 0x1F84 JUMPI PUSH2 0x1F84 PUSH2 0x242D JUMP JUMPDEST PUSH1 0x0 SWAP2 DUP3 MSTORE PUSH1 0x20 DUP3 KECCAK256 PUSH1 0xA PUSH1 0xF SWAP1 SWAP3 MUL ADD ADD SLOAD PUSH1 0x2 DUP1 SLOAD PUSH1 0x1 PUSH1 0x1 PUSH1 0xA0 SHL SUB SWAP1 SWAP3 AND SWAP4 POP SWAP1 DUP6 SWAP1 DUP2 LT PUSH2 0x1FB9 JUMPI PUSH2 0x1FB9 PUSH2 0x242D JUMP JUMPDEST SWAP1 PUSH1 0x0 MSTORE PUSH1 0x20 PUSH1 0x0 KECCAK256 SWAP1 PUSH1 0xF MUL ADD PUSH1 0x5 ADD SLOAD PUSH1 0x2 DUP6 DUP2 SLOAD DUP2 LT PUSH2 0x1FDE JUMPI PUSH2 0x1FDE PUSH2 0x242D JUMP JUMPDEST SWAP1 PUSH1 0x0 MSTORE PUSH1 0x20 PUSH1 0x0 KECCAK256 SWAP1 PUSH1 0xF MUL ADD PUSH1 0x3 ADD SLOAD PUSH2 0x1FFA SWAP2 SWAP1 PUSH2 0x241A JUMP JUMPDEST SWAP1 POP PUSH1 0x0 PUSH2 0x2008 DUP3 DUP5 PUSH2 0x1ED2 JUMP JUMPDEST SWAP1 POP PUSH1 0x0 PUSH4 0xCB392747 PUSH1 0xE0 SHL PUSH1 0x2 DUP8 DUP2 SLOAD DUP2 LT PUSH2 0x2027 JUMPI PUSH2 0x2027 PUSH2 0x242D JUMP JUMPDEST SWAP1 PUSH1 0x0 MSTORE PUSH1 0x20 PUSH1 0x0 KECCAK256 SWAP1 PUSH1 0xF MUL ADD PUSH1 0xA ADD PUSH1 0x2 ADD PUSH1 0x40 MLOAD PUSH1 0x24 ADD PUSH2 0x204B SWAP2 SWAP1 PUSH2 0x27E3 JUMP JUMPDEST PUSH1 0x40 MLOAD PUSH1 0x20 DUP2 DUP4 SUB SUB DUP2 MSTORE SWAP1 PUSH1 0x40 MSTORE SWAP1 PUSH1 0x1 PUSH1 0x1 PUSH1 0xE0 SHL SUB NOT AND PUSH1 0x20 DUP3 ADD DUP1 MLOAD PUSH1 0x1 PUSH1 0x1 PUSH1 0xE0 SHL SUB DUP4 DUP2 DUP4 AND OR DUP4 MSTORE POP POP POP POP SWAP1 POP PUSH1 0x0 PUSH1 0x2 DUP8 DUP2 SLOAD DUP2 LT PUSH2 0x2095 JUMPI PUSH2 0x2095 PUSH2 0x242D JUMP JUMPDEST PUSH1 0x0 SWAP2 DUP3 MSTORE PUSH1 0x20 SWAP1 SWAP2 KECCAK256 PUSH1 0x7 PUSH1 0xF SWAP1 SWAP3 MUL ADD ADD SLOAD PUSH1 0x2 DUP1 SLOAD PUSH1 0x1 PUSH1 0x1 PUSH1 0xA0 SHL SUB SWAP1 SWAP3 AND SWAP2 DUP10 SWAP1 DUP2 LT PUSH2 0x20C9 JUMPI PUSH2 0x20C9 PUSH2 0x242D JUMP JUMPDEST SWAP1 PUSH1 0x0 MSTORE PUSH1 0x20 PUSH1 0x0 KECCAK256 SWAP1 PUSH1 0xF MUL ADD PUSH1 0x4 ADD SLOAD DUP4 PUSH1 0x40 MLOAD PUSH2 0x20E9 SWAP2 SWAP1 PUSH2 0x286E JUMP JUMPDEST PUSH1 0x0 PUSH1 0x40 MLOAD DUP1 DUP4 SUB DUP2 PUSH1 0x0 DUP8 DUP8 CALL SWAP3 POP POP POP RETURNDATASIZE DUP1 PUSH1 0x0 DUP2 EQ PUSH2 0x2127 JUMPI PUSH1 0x40 MLOAD SWAP2 POP PUSH1 0x1F NOT PUSH1 0x3F RETURNDATASIZE ADD AND DUP3 ADD PUSH1 0x40 MSTORE RETURNDATASIZE DUP3 MSTORE RETURNDATASIZE PUSH1 0x0 PUSH1 0x20 DUP5 ADD RETURNDATACOPY PUSH2 0x212C JUMP JUMPDEST PUSH1 0x60 SWAP2 POP JUMPDEST POP POP PUSH1 0x40 DUP1 MLOAD DUP10 DUP2 MSTORE DUP3 ISZERO ISZERO PUSH1 0x20 DUP3 ADD MSTORE SWAP2 SWAP3 POP PUSH32 0xA531C8F4BBF2A18049D85528BB5AAAE66874AF94BCB325738EE729A2B6CF8428 SWAP2 ADD PUSH1 0x40 MLOAD DUP1 SWAP2 SUB SWAP1 LOG1 POP SWAP1 SWAP6 SWAP5 POP POP POP POP POP JUMP JUMPDEST DUP1 CALLDATALOAD PUSH1 0x1 PUSH1 0x1 PUSH1 0xA0 SHL SUB DUP2 AND DUP2 EQ PUSH2 0x218D JUMPI PUSH1 0x0 DUP1 REVERT JUMPDEST SWAP2 SWAP1 POP JUMP JUMPDEST PUSH1 0x0 DUP1 PUSH1 0x40 DUP4 DUP6 SUB SLT ISZERO PUSH2 0x21A5 JUMPI PUSH1 0x0 DUP1 REVERT JUMPDEST DUP3 CALLDATALOAD SWAP2 POP PUSH2 0x21B5 PUSH1 0x20 DUP5 ADD PUSH2 0x2176 JUMP JUMPDEST SWAP1 POP SWAP3 POP SWAP3 SWAP1 POP JUMP JUMPDEST PUSH1 0x0 PUSH1 0x20 DUP3 DUP5 SUB SLT ISZERO PUSH2 0x21D0 JUMPI PUSH1 0x0 DUP1 REVERT JUMPDEST POP CALLDATALOAD SWAP2 SWAP1 POP JUMP JUMPDEST PUSH1 0x0 DUP1 PUSH1 0x0 PUSH1 0x40 DUP5 DUP7 SUB SLT ISZERO PUSH2 0x21EC JUMPI PUSH1 0x0 DUP1 REVERT JUMPDEST DUP4 CALLDATALOAD SWAP3 POP PUSH1 0x20 DUP5 ADD CALLDATALOAD PUSH8 0xFFFFFFFFFFFFFFFF DUP1 DUP3 GT ISZERO PUSH2 0x220B JUMPI PUSH1 0x0 DUP1 REVERT JUMPDEST DUP2 DUP7 ADD SWAP2 POP DUP7 PUSH1 0x1F DUP4 ADD SLT PUSH2 0x221F JUMPI PUSH1 0x0 DUP1 REVERT JUMPDEST DUP2 CALLDATALOAD DUP2 DUP2 GT ISZERO PUSH2 0x222E JUMPI PUSH1 0x0 DUP1 REVERT JUMPDEST DUP8 PUSH1 0x20 DUP3 DUP6 ADD ADD GT ISZERO PUSH2 0x2240 JUMPI PUSH1 0x0 DUP1 REVERT JUMPDEST PUSH1 0x20 DUP4 ADD SWAP5 POP DUP1 SWAP4 POP POP POP POP SWAP3 POP SWAP3 POP SWAP3 JUMP JUMPDEST PUSH1 0x0 PUSH1 0x20 DUP3 DUP5 SUB SLT ISZERO PUSH2 0x2265 JUMPI PUSH1 0x0 DUP1 REVERT JUMPDEST PUSH2 0x1BBF DUP3 PUSH2 0x2176 JUMP JUMPDEST PUSH1 0x0 JUMPDEST DUP4 DUP2 LT ISZERO PUSH2 0x2289 JUMPI DUP2 DUP2 ADD MLOAD DUP4 DUP3 ADD MSTORE PUSH1 0x20 ADD PUSH2 0x2271 JUMP JUMPDEST POP POP PUSH1 0x0 SWAP2 ADD MSTORE JUMP JUMPDEST PUSH1 0x0 DUP2 MLOAD DUP1 DUP5 MSTORE PUSH2 0x22AA DUP2 PUSH1 0x20 DUP7 ADD PUSH1 0x20 DUP7 ADD PUSH2 0x226E JUMP JUMPDEST PUSH1 0x1F ADD PUSH1 0x1F NOT AND SWAP3 SWAP1 SWAP3 ADD PUSH1 0x20 ADD SWAP3 SWAP2 POP POP JUMP JUMPDEST DUP1 MLOAD DUP3 MSTORE PUSH1 0x0 PUSH1 0x20 DUP3 ADD MLOAD PUSH1 0x40 PUSH1 0x20 DUP6 ADD MSTORE PUSH2 0x22DD PUSH1 0x40 DUP6 ADD DUP3 PUSH2 0x2292 JUMP JUMPDEST SWAP5 SWAP4 POP POP POP POP JUMP JUMPDEST PUSH1 0x0 PUSH2 0x160 DUP13 DUP4 MSTORE DUP1 PUSH1 0x20 DUP5 ADD MSTORE PUSH2 0x22FF DUP2 DUP5 ADD DUP14 PUSH2 0x22BE JUMP JUMPDEST SWAP1 POP DUP11 PUSH1 0x40 DUP5 ADD MSTORE DUP10 PUSH1 0x60 DUP5 ADD MSTORE DUP9 PUSH1 0x80 DUP5 ADD MSTORE DUP8 PUSH1 0xA0 DUP5 ADD MSTORE PUSH1 0x1 DUP1 PUSH1 0xA0 SHL SUB DUP1 DUP9 AND PUSH1 0xC0 DUP6 ADD MSTORE DUP1 DUP8 MLOAD AND PUSH1 0xE0 DUP6 ADD MSTORE PUSH1 0x20 DUP8 ADD MLOAD PUSH2 0x100 DUP6 ADD MSTORE DUP4 DUP3 SUB PUSH2 0x120 DUP6 ADD MSTORE DUP1 DUP7 MLOAD AND DUP3 MSTORE POP PUSH1 0x20 DUP6 ADD MLOAD PUSH1 0x20 DUP3 ADD MSTORE PUSH1 0x40 DUP6 ADD MLOAD PUSH1 0x80 PUSH1 0x40 DUP4 ADD MSTORE PUSH2 0x236F PUSH1 0x80 DUP4 ADD DUP3 PUSH2 0x2292 JUMP JUMPDEST PUSH1 0x60 DUP8 DUP2 ADD MLOAD ISZERO ISZERO SWAP4 ADD SWAP3 SWAP1 SWAP3 MSTORE POP DUP4 ISZERO ISZERO PUSH2 0x140 DUP5 ADD MSTORE SWAP1 POP SWAP12 SWAP11 POP POP POP POP POP POP POP POP POP POP POP JUMP JUMPDEST PUSH1 0x0 DUP1 PUSH1 0x0 DUP1 PUSH1 0x80 DUP6 DUP8 SUB SLT ISZERO PUSH2 0x23AE JUMPI PUSH1 0x0 DUP1 REVERT JUMPDEST DUP5 CALLDATALOAD PUSH8 0xFFFFFFFFFFFFFFFF DUP2 GT ISZERO PUSH2 0x23C5 JUMPI PUSH1 0x0 DUP1 REVERT JUMPDEST DUP6 ADD PUSH1 0x40 DUP2 DUP9 SUB SLT ISZERO PUSH2 0x23D7 JUMPI PUSH1 0x0 DUP1 REVERT JUMPDEST SWAP7 PUSH1 0x20 DUP7 ADD CALLDATALOAD SWAP7 POP PUSH1 0x40 DUP7 ADD CALLDATALOAD SWAP6 PUSH1 0x60 ADD CALLDATALOAD SWAP5 POP SWAP3 POP POP POP JUMP JUMPDEST PUSH4 0x4E487B71 PUSH1 0xE0 SHL PUSH1 0x0 MSTORE PUSH1 0x11 PUSH1 0x4 MSTORE PUSH1 0x24 PUSH1 0x0 REVERT JUMPDEST DUP2 DUP2 SUB DUP2 DUP2 GT ISZERO PUSH2 0x3DA JUMPI PUSH2 0x3DA PUSH2 0x23F1 JUMP JUMPDEST DUP1 DUP3 ADD DUP1 DUP3 GT ISZERO PUSH2 0x3DA JUMPI PUSH2 0x3DA PUSH2 0x23F1 JUMP JUMPDEST PUSH4 0x4E487B71 PUSH1 0xE0 SHL PUSH1 0x0 MSTORE PUSH1 0x32 PUSH1 0x4 MSTORE PUSH1 0x24 PUSH1 0x0 REVERT JUMPDEST PUSH1 0x20 DUP1 DUP3 MSTORE PUSH1 0x2E SWAP1 DUP3 ADD MSTORE PUSH32 0x546865726520697320616C72656164792061207375626D697373696F6E20666F PUSH1 0x40 DUP3 ADD MSTORE PUSH14 0x1C881D1A1A5CC81C995C5D595CDD PUSH1 0x92 SHL PUSH1 0x60 DUP3 ADD MSTORE PUSH1 0x80 ADD SWAP1 JUMP JUMPDEST PUSH4 0x4E487B71 PUSH1 0xE0 SHL PUSH1 0x0 MSTORE PUSH1 0x41 PUSH1 0x4 MSTORE PUSH1 0x24 PUSH1 0x0 REVERT JUMPDEST PUSH1 0x1 DUP2 DUP2 SHR SWAP1 DUP3 AND DUP1 PUSH2 0x24BB JUMPI PUSH1 0x7F DUP3 AND SWAP2 POP JUMPDEST PUSH1 0x20 DUP3 LT DUP2 SUB PUSH2 0x24DB JUMPI PUSH4 0x4E487B71 PUSH1 0xE0 SHL PUSH1 0x0 MSTORE PUSH1 0x22 PUSH1 0x4 MSTORE PUSH1 0x24 PUSH1 0x0 REVERT JUMPDEST POP SWAP2 SWAP1 POP JUMP JUMPDEST PUSH1 0x1F DUP3 GT ISZERO PUSH2 0x252B JUMPI PUSH1 0x0 DUP2 DUP2 MSTORE PUSH1 0x20 DUP2 KECCAK256 PUSH1 0x1F DUP6 ADD PUSH1 0x5 SHR DUP2 ADD PUSH1 0x20 DUP7 LT ISZERO PUSH2 0x2508 JUMPI POP DUP1 JUMPDEST PUSH1 0x1F DUP6 ADD PUSH1 0x5 SHR DUP3 ADD SWAP2 POP JUMPDEST DUP2 DUP2 LT ISZERO PUSH2 0x2527 JUMPI DUP3 DUP2 SSTORE PUSH1 0x1 ADD PUSH2 0x2514 JUMP JUMPDEST POP POP POP JUMPDEST POP POP POP JUMP JUMPDEST DUP2 MLOAD PUSH8 0xFFFFFFFFFFFFFFFF DUP2 GT ISZERO PUSH2 0x254A JUMPI PUSH2 0x254A PUSH2 0x2491 JUMP JUMPDEST PUSH2 0x255E DUP2 PUSH2 0x2558 DUP5 SLOAD PUSH2 0x24A7 JUMP JUMPDEST DUP5 PUSH2 0x24E1 JUMP JUMPDEST PUSH1 0x20 DUP1 PUSH1 0x1F DUP4 GT PUSH1 0x1 DUP2 EQ PUSH2 0x2593 JUMPI PUSH1 0x0 DUP5 ISZERO PUSH2 0x257B JUMPI POP DUP6 DUP4 ADD MLOAD JUMPDEST PUSH1 0x0 NOT PUSH1 0x3 DUP7 SWAP1 SHL SHR NOT AND PUSH1 0x1 DUP6 SWAP1 SHL OR DUP6 SSTORE PUSH2 0x2527 JUMP JUMPDEST PUSH1 0x0 DUP6 DUP2 MSTORE PUSH1 0x20 DUP2 KECCAK256 PUSH1 0x1F NOT DUP7 AND SWAP2 JUMPDEST DUP3 DUP2 LT ISZERO PUSH2 0x25C2 JUMPI DUP9 DUP7 ADD MLOAD DUP3 SSTORE SWAP5 DUP5 ADD SWAP5 PUSH1 0x1 SWAP1 SWAP2 ADD SWAP1 DUP5 ADD PUSH2 0x25A3 JUMP JUMPDEST POP DUP6 DUP3 LT ISZERO PUSH2 0x25E0 JUMPI DUP8 DUP6 ADD MLOAD PUSH1 0x0 NOT PUSH1 0x3 DUP9 SWAP1 SHL PUSH1 0xF8 AND SHR NOT AND DUP2 SSTORE JUMPDEST POP POP POP POP POP PUSH1 0x1 SWAP1 DUP2 SHL ADD SWAP1 SSTORE POP JUMP JUMPDEST DUP5 DUP2 MSTORE PUSH1 0x60 PUSH1 0x20 DUP3 ADD MSTORE DUP3 PUSH1 0x60 DUP3 ADD MSTORE DUP3 DUP5 PUSH1 0x80 DUP4 ADD CALLDATACOPY PUSH1 0x0 DUP2 DUP5 ADD PUSH1 0x80 SWAP1 DUP2 ADD SWAP2 SWAP1 SWAP2 MSTORE PUSH1 0x1 PUSH1 0x1 PUSH1 0xA0 SHL SUB SWAP3 SWAP1 SWAP3 AND PUSH1 0x40 DUP3 ADD MSTORE PUSH1 0x1F SWAP1 SWAP3 ADD PUSH1 0x1F NOT AND SWAP1 SWAP2 ADD ADD SWAP3 SWAP2 POP POP JUMP JUMPDEST PUSH1 0x20 DUP2 MSTORE PUSH1 0x0 PUSH2 0x1BBF PUSH1 0x20 DUP4 ADD DUP5 PUSH2 0x22BE JUMP JUMPDEST PUSH1 0x40 MLOAD PUSH1 0x1F DUP3 ADD PUSH1 0x1F NOT AND DUP2 ADD PUSH8 0xFFFFFFFFFFFFFFFF DUP2 GT DUP3 DUP3 LT OR ISZERO PUSH2 0x2675 JUMPI PUSH2 0x2675 PUSH2 0x2491 JUMP JUMPDEST PUSH1 0x40 MSTORE SWAP2 SWAP1 POP JUMP JUMPDEST PUSH1 0x0 PUSH8 0xFFFFFFFFFFFFFFFF DUP3 GT ISZERO PUSH2 0x2697 JUMPI PUSH2 0x2697 PUSH2 0x2491 JUMP JUMPDEST POP PUSH1 0x1F ADD PUSH1 0x1F NOT AND PUSH1 0x20 ADD SWAP1 JUMP JUMPDEST PUSH1 0x0 PUSH1 0x20 DUP3 DUP5 SUB SLT ISZERO PUSH2 0x26B7 JUMPI PUSH1 0x0 DUP1 REVERT JUMPDEST DUP2 MLOAD PUSH8 0xFFFFFFFFFFFFFFFF DUP2 GT ISZERO PUSH2 0x26CE JUMPI PUSH1 0x0 DUP1 REVERT JUMPDEST DUP3 ADD PUSH1 0x1F DUP2 ADD DUP5 SGT PUSH2 0x26DF JUMPI PUSH1 0x0 DUP1 REVERT JUMPDEST DUP1 MLOAD PUSH2 0x26F2 PUSH2 0x26ED DUP3 PUSH2 0x267D JUMP JUMPDEST PUSH2 0x264C JUMP JUMPDEST DUP2 DUP2 MSTORE DUP6 PUSH1 0x20 DUP4 DUP6 ADD ADD GT ISZERO PUSH2 0x2707 JUMPI PUSH1 0x0 DUP1 REVERT JUMPDEST PUSH2 0x2718 DUP3 PUSH1 0x20 DUP4 ADD PUSH1 0x20 DUP7 ADD PUSH2 0x226E JUMP JUMPDEST SWAP6 SWAP5 POP POP POP POP POP JUMP JUMPDEST DUP3 DUP2 MSTORE PUSH1 0x40 PUSH1 0x20 DUP3 ADD MSTORE PUSH1 0x0 PUSH2 0x22DD PUSH1 0x40 DUP4 ADD DUP5 PUSH2 0x2292 JUMP JUMPDEST PUSH1 0x0 PUSH1 0x40 DUP3 CALLDATASIZE SUB SLT ISZERO PUSH2 0x274C JUMPI PUSH1 0x0 DUP1 REVERT JUMPDEST PUSH1 0x40 MLOAD PUSH1 0x40 DUP2 ADD PUSH8 0xFFFFFFFFFFFFFFFF DUP3 DUP3 LT DUP2 DUP4 GT OR ISZERO PUSH2 0x2770 JUMPI PUSH2 0x2770 PUSH2 0x2491 JUMP JUMPDEST DUP2 PUSH1 0x40 MSTORE DUP5 CALLDATALOAD DUP4 MSTORE PUSH1 0x20 SWAP2 POP DUP2 DUP6 ADD CALLDATALOAD DUP2 DUP2 GT ISZERO PUSH2 0x278D JUMPI PUSH1 0x0 DUP1 REVERT JUMPDEST DUP6 ADD SWAP1 POP CALLDATASIZE PUSH1 0x1F DUP3 ADD SLT PUSH2 0x27A0 JUMPI PUSH1 0x0 DUP1 REVERT JUMPDEST DUP1 CALLDATALOAD PUSH2 0x27AE PUSH2 0x26ED DUP3 PUSH2 0x267D JUMP JUMPDEST DUP2 DUP2 MSTORE CALLDATASIZE DUP5 DUP4 DUP6 ADD ADD GT ISZERO PUSH2 0x27C2 JUMPI PUSH1 0x0 DUP1 REVERT JUMPDEST DUP2 DUP5 DUP5 ADD DUP6 DUP4 ADD CALLDATACOPY PUSH1 0x0 SWAP2 DUP2 ADD DUP5 ADD SWAP2 SWAP1 SWAP2 MSTORE SWAP2 DUP4 ADD SWAP2 SWAP1 SWAP2 MSTORE POP SWAP3 SWAP2 POP POP JUMP JUMPDEST PUSH1 0x0 PUSH1 0x20 DUP1 DUP4 MSTORE PUSH1 0x0 DUP5 SLOAD PUSH2 0x27F7 DUP2 PUSH2 0x24A7 JUMP JUMPDEST DUP1 DUP5 DUP8 ADD MSTORE PUSH1 0x40 PUSH1 0x1 DUP1 DUP5 AND PUSH1 0x0 DUP2 EQ PUSH2 0x2818 JUMPI PUSH1 0x1 DUP2 EQ PUSH2 0x2832 JUMPI PUSH2 0x2860 JUMP JUMPDEST PUSH1 0xFF NOT DUP6 AND DUP10 DUP5 ADD MSTORE DUP4 ISZERO ISZERO PUSH1 0x5 SHL DUP10 ADD DUP4 ADD SWAP6 POP PUSH2 0x2860 JUMP JUMPDEST DUP10 PUSH1 0x0 MSTORE DUP7 PUSH1 0x0 KECCAK256 PUSH1 0x0 JUMPDEST DUP6 DUP2 LT ISZERO PUSH2 0x2858 JUMPI DUP2 SLOAD DUP12 DUP3 ADD DUP7 ADD MSTORE SWAP1 DUP4 ADD SWAP1 DUP9 ADD PUSH2 0x283D JUMP JUMPDEST DUP11 ADD DUP5 ADD SWAP7 POP POP JUMPDEST POP SWAP4 SWAP9 SWAP8 POP POP POP POP POP POP POP POP JUMP JUMPDEST PUSH1 0x0 DUP3 MLOAD PUSH2 0x2880 DUP2 DUP5 PUSH1 0x20 DUP8 ADD PUSH2 0x226E JUMP JUMPDEST SWAP2 SWAP1 SWAP2 ADD SWAP3 SWAP2 POP POP JUMP INVALID LOG2 PUSH5 0x6970667358 0x22 SLT KECCAK256 0x24 0xE3 NUMBER PUSH16 0x750974C68FC5EB88C3D69F90D06704D5 PUSH7 0x79A05B8CA5BD0E PUSH2 0x1A60 0x28 PUSH5 0x736F6C6343 STOP ADDMOD SGT STOP CALLER ",
  "sha1": "b8ea23bc627a70a4464ebcaa747c2f5a35dce8e1",
  "source": "// SPDX-License-Identifier: GPL-3.0\n\npragma solidity >=0.7.0 <0.9.0;\n\nimport \"./Transferable.sol\";\nimport \"./BaseClient.sol\";\n\n\nstruct Request {\n    uint id;  // Index, for unicity when raw comparing\n    BaseClient.ClientInput input;\n    uint payment; // In Wei; deberia tener en cuenta el computo y el gas de las operaciones de submit y claim\n    uint postProcessingGas;  // In Wei; for the post processing, if any\n    uint challengeInsurance;  // amount of gas for challenges, deberia ser mayor al gas estimado, just in case\n    uint claimDelay;  // the minimum amount of time that needs to pass between a submission and a payment claim, to allow for possible challengers, in secconds\n    BaseClient client;\n    Acceptance acceptance;\n    Submission submission;\n    bool cancelled;\n}\n\nstruct Acceptance {\n    address acceptor;\n    uint timestamp;\n}\n\nstruct Submission {\n    address issuer;\n    uint timestamp;\n    bytes result;\n    bool solidified;\n}\n\n\ncontract ExecutionBroker is Transferable {\n\n    uint public ACCEPTANCE_GRACE_PERIOD;  // = 300 seconds = 5 minutes \n\n    Request[] public requests;\n\n    event requestCreated(uint requestID, uint payment, uint postProcessingGas, uint challengeInsurance, uint claimDelay);\n    event requestCancelled(uint requestID, bool refundSuccess);\n\n    event requestAccepted(uint requestID, address acceptor);\n    event acceptanceCancelled(uint requestID, address acceptor, bool refundSuccess);\n    \n    event resultSubmitted(uint requestID, bytes result, address submitter);\n    event resultPostProcessed(uint requestID, bool success);\n    event requestSolidified(uint requestID);\n    \n    event challengeProcessed(uint requestID, bytes result);\n    event challengePayment(uint requestID, address payee, bool success);\n    \n    constructor(uint acceptanceGracePeriod) {\n        ACCEPTANCE_GRACE_PERIOD = acceptanceGracePeriod;\n    }\n\n    // Restricted interaction functions\n\n    function submitRequest(BaseClient.ClientInput calldata input, uint postProcessingGas, uint requestedInsurance, uint claimDelay) public payable returns (uint) {\n        // check msg.sender is an actual client - creo que no se puede, me parece que lo voy a tener que dejar asi, creo que no es una vulnerabilidad, onda, si no es del tipo, va a fallar eventualmente, y problema del boludo que lo registro mal\n        require(msg.value > postProcessingGas, \"The post processing gas cannot takeup all of the supplied ether\");  // en el bot de python, ver que efectivamente el net payment, valga la pena\n        Acceptance memory acceptance = Acceptance({\n            acceptor: address(0x0),\n            timestamp: 0\n        });\n        Submission memory submission = Submission({\n            issuer: address(0x0),\n            timestamp: 0,\n            result: abi.encode(0),\n            solidified: false\n        });\n        Request memory request = Request({\n            id: requests.length,\n            input: input,\n            payment: msg.value,  // aca esta incluido el post processing gas, para evitar tener que devolver aparte\n            postProcessingGas: postProcessingGas,\n            challengeInsurance: requestedInsurance,\n            claimDelay: claimDelay,\n            client: BaseClient(msg.sender),\n            acceptance: acceptance,\n            submission: submission,\n            cancelled: false\n        });\n        emit requestCreated(request.id, msg.value, postProcessingGas, requestedInsurance, claimDelay);\n        requests.push(request);\n        return request.id;\n    }\n\n    function cancelRequest(uint requestID) public {\n        require(requestID < requests.length, \"Index out of range\");\n        require(!requests[requestID].cancelled, \"The request was already cancelled\");\n        require(msg.sender == address(requests[requestID].client), \"You cant cancel a request that was not made by you\");\n        require(requests[requestID].acceptance.acceptor == address(0x0), \"You cant cancel an accepted request\");\n        //delete requests[requestID], no puedo hacer esto, this fucks up the ids\n        requests[requestID].cancelled = true;\n        address payable payee = payable(address(requests[requestID].client));\n        bool transferSuccess = _internalTransferFunds(requests[requestID].payment, payee);\n        emit requestCancelled(requestID, transferSuccess);\n    }\n\n    // Open interaction functions\n\n    function publicizeRequest(uint requestID) public {  // This is to re emit the event In case the request gets forgotten\n        require(requests[requestID].acceptance.acceptor == address(0x00), \"You cant publicize a taken request\");\n        emit requestCreated(requestID, requests[requestID].payment, requests[requestID].postProcessingGas, requests[requestID].challengeInsurance, requests[requestID].claimDelay);\n    }\n\n    function acceptRequest(uint requestID) public payable {\n        // what if Request does not exist? what happens to the funds? IF YOU TRY TO ACCESS AN INVALID INDEX IN AN ARRAY, THE FUNCTION GETS REVERTED AND FUNDS RETURNED TOGETHER WITH SPARE GAS (BUT NOT ALREADY CONSUMED GAS)\n        // what happens to the funds if one of the requires fail? THEY GET RETURNED\n        require(!requests[requestID].cancelled, \"The request was cancelled\");\n        require(requests[requestID].submission.issuer == address(0x0), \"There is already a submission for this request\");\n        require(requests[requestID].acceptance.acceptor == address(0x0) || (requests[requestID].acceptance.timestamp + ACCEPTANCE_GRACE_PERIOD) < block.timestamp, \"There already is an unexpired acceptance for this request\");\n        require(msg.value == requests[requestID].challengeInsurance, \"Incorrect amount of insurance provided\");\n        if (requests[requestID].acceptance.acceptor != address(0x0)) {\n            address payable payee = payable(requests[requestID].acceptance.acceptor);\n            _internalTransferFunds(requests[requestID].challengeInsurance, payee);\n        }\n        requests[requestID].acceptance.acceptor = msg.sender;\n        requests[requestID].acceptance.timestamp = block.timestamp;\n        emit requestAccepted(requestID, msg.sender);\n    }\n\n    function cancelAcceptance(uint requestID) public {\n        require(requests[requestID].acceptance.acceptor != address(0x0), \"There is no acceptor for the provided requestID\");\n        require(requests[requestID].submission.issuer == address(0x0), \"This request already has a submission\");\n        require(requests[requestID].acceptance.acceptor == msg.sender, \"You cant cancel an acceptance that does not belong to you\");\n        address payable payee = payable(requests[requestID].acceptance.acceptor);\n        requests[requestID].acceptance.acceptor = address(0x0);\n        requests[requestID].acceptance.timestamp = 0;\n        bool transferSuccess = _internalTransferFunds(requests[requestID].challengeInsurance, payee);\n        emit acceptanceCancelled(requestID, payee, transferSuccess);\n    }\n\n    function submitResult(uint requestID, bytes calldata result) public {\n        require(requests[requestID].acceptance.acceptor != address(0x0), \"You need to accept the request first\");\n        require(requests[requestID].submission.issuer == address(0x0), \"There is already a submission for this request\");\n        require(requests[requestID].acceptance.acceptor == msg.sender, \"Someone else has accepted the Request\");\n        Submission memory submission = Submission({\n            issuer: msg.sender,\n            timestamp: block.timestamp,\n            result: result,\n            solidified: false\n        });\n        requests[requestID].submission = submission;\n        emit resultSubmitted(requestID, result, msg.sender);\n    }\n\n    function challengeSubmission(uint requestID) public returns (bool) {\n        require(requests[requestID].submission.issuer != address(0x0), \"There are no submissions for the challenged request\");\n        require(!requests[requestID].submission.solidified, \"The challenged submission has already solidified\");\n\n\t\tbytes memory submittedResult = requests[requestID].submission.result;\n        BaseClient.ClientInput memory requestInput = requests[requestID].input;\n        bytes memory trueFinalResult = requests[requestID].client.clientLogic(requestInput);\n        emit challengeProcessed(requestID, trueFinalResult);\n\n        if (keccak256(submittedResult) != keccak256(trueFinalResult)) {\n            Submission memory submission = Submission({\n                issuer: msg.sender,\n                timestamp: block.timestamp,\n                result: trueFinalResult,\n                solidified: false\n            });\n            requests[requestID].submission = submission;  // notar que en las requests que se resolvieron por challenge el acceptor es diferente al issuer (a menos que alguien se autochallengee)\n            bool transferSuccess = _solidify(requestID);\n            emit challengePayment(requestID, msg.sender, transferSuccess);\n            return true;  // result was corrected\n        } else {  // el original lo hizo bien, solidifico y le pago\n            bool transferSuccess = _solidify(requestID);\n            emit challengePayment(requestID, requests[requestID].submission.issuer, transferSuccess);\n            return false;  // original was correct\n        }\n    }\n\n    function claimPayment(uint requestID) public returns (bool) {\n        require(requests[requestID].submission.issuer != address(0x0), \"There are no submissions for the provided request\");\n        require(requests[requestID].submission.issuer == msg.sender, \"This payment does not belong to you\");\n        require(!requests[requestID].submission.solidified, \"The provided request has already solidified\");\n        require(requests[requestID].submission.timestamp + requests[requestID].claimDelay < block.timestamp, \"The claim delay hasn't passed yet\");\n        bool transferSuccess = _solidify(requestID);\n        return transferSuccess;\n    }\n\n    // Public views\n\n    function isRequestOpen(uint requestID) public view returns (bool) {  // solo a modo de ayuda\n        return (!requests[requestID].cancelled && requests[requestID].acceptance.acceptor == address(0x0));\n    }\n\n    function requestCount() public view returns (uint) {\n        return requests.length;\n    }\n\n    // Private functions\n    function _solidify(uint requestID) private returns (bool) {\n        // first solidify, then pay, for reentrancy issues\n        requests[requestID].submission.solidified = true;\n        emit requestSolidified(requestID);\n        address payable payee = payable(requests[requestID].submission.issuer);\n        uint payAmount = requests[requestID].payment + requests[requestID].challengeInsurance;\n        bool transferSuccess = _internalTransferFunds(payAmount, payee);\n        \n        bytes memory data = abi.encodeWithSelector(requests[requestID].client.processResult.selector, requests[requestID].submission.result);\n        (bool callSuccess, ) = address(requests[requestID].client).call{gas: requests[requestID].postProcessingGas}(data);  // el delegate para que me aparezca el sender como el broker. cuidado si esto no me hace una vulnerabilidad, puedo vaciar fondos desde client? no deberia pasar nada, ni el broker ni el client puede extraer fondos\n        emit resultPostProcessed(requestID, callSuccess);\n\n        return transferSuccess;\n    }\n\n}",
  "sourcePath": "contracts/ExecutionBroker.sol",
  "type": "contract"
}