{
  "abi": [
    {
      "anonymous": false,
      "inputs": [
        {
          "indexed": false,
          "internalType": "uint256",
          "name": "requestID",
          "type": "uint256"
        },
        {
          "indexed": false,
          "internalType": "address",
          "name": "acceptor",
          "type": "address"
        },
        {
          "indexed": false,
          "internalType": "bool",
          "name": "refundSuccess",
          "type": "bool"
        }
      ],
      "name": "acceptanceCancelled",
      "type": "event"
    },
    {
      "anonymous": false,
      "inputs": [
        {
          "indexed": false,
          "internalType": "uint256",
          "name": "requestID",
          "type": "uint256"
        },
        {
          "indexed": false,
          "internalType": "bool",
          "name": "success",
          "type": "bool"
        }
      ],
      "name": "challengePayment",
      "type": "event"
    },
    {
      "anonymous": false,
      "inputs": [
        {
          "indexed": false,
          "internalType": "uint256",
          "name": "requestID",
          "type": "uint256"
        },
        {
          "indexed": false,
          "internalType": "bytes",
          "name": "result",
          "type": "bytes"
        }
      ],
      "name": "challengeProcessed",
      "type": "event"
    },
    {
      "anonymous": false,
      "inputs": [
        {
          "indexed": false,
          "internalType": "uint256",
          "name": "subtime",
          "type": "uint256"
        },
        {
          "indexed": false,
          "internalType": "uint256",
          "name": "delay",
          "type": "uint256"
        },
        {
          "indexed": false,
          "internalType": "uint256",
          "name": "blocktime",
          "type": "uint256"
        }
      ],
      "name": "print2",
      "type": "event"
    },
    {
      "anonymous": false,
      "inputs": [
        {
          "indexed": false,
          "internalType": "uint256",
          "name": "requestID",
          "type": "uint256"
        },
        {
          "indexed": false,
          "internalType": "address payable",
          "name": "payee",
          "type": "address"
        },
        {
          "indexed": false,
          "internalType": "uint256",
          "name": "payment",
          "type": "uint256"
        },
        {
          "indexed": false,
          "internalType": "uint256",
          "name": "insurance",
          "type": "uint256"
        },
        {
          "indexed": false,
          "internalType": "uint256",
          "name": "totalPayment",
          "type": "uint256"
        },
        {
          "indexed": false,
          "internalType": "uint256",
          "name": "preBalance",
          "type": "uint256"
        },
        {
          "indexed": false,
          "internalType": "uint256",
          "name": "postBalance",
          "type": "uint256"
        }
      ],
      "name": "printer",
      "type": "event"
    },
    {
      "anonymous": false,
      "inputs": [
        {
          "indexed": false,
          "internalType": "uint256",
          "name": "requestID",
          "type": "uint256"
        },
        {
          "indexed": false,
          "internalType": "address",
          "name": "acceptor",
          "type": "address"
        }
      ],
      "name": "requestAccepted",
      "type": "event"
    },
    {
      "anonymous": false,
      "inputs": [
        {
          "indexed": false,
          "internalType": "uint256",
          "name": "requestID",
          "type": "uint256"
        },
        {
          "indexed": false,
          "internalType": "bool",
          "name": "refundSuccess",
          "type": "bool"
        }
      ],
      "name": "requestCancelled",
      "type": "event"
    },
    {
      "anonymous": false,
      "inputs": [
        {
          "indexed": false,
          "internalType": "uint256",
          "name": "requestID",
          "type": "uint256"
        },
        {
          "indexed": false,
          "internalType": "uint256",
          "name": "payment",
          "type": "uint256"
        },
        {
          "indexed": false,
          "internalType": "uint256",
          "name": "postProcessingGas",
          "type": "uint256"
        },
        {
          "indexed": false,
          "internalType": "uint256",
          "name": "challengeInsurance",
          "type": "uint256"
        },
        {
          "indexed": false,
          "internalType": "uint256",
          "name": "claimDelay",
          "type": "uint256"
        }
      ],
      "name": "requestCreated",
      "type": "event"
    },
    {
      "anonymous": false,
      "inputs": [
        {
          "indexed": false,
          "internalType": "uint256",
          "name": "requestID",
          "type": "uint256"
        }
      ],
      "name": "requestSolidified",
      "type": "event"
    },
    {
      "anonymous": false,
      "inputs": [
        {
          "indexed": false,
          "internalType": "uint256",
          "name": "requestID",
          "type": "uint256"
        },
        {
          "indexed": false,
          "internalType": "bool",
          "name": "success",
          "type": "bool"
        }
      ],
      "name": "resultPostProcessed",
      "type": "event"
    },
    {
      "anonymous": false,
      "inputs": [
        {
          "indexed": false,
          "internalType": "uint256",
          "name": "requestID",
          "type": "uint256"
        },
        {
          "indexed": false,
          "internalType": "bytes",
          "name": "result",
          "type": "bytes"
        },
        {
          "indexed": false,
          "internalType": "address",
          "name": "submitter",
          "type": "address"
        }
      ],
      "name": "resultSubmitted",
      "type": "event"
    },
    {
      "inputs": [
        {
          "internalType": "uint256",
          "name": "requestID",
          "type": "uint256"
        }
      ],
      "name": "acceptRequest",
      "outputs": [],
      "stateMutability": "payable",
      "type": "function"
    },
    {
      "inputs": [
        {
          "internalType": "uint256",
          "name": "requestID",
          "type": "uint256"
        }
      ],
      "name": "cancelAcceptance",
      "outputs": [],
      "stateMutability": "nonpayable",
      "type": "function"
    },
    {
      "inputs": [
        {
          "internalType": "uint256",
          "name": "requestID",
          "type": "uint256"
        }
      ],
      "name": "cancelRequest",
      "outputs": [],
      "stateMutability": "nonpayable",
      "type": "function"
    },
    {
      "inputs": [
        {
          "internalType": "uint256",
          "name": "requestID",
          "type": "uint256"
        }
      ],
      "name": "challengeSubmission",
      "outputs": [
        {
          "internalType": "bool",
          "name": "",
          "type": "bool"
        }
      ],
      "stateMutability": "nonpayable",
      "type": "function"
    },
    {
      "inputs": [
        {
          "internalType": "uint256",
          "name": "requestID",
          "type": "uint256"
        }
      ],
      "name": "claimPayment",
      "outputs": [
        {
          "internalType": "bool",
          "name": "",
          "type": "bool"
        }
      ],
      "stateMutability": "nonpayable",
      "type": "function"
    },
    {
      "inputs": [
        {
          "internalType": "uint256",
          "name": "requestID",
          "type": "uint256"
        }
      ],
      "name": "isRequestOpen",
      "outputs": [
        {
          "internalType": "bool",
          "name": "",
          "type": "bool"
        }
      ],
      "stateMutability": "view",
      "type": "function"
    },
    {
      "inputs": [
        {
          "internalType": "uint256",
          "name": "amount",
          "type": "uint256"
        },
        {
          "internalType": "address",
          "name": "destination",
          "type": "address"
        }
      ],
      "name": "publicTransferFunds",
      "outputs": [
        {
          "internalType": "bool",
          "name": "",
          "type": "bool"
        }
      ],
      "stateMutability": "nonpayable",
      "type": "function"
    },
    {
      "inputs": [
        {
          "internalType": "uint256",
          "name": "requestID",
          "type": "uint256"
        }
      ],
      "name": "publicizeRequest",
      "outputs": [],
      "stateMutability": "nonpayable",
      "type": "function"
    },
    {
      "inputs": [],
      "name": "requestCount",
      "outputs": [
        {
          "internalType": "uint256",
          "name": "",
          "type": "uint256"
        }
      ],
      "stateMutability": "view",
      "type": "function"
    },
    {
      "inputs": [
        {
          "internalType": "uint256",
          "name": "",
          "type": "uint256"
        }
      ],
      "name": "requests",
      "outputs": [
        {
          "internalType": "uint256",
          "name": "id",
          "type": "uint256"
        },
        {
          "components": [
            {
              "internalType": "uint256",
              "name": "functionToRun",
              "type": "uint256"
            },
            {
              "internalType": "bytes",
              "name": "data",
              "type": "bytes"
            }
          ],
          "internalType": "struct BaseClient.ClientInput",
          "name": "input",
          "type": "tuple"
        },
        {
          "internalType": "uint256",
          "name": "payment",
          "type": "uint256"
        },
        {
          "internalType": "uint256",
          "name": "postProcessingGas",
          "type": "uint256"
        },
        {
          "internalType": "uint256",
          "name": "challengeInsurance",
          "type": "uint256"
        },
        {
          "internalType": "uint256",
          "name": "claimDelay",
          "type": "uint256"
        },
        {
          "internalType": "contract BaseClient",
          "name": "client",
          "type": "address"
        },
        {
          "components": [
            {
              "internalType": "address",
              "name": "acceptor",
              "type": "address"
            },
            {
              "internalType": "uint256",
              "name": "timestamp",
              "type": "uint256"
            }
          ],
          "internalType": "struct RequestAcceptance",
          "name": "acceptance",
          "type": "tuple"
        },
        {
          "components": [
            {
              "internalType": "address",
              "name": "issuer",
              "type": "address"
            },
            {
              "internalType": "uint256",
              "name": "timestamp",
              "type": "uint256"
            },
            {
              "internalType": "bytes",
              "name": "result",
              "type": "bytes"
            },
            {
              "internalType": "bool",
              "name": "solidified",
              "type": "bool"
            }
          ],
          "internalType": "struct Submission",
          "name": "submission",
          "type": "tuple"
        },
        {
          "internalType": "bool",
          "name": "cancelled",
          "type": "bool"
        }
      ],
      "stateMutability": "view",
      "type": "function"
    },
    {
      "inputs": [
        {
          "components": [
            {
              "internalType": "uint256",
              "name": "functionToRun",
              "type": "uint256"
            },
            {
              "internalType": "bytes",
              "name": "data",
              "type": "bytes"
            }
          ],
          "internalType": "struct BaseClient.ClientInput",
          "name": "input",
          "type": "tuple"
        },
        {
          "internalType": "uint256",
          "name": "postProcessingGas",
          "type": "uint256"
        },
        {
          "internalType": "uint256",
          "name": "requestedInsurance",
          "type": "uint256"
        },
        {
          "internalType": "uint256",
          "name": "claimDelay",
          "type": "uint256"
        }
      ],
      "name": "submitRequest",
      "outputs": [
        {
          "internalType": "uint256",
          "name": "",
          "type": "uint256"
        }
      ],
      "stateMutability": "payable",
      "type": "function"
    },
    {
      "inputs": [
        {
          "internalType": "uint256",
          "name": "requestID",
          "type": "uint256"
        },
        {
          "internalType": "bytes",
          "name": "result",
          "type": "bytes"
        }
      ],
      "name": "submitResult",
      "outputs": [],
      "stateMutability": "nonpayable",
      "type": "function"
    },
    {
      "inputs": [
        {
          "internalType": "address",
          "name": "",
          "type": "address"
        }
      ],
      "name": "weiBalances",
      "outputs": [
        {
          "internalType": "uint256",
          "name": "",
          "type": "uint256"
        }
      ],
      "stateMutability": "view",
      "type": "function"
    }
  ],
  "bytecode": "608060405234801561001057600080fd5b506125b7806100206000396000f3fe6080604052600436106100c25760003560e01c80635badbe4c1161007f5780638274fbf5116100595780638274fbf514610213578063b2c221f214610233578063c63fdcc714610253578063d900f9341461027357600080fd5b80635badbe4c146101915780636ef9e145146101b057806381d12c58146101dd57600080fd5b80630d45c199146100c75780633015394c146100fc57806349875db21461011e5780634ba1f0981461013e578063540a61781461015157806354c7d90614610171575b600080fd5b3480156100d357600080fd5b506100e76100e2366004611ef3565b610286565b60405190151581526020015b60405180910390f35b34801561010857600080fd5b5061011c610117366004611f1f565b6103ab565b005b34801561012a57600080fd5b5061011c610139366004611f38565b61067d565b61011c61014c366004611f1f565b61097b565b34801561015d57600080fd5b5061011c61016c366004611f1f565b610bb3565b34801561017d57600080fd5b5061011c61018c366004611f1f565b610d2b565b34801561019d57600080fd5b506001545b6040519081526020016100f3565b3480156101bc57600080fd5b506101a26101cb366004611fb4565b60006020819052908152604090205481565b3480156101e957600080fd5b506101fd6101f8366004611f1f565b61101b565b6040516100f39a99989796959493929190612046565b34801561021f57600080fd5b506100e761022e366004611f1f565b61121f565b34801561023f57600080fd5b506100e761024e366004611f1f565b611295565b34801561025f57600080fd5b506100e761026e366004611f1f565b611748565b6101a26102813660046120f9565b611906565b336000908152602081905260408120548311156102f45760405162461bcd60e51b815260206004820152602160248201527f53656e64657220646f6573206e6f74206861766520656e6f7567682066756e646044820152607360f81b60648201526084015b60405180910390fd5b3360009081526020819052604081208054859290610313908490612168565b909155505060405182906000906001600160a01b0383169086908381818185875af1925050503d8060008114610365576040519150601f19603f3d011682016040523d82523d6000602084013e61036a565b606091505b50509050806103a1576001600160a01b0384166000908152602081905260408120805487929061039b90849061217b565b90915550505b9150505b92915050565b60015481106103f15760405162461bcd60e51b8152602060048201526012602482015271496e646578206f7574206f662072616e676560701b60448201526064016102eb565b600181815481106104045761040461218e565b60009182526020909120600e600f90920201015460ff16156104725760405162461bcd60e51b815260206004820152602160248201527f54686520726571756573742077617320616c72656164792063616e63656c6c656044820152601960fa1b60648201526084016102eb565b600181815481106104855761048561218e565b60009182526020909120600f90910201600701546001600160a01b0316331461050b5760405162461bcd60e51b815260206004820152603260248201527f596f752063616e742063616e63656c20612072657175657374207468617420776044820152716173206e6f74206d61646520627920796f7560701b60648201526084016102eb565b60006001600160a01b0316600182815481106105295761052961218e565b600091825260209091206008600f9092020101546001600160a01b03161461059f5760405162461bcd60e51b815260206004820152602360248201527f596f752063616e742063616e63656c20616e2061636365707465642072657175604482015262195cdd60ea1b60648201526084016102eb565b60018082815481106105b3576105b361218e565b600091825260208220600f9190910201600e01805460ff19169215159290921790915560018054839081106105ea576105ea61218e565b6000918252602082206007600f909202010154600180546001600160a01b03909216935061063a91859081106106225761062261218e565b90600052602060002090600f02016003015483611c6f565b6040805185815282151560208201529192507f84cdfa87c52a6c23a244b289457de2d062d5da21bea2aeabf5227da0e186768891015b60405180910390a1505050565b60006001600160a01b03166001848154811061069b5761069b61218e565b600091825260209091206008600f9092020101546001600160a01b0316036107115760405162461bcd60e51b8152602060048201526024808201527f596f75206e65656420746f2061636365707420746865207265717565737420666044820152631a5c9cdd60e21b60648201526084016102eb565b60006001600160a01b03166001848154811061072f5761072f61218e565b60009182526020909120600a600f9092020101546001600160a01b0316146107b05760405162461bcd60e51b815260206004820152602e60248201527f546865726520697320616c72656164792061207375626d697373696f6e20666f60448201526d1c881d1a1a5cc81c995c5d595cdd60921b60648201526084016102eb565b336001600160a01b0316600184815481106107cd576107cd61218e565b600091825260209091206008600f9092020101546001600160a01b0316146108455760405162461bcd60e51b815260206004820152602560248201527f536f6d656f6e6520656c736520686173206163636570746564207468652052656044820152641c5d595cdd60da1b60648201526084016102eb565b60006040518060800160405280336001600160a01b0316815260200142815260200184848080601f0160208091040260200160405190810160405280939291908181526020018383808284376000920182905250938552505050602090910152600180549192508291869081106108be576108be61218e565b90600052602060002090600f0201600a0160008201518160000160006101000a8154816001600160a01b0302191690836001600160a01b0316021790555060208201518160010155604082015181600201908161091b9190612243565b50606091909101516003909101805460ff19169115159190911790556040517f7aae710ce9f6d670ecb8ad67272894bd8e8bd7878c1f1113c2646f4e465f390f9061096d908690869086903390612303565b60405180910390a150505050565b6001818154811061098e5761098e61218e565b60009182526020909120600e600f90920201015460ff16156109f25760405162461bcd60e51b815260206004820152601960248201527f5468652072657175657374207761732063616e63656c6c65640000000000000060448201526064016102eb565b60006001600160a01b031660018281548110610a1057610a1061218e565b600091825260209091206008600f9092020101546001600160a01b031614610a865760405162461bcd60e51b8152602060048201526024808201527f536f6d656f6e6520616c726561647920616363657074656420746865207265716044820152631d595cdd60e21b60648201526084016102eb565b60018181548110610a9957610a9961218e565b90600052602060002090600f0201600501543414610b085760405162461bcd60e51b815260206004820152602660248201527f496e636f727265637420616d6f756e74206f6620696e737572616e63652070726044820152651bdd9a59195960d21b60648201526084016102eb565b604080518082019091523381524260208201526001805482919084908110610b3257610b3261218e565b60009182526020918290208351600f92909202016008810180546001600160a01b0319166001600160a01b0390931692909217909155918101516009909201919091556040805184815233928101929092527f08f298fd72dbd217fb0a6d75ebb7814f41823b563772413db23636b1600a0aca910160405180910390a15050565b60006001600160a01b031660018281548110610bd157610bd161218e565b600091825260209091206008600f9092020101546001600160a01b031614610c465760405162461bcd60e51b815260206004820152602260248201527f596f752063616e74207075626c6963697a6520612074616b656e2072657175656044820152611cdd60f21b60648201526084016102eb565b7f8d65cadb1c3c8ae25c12c040286aee7825df75a851362b5d7e16ac82555d98368160018381548110610c7b57610c7b61218e565b90600052602060002090600f02016003015460018481548110610ca057610ca061218e565b90600052602060002090600f02016004015460018581548110610cc557610cc561218e565b90600052602060002090600f02016005015460018681548110610cea57610cea61218e565b60009182526020918290206006600f90920201015460408051968752918601949094528401919091526060830152608082015260a00160405180910390a150565b60006001600160a01b031660018281548110610d4957610d4961218e565b600091825260209091206008600f9092020101546001600160a01b031603610dd95760405162461bcd60e51b815260206004820152603a60248201527f5468657265206973206e6f20616363657074616e636520696e20706c6163652060448201527f666f72207468652070726f76696465642072657175657374494400000000000060648201526084016102eb565b60006001600160a01b031660018281548110610df757610df761218e565b60009182526020909120600a600f9092020101546001600160a01b031614610e6f5760405162461bcd60e51b815260206004820152602560248201527f54686973207265717565737420616c7265616479206861732061207375626d6960448201526439b9b4b7b760d91b60648201526084016102eb565b336001600160a01b031660018281548110610e8c57610e8c61218e565b600091825260209091206008600f9092020101546001600160a01b031614610f1c5760405162461bcd60e51b815260206004820152603960248201527f596f752063616e742063616e63656c20616e20616363657074616e636520746860448201527f617420646f6573206e6f742062656c6f6e6720746f20796f750000000000000060648201526084016102eb565b600060018281548110610f3157610f3161218e565b6000918252602082206008600f909202010154600180546001600160a01b0390921693509084908110610f6657610f6661218e565b90600052602060002090600f020160080160000160006101000a8154816001600160a01b0302191690836001600160a01b031602179055506000610fce60018481548110610fb657610fb661218e565b90600052602060002090600f02016005015483611c6f565b604080518581526001600160a01b0385166020820152821515918101919091529091507f233aebe1d7c90b97e1fe6ce1e226cca4feee120bc312447d954c577a9e2255e490606001610670565b6001818154811061102b57600080fd5b90600052602060002090600f0201600091509050806000015490806001016040518060400160405290816000820154815260200160018201805461106e906121ba565b80601f016020809104026020016040519081016040528092919081815260200182805461109a906121ba565b80156110e75780601f106110bc576101008083540402835291602001916110e7565b820191906000526020600020905b8154815290600101906020018083116110ca57829003601f168201915b505050919092525050506003820154600483015460058401546006850154600786015460408051808201825260088901546001600160a01b03908116825260098a01546020808401919091528351608081018552600a8c01805484168252600b8d015492820192909252600c8c0180549b9c9a9b999a98999798939096169693959294909391929084019161117b906121ba565b80601f01602080910402602001604051908101604052809291908181526020018280546111a7906121ba565b80156111f45780601f106111c9576101008083540402835291602001916111f4565b820191906000526020600020905b8154815290600101906020018083116111d757829003601f168201915b50505091835250506003919091015460ff9081161515602090920191909152600e909201549091168a565b6000600182815481106112345761123461218e565b60009182526020909120600e600f90920201015460ff161580156103a5575060006001600160a01b0316600183815481106112715761127161218e565b600091825260209091206008600f9092020101546001600160a01b03161492915050565b6000806001600160a01b0316600183815481106112b4576112b461218e565b60009182526020909120600a600f9092020101546001600160a01b03160361133a5760405162461bcd60e51b815260206004820152603360248201527f546865726520617265206e6f207375626d697373696f6e7320666f72207468656044820152720818da185b1b195b99d959081c995c5d595cdd606a1b60648201526084016102eb565b6001828154811061134d5761134d61218e565b60009182526020909120600d600f90920201015460ff16156113ca5760405162461bcd60e51b815260206004820152603060248201527f546865206368616c6c656e676564207375626d697373696f6e2068617320616c60448201526f1c9958591e481cdbdb1a591a599a595960821b60648201526084016102eb565b6000600183815481106113df576113df61218e565b90600052602060002090600f0201600a0160020180546113fe906121ba565b80601f016020809104026020016040519081016040528092919081815260200182805461142a906121ba565b80156114775780601f1061144c57610100808354040283529160200191611477565b820191906000526020600020905b81548152906001019060200180831161145a57829003601f168201915b505050505090506000600184815481106114935761149361218e565b90600052602060002090600f0201600101604051806040016040529081600082015481526020016001820180546114c9906121ba565b80601f01602080910402602001604051908101604052809291908181526020018280546114f5906121ba565b80156115425780601f1061151757610100808354040283529160200191611542565b820191906000526020600020905b81548152906001019060200180831161152557829003601f168201915b50505050508152505090506000600185815481106115625761156261218e565b600091825260209091206007600f90920201015460405163a9b1dac360e01b81526001600160a01b039091169063a9b1dac3906115a390859060040161234c565b600060405180830381865afa1580156115c0573d6000803e3d6000fd5b505050506040513d6000823e601f3d908101601f191682016040526115e891908101906123b8565b90507f0a3dfd2216a2448c62e6f94b05a7686722a4de162a822b40701563c5a19fe7ee858260405161161b929190612434565b60405180910390a1808051906020012083805190602001201461173d576040805160808101825233815242602082015290810182905260006060820152600180548291908890811061166f5761166f61218e565b90600052602060002090600f0201600a0160008201518160000160006101000a8154816001600160a01b0302191690836001600160a01b031602179055506020820151816001015560408201518160020190816116cc9190612243565b50606091909101516003909101805460ff191691151591909117905560006116f387611ca0565b6040805189815282151560208201529192507fd93e094fe9f982d893b2cf334b8efd17855720efbccc90b82b91a2529dbe4620910160405180910390a15060019695505050505050565b506000949350505050565b6000336001600160a01b0316600183815481106117675761176761218e565b60009182526020909120600a600f9092020101546001600160a01b0316146117dd5760405162461bcd60e51b815260206004820152602360248201527f54686973207061796d656e7420646f6573206e6f742062656c6f6e6720746f20604482015262796f7560e81b60648201526084016102eb565b600182815481106117f0576117f061218e565b60009182526020909120600d600f90920201015460ff16156118685760405162461bcd60e51b815260206004820152602b60248201527f5468652070726f766964656420726571756573742068617320616c726561647960448201526a081cdbdb1a591a599a595960aa1b60648201526084016102eb565b7fa938156d17c5ebf71798f3b4c04fd09e7407d75fda6e005e9852cc359b0036666001838154811061189c5761189c61218e565b90600052602060002090600f0201600a0160010154600184815481106118c4576118c461218e565b60009182526020918290206006600f9092020101546040805193845291830152429082015260600160405180910390a160006118ff83611ca0565b9392505050565b6000806119138534612168565b116119865760405162461bcd60e51b815260206004820152603f60248201527f54686520706f73742070726f63657373696e67206761732063616e6e6f74207460448201527f616b65757020616c6c206f662074686520737570706c6965642065746865720060648201526084016102eb565b604080518082018252600080825260208083018290528351608081018552828152808201839052845180830184905285518082038401815290860186528186015260608101839052845161014081019095526001548552339490929181016119ed8b61244d565b8152602001348152602001898152602001888152602001878152602001856001600160a01b031681526020018481526020018381526020016000151581525090507f8d65cadb1c3c8ae25c12c040286aee7825df75a851362b5d7e16ac82555d98368160000151348a8a8a604051611a87959493929190948552602085019390935260408401919091526060830152608082015260a00190565b60405180910390a16001805480820182556000919091528151600f9091027fb10e2d527612073b26eecdfd717e6a320cf44b4afac2b0732d9fcbe2b7fa0cf6810191825560208084015180517fb10e2d527612073b26eecdfd717e6a320cf44b4afac2b0732d9fcbe2b7fa0cf78401908155918101518594939192917fb10e2d527612073b26eecdfd717e6a320cf44b4afac2b0732d9fcbe2b7fa0cf80190611b309082612243565b5050506040828101516003830155606083015160048301556080830151600583015560a0830151600683015560c08301516007830180546001600160a01b039283166001600160a01b03199182161790915560e0850151805160088601805491851691841691909117905560209081015160098601556101008601518051600a87018054919095169316929092178355810151600b85015591820151600c840190611bdb9082612243565b50606091820151600391909101805491151560ff199283161790556101209390930151600e929092018054921515929093169190911790915581516040805191825234602083015281018a9052908101889052608081018790527f8d65cadb1c3c8ae25c12c040286aee7825df75a851362b5d7e16ac82555d98369060a00160405180910390a15198975050505050505050565b33600090815260208190526040812080548491908390611c9090849061217b565b909155506118ff90508383610286565b60006001808381548110611cb657611cb661218e565b6000918252602091829020600f90910201600d01805460ff1916921515929092179091556040518381527f5a80336cedd647533d99fefc5a4618f060834efa1a3e774e2728c9874a491d38910160405180910390a16000479050600060018481548110611d2557611d2561218e565b600091825260208220600a600f909202010154600180546001600160a01b0390921693509086908110611d5a57611d5a61218e565b90600052602060002090600f02016005015460018681548110611d7f57611d7f61218e565b90600052602060002090600f020160030154611d9b919061217b565b90506000611da98284611c6f565b90507fa85cfc7d37681fa36329fc9870bf196138a4cb05e062e4748bf3b13ec6c9c650868460018981548110611de157611de161218e565b90600052602060002090600f02016003015460018a81548110611e0657611e0661218e565b60009182526020918290206005600f909202010154604080519586526001600160a01b03909416918501919091529183015260608201526080810184905260a081018690524760c082015260e00160405180910390a1600063cb39274760e01b60018881548110611e7957611e7961218e565b90600052602060002090600f0201600a01600201604051602401611e9d91906124f6565b60408051601f1981840301815291905260200180516001600160e01b03166001600160e01b03199092169190911790525095945050505050565b80356001600160a01b0381168114611eee57600080fd5b919050565b60008060408385031215611f0657600080fd5b82359150611f1660208401611ed7565b90509250929050565b600060208284031215611f3157600080fd5b5035919050565b600080600060408486031215611f4d57600080fd5b83359250602084013567ffffffffffffffff80821115611f6c57600080fd5b818601915086601f830112611f8057600080fd5b813581811115611f8f57600080fd5b876020828501011115611fa157600080fd5b6020830194508093505050509250925092565b600060208284031215611fc657600080fd5b6118ff82611ed7565b60005b83811015611fea578181015183820152602001611fd2565b50506000910152565b6000815180845261200b816020860160208601611fcf565b601f01601f19169290920160200192915050565b80518252600060208201516040602085015261203e6040850182611ff3565b949350505050565b60006101608c83528060208401526120608184018d61201f565b90508a60408401528960608401528860808401528760a084015260018060a01b0380881660c08501528087511660e0850152602087015161010085015283820361012085015280865116825250602085015160208201526040850151608060408301526120d06080830182611ff3565b60608781015115159301929092525083151561014084015290509b9a5050505050505050505050565b6000806000806080858703121561210f57600080fd5b843567ffffffffffffffff81111561212657600080fd5b85016040818803121561213857600080fd5b966020860135965060408601359560600135945092505050565b634e487b7160e01b600052601160045260246000fd5b818103818111156103a5576103a5612152565b808201808211156103a5576103a5612152565b634e487b7160e01b600052603260045260246000fd5b634e487b7160e01b600052604160045260246000fd5b600181811c908216806121ce57607f821691505b6020821081036121ee57634e487b7160e01b600052602260045260246000fd5b50919050565b601f82111561223e57600081815260208120601f850160051c8101602086101561221b5750805b601f850160051c820191505b8181101561223a57828155600101612227565b5050505b505050565b815167ffffffffffffffff81111561225d5761225d6121a4565b6122718161226b84546121ba565b846121f4565b602080601f8311600181146122a6576000841561228e5750858301515b600019600386901b1c1916600185901b17855561223a565b600085815260208120601f198616915b828110156122d5578886015182559484019460019091019084016122b6565b50858210156122f35787850151600019600388901b60f8161c191681555b5050505050600190811b01905550565b848152606060208201528260608201528284608083013760008184016080908101919091526001600160a01b03929092166040820152601f909201601f19169091010192915050565b6020815260006118ff602083018461201f565b604051601f8201601f1916810167ffffffffffffffff81118282101715612388576123886121a4565b604052919050565b600067ffffffffffffffff8211156123aa576123aa6121a4565b50601f01601f191660200190565b6000602082840312156123ca57600080fd5b815167ffffffffffffffff8111156123e157600080fd5b8201601f810184136123f257600080fd5b805161240561240082612390565b61235f565b81815285602083850101111561241a57600080fd5b61242b826020830160208601611fcf565b95945050505050565b82815260406020820152600061203e6040830184611ff3565b60006040823603121561245f57600080fd5b6040516040810167ffffffffffffffff8282108183111715612483576124836121a4565b81604052843583526020915081850135818111156124a057600080fd5b8501905036601f8201126124b357600080fd5b80356124c161240082612390565b81815236848385010111156124d557600080fd5b81848401858301376000918101840191909152918301919091525092915050565b600060208083526000845461250a816121ba565b8084870152604060018084166000811461252b576001811461254557612573565b60ff1985168984015283151560051b890183019550612573565b896000528660002060005b8581101561256b5781548b8201860152908301908801612550565b8a0184019650505b50939897505050505050505056fea264697066735822122001d8d63df9082d5acb07f358a12dac9f41540874564a7298de779331b1eb762964736f6c63430008110033",
  "bytecodeSha1": "acb7643dba1f4d0bc7dbe5b602bfdd81fd3efa0b",
  "compiler": {
    "evm_version": "istanbul",
    "optimizer": {
      "enabled": true,
      "runs": 200
    },
    "version": "0.8.17+commit.8df45f5f"
  },
  "contractName": "ExecutionBroker",
  "language": "Solidity",
  "natspec": {
    "kind": "dev",
    "methods": {},
    "version": 1
  },
  "opcodes": "PUSH1 0x80 PUSH1 0x40 MSTORE PUSH1 0x4 CALLDATASIZE LT PUSH2 0xC2 JUMPI PUSH1 0x0 CALLDATALOAD PUSH1 0xE0 SHR DUP1 PUSH4 0x5BADBE4C GT PUSH2 0x7F JUMPI DUP1 PUSH4 0x8274FBF5 GT PUSH2 0x59 JUMPI DUP1 PUSH4 0x8274FBF5 EQ PUSH2 0x213 JUMPI DUP1 PUSH4 0xB2C221F2 EQ PUSH2 0x233 JUMPI DUP1 PUSH4 0xC63FDCC7 EQ PUSH2 0x253 JUMPI DUP1 PUSH4 0xD900F934 EQ PUSH2 0x273 JUMPI PUSH1 0x0 DUP1 REVERT JUMPDEST DUP1 PUSH4 0x5BADBE4C EQ PUSH2 0x191 JUMPI DUP1 PUSH4 0x6EF9E145 EQ PUSH2 0x1B0 JUMPI DUP1 PUSH4 0x81D12C58 EQ PUSH2 0x1DD JUMPI PUSH1 0x0 DUP1 REVERT JUMPDEST DUP1 PUSH4 0xD45C199 EQ PUSH2 0xC7 JUMPI DUP1 PUSH4 0x3015394C EQ PUSH2 0xFC JUMPI DUP1 PUSH4 0x49875DB2 EQ PUSH2 0x11E JUMPI DUP1 PUSH4 0x4BA1F098 EQ PUSH2 0x13E JUMPI DUP1 PUSH4 0x540A6178 EQ PUSH2 0x151 JUMPI DUP1 PUSH4 0x54C7D906 EQ PUSH2 0x171 JUMPI JUMPDEST PUSH1 0x0 DUP1 REVERT JUMPDEST CALLVALUE DUP1 ISZERO PUSH2 0xD3 JUMPI PUSH1 0x0 DUP1 REVERT JUMPDEST POP PUSH2 0xE7 PUSH2 0xE2 CALLDATASIZE PUSH1 0x4 PUSH2 0x1EF3 JUMP JUMPDEST PUSH2 0x286 JUMP JUMPDEST PUSH1 0x40 MLOAD SWAP1 ISZERO ISZERO DUP2 MSTORE PUSH1 0x20 ADD JUMPDEST PUSH1 0x40 MLOAD DUP1 SWAP2 SUB SWAP1 RETURN JUMPDEST CALLVALUE DUP1 ISZERO PUSH2 0x108 JUMPI PUSH1 0x0 DUP1 REVERT JUMPDEST POP PUSH2 0x11C PUSH2 0x117 CALLDATASIZE PUSH1 0x4 PUSH2 0x1F1F JUMP JUMPDEST PUSH2 0x3AB JUMP JUMPDEST STOP JUMPDEST CALLVALUE DUP1 ISZERO PUSH2 0x12A JUMPI PUSH1 0x0 DUP1 REVERT JUMPDEST POP PUSH2 0x11C PUSH2 0x139 CALLDATASIZE PUSH1 0x4 PUSH2 0x1F38 JUMP JUMPDEST PUSH2 0x67D JUMP JUMPDEST PUSH2 0x11C PUSH2 0x14C CALLDATASIZE PUSH1 0x4 PUSH2 0x1F1F JUMP JUMPDEST PUSH2 0x97B JUMP JUMPDEST CALLVALUE DUP1 ISZERO PUSH2 0x15D JUMPI PUSH1 0x0 DUP1 REVERT JUMPDEST POP PUSH2 0x11C PUSH2 0x16C CALLDATASIZE PUSH1 0x4 PUSH2 0x1F1F JUMP JUMPDEST PUSH2 0xBB3 JUMP JUMPDEST CALLVALUE DUP1 ISZERO PUSH2 0x17D JUMPI PUSH1 0x0 DUP1 REVERT JUMPDEST POP PUSH2 0x11C PUSH2 0x18C CALLDATASIZE PUSH1 0x4 PUSH2 0x1F1F JUMP JUMPDEST PUSH2 0xD2B JUMP JUMPDEST CALLVALUE DUP1 ISZERO PUSH2 0x19D JUMPI PUSH1 0x0 DUP1 REVERT JUMPDEST POP PUSH1 0x1 SLOAD JUMPDEST PUSH1 0x40 MLOAD SWAP1 DUP2 MSTORE PUSH1 0x20 ADD PUSH2 0xF3 JUMP JUMPDEST CALLVALUE DUP1 ISZERO PUSH2 0x1BC JUMPI PUSH1 0x0 DUP1 REVERT JUMPDEST POP PUSH2 0x1A2 PUSH2 0x1CB CALLDATASIZE PUSH1 0x4 PUSH2 0x1FB4 JUMP JUMPDEST PUSH1 0x0 PUSH1 0x20 DUP2 SWAP1 MSTORE SWAP1 DUP2 MSTORE PUSH1 0x40 SWAP1 KECCAK256 SLOAD DUP2 JUMP JUMPDEST CALLVALUE DUP1 ISZERO PUSH2 0x1E9 JUMPI PUSH1 0x0 DUP1 REVERT JUMPDEST POP PUSH2 0x1FD PUSH2 0x1F8 CALLDATASIZE PUSH1 0x4 PUSH2 0x1F1F JUMP JUMPDEST PUSH2 0x101B JUMP JUMPDEST PUSH1 0x40 MLOAD PUSH2 0xF3 SWAP11 SWAP10 SWAP9 SWAP8 SWAP7 SWAP6 SWAP5 SWAP4 SWAP3 SWAP2 SWAP1 PUSH2 0x2046 JUMP JUMPDEST CALLVALUE DUP1 ISZERO PUSH2 0x21F JUMPI PUSH1 0x0 DUP1 REVERT JUMPDEST POP PUSH2 0xE7 PUSH2 0x22E CALLDATASIZE PUSH1 0x4 PUSH2 0x1F1F JUMP JUMPDEST PUSH2 0x121F JUMP JUMPDEST CALLVALUE DUP1 ISZERO PUSH2 0x23F JUMPI PUSH1 0x0 DUP1 REVERT JUMPDEST POP PUSH2 0xE7 PUSH2 0x24E CALLDATASIZE PUSH1 0x4 PUSH2 0x1F1F JUMP JUMPDEST PUSH2 0x1295 JUMP JUMPDEST CALLVALUE DUP1 ISZERO PUSH2 0x25F JUMPI PUSH1 0x0 DUP1 REVERT JUMPDEST POP PUSH2 0xE7 PUSH2 0x26E CALLDATASIZE PUSH1 0x4 PUSH2 0x1F1F JUMP JUMPDEST PUSH2 0x1748 JUMP JUMPDEST PUSH2 0x1A2 PUSH2 0x281 CALLDATASIZE PUSH1 0x4 PUSH2 0x20F9 JUMP JUMPDEST PUSH2 0x1906 JUMP JUMPDEST CALLER PUSH1 0x0 SWAP1 DUP2 MSTORE PUSH1 0x20 DUP2 SWAP1 MSTORE PUSH1 0x40 DUP2 KECCAK256 SLOAD DUP4 GT ISZERO PUSH2 0x2F4 JUMPI PUSH1 0x40 MLOAD PUSH3 0x461BCD PUSH1 0xE5 SHL DUP2 MSTORE PUSH1 0x20 PUSH1 0x4 DUP3 ADD MSTORE PUSH1 0x21 PUSH1 0x24 DUP3 ADD MSTORE PUSH32 0x53656E64657220646F6573206E6F74206861766520656E6F7567682066756E64 PUSH1 0x44 DUP3 ADD MSTORE PUSH1 0x73 PUSH1 0xF8 SHL PUSH1 0x64 DUP3 ADD MSTORE PUSH1 0x84 ADD JUMPDEST PUSH1 0x40 MLOAD DUP1 SWAP2 SUB SWAP1 REVERT JUMPDEST CALLER PUSH1 0x0 SWAP1 DUP2 MSTORE PUSH1 0x20 DUP2 SWAP1 MSTORE PUSH1 0x40 DUP2 KECCAK256 DUP1 SLOAD DUP6 SWAP3 SWAP1 PUSH2 0x313 SWAP1 DUP5 SWAP1 PUSH2 0x2168 JUMP JUMPDEST SWAP1 SWAP2 SSTORE POP POP PUSH1 0x40 MLOAD DUP3 SWAP1 PUSH1 0x0 SWAP1 PUSH1 0x1 PUSH1 0x1 PUSH1 0xA0 SHL SUB DUP4 AND SWAP1 DUP7 SWAP1 DUP4 DUP2 DUP2 DUP2 DUP6 DUP8 GAS CALL SWAP3 POP POP POP RETURNDATASIZE DUP1 PUSH1 0x0 DUP2 EQ PUSH2 0x365 JUMPI PUSH1 0x40 MLOAD SWAP2 POP PUSH1 0x1F NOT PUSH1 0x3F RETURNDATASIZE ADD AND DUP3 ADD PUSH1 0x40 MSTORE RETURNDATASIZE DUP3 MSTORE RETURNDATASIZE PUSH1 0x0 PUSH1 0x20 DUP5 ADD RETURNDATACOPY PUSH2 0x36A JUMP JUMPDEST PUSH1 0x60 SWAP2 POP JUMPDEST POP POP SWAP1 POP DUP1 PUSH2 0x3A1 JUMPI PUSH1 0x1 PUSH1 0x1 PUSH1 0xA0 SHL SUB DUP5 AND PUSH1 0x0 SWAP1 DUP2 MSTORE PUSH1 0x20 DUP2 SWAP1 MSTORE PUSH1 0x40 DUP2 KECCAK256 DUP1 SLOAD DUP8 SWAP3 SWAP1 PUSH2 0x39B SWAP1 DUP5 SWAP1 PUSH2 0x217B JUMP JUMPDEST SWAP1 SWAP2 SSTORE POP POP JUMPDEST SWAP2 POP POP JUMPDEST SWAP3 SWAP2 POP POP JUMP JUMPDEST PUSH1 0x1 SLOAD DUP2 LT PUSH2 0x3F1 JUMPI PUSH1 0x40 MLOAD PUSH3 0x461BCD PUSH1 0xE5 SHL DUP2 MSTORE PUSH1 0x20 PUSH1 0x4 DUP3 ADD MSTORE PUSH1 0x12 PUSH1 0x24 DUP3 ADD MSTORE PUSH18 0x496E646578206F7574206F662072616E6765 PUSH1 0x70 SHL PUSH1 0x44 DUP3 ADD MSTORE PUSH1 0x64 ADD PUSH2 0x2EB JUMP JUMPDEST PUSH1 0x1 DUP2 DUP2 SLOAD DUP2 LT PUSH2 0x404 JUMPI PUSH2 0x404 PUSH2 0x218E JUMP JUMPDEST PUSH1 0x0 SWAP2 DUP3 MSTORE PUSH1 0x20 SWAP1 SWAP2 KECCAK256 PUSH1 0xE PUSH1 0xF SWAP1 SWAP3 MUL ADD ADD SLOAD PUSH1 0xFF AND ISZERO PUSH2 0x472 JUMPI PUSH1 0x40 MLOAD PUSH3 0x461BCD PUSH1 0xE5 SHL DUP2 MSTORE PUSH1 0x20 PUSH1 0x4 DUP3 ADD MSTORE PUSH1 0x21 PUSH1 0x24 DUP3 ADD MSTORE PUSH32 0x54686520726571756573742077617320616C72656164792063616E63656C6C65 PUSH1 0x44 DUP3 ADD MSTORE PUSH1 0x19 PUSH1 0xFA SHL PUSH1 0x64 DUP3 ADD MSTORE PUSH1 0x84 ADD PUSH2 0x2EB JUMP JUMPDEST PUSH1 0x1 DUP2 DUP2 SLOAD DUP2 LT PUSH2 0x485 JUMPI PUSH2 0x485 PUSH2 0x218E JUMP JUMPDEST PUSH1 0x0 SWAP2 DUP3 MSTORE PUSH1 0x20 SWAP1 SWAP2 KECCAK256 PUSH1 0xF SWAP1 SWAP2 MUL ADD PUSH1 0x7 ADD SLOAD PUSH1 0x1 PUSH1 0x1 PUSH1 0xA0 SHL SUB AND CALLER EQ PUSH2 0x50B JUMPI PUSH1 0x40 MLOAD PUSH3 0x461BCD PUSH1 0xE5 SHL DUP2 MSTORE PUSH1 0x20 PUSH1 0x4 DUP3 ADD MSTORE PUSH1 0x32 PUSH1 0x24 DUP3 ADD MSTORE PUSH32 0x596F752063616E742063616E63656C2061207265717565737420746861742077 PUSH1 0x44 DUP3 ADD MSTORE PUSH18 0x6173206E6F74206D61646520627920796F75 PUSH1 0x70 SHL PUSH1 0x64 DUP3 ADD MSTORE PUSH1 0x84 ADD PUSH2 0x2EB JUMP JUMPDEST PUSH1 0x0 PUSH1 0x1 PUSH1 0x1 PUSH1 0xA0 SHL SUB AND PUSH1 0x1 DUP3 DUP2 SLOAD DUP2 LT PUSH2 0x529 JUMPI PUSH2 0x529 PUSH2 0x218E JUMP JUMPDEST PUSH1 0x0 SWAP2 DUP3 MSTORE PUSH1 0x20 SWAP1 SWAP2 KECCAK256 PUSH1 0x8 PUSH1 0xF SWAP1 SWAP3 MUL ADD ADD SLOAD PUSH1 0x1 PUSH1 0x1 PUSH1 0xA0 SHL SUB AND EQ PUSH2 0x59F JUMPI PUSH1 0x40 MLOAD PUSH3 0x461BCD PUSH1 0xE5 SHL DUP2 MSTORE PUSH1 0x20 PUSH1 0x4 DUP3 ADD MSTORE PUSH1 0x23 PUSH1 0x24 DUP3 ADD MSTORE PUSH32 0x596F752063616E742063616E63656C20616E2061636365707465642072657175 PUSH1 0x44 DUP3 ADD MSTORE PUSH3 0x195CDD PUSH1 0xEA SHL PUSH1 0x64 DUP3 ADD MSTORE PUSH1 0x84 ADD PUSH2 0x2EB JUMP JUMPDEST PUSH1 0x1 DUP1 DUP3 DUP2 SLOAD DUP2 LT PUSH2 0x5B3 JUMPI PUSH2 0x5B3 PUSH2 0x218E JUMP JUMPDEST PUSH1 0x0 SWAP2 DUP3 MSTORE PUSH1 0x20 DUP3 KECCAK256 PUSH1 0xF SWAP2 SWAP1 SWAP2 MUL ADD PUSH1 0xE ADD DUP1 SLOAD PUSH1 0xFF NOT AND SWAP3 ISZERO ISZERO SWAP3 SWAP1 SWAP3 OR SWAP1 SWAP2 SSTORE PUSH1 0x1 DUP1 SLOAD DUP4 SWAP1 DUP2 LT PUSH2 0x5EA JUMPI PUSH2 0x5EA PUSH2 0x218E JUMP JUMPDEST PUSH1 0x0 SWAP2 DUP3 MSTORE PUSH1 0x20 DUP3 KECCAK256 PUSH1 0x7 PUSH1 0xF SWAP1 SWAP3 MUL ADD ADD SLOAD PUSH1 0x1 DUP1 SLOAD PUSH1 0x1 PUSH1 0x1 PUSH1 0xA0 SHL SUB SWAP1 SWAP3 AND SWAP4 POP PUSH2 0x63A SWAP2 DUP6 SWAP1 DUP2 LT PUSH2 0x622 JUMPI PUSH2 0x622 PUSH2 0x218E JUMP JUMPDEST SWAP1 PUSH1 0x0 MSTORE PUSH1 0x20 PUSH1 0x0 KECCAK256 SWAP1 PUSH1 0xF MUL ADD PUSH1 0x3 ADD SLOAD DUP4 PUSH2 0x1C6F JUMP JUMPDEST PUSH1 0x40 DUP1 MLOAD DUP6 DUP2 MSTORE DUP3 ISZERO ISZERO PUSH1 0x20 DUP3 ADD MSTORE SWAP2 SWAP3 POP PUSH32 0x84CDFA87C52A6C23A244B289457DE2D062D5DA21BEA2AEABF5227DA0E1867688 SWAP2 ADD JUMPDEST PUSH1 0x40 MLOAD DUP1 SWAP2 SUB SWAP1 LOG1 POP POP POP JUMP JUMPDEST PUSH1 0x0 PUSH1 0x1 PUSH1 0x1 PUSH1 0xA0 SHL SUB AND PUSH1 0x1 DUP5 DUP2 SLOAD DUP2 LT PUSH2 0x69B JUMPI PUSH2 0x69B PUSH2 0x218E JUMP JUMPDEST PUSH1 0x0 SWAP2 DUP3 MSTORE PUSH1 0x20 SWAP1 SWAP2 KECCAK256 PUSH1 0x8 PUSH1 0xF SWAP1 SWAP3 MUL ADD ADD SLOAD PUSH1 0x1 PUSH1 0x1 PUSH1 0xA0 SHL SUB AND SUB PUSH2 0x711 JUMPI PUSH1 0x40 MLOAD PUSH3 0x461BCD PUSH1 0xE5 SHL DUP2 MSTORE PUSH1 0x20 PUSH1 0x4 DUP3 ADD MSTORE PUSH1 0x24 DUP1 DUP3 ADD MSTORE PUSH32 0x596F75206E65656420746F206163636570742074686520726571756573742066 PUSH1 0x44 DUP3 ADD MSTORE PUSH4 0x1A5C9CDD PUSH1 0xE2 SHL PUSH1 0x64 DUP3 ADD MSTORE PUSH1 0x84 ADD PUSH2 0x2EB JUMP JUMPDEST PUSH1 0x0 PUSH1 0x1 PUSH1 0x1 PUSH1 0xA0 SHL SUB AND PUSH1 0x1 DUP5 DUP2 SLOAD DUP2 LT PUSH2 0x72F JUMPI PUSH2 0x72F PUSH2 0x218E JUMP JUMPDEST PUSH1 0x0 SWAP2 DUP3 MSTORE PUSH1 0x20 SWAP1 SWAP2 KECCAK256 PUSH1 0xA PUSH1 0xF SWAP1 SWAP3 MUL ADD ADD SLOAD PUSH1 0x1 PUSH1 0x1 PUSH1 0xA0 SHL SUB AND EQ PUSH2 0x7B0 JUMPI PUSH1 0x40 MLOAD PUSH3 0x461BCD PUSH1 0xE5 SHL DUP2 MSTORE PUSH1 0x20 PUSH1 0x4 DUP3 ADD MSTORE PUSH1 0x2E PUSH1 0x24 DUP3 ADD MSTORE PUSH32 0x546865726520697320616C72656164792061207375626D697373696F6E20666F PUSH1 0x44 DUP3 ADD MSTORE PUSH14 0x1C881D1A1A5CC81C995C5D595CDD PUSH1 0x92 SHL PUSH1 0x64 DUP3 ADD MSTORE PUSH1 0x84 ADD PUSH2 0x2EB JUMP JUMPDEST CALLER PUSH1 0x1 PUSH1 0x1 PUSH1 0xA0 SHL SUB AND PUSH1 0x1 DUP5 DUP2 SLOAD DUP2 LT PUSH2 0x7CD JUMPI PUSH2 0x7CD PUSH2 0x218E JUMP JUMPDEST PUSH1 0x0 SWAP2 DUP3 MSTORE PUSH1 0x20 SWAP1 SWAP2 KECCAK256 PUSH1 0x8 PUSH1 0xF SWAP1 SWAP3 MUL ADD ADD SLOAD PUSH1 0x1 PUSH1 0x1 PUSH1 0xA0 SHL SUB AND EQ PUSH2 0x845 JUMPI PUSH1 0x40 MLOAD PUSH3 0x461BCD PUSH1 0xE5 SHL DUP2 MSTORE PUSH1 0x20 PUSH1 0x4 DUP3 ADD MSTORE PUSH1 0x25 PUSH1 0x24 DUP3 ADD MSTORE PUSH32 0x536F6D656F6E6520656C73652068617320616363657074656420746865205265 PUSH1 0x44 DUP3 ADD MSTORE PUSH5 0x1C5D595CDD PUSH1 0xDA SHL PUSH1 0x64 DUP3 ADD MSTORE PUSH1 0x84 ADD PUSH2 0x2EB JUMP JUMPDEST PUSH1 0x0 PUSH1 0x40 MLOAD DUP1 PUSH1 0x80 ADD PUSH1 0x40 MSTORE DUP1 CALLER PUSH1 0x1 PUSH1 0x1 PUSH1 0xA0 SHL SUB AND DUP2 MSTORE PUSH1 0x20 ADD TIMESTAMP DUP2 MSTORE PUSH1 0x20 ADD DUP5 DUP5 DUP1 DUP1 PUSH1 0x1F ADD PUSH1 0x20 DUP1 SWAP2 DIV MUL PUSH1 0x20 ADD PUSH1 0x40 MLOAD SWAP1 DUP2 ADD PUSH1 0x40 MSTORE DUP1 SWAP4 SWAP3 SWAP2 SWAP1 DUP2 DUP2 MSTORE PUSH1 0x20 ADD DUP4 DUP4 DUP1 DUP3 DUP5 CALLDATACOPY PUSH1 0x0 SWAP3 ADD DUP3 SWAP1 MSTORE POP SWAP4 DUP6 MSTORE POP POP POP PUSH1 0x20 SWAP1 SWAP2 ADD MSTORE PUSH1 0x1 DUP1 SLOAD SWAP2 SWAP3 POP DUP3 SWAP2 DUP7 SWAP1 DUP2 LT PUSH2 0x8BE JUMPI PUSH2 0x8BE PUSH2 0x218E JUMP JUMPDEST SWAP1 PUSH1 0x0 MSTORE PUSH1 0x20 PUSH1 0x0 KECCAK256 SWAP1 PUSH1 0xF MUL ADD PUSH1 0xA ADD PUSH1 0x0 DUP3 ADD MLOAD DUP2 PUSH1 0x0 ADD PUSH1 0x0 PUSH2 0x100 EXP DUP2 SLOAD DUP2 PUSH1 0x1 PUSH1 0x1 PUSH1 0xA0 SHL SUB MUL NOT AND SWAP1 DUP4 PUSH1 0x1 PUSH1 0x1 PUSH1 0xA0 SHL SUB AND MUL OR SWAP1 SSTORE POP PUSH1 0x20 DUP3 ADD MLOAD DUP2 PUSH1 0x1 ADD SSTORE PUSH1 0x40 DUP3 ADD MLOAD DUP2 PUSH1 0x2 ADD SWAP1 DUP2 PUSH2 0x91B SWAP2 SWAP1 PUSH2 0x2243 JUMP JUMPDEST POP PUSH1 0x60 SWAP2 SWAP1 SWAP2 ADD MLOAD PUSH1 0x3 SWAP1 SWAP2 ADD DUP1 SLOAD PUSH1 0xFF NOT AND SWAP2 ISZERO ISZERO SWAP2 SWAP1 SWAP2 OR SWAP1 SSTORE PUSH1 0x40 MLOAD PUSH32 0x7AAE710CE9F6D670ECB8AD67272894BD8E8BD7878C1F1113C2646F4E465F390F SWAP1 PUSH2 0x96D SWAP1 DUP7 SWAP1 DUP7 SWAP1 DUP7 SWAP1 CALLER SWAP1 PUSH2 0x2303 JUMP JUMPDEST PUSH1 0x40 MLOAD DUP1 SWAP2 SUB SWAP1 LOG1 POP POP POP POP JUMP JUMPDEST PUSH1 0x1 DUP2 DUP2 SLOAD DUP2 LT PUSH2 0x98E JUMPI PUSH2 0x98E PUSH2 0x218E JUMP JUMPDEST PUSH1 0x0 SWAP2 DUP3 MSTORE PUSH1 0x20 SWAP1 SWAP2 KECCAK256 PUSH1 0xE PUSH1 0xF SWAP1 SWAP3 MUL ADD ADD SLOAD PUSH1 0xFF AND ISZERO PUSH2 0x9F2 JUMPI PUSH1 0x40 MLOAD PUSH3 0x461BCD PUSH1 0xE5 SHL DUP2 MSTORE PUSH1 0x20 PUSH1 0x4 DUP3 ADD MSTORE PUSH1 0x19 PUSH1 0x24 DUP3 ADD MSTORE PUSH32 0x5468652072657175657374207761732063616E63656C6C656400000000000000 PUSH1 0x44 DUP3 ADD MSTORE PUSH1 0x64 ADD PUSH2 0x2EB JUMP JUMPDEST PUSH1 0x0 PUSH1 0x1 PUSH1 0x1 PUSH1 0xA0 SHL SUB AND PUSH1 0x1 DUP3 DUP2 SLOAD DUP2 LT PUSH2 0xA10 JUMPI PUSH2 0xA10 PUSH2 0x218E JUMP JUMPDEST PUSH1 0x0 SWAP2 DUP3 MSTORE PUSH1 0x20 SWAP1 SWAP2 KECCAK256 PUSH1 0x8 PUSH1 0xF SWAP1 SWAP3 MUL ADD ADD SLOAD PUSH1 0x1 PUSH1 0x1 PUSH1 0xA0 SHL SUB AND EQ PUSH2 0xA86 JUMPI PUSH1 0x40 MLOAD PUSH3 0x461BCD PUSH1 0xE5 SHL DUP2 MSTORE PUSH1 0x20 PUSH1 0x4 DUP3 ADD MSTORE PUSH1 0x24 DUP1 DUP3 ADD MSTORE PUSH32 0x536F6D656F6E6520616C72656164792061636365707465642074686520726571 PUSH1 0x44 DUP3 ADD MSTORE PUSH4 0x1D595CDD PUSH1 0xE2 SHL PUSH1 0x64 DUP3 ADD MSTORE PUSH1 0x84 ADD PUSH2 0x2EB JUMP JUMPDEST PUSH1 0x1 DUP2 DUP2 SLOAD DUP2 LT PUSH2 0xA99 JUMPI PUSH2 0xA99 PUSH2 0x218E JUMP JUMPDEST SWAP1 PUSH1 0x0 MSTORE PUSH1 0x20 PUSH1 0x0 KECCAK256 SWAP1 PUSH1 0xF MUL ADD PUSH1 0x5 ADD SLOAD CALLVALUE EQ PUSH2 0xB08 JUMPI PUSH1 0x40 MLOAD PUSH3 0x461BCD PUSH1 0xE5 SHL DUP2 MSTORE PUSH1 0x20 PUSH1 0x4 DUP3 ADD MSTORE PUSH1 0x26 PUSH1 0x24 DUP3 ADD MSTORE PUSH32 0x496E636F727265637420616D6F756E74206F6620696E737572616E6365207072 PUSH1 0x44 DUP3 ADD MSTORE PUSH6 0x1BDD9A591959 PUSH1 0xD2 SHL PUSH1 0x64 DUP3 ADD MSTORE PUSH1 0x84 ADD PUSH2 0x2EB JUMP JUMPDEST PUSH1 0x40 DUP1 MLOAD DUP1 DUP3 ADD SWAP1 SWAP2 MSTORE CALLER DUP2 MSTORE TIMESTAMP PUSH1 0x20 DUP3 ADD MSTORE PUSH1 0x1 DUP1 SLOAD DUP3 SWAP2 SWAP1 DUP5 SWAP1 DUP2 LT PUSH2 0xB32 JUMPI PUSH2 0xB32 PUSH2 0x218E JUMP JUMPDEST PUSH1 0x0 SWAP2 DUP3 MSTORE PUSH1 0x20 SWAP2 DUP3 SWAP1 KECCAK256 DUP4 MLOAD PUSH1 0xF SWAP3 SWAP1 SWAP3 MUL ADD PUSH1 0x8 DUP2 ADD DUP1 SLOAD PUSH1 0x1 PUSH1 0x1 PUSH1 0xA0 SHL SUB NOT AND PUSH1 0x1 PUSH1 0x1 PUSH1 0xA0 SHL SUB SWAP1 SWAP4 AND SWAP3 SWAP1 SWAP3 OR SWAP1 SWAP2 SSTORE SWAP2 DUP2 ADD MLOAD PUSH1 0x9 SWAP1 SWAP3 ADD SWAP2 SWAP1 SWAP2 SSTORE PUSH1 0x40 DUP1 MLOAD DUP5 DUP2 MSTORE CALLER SWAP3 DUP2 ADD SWAP3 SWAP1 SWAP3 MSTORE PUSH32 0x8F298FD72DBD217FB0A6D75EBB7814F41823B563772413DB23636B1600A0ACA SWAP2 ADD PUSH1 0x40 MLOAD DUP1 SWAP2 SUB SWAP1 LOG1 POP POP JUMP JUMPDEST PUSH1 0x0 PUSH1 0x1 PUSH1 0x1 PUSH1 0xA0 SHL SUB AND PUSH1 0x1 DUP3 DUP2 SLOAD DUP2 LT PUSH2 0xBD1 JUMPI PUSH2 0xBD1 PUSH2 0x218E JUMP JUMPDEST PUSH1 0x0 SWAP2 DUP3 MSTORE PUSH1 0x20 SWAP1 SWAP2 KECCAK256 PUSH1 0x8 PUSH1 0xF SWAP1 SWAP3 MUL ADD ADD SLOAD PUSH1 0x1 PUSH1 0x1 PUSH1 0xA0 SHL SUB AND EQ PUSH2 0xC46 JUMPI PUSH1 0x40 MLOAD PUSH3 0x461BCD PUSH1 0xE5 SHL DUP2 MSTORE PUSH1 0x20 PUSH1 0x4 DUP3 ADD MSTORE PUSH1 0x22 PUSH1 0x24 DUP3 ADD MSTORE PUSH32 0x596F752063616E74207075626C6963697A6520612074616B656E207265717565 PUSH1 0x44 DUP3 ADD MSTORE PUSH2 0x1CDD PUSH1 0xF2 SHL PUSH1 0x64 DUP3 ADD MSTORE PUSH1 0x84 ADD PUSH2 0x2EB JUMP JUMPDEST PUSH32 0x8D65CADB1C3C8AE25C12C040286AEE7825DF75A851362B5D7E16AC82555D9836 DUP2 PUSH1 0x1 DUP4 DUP2 SLOAD DUP2 LT PUSH2 0xC7B JUMPI PUSH2 0xC7B PUSH2 0x218E JUMP JUMPDEST SWAP1 PUSH1 0x0 MSTORE PUSH1 0x20 PUSH1 0x0 KECCAK256 SWAP1 PUSH1 0xF MUL ADD PUSH1 0x3 ADD SLOAD PUSH1 0x1 DUP5 DUP2 SLOAD DUP2 LT PUSH2 0xCA0 JUMPI PUSH2 0xCA0 PUSH2 0x218E JUMP JUMPDEST SWAP1 PUSH1 0x0 MSTORE PUSH1 0x20 PUSH1 0x0 KECCAK256 SWAP1 PUSH1 0xF MUL ADD PUSH1 0x4 ADD SLOAD PUSH1 0x1 DUP6 DUP2 SLOAD DUP2 LT PUSH2 0xCC5 JUMPI PUSH2 0xCC5 PUSH2 0x218E JUMP JUMPDEST SWAP1 PUSH1 0x0 MSTORE PUSH1 0x20 PUSH1 0x0 KECCAK256 SWAP1 PUSH1 0xF MUL ADD PUSH1 0x5 ADD SLOAD PUSH1 0x1 DUP7 DUP2 SLOAD DUP2 LT PUSH2 0xCEA JUMPI PUSH2 0xCEA PUSH2 0x218E JUMP JUMPDEST PUSH1 0x0 SWAP2 DUP3 MSTORE PUSH1 0x20 SWAP2 DUP3 SWAP1 KECCAK256 PUSH1 0x6 PUSH1 0xF SWAP1 SWAP3 MUL ADD ADD SLOAD PUSH1 0x40 DUP1 MLOAD SWAP7 DUP8 MSTORE SWAP2 DUP7 ADD SWAP5 SWAP1 SWAP5 MSTORE DUP5 ADD SWAP2 SWAP1 SWAP2 MSTORE PUSH1 0x60 DUP4 ADD MSTORE PUSH1 0x80 DUP3 ADD MSTORE PUSH1 0xA0 ADD PUSH1 0x40 MLOAD DUP1 SWAP2 SUB SWAP1 LOG1 POP JUMP JUMPDEST PUSH1 0x0 PUSH1 0x1 PUSH1 0x1 PUSH1 0xA0 SHL SUB AND PUSH1 0x1 DUP3 DUP2 SLOAD DUP2 LT PUSH2 0xD49 JUMPI PUSH2 0xD49 PUSH2 0x218E JUMP JUMPDEST PUSH1 0x0 SWAP2 DUP3 MSTORE PUSH1 0x20 SWAP1 SWAP2 KECCAK256 PUSH1 0x8 PUSH1 0xF SWAP1 SWAP3 MUL ADD ADD SLOAD PUSH1 0x1 PUSH1 0x1 PUSH1 0xA0 SHL SUB AND SUB PUSH2 0xDD9 JUMPI PUSH1 0x40 MLOAD PUSH3 0x461BCD PUSH1 0xE5 SHL DUP2 MSTORE PUSH1 0x20 PUSH1 0x4 DUP3 ADD MSTORE PUSH1 0x3A PUSH1 0x24 DUP3 ADD MSTORE PUSH32 0x5468657265206973206E6F20616363657074616E636520696E20706C61636520 PUSH1 0x44 DUP3 ADD MSTORE PUSH32 0x666F72207468652070726F766964656420726571756573744944000000000000 PUSH1 0x64 DUP3 ADD MSTORE PUSH1 0x84 ADD PUSH2 0x2EB JUMP JUMPDEST PUSH1 0x0 PUSH1 0x1 PUSH1 0x1 PUSH1 0xA0 SHL SUB AND PUSH1 0x1 DUP3 DUP2 SLOAD DUP2 LT PUSH2 0xDF7 JUMPI PUSH2 0xDF7 PUSH2 0x218E JUMP JUMPDEST PUSH1 0x0 SWAP2 DUP3 MSTORE PUSH1 0x20 SWAP1 SWAP2 KECCAK256 PUSH1 0xA PUSH1 0xF SWAP1 SWAP3 MUL ADD ADD SLOAD PUSH1 0x1 PUSH1 0x1 PUSH1 0xA0 SHL SUB AND EQ PUSH2 0xE6F JUMPI PUSH1 0x40 MLOAD PUSH3 0x461BCD PUSH1 0xE5 SHL DUP2 MSTORE PUSH1 0x20 PUSH1 0x4 DUP3 ADD MSTORE PUSH1 0x25 PUSH1 0x24 DUP3 ADD MSTORE PUSH32 0x54686973207265717565737420616C7265616479206861732061207375626D69 PUSH1 0x44 DUP3 ADD MSTORE PUSH5 0x39B9B4B7B7 PUSH1 0xD9 SHL PUSH1 0x64 DUP3 ADD MSTORE PUSH1 0x84 ADD PUSH2 0x2EB JUMP JUMPDEST CALLER PUSH1 0x1 PUSH1 0x1 PUSH1 0xA0 SHL SUB AND PUSH1 0x1 DUP3 DUP2 SLOAD DUP2 LT PUSH2 0xE8C JUMPI PUSH2 0xE8C PUSH2 0x218E JUMP JUMPDEST PUSH1 0x0 SWAP2 DUP3 MSTORE PUSH1 0x20 SWAP1 SWAP2 KECCAK256 PUSH1 0x8 PUSH1 0xF SWAP1 SWAP3 MUL ADD ADD SLOAD PUSH1 0x1 PUSH1 0x1 PUSH1 0xA0 SHL SUB AND EQ PUSH2 0xF1C JUMPI PUSH1 0x40 MLOAD PUSH3 0x461BCD PUSH1 0xE5 SHL DUP2 MSTORE PUSH1 0x20 PUSH1 0x4 DUP3 ADD MSTORE PUSH1 0x39 PUSH1 0x24 DUP3 ADD MSTORE PUSH32 0x596F752063616E742063616E63656C20616E20616363657074616E6365207468 PUSH1 0x44 DUP3 ADD MSTORE PUSH32 0x617420646F6573206E6F742062656C6F6E6720746F20796F7500000000000000 PUSH1 0x64 DUP3 ADD MSTORE PUSH1 0x84 ADD PUSH2 0x2EB JUMP JUMPDEST PUSH1 0x0 PUSH1 0x1 DUP3 DUP2 SLOAD DUP2 LT PUSH2 0xF31 JUMPI PUSH2 0xF31 PUSH2 0x218E JUMP JUMPDEST PUSH1 0x0 SWAP2 DUP3 MSTORE PUSH1 0x20 DUP3 KECCAK256 PUSH1 0x8 PUSH1 0xF SWAP1 SWAP3 MUL ADD ADD SLOAD PUSH1 0x1 DUP1 SLOAD PUSH1 0x1 PUSH1 0x1 PUSH1 0xA0 SHL SUB SWAP1 SWAP3 AND SWAP4 POP SWAP1 DUP5 SWAP1 DUP2 LT PUSH2 0xF66 JUMPI PUSH2 0xF66 PUSH2 0x218E JUMP JUMPDEST SWAP1 PUSH1 0x0 MSTORE PUSH1 0x20 PUSH1 0x0 KECCAK256 SWAP1 PUSH1 0xF MUL ADD PUSH1 0x8 ADD PUSH1 0x0 ADD PUSH1 0x0 PUSH2 0x100 EXP DUP2 SLOAD DUP2 PUSH1 0x1 PUSH1 0x1 PUSH1 0xA0 SHL SUB MUL NOT AND SWAP1 DUP4 PUSH1 0x1 PUSH1 0x1 PUSH1 0xA0 SHL SUB AND MUL OR SWAP1 SSTORE POP PUSH1 0x0 PUSH2 0xFCE PUSH1 0x1 DUP5 DUP2 SLOAD DUP2 LT PUSH2 0xFB6 JUMPI PUSH2 0xFB6 PUSH2 0x218E JUMP JUMPDEST SWAP1 PUSH1 0x0 MSTORE PUSH1 0x20 PUSH1 0x0 KECCAK256 SWAP1 PUSH1 0xF MUL ADD PUSH1 0x5 ADD SLOAD DUP4 PUSH2 0x1C6F JUMP JUMPDEST PUSH1 0x40 DUP1 MLOAD DUP6 DUP2 MSTORE PUSH1 0x1 PUSH1 0x1 PUSH1 0xA0 SHL SUB DUP6 AND PUSH1 0x20 DUP3 ADD MSTORE DUP3 ISZERO ISZERO SWAP2 DUP2 ADD SWAP2 SWAP1 SWAP2 MSTORE SWAP1 SWAP2 POP PUSH32 0x233AEBE1D7C90B97E1FE6CE1E226CCA4FEEE120BC312447D954C577A9E2255E4 SWAP1 PUSH1 0x60 ADD PUSH2 0x670 JUMP JUMPDEST PUSH1 0x1 DUP2 DUP2 SLOAD DUP2 LT PUSH2 0x102B JUMPI PUSH1 0x0 DUP1 REVERT JUMPDEST SWAP1 PUSH1 0x0 MSTORE PUSH1 0x20 PUSH1 0x0 KECCAK256 SWAP1 PUSH1 0xF MUL ADD PUSH1 0x0 SWAP2 POP SWAP1 POP DUP1 PUSH1 0x0 ADD SLOAD SWAP1 DUP1 PUSH1 0x1 ADD PUSH1 0x40 MLOAD DUP1 PUSH1 0x40 ADD PUSH1 0x40 MSTORE SWAP1 DUP2 PUSH1 0x0 DUP3 ADD SLOAD DUP2 MSTORE PUSH1 0x20 ADD PUSH1 0x1 DUP3 ADD DUP1 SLOAD PUSH2 0x106E SWAP1 PUSH2 0x21BA JUMP JUMPDEST DUP1 PUSH1 0x1F ADD PUSH1 0x20 DUP1 SWAP2 DIV MUL PUSH1 0x20 ADD PUSH1 0x40 MLOAD SWAP1 DUP2 ADD PUSH1 0x40 MSTORE DUP1 SWAP3 SWAP2 SWAP1 DUP2 DUP2 MSTORE PUSH1 0x20 ADD DUP3 DUP1 SLOAD PUSH2 0x109A SWAP1 PUSH2 0x21BA JUMP JUMPDEST DUP1 ISZERO PUSH2 0x10E7 JUMPI DUP1 PUSH1 0x1F LT PUSH2 0x10BC JUMPI PUSH2 0x100 DUP1 DUP4 SLOAD DIV MUL DUP4 MSTORE SWAP2 PUSH1 0x20 ADD SWAP2 PUSH2 0x10E7 JUMP JUMPDEST DUP3 ADD SWAP2 SWAP1 PUSH1 0x0 MSTORE PUSH1 0x20 PUSH1 0x0 KECCAK256 SWAP1 JUMPDEST DUP2 SLOAD DUP2 MSTORE SWAP1 PUSH1 0x1 ADD SWAP1 PUSH1 0x20 ADD DUP1 DUP4 GT PUSH2 0x10CA JUMPI DUP3 SWAP1 SUB PUSH1 0x1F AND DUP3 ADD SWAP2 JUMPDEST POP POP POP SWAP2 SWAP1 SWAP3 MSTORE POP POP POP PUSH1 0x3 DUP3 ADD SLOAD PUSH1 0x4 DUP4 ADD SLOAD PUSH1 0x5 DUP5 ADD SLOAD PUSH1 0x6 DUP6 ADD SLOAD PUSH1 0x7 DUP7 ADD SLOAD PUSH1 0x40 DUP1 MLOAD DUP1 DUP3 ADD DUP3 MSTORE PUSH1 0x8 DUP10 ADD SLOAD PUSH1 0x1 PUSH1 0x1 PUSH1 0xA0 SHL SUB SWAP1 DUP2 AND DUP3 MSTORE PUSH1 0x9 DUP11 ADD SLOAD PUSH1 0x20 DUP1 DUP5 ADD SWAP2 SWAP1 SWAP2 MSTORE DUP4 MLOAD PUSH1 0x80 DUP2 ADD DUP6 MSTORE PUSH1 0xA DUP13 ADD DUP1 SLOAD DUP5 AND DUP3 MSTORE PUSH1 0xB DUP14 ADD SLOAD SWAP3 DUP3 ADD SWAP3 SWAP1 SWAP3 MSTORE PUSH1 0xC DUP13 ADD DUP1 SLOAD SWAP12 SWAP13 SWAP11 SWAP12 SWAP10 SWAP11 SWAP9 SWAP10 SWAP8 SWAP9 SWAP4 SWAP1 SWAP7 AND SWAP7 SWAP4 SWAP6 SWAP3 SWAP5 SWAP1 SWAP4 SWAP2 SWAP3 SWAP1 DUP5 ADD SWAP2 PUSH2 0x117B SWAP1 PUSH2 0x21BA JUMP JUMPDEST DUP1 PUSH1 0x1F ADD PUSH1 0x20 DUP1 SWAP2 DIV MUL PUSH1 0x20 ADD PUSH1 0x40 MLOAD SWAP1 DUP2 ADD PUSH1 0x40 MSTORE DUP1 SWAP3 SWAP2 SWAP1 DUP2 DUP2 MSTORE PUSH1 0x20 ADD DUP3 DUP1 SLOAD PUSH2 0x11A7 SWAP1 PUSH2 0x21BA JUMP JUMPDEST DUP1 ISZERO PUSH2 0x11F4 JUMPI DUP1 PUSH1 0x1F LT PUSH2 0x11C9 JUMPI PUSH2 0x100 DUP1 DUP4 SLOAD DIV MUL DUP4 MSTORE SWAP2 PUSH1 0x20 ADD SWAP2 PUSH2 0x11F4 JUMP JUMPDEST DUP3 ADD SWAP2 SWAP1 PUSH1 0x0 MSTORE PUSH1 0x20 PUSH1 0x0 KECCAK256 SWAP1 JUMPDEST DUP2 SLOAD DUP2 MSTORE SWAP1 PUSH1 0x1 ADD SWAP1 PUSH1 0x20 ADD DUP1 DUP4 GT PUSH2 0x11D7 JUMPI DUP3 SWAP1 SUB PUSH1 0x1F AND DUP3 ADD SWAP2 JUMPDEST POP POP POP SWAP2 DUP4 MSTORE POP POP PUSH1 0x3 SWAP2 SWAP1 SWAP2 ADD SLOAD PUSH1 0xFF SWAP1 DUP2 AND ISZERO ISZERO PUSH1 0x20 SWAP1 SWAP3 ADD SWAP2 SWAP1 SWAP2 MSTORE PUSH1 0xE SWAP1 SWAP3 ADD SLOAD SWAP1 SWAP2 AND DUP11 JUMP JUMPDEST PUSH1 0x0 PUSH1 0x1 DUP3 DUP2 SLOAD DUP2 LT PUSH2 0x1234 JUMPI PUSH2 0x1234 PUSH2 0x218E JUMP JUMPDEST PUSH1 0x0 SWAP2 DUP3 MSTORE PUSH1 0x20 SWAP1 SWAP2 KECCAK256 PUSH1 0xE PUSH1 0xF SWAP1 SWAP3 MUL ADD ADD SLOAD PUSH1 0xFF AND ISZERO DUP1 ISZERO PUSH2 0x3A5 JUMPI POP PUSH1 0x0 PUSH1 0x1 PUSH1 0x1 PUSH1 0xA0 SHL SUB AND PUSH1 0x1 DUP4 DUP2 SLOAD DUP2 LT PUSH2 0x1271 JUMPI PUSH2 0x1271 PUSH2 0x218E JUMP JUMPDEST PUSH1 0x0 SWAP2 DUP3 MSTORE PUSH1 0x20 SWAP1 SWAP2 KECCAK256 PUSH1 0x8 PUSH1 0xF SWAP1 SWAP3 MUL ADD ADD SLOAD PUSH1 0x1 PUSH1 0x1 PUSH1 0xA0 SHL SUB AND EQ SWAP3 SWAP2 POP POP JUMP JUMPDEST PUSH1 0x0 DUP1 PUSH1 0x1 PUSH1 0x1 PUSH1 0xA0 SHL SUB AND PUSH1 0x1 DUP4 DUP2 SLOAD DUP2 LT PUSH2 0x12B4 JUMPI PUSH2 0x12B4 PUSH2 0x218E JUMP JUMPDEST PUSH1 0x0 SWAP2 DUP3 MSTORE PUSH1 0x20 SWAP1 SWAP2 KECCAK256 PUSH1 0xA PUSH1 0xF SWAP1 SWAP3 MUL ADD ADD SLOAD PUSH1 0x1 PUSH1 0x1 PUSH1 0xA0 SHL SUB AND SUB PUSH2 0x133A JUMPI PUSH1 0x40 MLOAD PUSH3 0x461BCD PUSH1 0xE5 SHL DUP2 MSTORE PUSH1 0x20 PUSH1 0x4 DUP3 ADD MSTORE PUSH1 0x33 PUSH1 0x24 DUP3 ADD MSTORE PUSH32 0x546865726520617265206E6F207375626D697373696F6E7320666F7220746865 PUSH1 0x44 DUP3 ADD MSTORE PUSH19 0x818DA185B1B195B99D959081C995C5D595CDD PUSH1 0x6A SHL PUSH1 0x64 DUP3 ADD MSTORE PUSH1 0x84 ADD PUSH2 0x2EB JUMP JUMPDEST PUSH1 0x1 DUP3 DUP2 SLOAD DUP2 LT PUSH2 0x134D JUMPI PUSH2 0x134D PUSH2 0x218E JUMP JUMPDEST PUSH1 0x0 SWAP2 DUP3 MSTORE PUSH1 0x20 SWAP1 SWAP2 KECCAK256 PUSH1 0xD PUSH1 0xF SWAP1 SWAP3 MUL ADD ADD SLOAD PUSH1 0xFF AND ISZERO PUSH2 0x13CA JUMPI PUSH1 0x40 MLOAD PUSH3 0x461BCD PUSH1 0xE5 SHL DUP2 MSTORE PUSH1 0x20 PUSH1 0x4 DUP3 ADD MSTORE PUSH1 0x30 PUSH1 0x24 DUP3 ADD MSTORE PUSH32 0x546865206368616C6C656E676564207375626D697373696F6E2068617320616C PUSH1 0x44 DUP3 ADD MSTORE PUSH16 0x1C9958591E481CDBDB1A591A599A5959 PUSH1 0x82 SHL PUSH1 0x64 DUP3 ADD MSTORE PUSH1 0x84 ADD PUSH2 0x2EB JUMP JUMPDEST PUSH1 0x0 PUSH1 0x1 DUP4 DUP2 SLOAD DUP2 LT PUSH2 0x13DF JUMPI PUSH2 0x13DF PUSH2 0x218E JUMP JUMPDEST SWAP1 PUSH1 0x0 MSTORE PUSH1 0x20 PUSH1 0x0 KECCAK256 SWAP1 PUSH1 0xF MUL ADD PUSH1 0xA ADD PUSH1 0x2 ADD DUP1 SLOAD PUSH2 0x13FE SWAP1 PUSH2 0x21BA JUMP JUMPDEST DUP1 PUSH1 0x1F ADD PUSH1 0x20 DUP1 SWAP2 DIV MUL PUSH1 0x20 ADD PUSH1 0x40 MLOAD SWAP1 DUP2 ADD PUSH1 0x40 MSTORE DUP1 SWAP3 SWAP2 SWAP1 DUP2 DUP2 MSTORE PUSH1 0x20 ADD DUP3 DUP1 SLOAD PUSH2 0x142A SWAP1 PUSH2 0x21BA JUMP JUMPDEST DUP1 ISZERO PUSH2 0x1477 JUMPI DUP1 PUSH1 0x1F LT PUSH2 0x144C JUMPI PUSH2 0x100 DUP1 DUP4 SLOAD DIV MUL DUP4 MSTORE SWAP2 PUSH1 0x20 ADD SWAP2 PUSH2 0x1477 JUMP JUMPDEST DUP3 ADD SWAP2 SWAP1 PUSH1 0x0 MSTORE PUSH1 0x20 PUSH1 0x0 KECCAK256 SWAP1 JUMPDEST DUP2 SLOAD DUP2 MSTORE SWAP1 PUSH1 0x1 ADD SWAP1 PUSH1 0x20 ADD DUP1 DUP4 GT PUSH2 0x145A JUMPI DUP3 SWAP1 SUB PUSH1 0x1F AND DUP3 ADD SWAP2 JUMPDEST POP POP POP POP POP SWAP1 POP PUSH1 0x0 PUSH1 0x1 DUP5 DUP2 SLOAD DUP2 LT PUSH2 0x1493 JUMPI PUSH2 0x1493 PUSH2 0x218E JUMP JUMPDEST SWAP1 PUSH1 0x0 MSTORE PUSH1 0x20 PUSH1 0x0 KECCAK256 SWAP1 PUSH1 0xF MUL ADD PUSH1 0x1 ADD PUSH1 0x40 MLOAD DUP1 PUSH1 0x40 ADD PUSH1 0x40 MSTORE SWAP1 DUP2 PUSH1 0x0 DUP3 ADD SLOAD DUP2 MSTORE PUSH1 0x20 ADD PUSH1 0x1 DUP3 ADD DUP1 SLOAD PUSH2 0x14C9 SWAP1 PUSH2 0x21BA JUMP JUMPDEST DUP1 PUSH1 0x1F ADD PUSH1 0x20 DUP1 SWAP2 DIV MUL PUSH1 0x20 ADD PUSH1 0x40 MLOAD SWAP1 DUP2 ADD PUSH1 0x40 MSTORE DUP1 SWAP3 SWAP2 SWAP1 DUP2 DUP2 MSTORE PUSH1 0x20 ADD DUP3 DUP1 SLOAD PUSH2 0x14F5 SWAP1 PUSH2 0x21BA JUMP JUMPDEST DUP1 ISZERO PUSH2 0x1542 JUMPI DUP1 PUSH1 0x1F LT PUSH2 0x1517 JUMPI PUSH2 0x100 DUP1 DUP4 SLOAD DIV MUL DUP4 MSTORE SWAP2 PUSH1 0x20 ADD SWAP2 PUSH2 0x1542 JUMP JUMPDEST DUP3 ADD SWAP2 SWAP1 PUSH1 0x0 MSTORE PUSH1 0x20 PUSH1 0x0 KECCAK256 SWAP1 JUMPDEST DUP2 SLOAD DUP2 MSTORE SWAP1 PUSH1 0x1 ADD SWAP1 PUSH1 0x20 ADD DUP1 DUP4 GT PUSH2 0x1525 JUMPI DUP3 SWAP1 SUB PUSH1 0x1F AND DUP3 ADD SWAP2 JUMPDEST POP POP POP POP POP DUP2 MSTORE POP POP SWAP1 POP PUSH1 0x0 PUSH1 0x1 DUP6 DUP2 SLOAD DUP2 LT PUSH2 0x1562 JUMPI PUSH2 0x1562 PUSH2 0x218E JUMP JUMPDEST PUSH1 0x0 SWAP2 DUP3 MSTORE PUSH1 0x20 SWAP1 SWAP2 KECCAK256 PUSH1 0x7 PUSH1 0xF SWAP1 SWAP3 MUL ADD ADD SLOAD PUSH1 0x40 MLOAD PUSH4 0xA9B1DAC3 PUSH1 0xE0 SHL DUP2 MSTORE PUSH1 0x1 PUSH1 0x1 PUSH1 0xA0 SHL SUB SWAP1 SWAP2 AND SWAP1 PUSH4 0xA9B1DAC3 SWAP1 PUSH2 0x15A3 SWAP1 DUP6 SWAP1 PUSH1 0x4 ADD PUSH2 0x234C JUMP JUMPDEST PUSH1 0x0 PUSH1 0x40 MLOAD DUP1 DUP4 SUB DUP2 DUP7 GAS STATICCALL ISZERO DUP1 ISZERO PUSH2 0x15C0 JUMPI RETURNDATASIZE PUSH1 0x0 DUP1 RETURNDATACOPY RETURNDATASIZE PUSH1 0x0 REVERT JUMPDEST POP POP POP POP PUSH1 0x40 MLOAD RETURNDATASIZE PUSH1 0x0 DUP3 RETURNDATACOPY PUSH1 0x1F RETURNDATASIZE SWAP1 DUP2 ADD PUSH1 0x1F NOT AND DUP3 ADD PUSH1 0x40 MSTORE PUSH2 0x15E8 SWAP2 SWAP1 DUP2 ADD SWAP1 PUSH2 0x23B8 JUMP JUMPDEST SWAP1 POP PUSH32 0xA3DFD2216A2448C62E6F94B05A7686722A4DE162A822B40701563C5A19FE7EE DUP6 DUP3 PUSH1 0x40 MLOAD PUSH2 0x161B SWAP3 SWAP2 SWAP1 PUSH2 0x2434 JUMP JUMPDEST PUSH1 0x40 MLOAD DUP1 SWAP2 SUB SWAP1 LOG1 DUP1 DUP1 MLOAD SWAP1 PUSH1 0x20 ADD KECCAK256 DUP4 DUP1 MLOAD SWAP1 PUSH1 0x20 ADD KECCAK256 EQ PUSH2 0x173D JUMPI PUSH1 0x40 DUP1 MLOAD PUSH1 0x80 DUP2 ADD DUP3 MSTORE CALLER DUP2 MSTORE TIMESTAMP PUSH1 0x20 DUP3 ADD MSTORE SWAP1 DUP2 ADD DUP3 SWAP1 MSTORE PUSH1 0x0 PUSH1 0x60 DUP3 ADD MSTORE PUSH1 0x1 DUP1 SLOAD DUP3 SWAP2 SWAP1 DUP9 SWAP1 DUP2 LT PUSH2 0x166F JUMPI PUSH2 0x166F PUSH2 0x218E JUMP JUMPDEST SWAP1 PUSH1 0x0 MSTORE PUSH1 0x20 PUSH1 0x0 KECCAK256 SWAP1 PUSH1 0xF MUL ADD PUSH1 0xA ADD PUSH1 0x0 DUP3 ADD MLOAD DUP2 PUSH1 0x0 ADD PUSH1 0x0 PUSH2 0x100 EXP DUP2 SLOAD DUP2 PUSH1 0x1 PUSH1 0x1 PUSH1 0xA0 SHL SUB MUL NOT AND SWAP1 DUP4 PUSH1 0x1 PUSH1 0x1 PUSH1 0xA0 SHL SUB AND MUL OR SWAP1 SSTORE POP PUSH1 0x20 DUP3 ADD MLOAD DUP2 PUSH1 0x1 ADD SSTORE PUSH1 0x40 DUP3 ADD MLOAD DUP2 PUSH1 0x2 ADD SWAP1 DUP2 PUSH2 0x16CC SWAP2 SWAP1 PUSH2 0x2243 JUMP JUMPDEST POP PUSH1 0x60 SWAP2 SWAP1 SWAP2 ADD MLOAD PUSH1 0x3 SWAP1 SWAP2 ADD DUP1 SLOAD PUSH1 0xFF NOT AND SWAP2 ISZERO ISZERO SWAP2 SWAP1 SWAP2 OR SWAP1 SSTORE PUSH1 0x0 PUSH2 0x16F3 DUP8 PUSH2 0x1CA0 JUMP JUMPDEST PUSH1 0x40 DUP1 MLOAD DUP10 DUP2 MSTORE DUP3 ISZERO ISZERO PUSH1 0x20 DUP3 ADD MSTORE SWAP2 SWAP3 POP PUSH32 0xD93E094FE9F982D893B2CF334B8EFD17855720EFBCCC90B82B91A2529DBE4620 SWAP2 ADD PUSH1 0x40 MLOAD DUP1 SWAP2 SUB SWAP1 LOG1 POP PUSH1 0x1 SWAP7 SWAP6 POP POP POP POP POP POP JUMP JUMPDEST POP PUSH1 0x0 SWAP5 SWAP4 POP POP POP POP JUMP JUMPDEST PUSH1 0x0 CALLER PUSH1 0x1 PUSH1 0x1 PUSH1 0xA0 SHL SUB AND PUSH1 0x1 DUP4 DUP2 SLOAD DUP2 LT PUSH2 0x1767 JUMPI PUSH2 0x1767 PUSH2 0x218E JUMP JUMPDEST PUSH1 0x0 SWAP2 DUP3 MSTORE PUSH1 0x20 SWAP1 SWAP2 KECCAK256 PUSH1 0xA PUSH1 0xF SWAP1 SWAP3 MUL ADD ADD SLOAD PUSH1 0x1 PUSH1 0x1 PUSH1 0xA0 SHL SUB AND EQ PUSH2 0x17DD JUMPI PUSH1 0x40 MLOAD PUSH3 0x461BCD PUSH1 0xE5 SHL DUP2 MSTORE PUSH1 0x20 PUSH1 0x4 DUP3 ADD MSTORE PUSH1 0x23 PUSH1 0x24 DUP3 ADD MSTORE PUSH32 0x54686973207061796D656E7420646F6573206E6F742062656C6F6E6720746F20 PUSH1 0x44 DUP3 ADD MSTORE PUSH3 0x796F75 PUSH1 0xE8 SHL PUSH1 0x64 DUP3 ADD MSTORE PUSH1 0x84 ADD PUSH2 0x2EB JUMP JUMPDEST PUSH1 0x1 DUP3 DUP2 SLOAD DUP2 LT PUSH2 0x17F0 JUMPI PUSH2 0x17F0 PUSH2 0x218E JUMP JUMPDEST PUSH1 0x0 SWAP2 DUP3 MSTORE PUSH1 0x20 SWAP1 SWAP2 KECCAK256 PUSH1 0xD PUSH1 0xF SWAP1 SWAP3 MUL ADD ADD SLOAD PUSH1 0xFF AND ISZERO PUSH2 0x1868 JUMPI PUSH1 0x40 MLOAD PUSH3 0x461BCD PUSH1 0xE5 SHL DUP2 MSTORE PUSH1 0x20 PUSH1 0x4 DUP3 ADD MSTORE PUSH1 0x2B PUSH1 0x24 DUP3 ADD MSTORE PUSH32 0x5468652070726F766964656420726571756573742068617320616C7265616479 PUSH1 0x44 DUP3 ADD MSTORE PUSH11 0x81CDBDB1A591A599A5959 PUSH1 0xAA SHL PUSH1 0x64 DUP3 ADD MSTORE PUSH1 0x84 ADD PUSH2 0x2EB JUMP JUMPDEST PUSH32 0xA938156D17C5EBF71798F3B4C04FD09E7407D75FDA6E005E9852CC359B003666 PUSH1 0x1 DUP4 DUP2 SLOAD DUP2 LT PUSH2 0x189C JUMPI PUSH2 0x189C PUSH2 0x218E JUMP JUMPDEST SWAP1 PUSH1 0x0 MSTORE PUSH1 0x20 PUSH1 0x0 KECCAK256 SWAP1 PUSH1 0xF MUL ADD PUSH1 0xA ADD PUSH1 0x1 ADD SLOAD PUSH1 0x1 DUP5 DUP2 SLOAD DUP2 LT PUSH2 0x18C4 JUMPI PUSH2 0x18C4 PUSH2 0x218E JUMP JUMPDEST PUSH1 0x0 SWAP2 DUP3 MSTORE PUSH1 0x20 SWAP2 DUP3 SWAP1 KECCAK256 PUSH1 0x6 PUSH1 0xF SWAP1 SWAP3 MUL ADD ADD SLOAD PUSH1 0x40 DUP1 MLOAD SWAP4 DUP5 MSTORE SWAP2 DUP4 ADD MSTORE TIMESTAMP SWAP1 DUP3 ADD MSTORE PUSH1 0x60 ADD PUSH1 0x40 MLOAD DUP1 SWAP2 SUB SWAP1 LOG1 PUSH1 0x0 PUSH2 0x18FF DUP4 PUSH2 0x1CA0 JUMP JUMPDEST SWAP4 SWAP3 POP POP POP JUMP JUMPDEST PUSH1 0x0 DUP1 PUSH2 0x1913 DUP6 CALLVALUE PUSH2 0x2168 JUMP JUMPDEST GT PUSH2 0x1986 JUMPI PUSH1 0x40 MLOAD PUSH3 0x461BCD PUSH1 0xE5 SHL DUP2 MSTORE PUSH1 0x20 PUSH1 0x4 DUP3 ADD MSTORE PUSH1 0x3F PUSH1 0x24 DUP3 ADD MSTORE PUSH32 0x54686520706F73742070726F63657373696E67206761732063616E6E6F742074 PUSH1 0x44 DUP3 ADD MSTORE PUSH32 0x616B65757020616C6C206F662074686520737570706C69656420657468657200 PUSH1 0x64 DUP3 ADD MSTORE PUSH1 0x84 ADD PUSH2 0x2EB JUMP JUMPDEST PUSH1 0x40 DUP1 MLOAD DUP1 DUP3 ADD DUP3 MSTORE PUSH1 0x0 DUP1 DUP3 MSTORE PUSH1 0x20 DUP1 DUP4 ADD DUP3 SWAP1 MSTORE DUP4 MLOAD PUSH1 0x80 DUP2 ADD DUP6 MSTORE DUP3 DUP2 MSTORE DUP1 DUP3 ADD DUP4 SWAP1 MSTORE DUP5 MLOAD DUP1 DUP4 ADD DUP5 SWAP1 MSTORE DUP6 MLOAD DUP1 DUP3 SUB DUP5 ADD DUP2 MSTORE SWAP1 DUP7 ADD DUP7 MSTORE DUP2 DUP7 ADD MSTORE PUSH1 0x60 DUP2 ADD DUP4 SWAP1 MSTORE DUP5 MLOAD PUSH2 0x140 DUP2 ADD SWAP1 SWAP6 MSTORE PUSH1 0x1 SLOAD DUP6 MSTORE CALLER SWAP5 SWAP1 SWAP3 SWAP2 DUP2 ADD PUSH2 0x19ED DUP12 PUSH2 0x244D JUMP JUMPDEST DUP2 MSTORE PUSH1 0x20 ADD CALLVALUE DUP2 MSTORE PUSH1 0x20 ADD DUP10 DUP2 MSTORE PUSH1 0x20 ADD DUP9 DUP2 MSTORE PUSH1 0x20 ADD DUP8 DUP2 MSTORE PUSH1 0x20 ADD DUP6 PUSH1 0x1 PUSH1 0x1 PUSH1 0xA0 SHL SUB AND DUP2 MSTORE PUSH1 0x20 ADD DUP5 DUP2 MSTORE PUSH1 0x20 ADD DUP4 DUP2 MSTORE PUSH1 0x20 ADD PUSH1 0x0 ISZERO ISZERO DUP2 MSTORE POP SWAP1 POP PUSH32 0x8D65CADB1C3C8AE25C12C040286AEE7825DF75A851362B5D7E16AC82555D9836 DUP2 PUSH1 0x0 ADD MLOAD CALLVALUE DUP11 DUP11 DUP11 PUSH1 0x40 MLOAD PUSH2 0x1A87 SWAP6 SWAP5 SWAP4 SWAP3 SWAP2 SWAP1 SWAP5 DUP6 MSTORE PUSH1 0x20 DUP6 ADD SWAP4 SWAP1 SWAP4 MSTORE PUSH1 0x40 DUP5 ADD SWAP2 SWAP1 SWAP2 MSTORE PUSH1 0x60 DUP4 ADD MSTORE PUSH1 0x80 DUP3 ADD MSTORE PUSH1 0xA0 ADD SWAP1 JUMP JUMPDEST PUSH1 0x40 MLOAD DUP1 SWAP2 SUB SWAP1 LOG1 PUSH1 0x1 DUP1 SLOAD DUP1 DUP3 ADD DUP3 SSTORE PUSH1 0x0 SWAP2 SWAP1 SWAP2 MSTORE DUP2 MLOAD PUSH1 0xF SWAP1 SWAP2 MUL PUSH32 0xB10E2D527612073B26EECDFD717E6A320CF44B4AFAC2B0732D9FCBE2B7FA0CF6 DUP2 ADD SWAP2 DUP3 SSTORE PUSH1 0x20 DUP1 DUP5 ADD MLOAD DUP1 MLOAD PUSH32 0xB10E2D527612073B26EECDFD717E6A320CF44B4AFAC2B0732D9FCBE2B7FA0CF7 DUP5 ADD SWAP1 DUP2 SSTORE SWAP2 DUP2 ADD MLOAD DUP6 SWAP5 SWAP4 SWAP2 SWAP3 SWAP2 PUSH32 0xB10E2D527612073B26EECDFD717E6A320CF44B4AFAC2B0732D9FCBE2B7FA0CF8 ADD SWAP1 PUSH2 0x1B30 SWAP1 DUP3 PUSH2 0x2243 JUMP JUMPDEST POP POP POP PUSH1 0x40 DUP3 DUP2 ADD MLOAD PUSH1 0x3 DUP4 ADD SSTORE PUSH1 0x60 DUP4 ADD MLOAD PUSH1 0x4 DUP4 ADD SSTORE PUSH1 0x80 DUP4 ADD MLOAD PUSH1 0x5 DUP4 ADD SSTORE PUSH1 0xA0 DUP4 ADD MLOAD PUSH1 0x6 DUP4 ADD SSTORE PUSH1 0xC0 DUP4 ADD MLOAD PUSH1 0x7 DUP4 ADD DUP1 SLOAD PUSH1 0x1 PUSH1 0x1 PUSH1 0xA0 SHL SUB SWAP3 DUP4 AND PUSH1 0x1 PUSH1 0x1 PUSH1 0xA0 SHL SUB NOT SWAP2 DUP3 AND OR SWAP1 SWAP2 SSTORE PUSH1 0xE0 DUP6 ADD MLOAD DUP1 MLOAD PUSH1 0x8 DUP7 ADD DUP1 SLOAD SWAP2 DUP6 AND SWAP2 DUP5 AND SWAP2 SWAP1 SWAP2 OR SWAP1 SSTORE PUSH1 0x20 SWAP1 DUP2 ADD MLOAD PUSH1 0x9 DUP7 ADD SSTORE PUSH2 0x100 DUP7 ADD MLOAD DUP1 MLOAD PUSH1 0xA DUP8 ADD DUP1 SLOAD SWAP2 SWAP1 SWAP6 AND SWAP4 AND SWAP3 SWAP1 SWAP3 OR DUP4 SSTORE DUP2 ADD MLOAD PUSH1 0xB DUP6 ADD SSTORE SWAP2 DUP3 ADD MLOAD PUSH1 0xC DUP5 ADD SWAP1 PUSH2 0x1BDB SWAP1 DUP3 PUSH2 0x2243 JUMP JUMPDEST POP PUSH1 0x60 SWAP2 DUP3 ADD MLOAD PUSH1 0x3 SWAP2 SWAP1 SWAP2 ADD DUP1 SLOAD SWAP2 ISZERO ISZERO PUSH1 0xFF NOT SWAP3 DUP4 AND OR SWAP1 SSTORE PUSH2 0x120 SWAP4 SWAP1 SWAP4 ADD MLOAD PUSH1 0xE SWAP3 SWAP1 SWAP3 ADD DUP1 SLOAD SWAP3 ISZERO ISZERO SWAP3 SWAP1 SWAP4 AND SWAP2 SWAP1 SWAP2 OR SWAP1 SWAP2 SSTORE DUP2 MLOAD PUSH1 0x40 DUP1 MLOAD SWAP2 DUP3 MSTORE CALLVALUE PUSH1 0x20 DUP4 ADD MSTORE DUP2 ADD DUP11 SWAP1 MSTORE SWAP1 DUP2 ADD DUP9 SWAP1 MSTORE PUSH1 0x80 DUP2 ADD DUP8 SWAP1 MSTORE PUSH32 0x8D65CADB1C3C8AE25C12C040286AEE7825DF75A851362B5D7E16AC82555D9836 SWAP1 PUSH1 0xA0 ADD PUSH1 0x40 MLOAD DUP1 SWAP2 SUB SWAP1 LOG1 MLOAD SWAP9 SWAP8 POP POP POP POP POP POP POP POP JUMP JUMPDEST CALLER PUSH1 0x0 SWAP1 DUP2 MSTORE PUSH1 0x20 DUP2 SWAP1 MSTORE PUSH1 0x40 DUP2 KECCAK256 DUP1 SLOAD DUP5 SWAP2 SWAP1 DUP4 SWAP1 PUSH2 0x1C90 SWAP1 DUP5 SWAP1 PUSH2 0x217B JUMP JUMPDEST SWAP1 SWAP2 SSTORE POP PUSH2 0x18FF SWAP1 POP DUP4 DUP4 PUSH2 0x286 JUMP JUMPDEST PUSH1 0x0 PUSH1 0x1 DUP1 DUP4 DUP2 SLOAD DUP2 LT PUSH2 0x1CB6 JUMPI PUSH2 0x1CB6 PUSH2 0x218E JUMP JUMPDEST PUSH1 0x0 SWAP2 DUP3 MSTORE PUSH1 0x20 SWAP2 DUP3 SWAP1 KECCAK256 PUSH1 0xF SWAP1 SWAP2 MUL ADD PUSH1 0xD ADD DUP1 SLOAD PUSH1 0xFF NOT AND SWAP3 ISZERO ISZERO SWAP3 SWAP1 SWAP3 OR SWAP1 SWAP2 SSTORE PUSH1 0x40 MLOAD DUP4 DUP2 MSTORE PUSH32 0x5A80336CEDD647533D99FEFC5A4618F060834EFA1A3E774E2728C9874A491D38 SWAP2 ADD PUSH1 0x40 MLOAD DUP1 SWAP2 SUB SWAP1 LOG1 PUSH1 0x0 SELFBALANCE SWAP1 POP PUSH1 0x0 PUSH1 0x1 DUP5 DUP2 SLOAD DUP2 LT PUSH2 0x1D25 JUMPI PUSH2 0x1D25 PUSH2 0x218E JUMP JUMPDEST PUSH1 0x0 SWAP2 DUP3 MSTORE PUSH1 0x20 DUP3 KECCAK256 PUSH1 0xA PUSH1 0xF SWAP1 SWAP3 MUL ADD ADD SLOAD PUSH1 0x1 DUP1 SLOAD PUSH1 0x1 PUSH1 0x1 PUSH1 0xA0 SHL SUB SWAP1 SWAP3 AND SWAP4 POP SWAP1 DUP7 SWAP1 DUP2 LT PUSH2 0x1D5A JUMPI PUSH2 0x1D5A PUSH2 0x218E JUMP JUMPDEST SWAP1 PUSH1 0x0 MSTORE PUSH1 0x20 PUSH1 0x0 KECCAK256 SWAP1 PUSH1 0xF MUL ADD PUSH1 0x5 ADD SLOAD PUSH1 0x1 DUP7 DUP2 SLOAD DUP2 LT PUSH2 0x1D7F JUMPI PUSH2 0x1D7F PUSH2 0x218E JUMP JUMPDEST SWAP1 PUSH1 0x0 MSTORE PUSH1 0x20 PUSH1 0x0 KECCAK256 SWAP1 PUSH1 0xF MUL ADD PUSH1 0x3 ADD SLOAD PUSH2 0x1D9B SWAP2 SWAP1 PUSH2 0x217B JUMP JUMPDEST SWAP1 POP PUSH1 0x0 PUSH2 0x1DA9 DUP3 DUP5 PUSH2 0x1C6F JUMP JUMPDEST SWAP1 POP PUSH32 0xA85CFC7D37681FA36329FC9870BF196138A4CB05E062E4748BF3B13EC6C9C650 DUP7 DUP5 PUSH1 0x1 DUP10 DUP2 SLOAD DUP2 LT PUSH2 0x1DE1 JUMPI PUSH2 0x1DE1 PUSH2 0x218E JUMP JUMPDEST SWAP1 PUSH1 0x0 MSTORE PUSH1 0x20 PUSH1 0x0 KECCAK256 SWAP1 PUSH1 0xF MUL ADD PUSH1 0x3 ADD SLOAD PUSH1 0x1 DUP11 DUP2 SLOAD DUP2 LT PUSH2 0x1E06 JUMPI PUSH2 0x1E06 PUSH2 0x218E JUMP JUMPDEST PUSH1 0x0 SWAP2 DUP3 MSTORE PUSH1 0x20 SWAP2 DUP3 SWAP1 KECCAK256 PUSH1 0x5 PUSH1 0xF SWAP1 SWAP3 MUL ADD ADD SLOAD PUSH1 0x40 DUP1 MLOAD SWAP6 DUP7 MSTORE PUSH1 0x1 PUSH1 0x1 PUSH1 0xA0 SHL SUB SWAP1 SWAP5 AND SWAP2 DUP6 ADD SWAP2 SWAP1 SWAP2 MSTORE SWAP2 DUP4 ADD MSTORE PUSH1 0x60 DUP3 ADD MSTORE PUSH1 0x80 DUP2 ADD DUP5 SWAP1 MSTORE PUSH1 0xA0 DUP2 ADD DUP7 SWAP1 MSTORE SELFBALANCE PUSH1 0xC0 DUP3 ADD MSTORE PUSH1 0xE0 ADD PUSH1 0x40 MLOAD DUP1 SWAP2 SUB SWAP1 LOG1 PUSH1 0x0 PUSH4 0xCB392747 PUSH1 0xE0 SHL PUSH1 0x1 DUP9 DUP2 SLOAD DUP2 LT PUSH2 0x1E79 JUMPI PUSH2 0x1E79 PUSH2 0x218E JUMP JUMPDEST SWAP1 PUSH1 0x0 MSTORE PUSH1 0x20 PUSH1 0x0 KECCAK256 SWAP1 PUSH1 0xF MUL ADD PUSH1 0xA ADD PUSH1 0x2 ADD PUSH1 0x40 MLOAD PUSH1 0x24 ADD PUSH2 0x1E9D SWAP2 SWAP1 PUSH2 0x24F6 JUMP JUMPDEST PUSH1 0x40 DUP1 MLOAD PUSH1 0x1F NOT DUP2 DUP5 SUB ADD DUP2 MSTORE SWAP2 SWAP1 MSTORE PUSH1 0x20 ADD DUP1 MLOAD PUSH1 0x1 PUSH1 0x1 PUSH1 0xE0 SHL SUB AND PUSH1 0x1 PUSH1 0x1 PUSH1 0xE0 SHL SUB NOT SWAP1 SWAP3 AND SWAP2 SWAP1 SWAP2 OR SWAP1 MSTORE POP SWAP6 SWAP5 POP POP POP POP POP JUMP JUMPDEST DUP1 CALLDATALOAD PUSH1 0x1 PUSH1 0x1 PUSH1 0xA0 SHL SUB DUP2 AND DUP2 EQ PUSH2 0x1EEE JUMPI PUSH1 0x0 DUP1 REVERT JUMPDEST SWAP2 SWAP1 POP JUMP JUMPDEST PUSH1 0x0 DUP1 PUSH1 0x40 DUP4 DUP6 SUB SLT ISZERO PUSH2 0x1F06 JUMPI PUSH1 0x0 DUP1 REVERT JUMPDEST DUP3 CALLDATALOAD SWAP2 POP PUSH2 0x1F16 PUSH1 0x20 DUP5 ADD PUSH2 0x1ED7 JUMP JUMPDEST SWAP1 POP SWAP3 POP SWAP3 SWAP1 POP JUMP JUMPDEST PUSH1 0x0 PUSH1 0x20 DUP3 DUP5 SUB SLT ISZERO PUSH2 0x1F31 JUMPI PUSH1 0x0 DUP1 REVERT JUMPDEST POP CALLDATALOAD SWAP2 SWAP1 POP JUMP JUMPDEST PUSH1 0x0 DUP1 PUSH1 0x0 PUSH1 0x40 DUP5 DUP7 SUB SLT ISZERO PUSH2 0x1F4D JUMPI PUSH1 0x0 DUP1 REVERT JUMPDEST DUP4 CALLDATALOAD SWAP3 POP PUSH1 0x20 DUP5 ADD CALLDATALOAD PUSH8 0xFFFFFFFFFFFFFFFF DUP1 DUP3 GT ISZERO PUSH2 0x1F6C JUMPI PUSH1 0x0 DUP1 REVERT JUMPDEST DUP2 DUP7 ADD SWAP2 POP DUP7 PUSH1 0x1F DUP4 ADD SLT PUSH2 0x1F80 JUMPI PUSH1 0x0 DUP1 REVERT JUMPDEST DUP2 CALLDATALOAD DUP2 DUP2 GT ISZERO PUSH2 0x1F8F JUMPI PUSH1 0x0 DUP1 REVERT JUMPDEST DUP8 PUSH1 0x20 DUP3 DUP6 ADD ADD GT ISZERO PUSH2 0x1FA1 JUMPI PUSH1 0x0 DUP1 REVERT JUMPDEST PUSH1 0x20 DUP4 ADD SWAP5 POP DUP1 SWAP4 POP POP POP POP SWAP3 POP SWAP3 POP SWAP3 JUMP JUMPDEST PUSH1 0x0 PUSH1 0x20 DUP3 DUP5 SUB SLT ISZERO PUSH2 0x1FC6 JUMPI PUSH1 0x0 DUP1 REVERT JUMPDEST PUSH2 0x18FF DUP3 PUSH2 0x1ED7 JUMP JUMPDEST PUSH1 0x0 JUMPDEST DUP4 DUP2 LT ISZERO PUSH2 0x1FEA JUMPI DUP2 DUP2 ADD MLOAD DUP4 DUP3 ADD MSTORE PUSH1 0x20 ADD PUSH2 0x1FD2 JUMP JUMPDEST POP POP PUSH1 0x0 SWAP2 ADD MSTORE JUMP JUMPDEST PUSH1 0x0 DUP2 MLOAD DUP1 DUP5 MSTORE PUSH2 0x200B DUP2 PUSH1 0x20 DUP7 ADD PUSH1 0x20 DUP7 ADD PUSH2 0x1FCF JUMP JUMPDEST PUSH1 0x1F ADD PUSH1 0x1F NOT AND SWAP3 SWAP1 SWAP3 ADD PUSH1 0x20 ADD SWAP3 SWAP2 POP POP JUMP JUMPDEST DUP1 MLOAD DUP3 MSTORE PUSH1 0x0 PUSH1 0x20 DUP3 ADD MLOAD PUSH1 0x40 PUSH1 0x20 DUP6 ADD MSTORE PUSH2 0x203E PUSH1 0x40 DUP6 ADD DUP3 PUSH2 0x1FF3 JUMP JUMPDEST SWAP5 SWAP4 POP POP POP POP JUMP JUMPDEST PUSH1 0x0 PUSH2 0x160 DUP13 DUP4 MSTORE DUP1 PUSH1 0x20 DUP5 ADD MSTORE PUSH2 0x2060 DUP2 DUP5 ADD DUP14 PUSH2 0x201F JUMP JUMPDEST SWAP1 POP DUP11 PUSH1 0x40 DUP5 ADD MSTORE DUP10 PUSH1 0x60 DUP5 ADD MSTORE DUP9 PUSH1 0x80 DUP5 ADD MSTORE DUP8 PUSH1 0xA0 DUP5 ADD MSTORE PUSH1 0x1 DUP1 PUSH1 0xA0 SHL SUB DUP1 DUP9 AND PUSH1 0xC0 DUP6 ADD MSTORE DUP1 DUP8 MLOAD AND PUSH1 0xE0 DUP6 ADD MSTORE PUSH1 0x20 DUP8 ADD MLOAD PUSH2 0x100 DUP6 ADD MSTORE DUP4 DUP3 SUB PUSH2 0x120 DUP6 ADD MSTORE DUP1 DUP7 MLOAD AND DUP3 MSTORE POP PUSH1 0x20 DUP6 ADD MLOAD PUSH1 0x20 DUP3 ADD MSTORE PUSH1 0x40 DUP6 ADD MLOAD PUSH1 0x80 PUSH1 0x40 DUP4 ADD MSTORE PUSH2 0x20D0 PUSH1 0x80 DUP4 ADD DUP3 PUSH2 0x1FF3 JUMP JUMPDEST PUSH1 0x60 DUP8 DUP2 ADD MLOAD ISZERO ISZERO SWAP4 ADD SWAP3 SWAP1 SWAP3 MSTORE POP DUP4 ISZERO ISZERO PUSH2 0x140 DUP5 ADD MSTORE SWAP1 POP SWAP12 SWAP11 POP POP POP POP POP POP POP POP POP POP POP JUMP JUMPDEST PUSH1 0x0 DUP1 PUSH1 0x0 DUP1 PUSH1 0x80 DUP6 DUP8 SUB SLT ISZERO PUSH2 0x210F JUMPI PUSH1 0x0 DUP1 REVERT JUMPDEST DUP5 CALLDATALOAD PUSH8 0xFFFFFFFFFFFFFFFF DUP2 GT ISZERO PUSH2 0x2126 JUMPI PUSH1 0x0 DUP1 REVERT JUMPDEST DUP6 ADD PUSH1 0x40 DUP2 DUP9 SUB SLT ISZERO PUSH2 0x2138 JUMPI PUSH1 0x0 DUP1 REVERT JUMPDEST SWAP7 PUSH1 0x20 DUP7 ADD CALLDATALOAD SWAP7 POP PUSH1 0x40 DUP7 ADD CALLDATALOAD SWAP6 PUSH1 0x60 ADD CALLDATALOAD SWAP5 POP SWAP3 POP POP POP JUMP JUMPDEST PUSH4 0x4E487B71 PUSH1 0xE0 SHL PUSH1 0x0 MSTORE PUSH1 0x11 PUSH1 0x4 MSTORE PUSH1 0x24 PUSH1 0x0 REVERT JUMPDEST DUP2 DUP2 SUB DUP2 DUP2 GT ISZERO PUSH2 0x3A5 JUMPI PUSH2 0x3A5 PUSH2 0x2152 JUMP JUMPDEST DUP1 DUP3 ADD DUP1 DUP3 GT ISZERO PUSH2 0x3A5 JUMPI PUSH2 0x3A5 PUSH2 0x2152 JUMP JUMPDEST PUSH4 0x4E487B71 PUSH1 0xE0 SHL PUSH1 0x0 MSTORE PUSH1 0x32 PUSH1 0x4 MSTORE PUSH1 0x24 PUSH1 0x0 REVERT JUMPDEST PUSH4 0x4E487B71 PUSH1 0xE0 SHL PUSH1 0x0 MSTORE PUSH1 0x41 PUSH1 0x4 MSTORE PUSH1 0x24 PUSH1 0x0 REVERT JUMPDEST PUSH1 0x1 DUP2 DUP2 SHR SWAP1 DUP3 AND DUP1 PUSH2 0x21CE JUMPI PUSH1 0x7F DUP3 AND SWAP2 POP JUMPDEST PUSH1 0x20 DUP3 LT DUP2 SUB PUSH2 0x21EE JUMPI PUSH4 0x4E487B71 PUSH1 0xE0 SHL PUSH1 0x0 MSTORE PUSH1 0x22 PUSH1 0x4 MSTORE PUSH1 0x24 PUSH1 0x0 REVERT JUMPDEST POP SWAP2 SWAP1 POP JUMP JUMPDEST PUSH1 0x1F DUP3 GT ISZERO PUSH2 0x223E JUMPI PUSH1 0x0 DUP2 DUP2 MSTORE PUSH1 0x20 DUP2 KECCAK256 PUSH1 0x1F DUP6 ADD PUSH1 0x5 SHR DUP2 ADD PUSH1 0x20 DUP7 LT ISZERO PUSH2 0x221B JUMPI POP DUP1 JUMPDEST PUSH1 0x1F DUP6 ADD PUSH1 0x5 SHR DUP3 ADD SWAP2 POP JUMPDEST DUP2 DUP2 LT ISZERO PUSH2 0x223A JUMPI DUP3 DUP2 SSTORE PUSH1 0x1 ADD PUSH2 0x2227 JUMP JUMPDEST POP POP POP JUMPDEST POP POP POP JUMP JUMPDEST DUP2 MLOAD PUSH8 0xFFFFFFFFFFFFFFFF DUP2 GT ISZERO PUSH2 0x225D JUMPI PUSH2 0x225D PUSH2 0x21A4 JUMP JUMPDEST PUSH2 0x2271 DUP2 PUSH2 0x226B DUP5 SLOAD PUSH2 0x21BA JUMP JUMPDEST DUP5 PUSH2 0x21F4 JUMP JUMPDEST PUSH1 0x20 DUP1 PUSH1 0x1F DUP4 GT PUSH1 0x1 DUP2 EQ PUSH2 0x22A6 JUMPI PUSH1 0x0 DUP5 ISZERO PUSH2 0x228E JUMPI POP DUP6 DUP4 ADD MLOAD JUMPDEST PUSH1 0x0 NOT PUSH1 0x3 DUP7 SWAP1 SHL SHR NOT AND PUSH1 0x1 DUP6 SWAP1 SHL OR DUP6 SSTORE PUSH2 0x223A JUMP JUMPDEST PUSH1 0x0 DUP6 DUP2 MSTORE PUSH1 0x20 DUP2 KECCAK256 PUSH1 0x1F NOT DUP7 AND SWAP2 JUMPDEST DUP3 DUP2 LT ISZERO PUSH2 0x22D5 JUMPI DUP9 DUP7 ADD MLOAD DUP3 SSTORE SWAP5 DUP5 ADD SWAP5 PUSH1 0x1 SWAP1 SWAP2 ADD SWAP1 DUP5 ADD PUSH2 0x22B6 JUMP JUMPDEST POP DUP6 DUP3 LT ISZERO PUSH2 0x22F3 JUMPI DUP8 DUP6 ADD MLOAD PUSH1 0x0 NOT PUSH1 0x3 DUP9 SWAP1 SHL PUSH1 0xF8 AND SHR NOT AND DUP2 SSTORE JUMPDEST POP POP POP POP POP PUSH1 0x1 SWAP1 DUP2 SHL ADD SWAP1 SSTORE POP JUMP JUMPDEST DUP5 DUP2 MSTORE PUSH1 0x60 PUSH1 0x20 DUP3 ADD MSTORE DUP3 PUSH1 0x60 DUP3 ADD MSTORE DUP3 DUP5 PUSH1 0x80 DUP4 ADD CALLDATACOPY PUSH1 0x0 DUP2 DUP5 ADD PUSH1 0x80 SWAP1 DUP2 ADD SWAP2 SWAP1 SWAP2 MSTORE PUSH1 0x1 PUSH1 0x1 PUSH1 0xA0 SHL SUB SWAP3 SWAP1 SWAP3 AND PUSH1 0x40 DUP3 ADD MSTORE PUSH1 0x1F SWAP1 SWAP3 ADD PUSH1 0x1F NOT AND SWAP1 SWAP2 ADD ADD SWAP3 SWAP2 POP POP JUMP JUMPDEST PUSH1 0x20 DUP2 MSTORE PUSH1 0x0 PUSH2 0x18FF PUSH1 0x20 DUP4 ADD DUP5 PUSH2 0x201F JUMP JUMPDEST PUSH1 0x40 MLOAD PUSH1 0x1F DUP3 ADD PUSH1 0x1F NOT AND DUP2 ADD PUSH8 0xFFFFFFFFFFFFFFFF DUP2 GT DUP3 DUP3 LT OR ISZERO PUSH2 0x2388 JUMPI PUSH2 0x2388 PUSH2 0x21A4 JUMP JUMPDEST PUSH1 0x40 MSTORE SWAP2 SWAP1 POP JUMP JUMPDEST PUSH1 0x0 PUSH8 0xFFFFFFFFFFFFFFFF DUP3 GT ISZERO PUSH2 0x23AA JUMPI PUSH2 0x23AA PUSH2 0x21A4 JUMP JUMPDEST POP PUSH1 0x1F ADD PUSH1 0x1F NOT AND PUSH1 0x20 ADD SWAP1 JUMP JUMPDEST PUSH1 0x0 PUSH1 0x20 DUP3 DUP5 SUB SLT ISZERO PUSH2 0x23CA JUMPI PUSH1 0x0 DUP1 REVERT JUMPDEST DUP2 MLOAD PUSH8 0xFFFFFFFFFFFFFFFF DUP2 GT ISZERO PUSH2 0x23E1 JUMPI PUSH1 0x0 DUP1 REVERT JUMPDEST DUP3 ADD PUSH1 0x1F DUP2 ADD DUP5 SGT PUSH2 0x23F2 JUMPI PUSH1 0x0 DUP1 REVERT JUMPDEST DUP1 MLOAD PUSH2 0x2405 PUSH2 0x2400 DUP3 PUSH2 0x2390 JUMP JUMPDEST PUSH2 0x235F JUMP JUMPDEST DUP2 DUP2 MSTORE DUP6 PUSH1 0x20 DUP4 DUP6 ADD ADD GT ISZERO PUSH2 0x241A JUMPI PUSH1 0x0 DUP1 REVERT JUMPDEST PUSH2 0x242B DUP3 PUSH1 0x20 DUP4 ADD PUSH1 0x20 DUP7 ADD PUSH2 0x1FCF JUMP JUMPDEST SWAP6 SWAP5 POP POP POP POP POP JUMP JUMPDEST DUP3 DUP2 MSTORE PUSH1 0x40 PUSH1 0x20 DUP3 ADD MSTORE PUSH1 0x0 PUSH2 0x203E PUSH1 0x40 DUP4 ADD DUP5 PUSH2 0x1FF3 JUMP JUMPDEST PUSH1 0x0 PUSH1 0x40 DUP3 CALLDATASIZE SUB SLT ISZERO PUSH2 0x245F JUMPI PUSH1 0x0 DUP1 REVERT JUMPDEST PUSH1 0x40 MLOAD PUSH1 0x40 DUP2 ADD PUSH8 0xFFFFFFFFFFFFFFFF DUP3 DUP3 LT DUP2 DUP4 GT OR ISZERO PUSH2 0x2483 JUMPI PUSH2 0x2483 PUSH2 0x21A4 JUMP JUMPDEST DUP2 PUSH1 0x40 MSTORE DUP5 CALLDATALOAD DUP4 MSTORE PUSH1 0x20 SWAP2 POP DUP2 DUP6 ADD CALLDATALOAD DUP2 DUP2 GT ISZERO PUSH2 0x24A0 JUMPI PUSH1 0x0 DUP1 REVERT JUMPDEST DUP6 ADD SWAP1 POP CALLDATASIZE PUSH1 0x1F DUP3 ADD SLT PUSH2 0x24B3 JUMPI PUSH1 0x0 DUP1 REVERT JUMPDEST DUP1 CALLDATALOAD PUSH2 0x24C1 PUSH2 0x2400 DUP3 PUSH2 0x2390 JUMP JUMPDEST DUP2 DUP2 MSTORE CALLDATASIZE DUP5 DUP4 DUP6 ADD ADD GT ISZERO PUSH2 0x24D5 JUMPI PUSH1 0x0 DUP1 REVERT JUMPDEST DUP2 DUP5 DUP5 ADD DUP6 DUP4 ADD CALLDATACOPY PUSH1 0x0 SWAP2 DUP2 ADD DUP5 ADD SWAP2 SWAP1 SWAP2 MSTORE SWAP2 DUP4 ADD SWAP2 SWAP1 SWAP2 MSTORE POP SWAP3 SWAP2 POP POP JUMP JUMPDEST PUSH1 0x0 PUSH1 0x20 DUP1 DUP4 MSTORE PUSH1 0x0 DUP5 SLOAD PUSH2 0x250A DUP2 PUSH2 0x21BA JUMP JUMPDEST DUP1 DUP5 DUP8 ADD MSTORE PUSH1 0x40 PUSH1 0x1 DUP1 DUP5 AND PUSH1 0x0 DUP2 EQ PUSH2 0x252B JUMPI PUSH1 0x1 DUP2 EQ PUSH2 0x2545 JUMPI PUSH2 0x2573 JUMP JUMPDEST PUSH1 0xFF NOT DUP6 AND DUP10 DUP5 ADD MSTORE DUP4 ISZERO ISZERO PUSH1 0x5 SHL DUP10 ADD DUP4 ADD SWAP6 POP PUSH2 0x2573 JUMP JUMPDEST DUP10 PUSH1 0x0 MSTORE DUP7 PUSH1 0x0 KECCAK256 PUSH1 0x0 JUMPDEST DUP6 DUP2 LT ISZERO PUSH2 0x256B JUMPI DUP2 SLOAD DUP12 DUP3 ADD DUP7 ADD MSTORE SWAP1 DUP4 ADD SWAP1 DUP9 ADD PUSH2 0x2550 JUMP JUMPDEST DUP11 ADD DUP5 ADD SWAP7 POP POP JUMPDEST POP SWAP4 SWAP9 SWAP8 POP POP POP POP POP POP POP POP JUMP INVALID LOG2 PUSH5 0x6970667358 0x22 SLT KECCAK256 ADD 0xD8 0xD6 RETURNDATASIZE 0xF9 ADDMOD 0x2D GAS 0xCB SMOD RETURN PC LOG1 0x2D 0xAC SWAP16 COINBASE SLOAD ADDMOD PUSH21 0x564A7298DE779331B1EB762964736F6C6343000811 STOP CALLER ",
  "sha1": "0be1a778c628d4189a21c26095b1024c2ef2f106",
  "source": "// SPDX-License-Identifier: GPL-3.0\n\npragma solidity >=0.7.0 <0.9.0;\n\nimport \"./Transferable.sol\";\nimport \"./BaseClient.sol\";\n\n\nstruct Request {\n    uint id;  // Index, for unicity when raw comparing\n    BaseClient.ClientInput input;\n    uint payment; // In Wei; deberia tener en cuenta el computo y el gas de las operaciones de submit y claim\n    uint postProcessingGas;  // In Wei; for the post processing, if any\n    uint challengeInsurance;  // amount of gas for challenges, deberia ser mayor al gas estimado, just in case\n    uint claimDelay;  // the minimum amount of time that needs to pass between a submission and a payment claim, to allow for possible challengers, in secconds\n    BaseClient client;\n    RequestAcceptance acceptance;\n    Submission submission;\n    bool cancelled;\n}\n\nstruct RequestAcceptance {\n    address acceptor;\n    uint timestamp;  // TODO ver tema vencimiento o el castigo es la retencion de fondos?\n}\n\nstruct Submission {\n    address issuer;\n    uint timestamp;\n    bytes result;\n    bool solidified;\n}\n\n\ncontract ExecutionBroker is Transferable {\n\n    Request[] public requests;\n\n    event requestCreated(uint requestID, uint payment, uint postProcessingGas, uint challengeInsurance, uint claimDelay);\n    event requestCancelled(uint requestID, bool refundSuccess);\n\n    event requestAccepted(uint requestID, address acceptor);\n    event acceptanceCancelled(uint requestID, address acceptor, bool refundSuccess);\n    \n    event resultSubmitted(uint requestID, bytes result, address submitter);\n    event resultPostProcessed(uint requestID, bool success);\n    event requestSolidified(uint requestID);\n    \n    event challengeProcessed(uint requestID, bytes result);\n    event challengePayment(uint requestID, bool success);\n    \n\n    // Restricted interaction functions\n\n    function submitRequest(BaseClient.ClientInput calldata input, uint postProcessingGas, uint requestedInsurance, uint claimDelay) public payable returns (uint) {\n        // check msg.sender is an actual client - creo que no se puede, me parece que lo voy a tener que dejar asi, creo que no es una vulnerabilidad, onda, si no es del tipo, va a fallar eventualmente, y problema del boludo que lo registro mal\n        require(msg.value - postProcessingGas > 0, \"The post processing gas cannot takeup all of the supplied ether\");  // en el bot de python, ver que efectivamente el net payment, valga la pena\n        BaseClient clientImplementation = BaseClient(msg.sender);\n        RequestAcceptance memory acceptance = RequestAcceptance({\n            acceptor: address(0x0),\n            timestamp: 0\n        });\n        Submission memory submission = Submission({\n            issuer: address(0x0),\n            timestamp: 0,\n            result: abi.encode(0),\n            solidified: false\n        });\n        Request memory request = Request({\n            id: requests.length,\n            input: input,\n            payment: msg.value,  // aca esta incluido el post processing gas, para evitar tener que devolver aparte\n            postProcessingGas: postProcessingGas,\n            challengeInsurance: requestedInsurance,\n            claimDelay: claimDelay,\n            client: clientImplementation,\n            acceptance: acceptance,\n            submission: submission,\n            cancelled: false\n        });\n        emit requestCreated(request.id, msg.value, postProcessingGas, requestedInsurance, claimDelay); //TODO por que me crea requestid =1 y no 0?\n        requests.push(request);\n        emit requestCreated(request.id, msg.value, postProcessingGas, requestedInsurance, claimDelay);\n        return request.id;\n    }\n\n    function cancelRequest(uint requestID) public {\n        require(requestID < requests.length, \"Index out of range\");\n        require(!requests[requestID].cancelled, \"The request was already cancelled\");\n        require(msg.sender == address(requests[requestID].client), \"You cant cancel a request that was not made by you\");\n        require(requests[requestID].acceptance.acceptor == address(0x0), \"You cant cancel an accepted request\");\n        //delete requests[requestID], no puedo hacer esto, this fucks up the ids\n        requests[requestID].cancelled = true;\n        address payable payee = payable(address(requests[requestID].client));\n        bool transferSuccess = internalTransferFunds(requests[requestID].payment, payee);\n        emit requestCancelled(requestID, transferSuccess);\n    }\n\n    // Open interaction functions\n\n    function publicizeRequest(uint requestID) public {  // This is to re emit the event In case the request gets forgotten\n        require(requests[requestID].acceptance.acceptor == address(0x00), \"You cant publicize a taken request\");\n        emit requestCreated(requestID, requests[requestID].payment, requests[requestID].postProcessingGas, requests[requestID].challengeInsurance, requests[requestID].claimDelay);\n    }\n\n    function acceptRequest(uint requestID) public payable {\n        // what if Request does not exist? what happens to the funds? IF YOU TRY TO ACCESS AN INVALID INDEX IN AN ARRAY, THE FUNCTION GETS REVERTED AND FUNDS RETURNED TOGETHER WITH SPARE GAS (BUT NOT ALREADY CONSUMED GAS)\n        // what happens to the funds if one of the requires fail? THEY GET RETURNED\n        require(!requests[requestID].cancelled, \"The request was cancelled\");\n        require(requests[requestID].acceptance.acceptor == address(0x0) , \"Someone already accepted the request\");\n        require(msg.value == requests[requestID].challengeInsurance, \"Incorrect amount of insurance provided\");\n        RequestAcceptance memory acceptance = RequestAcceptance({\n            acceptor: msg.sender,\n            timestamp: block.timestamp\n        });\n        requests[requestID].acceptance = acceptance;\n        emit requestAccepted(requestID, msg.sender);\n    }\n\n    function cancelAcceptance(uint requestID) public {\n        // check request unsubmitted (at this point it cant be cancelled because the acceptance blocks it\n        require(requests[requestID].acceptance.acceptor != address(0x0), \"There is no acceptance in place for the provided requestID\");\n        require(requests[requestID].submission.issuer == address(0x0), \"This request already has a submission\");\n        require(requests[requestID].acceptance.acceptor == msg.sender, \"You cant cancel an acceptance that does not belong to you\");\n        address payable payee = payable(requests[requestID].acceptance.acceptor);\n        requests[requestID].acceptance.acceptor = address(0x0);\n        bool transferSuccess = internalTransferFunds(requests[requestID].challengeInsurance, payee);\n        emit acceptanceCancelled(requestID, payee, transferSuccess);\n    }\n\n    function submitResult(uint requestID, bytes calldata result) public {\n        // para evitar que le roben el resultado, puede subirlo encriptado y posteriormente subir la clave de decrypt, NAAAA, no es eficiente\n        // pero aca caigo en el mismo dilema, tengo que esperar que pase la clave decrypt y tengo que poner un timer para que no ponga cualquier cosa y se vaya, aunque supongo que no lo quiere hacer porque quiere recuperar la insurance. Entonces capaz saco el tiempo de acceptance time window, y confiar que el tipo va a cumplir porque quiere cobrar, aunque capaz se cuelga y no lo puede resolver, entonces capaz es mejor que se haga con encriptacion? no pero eso no me sirve porque desencriptar es costoso. Mejor le pongo una opcion al tipo para cancelar la aceptacion, y se come el gas pero recupera la prima\n        require(requests[requestID].acceptance.acceptor != address(0x0), \"You need to accept the request first\");\n        require(requests[requestID].submission.issuer == address(0x0), \"There is already a submission for this request\");\n        require(requests[requestID].acceptance.acceptor == msg.sender, \"Someone else has accepted the Request\");  // no chequeo el timestamp porque el timestamp es solo para ofertar, si se vencio, pero nadie mas contra oferto, vale\n        Submission memory submission = Submission({\n            issuer: msg.sender,\n            timestamp: block.timestamp,\n            result: result,\n            solidified: false\n        });\n        requests[requestID].submission = submission;\n        emit resultSubmitted(requestID, result, msg.sender);\n    }\n\n    function challengeSubmission(uint requestID) public returns (bool) {  // no hace falta el nuevo resultado ya que se va a recalcular regardless\n        require(requests[requestID].submission.issuer != address(0x0), \"There are no submissions for the challenged request\");\n        require(!requests[requestID].submission.solidified, \"The challenged submission has already solidified\");\n\n\t\tbytes memory submittedResult = requests[requestID].submission.result;\n        BaseClient.ClientInput memory requestInput = requests[requestID].input;\n        bytes memory trueFinalResult = requests[requestID].client.clientLogic(requestInput);\n        emit challengeProcessed(requestID, trueFinalResult);\n\n        if (keccak256(submittedResult) != keccak256(trueFinalResult)) { // corregir el resultado\n            Submission memory submission = Submission({\n                issuer: msg.sender,\n                timestamp: block.timestamp,\n                result: trueFinalResult,\n                solidified: false\n            });\n            requests[requestID].submission = submission;  // notar que en las requests que se resolvieron por challenge el acceptor es diferente al issuer (a menos que alguien se autochallengee)\n            bool transferSuccess = solidify(requestID);\n            // No revierto si no es success porque una corrida on chain es muy valiosa como para arriesgar el revert\n            emit challengePayment(requestID, transferSuccess);\n            return true;  // result was corrected\n        } // else, el original lo hizo bien, dejo que pase el tiempo y cobre TODO decidir si quiero pagar un challenge a una sub correcta\n        return false;  // original was correct\n    }\n\n    event print2(uint subtime, uint delay, uint blocktime);\n    function claimPayment(uint requestID) public returns (bool) {\n        require(requests[requestID].submission.issuer == msg.sender, \"This payment does not belong to you\");\n        require(!requests[requestID].submission.solidified, \"The provided request has already solidified\");\n        emit print2(requests[requestID].submission.timestamp, requests[requestID].claimDelay, block.timestamp);\n        //require(requests[requestID].submission.timestamp + requests[requestID].claimDelay < block.timestamp, \"The claim delay hasn't passed yet\");\n        bool transferSuccess = solidify(requestID);\n        return transferSuccess;\n    }\n\n    // Public views\n\n    function isRequestOpen(uint requestID) public view returns (bool) {  // solo a modo de ayuda\n        return (!requests[requestID].cancelled && requests[requestID].acceptance.acceptor == address(0x0));\n    }\n\n    function requestCount() public view returns (uint) {\n        return requests.length;\n    }\n\n    // Private functions\n    event printer(uint requestID, address payable payee, uint payment, uint insurance, uint totalPayment, uint preBalance, uint postBalance);\n    function solidify(uint requestID) private returns (bool) {\n        // first solidify, then pay, for reentrancy issues\n        requests[requestID].submission.solidified = true;\n        emit requestSolidified(requestID);\n        uint prebalance = address(this).balance;\n        address payable payee = payable(requests[requestID].submission.issuer);\n        uint payAmount = requests[requestID].payment + requests[requestID].challengeInsurance;\n        bool transferSuccess = internalTransferFunds(payAmount, payee);\n        emit printer(requestID, payee, requests[requestID].payment, requests[requestID].challengeInsurance, payAmount, prebalance, address(this).balance); //TODO borrar\n        \n        // capaz la logica de encadenamiento es mejor definirla en python, o un mix\n        bytes memory data = abi.encodeWithSelector(requests[requestID].client.processResult.selector, requests[requestID].submission.result);\n        //TODO uncomment (bool callSuccess, ) = address(requests[requestID].client).call{gas: requests[requestID].postProcessingGas}(data);  // el delegate para que me aparezca el sender como el broker. cuidado si esto no me hace una vulnerabilidad, puedo vaciar fondos desde client? no deberia pasar nada, ni el broker ni el client puede extraer fondos\n        //emit resultPostProcessed(requestID, callSuccess);\n\n        return transferSuccess;\n    }\n}",
  "sourcePath": "contracts/ExecutionBroker.sol",
  "type": "contract"
}