{
  "abi": [
    {
      "inputs": [],
      "stateMutability": "nonpayable",
      "type": "constructor"
    },
    {
      "inputs": [
        {
          "internalType": "uint256",
          "name": "",
          "type": "uint256"
        }
      ],
      "name": "PRIMES",
      "outputs": [
        {
          "internalType": "uint256",
          "name": "",
          "type": "uint256"
        }
      ],
      "stateMutability": "view",
      "type": "function"
    },
    {
      "inputs": [
        {
          "internalType": "uint256",
          "name": "limit",
          "type": "uint256"
        }
      ],
      "name": "findPrimes",
      "outputs": [
        {
          "internalType": "uint256[]",
          "name": "",
          "type": "uint256[]"
        }
      ],
      "stateMutability": "nonpayable",
      "type": "function"
    },
    {
      "inputs": [],
      "name": "getPrimes",
      "outputs": [
        {
          "internalType": "uint256[]",
          "name": "",
          "type": "uint256[]"
        }
      ],
      "stateMutability": "view",
      "type": "function"
    },
    {
      "inputs": [],
      "name": "getPrimesLength",
      "outputs": [
        {
          "internalType": "uint256",
          "name": "",
          "type": "uint256"
        }
      ],
      "stateMutability": "view",
      "type": "function"
    }
  ],
  "bytecode": "608060405234801561001057600080fd5b506000805460018101825590805260027f290decd9548b62a8d60345a988386fc84ba6bc95484008f6362f93160ef3e563909101556103b0806100546000396000f3fe608060405234801561001057600080fd5b506004361061004c5760003560e01c806356147e43146100515780636444f11414610077578063cfb1c3731461008c578063f0fa9be714610094575b600080fd5b61006461005f366004610287565b6100a7565b6040519081526020015b60405180910390f35b61007f6100c8565b60405161006e91906102a0565b600054610064565b61007f6100a2366004610287565b610120565b600081815481106100b757600080fd5b600091825260209091200154905081565b6060600080548060200260200160405190810160405280929190818152602001828054801561011657602002820191906000526020600020905b815481526020019060010190808311610102575b5050505050905090565b6060600080600160008054905061013791906102fa565b8154811061014757610147610313565b906000526020600020015460011790505b828110156101b3576101698161020c565b156101a157600080546001810182559080527f290decd9548b62a8d60345a988386fc84ba6bc95484008f6362f93160ef3e563018190555b6101ac600282610329565b9050610158565b60008054806020026020016040519081016040528092919081815260200182805480156101ff57602002820191906000526020600020905b8154815260200190600101908083116101eb575b5050505050915050919050565b600060028210806102305750610223600283610352565b1580156102305750600282115b1561023d57506000919050565b60035b61024b600284610366565b81101561027e5761025c8184610352565b60000361026c5750600092915050565b610277600282610329565b9050610240565b50600192915050565b60006020828403121561029957600080fd5b5035919050565b6020808252825182820181905260009190848201906040850190845b818110156102d8578351835292840192918401916001016102bc565b50909695505050505050565b634e487b7160e01b600052601160045260246000fd5b8181038181111561030d5761030d6102e4565b92915050565b634e487b7160e01b600052603260045260246000fd5b8082018082111561030d5761030d6102e4565b634e487b7160e01b600052601260045260246000fd5b6000826103615761036161033c565b500690565b6000826103755761037561033c565b50049056fea264697066735822122003c4e1b321604b3abbe1b7fd9f2bfa1aea2f2e83981139ed27ce316b5724929664736f6c63430008130033",
  "bytecodeSha1": "6dc31a95745e6ab3a74311079bd9ee191d6bb85a",
  "compiler": {
    "evm_version": "istanbul",
    "optimizer": {
      "enabled": true,
      "runs": 200
    },
    "version": "0.8.19+commit.7dd6d404"
  },
  "contractName": "OnChainPrimeFinder",
  "language": "Solidity",
  "natspec": {
    "kind": "dev",
    "methods": {},
    "version": 1
  },
  "opcodes": "PUSH1 0x80 PUSH1 0x40 MSTORE CALLVALUE DUP1 ISZERO PUSH2 0x10 JUMPI PUSH1 0x0 DUP1 REVERT JUMPDEST POP PUSH1 0x4 CALLDATASIZE LT PUSH2 0x4C JUMPI PUSH1 0x0 CALLDATALOAD PUSH1 0xE0 SHR DUP1 PUSH4 0x56147E43 EQ PUSH2 0x51 JUMPI DUP1 PUSH4 0x6444F114 EQ PUSH2 0x77 JUMPI DUP1 PUSH4 0xCFB1C373 EQ PUSH2 0x8C JUMPI DUP1 PUSH4 0xF0FA9BE7 EQ PUSH2 0x94 JUMPI JUMPDEST PUSH1 0x0 DUP1 REVERT JUMPDEST PUSH2 0x64 PUSH2 0x5F CALLDATASIZE PUSH1 0x4 PUSH2 0x287 JUMP JUMPDEST PUSH2 0xA7 JUMP JUMPDEST PUSH1 0x40 MLOAD SWAP1 DUP2 MSTORE PUSH1 0x20 ADD JUMPDEST PUSH1 0x40 MLOAD DUP1 SWAP2 SUB SWAP1 RETURN JUMPDEST PUSH2 0x7F PUSH2 0xC8 JUMP JUMPDEST PUSH1 0x40 MLOAD PUSH2 0x6E SWAP2 SWAP1 PUSH2 0x2A0 JUMP JUMPDEST PUSH1 0x0 SLOAD PUSH2 0x64 JUMP JUMPDEST PUSH2 0x7F PUSH2 0xA2 CALLDATASIZE PUSH1 0x4 PUSH2 0x287 JUMP JUMPDEST PUSH2 0x120 JUMP JUMPDEST PUSH1 0x0 DUP2 DUP2 SLOAD DUP2 LT PUSH2 0xB7 JUMPI PUSH1 0x0 DUP1 REVERT JUMPDEST PUSH1 0x0 SWAP2 DUP3 MSTORE PUSH1 0x20 SWAP1 SWAP2 KECCAK256 ADD SLOAD SWAP1 POP DUP2 JUMP JUMPDEST PUSH1 0x60 PUSH1 0x0 DUP1 SLOAD DUP1 PUSH1 0x20 MUL PUSH1 0x20 ADD PUSH1 0x40 MLOAD SWAP1 DUP2 ADD PUSH1 0x40 MSTORE DUP1 SWAP3 SWAP2 SWAP1 DUP2 DUP2 MSTORE PUSH1 0x20 ADD DUP3 DUP1 SLOAD DUP1 ISZERO PUSH2 0x116 JUMPI PUSH1 0x20 MUL DUP3 ADD SWAP2 SWAP1 PUSH1 0x0 MSTORE PUSH1 0x20 PUSH1 0x0 KECCAK256 SWAP1 JUMPDEST DUP2 SLOAD DUP2 MSTORE PUSH1 0x20 ADD SWAP1 PUSH1 0x1 ADD SWAP1 DUP1 DUP4 GT PUSH2 0x102 JUMPI JUMPDEST POP POP POP POP POP SWAP1 POP SWAP1 JUMP JUMPDEST PUSH1 0x60 PUSH1 0x0 DUP1 PUSH1 0x1 PUSH1 0x0 DUP1 SLOAD SWAP1 POP PUSH2 0x137 SWAP2 SWAP1 PUSH2 0x2FA JUMP JUMPDEST DUP2 SLOAD DUP2 LT PUSH2 0x147 JUMPI PUSH2 0x147 PUSH2 0x313 JUMP JUMPDEST SWAP1 PUSH1 0x0 MSTORE PUSH1 0x20 PUSH1 0x0 KECCAK256 ADD SLOAD PUSH1 0x1 OR SWAP1 POP JUMPDEST DUP3 DUP2 LT ISZERO PUSH2 0x1B3 JUMPI PUSH2 0x169 DUP2 PUSH2 0x20C JUMP JUMPDEST ISZERO PUSH2 0x1A1 JUMPI PUSH1 0x0 DUP1 SLOAD PUSH1 0x1 DUP2 ADD DUP3 SSTORE SWAP1 DUP1 MSTORE PUSH32 0x290DECD9548B62A8D60345A988386FC84BA6BC95484008F6362F93160EF3E563 ADD DUP2 SWAP1 SSTORE JUMPDEST PUSH2 0x1AC PUSH1 0x2 DUP3 PUSH2 0x329 JUMP JUMPDEST SWAP1 POP PUSH2 0x158 JUMP JUMPDEST PUSH1 0x0 DUP1 SLOAD DUP1 PUSH1 0x20 MUL PUSH1 0x20 ADD PUSH1 0x40 MLOAD SWAP1 DUP2 ADD PUSH1 0x40 MSTORE DUP1 SWAP3 SWAP2 SWAP1 DUP2 DUP2 MSTORE PUSH1 0x20 ADD DUP3 DUP1 SLOAD DUP1 ISZERO PUSH2 0x1FF JUMPI PUSH1 0x20 MUL DUP3 ADD SWAP2 SWAP1 PUSH1 0x0 MSTORE PUSH1 0x20 PUSH1 0x0 KECCAK256 SWAP1 JUMPDEST DUP2 SLOAD DUP2 MSTORE PUSH1 0x20 ADD SWAP1 PUSH1 0x1 ADD SWAP1 DUP1 DUP4 GT PUSH2 0x1EB JUMPI JUMPDEST POP POP POP POP POP SWAP2 POP POP SWAP2 SWAP1 POP JUMP JUMPDEST PUSH1 0x0 PUSH1 0x2 DUP3 LT DUP1 PUSH2 0x230 JUMPI POP PUSH2 0x223 PUSH1 0x2 DUP4 PUSH2 0x352 JUMP JUMPDEST ISZERO DUP1 ISZERO PUSH2 0x230 JUMPI POP PUSH1 0x2 DUP3 GT JUMPDEST ISZERO PUSH2 0x23D JUMPI POP PUSH1 0x0 SWAP2 SWAP1 POP JUMP JUMPDEST PUSH1 0x3 JUMPDEST PUSH2 0x24B PUSH1 0x2 DUP5 PUSH2 0x366 JUMP JUMPDEST DUP2 LT ISZERO PUSH2 0x27E JUMPI PUSH2 0x25C DUP2 DUP5 PUSH2 0x352 JUMP JUMPDEST PUSH1 0x0 SUB PUSH2 0x26C JUMPI POP PUSH1 0x0 SWAP3 SWAP2 POP POP JUMP JUMPDEST PUSH2 0x277 PUSH1 0x2 DUP3 PUSH2 0x329 JUMP JUMPDEST SWAP1 POP PUSH2 0x240 JUMP JUMPDEST POP PUSH1 0x1 SWAP3 SWAP2 POP POP JUMP JUMPDEST PUSH1 0x0 PUSH1 0x20 DUP3 DUP5 SUB SLT ISZERO PUSH2 0x299 JUMPI PUSH1 0x0 DUP1 REVERT JUMPDEST POP CALLDATALOAD SWAP2 SWAP1 POP JUMP JUMPDEST PUSH1 0x20 DUP1 DUP3 MSTORE DUP3 MLOAD DUP3 DUP3 ADD DUP2 SWAP1 MSTORE PUSH1 0x0 SWAP2 SWAP1 DUP5 DUP3 ADD SWAP1 PUSH1 0x40 DUP6 ADD SWAP1 DUP5 JUMPDEST DUP2 DUP2 LT ISZERO PUSH2 0x2D8 JUMPI DUP4 MLOAD DUP4 MSTORE SWAP3 DUP5 ADD SWAP3 SWAP2 DUP5 ADD SWAP2 PUSH1 0x1 ADD PUSH2 0x2BC JUMP JUMPDEST POP SWAP1 SWAP7 SWAP6 POP POP POP POP POP POP JUMP JUMPDEST PUSH4 0x4E487B71 PUSH1 0xE0 SHL PUSH1 0x0 MSTORE PUSH1 0x11 PUSH1 0x4 MSTORE PUSH1 0x24 PUSH1 0x0 REVERT JUMPDEST DUP2 DUP2 SUB DUP2 DUP2 GT ISZERO PUSH2 0x30D JUMPI PUSH2 0x30D PUSH2 0x2E4 JUMP JUMPDEST SWAP3 SWAP2 POP POP JUMP JUMPDEST PUSH4 0x4E487B71 PUSH1 0xE0 SHL PUSH1 0x0 MSTORE PUSH1 0x32 PUSH1 0x4 MSTORE PUSH1 0x24 PUSH1 0x0 REVERT JUMPDEST DUP1 DUP3 ADD DUP1 DUP3 GT ISZERO PUSH2 0x30D JUMPI PUSH2 0x30D PUSH2 0x2E4 JUMP JUMPDEST PUSH4 0x4E487B71 PUSH1 0xE0 SHL PUSH1 0x0 MSTORE PUSH1 0x12 PUSH1 0x4 MSTORE PUSH1 0x24 PUSH1 0x0 REVERT JUMPDEST PUSH1 0x0 DUP3 PUSH2 0x361 JUMPI PUSH2 0x361 PUSH2 0x33C JUMP JUMPDEST POP MOD SWAP1 JUMP JUMPDEST PUSH1 0x0 DUP3 PUSH2 0x375 JUMPI PUSH2 0x375 PUSH2 0x33C JUMP JUMPDEST POP DIV SWAP1 JUMP INVALID LOG2 PUSH5 0x6970667358 0x22 SLT KECCAK256 SUB 0xC4 0xE1 0xB3 0x21 PUSH1 0x4B GASPRICE 0xBB 0xE1 0xB7 REVERT SWAP16 0x2B STATICCALL BYTE 0xEA 0x2F 0x2E DUP4 SWAP9 GT CODECOPY 0xED 0x27 0xCE BALANCE PUSH12 0x5724929664736F6C63430008 SGT STOP CALLER ",
  "sha1": "3d69753729a2de772b9a7fb9fc3661a070d8daf6",
  "source": "// SPDX-License-Identifier: GPL-3.0\n\npragma solidity >=0.7.0 <0.9.0;\n\n\ncontract OnChainPrimeFinder {\n\n    uint[] public PRIMES;\n\n    constructor() {\n        PRIMES.push(2);\n    }\n\n    function getPrimes() public view returns (uint[] memory) {\n        return PRIMES;\n    }\n\n    function getPrimesLength() public view returns (uint) {\n        return PRIMES.length;\n    }\n\n    function findPrimes(uint256 limit) public returns (uint[] memory) {\n        uint i;\n        for (i = PRIMES[PRIMES.length - 1] | 1; i < limit; i += 2) {\n            if (_isPrime(i)) {\n                PRIMES.push(i);\n            }\n        }\n        return PRIMES;\n    }\n\n    function _isPrime(uint256 number) private pure returns (bool) {\n        if (number < 2 || (number % 2 == 0 && number > 2)) {\n            return false;\n        }\n        for (uint i = 3; i < number/2; i += 2) {\n            if (number % i == 0) {\n                return false;\n            }\n        }\n        return true;\n    }\n}",
  "sourcePath": "contracts/OnChainPrimeFinder.sol",
  "type": "contract"
}