{
  "abi": [
    {
      "inputs": [],
      "stateMutability": "nonpayable",
      "type": "constructor"
    },
    {
      "inputs": [],
      "name": "isOwner",
      "outputs": [
        {
          "internalType": "bool",
          "name": "",
          "type": "bool"
        }
      ],
      "stateMutability": "view",
      "type": "function"
    },
    {
      "inputs": [],
      "name": "owner",
      "outputs": [
        {
          "internalType": "address",
          "name": "",
          "type": "address"
        }
      ],
      "stateMutability": "view",
      "type": "function"
    }
  ],
  "bytecode": "6080604052348015600f57600080fd5b50600080546001600160a01b0319163317905560aa806100306000396000f3fe6080604052348015600f57600080fd5b506004361060325760003560e01c80638da5cb5b1460375780638f32d59b146057575b600080fd5b6000546040516001600160a01b0390911681526020015b60405180910390f35b6000546001600160a01b031633146040519015158152602001604e56fea26469706673582212209bf66e063e404ec1b2c659172d0759b1995a51c5df17ec45bf48d3feb10b2b9064736f6c63430008110033",
  "bytecodeSha1": "672f70f06f11b1d7dfeb0f73ad0bb11d0c9972ad",
  "compiler": {
    "evm_version": "istanbul",
    "optimizer": {
      "enabled": true,
      "runs": 200
    },
    "version": "0.8.17+commit.8df45f5f"
  },
  "contractName": "Ownable",
  "language": "Solidity",
  "natspec": {
    "kind": "dev",
    "methods": {},
    "version": 1
  },
  "opcodes": "PUSH1 0x80 PUSH1 0x40 MSTORE CALLVALUE DUP1 ISZERO PUSH1 0xF JUMPI PUSH1 0x0 DUP1 REVERT JUMPDEST POP PUSH1 0x4 CALLDATASIZE LT PUSH1 0x32 JUMPI PUSH1 0x0 CALLDATALOAD PUSH1 0xE0 SHR DUP1 PUSH4 0x8DA5CB5B EQ PUSH1 0x37 JUMPI DUP1 PUSH4 0x8F32D59B EQ PUSH1 0x57 JUMPI JUMPDEST PUSH1 0x0 DUP1 REVERT JUMPDEST PUSH1 0x0 SLOAD PUSH1 0x40 MLOAD PUSH1 0x1 PUSH1 0x1 PUSH1 0xA0 SHL SUB SWAP1 SWAP2 AND DUP2 MSTORE PUSH1 0x20 ADD JUMPDEST PUSH1 0x40 MLOAD DUP1 SWAP2 SUB SWAP1 RETURN JUMPDEST PUSH1 0x0 SLOAD PUSH1 0x1 PUSH1 0x1 PUSH1 0xA0 SHL SUB AND CALLER EQ PUSH1 0x40 MLOAD SWAP1 ISZERO ISZERO DUP2 MSTORE PUSH1 0x20 ADD PUSH1 0x4E JUMP INVALID LOG2 PUSH5 0x6970667358 0x22 SLT KECCAK256 SWAP12 0xF6 PUSH15 0x63E404EC1B2C659172D0759B1995A MLOAD 0xC5 0xDF OR 0xEC GASLIMIT 0xBF BASEFEE 0xD3 INVALID 0xB1 SIGNEXTEND 0x2B SWAP1 PUSH5 0x736F6C6343 STOP ADDMOD GT STOP CALLER ",
  "sha1": "723e1a1adc67241e7d38bf7b768431a1a62a60ee",
  "source": "// SPDX-License-Identifier: GPL-3.0\n\npragma solidity >=0.7.0 <0.9.0;\n\ncontract Ownable {\n  modifier onlyOwner() {\n    require(isOwner(), \"Function accessible only by the owner !!\");\n    _;\n  }\n  address private _owner;\n  constructor() { _owner = msg.sender; }\n  function owner() public view returns(address) { return _owner; }  \n  function isOwner() public view returns(bool) { return msg.sender == _owner; }\n}",
  "sourcePath": "contracts/Ownable.sol",
  "type": "contract"
}