{
  "abi": [
    {
      "inputs": [],
      "stateMutability": "nonpayable",
      "type": "constructor"
    },
    {
      "inputs": [],
      "name": "isOwner",
      "outputs": [
        {
          "internalType": "bool",
          "name": "",
          "type": "bool"
        }
      ],
      "stateMutability": "view",
      "type": "function"
    },
    {
      "inputs": [],
      "name": "owner",
      "outputs": [
        {
          "internalType": "address",
          "name": "",
          "type": "address"
        }
      ],
      "stateMutability": "view",
      "type": "function"
    }
  ],
  "bytecode": "6080604052348015600f57600080fd5b50600080546001600160a01b0319163317905560aa806100306000396000f3fe6080604052348015600f57600080fd5b506004361060325760003560e01c80638da5cb5b1460375780638f32d59b146057575b600080fd5b6000546040516001600160a01b0390911681526020015b60405180910390f35b6000546001600160a01b031633146040519015158152602001604e56fea26469706673582212202756d4c2d4303e68bbda49090f192199011b2c12d7db864dd2ca13c13d1f026064736f6c63430008130033",
  "bytecodeSha1": "672f70f06f11b1d7dfeb0f73ad0bb11d0c9972ad",
  "compiler": {
    "evm_version": "istanbul",
    "optimizer": {
      "enabled": true,
      "runs": 200
    },
    "version": "0.8.19+commit.7dd6d404"
  },
  "contractName": "Ownable",
  "language": "Solidity",
  "natspec": {
    "kind": "dev",
    "methods": {},
    "version": 1
  },
  "opcodes": "PUSH1 0x80 PUSH1 0x40 MSTORE CALLVALUE DUP1 ISZERO PUSH1 0xF JUMPI PUSH1 0x0 DUP1 REVERT JUMPDEST POP PUSH1 0x4 CALLDATASIZE LT PUSH1 0x32 JUMPI PUSH1 0x0 CALLDATALOAD PUSH1 0xE0 SHR DUP1 PUSH4 0x8DA5CB5B EQ PUSH1 0x37 JUMPI DUP1 PUSH4 0x8F32D59B EQ PUSH1 0x57 JUMPI JUMPDEST PUSH1 0x0 DUP1 REVERT JUMPDEST PUSH1 0x0 SLOAD PUSH1 0x40 MLOAD PUSH1 0x1 PUSH1 0x1 PUSH1 0xA0 SHL SUB SWAP1 SWAP2 AND DUP2 MSTORE PUSH1 0x20 ADD JUMPDEST PUSH1 0x40 MLOAD DUP1 SWAP2 SUB SWAP1 RETURN JUMPDEST PUSH1 0x0 SLOAD PUSH1 0x1 PUSH1 0x1 PUSH1 0xA0 SHL SUB AND CALLER EQ PUSH1 0x40 MLOAD SWAP1 ISZERO ISZERO DUP2 MSTORE PUSH1 0x20 ADD PUSH1 0x4E JUMP INVALID LOG2 PUSH5 0x6970667358 0x22 SLT KECCAK256 0x27 JUMP 0xD4 0xC2 0xD4 ADDRESS RETURNDATACOPY PUSH9 0xBBDA49090F19219901 SHL 0x2C SLT 0xD7 0xDB DUP7 0x4D 0xD2 0xCA SGT 0xC1 RETURNDATASIZE 0x1F MUL PUSH1 0x64 PUSH20 0x6F6C634300081300330000000000000000000000 ",
  "sha1": "f1b3c52ab4cf789bb0a7b3174955a65efca04126",
  "source": "// SPDX-License-Identifier: GPL-3.0\n\npragma solidity >=0.7.0 <0.9.0;\n\ncontract Ownable {\n  modifier onlyOwner() {\n    require(isOwner(), \"Function accessible only by the owner\");\n    _;\n  }\n  address private _owner;\n  constructor() { _owner = msg.sender; }\n  function owner() public view returns(address) { return _owner; }  \n  function isOwner() public view returns(bool) { return msg.sender == _owner; }\n}",
  "sourcePath": "contracts/Ownable.sol",
  "type": "contract"
}