{
  "abi": [
    {
      "inputs": [
        {
          "internalType": "address",
          "name": "brokerAddress",
          "type": "address"
        }
      ],
      "stateMutability": "nonpayable",
      "type": "constructor"
    },
    {
      "anonymous": false,
      "inputs": [],
      "name": "automaticRequestCreationFailed",
      "type": "event"
    },
    {
      "anonymous": false,
      "inputs": [
        {
          "indexed": false,
          "internalType": "uint256",
          "name": "requestID",
          "type": "uint256"
        }
      ],
      "name": "requestSubmitted",
      "type": "event"
    },
    {
      "anonymous": false,
      "inputs": [
        {
          "indexed": false,
          "internalType": "uint256",
          "name": "requestID",
          "type": "uint256"
        },
        {
          "indexed": false,
          "internalType": "bool",
          "name": "success",
          "type": "bool"
        }
      ],
      "name": "resultPostProcessed",
      "type": "event"
    },
    {
      "inputs": [
        {
          "internalType": "uint256",
          "name": "",
          "type": "uint256"
        }
      ],
      "name": "PRIMES",
      "outputs": [
        {
          "internalType": "uint256",
          "name": "",
          "type": "uint256"
        }
      ],
      "stateMutability": "view",
      "type": "function"
    },
    {
      "inputs": [],
      "name": "batchSize",
      "outputs": [
        {
          "internalType": "uint256",
          "name": "",
          "type": "uint256"
        }
      ],
      "stateMutability": "view",
      "type": "function"
    },
    {
      "inputs": [],
      "name": "brokerContract",
      "outputs": [
        {
          "internalType": "contract ExecutionBroker",
          "name": "",
          "type": "address"
        }
      ],
      "stateMutability": "view",
      "type": "function"
    },
    {
      "inputs": [
        {
          "internalType": "uint256",
          "name": "requestID",
          "type": "uint256"
        }
      ],
      "name": "cancelRequest",
      "outputs": [],
      "stateMutability": "nonpayable",
      "type": "function"
    },
    {
      "inputs": [
        {
          "internalType": "uint256",
          "name": "requestID",
          "type": "uint256"
        }
      ],
      "name": "challengeSubmission",
      "outputs": [
        {
          "internalType": "bool",
          "name": "",
          "type": "bool"
        }
      ],
      "stateMutability": "nonpayable",
      "type": "function"
    },
    {
      "inputs": [
        {
          "internalType": "uint256",
          "name": "requestID",
          "type": "uint256"
        }
      ],
      "name": "claimPayment",
      "outputs": [
        {
          "internalType": "bool",
          "name": "",
          "type": "bool"
        }
      ],
      "stateMutability": "nonpayable",
      "type": "function"
    },
    {
      "inputs": [
        {
          "components": [
            {
              "internalType": "uint256",
              "name": "functionToRun",
              "type": "uint256"
            },
            {
              "internalType": "bytes",
              "name": "data",
              "type": "bytes"
            }
          ],
          "internalType": "struct BaseClient.ClientInput",
          "name": "input",
          "type": "tuple"
        }
      ],
      "name": "clientLogic",
      "outputs": [
        {
          "internalType": "bytes",
          "name": "",
          "type": "bytes"
        }
      ],
      "stateMutability": "pure",
      "type": "function"
    },
    {
      "inputs": [
        {
          "internalType": "uint256",
          "name": "functionID",
          "type": "uint256"
        }
      ],
      "name": "getInputStructure",
      "outputs": [
        {
          "internalType": "string",
          "name": "",
          "type": "string"
        }
      ],
      "stateMutability": "pure",
      "type": "function"
    },
    {
      "inputs": [],
      "name": "getPrimes",
      "outputs": [
        {
          "internalType": "uint256[]",
          "name": "",
          "type": "uint256[]"
        }
      ],
      "stateMutability": "view",
      "type": "function"
    },
    {
      "inputs": [],
      "name": "getPrimesLength",
      "outputs": [
        {
          "internalType": "uint256",
          "name": "",
          "type": "uint256"
        }
      ],
      "stateMutability": "view",
      "type": "function"
    },
    {
      "inputs": [],
      "name": "isOwner",
      "outputs": [
        {
          "internalType": "bool",
          "name": "",
          "type": "bool"
        }
      ],
      "stateMutability": "view",
      "type": "function"
    },
    {
      "inputs": [],
      "name": "owner",
      "outputs": [
        {
          "internalType": "address",
          "name": "",
          "type": "address"
        }
      ],
      "stateMutability": "view",
      "type": "function"
    },
    {
      "inputs": [],
      "name": "postProcessingEnabled",
      "outputs": [
        {
          "internalType": "bool",
          "name": "",
          "type": "bool"
        }
      ],
      "stateMutability": "view",
      "type": "function"
    },
    {
      "inputs": [
        {
          "internalType": "bytes",
          "name": "result",
          "type": "bytes"
        }
      ],
      "name": "processResult",
      "outputs": [],
      "stateMutability": "nonpayable",
      "type": "function"
    },
    {
      "inputs": [],
      "name": "sendFunds",
      "outputs": [],
      "stateMutability": "payable",
      "type": "function"
    },
    {
      "inputs": [
        {
          "internalType": "uint256",
          "name": "payment",
          "type": "uint256"
        },
        {
          "components": [
            {
              "internalType": "uint256",
              "name": "functionToRun",
              "type": "uint256"
            },
            {
              "internalType": "bytes",
              "name": "data",
              "type": "bytes"
            }
          ],
          "internalType": "struct BaseClient.ClientInput",
          "name": "input",
          "type": "tuple"
        },
        {
          "internalType": "uint256",
          "name": "postProcessingGas",
          "type": "uint256"
        },
        {
          "internalType": "uint256",
          "name": "requestedInsurance",
          "type": "uint256"
        },
        {
          "internalType": "uint256",
          "name": "claimDelay",
          "type": "uint256"
        }
      ],
      "name": "submitRequest",
      "outputs": [
        {
          "internalType": "uint256",
          "name": "",
          "type": "uint256"
        }
      ],
      "stateMutability": "payable",
      "type": "function"
    },
    {
      "inputs": [],
      "name": "togglePostProcessing",
      "outputs": [
        {
          "internalType": "bool",
          "name": "",
          "type": "bool"
        }
      ],
      "stateMutability": "nonpayable",
      "type": "function"
    },
    {
      "inputs": [
        {
          "internalType": "uint256",
          "name": "value",
          "type": "uint256"
        }
      ],
      "name": "withdrawFunds",
      "outputs": [
        {
          "internalType": "bool",
          "name": "",
          "type": "bool"
        }
      ],
      "stateMutability": "nonpayable",
      "type": "function"
    },
    {
      "stateMutability": "payable",
      "type": "receive"
    }
  ],
  "bytecode": "60806040526004805460ff191690556103e860055534801561002057600080fd5b50604051611d37380380611d3783398101604081905261003f916100a3565b600080546001600160a01b031990811633178255600180546001600160a01b0390941693909116929092178255600380549283018155905260027fc2575a0e9e593c00f959f8c92f12db2869c3395a3b0502d05e2516446f71f85b909101556100d3565b6000602082840312156100b557600080fd5b81516001600160a01b03811681146100cc57600080fd5b9392505050565b611c55806100e26000396000f3fe60806040526004361061010d5760003560e01c80638da5cb5b11610095578063c2c5624511610064578063c2c56245146102c1578063c63fdcc7146102e1578063cb39274714610301578063cfb1c37314610321578063f4daaba11461033657600080fd5b80638da5cb5b1461022f5780638f32d59b14610261578063a9b1dac314610281578063b2c221f2146102a157600080fd5b80633015394c116100dc5780633015394c1461019e57806356147e43146101c05780636444f114146101e0578063886eb81d146102025780638d68cf59146101be57600080fd5b8063015594b814610119578063155dd5ee1461014857806329643021146101685780632d16d25b1461018957600080fd5b3661011457005b600080fd5b34801561012557600080fd5b506004546101339060ff1681565b60405190151581526020015b60405180910390f35b34801561015457600080fd5b506101336101633660046112d1565b61034c565b61017b610176366004611302565b6103d6565b60405190815260200161013f565b34801561019557600080fd5b50610133610420565b3480156101aa57600080fd5b506101be6101b93660046112d1565b610477565b005b3480156101cc57600080fd5b5061017b6101db3660046112d1565b610502565b3480156101ec57600080fd5b506101f5610523565b60405161013f9190611363565b34801561020e57600080fd5b5061022261021d3660046112d1565b61057b565b60405161013f91906113f7565b34801561023b57600080fd5b506000546001600160a01b03165b6040516001600160a01b03909116815260200161013f565b34801561026d57600080fd5b506000546001600160a01b03163314610133565b34801561028d57600080fd5b5061022261029c36600461140a565b610617565b3480156102ad57600080fd5b506101336102bc3660046112d1565b6106df565b3480156102cd57600080fd5b50600154610249906001600160a01b031681565b3480156102ed57600080fd5b506101336102fc3660046112d1565b6109ef565b34801561030d57600080fd5b506101be61031c366004611554565b610d00565b34801561032d57600080fd5b5060035461017b565b34801561034257600080fd5b5061017b60055481565b600080546001600160a01b031633146103805760405162461bcd60e51b815260040161037790611588565b60405180910390fd5b6040513390600090829085908381818185875af1925050503d80600081146103c4576040519150601f19603f3d011682016040523d82523d6000602084013e6103c9565b606091505b509093505050505b919050565b600080546001600160a01b031633146104015760405162461bcd60e51b815260040161037790611588565b6104168661040e876115cd565b868686610ed5565b9695505050505050565b600080546001600160a01b0316331461044b5760405162461bcd60e51b815260040161037790611588565b60045460ff1661045c57600161045f565b60005b6004805460ff1916911515918217905560ff16919050565b6000546001600160a01b031633146104a15760405162461bcd60e51b815260040161037790611588565b600154604051630c054e5360e21b8152600481018390526001600160a01b0390911690633015394c90602401600060405180830381600087803b1580156104e757600080fd5b505af11580156104fb573d6000803e3d6000fd5b5050505050565b6003818154811061051257600080fd5b600091825260209091200154905081565b6060600380548060200260200160405190810160405280929190818152602001828054801561057157602002820191906000526020600020905b81548152602001906001019080831161055d575b5050505050905090565b6060816001036105a457604051806060016040528060288152602001611bf86028913992915050565b816002036105d95750506040805180820190915260118152707b75696e74323536206e756d6265723b7d60781b602082015290565b60405162461bcd60e51b8152602060048201526013602482015272125b9d985b1a5908199d5b98dd1a5bdb881251606a1b6044820152606401610377565b60408051602081019091526000815260609082356001036106835761067c610642602085018561161c565b8080601f01602080910402602001604051908101604052809392919081815260200183838082843760009201919091525061114e92505050565b90506106d9565b82356002036106d9576106d661069c602085018561161c565b8080601f01602080910402602001604051908101604052809392919081815260200183838082843760009201919091525061118192505050565b90505b92915050565b60008181526002602052604081205460ff1615156001146107125760405162461bcd60e51b815260040161037790611669565b60015460405163c58343ef60e01b8152600481018490526000916001600160a01b03169063c58343ef90602401600060405180830381865afa15801561075c573d6000803e3d6000fd5b505050506040513d6000823e601f3d908101601f1916820160405261078491908101906118db565b610120810151519091506001600160a01b03166107ff5760405162461bcd60e51b815260206004820152603360248201527f546865726520617265206e6f207375626d697373696f6e7320666f72207468656044820152720818da185b1b195b99d959081c995c5d595cdd606a1b6064820152608401610377565b806101200151606001511561086f5760405162461bcd60e51b815260206004820152603060248201527f546865206368616c6c656e676564207375626d697373696f6e2068617320616c60448201526f1c9958591e481cdbdb1a591a599a595960821b6064820152608401610377565b60015460405163740c981360e11b8152600481018590523360248201526000916001600160a01b03169063e8193026906044016020604051808303816000875af11580156108c1573d6000803e3d6000fd5b505050506040513d601f19601f820116820180604052508101906108e591906119fa565b9050600063cb39274760e01b8361012001516040015160405160240161090b91906113f7565b604051602081830303815290604052906001600160e01b0319166020820180516001600160e01b038381831617835250505050905060008360e001516001600160a01b03168460800151836040516109639190611a15565b60006040518083038160008787f1925050503d80600081146109a1576040519150601f19603f3d011682016040523d82523d6000602084013e6109a6565b606091505b50506040805188815282151560208201529192507fa531c8f4bbf2a18049d85528bb5aaae66874af94bcb325738ee729a2b6cf8428910160405180910390a15090949350505050565b60008181526002602052604081205460ff161515600114610a225760405162461bcd60e51b815260040161037790611669565b60015460405163c58343ef60e01b8152600481018490526000916001600160a01b03169063c58343ef90602401600060405180830381865afa158015610a6c573d6000803e3d6000fd5b505050506040513d6000823e601f3d908101601f19168201604052610a9491908101906118db565b610120810151519091506001600160a01b0316610b0d5760405162461bcd60e51b815260206004820152603160248201527f546865726520617265206e6f207375626d697373696f6e7320666f7220746865604482015270081c1c9bdd9a591959081c995c5d595cdd607a1b6064820152608401610377565b610120810151516001600160a01b03163314610b775760405162461bcd60e51b815260206004820152602360248201527f54686973207061796d656e7420646f6573206e6f742062656c6f6e6720746f20604482015262796f7560e81b6064820152608401610377565b8061012001516060015115610be25760405162461bcd60e51b815260206004820152602b60248201527f5468652070726f766964656420726571756573742068617320616c726561647960448201526a081cdbdb1a591a599a595960aa1b6064820152608401610377565b428160c0015182610120015160200151610bfc9190611a47565b1115610c545760405162461bcd60e51b815260206004820152602160248201527f54686520636c61696d2064656c6179206861736e2774207061737365642079656044820152601d60fa1b6064820152608401610377565b60015460405163c63fdcc760e01b8152600481018590526000916001600160a01b03169063c63fdcc7906024016020604051808303816000875af1158015610ca0573d6000803e3d6000fd5b505050506040513d601f19601f82011682018060405250810190610cc491906119fa565b600085815260026020526040808220805460ff191690556101208501518101519051929350909163cb39274760e01b9161090b916024016113f7565b333014610d675760405162461bcd60e51b815260206004820152602f60248201527f46756e6374696f6e2061636365737369626c65206f6e6c79206279207468652060448201526e31b7b73a3930b1ba1034ba39b2b63360891b6064820152608401610377565b6509184e72a000471015610db25760405162461bcd60e51b8152602060048201526012602482015271496e73756666696369656e742066756e647360701b6044820152606401610377565b60008060208351610dc39190611a70565b905060005b81811015610e44576020818102850101519250610de6600183611a84565b811080610df75750610df7836111cc565b15610e3257600380546001810182556000919091527fc2575a0e9e593c00f959f8c92f12db2869c3395a3b0502d05e2516446f71f85b018390555b80610e3c81611a97565b915050610dc8565b5060045460ff1615610ed05760006040518060400160405280600181526020016040518060400160405280866001610e7c9190611a47565b81526005546020918201526040805183518184015292909101519082015260600160405160208183030381529060405281525090506104fb6509184e72a0008264e8d4a5100065b5e620f480006000610ed5565b505050565b6000806064600160009054906101000a90046001600160a01b03166001600160a01b031663dd2be25b6040518163ffffffff1660e01b8152600401602060405180830381865afa158015610f2d573d6000803e3d6000fd5b505050506040513d601f19601f82011682018060405250810190610f519190611ab0565b60ff16600160009054906101000a90046001600160a01b03166001600160a01b0316636af587fa6040518163ffffffff1660e01b8152600401602060405180830381865afa158015610fa7573d6000803e3d6000fd5b505050506040513d601f19601f82011682018060405250810190610fcb9190611ab0565b610fd89060ff168a611ad3565b610fe29190611ad3565b610fec9190611a70565b610ff69088611a47565b905047811115611070576040805162461bcd60e51b81526020600482015260248101919091527f496e73756666696369656e742066756e64733a20796f75206d7573742070617960448201527f20666f7220746865206578656375746f7220616e6420636f6e6669726d6572736064820152608401610377565b600154604051635400247160e11b81526000916001600160a01b03169063a80048e29084906110ab908b908d908c908c908c90600401611aea565b60206040518083038185885af11580156110c9573d6000803e3d6000fd5b50505050506040513d601f19601f820116820180604052508101906110ee9190611b35565b90507fd3b0b0209035a5613265e8fb1f38873ea24c7c6189b128eebe3689c03d13905c8160405161112191815260200190565b60405180910390a16000818152600260205260409020805460ff1916600117905591505095945050505050565b60606000828060200190518101906111669190611b4e565b905061117a81600001518260200151611247565b9392505050565b60606000828060200190518101906111999190611b80565b90506111a881600001516111cc565b60408051911515602083015201604051602081830303815290604052915050919050565b600060028210806111f057506111e3600283611bc1565b1580156111f05750600282115b156111fd57506000919050565b60035b61120b600284611a70565b81101561123e5761121c8184611bc1565b60000361122c5750600092915050565b611237600282611a47565b9050611200565b50600192915050565b606060018317815b6112598486611a47565b8210156112a557611269826111cc565b15611293578082604051602001611281929190611bd5565b60405160208183030381529060405290505b61129e600283611a47565b915061124f565b80826040516020016112b8929190611bd5565b60408051808303601f1901815291905295945050505050565b6000602082840312156112e357600080fd5b5035919050565b6000604082840312156112fc57600080fd5b50919050565b600080600080600060a0868803121561131a57600080fd5b8535945060208601356001600160401b0381111561133757600080fd5b611343888289016112ea565b959895975050505060408401359360608101359360809091013592509050565b6020808252825182820181905260009190848201906040850190845b8181101561139b5783518352928401929184019160010161137f565b50909695505050505050565b60005b838110156113c25781810151838201526020016113aa565b50506000910152565b600081518084526113e38160208601602086016113a7565b601f01601f19169290920160200192915050565b60208152600061117a60208301846113cb565b60006020828403121561141c57600080fd5b81356001600160401b0381111561143257600080fd5b61143e848285016112ea565b949350505050565b634e487b7160e01b600052604160045260246000fd5b604080519081016001600160401b038111828210171561147e5761147e611446565b60405290565b60405161016081016001600160401b038111828210171561147e5761147e611446565b604051601f8201601f191681016001600160401b03811182821017156114cf576114cf611446565b604052919050565b60006001600160401b038211156114f0576114f0611446565b50601f01601f191660200190565b600082601f83011261150f57600080fd5b813561152261151d826114d7565b6114a7565b81815284602083860101111561153757600080fd5b816020850160208301376000918101602001919091529392505050565b60006020828403121561156657600080fd5b81356001600160401b0381111561157c57600080fd5b61143e848285016114fe565b60208082526025908201527f46756e6374696f6e2061636365737369626c65206f6e6c79206279207468652060408201526437bbb732b960d91b606082015260800190565b6000604082360312156115df57600080fd5b6115e761145c565b8235815260208301356001600160401b0381111561160457600080fd5b611610368286016114fe565b60208301525092915050565b6000808335601e1984360301811261163357600080fd5b8301803591506001600160401b0382111561164d57600080fd5b60200191503681900382131561166257600080fd5b9250929050565b6020808252603f908201527f5468697320494420646f6573206e6f742062656c6f6e6720746f20616e20616360408201527f7469766520726571756573742077697468696e207468697320636c69656e7400606082015260800190565b600082601f8301126116d757600080fd5b81516116e561151d826114d7565b8181528460208386010111156116fa57600080fd5b61143e8260208301602087016113a7565b60006040828403121561171d57600080fd5b61172561145c565b90508151815260208201516001600160401b0381111561174457600080fd5b611610848285016116c6565b6001600160a01b038116811461176557600080fd5b50565b600082601f83011261177957600080fd5b815160206001600160401b0382111561179457611794611446565b8160051b6117a38282016114a7565b92835284810182019282810190878511156117bd57600080fd5b83870192505b848310156117e55782516117d681611750565b825291830191908301906117c3565b979650505050505050565b80516103d181611750565b60006040828403121561180d57600080fd5b61181561145c565b9050815161182281611750565b808252506020820151602082015292915050565b805180151581146103d157600080fd5b60006080828403121561185857600080fd5b604051608081016001600160401b03828210818311171561187b5761187b611446565b816040528293508451915061188f82611750565b8183526020850151602084015260408501519150808211156118b057600080fd5b506118bd858286016116c6565b6040830152506118cf60608401611836565b60608201525092915050565b6000602082840312156118ed57600080fd5b81516001600160401b038082111561190457600080fd5b90830190610180828603121561191957600080fd5b611921611484565b8251815260208301518281111561193757600080fd5b6119438782860161170b565b6020830152506040830151604082015260608301518281111561196557600080fd5b61197187828601611768565b6060830152506080830151608082015260a083015160a082015260c083015160c08201526119a160e084016117f0565b60e08201526101006119b5878286016117fb565b9082015261014083810151838111156119cd57600080fd5b6119d988828701611846565b610120840152506119ed6101608501611836565b9082015295945050505050565b600060208284031215611a0c57600080fd5b61117a82611836565b60008251611a278184602087016113a7565b9190910192915050565b634e487b7160e01b600052601160045260246000fd5b808201808211156106d9576106d9611a31565b634e487b7160e01b600052601260045260246000fd5b600082611a7f57611a7f611a5a565b500490565b818103818111156106d9576106d9611a31565b600060018201611aa957611aa9611a31565b5060010190565b600060208284031215611ac257600080fd5b815160ff8116811461117a57600080fd5b80820281158282048414176106d9576106d9611a31565b60a08152855160a082015260006020870151604060c0840152611b1060e08401826113cb565b9150508560208301528460408301528360608301528260808301529695505050505050565b600060208284031215611b4757600080fd5b5051919050565b600060408284031215611b6057600080fd5b611b6861145c565b82518152602083015160208201528091505092915050565b600060208284031215611b9257600080fd5b604051602081018181106001600160401b0382111715611bb457611bb4611446565b6040529151825250919050565b600082611bd057611bd0611a5a565b500690565b60008351611be78184602088016113a7565b919091019182525060200191905056fe7b75696e74323536207374617274506f696e743b2075696e7432353620626174636853697a653b7da2646970667358221220ea73cee7a3bdffb800c7084837f9ba34564a925f27826affd1b8d56576ed7a1964736f6c63430008130033",
  "bytecodeSha1": "22b3b26a89246ea73459da42ad41441511a94ac7",
  "compiler": {
    "evm_version": "istanbul",
    "optimizer": {
      "enabled": true,
      "runs": 200
    },
    "version": "0.8.19+commit.7dd6d404"
  },
  "contractName": "PrimeFinder",
  "language": "Solidity",
  "natspec": {
    "kind": "dev",
    "methods": {},
    "version": 1
  },
  "opcodes": "PUSH1 0x80 PUSH1 0x40 MSTORE PUSH1 0x4 CALLDATASIZE LT PUSH2 0x10D JUMPI PUSH1 0x0 CALLDATALOAD PUSH1 0xE0 SHR DUP1 PUSH4 0x8DA5CB5B GT PUSH2 0x95 JUMPI DUP1 PUSH4 0xC2C56245 GT PUSH2 0x64 JUMPI DUP1 PUSH4 0xC2C56245 EQ PUSH2 0x2C1 JUMPI DUP1 PUSH4 0xC63FDCC7 EQ PUSH2 0x2E1 JUMPI DUP1 PUSH4 0xCB392747 EQ PUSH2 0x301 JUMPI DUP1 PUSH4 0xCFB1C373 EQ PUSH2 0x321 JUMPI DUP1 PUSH4 0xF4DAABA1 EQ PUSH2 0x336 JUMPI PUSH1 0x0 DUP1 REVERT JUMPDEST DUP1 PUSH4 0x8DA5CB5B EQ PUSH2 0x22F JUMPI DUP1 PUSH4 0x8F32D59B EQ PUSH2 0x261 JUMPI DUP1 PUSH4 0xA9B1DAC3 EQ PUSH2 0x281 JUMPI DUP1 PUSH4 0xB2C221F2 EQ PUSH2 0x2A1 JUMPI PUSH1 0x0 DUP1 REVERT JUMPDEST DUP1 PUSH4 0x3015394C GT PUSH2 0xDC JUMPI DUP1 PUSH4 0x3015394C EQ PUSH2 0x19E JUMPI DUP1 PUSH4 0x56147E43 EQ PUSH2 0x1C0 JUMPI DUP1 PUSH4 0x6444F114 EQ PUSH2 0x1E0 JUMPI DUP1 PUSH4 0x886EB81D EQ PUSH2 0x202 JUMPI DUP1 PUSH4 0x8D68CF59 EQ PUSH2 0x1BE JUMPI PUSH1 0x0 DUP1 REVERT JUMPDEST DUP1 PUSH4 0x15594B8 EQ PUSH2 0x119 JUMPI DUP1 PUSH4 0x155DD5EE EQ PUSH2 0x148 JUMPI DUP1 PUSH4 0x29643021 EQ PUSH2 0x168 JUMPI DUP1 PUSH4 0x2D16D25B EQ PUSH2 0x189 JUMPI PUSH1 0x0 DUP1 REVERT JUMPDEST CALLDATASIZE PUSH2 0x114 JUMPI STOP JUMPDEST PUSH1 0x0 DUP1 REVERT JUMPDEST CALLVALUE DUP1 ISZERO PUSH2 0x125 JUMPI PUSH1 0x0 DUP1 REVERT JUMPDEST POP PUSH1 0x4 SLOAD PUSH2 0x133 SWAP1 PUSH1 0xFF AND DUP2 JUMP JUMPDEST PUSH1 0x40 MLOAD SWAP1 ISZERO ISZERO DUP2 MSTORE PUSH1 0x20 ADD JUMPDEST PUSH1 0x40 MLOAD DUP1 SWAP2 SUB SWAP1 RETURN JUMPDEST CALLVALUE DUP1 ISZERO PUSH2 0x154 JUMPI PUSH1 0x0 DUP1 REVERT JUMPDEST POP PUSH2 0x133 PUSH2 0x163 CALLDATASIZE PUSH1 0x4 PUSH2 0x12D1 JUMP JUMPDEST PUSH2 0x34C JUMP JUMPDEST PUSH2 0x17B PUSH2 0x176 CALLDATASIZE PUSH1 0x4 PUSH2 0x1302 JUMP JUMPDEST PUSH2 0x3D6 JUMP JUMPDEST PUSH1 0x40 MLOAD SWAP1 DUP2 MSTORE PUSH1 0x20 ADD PUSH2 0x13F JUMP JUMPDEST CALLVALUE DUP1 ISZERO PUSH2 0x195 JUMPI PUSH1 0x0 DUP1 REVERT JUMPDEST POP PUSH2 0x133 PUSH2 0x420 JUMP JUMPDEST CALLVALUE DUP1 ISZERO PUSH2 0x1AA JUMPI PUSH1 0x0 DUP1 REVERT JUMPDEST POP PUSH2 0x1BE PUSH2 0x1B9 CALLDATASIZE PUSH1 0x4 PUSH2 0x12D1 JUMP JUMPDEST PUSH2 0x477 JUMP JUMPDEST STOP JUMPDEST CALLVALUE DUP1 ISZERO PUSH2 0x1CC JUMPI PUSH1 0x0 DUP1 REVERT JUMPDEST POP PUSH2 0x17B PUSH2 0x1DB CALLDATASIZE PUSH1 0x4 PUSH2 0x12D1 JUMP JUMPDEST PUSH2 0x502 JUMP JUMPDEST CALLVALUE DUP1 ISZERO PUSH2 0x1EC JUMPI PUSH1 0x0 DUP1 REVERT JUMPDEST POP PUSH2 0x1F5 PUSH2 0x523 JUMP JUMPDEST PUSH1 0x40 MLOAD PUSH2 0x13F SWAP2 SWAP1 PUSH2 0x1363 JUMP JUMPDEST CALLVALUE DUP1 ISZERO PUSH2 0x20E JUMPI PUSH1 0x0 DUP1 REVERT JUMPDEST POP PUSH2 0x222 PUSH2 0x21D CALLDATASIZE PUSH1 0x4 PUSH2 0x12D1 JUMP JUMPDEST PUSH2 0x57B JUMP JUMPDEST PUSH1 0x40 MLOAD PUSH2 0x13F SWAP2 SWAP1 PUSH2 0x13F7 JUMP JUMPDEST CALLVALUE DUP1 ISZERO PUSH2 0x23B JUMPI PUSH1 0x0 DUP1 REVERT JUMPDEST POP PUSH1 0x0 SLOAD PUSH1 0x1 PUSH1 0x1 PUSH1 0xA0 SHL SUB AND JUMPDEST PUSH1 0x40 MLOAD PUSH1 0x1 PUSH1 0x1 PUSH1 0xA0 SHL SUB SWAP1 SWAP2 AND DUP2 MSTORE PUSH1 0x20 ADD PUSH2 0x13F JUMP JUMPDEST CALLVALUE DUP1 ISZERO PUSH2 0x26D JUMPI PUSH1 0x0 DUP1 REVERT JUMPDEST POP PUSH1 0x0 SLOAD PUSH1 0x1 PUSH1 0x1 PUSH1 0xA0 SHL SUB AND CALLER EQ PUSH2 0x133 JUMP JUMPDEST CALLVALUE DUP1 ISZERO PUSH2 0x28D JUMPI PUSH1 0x0 DUP1 REVERT JUMPDEST POP PUSH2 0x222 PUSH2 0x29C CALLDATASIZE PUSH1 0x4 PUSH2 0x140A JUMP JUMPDEST PUSH2 0x617 JUMP JUMPDEST CALLVALUE DUP1 ISZERO PUSH2 0x2AD JUMPI PUSH1 0x0 DUP1 REVERT JUMPDEST POP PUSH2 0x133 PUSH2 0x2BC CALLDATASIZE PUSH1 0x4 PUSH2 0x12D1 JUMP JUMPDEST PUSH2 0x6DF JUMP JUMPDEST CALLVALUE DUP1 ISZERO PUSH2 0x2CD JUMPI PUSH1 0x0 DUP1 REVERT JUMPDEST POP PUSH1 0x1 SLOAD PUSH2 0x249 SWAP1 PUSH1 0x1 PUSH1 0x1 PUSH1 0xA0 SHL SUB AND DUP2 JUMP JUMPDEST CALLVALUE DUP1 ISZERO PUSH2 0x2ED JUMPI PUSH1 0x0 DUP1 REVERT JUMPDEST POP PUSH2 0x133 PUSH2 0x2FC CALLDATASIZE PUSH1 0x4 PUSH2 0x12D1 JUMP JUMPDEST PUSH2 0x9EF JUMP JUMPDEST CALLVALUE DUP1 ISZERO PUSH2 0x30D JUMPI PUSH1 0x0 DUP1 REVERT JUMPDEST POP PUSH2 0x1BE PUSH2 0x31C CALLDATASIZE PUSH1 0x4 PUSH2 0x1554 JUMP JUMPDEST PUSH2 0xD00 JUMP JUMPDEST CALLVALUE DUP1 ISZERO PUSH2 0x32D JUMPI PUSH1 0x0 DUP1 REVERT JUMPDEST POP PUSH1 0x3 SLOAD PUSH2 0x17B JUMP JUMPDEST CALLVALUE DUP1 ISZERO PUSH2 0x342 JUMPI PUSH1 0x0 DUP1 REVERT JUMPDEST POP PUSH2 0x17B PUSH1 0x5 SLOAD DUP2 JUMP JUMPDEST PUSH1 0x0 DUP1 SLOAD PUSH1 0x1 PUSH1 0x1 PUSH1 0xA0 SHL SUB AND CALLER EQ PUSH2 0x380 JUMPI PUSH1 0x40 MLOAD PUSH3 0x461BCD PUSH1 0xE5 SHL DUP2 MSTORE PUSH1 0x4 ADD PUSH2 0x377 SWAP1 PUSH2 0x1588 JUMP JUMPDEST PUSH1 0x40 MLOAD DUP1 SWAP2 SUB SWAP1 REVERT JUMPDEST PUSH1 0x40 MLOAD CALLER SWAP1 PUSH1 0x0 SWAP1 DUP3 SWAP1 DUP6 SWAP1 DUP4 DUP2 DUP2 DUP2 DUP6 DUP8 GAS CALL SWAP3 POP POP POP RETURNDATASIZE DUP1 PUSH1 0x0 DUP2 EQ PUSH2 0x3C4 JUMPI PUSH1 0x40 MLOAD SWAP2 POP PUSH1 0x1F NOT PUSH1 0x3F RETURNDATASIZE ADD AND DUP3 ADD PUSH1 0x40 MSTORE RETURNDATASIZE DUP3 MSTORE RETURNDATASIZE PUSH1 0x0 PUSH1 0x20 DUP5 ADD RETURNDATACOPY PUSH2 0x3C9 JUMP JUMPDEST PUSH1 0x60 SWAP2 POP JUMPDEST POP SWAP1 SWAP4 POP POP POP POP JUMPDEST SWAP2 SWAP1 POP JUMP JUMPDEST PUSH1 0x0 DUP1 SLOAD PUSH1 0x1 PUSH1 0x1 PUSH1 0xA0 SHL SUB AND CALLER EQ PUSH2 0x401 JUMPI PUSH1 0x40 MLOAD PUSH3 0x461BCD PUSH1 0xE5 SHL DUP2 MSTORE PUSH1 0x4 ADD PUSH2 0x377 SWAP1 PUSH2 0x1588 JUMP JUMPDEST PUSH2 0x416 DUP7 PUSH2 0x40E DUP8 PUSH2 0x15CD JUMP JUMPDEST DUP7 DUP7 DUP7 PUSH2 0xED5 JUMP JUMPDEST SWAP7 SWAP6 POP POP POP POP POP POP JUMP JUMPDEST PUSH1 0x0 DUP1 SLOAD PUSH1 0x1 PUSH1 0x1 PUSH1 0xA0 SHL SUB AND CALLER EQ PUSH2 0x44B JUMPI PUSH1 0x40 MLOAD PUSH3 0x461BCD PUSH1 0xE5 SHL DUP2 MSTORE PUSH1 0x4 ADD PUSH2 0x377 SWAP1 PUSH2 0x1588 JUMP JUMPDEST PUSH1 0x4 SLOAD PUSH1 0xFF AND PUSH2 0x45C JUMPI PUSH1 0x1 PUSH2 0x45F JUMP JUMPDEST PUSH1 0x0 JUMPDEST PUSH1 0x4 DUP1 SLOAD PUSH1 0xFF NOT AND SWAP2 ISZERO ISZERO SWAP2 DUP3 OR SWAP1 SSTORE PUSH1 0xFF AND SWAP2 SWAP1 POP JUMP JUMPDEST PUSH1 0x0 SLOAD PUSH1 0x1 PUSH1 0x1 PUSH1 0xA0 SHL SUB AND CALLER EQ PUSH2 0x4A1 JUMPI PUSH1 0x40 MLOAD PUSH3 0x461BCD PUSH1 0xE5 SHL DUP2 MSTORE PUSH1 0x4 ADD PUSH2 0x377 SWAP1 PUSH2 0x1588 JUMP JUMPDEST PUSH1 0x1 SLOAD PUSH1 0x40 MLOAD PUSH4 0xC054E53 PUSH1 0xE2 SHL DUP2 MSTORE PUSH1 0x4 DUP2 ADD DUP4 SWAP1 MSTORE PUSH1 0x1 PUSH1 0x1 PUSH1 0xA0 SHL SUB SWAP1 SWAP2 AND SWAP1 PUSH4 0x3015394C SWAP1 PUSH1 0x24 ADD PUSH1 0x0 PUSH1 0x40 MLOAD DUP1 DUP4 SUB DUP2 PUSH1 0x0 DUP8 DUP1 EXTCODESIZE ISZERO DUP1 ISZERO PUSH2 0x4E7 JUMPI PUSH1 0x0 DUP1 REVERT JUMPDEST POP GAS CALL ISZERO DUP1 ISZERO PUSH2 0x4FB JUMPI RETURNDATASIZE PUSH1 0x0 DUP1 RETURNDATACOPY RETURNDATASIZE PUSH1 0x0 REVERT JUMPDEST POP POP POP POP POP JUMP JUMPDEST PUSH1 0x3 DUP2 DUP2 SLOAD DUP2 LT PUSH2 0x512 JUMPI PUSH1 0x0 DUP1 REVERT JUMPDEST PUSH1 0x0 SWAP2 DUP3 MSTORE PUSH1 0x20 SWAP1 SWAP2 KECCAK256 ADD SLOAD SWAP1 POP DUP2 JUMP JUMPDEST PUSH1 0x60 PUSH1 0x3 DUP1 SLOAD DUP1 PUSH1 0x20 MUL PUSH1 0x20 ADD PUSH1 0x40 MLOAD SWAP1 DUP2 ADD PUSH1 0x40 MSTORE DUP1 SWAP3 SWAP2 SWAP1 DUP2 DUP2 MSTORE PUSH1 0x20 ADD DUP3 DUP1 SLOAD DUP1 ISZERO PUSH2 0x571 JUMPI PUSH1 0x20 MUL DUP3 ADD SWAP2 SWAP1 PUSH1 0x0 MSTORE PUSH1 0x20 PUSH1 0x0 KECCAK256 SWAP1 JUMPDEST DUP2 SLOAD DUP2 MSTORE PUSH1 0x20 ADD SWAP1 PUSH1 0x1 ADD SWAP1 DUP1 DUP4 GT PUSH2 0x55D JUMPI JUMPDEST POP POP POP POP POP SWAP1 POP SWAP1 JUMP JUMPDEST PUSH1 0x60 DUP2 PUSH1 0x1 SUB PUSH2 0x5A4 JUMPI PUSH1 0x40 MLOAD DUP1 PUSH1 0x60 ADD PUSH1 0x40 MSTORE DUP1 PUSH1 0x28 DUP2 MSTORE PUSH1 0x20 ADD PUSH2 0x1BF8 PUSH1 0x28 SWAP2 CODECOPY SWAP3 SWAP2 POP POP JUMP JUMPDEST DUP2 PUSH1 0x2 SUB PUSH2 0x5D9 JUMPI POP POP PUSH1 0x40 DUP1 MLOAD DUP1 DUP3 ADD SWAP1 SWAP2 MSTORE PUSH1 0x11 DUP2 MSTORE PUSH17 0x7B75696E74323536206E756D6265723B7D PUSH1 0x78 SHL PUSH1 0x20 DUP3 ADD MSTORE SWAP1 JUMP JUMPDEST PUSH1 0x40 MLOAD PUSH3 0x461BCD PUSH1 0xE5 SHL DUP2 MSTORE PUSH1 0x20 PUSH1 0x4 DUP3 ADD MSTORE PUSH1 0x13 PUSH1 0x24 DUP3 ADD MSTORE PUSH19 0x125B9D985B1A5908199D5B98DD1A5BDB881251 PUSH1 0x6A SHL PUSH1 0x44 DUP3 ADD MSTORE PUSH1 0x64 ADD PUSH2 0x377 JUMP JUMPDEST PUSH1 0x40 DUP1 MLOAD PUSH1 0x20 DUP2 ADD SWAP1 SWAP2 MSTORE PUSH1 0x0 DUP2 MSTORE PUSH1 0x60 SWAP1 DUP3 CALLDATALOAD PUSH1 0x1 SUB PUSH2 0x683 JUMPI PUSH2 0x67C PUSH2 0x642 PUSH1 0x20 DUP6 ADD DUP6 PUSH2 0x161C JUMP JUMPDEST DUP1 DUP1 PUSH1 0x1F ADD PUSH1 0x20 DUP1 SWAP2 DIV MUL PUSH1 0x20 ADD PUSH1 0x40 MLOAD SWAP1 DUP2 ADD PUSH1 0x40 MSTORE DUP1 SWAP4 SWAP3 SWAP2 SWAP1 DUP2 DUP2 MSTORE PUSH1 0x20 ADD DUP4 DUP4 DUP1 DUP3 DUP5 CALLDATACOPY PUSH1 0x0 SWAP3 ADD SWAP2 SWAP1 SWAP2 MSTORE POP PUSH2 0x114E SWAP3 POP POP POP JUMP JUMPDEST SWAP1 POP PUSH2 0x6D9 JUMP JUMPDEST DUP3 CALLDATALOAD PUSH1 0x2 SUB PUSH2 0x6D9 JUMPI PUSH2 0x6D6 PUSH2 0x69C PUSH1 0x20 DUP6 ADD DUP6 PUSH2 0x161C JUMP JUMPDEST DUP1 DUP1 PUSH1 0x1F ADD PUSH1 0x20 DUP1 SWAP2 DIV MUL PUSH1 0x20 ADD PUSH1 0x40 MLOAD SWAP1 DUP2 ADD PUSH1 0x40 MSTORE DUP1 SWAP4 SWAP3 SWAP2 SWAP1 DUP2 DUP2 MSTORE PUSH1 0x20 ADD DUP4 DUP4 DUP1 DUP3 DUP5 CALLDATACOPY PUSH1 0x0 SWAP3 ADD SWAP2 SWAP1 SWAP2 MSTORE POP PUSH2 0x1181 SWAP3 POP POP POP JUMP JUMPDEST SWAP1 POP JUMPDEST SWAP3 SWAP2 POP POP JUMP JUMPDEST PUSH1 0x0 DUP2 DUP2 MSTORE PUSH1 0x2 PUSH1 0x20 MSTORE PUSH1 0x40 DUP2 KECCAK256 SLOAD PUSH1 0xFF AND ISZERO ISZERO PUSH1 0x1 EQ PUSH2 0x712 JUMPI PUSH1 0x40 MLOAD PUSH3 0x461BCD PUSH1 0xE5 SHL DUP2 MSTORE PUSH1 0x4 ADD PUSH2 0x377 SWAP1 PUSH2 0x1669 JUMP JUMPDEST PUSH1 0x1 SLOAD PUSH1 0x40 MLOAD PUSH4 0xC58343EF PUSH1 0xE0 SHL DUP2 MSTORE PUSH1 0x4 DUP2 ADD DUP5 SWAP1 MSTORE PUSH1 0x0 SWAP2 PUSH1 0x1 PUSH1 0x1 PUSH1 0xA0 SHL SUB AND SWAP1 PUSH4 0xC58343EF SWAP1 PUSH1 0x24 ADD PUSH1 0x0 PUSH1 0x40 MLOAD DUP1 DUP4 SUB DUP2 DUP7 GAS STATICCALL ISZERO DUP1 ISZERO PUSH2 0x75C JUMPI RETURNDATASIZE PUSH1 0x0 DUP1 RETURNDATACOPY RETURNDATASIZE PUSH1 0x0 REVERT JUMPDEST POP POP POP POP PUSH1 0x40 MLOAD RETURNDATASIZE PUSH1 0x0 DUP3 RETURNDATACOPY PUSH1 0x1F RETURNDATASIZE SWAP1 DUP2 ADD PUSH1 0x1F NOT AND DUP3 ADD PUSH1 0x40 MSTORE PUSH2 0x784 SWAP2 SWAP1 DUP2 ADD SWAP1 PUSH2 0x18DB JUMP JUMPDEST PUSH2 0x120 DUP2 ADD MLOAD MLOAD SWAP1 SWAP2 POP PUSH1 0x1 PUSH1 0x1 PUSH1 0xA0 SHL SUB AND PUSH2 0x7FF JUMPI PUSH1 0x40 MLOAD PUSH3 0x461BCD PUSH1 0xE5 SHL DUP2 MSTORE PUSH1 0x20 PUSH1 0x4 DUP3 ADD MSTORE PUSH1 0x33 PUSH1 0x24 DUP3 ADD MSTORE PUSH32 0x546865726520617265206E6F207375626D697373696F6E7320666F7220746865 PUSH1 0x44 DUP3 ADD MSTORE PUSH19 0x818DA185B1B195B99D959081C995C5D595CDD PUSH1 0x6A SHL PUSH1 0x64 DUP3 ADD MSTORE PUSH1 0x84 ADD PUSH2 0x377 JUMP JUMPDEST DUP1 PUSH2 0x120 ADD MLOAD PUSH1 0x60 ADD MLOAD ISZERO PUSH2 0x86F JUMPI PUSH1 0x40 MLOAD PUSH3 0x461BCD PUSH1 0xE5 SHL DUP2 MSTORE PUSH1 0x20 PUSH1 0x4 DUP3 ADD MSTORE PUSH1 0x30 PUSH1 0x24 DUP3 ADD MSTORE PUSH32 0x546865206368616C6C656E676564207375626D697373696F6E2068617320616C PUSH1 0x44 DUP3 ADD MSTORE PUSH16 0x1C9958591E481CDBDB1A591A599A5959 PUSH1 0x82 SHL PUSH1 0x64 DUP3 ADD MSTORE PUSH1 0x84 ADD PUSH2 0x377 JUMP JUMPDEST PUSH1 0x1 SLOAD PUSH1 0x40 MLOAD PUSH4 0x740C9813 PUSH1 0xE1 SHL DUP2 MSTORE PUSH1 0x4 DUP2 ADD DUP6 SWAP1 MSTORE CALLER PUSH1 0x24 DUP3 ADD MSTORE PUSH1 0x0 SWAP2 PUSH1 0x1 PUSH1 0x1 PUSH1 0xA0 SHL SUB AND SWAP1 PUSH4 0xE8193026 SWAP1 PUSH1 0x44 ADD PUSH1 0x20 PUSH1 0x40 MLOAD DUP1 DUP4 SUB DUP2 PUSH1 0x0 DUP8 GAS CALL ISZERO DUP1 ISZERO PUSH2 0x8C1 JUMPI RETURNDATASIZE PUSH1 0x0 DUP1 RETURNDATACOPY RETURNDATASIZE PUSH1 0x0 REVERT JUMPDEST POP POP POP POP PUSH1 0x40 MLOAD RETURNDATASIZE PUSH1 0x1F NOT PUSH1 0x1F DUP3 ADD AND DUP3 ADD DUP1 PUSH1 0x40 MSTORE POP DUP2 ADD SWAP1 PUSH2 0x8E5 SWAP2 SWAP1 PUSH2 0x19FA JUMP JUMPDEST SWAP1 POP PUSH1 0x0 PUSH4 0xCB392747 PUSH1 0xE0 SHL DUP4 PUSH2 0x120 ADD MLOAD PUSH1 0x40 ADD MLOAD PUSH1 0x40 MLOAD PUSH1 0x24 ADD PUSH2 0x90B SWAP2 SWAP1 PUSH2 0x13F7 JUMP JUMPDEST PUSH1 0x40 MLOAD PUSH1 0x20 DUP2 DUP4 SUB SUB DUP2 MSTORE SWAP1 PUSH1 0x40 MSTORE SWAP1 PUSH1 0x1 PUSH1 0x1 PUSH1 0xE0 SHL SUB NOT AND PUSH1 0x20 DUP3 ADD DUP1 MLOAD PUSH1 0x1 PUSH1 0x1 PUSH1 0xE0 SHL SUB DUP4 DUP2 DUP4 AND OR DUP4 MSTORE POP POP POP POP SWAP1 POP PUSH1 0x0 DUP4 PUSH1 0xE0 ADD MLOAD PUSH1 0x1 PUSH1 0x1 PUSH1 0xA0 SHL SUB AND DUP5 PUSH1 0x80 ADD MLOAD DUP4 PUSH1 0x40 MLOAD PUSH2 0x963 SWAP2 SWAP1 PUSH2 0x1A15 JUMP JUMPDEST PUSH1 0x0 PUSH1 0x40 MLOAD DUP1 DUP4 SUB DUP2 PUSH1 0x0 DUP8 DUP8 CALL SWAP3 POP POP POP RETURNDATASIZE DUP1 PUSH1 0x0 DUP2 EQ PUSH2 0x9A1 JUMPI PUSH1 0x40 MLOAD SWAP2 POP PUSH1 0x1F NOT PUSH1 0x3F RETURNDATASIZE ADD AND DUP3 ADD PUSH1 0x40 MSTORE RETURNDATASIZE DUP3 MSTORE RETURNDATASIZE PUSH1 0x0 PUSH1 0x20 DUP5 ADD RETURNDATACOPY PUSH2 0x9A6 JUMP JUMPDEST PUSH1 0x60 SWAP2 POP JUMPDEST POP POP PUSH1 0x40 DUP1 MLOAD DUP9 DUP2 MSTORE DUP3 ISZERO ISZERO PUSH1 0x20 DUP3 ADD MSTORE SWAP2 SWAP3 POP PUSH32 0xA531C8F4BBF2A18049D85528BB5AAAE66874AF94BCB325738EE729A2B6CF8428 SWAP2 ADD PUSH1 0x40 MLOAD DUP1 SWAP2 SUB SWAP1 LOG1 POP SWAP1 SWAP5 SWAP4 POP POP POP POP JUMP JUMPDEST PUSH1 0x0 DUP2 DUP2 MSTORE PUSH1 0x2 PUSH1 0x20 MSTORE PUSH1 0x40 DUP2 KECCAK256 SLOAD PUSH1 0xFF AND ISZERO ISZERO PUSH1 0x1 EQ PUSH2 0xA22 JUMPI PUSH1 0x40 MLOAD PUSH3 0x461BCD PUSH1 0xE5 SHL DUP2 MSTORE PUSH1 0x4 ADD PUSH2 0x377 SWAP1 PUSH2 0x1669 JUMP JUMPDEST PUSH1 0x1 SLOAD PUSH1 0x40 MLOAD PUSH4 0xC58343EF PUSH1 0xE0 SHL DUP2 MSTORE PUSH1 0x4 DUP2 ADD DUP5 SWAP1 MSTORE PUSH1 0x0 SWAP2 PUSH1 0x1 PUSH1 0x1 PUSH1 0xA0 SHL SUB AND SWAP1 PUSH4 0xC58343EF SWAP1 PUSH1 0x24 ADD PUSH1 0x0 PUSH1 0x40 MLOAD DUP1 DUP4 SUB DUP2 DUP7 GAS STATICCALL ISZERO DUP1 ISZERO PUSH2 0xA6C JUMPI RETURNDATASIZE PUSH1 0x0 DUP1 RETURNDATACOPY RETURNDATASIZE PUSH1 0x0 REVERT JUMPDEST POP POP POP POP PUSH1 0x40 MLOAD RETURNDATASIZE PUSH1 0x0 DUP3 RETURNDATACOPY PUSH1 0x1F RETURNDATASIZE SWAP1 DUP2 ADD PUSH1 0x1F NOT AND DUP3 ADD PUSH1 0x40 MSTORE PUSH2 0xA94 SWAP2 SWAP1 DUP2 ADD SWAP1 PUSH2 0x18DB JUMP JUMPDEST PUSH2 0x120 DUP2 ADD MLOAD MLOAD SWAP1 SWAP2 POP PUSH1 0x1 PUSH1 0x1 PUSH1 0xA0 SHL SUB AND PUSH2 0xB0D JUMPI PUSH1 0x40 MLOAD PUSH3 0x461BCD PUSH1 0xE5 SHL DUP2 MSTORE PUSH1 0x20 PUSH1 0x4 DUP3 ADD MSTORE PUSH1 0x31 PUSH1 0x24 DUP3 ADD MSTORE PUSH32 0x546865726520617265206E6F207375626D697373696F6E7320666F7220746865 PUSH1 0x44 DUP3 ADD MSTORE PUSH17 0x81C1C9BDD9A591959081C995C5D595CDD PUSH1 0x7A SHL PUSH1 0x64 DUP3 ADD MSTORE PUSH1 0x84 ADD PUSH2 0x377 JUMP JUMPDEST PUSH2 0x120 DUP2 ADD MLOAD MLOAD PUSH1 0x1 PUSH1 0x1 PUSH1 0xA0 SHL SUB AND CALLER EQ PUSH2 0xB77 JUMPI PUSH1 0x40 MLOAD PUSH3 0x461BCD PUSH1 0xE5 SHL DUP2 MSTORE PUSH1 0x20 PUSH1 0x4 DUP3 ADD MSTORE PUSH1 0x23 PUSH1 0x24 DUP3 ADD MSTORE PUSH32 0x54686973207061796D656E7420646F6573206E6F742062656C6F6E6720746F20 PUSH1 0x44 DUP3 ADD MSTORE PUSH3 0x796F75 PUSH1 0xE8 SHL PUSH1 0x64 DUP3 ADD MSTORE PUSH1 0x84 ADD PUSH2 0x377 JUMP JUMPDEST DUP1 PUSH2 0x120 ADD MLOAD PUSH1 0x60 ADD MLOAD ISZERO PUSH2 0xBE2 JUMPI PUSH1 0x40 MLOAD PUSH3 0x461BCD PUSH1 0xE5 SHL DUP2 MSTORE PUSH1 0x20 PUSH1 0x4 DUP3 ADD MSTORE PUSH1 0x2B PUSH1 0x24 DUP3 ADD MSTORE PUSH32 0x5468652070726F766964656420726571756573742068617320616C7265616479 PUSH1 0x44 DUP3 ADD MSTORE PUSH11 0x81CDBDB1A591A599A5959 PUSH1 0xAA SHL PUSH1 0x64 DUP3 ADD MSTORE PUSH1 0x84 ADD PUSH2 0x377 JUMP JUMPDEST TIMESTAMP DUP2 PUSH1 0xC0 ADD MLOAD DUP3 PUSH2 0x120 ADD MLOAD PUSH1 0x20 ADD MLOAD PUSH2 0xBFC SWAP2 SWAP1 PUSH2 0x1A47 JUMP JUMPDEST GT ISZERO PUSH2 0xC54 JUMPI PUSH1 0x40 MLOAD PUSH3 0x461BCD PUSH1 0xE5 SHL DUP2 MSTORE PUSH1 0x20 PUSH1 0x4 DUP3 ADD MSTORE PUSH1 0x21 PUSH1 0x24 DUP3 ADD MSTORE PUSH32 0x54686520636C61696D2064656C6179206861736E277420706173736564207965 PUSH1 0x44 DUP3 ADD MSTORE PUSH1 0x1D PUSH1 0xFA SHL PUSH1 0x64 DUP3 ADD MSTORE PUSH1 0x84 ADD PUSH2 0x377 JUMP JUMPDEST PUSH1 0x1 SLOAD PUSH1 0x40 MLOAD PUSH4 0xC63FDCC7 PUSH1 0xE0 SHL DUP2 MSTORE PUSH1 0x4 DUP2 ADD DUP6 SWAP1 MSTORE PUSH1 0x0 SWAP2 PUSH1 0x1 PUSH1 0x1 PUSH1 0xA0 SHL SUB AND SWAP1 PUSH4 0xC63FDCC7 SWAP1 PUSH1 0x24 ADD PUSH1 0x20 PUSH1 0x40 MLOAD DUP1 DUP4 SUB DUP2 PUSH1 0x0 DUP8 GAS CALL ISZERO DUP1 ISZERO PUSH2 0xCA0 JUMPI RETURNDATASIZE PUSH1 0x0 DUP1 RETURNDATACOPY RETURNDATASIZE PUSH1 0x0 REVERT JUMPDEST POP POP POP POP PUSH1 0x40 MLOAD RETURNDATASIZE PUSH1 0x1F NOT PUSH1 0x1F DUP3 ADD AND DUP3 ADD DUP1 PUSH1 0x40 MSTORE POP DUP2 ADD SWAP1 PUSH2 0xCC4 SWAP2 SWAP1 PUSH2 0x19FA JUMP JUMPDEST PUSH1 0x0 DUP6 DUP2 MSTORE PUSH1 0x2 PUSH1 0x20 MSTORE PUSH1 0x40 DUP1 DUP3 KECCAK256 DUP1 SLOAD PUSH1 0xFF NOT AND SWAP1 SSTORE PUSH2 0x120 DUP6 ADD MLOAD DUP2 ADD MLOAD SWAP1 MLOAD SWAP3 SWAP4 POP SWAP1 SWAP2 PUSH4 0xCB392747 PUSH1 0xE0 SHL SWAP2 PUSH2 0x90B SWAP2 PUSH1 0x24 ADD PUSH2 0x13F7 JUMP JUMPDEST CALLER ADDRESS EQ PUSH2 0xD67 JUMPI PUSH1 0x40 MLOAD PUSH3 0x461BCD PUSH1 0xE5 SHL DUP2 MSTORE PUSH1 0x20 PUSH1 0x4 DUP3 ADD MSTORE PUSH1 0x2F PUSH1 0x24 DUP3 ADD MSTORE PUSH32 0x46756E6374696F6E2061636365737369626C65206F6E6C792062792074686520 PUSH1 0x44 DUP3 ADD MSTORE PUSH15 0x31B7B73A3930B1BA1034BA39B2B633 PUSH1 0x89 SHL PUSH1 0x64 DUP3 ADD MSTORE PUSH1 0x84 ADD PUSH2 0x377 JUMP JUMPDEST PUSH6 0x9184E72A000 SELFBALANCE LT ISZERO PUSH2 0xDB2 JUMPI PUSH1 0x40 MLOAD PUSH3 0x461BCD PUSH1 0xE5 SHL DUP2 MSTORE PUSH1 0x20 PUSH1 0x4 DUP3 ADD MSTORE PUSH1 0x12 PUSH1 0x24 DUP3 ADD MSTORE PUSH18 0x496E73756666696369656E742066756E6473 PUSH1 0x70 SHL PUSH1 0x44 DUP3 ADD MSTORE PUSH1 0x64 ADD PUSH2 0x377 JUMP JUMPDEST PUSH1 0x0 DUP1 PUSH1 0x20 DUP4 MLOAD PUSH2 0xDC3 SWAP2 SWAP1 PUSH2 0x1A70 JUMP JUMPDEST SWAP1 POP PUSH1 0x0 JUMPDEST DUP2 DUP2 LT ISZERO PUSH2 0xE44 JUMPI PUSH1 0x20 DUP2 DUP2 MUL DUP6 ADD ADD MLOAD SWAP3 POP PUSH2 0xDE6 PUSH1 0x1 DUP4 PUSH2 0x1A84 JUMP JUMPDEST DUP2 LT DUP1 PUSH2 0xDF7 JUMPI POP PUSH2 0xDF7 DUP4 PUSH2 0x11CC JUMP JUMPDEST ISZERO PUSH2 0xE32 JUMPI PUSH1 0x3 DUP1 SLOAD PUSH1 0x1 DUP2 ADD DUP3 SSTORE PUSH1 0x0 SWAP2 SWAP1 SWAP2 MSTORE PUSH32 0xC2575A0E9E593C00F959F8C92F12DB2869C3395A3B0502D05E2516446F71F85B ADD DUP4 SWAP1 SSTORE JUMPDEST DUP1 PUSH2 0xE3C DUP2 PUSH2 0x1A97 JUMP JUMPDEST SWAP2 POP POP PUSH2 0xDC8 JUMP JUMPDEST POP PUSH1 0x4 SLOAD PUSH1 0xFF AND ISZERO PUSH2 0xED0 JUMPI PUSH1 0x0 PUSH1 0x40 MLOAD DUP1 PUSH1 0x40 ADD PUSH1 0x40 MSTORE DUP1 PUSH1 0x1 DUP2 MSTORE PUSH1 0x20 ADD PUSH1 0x40 MLOAD DUP1 PUSH1 0x40 ADD PUSH1 0x40 MSTORE DUP1 DUP7 PUSH1 0x1 PUSH2 0xE7C SWAP2 SWAP1 PUSH2 0x1A47 JUMP JUMPDEST DUP2 MSTORE PUSH1 0x5 SLOAD PUSH1 0x20 SWAP2 DUP3 ADD MSTORE PUSH1 0x40 DUP1 MLOAD DUP4 MLOAD DUP2 DUP5 ADD MSTORE SWAP3 SWAP1 SWAP2 ADD MLOAD SWAP1 DUP3 ADD MSTORE PUSH1 0x60 ADD PUSH1 0x40 MLOAD PUSH1 0x20 DUP2 DUP4 SUB SUB DUP2 MSTORE SWAP1 PUSH1 0x40 MSTORE DUP2 MSTORE POP SWAP1 POP PUSH2 0x4FB PUSH6 0x9184E72A000 DUP3 PUSH5 0xE8D4A51000 PUSH6 0xB5E620F48000 PUSH1 0x0 PUSH2 0xED5 JUMP JUMPDEST POP POP POP JUMP JUMPDEST PUSH1 0x0 DUP1 PUSH1 0x64 PUSH1 0x1 PUSH1 0x0 SWAP1 SLOAD SWAP1 PUSH2 0x100 EXP SWAP1 DIV PUSH1 0x1 PUSH1 0x1 PUSH1 0xA0 SHL SUB AND PUSH1 0x1 PUSH1 0x1 PUSH1 0xA0 SHL SUB AND PUSH4 0xDD2BE25B PUSH1 0x40 MLOAD DUP2 PUSH4 0xFFFFFFFF AND PUSH1 0xE0 SHL DUP2 MSTORE PUSH1 0x4 ADD PUSH1 0x20 PUSH1 0x40 MLOAD DUP1 DUP4 SUB DUP2 DUP7 GAS STATICCALL ISZERO DUP1 ISZERO PUSH2 0xF2D JUMPI RETURNDATASIZE PUSH1 0x0 DUP1 RETURNDATACOPY RETURNDATASIZE PUSH1 0x0 REVERT JUMPDEST POP POP POP POP PUSH1 0x40 MLOAD RETURNDATASIZE PUSH1 0x1F NOT PUSH1 0x1F DUP3 ADD AND DUP3 ADD DUP1 PUSH1 0x40 MSTORE POP DUP2 ADD SWAP1 PUSH2 0xF51 SWAP2 SWAP1 PUSH2 0x1AB0 JUMP JUMPDEST PUSH1 0xFF AND PUSH1 0x1 PUSH1 0x0 SWAP1 SLOAD SWAP1 PUSH2 0x100 EXP SWAP1 DIV PUSH1 0x1 PUSH1 0x1 PUSH1 0xA0 SHL SUB AND PUSH1 0x1 PUSH1 0x1 PUSH1 0xA0 SHL SUB AND PUSH4 0x6AF587FA PUSH1 0x40 MLOAD DUP2 PUSH4 0xFFFFFFFF AND PUSH1 0xE0 SHL DUP2 MSTORE PUSH1 0x4 ADD PUSH1 0x20 PUSH1 0x40 MLOAD DUP1 DUP4 SUB DUP2 DUP7 GAS STATICCALL ISZERO DUP1 ISZERO PUSH2 0xFA7 JUMPI RETURNDATASIZE PUSH1 0x0 DUP1 RETURNDATACOPY RETURNDATASIZE PUSH1 0x0 REVERT JUMPDEST POP POP POP POP PUSH1 0x40 MLOAD RETURNDATASIZE PUSH1 0x1F NOT PUSH1 0x1F DUP3 ADD AND DUP3 ADD DUP1 PUSH1 0x40 MSTORE POP DUP2 ADD SWAP1 PUSH2 0xFCB SWAP2 SWAP1 PUSH2 0x1AB0 JUMP JUMPDEST PUSH2 0xFD8 SWAP1 PUSH1 0xFF AND DUP11 PUSH2 0x1AD3 JUMP JUMPDEST PUSH2 0xFE2 SWAP2 SWAP1 PUSH2 0x1AD3 JUMP JUMPDEST PUSH2 0xFEC SWAP2 SWAP1 PUSH2 0x1A70 JUMP JUMPDEST PUSH2 0xFF6 SWAP1 DUP9 PUSH2 0x1A47 JUMP JUMPDEST SWAP1 POP SELFBALANCE DUP2 GT ISZERO PUSH2 0x1070 JUMPI PUSH1 0x40 DUP1 MLOAD PUSH3 0x461BCD PUSH1 0xE5 SHL DUP2 MSTORE PUSH1 0x20 PUSH1 0x4 DUP3 ADD MSTORE PUSH1 0x24 DUP2 ADD SWAP2 SWAP1 SWAP2 MSTORE PUSH32 0x496E73756666696369656E742066756E64733A20796F75206D75737420706179 PUSH1 0x44 DUP3 ADD MSTORE PUSH32 0x20666F7220746865206578656375746F7220616E6420636F6E6669726D657273 PUSH1 0x64 DUP3 ADD MSTORE PUSH1 0x84 ADD PUSH2 0x377 JUMP JUMPDEST PUSH1 0x1 SLOAD PUSH1 0x40 MLOAD PUSH4 0x54002471 PUSH1 0xE1 SHL DUP2 MSTORE PUSH1 0x0 SWAP2 PUSH1 0x1 PUSH1 0x1 PUSH1 0xA0 SHL SUB AND SWAP1 PUSH4 0xA80048E2 SWAP1 DUP5 SWAP1 PUSH2 0x10AB SWAP1 DUP12 SWAP1 DUP14 SWAP1 DUP13 SWAP1 DUP13 SWAP1 DUP13 SWAP1 PUSH1 0x4 ADD PUSH2 0x1AEA JUMP JUMPDEST PUSH1 0x20 PUSH1 0x40 MLOAD DUP1 DUP4 SUB DUP2 DUP6 DUP9 GAS CALL ISZERO DUP1 ISZERO PUSH2 0x10C9 JUMPI RETURNDATASIZE PUSH1 0x0 DUP1 RETURNDATACOPY RETURNDATASIZE PUSH1 0x0 REVERT JUMPDEST POP POP POP POP POP PUSH1 0x40 MLOAD RETURNDATASIZE PUSH1 0x1F NOT PUSH1 0x1F DUP3 ADD AND DUP3 ADD DUP1 PUSH1 0x40 MSTORE POP DUP2 ADD SWAP1 PUSH2 0x10EE SWAP2 SWAP1 PUSH2 0x1B35 JUMP JUMPDEST SWAP1 POP PUSH32 0xD3B0B0209035A5613265E8FB1F38873EA24C7C6189B128EEBE3689C03D13905C DUP2 PUSH1 0x40 MLOAD PUSH2 0x1121 SWAP2 DUP2 MSTORE PUSH1 0x20 ADD SWAP1 JUMP JUMPDEST PUSH1 0x40 MLOAD DUP1 SWAP2 SUB SWAP1 LOG1 PUSH1 0x0 DUP2 DUP2 MSTORE PUSH1 0x2 PUSH1 0x20 MSTORE PUSH1 0x40 SWAP1 KECCAK256 DUP1 SLOAD PUSH1 0xFF NOT AND PUSH1 0x1 OR SWAP1 SSTORE SWAP2 POP POP SWAP6 SWAP5 POP POP POP POP POP JUMP JUMPDEST PUSH1 0x60 PUSH1 0x0 DUP3 DUP1 PUSH1 0x20 ADD SWAP1 MLOAD DUP2 ADD SWAP1 PUSH2 0x1166 SWAP2 SWAP1 PUSH2 0x1B4E JUMP JUMPDEST SWAP1 POP PUSH2 0x117A DUP2 PUSH1 0x0 ADD MLOAD DUP3 PUSH1 0x20 ADD MLOAD PUSH2 0x1247 JUMP JUMPDEST SWAP4 SWAP3 POP POP POP JUMP JUMPDEST PUSH1 0x60 PUSH1 0x0 DUP3 DUP1 PUSH1 0x20 ADD SWAP1 MLOAD DUP2 ADD SWAP1 PUSH2 0x1199 SWAP2 SWAP1 PUSH2 0x1B80 JUMP JUMPDEST SWAP1 POP PUSH2 0x11A8 DUP2 PUSH1 0x0 ADD MLOAD PUSH2 0x11CC JUMP JUMPDEST PUSH1 0x40 DUP1 MLOAD SWAP2 ISZERO ISZERO PUSH1 0x20 DUP4 ADD MSTORE ADD PUSH1 0x40 MLOAD PUSH1 0x20 DUP2 DUP4 SUB SUB DUP2 MSTORE SWAP1 PUSH1 0x40 MSTORE SWAP2 POP POP SWAP2 SWAP1 POP JUMP JUMPDEST PUSH1 0x0 PUSH1 0x2 DUP3 LT DUP1 PUSH2 0x11F0 JUMPI POP PUSH2 0x11E3 PUSH1 0x2 DUP4 PUSH2 0x1BC1 JUMP JUMPDEST ISZERO DUP1 ISZERO PUSH2 0x11F0 JUMPI POP PUSH1 0x2 DUP3 GT JUMPDEST ISZERO PUSH2 0x11FD JUMPI POP PUSH1 0x0 SWAP2 SWAP1 POP JUMP JUMPDEST PUSH1 0x3 JUMPDEST PUSH2 0x120B PUSH1 0x2 DUP5 PUSH2 0x1A70 JUMP JUMPDEST DUP2 LT ISZERO PUSH2 0x123E JUMPI PUSH2 0x121C DUP2 DUP5 PUSH2 0x1BC1 JUMP JUMPDEST PUSH1 0x0 SUB PUSH2 0x122C JUMPI POP PUSH1 0x0 SWAP3 SWAP2 POP POP JUMP JUMPDEST PUSH2 0x1237 PUSH1 0x2 DUP3 PUSH2 0x1A47 JUMP JUMPDEST SWAP1 POP PUSH2 0x1200 JUMP JUMPDEST POP PUSH1 0x1 SWAP3 SWAP2 POP POP JUMP JUMPDEST PUSH1 0x60 PUSH1 0x1 DUP4 OR DUP2 JUMPDEST PUSH2 0x1259 DUP5 DUP7 PUSH2 0x1A47 JUMP JUMPDEST DUP3 LT ISZERO PUSH2 0x12A5 JUMPI PUSH2 0x1269 DUP3 PUSH2 0x11CC JUMP JUMPDEST ISZERO PUSH2 0x1293 JUMPI DUP1 DUP3 PUSH1 0x40 MLOAD PUSH1 0x20 ADD PUSH2 0x1281 SWAP3 SWAP2 SWAP1 PUSH2 0x1BD5 JUMP JUMPDEST PUSH1 0x40 MLOAD PUSH1 0x20 DUP2 DUP4 SUB SUB DUP2 MSTORE SWAP1 PUSH1 0x40 MSTORE SWAP1 POP JUMPDEST PUSH2 0x129E PUSH1 0x2 DUP4 PUSH2 0x1A47 JUMP JUMPDEST SWAP2 POP PUSH2 0x124F JUMP JUMPDEST DUP1 DUP3 PUSH1 0x40 MLOAD PUSH1 0x20 ADD PUSH2 0x12B8 SWAP3 SWAP2 SWAP1 PUSH2 0x1BD5 JUMP JUMPDEST PUSH1 0x40 DUP1 MLOAD DUP1 DUP4 SUB PUSH1 0x1F NOT ADD DUP2 MSTORE SWAP2 SWAP1 MSTORE SWAP6 SWAP5 POP POP POP POP POP JUMP JUMPDEST PUSH1 0x0 PUSH1 0x20 DUP3 DUP5 SUB SLT ISZERO PUSH2 0x12E3 JUMPI PUSH1 0x0 DUP1 REVERT JUMPDEST POP CALLDATALOAD SWAP2 SWAP1 POP JUMP JUMPDEST PUSH1 0x0 PUSH1 0x40 DUP3 DUP5 SUB SLT ISZERO PUSH2 0x12FC JUMPI PUSH1 0x0 DUP1 REVERT JUMPDEST POP SWAP2 SWAP1 POP JUMP JUMPDEST PUSH1 0x0 DUP1 PUSH1 0x0 DUP1 PUSH1 0x0 PUSH1 0xA0 DUP7 DUP9 SUB SLT ISZERO PUSH2 0x131A JUMPI PUSH1 0x0 DUP1 REVERT JUMPDEST DUP6 CALLDATALOAD SWAP5 POP PUSH1 0x20 DUP7 ADD CALLDATALOAD PUSH1 0x1 PUSH1 0x1 PUSH1 0x40 SHL SUB DUP2 GT ISZERO PUSH2 0x1337 JUMPI PUSH1 0x0 DUP1 REVERT JUMPDEST PUSH2 0x1343 DUP9 DUP3 DUP10 ADD PUSH2 0x12EA JUMP JUMPDEST SWAP6 SWAP9 SWAP6 SWAP8 POP POP POP POP PUSH1 0x40 DUP5 ADD CALLDATALOAD SWAP4 PUSH1 0x60 DUP2 ADD CALLDATALOAD SWAP4 PUSH1 0x80 SWAP1 SWAP2 ADD CALLDATALOAD SWAP3 POP SWAP1 POP JUMP JUMPDEST PUSH1 0x20 DUP1 DUP3 MSTORE DUP3 MLOAD DUP3 DUP3 ADD DUP2 SWAP1 MSTORE PUSH1 0x0 SWAP2 SWAP1 DUP5 DUP3 ADD SWAP1 PUSH1 0x40 DUP6 ADD SWAP1 DUP5 JUMPDEST DUP2 DUP2 LT ISZERO PUSH2 0x139B JUMPI DUP4 MLOAD DUP4 MSTORE SWAP3 DUP5 ADD SWAP3 SWAP2 DUP5 ADD SWAP2 PUSH1 0x1 ADD PUSH2 0x137F JUMP JUMPDEST POP SWAP1 SWAP7 SWAP6 POP POP POP POP POP POP JUMP JUMPDEST PUSH1 0x0 JUMPDEST DUP4 DUP2 LT ISZERO PUSH2 0x13C2 JUMPI DUP2 DUP2 ADD MLOAD DUP4 DUP3 ADD MSTORE PUSH1 0x20 ADD PUSH2 0x13AA JUMP JUMPDEST POP POP PUSH1 0x0 SWAP2 ADD MSTORE JUMP JUMPDEST PUSH1 0x0 DUP2 MLOAD DUP1 DUP5 MSTORE PUSH2 0x13E3 DUP2 PUSH1 0x20 DUP7 ADD PUSH1 0x20 DUP7 ADD PUSH2 0x13A7 JUMP JUMPDEST PUSH1 0x1F ADD PUSH1 0x1F NOT AND SWAP3 SWAP1 SWAP3 ADD PUSH1 0x20 ADD SWAP3 SWAP2 POP POP JUMP JUMPDEST PUSH1 0x20 DUP2 MSTORE PUSH1 0x0 PUSH2 0x117A PUSH1 0x20 DUP4 ADD DUP5 PUSH2 0x13CB JUMP JUMPDEST PUSH1 0x0 PUSH1 0x20 DUP3 DUP5 SUB SLT ISZERO PUSH2 0x141C JUMPI PUSH1 0x0 DUP1 REVERT JUMPDEST DUP2 CALLDATALOAD PUSH1 0x1 PUSH1 0x1 PUSH1 0x40 SHL SUB DUP2 GT ISZERO PUSH2 0x1432 JUMPI PUSH1 0x0 DUP1 REVERT JUMPDEST PUSH2 0x143E DUP5 DUP3 DUP6 ADD PUSH2 0x12EA JUMP JUMPDEST SWAP5 SWAP4 POP POP POP POP JUMP JUMPDEST PUSH4 0x4E487B71 PUSH1 0xE0 SHL PUSH1 0x0 MSTORE PUSH1 0x41 PUSH1 0x4 MSTORE PUSH1 0x24 PUSH1 0x0 REVERT JUMPDEST PUSH1 0x40 DUP1 MLOAD SWAP1 DUP2 ADD PUSH1 0x1 PUSH1 0x1 PUSH1 0x40 SHL SUB DUP2 GT DUP3 DUP3 LT OR ISZERO PUSH2 0x147E JUMPI PUSH2 0x147E PUSH2 0x1446 JUMP JUMPDEST PUSH1 0x40 MSTORE SWAP1 JUMP JUMPDEST PUSH1 0x40 MLOAD PUSH2 0x160 DUP2 ADD PUSH1 0x1 PUSH1 0x1 PUSH1 0x40 SHL SUB DUP2 GT DUP3 DUP3 LT OR ISZERO PUSH2 0x147E JUMPI PUSH2 0x147E PUSH2 0x1446 JUMP JUMPDEST PUSH1 0x40 MLOAD PUSH1 0x1F DUP3 ADD PUSH1 0x1F NOT AND DUP2 ADD PUSH1 0x1 PUSH1 0x1 PUSH1 0x40 SHL SUB DUP2 GT DUP3 DUP3 LT OR ISZERO PUSH2 0x14CF JUMPI PUSH2 0x14CF PUSH2 0x1446 JUMP JUMPDEST PUSH1 0x40 MSTORE SWAP2 SWAP1 POP JUMP JUMPDEST PUSH1 0x0 PUSH1 0x1 PUSH1 0x1 PUSH1 0x40 SHL SUB DUP3 GT ISZERO PUSH2 0x14F0 JUMPI PUSH2 0x14F0 PUSH2 0x1446 JUMP JUMPDEST POP PUSH1 0x1F ADD PUSH1 0x1F NOT AND PUSH1 0x20 ADD SWAP1 JUMP JUMPDEST PUSH1 0x0 DUP3 PUSH1 0x1F DUP4 ADD SLT PUSH2 0x150F JUMPI PUSH1 0x0 DUP1 REVERT JUMPDEST DUP2 CALLDATALOAD PUSH2 0x1522 PUSH2 0x151D DUP3 PUSH2 0x14D7 JUMP JUMPDEST PUSH2 0x14A7 JUMP JUMPDEST DUP2 DUP2 MSTORE DUP5 PUSH1 0x20 DUP4 DUP7 ADD ADD GT ISZERO PUSH2 0x1537 JUMPI PUSH1 0x0 DUP1 REVERT JUMPDEST DUP2 PUSH1 0x20 DUP6 ADD PUSH1 0x20 DUP4 ADD CALLDATACOPY PUSH1 0x0 SWAP2 DUP2 ADD PUSH1 0x20 ADD SWAP2 SWAP1 SWAP2 MSTORE SWAP4 SWAP3 POP POP POP JUMP JUMPDEST PUSH1 0x0 PUSH1 0x20 DUP3 DUP5 SUB SLT ISZERO PUSH2 0x1566 JUMPI PUSH1 0x0 DUP1 REVERT JUMPDEST DUP2 CALLDATALOAD PUSH1 0x1 PUSH1 0x1 PUSH1 0x40 SHL SUB DUP2 GT ISZERO PUSH2 0x157C JUMPI PUSH1 0x0 DUP1 REVERT JUMPDEST PUSH2 0x143E DUP5 DUP3 DUP6 ADD PUSH2 0x14FE JUMP JUMPDEST PUSH1 0x20 DUP1 DUP3 MSTORE PUSH1 0x25 SWAP1 DUP3 ADD MSTORE PUSH32 0x46756E6374696F6E2061636365737369626C65206F6E6C792062792074686520 PUSH1 0x40 DUP3 ADD MSTORE PUSH5 0x37BBB732B9 PUSH1 0xD9 SHL PUSH1 0x60 DUP3 ADD MSTORE PUSH1 0x80 ADD SWAP1 JUMP JUMPDEST PUSH1 0x0 PUSH1 0x40 DUP3 CALLDATASIZE SUB SLT ISZERO PUSH2 0x15DF JUMPI PUSH1 0x0 DUP1 REVERT JUMPDEST PUSH2 0x15E7 PUSH2 0x145C JUMP JUMPDEST DUP3 CALLDATALOAD DUP2 MSTORE PUSH1 0x20 DUP4 ADD CALLDATALOAD PUSH1 0x1 PUSH1 0x1 PUSH1 0x40 SHL SUB DUP2 GT ISZERO PUSH2 0x1604 JUMPI PUSH1 0x0 DUP1 REVERT JUMPDEST PUSH2 0x1610 CALLDATASIZE DUP3 DUP7 ADD PUSH2 0x14FE JUMP JUMPDEST PUSH1 0x20 DUP4 ADD MSTORE POP SWAP3 SWAP2 POP POP JUMP JUMPDEST PUSH1 0x0 DUP1 DUP4 CALLDATALOAD PUSH1 0x1E NOT DUP5 CALLDATASIZE SUB ADD DUP2 SLT PUSH2 0x1633 JUMPI PUSH1 0x0 DUP1 REVERT JUMPDEST DUP4 ADD DUP1 CALLDATALOAD SWAP2 POP PUSH1 0x1 PUSH1 0x1 PUSH1 0x40 SHL SUB DUP3 GT ISZERO PUSH2 0x164D JUMPI PUSH1 0x0 DUP1 REVERT JUMPDEST PUSH1 0x20 ADD SWAP2 POP CALLDATASIZE DUP2 SWAP1 SUB DUP3 SGT ISZERO PUSH2 0x1662 JUMPI PUSH1 0x0 DUP1 REVERT JUMPDEST SWAP3 POP SWAP3 SWAP1 POP JUMP JUMPDEST PUSH1 0x20 DUP1 DUP3 MSTORE PUSH1 0x3F SWAP1 DUP3 ADD MSTORE PUSH32 0x5468697320494420646F6573206E6F742062656C6F6E6720746F20616E206163 PUSH1 0x40 DUP3 ADD MSTORE PUSH32 0x7469766520726571756573742077697468696E207468697320636C69656E7400 PUSH1 0x60 DUP3 ADD MSTORE PUSH1 0x80 ADD SWAP1 JUMP JUMPDEST PUSH1 0x0 DUP3 PUSH1 0x1F DUP4 ADD SLT PUSH2 0x16D7 JUMPI PUSH1 0x0 DUP1 REVERT JUMPDEST DUP2 MLOAD PUSH2 0x16E5 PUSH2 0x151D DUP3 PUSH2 0x14D7 JUMP JUMPDEST DUP2 DUP2 MSTORE DUP5 PUSH1 0x20 DUP4 DUP7 ADD ADD GT ISZERO PUSH2 0x16FA JUMPI PUSH1 0x0 DUP1 REVERT JUMPDEST PUSH2 0x143E DUP3 PUSH1 0x20 DUP4 ADD PUSH1 0x20 DUP8 ADD PUSH2 0x13A7 JUMP JUMPDEST PUSH1 0x0 PUSH1 0x40 DUP3 DUP5 SUB SLT ISZERO PUSH2 0x171D JUMPI PUSH1 0x0 DUP1 REVERT JUMPDEST PUSH2 0x1725 PUSH2 0x145C JUMP JUMPDEST SWAP1 POP DUP2 MLOAD DUP2 MSTORE PUSH1 0x20 DUP3 ADD MLOAD PUSH1 0x1 PUSH1 0x1 PUSH1 0x40 SHL SUB DUP2 GT ISZERO PUSH2 0x1744 JUMPI PUSH1 0x0 DUP1 REVERT JUMPDEST PUSH2 0x1610 DUP5 DUP3 DUP6 ADD PUSH2 0x16C6 JUMP JUMPDEST PUSH1 0x1 PUSH1 0x1 PUSH1 0xA0 SHL SUB DUP2 AND DUP2 EQ PUSH2 0x1765 JUMPI PUSH1 0x0 DUP1 REVERT JUMPDEST POP JUMP JUMPDEST PUSH1 0x0 DUP3 PUSH1 0x1F DUP4 ADD SLT PUSH2 0x1779 JUMPI PUSH1 0x0 DUP1 REVERT JUMPDEST DUP2 MLOAD PUSH1 0x20 PUSH1 0x1 PUSH1 0x1 PUSH1 0x40 SHL SUB DUP3 GT ISZERO PUSH2 0x1794 JUMPI PUSH2 0x1794 PUSH2 0x1446 JUMP JUMPDEST DUP2 PUSH1 0x5 SHL PUSH2 0x17A3 DUP3 DUP3 ADD PUSH2 0x14A7 JUMP JUMPDEST SWAP3 DUP4 MSTORE DUP5 DUP2 ADD DUP3 ADD SWAP3 DUP3 DUP2 ADD SWAP1 DUP8 DUP6 GT ISZERO PUSH2 0x17BD JUMPI PUSH1 0x0 DUP1 REVERT JUMPDEST DUP4 DUP8 ADD SWAP3 POP JUMPDEST DUP5 DUP4 LT ISZERO PUSH2 0x17E5 JUMPI DUP3 MLOAD PUSH2 0x17D6 DUP2 PUSH2 0x1750 JUMP JUMPDEST DUP3 MSTORE SWAP2 DUP4 ADD SWAP2 SWAP1 DUP4 ADD SWAP1 PUSH2 0x17C3 JUMP JUMPDEST SWAP8 SWAP7 POP POP POP POP POP POP POP JUMP JUMPDEST DUP1 MLOAD PUSH2 0x3D1 DUP2 PUSH2 0x1750 JUMP JUMPDEST PUSH1 0x0 PUSH1 0x40 DUP3 DUP5 SUB SLT ISZERO PUSH2 0x180D JUMPI PUSH1 0x0 DUP1 REVERT JUMPDEST PUSH2 0x1815 PUSH2 0x145C JUMP JUMPDEST SWAP1 POP DUP2 MLOAD PUSH2 0x1822 DUP2 PUSH2 0x1750 JUMP JUMPDEST DUP1 DUP3 MSTORE POP PUSH1 0x20 DUP3 ADD MLOAD PUSH1 0x20 DUP3 ADD MSTORE SWAP3 SWAP2 POP POP JUMP JUMPDEST DUP1 MLOAD DUP1 ISZERO ISZERO DUP2 EQ PUSH2 0x3D1 JUMPI PUSH1 0x0 DUP1 REVERT JUMPDEST PUSH1 0x0 PUSH1 0x80 DUP3 DUP5 SUB SLT ISZERO PUSH2 0x1858 JUMPI PUSH1 0x0 DUP1 REVERT JUMPDEST PUSH1 0x40 MLOAD PUSH1 0x80 DUP2 ADD PUSH1 0x1 PUSH1 0x1 PUSH1 0x40 SHL SUB DUP3 DUP3 LT DUP2 DUP4 GT OR ISZERO PUSH2 0x187B JUMPI PUSH2 0x187B PUSH2 0x1446 JUMP JUMPDEST DUP2 PUSH1 0x40 MSTORE DUP3 SWAP4 POP DUP5 MLOAD SWAP2 POP PUSH2 0x188F DUP3 PUSH2 0x1750 JUMP JUMPDEST DUP2 DUP4 MSTORE PUSH1 0x20 DUP6 ADD MLOAD PUSH1 0x20 DUP5 ADD MSTORE PUSH1 0x40 DUP6 ADD MLOAD SWAP2 POP DUP1 DUP3 GT ISZERO PUSH2 0x18B0 JUMPI PUSH1 0x0 DUP1 REVERT JUMPDEST POP PUSH2 0x18BD DUP6 DUP3 DUP7 ADD PUSH2 0x16C6 JUMP JUMPDEST PUSH1 0x40 DUP4 ADD MSTORE POP PUSH2 0x18CF PUSH1 0x60 DUP5 ADD PUSH2 0x1836 JUMP JUMPDEST PUSH1 0x60 DUP3 ADD MSTORE POP SWAP3 SWAP2 POP POP JUMP JUMPDEST PUSH1 0x0 PUSH1 0x20 DUP3 DUP5 SUB SLT ISZERO PUSH2 0x18ED JUMPI PUSH1 0x0 DUP1 REVERT JUMPDEST DUP2 MLOAD PUSH1 0x1 PUSH1 0x1 PUSH1 0x40 SHL SUB DUP1 DUP3 GT ISZERO PUSH2 0x1904 JUMPI PUSH1 0x0 DUP1 REVERT JUMPDEST SWAP1 DUP4 ADD SWAP1 PUSH2 0x180 DUP3 DUP7 SUB SLT ISZERO PUSH2 0x1919 JUMPI PUSH1 0x0 DUP1 REVERT JUMPDEST PUSH2 0x1921 PUSH2 0x1484 JUMP JUMPDEST DUP3 MLOAD DUP2 MSTORE PUSH1 0x20 DUP4 ADD MLOAD DUP3 DUP2 GT ISZERO PUSH2 0x1937 JUMPI PUSH1 0x0 DUP1 REVERT JUMPDEST PUSH2 0x1943 DUP8 DUP3 DUP7 ADD PUSH2 0x170B JUMP JUMPDEST PUSH1 0x20 DUP4 ADD MSTORE POP PUSH1 0x40 DUP4 ADD MLOAD PUSH1 0x40 DUP3 ADD MSTORE PUSH1 0x60 DUP4 ADD MLOAD DUP3 DUP2 GT ISZERO PUSH2 0x1965 JUMPI PUSH1 0x0 DUP1 REVERT JUMPDEST PUSH2 0x1971 DUP8 DUP3 DUP7 ADD PUSH2 0x1768 JUMP JUMPDEST PUSH1 0x60 DUP4 ADD MSTORE POP PUSH1 0x80 DUP4 ADD MLOAD PUSH1 0x80 DUP3 ADD MSTORE PUSH1 0xA0 DUP4 ADD MLOAD PUSH1 0xA0 DUP3 ADD MSTORE PUSH1 0xC0 DUP4 ADD MLOAD PUSH1 0xC0 DUP3 ADD MSTORE PUSH2 0x19A1 PUSH1 0xE0 DUP5 ADD PUSH2 0x17F0 JUMP JUMPDEST PUSH1 0xE0 DUP3 ADD MSTORE PUSH2 0x100 PUSH2 0x19B5 DUP8 DUP3 DUP7 ADD PUSH2 0x17FB JUMP JUMPDEST SWAP1 DUP3 ADD MSTORE PUSH2 0x140 DUP4 DUP2 ADD MLOAD DUP4 DUP2 GT ISZERO PUSH2 0x19CD JUMPI PUSH1 0x0 DUP1 REVERT JUMPDEST PUSH2 0x19D9 DUP9 DUP3 DUP8 ADD PUSH2 0x1846 JUMP JUMPDEST PUSH2 0x120 DUP5 ADD MSTORE POP PUSH2 0x19ED PUSH2 0x160 DUP6 ADD PUSH2 0x1836 JUMP JUMPDEST SWAP1 DUP3 ADD MSTORE SWAP6 SWAP5 POP POP POP POP POP JUMP JUMPDEST PUSH1 0x0 PUSH1 0x20 DUP3 DUP5 SUB SLT ISZERO PUSH2 0x1A0C JUMPI PUSH1 0x0 DUP1 REVERT JUMPDEST PUSH2 0x117A DUP3 PUSH2 0x1836 JUMP JUMPDEST PUSH1 0x0 DUP3 MLOAD PUSH2 0x1A27 DUP2 DUP5 PUSH1 0x20 DUP8 ADD PUSH2 0x13A7 JUMP JUMPDEST SWAP2 SWAP1 SWAP2 ADD SWAP3 SWAP2 POP POP JUMP JUMPDEST PUSH4 0x4E487B71 PUSH1 0xE0 SHL PUSH1 0x0 MSTORE PUSH1 0x11 PUSH1 0x4 MSTORE PUSH1 0x24 PUSH1 0x0 REVERT JUMPDEST DUP1 DUP3 ADD DUP1 DUP3 GT ISZERO PUSH2 0x6D9 JUMPI PUSH2 0x6D9 PUSH2 0x1A31 JUMP JUMPDEST PUSH4 0x4E487B71 PUSH1 0xE0 SHL PUSH1 0x0 MSTORE PUSH1 0x12 PUSH1 0x4 MSTORE PUSH1 0x24 PUSH1 0x0 REVERT JUMPDEST PUSH1 0x0 DUP3 PUSH2 0x1A7F JUMPI PUSH2 0x1A7F PUSH2 0x1A5A JUMP JUMPDEST POP DIV SWAP1 JUMP JUMPDEST DUP2 DUP2 SUB DUP2 DUP2 GT ISZERO PUSH2 0x6D9 JUMPI PUSH2 0x6D9 PUSH2 0x1A31 JUMP JUMPDEST PUSH1 0x0 PUSH1 0x1 DUP3 ADD PUSH2 0x1AA9 JUMPI PUSH2 0x1AA9 PUSH2 0x1A31 JUMP JUMPDEST POP PUSH1 0x1 ADD SWAP1 JUMP JUMPDEST PUSH1 0x0 PUSH1 0x20 DUP3 DUP5 SUB SLT ISZERO PUSH2 0x1AC2 JUMPI PUSH1 0x0 DUP1 REVERT JUMPDEST DUP2 MLOAD PUSH1 0xFF DUP2 AND DUP2 EQ PUSH2 0x117A JUMPI PUSH1 0x0 DUP1 REVERT JUMPDEST DUP1 DUP3 MUL DUP2 ISZERO DUP3 DUP3 DIV DUP5 EQ OR PUSH2 0x6D9 JUMPI PUSH2 0x6D9 PUSH2 0x1A31 JUMP JUMPDEST PUSH1 0xA0 DUP2 MSTORE DUP6 MLOAD PUSH1 0xA0 DUP3 ADD MSTORE PUSH1 0x0 PUSH1 0x20 DUP8 ADD MLOAD PUSH1 0x40 PUSH1 0xC0 DUP5 ADD MSTORE PUSH2 0x1B10 PUSH1 0xE0 DUP5 ADD DUP3 PUSH2 0x13CB JUMP JUMPDEST SWAP2 POP POP DUP6 PUSH1 0x20 DUP4 ADD MSTORE DUP5 PUSH1 0x40 DUP4 ADD MSTORE DUP4 PUSH1 0x60 DUP4 ADD MSTORE DUP3 PUSH1 0x80 DUP4 ADD MSTORE SWAP7 SWAP6 POP POP POP POP POP POP JUMP JUMPDEST PUSH1 0x0 PUSH1 0x20 DUP3 DUP5 SUB SLT ISZERO PUSH2 0x1B47 JUMPI PUSH1 0x0 DUP1 REVERT JUMPDEST POP MLOAD SWAP2 SWAP1 POP JUMP JUMPDEST PUSH1 0x0 PUSH1 0x40 DUP3 DUP5 SUB SLT ISZERO PUSH2 0x1B60 JUMPI PUSH1 0x0 DUP1 REVERT JUMPDEST PUSH2 0x1B68 PUSH2 0x145C JUMP JUMPDEST DUP3 MLOAD DUP2 MSTORE PUSH1 0x20 DUP4 ADD MLOAD PUSH1 0x20 DUP3 ADD MSTORE DUP1 SWAP2 POP POP SWAP3 SWAP2 POP POP JUMP JUMPDEST PUSH1 0x0 PUSH1 0x20 DUP3 DUP5 SUB SLT ISZERO PUSH2 0x1B92 JUMPI PUSH1 0x0 DUP1 REVERT JUMPDEST PUSH1 0x40 MLOAD PUSH1 0x20 DUP2 ADD DUP2 DUP2 LT PUSH1 0x1 PUSH1 0x1 PUSH1 0x40 SHL SUB DUP3 GT OR ISZERO PUSH2 0x1BB4 JUMPI PUSH2 0x1BB4 PUSH2 0x1446 JUMP JUMPDEST PUSH1 0x40 MSTORE SWAP2 MLOAD DUP3 MSTORE POP SWAP2 SWAP1 POP JUMP JUMPDEST PUSH1 0x0 DUP3 PUSH2 0x1BD0 JUMPI PUSH2 0x1BD0 PUSH2 0x1A5A JUMP JUMPDEST POP MOD SWAP1 JUMP JUMPDEST PUSH1 0x0 DUP4 MLOAD PUSH2 0x1BE7 DUP2 DUP5 PUSH1 0x20 DUP9 ADD PUSH2 0x13A7 JUMP JUMPDEST SWAP2 SWAP1 SWAP2 ADD SWAP2 DUP3 MSTORE POP PUSH1 0x20 ADD SWAP2 SWAP1 POP JUMP INVALID PUSH28 0x75696E74323536207374617274506F696E743B2075696E7432353620 PUSH3 0x617463 PUSH9 0x53697A653B7DA26469 PUSH17 0x667358221220EA73CEE7A3BDFFB800C708 BASEFEE CALLDATACOPY 0xF9 0xBA CALLVALUE JUMP 0x4A SWAP3 0x5F 0x27 DUP3 PUSH11 0xFFD1B8D56576ED7A196473 PUSH16 0x6C634300081300330000000000000000 ",
  "sha1": "a62320d00ed322f39f3084bee5f47cb6c9ff3f0f",
  "source": "// SPDX-License-Identifier: GPL-3.0\n\npragma solidity >=0.7.0 <0.9.0;\n\nimport \"./BaseClient.sol\";\n\n\ncontract PrimeFinder is BaseClient {\n\n    uint[] public PRIMES;\n    bool public postProcessingEnabled = false;\n    uint public batchSize = 1000;\n\n    event automaticRequestCreationFailed();\n\n    constructor(address brokerAddress) BaseClient(brokerAddress) {\n        PRIMES.push(2);\n    }\n\n    function getPrimes() public view returns (uint[] memory) {\n        return PRIMES;\n    }\n\n    function getPrimesLength() public view returns (uint) {\n        return PRIMES.length;\n    }\n\n    function clientLogic(ClientInput calldata input) external override pure returns (bytes memory) {\n        bytes memory output = \"\";\n        if (input.functionToRun == 1) { output = getPrime(input.data); }\n        else if (input.functionToRun == 2) {output = isPrime(input.data); }\n        return output;\n    }\n\n    struct OneInput {uint256 startPoint; uint256 batchSize;}\n    function getPrime(bytes memory data) private pure returns (bytes memory) {\n        OneInput memory input = abi.decode(data, (OneInput));\n        return _getPrime(input.startPoint, input.batchSize);\n    }\n    function _getPrime(uint256 _startPoint, uint256 _batchSize) private pure returns (bytes memory) {\n        uint256 i;\n        bytes memory result;\n        for (i = _startPoint | 1; i < _startPoint + _batchSize; i += 2) {\n            if (_isPrime(i)) {\n                result = abi.encodePacked(result, i);\n            }\n        }\n        result = abi.encodePacked(result, i);  // Always add the last one so that post processing can know where to continue if there are no other numbers\n        return result;\n    }\n\n    struct TwoInput {uint256 number;}\n    function isPrime(bytes memory data) private pure returns (bytes memory) {\n        TwoInput memory input = abi.decode(data, (TwoInput));\n        return abi.encode(_isPrime(input.number));\n    }\n    function _isPrime(uint256 _number) private pure returns (bool) {\n        if (_number < 2 || (_number % 2 == 0 && _number > 2)) {\n            return false;\n        }\n        for (uint i = 3; i < _number/2; i += 2) {\n            if (_number % i == 0) {\n                return false;\n            }\n        }\n        return true;\n    }\n\n    function getInputStructure(uint functionID) external override pure returns (string memory) {\n        if (functionID == 1) { return \"{uint256 startPoint; uint256 batchSize;}\"; }\n        else if (functionID == 2) { return \"{uint256 number;}\"; }\n        else { revert(\"Invalid function ID\"); }\n    }\n\n    function processResult(bytes memory result) public override onlyClient {\n        require(address(this).balance >= 10000 gwei, \"Insufficient funds\");\n        uint256 value;\n        uint length = result.length / 32;\n        for (uint i = 0; i < length; i++) {\n            assembly {\n                value := mload(add(result, add(32, mul(i, 32))))\n            }\n            if (i < length - 1 || _isPrime(value)) {\n                PRIMES.push(value);\n            }\n        }\n        if (postProcessingEnabled) {\n            ClientInput memory input = ClientInput({\n                functionToRun: 1,\n                data: abi.encode(OneInput({startPoint: value + 1, batchSize: batchSize}))\n            });\n            _submitRequest(10000 gwei, input, 1000 gwei, 200000 gwei, 0 seconds);\n        }\n    }\n\n    function togglePostProcessing() external onlyOwner returns (bool) {\n        postProcessingEnabled = postProcessingEnabled ? false : true;\n        return postProcessingEnabled;\n    }\n}",
  "sourcePath": "contracts/PrimeFinder.sol",
  "type": "contract"
}