{
  "abi": [
    {
      "inputs": [
        {
          "internalType": "address",
          "name": "brokerAddress",
          "type": "address"
        }
      ],
      "stateMutability": "nonpayable",
      "type": "constructor"
    },
    {
      "anonymous": false,
      "inputs": [
        {
          "indexed": false,
          "internalType": "uint256",
          "name": "requestID",
          "type": "uint256"
        }
      ],
      "name": "requestSubmitted",
      "type": "event"
    },
    {
      "anonymous": false,
      "inputs": [
        {
          "indexed": false,
          "internalType": "uint256",
          "name": "requestID",
          "type": "uint256"
        },
        {
          "indexed": false,
          "internalType": "bool",
          "name": "success",
          "type": "bool"
        }
      ],
      "name": "resultPostProcessed",
      "type": "event"
    },
    {
      "inputs": [
        {
          "internalType": "uint256",
          "name": "",
          "type": "uint256"
        }
      ],
      "name": "PRIMES",
      "outputs": [
        {
          "internalType": "uint256",
          "name": "",
          "type": "uint256"
        }
      ],
      "stateMutability": "view",
      "type": "function"
    },
    {
      "inputs": [],
      "name": "brokerContract",
      "outputs": [
        {
          "internalType": "contract ExecutionBroker",
          "name": "",
          "type": "address"
        }
      ],
      "stateMutability": "view",
      "type": "function"
    },
    {
      "inputs": [
        {
          "internalType": "uint256",
          "name": "requestID",
          "type": "uint256"
        }
      ],
      "name": "cancelRequest",
      "outputs": [],
      "stateMutability": "nonpayable",
      "type": "function"
    },
    {
      "inputs": [
        {
          "internalType": "uint256",
          "name": "requestID",
          "type": "uint256"
        }
      ],
      "name": "challengeSubmission",
      "outputs": [
        {
          "internalType": "bool",
          "name": "",
          "type": "bool"
        }
      ],
      "stateMutability": "nonpayable",
      "type": "function"
    },
    {
      "inputs": [
        {
          "internalType": "uint256",
          "name": "requestID",
          "type": "uint256"
        }
      ],
      "name": "claimPayment",
      "outputs": [
        {
          "internalType": "bool",
          "name": "",
          "type": "bool"
        }
      ],
      "stateMutability": "nonpayable",
      "type": "function"
    },
    {
      "inputs": [
        {
          "components": [
            {
              "internalType": "uint256",
              "name": "functionToRun",
              "type": "uint256"
            },
            {
              "internalType": "bytes",
              "name": "data",
              "type": "bytes"
            }
          ],
          "internalType": "struct BaseClient.ClientInput",
          "name": "input",
          "type": "tuple"
        }
      ],
      "name": "clientLogic",
      "outputs": [
        {
          "internalType": "bytes",
          "name": "",
          "type": "bytes"
        }
      ],
      "stateMutability": "pure",
      "type": "function"
    },
    {
      "inputs": [
        {
          "internalType": "uint256",
          "name": "functionID",
          "type": "uint256"
        }
      ],
      "name": "getInputStructure",
      "outputs": [
        {
          "internalType": "string",
          "name": "",
          "type": "string"
        }
      ],
      "stateMutability": "pure",
      "type": "function"
    },
    {
      "inputs": [],
      "name": "getPrimes",
      "outputs": [
        {
          "internalType": "uint256[]",
          "name": "",
          "type": "uint256[]"
        }
      ],
      "stateMutability": "view",
      "type": "function"
    },
    {
      "inputs": [],
      "name": "getPrimesLength",
      "outputs": [
        {
          "internalType": "uint256",
          "name": "",
          "type": "uint256"
        }
      ],
      "stateMutability": "view",
      "type": "function"
    },
    {
      "inputs": [],
      "name": "isOwner",
      "outputs": [
        {
          "internalType": "bool",
          "name": "",
          "type": "bool"
        }
      ],
      "stateMutability": "view",
      "type": "function"
    },
    {
      "inputs": [],
      "name": "owner",
      "outputs": [
        {
          "internalType": "address",
          "name": "",
          "type": "address"
        }
      ],
      "stateMutability": "view",
      "type": "function"
    },
    {
      "inputs": [
        {
          "internalType": "bytes",
          "name": "result",
          "type": "bytes"
        }
      ],
      "name": "processResult",
      "outputs": [],
      "stateMutability": "nonpayable",
      "type": "function"
    },
    {
      "inputs": [],
      "name": "sendFunds",
      "outputs": [],
      "stateMutability": "payable",
      "type": "function"
    },
    {
      "inputs": [
        {
          "internalType": "uint256",
          "name": "payment",
          "type": "uint256"
        },
        {
          "components": [
            {
              "internalType": "uint256",
              "name": "functionToRun",
              "type": "uint256"
            },
            {
              "internalType": "bytes",
              "name": "data",
              "type": "bytes"
            }
          ],
          "internalType": "struct BaseClient.ClientInput",
          "name": "input",
          "type": "tuple"
        },
        {
          "internalType": "uint256",
          "name": "postProcessingGas",
          "type": "uint256"
        },
        {
          "internalType": "uint256",
          "name": "requestedInsurance",
          "type": "uint256"
        },
        {
          "internalType": "uint256",
          "name": "claimDelay",
          "type": "uint256"
        }
      ],
      "name": "submitRequest",
      "outputs": [
        {
          "internalType": "uint256",
          "name": "",
          "type": "uint256"
        }
      ],
      "stateMutability": "payable",
      "type": "function"
    },
    {
      "inputs": [
        {
          "internalType": "uint256",
          "name": "value",
          "type": "uint256"
        }
      ],
      "name": "withdrawFunds",
      "outputs": [
        {
          "internalType": "bool",
          "name": "",
          "type": "bool"
        }
      ],
      "stateMutability": "nonpayable",
      "type": "function"
    }
  ],
  "bytecode": "608060405234801561001057600080fd5b5060405161196638038061196683398101604081905261002f91610093565b600080546001600160a01b031990811633178255600180546001600160a01b0390941693909116929092178255600380549283018155905260027fc2575a0e9e593c00f959f8c92f12db2869c3395a3b0502d05e2516446f71f85b909101556100c3565b6000602082840312156100a557600080fd5b81516001600160a01b03811681146100bc57600080fd5b9392505050565b611894806100d26000396000f3fe6080604052600436106100e85760003560e01c80638da5cb5b1161008a578063c2c5624511610059578063c2c5624514610266578063c63fdcc714610286578063cb392747146102a6578063cfb1c373146102c657600080fd5b80638da5cb5b146101d45780638f32d59b14610206578063a9b1dac314610226578063b2c221f21461024657600080fd5b806356147e43116100c657806356147e43146101655780636444f11414610185578063886eb81d146101a75780638d68cf591461016357600080fd5b8063155dd5ee146100ed57806329643021146101225780633015394c14610143575b600080fd5b3480156100f957600080fd5b5061010d61010836600461102b565b6102db565b60405190151581526020015b60405180910390f35b61013561013036600461105c565b610385565b604051908152602001610119565b34801561014f57600080fd5b5061016361015e36600461102b565b6103cf565b005b34801561017157600080fd5b5061013561018036600461102b565b61045a565b34801561019157600080fd5b5061019a61047b565b60405161011991906110bd565b3480156101b357600080fd5b506101c76101c236600461102b565b6104d3565b6040516101199190611151565b3480156101e057600080fd5b506000546001600160a01b03165b6040516001600160a01b039091168152602001610119565b34801561021257600080fd5b506000546001600160a01b0316331461010d565b34801561023257600080fd5b506101c761024136600461116b565b61057b565b34801561025257600080fd5b5061010d61026136600461102b565b610643565b34801561027257600080fd5b506001546101ee906001600160a01b031681565b34801561029257600080fd5b5061010d6102a136600461102b565b610953565b3480156102b257600080fd5b506101636102c13660046111a7565b610bf2565b3480156102d257600080fd5b50600354610135565b600080546001600160a01b0316331461030f5760405162461bcd60e51b815260040161030690611218565b60405180910390fd5b8147101561032f5760405162461bcd60e51b81526004016103069061125d565b6040513390600090829085908381818185875af1925050503d8060008114610373576040519150601f19603f3d011682016040523d82523d6000602084013e610378565b606091505b509093505050505b919050565b600080546001600160a01b031633146103b05760405162461bcd60e51b815260040161030690611218565b6103c5866103bd87611341565b868686610d8a565b9695505050505050565b6000546001600160a01b031633146103f95760405162461bcd60e51b815260040161030690611218565b600154604051630c054e5360e21b8152600481018390526001600160a01b0390911690633015394c90602401600060405180830381600087803b15801561043f57600080fd5b505af1158015610453573d6000803e3d6000fd5b5050505050565b6003818154811061046a57600080fd5b600091825260209091200154905081565b606060038054806020026020016040519081016040528092919081815260200182805480156104c957602002820191906000526020600020905b8154815260200190600101908083116104b5575b5050505050905090565b60608160010361050b5750506040805180820190915260128152717b75696e74207374617274506f696e743b7d60701b602082015290565b8160020361053d57505060408051808201909152600e81526d7b75696e74206e756d6265723b7d60901b602082015290565b60405162461bcd60e51b8152602060048201526013602482015272125b9d985b1a5908199d5b98dd1a5bdb881251606a1b6044820152606401610306565b60408051602081019091526000815260609082356001036105e7576105e06105a660208501856113d2565b8080601f016020809104026020016040519081016040528093929190818152602001838380828437600092019190915250610e8792505050565b905061063d565b823560020361063d5761063a61060060208501856113d2565b8080601f016020809104026020016040519081016040528093929190818152602001838380828437600092019190915250610f4a92505050565b90505b92915050565b60008181526002602052604081205460ff1615156001146106765760405162461bcd60e51b81526004016103069061141f565b60015460405163c58343ef60e01b8152600481018490526000916001600160a01b03169063c58343ef90602401600060405180830381865afa1580156106c0573d6000803e3d6000fd5b505050506040513d6000823e601f3d908101601f191682016040526106e89190810190611615565b610100810151519091506001600160a01b03166107635760405162461bcd60e51b815260206004820152603360248201527f546865726520617265206e6f207375626d697373696f6e7320666f72207468656044820152720818da185b1b195b99d959081c995c5d595cdd606a1b6064820152608401610306565b80610100015160600151156107d35760405162461bcd60e51b815260206004820152603060248201527f546865206368616c6c656e676564207375626d697373696f6e2068617320616c60448201526f1c9958591e481cdbdb1a591a599a595960821b6064820152608401610306565b60015460405163740c981360e11b8152600481018590523360248201526000916001600160a01b03169063e8193026906044016020604051808303816000875af1158015610825573d6000803e3d6000fd5b505050506040513d601f19601f82011682018060405250810190610849919061170f565b9050600063cb39274760e01b8361010001516040015160405160240161086f9190611151565b604051602081830303815290604052906001600160e01b0319166020820180516001600160e01b038381831617835250505050905060008360c001516001600160a01b03168460600151836040516108c7919061172a565b60006040518083038160008787f1925050503d8060008114610905576040519150601f19603f3d011682016040523d82523d6000602084013e61090a565b606091505b50506040805188815282151560208201529192507fa531c8f4bbf2a18049d85528bb5aaae66874af94bcb325738ee729a2b6cf8428910160405180910390a15090949350505050565b60008181526002602052604081205460ff1615156001146109865760405162461bcd60e51b81526004016103069061141f565b60015460405163c58343ef60e01b8152600481018490526000916001600160a01b03169063c58343ef90602401600060405180830381865afa1580156109d0573d6000803e3d6000fd5b505050506040513d6000823e601f3d908101601f191682016040526109f89190810190611615565b610100810151519091506001600160a01b0316610a715760405162461bcd60e51b815260206004820152603160248201527f546865726520617265206e6f207375626d697373696f6e7320666f7220746865604482015270081c1c9bdd9a591959081c995c5d595cdd607a1b6064820152608401610306565b610100810151516001600160a01b03163314610adb5760405162461bcd60e51b815260206004820152602360248201527f54686973207061796d656e7420646f6573206e6f742062656c6f6e6720746f20604482015262796f7560e81b6064820152608401610306565b8061010001516060015115610b465760405162461bcd60e51b815260206004820152602b60248201527f5468652070726f766964656420726571756573742068617320616c726561647960448201526a081cdbdb1a591a599a595960aa1b6064820152608401610306565b60015460405163c63fdcc760e01b8152600481018590526000916001600160a01b03169063c63fdcc7906024016020604051808303816000875af1158015610b92573d6000803e3d6000fd5b505050506040513d601f19601f82011682018060405250810190610bb6919061170f565b600085815260026020526040808220805460ff191690556101008501518101519051929350909163cb39274760e01b9161086f91602401611151565b333014610c595760405162461bcd60e51b815260206004820152602f60248201527f46756e6374696f6e2061636365737369626c65206f6e6c79206279207468652060448201526e31b7b73a3930b1ba1034ba39b2b63360891b6064820152608401610306565b6509184e72a000471015610c7f5760405162461bcd60e51b81526004016103069061125d565b6000610c8d8284018461102b565b905060006040518060400160405280600181526020016040518060200160405280856001610cbb9190611746565b90526040805191516020830152016040516020818303038152906040528152509050610cfc6509184e72a0008264e8d4a5100065b5e620f480006000610d8a565b50610d36604051806020016040528084815250604051602001610d229151815260200190565b604051602081830303815290604052610f4a565b806020019051810190610d49919061170f565b15610d8457600380546001810182556000919091527fc2575a0e9e593c00f959f8c92f12db2869c3395a3b0502d05e2516446f71f85b018290555b50505050565b600047861115610dac5760405162461bcd60e51b81526004016103069061125d565b6001546040516336403e4d60e21b81526000916001600160a01b03169063d900f934908990610de5908a908a908a908a90600401611767565b60206040518083038185885af1158015610e03573d6000803e3d6000fd5b50505050506040513d601f19601f82011682018060405250810190610e2891906117aa565b90507fd3b0b0209035a5613265e8fb1f38873ea24c7c6189b128eebe3689c03d13905c81604051610e5b91815260200190565b60405180910390a16000818152600260205260409020805460ff19166001179055905095945050505050565b6060600080600a9050600084806020019051810190610ea69190611804565b8051600117935090505b8051610ebd908390611746565b831015610f3957610ee9604051806020016040528085815250604051602001610d229151815260200190565b806020019051810190610efc919061170f565b15610f27576040805160208101859052015b6040516020818303038152906040529350505050919050565b610f32600284611746565b9250610eb0565b604080516020810185905201610f0e565b6060600082806020019051810190610f629190611804565b9050600281600001511080610f8e57508051610f8090600290611836565b158015610f8e575080516002105b15610fb7576040805160006020820152015b604051602081830303815290604052915050919050565b60035b8151610fc89060029061184a565b811015611019578151610fdc908290611836565b6000036110075760408051600060208201520160405160208183030381529060405292505050919050565b611012600282611746565b9050610fba565b50604080516001602082015201610fa0565b60006020828403121561103d57600080fd5b5035919050565b60006040828403121561105657600080fd5b50919050565b600080600080600060a0868803121561107457600080fd5b8535945060208601356001600160401b0381111561109157600080fd5b61109d88828901611044565b959895975050505060408401359360608101359360809091013592509050565b6020808252825182820181905260009190848201906040850190845b818110156110f5578351835292840192918401916001016110d9565b50909695505050505050565b60005b8381101561111c578181015183820152602001611104565b50506000910152565b6000815180845261113d816020860160208601611101565b601f01601f19169290920160200192915050565b6020815260006111646020830184611125565b9392505050565b60006020828403121561117d57600080fd5b81356001600160401b0381111561119357600080fd5b61119f84828501611044565b949350505050565b600080602083850312156111ba57600080fd5b82356001600160401b03808211156111d157600080fd5b818501915085601f8301126111e557600080fd5b8135818111156111f457600080fd5b86602082850101111561120657600080fd5b60209290920196919550909350505050565b60208082526025908201527f46756e6374696f6e2061636365737369626c65206f6e6c79206279207468652060408201526437bbb732b960d91b606082015260800190565b602080825260129082015271496e73756666696369656e742066756e647360701b604082015260600190565b634e487b7160e01b600052604160045260246000fd5b604080519081016001600160401b03811182821017156112c1576112c1611289565b60405290565b60405161014081016001600160401b03811182821017156112c1576112c1611289565b604051601f8201601f191681016001600160401b038111828210171561131257611312611289565b604052919050565b60006001600160401b0382111561133357611333611289565b50601f01601f191660200190565b60006040823603121561135357600080fd5b61135b61129f565b823581526020808401356001600160401b0381111561137957600080fd5b840136601f82011261138a57600080fd5b803561139d6113988261131a565b6112ea565b81815236848385010111156113b157600080fd5b81848401858301376000918101840191909152918301919091525092915050565b6000808335601e198436030181126113e957600080fd5b8301803591506001600160401b0382111561140357600080fd5b60200191503681900382131561141857600080fd5b9250929050565b6020808252603f908201527f5468697320494420646f6573206e6f742062656c6f6e6720746f20616e20616360408201527f7469766520726571756573742077697468696e207468697320636c69656e7400606082015260800190565b600082601f83011261148d57600080fd5b815161149b6113988261131a565b8181528460208386010111156114b057600080fd5b61119f826020830160208701611101565b6000604082840312156114d357600080fd5b6114db61129f565b90508151815260208201516001600160401b038111156114fa57600080fd5b6115068482850161147c565b60208301525092915050565b6001600160a01b038116811461152757600080fd5b50565b805161038081611512565b60006040828403121561154757600080fd5b61154f61129f565b9050815161155c81611512565b808252506020820151602082015292915050565b8051801515811461038057600080fd5b60006080828403121561159257600080fd5b604051608081016001600160401b0382821081831117156115b5576115b5611289565b81604052829350845191506115c982611512565b8183526020850151602084015260408501519150808211156115ea57600080fd5b506115f78582860161147c565b60408301525061160960608401611570565b60608201525092915050565b60006020828403121561162757600080fd5b81516001600160401b038082111561163e57600080fd5b90830190610160828603121561165357600080fd5b61165b6112c7565b8251815260208301518281111561167157600080fd5b61167d878286016114c1565b60208301525060408301516040820152606083015160608201526080830151608082015260a083015160a08201526116b760c0840161152a565b60c08201526116c98660e08501611535565b60e082015261012080840151838111156116e257600080fd5b6116ee88828701611580565b610100840152506117026101408501611570565b9082015295945050505050565b60006020828403121561172157600080fd5b61116482611570565b6000825161173c818460208701611101565b9190910192915050565b8082018082111561063d57634e487b7160e01b600052601160045260246000fd5b608081528451608082015260006020860151604060a084015261178d60c0840182611125565b602084019690965250506040810192909252606090910152919050565b6000602082840312156117bc57600080fd5b5051919050565b6000602082840312156117d557600080fd5b604051602081018181106001600160401b03821117156117f7576117f7611289565b6040529151825250919050565b60006020828403121561181657600080fd5b61116483836117c3565b634e487b7160e01b600052601260045260246000fd5b60008261184557611845611820565b500690565b60008261185957611859611820565b50049056fea2646970667358221220cacabb2d257928898d2479027fdd3daa1ae3fb0a01a7fc07faa5e0f688984ed764736f6c63430008130033",
  "bytecodeSha1": "c66ef72ef9520c226870ab010476e9d59e6bac7c",
  "compiler": {
    "evm_version": "istanbul",
    "optimizer": {
      "enabled": true,
      "runs": 200
    },
    "version": "0.8.19+commit.7dd6d404"
  },
  "contractName": "PrimeFinder",
  "language": "Solidity",
  "natspec": {
    "kind": "dev",
    "methods": {},
    "version": 1
  },
  "opcodes": "PUSH1 0x80 PUSH1 0x40 MSTORE PUSH1 0x4 CALLDATASIZE LT PUSH2 0xE8 JUMPI PUSH1 0x0 CALLDATALOAD PUSH1 0xE0 SHR DUP1 PUSH4 0x8DA5CB5B GT PUSH2 0x8A JUMPI DUP1 PUSH4 0xC2C56245 GT PUSH2 0x59 JUMPI DUP1 PUSH4 0xC2C56245 EQ PUSH2 0x266 JUMPI DUP1 PUSH4 0xC63FDCC7 EQ PUSH2 0x286 JUMPI DUP1 PUSH4 0xCB392747 EQ PUSH2 0x2A6 JUMPI DUP1 PUSH4 0xCFB1C373 EQ PUSH2 0x2C6 JUMPI PUSH1 0x0 DUP1 REVERT JUMPDEST DUP1 PUSH4 0x8DA5CB5B EQ PUSH2 0x1D4 JUMPI DUP1 PUSH4 0x8F32D59B EQ PUSH2 0x206 JUMPI DUP1 PUSH4 0xA9B1DAC3 EQ PUSH2 0x226 JUMPI DUP1 PUSH4 0xB2C221F2 EQ PUSH2 0x246 JUMPI PUSH1 0x0 DUP1 REVERT JUMPDEST DUP1 PUSH4 0x56147E43 GT PUSH2 0xC6 JUMPI DUP1 PUSH4 0x56147E43 EQ PUSH2 0x165 JUMPI DUP1 PUSH4 0x6444F114 EQ PUSH2 0x185 JUMPI DUP1 PUSH4 0x886EB81D EQ PUSH2 0x1A7 JUMPI DUP1 PUSH4 0x8D68CF59 EQ PUSH2 0x163 JUMPI PUSH1 0x0 DUP1 REVERT JUMPDEST DUP1 PUSH4 0x155DD5EE EQ PUSH2 0xED JUMPI DUP1 PUSH4 0x29643021 EQ PUSH2 0x122 JUMPI DUP1 PUSH4 0x3015394C EQ PUSH2 0x143 JUMPI JUMPDEST PUSH1 0x0 DUP1 REVERT JUMPDEST CALLVALUE DUP1 ISZERO PUSH2 0xF9 JUMPI PUSH1 0x0 DUP1 REVERT JUMPDEST POP PUSH2 0x10D PUSH2 0x108 CALLDATASIZE PUSH1 0x4 PUSH2 0x102B JUMP JUMPDEST PUSH2 0x2DB JUMP JUMPDEST PUSH1 0x40 MLOAD SWAP1 ISZERO ISZERO DUP2 MSTORE PUSH1 0x20 ADD JUMPDEST PUSH1 0x40 MLOAD DUP1 SWAP2 SUB SWAP1 RETURN JUMPDEST PUSH2 0x135 PUSH2 0x130 CALLDATASIZE PUSH1 0x4 PUSH2 0x105C JUMP JUMPDEST PUSH2 0x385 JUMP JUMPDEST PUSH1 0x40 MLOAD SWAP1 DUP2 MSTORE PUSH1 0x20 ADD PUSH2 0x119 JUMP JUMPDEST CALLVALUE DUP1 ISZERO PUSH2 0x14F JUMPI PUSH1 0x0 DUP1 REVERT JUMPDEST POP PUSH2 0x163 PUSH2 0x15E CALLDATASIZE PUSH1 0x4 PUSH2 0x102B JUMP JUMPDEST PUSH2 0x3CF JUMP JUMPDEST STOP JUMPDEST CALLVALUE DUP1 ISZERO PUSH2 0x171 JUMPI PUSH1 0x0 DUP1 REVERT JUMPDEST POP PUSH2 0x135 PUSH2 0x180 CALLDATASIZE PUSH1 0x4 PUSH2 0x102B JUMP JUMPDEST PUSH2 0x45A JUMP JUMPDEST CALLVALUE DUP1 ISZERO PUSH2 0x191 JUMPI PUSH1 0x0 DUP1 REVERT JUMPDEST POP PUSH2 0x19A PUSH2 0x47B JUMP JUMPDEST PUSH1 0x40 MLOAD PUSH2 0x119 SWAP2 SWAP1 PUSH2 0x10BD JUMP JUMPDEST CALLVALUE DUP1 ISZERO PUSH2 0x1B3 JUMPI PUSH1 0x0 DUP1 REVERT JUMPDEST POP PUSH2 0x1C7 PUSH2 0x1C2 CALLDATASIZE PUSH1 0x4 PUSH2 0x102B JUMP JUMPDEST PUSH2 0x4D3 JUMP JUMPDEST PUSH1 0x40 MLOAD PUSH2 0x119 SWAP2 SWAP1 PUSH2 0x1151 JUMP JUMPDEST CALLVALUE DUP1 ISZERO PUSH2 0x1E0 JUMPI PUSH1 0x0 DUP1 REVERT JUMPDEST POP PUSH1 0x0 SLOAD PUSH1 0x1 PUSH1 0x1 PUSH1 0xA0 SHL SUB AND JUMPDEST PUSH1 0x40 MLOAD PUSH1 0x1 PUSH1 0x1 PUSH1 0xA0 SHL SUB SWAP1 SWAP2 AND DUP2 MSTORE PUSH1 0x20 ADD PUSH2 0x119 JUMP JUMPDEST CALLVALUE DUP1 ISZERO PUSH2 0x212 JUMPI PUSH1 0x0 DUP1 REVERT JUMPDEST POP PUSH1 0x0 SLOAD PUSH1 0x1 PUSH1 0x1 PUSH1 0xA0 SHL SUB AND CALLER EQ PUSH2 0x10D JUMP JUMPDEST CALLVALUE DUP1 ISZERO PUSH2 0x232 JUMPI PUSH1 0x0 DUP1 REVERT JUMPDEST POP PUSH2 0x1C7 PUSH2 0x241 CALLDATASIZE PUSH1 0x4 PUSH2 0x116B JUMP JUMPDEST PUSH2 0x57B JUMP JUMPDEST CALLVALUE DUP1 ISZERO PUSH2 0x252 JUMPI PUSH1 0x0 DUP1 REVERT JUMPDEST POP PUSH2 0x10D PUSH2 0x261 CALLDATASIZE PUSH1 0x4 PUSH2 0x102B JUMP JUMPDEST PUSH2 0x643 JUMP JUMPDEST CALLVALUE DUP1 ISZERO PUSH2 0x272 JUMPI PUSH1 0x0 DUP1 REVERT JUMPDEST POP PUSH1 0x1 SLOAD PUSH2 0x1EE SWAP1 PUSH1 0x1 PUSH1 0x1 PUSH1 0xA0 SHL SUB AND DUP2 JUMP JUMPDEST CALLVALUE DUP1 ISZERO PUSH2 0x292 JUMPI PUSH1 0x0 DUP1 REVERT JUMPDEST POP PUSH2 0x10D PUSH2 0x2A1 CALLDATASIZE PUSH1 0x4 PUSH2 0x102B JUMP JUMPDEST PUSH2 0x953 JUMP JUMPDEST CALLVALUE DUP1 ISZERO PUSH2 0x2B2 JUMPI PUSH1 0x0 DUP1 REVERT JUMPDEST POP PUSH2 0x163 PUSH2 0x2C1 CALLDATASIZE PUSH1 0x4 PUSH2 0x11A7 JUMP JUMPDEST PUSH2 0xBF2 JUMP JUMPDEST CALLVALUE DUP1 ISZERO PUSH2 0x2D2 JUMPI PUSH1 0x0 DUP1 REVERT JUMPDEST POP PUSH1 0x3 SLOAD PUSH2 0x135 JUMP JUMPDEST PUSH1 0x0 DUP1 SLOAD PUSH1 0x1 PUSH1 0x1 PUSH1 0xA0 SHL SUB AND CALLER EQ PUSH2 0x30F JUMPI PUSH1 0x40 MLOAD PUSH3 0x461BCD PUSH1 0xE5 SHL DUP2 MSTORE PUSH1 0x4 ADD PUSH2 0x306 SWAP1 PUSH2 0x1218 JUMP JUMPDEST PUSH1 0x40 MLOAD DUP1 SWAP2 SUB SWAP1 REVERT JUMPDEST DUP2 SELFBALANCE LT ISZERO PUSH2 0x32F JUMPI PUSH1 0x40 MLOAD PUSH3 0x461BCD PUSH1 0xE5 SHL DUP2 MSTORE PUSH1 0x4 ADD PUSH2 0x306 SWAP1 PUSH2 0x125D JUMP JUMPDEST PUSH1 0x40 MLOAD CALLER SWAP1 PUSH1 0x0 SWAP1 DUP3 SWAP1 DUP6 SWAP1 DUP4 DUP2 DUP2 DUP2 DUP6 DUP8 GAS CALL SWAP3 POP POP POP RETURNDATASIZE DUP1 PUSH1 0x0 DUP2 EQ PUSH2 0x373 JUMPI PUSH1 0x40 MLOAD SWAP2 POP PUSH1 0x1F NOT PUSH1 0x3F RETURNDATASIZE ADD AND DUP3 ADD PUSH1 0x40 MSTORE RETURNDATASIZE DUP3 MSTORE RETURNDATASIZE PUSH1 0x0 PUSH1 0x20 DUP5 ADD RETURNDATACOPY PUSH2 0x378 JUMP JUMPDEST PUSH1 0x60 SWAP2 POP JUMPDEST POP SWAP1 SWAP4 POP POP POP POP JUMPDEST SWAP2 SWAP1 POP JUMP JUMPDEST PUSH1 0x0 DUP1 SLOAD PUSH1 0x1 PUSH1 0x1 PUSH1 0xA0 SHL SUB AND CALLER EQ PUSH2 0x3B0 JUMPI PUSH1 0x40 MLOAD PUSH3 0x461BCD PUSH1 0xE5 SHL DUP2 MSTORE PUSH1 0x4 ADD PUSH2 0x306 SWAP1 PUSH2 0x1218 JUMP JUMPDEST PUSH2 0x3C5 DUP7 PUSH2 0x3BD DUP8 PUSH2 0x1341 JUMP JUMPDEST DUP7 DUP7 DUP7 PUSH2 0xD8A JUMP JUMPDEST SWAP7 SWAP6 POP POP POP POP POP POP JUMP JUMPDEST PUSH1 0x0 SLOAD PUSH1 0x1 PUSH1 0x1 PUSH1 0xA0 SHL SUB AND CALLER EQ PUSH2 0x3F9 JUMPI PUSH1 0x40 MLOAD PUSH3 0x461BCD PUSH1 0xE5 SHL DUP2 MSTORE PUSH1 0x4 ADD PUSH2 0x306 SWAP1 PUSH2 0x1218 JUMP JUMPDEST PUSH1 0x1 SLOAD PUSH1 0x40 MLOAD PUSH4 0xC054E53 PUSH1 0xE2 SHL DUP2 MSTORE PUSH1 0x4 DUP2 ADD DUP4 SWAP1 MSTORE PUSH1 0x1 PUSH1 0x1 PUSH1 0xA0 SHL SUB SWAP1 SWAP2 AND SWAP1 PUSH4 0x3015394C SWAP1 PUSH1 0x24 ADD PUSH1 0x0 PUSH1 0x40 MLOAD DUP1 DUP4 SUB DUP2 PUSH1 0x0 DUP8 DUP1 EXTCODESIZE ISZERO DUP1 ISZERO PUSH2 0x43F JUMPI PUSH1 0x0 DUP1 REVERT JUMPDEST POP GAS CALL ISZERO DUP1 ISZERO PUSH2 0x453 JUMPI RETURNDATASIZE PUSH1 0x0 DUP1 RETURNDATACOPY RETURNDATASIZE PUSH1 0x0 REVERT JUMPDEST POP POP POP POP POP JUMP JUMPDEST PUSH1 0x3 DUP2 DUP2 SLOAD DUP2 LT PUSH2 0x46A JUMPI PUSH1 0x0 DUP1 REVERT JUMPDEST PUSH1 0x0 SWAP2 DUP3 MSTORE PUSH1 0x20 SWAP1 SWAP2 KECCAK256 ADD SLOAD SWAP1 POP DUP2 JUMP JUMPDEST PUSH1 0x60 PUSH1 0x3 DUP1 SLOAD DUP1 PUSH1 0x20 MUL PUSH1 0x20 ADD PUSH1 0x40 MLOAD SWAP1 DUP2 ADD PUSH1 0x40 MSTORE DUP1 SWAP3 SWAP2 SWAP1 DUP2 DUP2 MSTORE PUSH1 0x20 ADD DUP3 DUP1 SLOAD DUP1 ISZERO PUSH2 0x4C9 JUMPI PUSH1 0x20 MUL DUP3 ADD SWAP2 SWAP1 PUSH1 0x0 MSTORE PUSH1 0x20 PUSH1 0x0 KECCAK256 SWAP1 JUMPDEST DUP2 SLOAD DUP2 MSTORE PUSH1 0x20 ADD SWAP1 PUSH1 0x1 ADD SWAP1 DUP1 DUP4 GT PUSH2 0x4B5 JUMPI JUMPDEST POP POP POP POP POP SWAP1 POP SWAP1 JUMP JUMPDEST PUSH1 0x60 DUP2 PUSH1 0x1 SUB PUSH2 0x50B JUMPI POP POP PUSH1 0x40 DUP1 MLOAD DUP1 DUP3 ADD SWAP1 SWAP2 MSTORE PUSH1 0x12 DUP2 MSTORE PUSH18 0x7B75696E74207374617274506F696E743B7D PUSH1 0x70 SHL PUSH1 0x20 DUP3 ADD MSTORE SWAP1 JUMP JUMPDEST DUP2 PUSH1 0x2 SUB PUSH2 0x53D JUMPI POP POP PUSH1 0x40 DUP1 MLOAD DUP1 DUP3 ADD SWAP1 SWAP2 MSTORE PUSH1 0xE DUP2 MSTORE PUSH14 0x7B75696E74206E756D6265723B7D PUSH1 0x90 SHL PUSH1 0x20 DUP3 ADD MSTORE SWAP1 JUMP JUMPDEST PUSH1 0x40 MLOAD PUSH3 0x461BCD PUSH1 0xE5 SHL DUP2 MSTORE PUSH1 0x20 PUSH1 0x4 DUP3 ADD MSTORE PUSH1 0x13 PUSH1 0x24 DUP3 ADD MSTORE PUSH19 0x125B9D985B1A5908199D5B98DD1A5BDB881251 PUSH1 0x6A SHL PUSH1 0x44 DUP3 ADD MSTORE PUSH1 0x64 ADD PUSH2 0x306 JUMP JUMPDEST PUSH1 0x40 DUP1 MLOAD PUSH1 0x20 DUP2 ADD SWAP1 SWAP2 MSTORE PUSH1 0x0 DUP2 MSTORE PUSH1 0x60 SWAP1 DUP3 CALLDATALOAD PUSH1 0x1 SUB PUSH2 0x5E7 JUMPI PUSH2 0x5E0 PUSH2 0x5A6 PUSH1 0x20 DUP6 ADD DUP6 PUSH2 0x13D2 JUMP JUMPDEST DUP1 DUP1 PUSH1 0x1F ADD PUSH1 0x20 DUP1 SWAP2 DIV MUL PUSH1 0x20 ADD PUSH1 0x40 MLOAD SWAP1 DUP2 ADD PUSH1 0x40 MSTORE DUP1 SWAP4 SWAP3 SWAP2 SWAP1 DUP2 DUP2 MSTORE PUSH1 0x20 ADD DUP4 DUP4 DUP1 DUP3 DUP5 CALLDATACOPY PUSH1 0x0 SWAP3 ADD SWAP2 SWAP1 SWAP2 MSTORE POP PUSH2 0xE87 SWAP3 POP POP POP JUMP JUMPDEST SWAP1 POP PUSH2 0x63D JUMP JUMPDEST DUP3 CALLDATALOAD PUSH1 0x2 SUB PUSH2 0x63D JUMPI PUSH2 0x63A PUSH2 0x600 PUSH1 0x20 DUP6 ADD DUP6 PUSH2 0x13D2 JUMP JUMPDEST DUP1 DUP1 PUSH1 0x1F ADD PUSH1 0x20 DUP1 SWAP2 DIV MUL PUSH1 0x20 ADD PUSH1 0x40 MLOAD SWAP1 DUP2 ADD PUSH1 0x40 MSTORE DUP1 SWAP4 SWAP3 SWAP2 SWAP1 DUP2 DUP2 MSTORE PUSH1 0x20 ADD DUP4 DUP4 DUP1 DUP3 DUP5 CALLDATACOPY PUSH1 0x0 SWAP3 ADD SWAP2 SWAP1 SWAP2 MSTORE POP PUSH2 0xF4A SWAP3 POP POP POP JUMP JUMPDEST SWAP1 POP JUMPDEST SWAP3 SWAP2 POP POP JUMP JUMPDEST PUSH1 0x0 DUP2 DUP2 MSTORE PUSH1 0x2 PUSH1 0x20 MSTORE PUSH1 0x40 DUP2 KECCAK256 SLOAD PUSH1 0xFF AND ISZERO ISZERO PUSH1 0x1 EQ PUSH2 0x676 JUMPI PUSH1 0x40 MLOAD PUSH3 0x461BCD PUSH1 0xE5 SHL DUP2 MSTORE PUSH1 0x4 ADD PUSH2 0x306 SWAP1 PUSH2 0x141F JUMP JUMPDEST PUSH1 0x1 SLOAD PUSH1 0x40 MLOAD PUSH4 0xC58343EF PUSH1 0xE0 SHL DUP2 MSTORE PUSH1 0x4 DUP2 ADD DUP5 SWAP1 MSTORE PUSH1 0x0 SWAP2 PUSH1 0x1 PUSH1 0x1 PUSH1 0xA0 SHL SUB AND SWAP1 PUSH4 0xC58343EF SWAP1 PUSH1 0x24 ADD PUSH1 0x0 PUSH1 0x40 MLOAD DUP1 DUP4 SUB DUP2 DUP7 GAS STATICCALL ISZERO DUP1 ISZERO PUSH2 0x6C0 JUMPI RETURNDATASIZE PUSH1 0x0 DUP1 RETURNDATACOPY RETURNDATASIZE PUSH1 0x0 REVERT JUMPDEST POP POP POP POP PUSH1 0x40 MLOAD RETURNDATASIZE PUSH1 0x0 DUP3 RETURNDATACOPY PUSH1 0x1F RETURNDATASIZE SWAP1 DUP2 ADD PUSH1 0x1F NOT AND DUP3 ADD PUSH1 0x40 MSTORE PUSH2 0x6E8 SWAP2 SWAP1 DUP2 ADD SWAP1 PUSH2 0x1615 JUMP JUMPDEST PUSH2 0x100 DUP2 ADD MLOAD MLOAD SWAP1 SWAP2 POP PUSH1 0x1 PUSH1 0x1 PUSH1 0xA0 SHL SUB AND PUSH2 0x763 JUMPI PUSH1 0x40 MLOAD PUSH3 0x461BCD PUSH1 0xE5 SHL DUP2 MSTORE PUSH1 0x20 PUSH1 0x4 DUP3 ADD MSTORE PUSH1 0x33 PUSH1 0x24 DUP3 ADD MSTORE PUSH32 0x546865726520617265206E6F207375626D697373696F6E7320666F7220746865 PUSH1 0x44 DUP3 ADD MSTORE PUSH19 0x818DA185B1B195B99D959081C995C5D595CDD PUSH1 0x6A SHL PUSH1 0x64 DUP3 ADD MSTORE PUSH1 0x84 ADD PUSH2 0x306 JUMP JUMPDEST DUP1 PUSH2 0x100 ADD MLOAD PUSH1 0x60 ADD MLOAD ISZERO PUSH2 0x7D3 JUMPI PUSH1 0x40 MLOAD PUSH3 0x461BCD PUSH1 0xE5 SHL DUP2 MSTORE PUSH1 0x20 PUSH1 0x4 DUP3 ADD MSTORE PUSH1 0x30 PUSH1 0x24 DUP3 ADD MSTORE PUSH32 0x546865206368616C6C656E676564207375626D697373696F6E2068617320616C PUSH1 0x44 DUP3 ADD MSTORE PUSH16 0x1C9958591E481CDBDB1A591A599A5959 PUSH1 0x82 SHL PUSH1 0x64 DUP3 ADD MSTORE PUSH1 0x84 ADD PUSH2 0x306 JUMP JUMPDEST PUSH1 0x1 SLOAD PUSH1 0x40 MLOAD PUSH4 0x740C9813 PUSH1 0xE1 SHL DUP2 MSTORE PUSH1 0x4 DUP2 ADD DUP6 SWAP1 MSTORE CALLER PUSH1 0x24 DUP3 ADD MSTORE PUSH1 0x0 SWAP2 PUSH1 0x1 PUSH1 0x1 PUSH1 0xA0 SHL SUB AND SWAP1 PUSH4 0xE8193026 SWAP1 PUSH1 0x44 ADD PUSH1 0x20 PUSH1 0x40 MLOAD DUP1 DUP4 SUB DUP2 PUSH1 0x0 DUP8 GAS CALL ISZERO DUP1 ISZERO PUSH2 0x825 JUMPI RETURNDATASIZE PUSH1 0x0 DUP1 RETURNDATACOPY RETURNDATASIZE PUSH1 0x0 REVERT JUMPDEST POP POP POP POP PUSH1 0x40 MLOAD RETURNDATASIZE PUSH1 0x1F NOT PUSH1 0x1F DUP3 ADD AND DUP3 ADD DUP1 PUSH1 0x40 MSTORE POP DUP2 ADD SWAP1 PUSH2 0x849 SWAP2 SWAP1 PUSH2 0x170F JUMP JUMPDEST SWAP1 POP PUSH1 0x0 PUSH4 0xCB392747 PUSH1 0xE0 SHL DUP4 PUSH2 0x100 ADD MLOAD PUSH1 0x40 ADD MLOAD PUSH1 0x40 MLOAD PUSH1 0x24 ADD PUSH2 0x86F SWAP2 SWAP1 PUSH2 0x1151 JUMP JUMPDEST PUSH1 0x40 MLOAD PUSH1 0x20 DUP2 DUP4 SUB SUB DUP2 MSTORE SWAP1 PUSH1 0x40 MSTORE SWAP1 PUSH1 0x1 PUSH1 0x1 PUSH1 0xE0 SHL SUB NOT AND PUSH1 0x20 DUP3 ADD DUP1 MLOAD PUSH1 0x1 PUSH1 0x1 PUSH1 0xE0 SHL SUB DUP4 DUP2 DUP4 AND OR DUP4 MSTORE POP POP POP POP SWAP1 POP PUSH1 0x0 DUP4 PUSH1 0xC0 ADD MLOAD PUSH1 0x1 PUSH1 0x1 PUSH1 0xA0 SHL SUB AND DUP5 PUSH1 0x60 ADD MLOAD DUP4 PUSH1 0x40 MLOAD PUSH2 0x8C7 SWAP2 SWAP1 PUSH2 0x172A JUMP JUMPDEST PUSH1 0x0 PUSH1 0x40 MLOAD DUP1 DUP4 SUB DUP2 PUSH1 0x0 DUP8 DUP8 CALL SWAP3 POP POP POP RETURNDATASIZE DUP1 PUSH1 0x0 DUP2 EQ PUSH2 0x905 JUMPI PUSH1 0x40 MLOAD SWAP2 POP PUSH1 0x1F NOT PUSH1 0x3F RETURNDATASIZE ADD AND DUP3 ADD PUSH1 0x40 MSTORE RETURNDATASIZE DUP3 MSTORE RETURNDATASIZE PUSH1 0x0 PUSH1 0x20 DUP5 ADD RETURNDATACOPY PUSH2 0x90A JUMP JUMPDEST PUSH1 0x60 SWAP2 POP JUMPDEST POP POP PUSH1 0x40 DUP1 MLOAD DUP9 DUP2 MSTORE DUP3 ISZERO ISZERO PUSH1 0x20 DUP3 ADD MSTORE SWAP2 SWAP3 POP PUSH32 0xA531C8F4BBF2A18049D85528BB5AAAE66874AF94BCB325738EE729A2B6CF8428 SWAP2 ADD PUSH1 0x40 MLOAD DUP1 SWAP2 SUB SWAP1 LOG1 POP SWAP1 SWAP5 SWAP4 POP POP POP POP JUMP JUMPDEST PUSH1 0x0 DUP2 DUP2 MSTORE PUSH1 0x2 PUSH1 0x20 MSTORE PUSH1 0x40 DUP2 KECCAK256 SLOAD PUSH1 0xFF AND ISZERO ISZERO PUSH1 0x1 EQ PUSH2 0x986 JUMPI PUSH1 0x40 MLOAD PUSH3 0x461BCD PUSH1 0xE5 SHL DUP2 MSTORE PUSH1 0x4 ADD PUSH2 0x306 SWAP1 PUSH2 0x141F JUMP JUMPDEST PUSH1 0x1 SLOAD PUSH1 0x40 MLOAD PUSH4 0xC58343EF PUSH1 0xE0 SHL DUP2 MSTORE PUSH1 0x4 DUP2 ADD DUP5 SWAP1 MSTORE PUSH1 0x0 SWAP2 PUSH1 0x1 PUSH1 0x1 PUSH1 0xA0 SHL SUB AND SWAP1 PUSH4 0xC58343EF SWAP1 PUSH1 0x24 ADD PUSH1 0x0 PUSH1 0x40 MLOAD DUP1 DUP4 SUB DUP2 DUP7 GAS STATICCALL ISZERO DUP1 ISZERO PUSH2 0x9D0 JUMPI RETURNDATASIZE PUSH1 0x0 DUP1 RETURNDATACOPY RETURNDATASIZE PUSH1 0x0 REVERT JUMPDEST POP POP POP POP PUSH1 0x40 MLOAD RETURNDATASIZE PUSH1 0x0 DUP3 RETURNDATACOPY PUSH1 0x1F RETURNDATASIZE SWAP1 DUP2 ADD PUSH1 0x1F NOT AND DUP3 ADD PUSH1 0x40 MSTORE PUSH2 0x9F8 SWAP2 SWAP1 DUP2 ADD SWAP1 PUSH2 0x1615 JUMP JUMPDEST PUSH2 0x100 DUP2 ADD MLOAD MLOAD SWAP1 SWAP2 POP PUSH1 0x1 PUSH1 0x1 PUSH1 0xA0 SHL SUB AND PUSH2 0xA71 JUMPI PUSH1 0x40 MLOAD PUSH3 0x461BCD PUSH1 0xE5 SHL DUP2 MSTORE PUSH1 0x20 PUSH1 0x4 DUP3 ADD MSTORE PUSH1 0x31 PUSH1 0x24 DUP3 ADD MSTORE PUSH32 0x546865726520617265206E6F207375626D697373696F6E7320666F7220746865 PUSH1 0x44 DUP3 ADD MSTORE PUSH17 0x81C1C9BDD9A591959081C995C5D595CDD PUSH1 0x7A SHL PUSH1 0x64 DUP3 ADD MSTORE PUSH1 0x84 ADD PUSH2 0x306 JUMP JUMPDEST PUSH2 0x100 DUP2 ADD MLOAD MLOAD PUSH1 0x1 PUSH1 0x1 PUSH1 0xA0 SHL SUB AND CALLER EQ PUSH2 0xADB JUMPI PUSH1 0x40 MLOAD PUSH3 0x461BCD PUSH1 0xE5 SHL DUP2 MSTORE PUSH1 0x20 PUSH1 0x4 DUP3 ADD MSTORE PUSH1 0x23 PUSH1 0x24 DUP3 ADD MSTORE PUSH32 0x54686973207061796D656E7420646F6573206E6F742062656C6F6E6720746F20 PUSH1 0x44 DUP3 ADD MSTORE PUSH3 0x796F75 PUSH1 0xE8 SHL PUSH1 0x64 DUP3 ADD MSTORE PUSH1 0x84 ADD PUSH2 0x306 JUMP JUMPDEST DUP1 PUSH2 0x100 ADD MLOAD PUSH1 0x60 ADD MLOAD ISZERO PUSH2 0xB46 JUMPI PUSH1 0x40 MLOAD PUSH3 0x461BCD PUSH1 0xE5 SHL DUP2 MSTORE PUSH1 0x20 PUSH1 0x4 DUP3 ADD MSTORE PUSH1 0x2B PUSH1 0x24 DUP3 ADD MSTORE PUSH32 0x5468652070726F766964656420726571756573742068617320616C7265616479 PUSH1 0x44 DUP3 ADD MSTORE PUSH11 0x81CDBDB1A591A599A5959 PUSH1 0xAA SHL PUSH1 0x64 DUP3 ADD MSTORE PUSH1 0x84 ADD PUSH2 0x306 JUMP JUMPDEST PUSH1 0x1 SLOAD PUSH1 0x40 MLOAD PUSH4 0xC63FDCC7 PUSH1 0xE0 SHL DUP2 MSTORE PUSH1 0x4 DUP2 ADD DUP6 SWAP1 MSTORE PUSH1 0x0 SWAP2 PUSH1 0x1 PUSH1 0x1 PUSH1 0xA0 SHL SUB AND SWAP1 PUSH4 0xC63FDCC7 SWAP1 PUSH1 0x24 ADD PUSH1 0x20 PUSH1 0x40 MLOAD DUP1 DUP4 SUB DUP2 PUSH1 0x0 DUP8 GAS CALL ISZERO DUP1 ISZERO PUSH2 0xB92 JUMPI RETURNDATASIZE PUSH1 0x0 DUP1 RETURNDATACOPY RETURNDATASIZE PUSH1 0x0 REVERT JUMPDEST POP POP POP POP PUSH1 0x40 MLOAD RETURNDATASIZE PUSH1 0x1F NOT PUSH1 0x1F DUP3 ADD AND DUP3 ADD DUP1 PUSH1 0x40 MSTORE POP DUP2 ADD SWAP1 PUSH2 0xBB6 SWAP2 SWAP1 PUSH2 0x170F JUMP JUMPDEST PUSH1 0x0 DUP6 DUP2 MSTORE PUSH1 0x2 PUSH1 0x20 MSTORE PUSH1 0x40 DUP1 DUP3 KECCAK256 DUP1 SLOAD PUSH1 0xFF NOT AND SWAP1 SSTORE PUSH2 0x100 DUP6 ADD MLOAD DUP2 ADD MLOAD SWAP1 MLOAD SWAP3 SWAP4 POP SWAP1 SWAP2 PUSH4 0xCB392747 PUSH1 0xE0 SHL SWAP2 PUSH2 0x86F SWAP2 PUSH1 0x24 ADD PUSH2 0x1151 JUMP JUMPDEST CALLER ADDRESS EQ PUSH2 0xC59 JUMPI PUSH1 0x40 MLOAD PUSH3 0x461BCD PUSH1 0xE5 SHL DUP2 MSTORE PUSH1 0x20 PUSH1 0x4 DUP3 ADD MSTORE PUSH1 0x2F PUSH1 0x24 DUP3 ADD MSTORE PUSH32 0x46756E6374696F6E2061636365737369626C65206F6E6C792062792074686520 PUSH1 0x44 DUP3 ADD MSTORE PUSH15 0x31B7B73A3930B1BA1034BA39B2B633 PUSH1 0x89 SHL PUSH1 0x64 DUP3 ADD MSTORE PUSH1 0x84 ADD PUSH2 0x306 JUMP JUMPDEST PUSH6 0x9184E72A000 SELFBALANCE LT ISZERO PUSH2 0xC7F JUMPI PUSH1 0x40 MLOAD PUSH3 0x461BCD PUSH1 0xE5 SHL DUP2 MSTORE PUSH1 0x4 ADD PUSH2 0x306 SWAP1 PUSH2 0x125D JUMP JUMPDEST PUSH1 0x0 PUSH2 0xC8D DUP3 DUP5 ADD DUP5 PUSH2 0x102B JUMP JUMPDEST SWAP1 POP PUSH1 0x0 PUSH1 0x40 MLOAD DUP1 PUSH1 0x40 ADD PUSH1 0x40 MSTORE DUP1 PUSH1 0x1 DUP2 MSTORE PUSH1 0x20 ADD PUSH1 0x40 MLOAD DUP1 PUSH1 0x20 ADD PUSH1 0x40 MSTORE DUP1 DUP6 PUSH1 0x1 PUSH2 0xCBB SWAP2 SWAP1 PUSH2 0x1746 JUMP JUMPDEST SWAP1 MSTORE PUSH1 0x40 DUP1 MLOAD SWAP2 MLOAD PUSH1 0x20 DUP4 ADD MSTORE ADD PUSH1 0x40 MLOAD PUSH1 0x20 DUP2 DUP4 SUB SUB DUP2 MSTORE SWAP1 PUSH1 0x40 MSTORE DUP2 MSTORE POP SWAP1 POP PUSH2 0xCFC PUSH6 0x9184E72A000 DUP3 PUSH5 0xE8D4A51000 PUSH6 0xB5E620F48000 PUSH1 0x0 PUSH2 0xD8A JUMP JUMPDEST POP PUSH2 0xD36 PUSH1 0x40 MLOAD DUP1 PUSH1 0x20 ADD PUSH1 0x40 MSTORE DUP1 DUP5 DUP2 MSTORE POP PUSH1 0x40 MLOAD PUSH1 0x20 ADD PUSH2 0xD22 SWAP2 MLOAD DUP2 MSTORE PUSH1 0x20 ADD SWAP1 JUMP JUMPDEST PUSH1 0x40 MLOAD PUSH1 0x20 DUP2 DUP4 SUB SUB DUP2 MSTORE SWAP1 PUSH1 0x40 MSTORE PUSH2 0xF4A JUMP JUMPDEST DUP1 PUSH1 0x20 ADD SWAP1 MLOAD DUP2 ADD SWAP1 PUSH2 0xD49 SWAP2 SWAP1 PUSH2 0x170F JUMP JUMPDEST ISZERO PUSH2 0xD84 JUMPI PUSH1 0x3 DUP1 SLOAD PUSH1 0x1 DUP2 ADD DUP3 SSTORE PUSH1 0x0 SWAP2 SWAP1 SWAP2 MSTORE PUSH32 0xC2575A0E9E593C00F959F8C92F12DB2869C3395A3B0502D05E2516446F71F85B ADD DUP3 SWAP1 SSTORE JUMPDEST POP POP POP POP JUMP JUMPDEST PUSH1 0x0 SELFBALANCE DUP7 GT ISZERO PUSH2 0xDAC JUMPI PUSH1 0x40 MLOAD PUSH3 0x461BCD PUSH1 0xE5 SHL DUP2 MSTORE PUSH1 0x4 ADD PUSH2 0x306 SWAP1 PUSH2 0x125D JUMP JUMPDEST PUSH1 0x1 SLOAD PUSH1 0x40 MLOAD PUSH4 0x36403E4D PUSH1 0xE2 SHL DUP2 MSTORE PUSH1 0x0 SWAP2 PUSH1 0x1 PUSH1 0x1 PUSH1 0xA0 SHL SUB AND SWAP1 PUSH4 0xD900F934 SWAP1 DUP10 SWAP1 PUSH2 0xDE5 SWAP1 DUP11 SWAP1 DUP11 SWAP1 DUP11 SWAP1 DUP11 SWAP1 PUSH1 0x4 ADD PUSH2 0x1767 JUMP JUMPDEST PUSH1 0x20 PUSH1 0x40 MLOAD DUP1 DUP4 SUB DUP2 DUP6 DUP9 GAS CALL ISZERO DUP1 ISZERO PUSH2 0xE03 JUMPI RETURNDATASIZE PUSH1 0x0 DUP1 RETURNDATACOPY RETURNDATASIZE PUSH1 0x0 REVERT JUMPDEST POP POP POP POP POP PUSH1 0x40 MLOAD RETURNDATASIZE PUSH1 0x1F NOT PUSH1 0x1F DUP3 ADD AND DUP3 ADD DUP1 PUSH1 0x40 MSTORE POP DUP2 ADD SWAP1 PUSH2 0xE28 SWAP2 SWAP1 PUSH2 0x17AA JUMP JUMPDEST SWAP1 POP PUSH32 0xD3B0B0209035A5613265E8FB1F38873EA24C7C6189B128EEBE3689C03D13905C DUP2 PUSH1 0x40 MLOAD PUSH2 0xE5B SWAP2 DUP2 MSTORE PUSH1 0x20 ADD SWAP1 JUMP JUMPDEST PUSH1 0x40 MLOAD DUP1 SWAP2 SUB SWAP1 LOG1 PUSH1 0x0 DUP2 DUP2 MSTORE PUSH1 0x2 PUSH1 0x20 MSTORE PUSH1 0x40 SWAP1 KECCAK256 DUP1 SLOAD PUSH1 0xFF NOT AND PUSH1 0x1 OR SWAP1 SSTORE SWAP1 POP SWAP6 SWAP5 POP POP POP POP POP JUMP JUMPDEST PUSH1 0x60 PUSH1 0x0 DUP1 PUSH1 0xA SWAP1 POP PUSH1 0x0 DUP5 DUP1 PUSH1 0x20 ADD SWAP1 MLOAD DUP2 ADD SWAP1 PUSH2 0xEA6 SWAP2 SWAP1 PUSH2 0x1804 JUMP JUMPDEST DUP1 MLOAD PUSH1 0x1 OR SWAP4 POP SWAP1 POP JUMPDEST DUP1 MLOAD PUSH2 0xEBD SWAP1 DUP4 SWAP1 PUSH2 0x1746 JUMP JUMPDEST DUP4 LT ISZERO PUSH2 0xF39 JUMPI PUSH2 0xEE9 PUSH1 0x40 MLOAD DUP1 PUSH1 0x20 ADD PUSH1 0x40 MSTORE DUP1 DUP6 DUP2 MSTORE POP PUSH1 0x40 MLOAD PUSH1 0x20 ADD PUSH2 0xD22 SWAP2 MLOAD DUP2 MSTORE PUSH1 0x20 ADD SWAP1 JUMP JUMPDEST DUP1 PUSH1 0x20 ADD SWAP1 MLOAD DUP2 ADD SWAP1 PUSH2 0xEFC SWAP2 SWAP1 PUSH2 0x170F JUMP JUMPDEST ISZERO PUSH2 0xF27 JUMPI PUSH1 0x40 DUP1 MLOAD PUSH1 0x20 DUP2 ADD DUP6 SWAP1 MSTORE ADD JUMPDEST PUSH1 0x40 MLOAD PUSH1 0x20 DUP2 DUP4 SUB SUB DUP2 MSTORE SWAP1 PUSH1 0x40 MSTORE SWAP4 POP POP POP POP SWAP2 SWAP1 POP JUMP JUMPDEST PUSH2 0xF32 PUSH1 0x2 DUP5 PUSH2 0x1746 JUMP JUMPDEST SWAP3 POP PUSH2 0xEB0 JUMP JUMPDEST PUSH1 0x40 DUP1 MLOAD PUSH1 0x20 DUP2 ADD DUP6 SWAP1 MSTORE ADD PUSH2 0xF0E JUMP JUMPDEST PUSH1 0x60 PUSH1 0x0 DUP3 DUP1 PUSH1 0x20 ADD SWAP1 MLOAD DUP2 ADD SWAP1 PUSH2 0xF62 SWAP2 SWAP1 PUSH2 0x1804 JUMP JUMPDEST SWAP1 POP PUSH1 0x2 DUP2 PUSH1 0x0 ADD MLOAD LT DUP1 PUSH2 0xF8E JUMPI POP DUP1 MLOAD PUSH2 0xF80 SWAP1 PUSH1 0x2 SWAP1 PUSH2 0x1836 JUMP JUMPDEST ISZERO DUP1 ISZERO PUSH2 0xF8E JUMPI POP DUP1 MLOAD PUSH1 0x2 LT JUMPDEST ISZERO PUSH2 0xFB7 JUMPI PUSH1 0x40 DUP1 MLOAD PUSH1 0x0 PUSH1 0x20 DUP3 ADD MSTORE ADD JUMPDEST PUSH1 0x40 MLOAD PUSH1 0x20 DUP2 DUP4 SUB SUB DUP2 MSTORE SWAP1 PUSH1 0x40 MSTORE SWAP2 POP POP SWAP2 SWAP1 POP JUMP JUMPDEST PUSH1 0x3 JUMPDEST DUP2 MLOAD PUSH2 0xFC8 SWAP1 PUSH1 0x2 SWAP1 PUSH2 0x184A JUMP JUMPDEST DUP2 LT ISZERO PUSH2 0x1019 JUMPI DUP2 MLOAD PUSH2 0xFDC SWAP1 DUP3 SWAP1 PUSH2 0x1836 JUMP JUMPDEST PUSH1 0x0 SUB PUSH2 0x1007 JUMPI PUSH1 0x40 DUP1 MLOAD PUSH1 0x0 PUSH1 0x20 DUP3 ADD MSTORE ADD PUSH1 0x40 MLOAD PUSH1 0x20 DUP2 DUP4 SUB SUB DUP2 MSTORE SWAP1 PUSH1 0x40 MSTORE SWAP3 POP POP POP SWAP2 SWAP1 POP JUMP JUMPDEST PUSH2 0x1012 PUSH1 0x2 DUP3 PUSH2 0x1746 JUMP JUMPDEST SWAP1 POP PUSH2 0xFBA JUMP JUMPDEST POP PUSH1 0x40 DUP1 MLOAD PUSH1 0x1 PUSH1 0x20 DUP3 ADD MSTORE ADD PUSH2 0xFA0 JUMP JUMPDEST PUSH1 0x0 PUSH1 0x20 DUP3 DUP5 SUB SLT ISZERO PUSH2 0x103D JUMPI PUSH1 0x0 DUP1 REVERT JUMPDEST POP CALLDATALOAD SWAP2 SWAP1 POP JUMP JUMPDEST PUSH1 0x0 PUSH1 0x40 DUP3 DUP5 SUB SLT ISZERO PUSH2 0x1056 JUMPI PUSH1 0x0 DUP1 REVERT JUMPDEST POP SWAP2 SWAP1 POP JUMP JUMPDEST PUSH1 0x0 DUP1 PUSH1 0x0 DUP1 PUSH1 0x0 PUSH1 0xA0 DUP7 DUP9 SUB SLT ISZERO PUSH2 0x1074 JUMPI PUSH1 0x0 DUP1 REVERT JUMPDEST DUP6 CALLDATALOAD SWAP5 POP PUSH1 0x20 DUP7 ADD CALLDATALOAD PUSH1 0x1 PUSH1 0x1 PUSH1 0x40 SHL SUB DUP2 GT ISZERO PUSH2 0x1091 JUMPI PUSH1 0x0 DUP1 REVERT JUMPDEST PUSH2 0x109D DUP9 DUP3 DUP10 ADD PUSH2 0x1044 JUMP JUMPDEST SWAP6 SWAP9 SWAP6 SWAP8 POP POP POP POP PUSH1 0x40 DUP5 ADD CALLDATALOAD SWAP4 PUSH1 0x60 DUP2 ADD CALLDATALOAD SWAP4 PUSH1 0x80 SWAP1 SWAP2 ADD CALLDATALOAD SWAP3 POP SWAP1 POP JUMP JUMPDEST PUSH1 0x20 DUP1 DUP3 MSTORE DUP3 MLOAD DUP3 DUP3 ADD DUP2 SWAP1 MSTORE PUSH1 0x0 SWAP2 SWAP1 DUP5 DUP3 ADD SWAP1 PUSH1 0x40 DUP6 ADD SWAP1 DUP5 JUMPDEST DUP2 DUP2 LT ISZERO PUSH2 0x10F5 JUMPI DUP4 MLOAD DUP4 MSTORE SWAP3 DUP5 ADD SWAP3 SWAP2 DUP5 ADD SWAP2 PUSH1 0x1 ADD PUSH2 0x10D9 JUMP JUMPDEST POP SWAP1 SWAP7 SWAP6 POP POP POP POP POP POP JUMP JUMPDEST PUSH1 0x0 JUMPDEST DUP4 DUP2 LT ISZERO PUSH2 0x111C JUMPI DUP2 DUP2 ADD MLOAD DUP4 DUP3 ADD MSTORE PUSH1 0x20 ADD PUSH2 0x1104 JUMP JUMPDEST POP POP PUSH1 0x0 SWAP2 ADD MSTORE JUMP JUMPDEST PUSH1 0x0 DUP2 MLOAD DUP1 DUP5 MSTORE PUSH2 0x113D DUP2 PUSH1 0x20 DUP7 ADD PUSH1 0x20 DUP7 ADD PUSH2 0x1101 JUMP JUMPDEST PUSH1 0x1F ADD PUSH1 0x1F NOT AND SWAP3 SWAP1 SWAP3 ADD PUSH1 0x20 ADD SWAP3 SWAP2 POP POP JUMP JUMPDEST PUSH1 0x20 DUP2 MSTORE PUSH1 0x0 PUSH2 0x1164 PUSH1 0x20 DUP4 ADD DUP5 PUSH2 0x1125 JUMP JUMPDEST SWAP4 SWAP3 POP POP POP JUMP JUMPDEST PUSH1 0x0 PUSH1 0x20 DUP3 DUP5 SUB SLT ISZERO PUSH2 0x117D JUMPI PUSH1 0x0 DUP1 REVERT JUMPDEST DUP2 CALLDATALOAD PUSH1 0x1 PUSH1 0x1 PUSH1 0x40 SHL SUB DUP2 GT ISZERO PUSH2 0x1193 JUMPI PUSH1 0x0 DUP1 REVERT JUMPDEST PUSH2 0x119F DUP5 DUP3 DUP6 ADD PUSH2 0x1044 JUMP JUMPDEST SWAP5 SWAP4 POP POP POP POP JUMP JUMPDEST PUSH1 0x0 DUP1 PUSH1 0x20 DUP4 DUP6 SUB SLT ISZERO PUSH2 0x11BA JUMPI PUSH1 0x0 DUP1 REVERT JUMPDEST DUP3 CALLDATALOAD PUSH1 0x1 PUSH1 0x1 PUSH1 0x40 SHL SUB DUP1 DUP3 GT ISZERO PUSH2 0x11D1 JUMPI PUSH1 0x0 DUP1 REVERT JUMPDEST DUP2 DUP6 ADD SWAP2 POP DUP6 PUSH1 0x1F DUP4 ADD SLT PUSH2 0x11E5 JUMPI PUSH1 0x0 DUP1 REVERT JUMPDEST DUP2 CALLDATALOAD DUP2 DUP2 GT ISZERO PUSH2 0x11F4 JUMPI PUSH1 0x0 DUP1 REVERT JUMPDEST DUP7 PUSH1 0x20 DUP3 DUP6 ADD ADD GT ISZERO PUSH2 0x1206 JUMPI PUSH1 0x0 DUP1 REVERT JUMPDEST PUSH1 0x20 SWAP3 SWAP1 SWAP3 ADD SWAP7 SWAP2 SWAP6 POP SWAP1 SWAP4 POP POP POP POP JUMP JUMPDEST PUSH1 0x20 DUP1 DUP3 MSTORE PUSH1 0x25 SWAP1 DUP3 ADD MSTORE PUSH32 0x46756E6374696F6E2061636365737369626C65206F6E6C792062792074686520 PUSH1 0x40 DUP3 ADD MSTORE PUSH5 0x37BBB732B9 PUSH1 0xD9 SHL PUSH1 0x60 DUP3 ADD MSTORE PUSH1 0x80 ADD SWAP1 JUMP JUMPDEST PUSH1 0x20 DUP1 DUP3 MSTORE PUSH1 0x12 SWAP1 DUP3 ADD MSTORE PUSH18 0x496E73756666696369656E742066756E6473 PUSH1 0x70 SHL PUSH1 0x40 DUP3 ADD MSTORE PUSH1 0x60 ADD SWAP1 JUMP JUMPDEST PUSH4 0x4E487B71 PUSH1 0xE0 SHL PUSH1 0x0 MSTORE PUSH1 0x41 PUSH1 0x4 MSTORE PUSH1 0x24 PUSH1 0x0 REVERT JUMPDEST PUSH1 0x40 DUP1 MLOAD SWAP1 DUP2 ADD PUSH1 0x1 PUSH1 0x1 PUSH1 0x40 SHL SUB DUP2 GT DUP3 DUP3 LT OR ISZERO PUSH2 0x12C1 JUMPI PUSH2 0x12C1 PUSH2 0x1289 JUMP JUMPDEST PUSH1 0x40 MSTORE SWAP1 JUMP JUMPDEST PUSH1 0x40 MLOAD PUSH2 0x140 DUP2 ADD PUSH1 0x1 PUSH1 0x1 PUSH1 0x40 SHL SUB DUP2 GT DUP3 DUP3 LT OR ISZERO PUSH2 0x12C1 JUMPI PUSH2 0x12C1 PUSH2 0x1289 JUMP JUMPDEST PUSH1 0x40 MLOAD PUSH1 0x1F DUP3 ADD PUSH1 0x1F NOT AND DUP2 ADD PUSH1 0x1 PUSH1 0x1 PUSH1 0x40 SHL SUB DUP2 GT DUP3 DUP3 LT OR ISZERO PUSH2 0x1312 JUMPI PUSH2 0x1312 PUSH2 0x1289 JUMP JUMPDEST PUSH1 0x40 MSTORE SWAP2 SWAP1 POP JUMP JUMPDEST PUSH1 0x0 PUSH1 0x1 PUSH1 0x1 PUSH1 0x40 SHL SUB DUP3 GT ISZERO PUSH2 0x1333 JUMPI PUSH2 0x1333 PUSH2 0x1289 JUMP JUMPDEST POP PUSH1 0x1F ADD PUSH1 0x1F NOT AND PUSH1 0x20 ADD SWAP1 JUMP JUMPDEST PUSH1 0x0 PUSH1 0x40 DUP3 CALLDATASIZE SUB SLT ISZERO PUSH2 0x1353 JUMPI PUSH1 0x0 DUP1 REVERT JUMPDEST PUSH2 0x135B PUSH2 0x129F JUMP JUMPDEST DUP3 CALLDATALOAD DUP2 MSTORE PUSH1 0x20 DUP1 DUP5 ADD CALLDATALOAD PUSH1 0x1 PUSH1 0x1 PUSH1 0x40 SHL SUB DUP2 GT ISZERO PUSH2 0x1379 JUMPI PUSH1 0x0 DUP1 REVERT JUMPDEST DUP5 ADD CALLDATASIZE PUSH1 0x1F DUP3 ADD SLT PUSH2 0x138A JUMPI PUSH1 0x0 DUP1 REVERT JUMPDEST DUP1 CALLDATALOAD PUSH2 0x139D PUSH2 0x1398 DUP3 PUSH2 0x131A JUMP JUMPDEST PUSH2 0x12EA JUMP JUMPDEST DUP2 DUP2 MSTORE CALLDATASIZE DUP5 DUP4 DUP6 ADD ADD GT ISZERO PUSH2 0x13B1 JUMPI PUSH1 0x0 DUP1 REVERT JUMPDEST DUP2 DUP5 DUP5 ADD DUP6 DUP4 ADD CALLDATACOPY PUSH1 0x0 SWAP2 DUP2 ADD DUP5 ADD SWAP2 SWAP1 SWAP2 MSTORE SWAP2 DUP4 ADD SWAP2 SWAP1 SWAP2 MSTORE POP SWAP3 SWAP2 POP POP JUMP JUMPDEST PUSH1 0x0 DUP1 DUP4 CALLDATALOAD PUSH1 0x1E NOT DUP5 CALLDATASIZE SUB ADD DUP2 SLT PUSH2 0x13E9 JUMPI PUSH1 0x0 DUP1 REVERT JUMPDEST DUP4 ADD DUP1 CALLDATALOAD SWAP2 POP PUSH1 0x1 PUSH1 0x1 PUSH1 0x40 SHL SUB DUP3 GT ISZERO PUSH2 0x1403 JUMPI PUSH1 0x0 DUP1 REVERT JUMPDEST PUSH1 0x20 ADD SWAP2 POP CALLDATASIZE DUP2 SWAP1 SUB DUP3 SGT ISZERO PUSH2 0x1418 JUMPI PUSH1 0x0 DUP1 REVERT JUMPDEST SWAP3 POP SWAP3 SWAP1 POP JUMP JUMPDEST PUSH1 0x20 DUP1 DUP3 MSTORE PUSH1 0x3F SWAP1 DUP3 ADD MSTORE PUSH32 0x5468697320494420646F6573206E6F742062656C6F6E6720746F20616E206163 PUSH1 0x40 DUP3 ADD MSTORE PUSH32 0x7469766520726571756573742077697468696E207468697320636C69656E7400 PUSH1 0x60 DUP3 ADD MSTORE PUSH1 0x80 ADD SWAP1 JUMP JUMPDEST PUSH1 0x0 DUP3 PUSH1 0x1F DUP4 ADD SLT PUSH2 0x148D JUMPI PUSH1 0x0 DUP1 REVERT JUMPDEST DUP2 MLOAD PUSH2 0x149B PUSH2 0x1398 DUP3 PUSH2 0x131A JUMP JUMPDEST DUP2 DUP2 MSTORE DUP5 PUSH1 0x20 DUP4 DUP7 ADD ADD GT ISZERO PUSH2 0x14B0 JUMPI PUSH1 0x0 DUP1 REVERT JUMPDEST PUSH2 0x119F DUP3 PUSH1 0x20 DUP4 ADD PUSH1 0x20 DUP8 ADD PUSH2 0x1101 JUMP JUMPDEST PUSH1 0x0 PUSH1 0x40 DUP3 DUP5 SUB SLT ISZERO PUSH2 0x14D3 JUMPI PUSH1 0x0 DUP1 REVERT JUMPDEST PUSH2 0x14DB PUSH2 0x129F JUMP JUMPDEST SWAP1 POP DUP2 MLOAD DUP2 MSTORE PUSH1 0x20 DUP3 ADD MLOAD PUSH1 0x1 PUSH1 0x1 PUSH1 0x40 SHL SUB DUP2 GT ISZERO PUSH2 0x14FA JUMPI PUSH1 0x0 DUP1 REVERT JUMPDEST PUSH2 0x1506 DUP5 DUP3 DUP6 ADD PUSH2 0x147C JUMP JUMPDEST PUSH1 0x20 DUP4 ADD MSTORE POP SWAP3 SWAP2 POP POP JUMP JUMPDEST PUSH1 0x1 PUSH1 0x1 PUSH1 0xA0 SHL SUB DUP2 AND DUP2 EQ PUSH2 0x1527 JUMPI PUSH1 0x0 DUP1 REVERT JUMPDEST POP JUMP JUMPDEST DUP1 MLOAD PUSH2 0x380 DUP2 PUSH2 0x1512 JUMP JUMPDEST PUSH1 0x0 PUSH1 0x40 DUP3 DUP5 SUB SLT ISZERO PUSH2 0x1547 JUMPI PUSH1 0x0 DUP1 REVERT JUMPDEST PUSH2 0x154F PUSH2 0x129F JUMP JUMPDEST SWAP1 POP DUP2 MLOAD PUSH2 0x155C DUP2 PUSH2 0x1512 JUMP JUMPDEST DUP1 DUP3 MSTORE POP PUSH1 0x20 DUP3 ADD MLOAD PUSH1 0x20 DUP3 ADD MSTORE SWAP3 SWAP2 POP POP JUMP JUMPDEST DUP1 MLOAD DUP1 ISZERO ISZERO DUP2 EQ PUSH2 0x380 JUMPI PUSH1 0x0 DUP1 REVERT JUMPDEST PUSH1 0x0 PUSH1 0x80 DUP3 DUP5 SUB SLT ISZERO PUSH2 0x1592 JUMPI PUSH1 0x0 DUP1 REVERT JUMPDEST PUSH1 0x40 MLOAD PUSH1 0x80 DUP2 ADD PUSH1 0x1 PUSH1 0x1 PUSH1 0x40 SHL SUB DUP3 DUP3 LT DUP2 DUP4 GT OR ISZERO PUSH2 0x15B5 JUMPI PUSH2 0x15B5 PUSH2 0x1289 JUMP JUMPDEST DUP2 PUSH1 0x40 MSTORE DUP3 SWAP4 POP DUP5 MLOAD SWAP2 POP PUSH2 0x15C9 DUP3 PUSH2 0x1512 JUMP JUMPDEST DUP2 DUP4 MSTORE PUSH1 0x20 DUP6 ADD MLOAD PUSH1 0x20 DUP5 ADD MSTORE PUSH1 0x40 DUP6 ADD MLOAD SWAP2 POP DUP1 DUP3 GT ISZERO PUSH2 0x15EA JUMPI PUSH1 0x0 DUP1 REVERT JUMPDEST POP PUSH2 0x15F7 DUP6 DUP3 DUP7 ADD PUSH2 0x147C JUMP JUMPDEST PUSH1 0x40 DUP4 ADD MSTORE POP PUSH2 0x1609 PUSH1 0x60 DUP5 ADD PUSH2 0x1570 JUMP JUMPDEST PUSH1 0x60 DUP3 ADD MSTORE POP SWAP3 SWAP2 POP POP JUMP JUMPDEST PUSH1 0x0 PUSH1 0x20 DUP3 DUP5 SUB SLT ISZERO PUSH2 0x1627 JUMPI PUSH1 0x0 DUP1 REVERT JUMPDEST DUP2 MLOAD PUSH1 0x1 PUSH1 0x1 PUSH1 0x40 SHL SUB DUP1 DUP3 GT ISZERO PUSH2 0x163E JUMPI PUSH1 0x0 DUP1 REVERT JUMPDEST SWAP1 DUP4 ADD SWAP1 PUSH2 0x160 DUP3 DUP7 SUB SLT ISZERO PUSH2 0x1653 JUMPI PUSH1 0x0 DUP1 REVERT JUMPDEST PUSH2 0x165B PUSH2 0x12C7 JUMP JUMPDEST DUP3 MLOAD DUP2 MSTORE PUSH1 0x20 DUP4 ADD MLOAD DUP3 DUP2 GT ISZERO PUSH2 0x1671 JUMPI PUSH1 0x0 DUP1 REVERT JUMPDEST PUSH2 0x167D DUP8 DUP3 DUP7 ADD PUSH2 0x14C1 JUMP JUMPDEST PUSH1 0x20 DUP4 ADD MSTORE POP PUSH1 0x40 DUP4 ADD MLOAD PUSH1 0x40 DUP3 ADD MSTORE PUSH1 0x60 DUP4 ADD MLOAD PUSH1 0x60 DUP3 ADD MSTORE PUSH1 0x80 DUP4 ADD MLOAD PUSH1 0x80 DUP3 ADD MSTORE PUSH1 0xA0 DUP4 ADD MLOAD PUSH1 0xA0 DUP3 ADD MSTORE PUSH2 0x16B7 PUSH1 0xC0 DUP5 ADD PUSH2 0x152A JUMP JUMPDEST PUSH1 0xC0 DUP3 ADD MSTORE PUSH2 0x16C9 DUP7 PUSH1 0xE0 DUP6 ADD PUSH2 0x1535 JUMP JUMPDEST PUSH1 0xE0 DUP3 ADD MSTORE PUSH2 0x120 DUP1 DUP5 ADD MLOAD DUP4 DUP2 GT ISZERO PUSH2 0x16E2 JUMPI PUSH1 0x0 DUP1 REVERT JUMPDEST PUSH2 0x16EE DUP9 DUP3 DUP8 ADD PUSH2 0x1580 JUMP JUMPDEST PUSH2 0x100 DUP5 ADD MSTORE POP PUSH2 0x1702 PUSH2 0x140 DUP6 ADD PUSH2 0x1570 JUMP JUMPDEST SWAP1 DUP3 ADD MSTORE SWAP6 SWAP5 POP POP POP POP POP JUMP JUMPDEST PUSH1 0x0 PUSH1 0x20 DUP3 DUP5 SUB SLT ISZERO PUSH2 0x1721 JUMPI PUSH1 0x0 DUP1 REVERT JUMPDEST PUSH2 0x1164 DUP3 PUSH2 0x1570 JUMP JUMPDEST PUSH1 0x0 DUP3 MLOAD PUSH2 0x173C DUP2 DUP5 PUSH1 0x20 DUP8 ADD PUSH2 0x1101 JUMP JUMPDEST SWAP2 SWAP1 SWAP2 ADD SWAP3 SWAP2 POP POP JUMP JUMPDEST DUP1 DUP3 ADD DUP1 DUP3 GT ISZERO PUSH2 0x63D JUMPI PUSH4 0x4E487B71 PUSH1 0xE0 SHL PUSH1 0x0 MSTORE PUSH1 0x11 PUSH1 0x4 MSTORE PUSH1 0x24 PUSH1 0x0 REVERT JUMPDEST PUSH1 0x80 DUP2 MSTORE DUP5 MLOAD PUSH1 0x80 DUP3 ADD MSTORE PUSH1 0x0 PUSH1 0x20 DUP7 ADD MLOAD PUSH1 0x40 PUSH1 0xA0 DUP5 ADD MSTORE PUSH2 0x178D PUSH1 0xC0 DUP5 ADD DUP3 PUSH2 0x1125 JUMP JUMPDEST PUSH1 0x20 DUP5 ADD SWAP7 SWAP1 SWAP7 MSTORE POP POP PUSH1 0x40 DUP2 ADD SWAP3 SWAP1 SWAP3 MSTORE PUSH1 0x60 SWAP1 SWAP2 ADD MSTORE SWAP2 SWAP1 POP JUMP JUMPDEST PUSH1 0x0 PUSH1 0x20 DUP3 DUP5 SUB SLT ISZERO PUSH2 0x17BC JUMPI PUSH1 0x0 DUP1 REVERT JUMPDEST POP MLOAD SWAP2 SWAP1 POP JUMP JUMPDEST PUSH1 0x0 PUSH1 0x20 DUP3 DUP5 SUB SLT ISZERO PUSH2 0x17D5 JUMPI PUSH1 0x0 DUP1 REVERT JUMPDEST PUSH1 0x40 MLOAD PUSH1 0x20 DUP2 ADD DUP2 DUP2 LT PUSH1 0x1 PUSH1 0x1 PUSH1 0x40 SHL SUB DUP3 GT OR ISZERO PUSH2 0x17F7 JUMPI PUSH2 0x17F7 PUSH2 0x1289 JUMP JUMPDEST PUSH1 0x40 MSTORE SWAP2 MLOAD DUP3 MSTORE POP SWAP2 SWAP1 POP JUMP JUMPDEST PUSH1 0x0 PUSH1 0x20 DUP3 DUP5 SUB SLT ISZERO PUSH2 0x1816 JUMPI PUSH1 0x0 DUP1 REVERT JUMPDEST PUSH2 0x1164 DUP4 DUP4 PUSH2 0x17C3 JUMP JUMPDEST PUSH4 0x4E487B71 PUSH1 0xE0 SHL PUSH1 0x0 MSTORE PUSH1 0x12 PUSH1 0x4 MSTORE PUSH1 0x24 PUSH1 0x0 REVERT JUMPDEST PUSH1 0x0 DUP3 PUSH2 0x1845 JUMPI PUSH2 0x1845 PUSH2 0x1820 JUMP JUMPDEST POP MOD SWAP1 JUMP JUMPDEST PUSH1 0x0 DUP3 PUSH2 0x1859 JUMPI PUSH2 0x1859 PUSH2 0x1820 JUMP JUMPDEST POP DIV SWAP1 JUMP INVALID LOG2 PUSH5 0x6970667358 0x22 SLT KECCAK256 0xCA 0xCA 0xBB 0x2D 0x25 PUSH26 0x28898D2479027FDD3DAA1AE3FB0A01A7FC07FAA5E0F688984ED7 PUSH5 0x736F6C6343 STOP ADDMOD SGT STOP CALLER ",
  "sha1": "8058b805266ea6b070838a6089850ca0c1befb0a",
  "source": "// SPDX-License-Identifier: GPL-3.0\n\npragma solidity >=0.7.0 <0.9.0;\n\nimport \"./BaseClient.sol\";\n\n\ncontract PrimeFinder is BaseClient {\n\n    uint[] public PRIMES;\n\n    constructor(address brokerAddress) BaseClient(brokerAddress) {\n        PRIMES.push(2);\n    }\n\n    function getPrimes() public view returns (uint[] memory) {\n        return PRIMES;\n    }\n\n    function getPrimesLength() public view returns (uint) {\n        return PRIMES.length;\n    }\n\n    function clientLogic(ClientInput calldata input) external override pure returns (bytes memory) {\n        bytes memory output = \"\";\n        if (input.functionToRun == 1) { output = _getPrime(input.data); }\n        else if (input.functionToRun == 2) {output = _isPrime(input.data); }\n        return output;\n    }\n\n    struct OneInput {uint startPoint;}\n    function _getPrime(bytes memory data) private pure returns (bytes memory) {\n        uint i;\n        uint batchSize = 10;\n        OneInput memory input = abi.decode(data, (OneInput));\n        for (i = input.startPoint | 1; i < input.startPoint + batchSize; i += 2) {\n            if (abi.decode(_isPrime(abi.encode(TwoInput({number: i}))), (bool))) {\n                return abi.encode(i);\n            }\n        }\n        return abi.encode(i);\n    }\n\n    struct TwoInput {uint number;}\n    function _isPrime(bytes memory data) private pure returns (bytes memory) {\n        TwoInput memory input = abi.decode(data, (TwoInput));\n        if (input.number < 2 || (input.number % 2 == 0 && input.number > 2)) {\n            return abi.encode(false);\n        }\n        for (uint i = 3; i < input.number/2; i += 2) {\n            if (input.number % i == 0) {\n                return abi.encode(false);\n            }\n        }\n        return abi.encode(true);\n    }\n\n    function getInputStructure(uint functionID) external override pure returns (string memory) {\n        if (functionID == 1) { return \"{uint startPoint;}\"; }\n        else if (functionID == 2) { return \"{uint number;}\"; }\n        else { revert(\"Invalid function ID\"); }\n    }\n\n    function processResult(bytes calldata result) public override onlyClient {\n        require(address(this).balance >= 10000 gwei, \"Insufficient funds\");\n        uint number = abi.decode(result, (uint));\n        ClientInput memory input = ClientInput({\n            functionToRun: 1,\n            data: abi.encode(OneInput({startPoint: number + 1}))\n        });\n        _submitRequest(10000 gwei, input, 1000 gwei, 200000 gwei, 0 seconds);\n        if (abi.decode(_isPrime(abi.encode(TwoInput({number: number}))), (bool))) {\n            PRIMES.push(number);\n        }\n    }\n}",
  "sourcePath": "contracts/PrimeFinder.sol",
  "type": "contract"
}