{
  "abi": [
    {
      "inputs": [
        {
          "internalType": "uint256",
          "name": "amount",
          "type": "uint256"
        },
        {
          "internalType": "address",
          "name": "destination",
          "type": "address"
        }
      ],
      "name": "publicTransferFunds",
      "outputs": [
        {
          "internalType": "bool",
          "name": "",
          "type": "bool"
        }
      ],
      "stateMutability": "nonpayable",
      "type": "function"
    },
    {
      "inputs": [
        {
          "internalType": "address",
          "name": "",
          "type": "address"
        }
      ],
      "name": "weiBalances",
      "outputs": [
        {
          "internalType": "uint256",
          "name": "",
          "type": "uint256"
        }
      ],
      "stateMutability": "view",
      "type": "function"
    }
  ],
  "bytecode": "608060405234801561001057600080fd5b50610291806100206000396000f3fe608060405234801561001057600080fd5b50600436106100365760003560e01c80630d45c1991461003b5780636ef9e14514610063575b600080fd5b61004e6100493660046101d1565b610091565b60405190151581526020015b60405180910390f35b6100836100713660046101fd565b60006020819052908152604090205481565b60405190815260200161005a565b336000908152602081905260408120548311156100fe5760405162461bcd60e51b815260206004820152602160248201527f53656e64657220646f6573206e6f74206861766520656e6f7567682066756e646044820152607360f81b606482015260840160405180910390fd5b336000908152602081905260408120805485929061011d908490610235565b909155505060405182906000906001600160a01b0383169086908381818185875af1925050503d806000811461016f576040519150601f19603f3d011682016040523d82523d6000602084013e610174565b606091505b50509050806101ab576001600160a01b038416600090815260208190526040812080548792906101a5908490610248565b90915550505b9150505b92915050565b80356001600160a01b03811681146101cc57600080fd5b919050565b600080604083850312156101e457600080fd5b823591506101f4602084016101b5565b90509250929050565b60006020828403121561020f57600080fd5b610218826101b5565b9392505050565b634e487b7160e01b600052601160045260246000fd5b818103818111156101af576101af61021f565b808201808211156101af576101af61021f56fea264697066735822122042615ca750fa7105cf84289330f75043f91aaee98fc8a8c4537edaf835d2903e64736f6c63430008110033",
  "bytecodeSha1": "46d8302b7b373057f7bb873d07b598531307e853",
  "compiler": {
    "evm_version": "istanbul",
    "optimizer": {
      "enabled": true,
      "runs": 200
    },
    "version": "0.8.17+commit.8df45f5f"
  },
  "contractName": "Transferable",
  "language": "Solidity",
  "natspec": {
    "kind": "dev",
    "methods": {},
    "version": 1
  },
  "opcodes": "PUSH1 0x80 PUSH1 0x40 MSTORE CALLVALUE DUP1 ISZERO PUSH2 0x10 JUMPI PUSH1 0x0 DUP1 REVERT JUMPDEST POP PUSH1 0x4 CALLDATASIZE LT PUSH2 0x36 JUMPI PUSH1 0x0 CALLDATALOAD PUSH1 0xE0 SHR DUP1 PUSH4 0xD45C199 EQ PUSH2 0x3B JUMPI DUP1 PUSH4 0x6EF9E145 EQ PUSH2 0x63 JUMPI JUMPDEST PUSH1 0x0 DUP1 REVERT JUMPDEST PUSH2 0x4E PUSH2 0x49 CALLDATASIZE PUSH1 0x4 PUSH2 0x1D1 JUMP JUMPDEST PUSH2 0x91 JUMP JUMPDEST PUSH1 0x40 MLOAD SWAP1 ISZERO ISZERO DUP2 MSTORE PUSH1 0x20 ADD JUMPDEST PUSH1 0x40 MLOAD DUP1 SWAP2 SUB SWAP1 RETURN JUMPDEST PUSH2 0x83 PUSH2 0x71 CALLDATASIZE PUSH1 0x4 PUSH2 0x1FD JUMP JUMPDEST PUSH1 0x0 PUSH1 0x20 DUP2 SWAP1 MSTORE SWAP1 DUP2 MSTORE PUSH1 0x40 SWAP1 KECCAK256 SLOAD DUP2 JUMP JUMPDEST PUSH1 0x40 MLOAD SWAP1 DUP2 MSTORE PUSH1 0x20 ADD PUSH2 0x5A JUMP JUMPDEST CALLER PUSH1 0x0 SWAP1 DUP2 MSTORE PUSH1 0x20 DUP2 SWAP1 MSTORE PUSH1 0x40 DUP2 KECCAK256 SLOAD DUP4 GT ISZERO PUSH2 0xFE JUMPI PUSH1 0x40 MLOAD PUSH3 0x461BCD PUSH1 0xE5 SHL DUP2 MSTORE PUSH1 0x20 PUSH1 0x4 DUP3 ADD MSTORE PUSH1 0x21 PUSH1 0x24 DUP3 ADD MSTORE PUSH32 0x53656E64657220646F6573206E6F74206861766520656E6F7567682066756E64 PUSH1 0x44 DUP3 ADD MSTORE PUSH1 0x73 PUSH1 0xF8 SHL PUSH1 0x64 DUP3 ADD MSTORE PUSH1 0x84 ADD PUSH1 0x40 MLOAD DUP1 SWAP2 SUB SWAP1 REVERT JUMPDEST CALLER PUSH1 0x0 SWAP1 DUP2 MSTORE PUSH1 0x20 DUP2 SWAP1 MSTORE PUSH1 0x40 DUP2 KECCAK256 DUP1 SLOAD DUP6 SWAP3 SWAP1 PUSH2 0x11D SWAP1 DUP5 SWAP1 PUSH2 0x235 JUMP JUMPDEST SWAP1 SWAP2 SSTORE POP POP PUSH1 0x40 MLOAD DUP3 SWAP1 PUSH1 0x0 SWAP1 PUSH1 0x1 PUSH1 0x1 PUSH1 0xA0 SHL SUB DUP4 AND SWAP1 DUP7 SWAP1 DUP4 DUP2 DUP2 DUP2 DUP6 DUP8 GAS CALL SWAP3 POP POP POP RETURNDATASIZE DUP1 PUSH1 0x0 DUP2 EQ PUSH2 0x16F JUMPI PUSH1 0x40 MLOAD SWAP2 POP PUSH1 0x1F NOT PUSH1 0x3F RETURNDATASIZE ADD AND DUP3 ADD PUSH1 0x40 MSTORE RETURNDATASIZE DUP3 MSTORE RETURNDATASIZE PUSH1 0x0 PUSH1 0x20 DUP5 ADD RETURNDATACOPY PUSH2 0x174 JUMP JUMPDEST PUSH1 0x60 SWAP2 POP JUMPDEST POP POP SWAP1 POP DUP1 PUSH2 0x1AB JUMPI PUSH1 0x1 PUSH1 0x1 PUSH1 0xA0 SHL SUB DUP5 AND PUSH1 0x0 SWAP1 DUP2 MSTORE PUSH1 0x20 DUP2 SWAP1 MSTORE PUSH1 0x40 DUP2 KECCAK256 DUP1 SLOAD DUP8 SWAP3 SWAP1 PUSH2 0x1A5 SWAP1 DUP5 SWAP1 PUSH2 0x248 JUMP JUMPDEST SWAP1 SWAP2 SSTORE POP POP JUMPDEST SWAP2 POP POP JUMPDEST SWAP3 SWAP2 POP POP JUMP JUMPDEST DUP1 CALLDATALOAD PUSH1 0x1 PUSH1 0x1 PUSH1 0xA0 SHL SUB DUP2 AND DUP2 EQ PUSH2 0x1CC JUMPI PUSH1 0x0 DUP1 REVERT JUMPDEST SWAP2 SWAP1 POP JUMP JUMPDEST PUSH1 0x0 DUP1 PUSH1 0x40 DUP4 DUP6 SUB SLT ISZERO PUSH2 0x1E4 JUMPI PUSH1 0x0 DUP1 REVERT JUMPDEST DUP3 CALLDATALOAD SWAP2 POP PUSH2 0x1F4 PUSH1 0x20 DUP5 ADD PUSH2 0x1B5 JUMP JUMPDEST SWAP1 POP SWAP3 POP SWAP3 SWAP1 POP JUMP JUMPDEST PUSH1 0x0 PUSH1 0x20 DUP3 DUP5 SUB SLT ISZERO PUSH2 0x20F JUMPI PUSH1 0x0 DUP1 REVERT JUMPDEST PUSH2 0x218 DUP3 PUSH2 0x1B5 JUMP JUMPDEST SWAP4 SWAP3 POP POP POP JUMP JUMPDEST PUSH4 0x4E487B71 PUSH1 0xE0 SHL PUSH1 0x0 MSTORE PUSH1 0x11 PUSH1 0x4 MSTORE PUSH1 0x24 PUSH1 0x0 REVERT JUMPDEST DUP2 DUP2 SUB DUP2 DUP2 GT ISZERO PUSH2 0x1AF JUMPI PUSH2 0x1AF PUSH2 0x21F JUMP JUMPDEST DUP1 DUP3 ADD DUP1 DUP3 GT ISZERO PUSH2 0x1AF JUMPI PUSH2 0x1AF PUSH2 0x21F JUMP INVALID LOG2 PUSH5 0x6970667358 0x22 SLT KECCAK256 TIMESTAMP PUSH2 0x5CA7 POP STATICCALL PUSH18 0x5CF84289330F75043F91AAEE98FC8A8C453 PUSH31 0xDAF835D2903E64736F6C634300081100330000000000000000000000000000 ",
  "sha1": "126a45bd4028ccae9e763487bc555f4c367ab1de",
  "source": "// SPDX-License-Identifier: GPL-3.0\n\npragma solidity >=0.7.0 <0.9.0;\n\n// This contract is a safeguard to avoid funds being locked in a contract, if the receiver of funds has an error in their receive or fallback function, they can transfer the funds to another account\ncontract Transferable {\n\n    mapping(address => uint) public weiBalances;\n\n    // To be used by consumers to retrieve locked funds\n    function publicTransferFunds(uint amount, address destination) public returns (bool) {\n        require(weiBalances[msg.sender] >= amount, \"Sender does not have enough funds\");\n        weiBalances[msg.sender] -= amount;\n        address payable payee = payable(destination);\n        (bool transferSuccess, ) = payee.call{value: amount}(\"\");\n        if (!transferSuccess) {  // if I cant send them the funds, make them available for the payee to perform a transfer\n            weiBalances[destination] += amount;\n        }\n        return transferSuccess;\n    }\n\n    // To be used by child contracts to attempt fund transfers\n    function internalTransferFunds(uint amount, address destination) internal returns (bool) {\n        weiBalances[msg.sender] += amount;\n        return publicTransferFunds(amount, destination);\n    }\n}",
  "sourcePath": "contracts/Transferable.sol",
  "type": "contract"
}