{
  "abi": [
    {
      "inputs": [
        {
          "internalType": "address",
          "name": "brokerAddress",
          "type": "address"
        },
        {
          "internalType": "address",
          "name": "apiProviderAddress",
          "type": "address"
        }
      ],
      "stateMutability": "nonpayable",
      "type": "constructor"
    },
    {
      "anonymous": false,
      "inputs": [
        {
          "indexed": false,
          "internalType": "uint256",
          "name": "requestID",
          "type": "uint256"
        }
      ],
      "name": "requestSubmitted",
      "type": "event"
    },
    {
      "anonymous": false,
      "inputs": [
        {
          "indexed": false,
          "internalType": "uint256",
          "name": "requestID",
          "type": "uint256"
        },
        {
          "indexed": false,
          "internalType": "bool",
          "name": "success",
          "type": "bool"
        }
      ],
      "name": "resultPostProcessed",
      "type": "event"
    },
    {
      "inputs": [],
      "name": "brokerContract",
      "outputs": [
        {
          "internalType": "contract ExecutionBroker",
          "name": "",
          "type": "address"
        }
      ],
      "stateMutability": "view",
      "type": "function"
    },
    {
      "inputs": [
        {
          "internalType": "uint256",
          "name": "requestID",
          "type": "uint256"
        }
      ],
      "name": "cancelRequest",
      "outputs": [],
      "stateMutability": "nonpayable",
      "type": "function"
    },
    {
      "inputs": [
        {
          "internalType": "bytes",
          "name": "inputData",
          "type": "bytes"
        },
        {
          "internalType": "bytes",
          "name": "resultData",
          "type": "bytes"
        }
      ],
      "name": "checkResult",
      "outputs": [
        {
          "internalType": "bool",
          "name": "",
          "type": "bool"
        }
      ],
      "stateMutability": "view",
      "type": "function"
    },
    {
      "inputs": [],
      "name": "getInputDataStructure",
      "outputs": [
        {
          "internalType": "string",
          "name": "",
          "type": "string"
        }
      ],
      "stateMutability": "pure",
      "type": "function"
    },
    {
      "inputs": [],
      "name": "getResultDataStructure",
      "outputs": [
        {
          "internalType": "string",
          "name": "",
          "type": "string"
        }
      ],
      "stateMutability": "pure",
      "type": "function"
    },
    {
      "inputs": [],
      "name": "isOwner",
      "outputs": [
        {
          "internalType": "bool",
          "name": "",
          "type": "bool"
        }
      ],
      "stateMutability": "view",
      "type": "function"
    },
    {
      "inputs": [],
      "name": "owner",
      "outputs": [
        {
          "internalType": "address",
          "name": "",
          "type": "address"
        }
      ],
      "stateMutability": "view",
      "type": "function"
    },
    {
      "inputs": [
        {
          "internalType": "bytes",
          "name": "resultData",
          "type": "bytes"
        }
      ],
      "name": "processResult",
      "outputs": [],
      "stateMutability": "nonpayable",
      "type": "function"
    },
    {
      "inputs": [],
      "name": "provider",
      "outputs": [
        {
          "internalType": "contract APIProvider",
          "name": "",
          "type": "address"
        }
      ],
      "stateMutability": "view",
      "type": "function"
    },
    {
      "inputs": [],
      "name": "sendFunds",
      "outputs": [],
      "stateMutability": "payable",
      "type": "function"
    },
    {
      "inputs": [
        {
          "internalType": "uint256",
          "name": "payment",
          "type": "uint256"
        },
        {
          "internalType": "bytes",
          "name": "input",
          "type": "bytes"
        },
        {
          "internalType": "uint256",
          "name": "postProcessingGas",
          "type": "uint256"
        }
      ],
      "name": "submitRequest",
      "outputs": [
        {
          "internalType": "uint256",
          "name": "",
          "type": "uint256"
        }
      ],
      "stateMutability": "payable",
      "type": "function"
    },
    {
      "inputs": [
        {
          "internalType": "uint256",
          "name": "payment",
          "type": "uint256"
        },
        {
          "internalType": "bytes",
          "name": "input",
          "type": "bytes"
        }
      ],
      "name": "submitRequest",
      "outputs": [
        {
          "internalType": "uint256",
          "name": "",
          "type": "uint256"
        }
      ],
      "stateMutability": "payable",
      "type": "function"
    },
    {
      "inputs": [
        {
          "internalType": "uint256",
          "name": "requestID",
          "type": "uint256"
        },
        {
          "internalType": "bytes",
          "name": "result",
          "type": "bytes"
        }
      ],
      "name": "submitResult",
      "outputs": [
        {
          "internalType": "bool",
          "name": "",
          "type": "bool"
        }
      ],
      "stateMutability": "nonpayable",
      "type": "function"
    },
    {
      "inputs": [
        {
          "internalType": "uint256",
          "name": "value",
          "type": "uint256"
        }
      ],
      "name": "withdrawFunds",
      "outputs": [
        {
          "internalType": "bool",
          "name": "",
          "type": "bool"
        }
      ],
      "stateMutability": "nonpayable",
      "type": "function"
    }
  ],
  "bytecode": "608060405234801561001057600080fd5b5060405161160038038061160083398101604081905261002f91610087565b600080546001600160a01b03199081163317909155600180546001600160a01b03948516908316179055600380549290931691161790556100ba565b80516001600160a01b038116811461008257600080fd5b919050565b6000806040838503121561009a57600080fd5b6100a38361006b565b91506100b16020840161006b565b90509250929050565b611537806100c96000396000f3fe6080604052600436106100dd5760003560e01c8063877f0ad01161007f5780638f32d59b116100595780638f32d59b14610247578063c2c5624514610267578063c91c7b3714610287578063cb392747146102a757600080fd5b8063877f0ad0146102165780638d68cf59146101be5780638da5cb5b1461022957600080fd5b80633015394c116100bb5780633015394c1461019e57806343bb58de146101c057806349875db2146101e15780638244741c1461020157600080fd5b8063085d4883146100e2578063155dd5ee1461011f5780632896de131461014f575b600080fd5b3480156100ee57600080fd5b50600354610102906001600160a01b031681565b6040516001600160a01b0390911681526020015b60405180910390f35b34801561012b57600080fd5b5061013f61013a366004610d6d565b6102c7565b6040519015158152602001610116565b34801561015b57600080fd5b5060408051808201909152601781527f7b737472696e67206170694964656e7469666965723b7d00000000000000000060208201525b6040516101169190610dd6565b3480156101aa57600080fd5b506101be6101b9366004610d6d565b610396565b005b6101d36101ce366004610edd565b610433565b604051908152602001610116565b3480156101ed57600080fd5b5061013f6101fc366004610f74565b610471565b34801561020d57600080fd5b50610191610829565b6101d3610224366004610fbf565b610849565b34801561023557600080fd5b506000546001600160a01b0316610102565b34801561025357600080fd5b506000546001600160a01b0316331461013f565b34801561027357600080fd5b50600154610102906001600160a01b031681565b34801561029357600080fd5b5061013f6102a2366004611005565b610887565b3480156102b357600080fd5b506101be6102c2366004611070565b61092f565b600080546001600160a01b031633146102fb5760405162461bcd60e51b81526004016102f2906110b1565b60405180910390fd5b814710156103405760405162461bcd60e51b8152602060048201526012602482015271496e73756666696369656e742066756e647360701b60448201526064016102f2565b6040513390600090829085908381818185875af1925050503d8060008114610384576040519150601f19603f3d011682016040523d82523d6000602084013e610389565b606091505b509093505050505b919050565b6000546001600160a01b031633146103c05760405162461bcd60e51b81526004016102f2906110b1565b600154604051630c054e5360e21b8152600481018390526001600160a01b0390911690633015394c906024016020604051808303816000875af115801561040b573d6000803e3d6000fd5b505050506040513d601f19601f8201168201806040525081019061042f9190611106565b5050565b600080546001600160a01b0316331461045e5760405162461bcd60e51b81526004016102f2906110b1565b610469848484610996565b949350505050565b60008381526002602052604081205460ff1615156001146104fa5760405162461bcd60e51b815260206004820152603f60248201527f5468697320494420646f6573206e6f742062656c6f6e6720746f20616e20616360448201527f7469766520726571756573742077697468696e207468697320636c69656e740060648201526084016102f2565b60015460405163c58343ef60e01b8152600481018690526000916001600160a01b03169063c58343ef90602401600060405180830381865afa158015610544573d6000803e3d6000fd5b505050506040513d6000823e601f3d908101601f1916820160405261056c9190810190611189565b60a08101519091506001600160a01b03166105d55760405162461bcd60e51b8152602060048201526024808201527f596f75206e65656420746f2061636365707420746865207265717565737420666044820152631a5c9cdd60e21b60648201526084016102f2565b610100810151156106285760405162461bcd60e51b815260206004820152601d60248201527f546865207265717565737420697320616c726561647920636c6f73656400000060448201526064016102f2565b60a08101516001600160a01b031633146106925760405162461bcd60e51b815260206004820152602560248201527f536f6d656f6e6520656c736520686173206163636570746564207468652052656044820152641c5d595cdd60da1b60648201526084016102f2565b6001546040516324c3aed960e11b81526000916001600160a01b0316906349875db2906106c7908990899089906004016112a3565b6020604051808303816000875af11580156106e6573d6000803e3d6000fd5b505050506040513d601f19601f8201168201806040525081019061070a9190611106565b9050801561082057600086815260026020526040808220805460ff191690555163cb39274760e01b9061074390889088906024016112bd565b604051602081830303815290604052906001600160e01b0319166020820180516001600160e01b0383818316178352505050509050600083608001516001600160a01b031684606001518360405161079b91906112d1565b60006040518083038160008787f1925050503d80600081146107d9576040519150601f19603f3d011682016040523d82523d6000602084013e6107de565b606091505b5050604080518a815282151560208201529192507fa531c8f4bbf2a18049d85528bb5aaae66874af94bcb325738ee729a2b6cf8428910160405180910390a150505b95945050505050565b60606040518060600160405280602281526020016114e060229139905090565b600080546001600160a01b031633146108745760405162461bcd60e51b81526004016102f2906110b1565b61088083836000610433565b9392505050565b600080610896858701876112ed565b905060006108a684860186611386565b600354835160405163bf40fac160e01b81529293506109249284926001600160a01b03169163bf40fac1916108de9190600401610dd6565b602060405180830381865afa1580156108fb573d6000803e3d6000fd5b505050506040513d601f19601f8201168201806040525081019061091f919061142c565b610ab2565b979650505050505050565b33301461042f5760405162461bcd60e51b815260206004820152602f60248201527f46756e6374696f6e2061636365737369626c65206f6e6c79206279207468652060448201526e31b7b73a3930b1ba1034ba39b2b63360891b60648201526084016102f2565b6000478411156109dd5760405162461bcd60e51b8152602060048201526012602482015271496e73756666696369656e742066756e647360701b60448201526064016102f2565b6001546040516378f8af2560e11b81526000916001600160a01b03169063f1f15e4a908790610a129088908890600401611449565b60206040518083038185885af1158015610a30573d6000803e3d6000fd5b50505050506040513d601f19601f82011682018060405250810190610a55919061146b565b90507fd3b0b0209035a5613265e8fb1f38873ea24c7c6189b128eebe3689c03d13905c81604051610a8891815260200190565b60405180910390a16000818152600260205260409020805460ff1916600117905590509392505050565b600080610ac3846000015151610b8e565b8451604051610ad6929190602001611484565b6040516020818303038152906040528051906020012090506000806000610b008760200151610c20565b925092509250856001600160a01b031660018583868660405160008152602001604052604051610b4c949392919093845260ff9290921660208401526040830152606082015260800190565b6020604051602081039080840390855afa158015610b6e573d6000803e3d6000fd5b505050602060405103516001600160a01b03161494505050505092915050565b60606000610b9b83610c94565b60010190506000816001600160401b03811115610bba57610bba610de9565b6040519080825280601f01601f191660200182016040528015610be4576020820181803683370190505b5090508181016020015b600019016f181899199a1a9b1b9c1cb0b131b232b360811b600a86061a8153600a8504945084610bee57509392505050565b60008060008351604114610c765760405162461bcd60e51b815260206004820152601860248201527f696e76616c6964207369676e6174757265206c656e677468000000000000000060448201526064016102f2565b50505060208101516040820151606090920151909260009190911a90565b60008072184f03e93ff9f4daa797ed6e38ed64bf6a1f0160401b8310610cd35772184f03e93ff9f4daa797ed6e38ed64bf6a1f0160401b830492506040015b6d04ee2d6d415b85acef81000000008310610cff576d04ee2d6d415b85acef8100000000830492506020015b662386f26fc100008310610d1d57662386f26fc10000830492506010015b6305f5e1008310610d35576305f5e100830492506008015b6127108310610d4957612710830492506004015b60648310610d5b576064830492506002015b600a8310610d67576001015b92915050565b600060208284031215610d7f57600080fd5b5035919050565b60005b83811015610da1578181015183820152602001610d89565b50506000910152565b60008151808452610dc2816020860160208601610d86565b601f01601f19169290920160200192915050565b6020815260006108806020830184610daa565b634e487b7160e01b600052604160045260246000fd5b60405161012081016001600160401b0381118282101715610e2257610e22610de9565b60405290565b604051601f8201601f191681016001600160401b0381118282101715610e5057610e50610de9565b604052919050565b60006001600160401b03821115610e7157610e71610de9565b50601f01601f191660200190565b6000610e92610e8d84610e58565b610e28565b9050828152838383011115610ea657600080fd5b828260208301376000602084830101529392505050565b600082601f830112610ece57600080fd5b61088083833560208501610e7f565b600080600060608486031215610ef257600080fd5b8335925060208401356001600160401b03811115610f0f57600080fd5b610f1b86828701610ebd565b925050604084013590509250925092565b60008083601f840112610f3e57600080fd5b5081356001600160401b03811115610f5557600080fd5b602083019150836020828501011115610f6d57600080fd5b9250929050565b600080600060408486031215610f8957600080fd5b8335925060208401356001600160401b03811115610fa657600080fd5b610fb286828701610f2c565b9497909650939450505050565b60008060408385031215610fd257600080fd5b8235915060208301356001600160401b03811115610fef57600080fd5b610ffb85828601610ebd565b9150509250929050565b6000806000806040858703121561101b57600080fd5b84356001600160401b038082111561103257600080fd5b61103e88838901610f2c565b9096509450602087013591508082111561105757600080fd5b5061106487828801610f2c565b95989497509550505050565b6000806020838503121561108357600080fd5b82356001600160401b0381111561109957600080fd5b6110a585828601610f2c565b90969095509350505050565b60208082526025908201527f46756e6374696f6e2061636365737369626c65206f6e6c79206279207468652060408201526437bbb732b960d91b606082015260800190565b8051801515811461039157600080fd5b60006020828403121561111857600080fd5b610880826110f6565b600082601f83011261113257600080fd5b8151611140610e8d82610e58565b81815284602083860101111561115557600080fd5b610469826020830160208701610d86565b6001600160a01b038116811461117b57600080fd5b50565b805161039181611166565b60006020828403121561119b57600080fd5b81516001600160401b03808211156111b257600080fd5b9083019061012082860312156111c757600080fd5b6111cf610dff565b825181526020830151828111156111e557600080fd5b6111f187828601611121565b60208301525060408301516040820152606083015160608201526112176080840161117e565b608082015261122860a0840161117e565b60a082015260c083015160c082015260e08301518281111561124957600080fd5b61125587828601611121565b60e083015250610100915061126b8284016110f6565b91810191909152949350505050565b81835281816020850137506000828201602090810191909152601f909101601f19169091010190565b83815260406020820152600061082060408301848661127a565b60208152600061046960208301848661127a565b600082516112e3818460208701610d86565b9190910192915050565b6000602082840312156112ff57600080fd5b81356001600160401b038082111561131657600080fd5b908301906020828603121561132a57600080fd5b60405160208101818110838211171561134557611345610de9565b60405282358281111561135757600080fd5b80840193505085601f84011261136c57600080fd5b61137b86843560208601610e7f565b815295945050505050565b60006020828403121561139857600080fd5b81356001600160401b03808211156113af57600080fd5b90830190604082860312156113c357600080fd5b6040516040810181811083821117156113de576113de610de9565b6040528235828111156113f057600080fd5b6113fc87828601610ebd565b82525060208301358281111561141157600080fd5b61141d87828601610ebd565b60208301525095945050505050565b60006020828403121561143e57600080fd5b815161088081611166565b60408152600061145c6040830185610daa565b90508260208301529392505050565b60006020828403121561147d57600080fd5b5051919050565b7f19457468657265756d205369676e6564204d6573736167653a0a0000000000008152600083516114bc81601a850160208801610d86565b8351908301906114d381601a840160208801610d86565b01601a0194935050505056fe7b627974657320726573706f6e73653b206279746573207369676e61747572653b7da2646970667358221220c2cc26e0d00056cbc35822b017dd9888b0f9aae3142618e0b2d992686224fd4664736f6c63430008130033",
  "bytecodeSha1": "b7599b135ebaa1347610ce55f4a552f5a66ef820",
  "compiler": {
    "evm_version": "istanbul",
    "optimizer": {
      "enabled": true,
      "runs": 200
    },
    "version": "0.8.19+commit.7dd6d404"
  },
  "contractName": "APIConsumer",
  "language": "Solidity",
  "natspec": {
    "kind": "dev",
    "methods": {},
    "version": 1
  },
  "opcodes": "PUSH1 0x80 PUSH1 0x40 MSTORE PUSH1 0x4 CALLDATASIZE LT PUSH2 0xDD JUMPI PUSH1 0x0 CALLDATALOAD PUSH1 0xE0 SHR DUP1 PUSH4 0x877F0AD0 GT PUSH2 0x7F JUMPI DUP1 PUSH4 0x8F32D59B GT PUSH2 0x59 JUMPI DUP1 PUSH4 0x8F32D59B EQ PUSH2 0x247 JUMPI DUP1 PUSH4 0xC2C56245 EQ PUSH2 0x267 JUMPI DUP1 PUSH4 0xC91C7B37 EQ PUSH2 0x287 JUMPI DUP1 PUSH4 0xCB392747 EQ PUSH2 0x2A7 JUMPI PUSH1 0x0 DUP1 REVERT JUMPDEST DUP1 PUSH4 0x877F0AD0 EQ PUSH2 0x216 JUMPI DUP1 PUSH4 0x8D68CF59 EQ PUSH2 0x1BE JUMPI DUP1 PUSH4 0x8DA5CB5B EQ PUSH2 0x229 JUMPI PUSH1 0x0 DUP1 REVERT JUMPDEST DUP1 PUSH4 0x3015394C GT PUSH2 0xBB JUMPI DUP1 PUSH4 0x3015394C EQ PUSH2 0x19E JUMPI DUP1 PUSH4 0x43BB58DE EQ PUSH2 0x1C0 JUMPI DUP1 PUSH4 0x49875DB2 EQ PUSH2 0x1E1 JUMPI DUP1 PUSH4 0x8244741C EQ PUSH2 0x201 JUMPI PUSH1 0x0 DUP1 REVERT JUMPDEST DUP1 PUSH4 0x85D4883 EQ PUSH2 0xE2 JUMPI DUP1 PUSH4 0x155DD5EE EQ PUSH2 0x11F JUMPI DUP1 PUSH4 0x2896DE13 EQ PUSH2 0x14F JUMPI JUMPDEST PUSH1 0x0 DUP1 REVERT JUMPDEST CALLVALUE DUP1 ISZERO PUSH2 0xEE JUMPI PUSH1 0x0 DUP1 REVERT JUMPDEST POP PUSH1 0x3 SLOAD PUSH2 0x102 SWAP1 PUSH1 0x1 PUSH1 0x1 PUSH1 0xA0 SHL SUB AND DUP2 JUMP JUMPDEST PUSH1 0x40 MLOAD PUSH1 0x1 PUSH1 0x1 PUSH1 0xA0 SHL SUB SWAP1 SWAP2 AND DUP2 MSTORE PUSH1 0x20 ADD JUMPDEST PUSH1 0x40 MLOAD DUP1 SWAP2 SUB SWAP1 RETURN JUMPDEST CALLVALUE DUP1 ISZERO PUSH2 0x12B JUMPI PUSH1 0x0 DUP1 REVERT JUMPDEST POP PUSH2 0x13F PUSH2 0x13A CALLDATASIZE PUSH1 0x4 PUSH2 0xD6D JUMP JUMPDEST PUSH2 0x2C7 JUMP JUMPDEST PUSH1 0x40 MLOAD SWAP1 ISZERO ISZERO DUP2 MSTORE PUSH1 0x20 ADD PUSH2 0x116 JUMP JUMPDEST CALLVALUE DUP1 ISZERO PUSH2 0x15B JUMPI PUSH1 0x0 DUP1 REVERT JUMPDEST POP PUSH1 0x40 DUP1 MLOAD DUP1 DUP3 ADD SWAP1 SWAP2 MSTORE PUSH1 0x17 DUP2 MSTORE PUSH32 0x7B737472696E67206170694964656E7469666965723B7D000000000000000000 PUSH1 0x20 DUP3 ADD MSTORE JUMPDEST PUSH1 0x40 MLOAD PUSH2 0x116 SWAP2 SWAP1 PUSH2 0xDD6 JUMP JUMPDEST CALLVALUE DUP1 ISZERO PUSH2 0x1AA JUMPI PUSH1 0x0 DUP1 REVERT JUMPDEST POP PUSH2 0x1BE PUSH2 0x1B9 CALLDATASIZE PUSH1 0x4 PUSH2 0xD6D JUMP JUMPDEST PUSH2 0x396 JUMP JUMPDEST STOP JUMPDEST PUSH2 0x1D3 PUSH2 0x1CE CALLDATASIZE PUSH1 0x4 PUSH2 0xEDD JUMP JUMPDEST PUSH2 0x433 JUMP JUMPDEST PUSH1 0x40 MLOAD SWAP1 DUP2 MSTORE PUSH1 0x20 ADD PUSH2 0x116 JUMP JUMPDEST CALLVALUE DUP1 ISZERO PUSH2 0x1ED JUMPI PUSH1 0x0 DUP1 REVERT JUMPDEST POP PUSH2 0x13F PUSH2 0x1FC CALLDATASIZE PUSH1 0x4 PUSH2 0xF74 JUMP JUMPDEST PUSH2 0x471 JUMP JUMPDEST CALLVALUE DUP1 ISZERO PUSH2 0x20D JUMPI PUSH1 0x0 DUP1 REVERT JUMPDEST POP PUSH2 0x191 PUSH2 0x829 JUMP JUMPDEST PUSH2 0x1D3 PUSH2 0x224 CALLDATASIZE PUSH1 0x4 PUSH2 0xFBF JUMP JUMPDEST PUSH2 0x849 JUMP JUMPDEST CALLVALUE DUP1 ISZERO PUSH2 0x235 JUMPI PUSH1 0x0 DUP1 REVERT JUMPDEST POP PUSH1 0x0 SLOAD PUSH1 0x1 PUSH1 0x1 PUSH1 0xA0 SHL SUB AND PUSH2 0x102 JUMP JUMPDEST CALLVALUE DUP1 ISZERO PUSH2 0x253 JUMPI PUSH1 0x0 DUP1 REVERT JUMPDEST POP PUSH1 0x0 SLOAD PUSH1 0x1 PUSH1 0x1 PUSH1 0xA0 SHL SUB AND CALLER EQ PUSH2 0x13F JUMP JUMPDEST CALLVALUE DUP1 ISZERO PUSH2 0x273 JUMPI PUSH1 0x0 DUP1 REVERT JUMPDEST POP PUSH1 0x1 SLOAD PUSH2 0x102 SWAP1 PUSH1 0x1 PUSH1 0x1 PUSH1 0xA0 SHL SUB AND DUP2 JUMP JUMPDEST CALLVALUE DUP1 ISZERO PUSH2 0x293 JUMPI PUSH1 0x0 DUP1 REVERT JUMPDEST POP PUSH2 0x13F PUSH2 0x2A2 CALLDATASIZE PUSH1 0x4 PUSH2 0x1005 JUMP JUMPDEST PUSH2 0x887 JUMP JUMPDEST CALLVALUE DUP1 ISZERO PUSH2 0x2B3 JUMPI PUSH1 0x0 DUP1 REVERT JUMPDEST POP PUSH2 0x1BE PUSH2 0x2C2 CALLDATASIZE PUSH1 0x4 PUSH2 0x1070 JUMP JUMPDEST PUSH2 0x92F JUMP JUMPDEST PUSH1 0x0 DUP1 SLOAD PUSH1 0x1 PUSH1 0x1 PUSH1 0xA0 SHL SUB AND CALLER EQ PUSH2 0x2FB JUMPI PUSH1 0x40 MLOAD PUSH3 0x461BCD PUSH1 0xE5 SHL DUP2 MSTORE PUSH1 0x4 ADD PUSH2 0x2F2 SWAP1 PUSH2 0x10B1 JUMP JUMPDEST PUSH1 0x40 MLOAD DUP1 SWAP2 SUB SWAP1 REVERT JUMPDEST DUP2 SELFBALANCE LT ISZERO PUSH2 0x340 JUMPI PUSH1 0x40 MLOAD PUSH3 0x461BCD PUSH1 0xE5 SHL DUP2 MSTORE PUSH1 0x20 PUSH1 0x4 DUP3 ADD MSTORE PUSH1 0x12 PUSH1 0x24 DUP3 ADD MSTORE PUSH18 0x496E73756666696369656E742066756E6473 PUSH1 0x70 SHL PUSH1 0x44 DUP3 ADD MSTORE PUSH1 0x64 ADD PUSH2 0x2F2 JUMP JUMPDEST PUSH1 0x40 MLOAD CALLER SWAP1 PUSH1 0x0 SWAP1 DUP3 SWAP1 DUP6 SWAP1 DUP4 DUP2 DUP2 DUP2 DUP6 DUP8 GAS CALL SWAP3 POP POP POP RETURNDATASIZE DUP1 PUSH1 0x0 DUP2 EQ PUSH2 0x384 JUMPI PUSH1 0x40 MLOAD SWAP2 POP PUSH1 0x1F NOT PUSH1 0x3F RETURNDATASIZE ADD AND DUP3 ADD PUSH1 0x40 MSTORE RETURNDATASIZE DUP3 MSTORE RETURNDATASIZE PUSH1 0x0 PUSH1 0x20 DUP5 ADD RETURNDATACOPY PUSH2 0x389 JUMP JUMPDEST PUSH1 0x60 SWAP2 POP JUMPDEST POP SWAP1 SWAP4 POP POP POP POP JUMPDEST SWAP2 SWAP1 POP JUMP JUMPDEST PUSH1 0x0 SLOAD PUSH1 0x1 PUSH1 0x1 PUSH1 0xA0 SHL SUB AND CALLER EQ PUSH2 0x3C0 JUMPI PUSH1 0x40 MLOAD PUSH3 0x461BCD PUSH1 0xE5 SHL DUP2 MSTORE PUSH1 0x4 ADD PUSH2 0x2F2 SWAP1 PUSH2 0x10B1 JUMP JUMPDEST PUSH1 0x1 SLOAD PUSH1 0x40 MLOAD PUSH4 0xC054E53 PUSH1 0xE2 SHL DUP2 MSTORE PUSH1 0x4 DUP2 ADD DUP4 SWAP1 MSTORE PUSH1 0x1 PUSH1 0x1 PUSH1 0xA0 SHL SUB SWAP1 SWAP2 AND SWAP1 PUSH4 0x3015394C SWAP1 PUSH1 0x24 ADD PUSH1 0x20 PUSH1 0x40 MLOAD DUP1 DUP4 SUB DUP2 PUSH1 0x0 DUP8 GAS CALL ISZERO DUP1 ISZERO PUSH2 0x40B JUMPI RETURNDATASIZE PUSH1 0x0 DUP1 RETURNDATACOPY RETURNDATASIZE PUSH1 0x0 REVERT JUMPDEST POP POP POP POP PUSH1 0x40 MLOAD RETURNDATASIZE PUSH1 0x1F NOT PUSH1 0x1F DUP3 ADD AND DUP3 ADD DUP1 PUSH1 0x40 MSTORE POP DUP2 ADD SWAP1 PUSH2 0x42F SWAP2 SWAP1 PUSH2 0x1106 JUMP JUMPDEST POP POP JUMP JUMPDEST PUSH1 0x0 DUP1 SLOAD PUSH1 0x1 PUSH1 0x1 PUSH1 0xA0 SHL SUB AND CALLER EQ PUSH2 0x45E JUMPI PUSH1 0x40 MLOAD PUSH3 0x461BCD PUSH1 0xE5 SHL DUP2 MSTORE PUSH1 0x4 ADD PUSH2 0x2F2 SWAP1 PUSH2 0x10B1 JUMP JUMPDEST PUSH2 0x469 DUP5 DUP5 DUP5 PUSH2 0x996 JUMP JUMPDEST SWAP5 SWAP4 POP POP POP POP JUMP JUMPDEST PUSH1 0x0 DUP4 DUP2 MSTORE PUSH1 0x2 PUSH1 0x20 MSTORE PUSH1 0x40 DUP2 KECCAK256 SLOAD PUSH1 0xFF AND ISZERO ISZERO PUSH1 0x1 EQ PUSH2 0x4FA JUMPI PUSH1 0x40 MLOAD PUSH3 0x461BCD PUSH1 0xE5 SHL DUP2 MSTORE PUSH1 0x20 PUSH1 0x4 DUP3 ADD MSTORE PUSH1 0x3F PUSH1 0x24 DUP3 ADD MSTORE PUSH32 0x5468697320494420646F6573206E6F742062656C6F6E6720746F20616E206163 PUSH1 0x44 DUP3 ADD MSTORE PUSH32 0x7469766520726571756573742077697468696E207468697320636C69656E7400 PUSH1 0x64 DUP3 ADD MSTORE PUSH1 0x84 ADD PUSH2 0x2F2 JUMP JUMPDEST PUSH1 0x1 SLOAD PUSH1 0x40 MLOAD PUSH4 0xC58343EF PUSH1 0xE0 SHL DUP2 MSTORE PUSH1 0x4 DUP2 ADD DUP7 SWAP1 MSTORE PUSH1 0x0 SWAP2 PUSH1 0x1 PUSH1 0x1 PUSH1 0xA0 SHL SUB AND SWAP1 PUSH4 0xC58343EF SWAP1 PUSH1 0x24 ADD PUSH1 0x0 PUSH1 0x40 MLOAD DUP1 DUP4 SUB DUP2 DUP7 GAS STATICCALL ISZERO DUP1 ISZERO PUSH2 0x544 JUMPI RETURNDATASIZE PUSH1 0x0 DUP1 RETURNDATACOPY RETURNDATASIZE PUSH1 0x0 REVERT JUMPDEST POP POP POP POP PUSH1 0x40 MLOAD RETURNDATASIZE PUSH1 0x0 DUP3 RETURNDATACOPY PUSH1 0x1F RETURNDATASIZE SWAP1 DUP2 ADD PUSH1 0x1F NOT AND DUP3 ADD PUSH1 0x40 MSTORE PUSH2 0x56C SWAP2 SWAP1 DUP2 ADD SWAP1 PUSH2 0x1189 JUMP JUMPDEST PUSH1 0xA0 DUP2 ADD MLOAD SWAP1 SWAP2 POP PUSH1 0x1 PUSH1 0x1 PUSH1 0xA0 SHL SUB AND PUSH2 0x5D5 JUMPI PUSH1 0x40 MLOAD PUSH3 0x461BCD PUSH1 0xE5 SHL DUP2 MSTORE PUSH1 0x20 PUSH1 0x4 DUP3 ADD MSTORE PUSH1 0x24 DUP1 DUP3 ADD MSTORE PUSH32 0x596F75206E65656420746F206163636570742074686520726571756573742066 PUSH1 0x44 DUP3 ADD MSTORE PUSH4 0x1A5C9CDD PUSH1 0xE2 SHL PUSH1 0x64 DUP3 ADD MSTORE PUSH1 0x84 ADD PUSH2 0x2F2 JUMP JUMPDEST PUSH2 0x100 DUP2 ADD MLOAD ISZERO PUSH2 0x628 JUMPI PUSH1 0x40 MLOAD PUSH3 0x461BCD PUSH1 0xE5 SHL DUP2 MSTORE PUSH1 0x20 PUSH1 0x4 DUP3 ADD MSTORE PUSH1 0x1D PUSH1 0x24 DUP3 ADD MSTORE PUSH32 0x546865207265717565737420697320616C726561647920636C6F736564000000 PUSH1 0x44 DUP3 ADD MSTORE PUSH1 0x64 ADD PUSH2 0x2F2 JUMP JUMPDEST PUSH1 0xA0 DUP2 ADD MLOAD PUSH1 0x1 PUSH1 0x1 PUSH1 0xA0 SHL SUB AND CALLER EQ PUSH2 0x692 JUMPI PUSH1 0x40 MLOAD PUSH3 0x461BCD PUSH1 0xE5 SHL DUP2 MSTORE PUSH1 0x20 PUSH1 0x4 DUP3 ADD MSTORE PUSH1 0x25 PUSH1 0x24 DUP3 ADD MSTORE PUSH32 0x536F6D656F6E6520656C73652068617320616363657074656420746865205265 PUSH1 0x44 DUP3 ADD MSTORE PUSH5 0x1C5D595CDD PUSH1 0xDA SHL PUSH1 0x64 DUP3 ADD MSTORE PUSH1 0x84 ADD PUSH2 0x2F2 JUMP JUMPDEST PUSH1 0x1 SLOAD PUSH1 0x40 MLOAD PUSH4 0x24C3AED9 PUSH1 0xE1 SHL DUP2 MSTORE PUSH1 0x0 SWAP2 PUSH1 0x1 PUSH1 0x1 PUSH1 0xA0 SHL SUB AND SWAP1 PUSH4 0x49875DB2 SWAP1 PUSH2 0x6C7 SWAP1 DUP10 SWAP1 DUP10 SWAP1 DUP10 SWAP1 PUSH1 0x4 ADD PUSH2 0x12A3 JUMP JUMPDEST PUSH1 0x20 PUSH1 0x40 MLOAD DUP1 DUP4 SUB DUP2 PUSH1 0x0 DUP8 GAS CALL ISZERO DUP1 ISZERO PUSH2 0x6E6 JUMPI RETURNDATASIZE PUSH1 0x0 DUP1 RETURNDATACOPY RETURNDATASIZE PUSH1 0x0 REVERT JUMPDEST POP POP POP POP PUSH1 0x40 MLOAD RETURNDATASIZE PUSH1 0x1F NOT PUSH1 0x1F DUP3 ADD AND DUP3 ADD DUP1 PUSH1 0x40 MSTORE POP DUP2 ADD SWAP1 PUSH2 0x70A SWAP2 SWAP1 PUSH2 0x1106 JUMP JUMPDEST SWAP1 POP DUP1 ISZERO PUSH2 0x820 JUMPI PUSH1 0x0 DUP7 DUP2 MSTORE PUSH1 0x2 PUSH1 0x20 MSTORE PUSH1 0x40 DUP1 DUP3 KECCAK256 DUP1 SLOAD PUSH1 0xFF NOT AND SWAP1 SSTORE MLOAD PUSH4 0xCB392747 PUSH1 0xE0 SHL SWAP1 PUSH2 0x743 SWAP1 DUP9 SWAP1 DUP9 SWAP1 PUSH1 0x24 ADD PUSH2 0x12BD JUMP JUMPDEST PUSH1 0x40 MLOAD PUSH1 0x20 DUP2 DUP4 SUB SUB DUP2 MSTORE SWAP1 PUSH1 0x40 MSTORE SWAP1 PUSH1 0x1 PUSH1 0x1 PUSH1 0xE0 SHL SUB NOT AND PUSH1 0x20 DUP3 ADD DUP1 MLOAD PUSH1 0x1 PUSH1 0x1 PUSH1 0xE0 SHL SUB DUP4 DUP2 DUP4 AND OR DUP4 MSTORE POP POP POP POP SWAP1 POP PUSH1 0x0 DUP4 PUSH1 0x80 ADD MLOAD PUSH1 0x1 PUSH1 0x1 PUSH1 0xA0 SHL SUB AND DUP5 PUSH1 0x60 ADD MLOAD DUP4 PUSH1 0x40 MLOAD PUSH2 0x79B SWAP2 SWAP1 PUSH2 0x12D1 JUMP JUMPDEST PUSH1 0x0 PUSH1 0x40 MLOAD DUP1 DUP4 SUB DUP2 PUSH1 0x0 DUP8 DUP8 CALL SWAP3 POP POP POP RETURNDATASIZE DUP1 PUSH1 0x0 DUP2 EQ PUSH2 0x7D9 JUMPI PUSH1 0x40 MLOAD SWAP2 POP PUSH1 0x1F NOT PUSH1 0x3F RETURNDATASIZE ADD AND DUP3 ADD PUSH1 0x40 MSTORE RETURNDATASIZE DUP3 MSTORE RETURNDATASIZE PUSH1 0x0 PUSH1 0x20 DUP5 ADD RETURNDATACOPY PUSH2 0x7DE JUMP JUMPDEST PUSH1 0x60 SWAP2 POP JUMPDEST POP POP PUSH1 0x40 DUP1 MLOAD DUP11 DUP2 MSTORE DUP3 ISZERO ISZERO PUSH1 0x20 DUP3 ADD MSTORE SWAP2 SWAP3 POP PUSH32 0xA531C8F4BBF2A18049D85528BB5AAAE66874AF94BCB325738EE729A2B6CF8428 SWAP2 ADD PUSH1 0x40 MLOAD DUP1 SWAP2 SUB SWAP1 LOG1 POP POP JUMPDEST SWAP6 SWAP5 POP POP POP POP POP JUMP JUMPDEST PUSH1 0x60 PUSH1 0x40 MLOAD DUP1 PUSH1 0x60 ADD PUSH1 0x40 MSTORE DUP1 PUSH1 0x22 DUP2 MSTORE PUSH1 0x20 ADD PUSH2 0x14E0 PUSH1 0x22 SWAP2 CODECOPY SWAP1 POP SWAP1 JUMP JUMPDEST PUSH1 0x0 DUP1 SLOAD PUSH1 0x1 PUSH1 0x1 PUSH1 0xA0 SHL SUB AND CALLER EQ PUSH2 0x874 JUMPI PUSH1 0x40 MLOAD PUSH3 0x461BCD PUSH1 0xE5 SHL DUP2 MSTORE PUSH1 0x4 ADD PUSH2 0x2F2 SWAP1 PUSH2 0x10B1 JUMP JUMPDEST PUSH2 0x880 DUP4 DUP4 PUSH1 0x0 PUSH2 0x433 JUMP JUMPDEST SWAP4 SWAP3 POP POP POP JUMP JUMPDEST PUSH1 0x0 DUP1 PUSH2 0x896 DUP6 DUP8 ADD DUP8 PUSH2 0x12ED JUMP JUMPDEST SWAP1 POP PUSH1 0x0 PUSH2 0x8A6 DUP5 DUP7 ADD DUP7 PUSH2 0x1386 JUMP JUMPDEST PUSH1 0x3 SLOAD DUP4 MLOAD PUSH1 0x40 MLOAD PUSH4 0xBF40FAC1 PUSH1 0xE0 SHL DUP2 MSTORE SWAP3 SWAP4 POP PUSH2 0x924 SWAP3 DUP5 SWAP3 PUSH1 0x1 PUSH1 0x1 PUSH1 0xA0 SHL SUB AND SWAP2 PUSH4 0xBF40FAC1 SWAP2 PUSH2 0x8DE SWAP2 SWAP1 PUSH1 0x4 ADD PUSH2 0xDD6 JUMP JUMPDEST PUSH1 0x20 PUSH1 0x40 MLOAD DUP1 DUP4 SUB DUP2 DUP7 GAS STATICCALL ISZERO DUP1 ISZERO PUSH2 0x8FB JUMPI RETURNDATASIZE PUSH1 0x0 DUP1 RETURNDATACOPY RETURNDATASIZE PUSH1 0x0 REVERT JUMPDEST POP POP POP POP PUSH1 0x40 MLOAD RETURNDATASIZE PUSH1 0x1F NOT PUSH1 0x1F DUP3 ADD AND DUP3 ADD DUP1 PUSH1 0x40 MSTORE POP DUP2 ADD SWAP1 PUSH2 0x91F SWAP2 SWAP1 PUSH2 0x142C JUMP JUMPDEST PUSH2 0xAB2 JUMP JUMPDEST SWAP8 SWAP7 POP POP POP POP POP POP POP JUMP JUMPDEST CALLER ADDRESS EQ PUSH2 0x42F JUMPI PUSH1 0x40 MLOAD PUSH3 0x461BCD PUSH1 0xE5 SHL DUP2 MSTORE PUSH1 0x20 PUSH1 0x4 DUP3 ADD MSTORE PUSH1 0x2F PUSH1 0x24 DUP3 ADD MSTORE PUSH32 0x46756E6374696F6E2061636365737369626C65206F6E6C792062792074686520 PUSH1 0x44 DUP3 ADD MSTORE PUSH15 0x31B7B73A3930B1BA1034BA39B2B633 PUSH1 0x89 SHL PUSH1 0x64 DUP3 ADD MSTORE PUSH1 0x84 ADD PUSH2 0x2F2 JUMP JUMPDEST PUSH1 0x0 SELFBALANCE DUP5 GT ISZERO PUSH2 0x9DD JUMPI PUSH1 0x40 MLOAD PUSH3 0x461BCD PUSH1 0xE5 SHL DUP2 MSTORE PUSH1 0x20 PUSH1 0x4 DUP3 ADD MSTORE PUSH1 0x12 PUSH1 0x24 DUP3 ADD MSTORE PUSH18 0x496E73756666696369656E742066756E6473 PUSH1 0x70 SHL PUSH1 0x44 DUP3 ADD MSTORE PUSH1 0x64 ADD PUSH2 0x2F2 JUMP JUMPDEST PUSH1 0x1 SLOAD PUSH1 0x40 MLOAD PUSH4 0x78F8AF25 PUSH1 0xE1 SHL DUP2 MSTORE PUSH1 0x0 SWAP2 PUSH1 0x1 PUSH1 0x1 PUSH1 0xA0 SHL SUB AND SWAP1 PUSH4 0xF1F15E4A SWAP1 DUP8 SWAP1 PUSH2 0xA12 SWAP1 DUP9 SWAP1 DUP9 SWAP1 PUSH1 0x4 ADD PUSH2 0x1449 JUMP JUMPDEST PUSH1 0x20 PUSH1 0x40 MLOAD DUP1 DUP4 SUB DUP2 DUP6 DUP9 GAS CALL ISZERO DUP1 ISZERO PUSH2 0xA30 JUMPI RETURNDATASIZE PUSH1 0x0 DUP1 RETURNDATACOPY RETURNDATASIZE PUSH1 0x0 REVERT JUMPDEST POP POP POP POP POP PUSH1 0x40 MLOAD RETURNDATASIZE PUSH1 0x1F NOT PUSH1 0x1F DUP3 ADD AND DUP3 ADD DUP1 PUSH1 0x40 MSTORE POP DUP2 ADD SWAP1 PUSH2 0xA55 SWAP2 SWAP1 PUSH2 0x146B JUMP JUMPDEST SWAP1 POP PUSH32 0xD3B0B0209035A5613265E8FB1F38873EA24C7C6189B128EEBE3689C03D13905C DUP2 PUSH1 0x40 MLOAD PUSH2 0xA88 SWAP2 DUP2 MSTORE PUSH1 0x20 ADD SWAP1 JUMP JUMPDEST PUSH1 0x40 MLOAD DUP1 SWAP2 SUB SWAP1 LOG1 PUSH1 0x0 DUP2 DUP2 MSTORE PUSH1 0x2 PUSH1 0x20 MSTORE PUSH1 0x40 SWAP1 KECCAK256 DUP1 SLOAD PUSH1 0xFF NOT AND PUSH1 0x1 OR SWAP1 SSTORE SWAP1 POP SWAP4 SWAP3 POP POP POP JUMP JUMPDEST PUSH1 0x0 DUP1 PUSH2 0xAC3 DUP5 PUSH1 0x0 ADD MLOAD MLOAD PUSH2 0xB8E JUMP JUMPDEST DUP5 MLOAD PUSH1 0x40 MLOAD PUSH2 0xAD6 SWAP3 SWAP2 SWAP1 PUSH1 0x20 ADD PUSH2 0x1484 JUMP JUMPDEST PUSH1 0x40 MLOAD PUSH1 0x20 DUP2 DUP4 SUB SUB DUP2 MSTORE SWAP1 PUSH1 0x40 MSTORE DUP1 MLOAD SWAP1 PUSH1 0x20 ADD KECCAK256 SWAP1 POP PUSH1 0x0 DUP1 PUSH1 0x0 PUSH2 0xB00 DUP8 PUSH1 0x20 ADD MLOAD PUSH2 0xC20 JUMP JUMPDEST SWAP3 POP SWAP3 POP SWAP3 POP DUP6 PUSH1 0x1 PUSH1 0x1 PUSH1 0xA0 SHL SUB AND PUSH1 0x1 DUP6 DUP4 DUP7 DUP7 PUSH1 0x40 MLOAD PUSH1 0x0 DUP2 MSTORE PUSH1 0x20 ADD PUSH1 0x40 MSTORE PUSH1 0x40 MLOAD PUSH2 0xB4C SWAP5 SWAP4 SWAP3 SWAP2 SWAP1 SWAP4 DUP5 MSTORE PUSH1 0xFF SWAP3 SWAP1 SWAP3 AND PUSH1 0x20 DUP5 ADD MSTORE PUSH1 0x40 DUP4 ADD MSTORE PUSH1 0x60 DUP3 ADD MSTORE PUSH1 0x80 ADD SWAP1 JUMP JUMPDEST PUSH1 0x20 PUSH1 0x40 MLOAD PUSH1 0x20 DUP2 SUB SWAP1 DUP1 DUP5 SUB SWAP1 DUP6 GAS STATICCALL ISZERO DUP1 ISZERO PUSH2 0xB6E JUMPI RETURNDATASIZE PUSH1 0x0 DUP1 RETURNDATACOPY RETURNDATASIZE PUSH1 0x0 REVERT JUMPDEST POP POP POP PUSH1 0x20 PUSH1 0x40 MLOAD SUB MLOAD PUSH1 0x1 PUSH1 0x1 PUSH1 0xA0 SHL SUB AND EQ SWAP5 POP POP POP POP POP SWAP3 SWAP2 POP POP JUMP JUMPDEST PUSH1 0x60 PUSH1 0x0 PUSH2 0xB9B DUP4 PUSH2 0xC94 JUMP JUMPDEST PUSH1 0x1 ADD SWAP1 POP PUSH1 0x0 DUP2 PUSH1 0x1 PUSH1 0x1 PUSH1 0x40 SHL SUB DUP2 GT ISZERO PUSH2 0xBBA JUMPI PUSH2 0xBBA PUSH2 0xDE9 JUMP JUMPDEST PUSH1 0x40 MLOAD SWAP1 DUP1 DUP3 MSTORE DUP1 PUSH1 0x1F ADD PUSH1 0x1F NOT AND PUSH1 0x20 ADD DUP3 ADD PUSH1 0x40 MSTORE DUP1 ISZERO PUSH2 0xBE4 JUMPI PUSH1 0x20 DUP3 ADD DUP2 DUP1 CALLDATASIZE DUP4 CALLDATACOPY ADD SWAP1 POP JUMPDEST POP SWAP1 POP DUP2 DUP2 ADD PUSH1 0x20 ADD JUMPDEST PUSH1 0x0 NOT ADD PUSH16 0x181899199A1A9B1B9C1CB0B131B232B3 PUSH1 0x81 SHL PUSH1 0xA DUP7 MOD BYTE DUP2 MSTORE8 PUSH1 0xA DUP6 DIV SWAP5 POP DUP5 PUSH2 0xBEE JUMPI POP SWAP4 SWAP3 POP POP POP JUMP JUMPDEST PUSH1 0x0 DUP1 PUSH1 0x0 DUP4 MLOAD PUSH1 0x41 EQ PUSH2 0xC76 JUMPI PUSH1 0x40 MLOAD PUSH3 0x461BCD PUSH1 0xE5 SHL DUP2 MSTORE PUSH1 0x20 PUSH1 0x4 DUP3 ADD MSTORE PUSH1 0x18 PUSH1 0x24 DUP3 ADD MSTORE PUSH32 0x696E76616C6964207369676E6174757265206C656E6774680000000000000000 PUSH1 0x44 DUP3 ADD MSTORE PUSH1 0x64 ADD PUSH2 0x2F2 JUMP JUMPDEST POP POP POP PUSH1 0x20 DUP2 ADD MLOAD PUSH1 0x40 DUP3 ADD MLOAD PUSH1 0x60 SWAP1 SWAP3 ADD MLOAD SWAP1 SWAP3 PUSH1 0x0 SWAP2 SWAP1 SWAP2 BYTE SWAP1 JUMP JUMPDEST PUSH1 0x0 DUP1 PUSH19 0x184F03E93FF9F4DAA797ED6E38ED64BF6A1F01 PUSH1 0x40 SHL DUP4 LT PUSH2 0xCD3 JUMPI PUSH19 0x184F03E93FF9F4DAA797ED6E38ED64BF6A1F01 PUSH1 0x40 SHL DUP4 DIV SWAP3 POP PUSH1 0x40 ADD JUMPDEST PUSH14 0x4EE2D6D415B85ACEF8100000000 DUP4 LT PUSH2 0xCFF JUMPI PUSH14 0x4EE2D6D415B85ACEF8100000000 DUP4 DIV SWAP3 POP PUSH1 0x20 ADD JUMPDEST PUSH7 0x2386F26FC10000 DUP4 LT PUSH2 0xD1D JUMPI PUSH7 0x2386F26FC10000 DUP4 DIV SWAP3 POP PUSH1 0x10 ADD JUMPDEST PUSH4 0x5F5E100 DUP4 LT PUSH2 0xD35 JUMPI PUSH4 0x5F5E100 DUP4 DIV SWAP3 POP PUSH1 0x8 ADD JUMPDEST PUSH2 0x2710 DUP4 LT PUSH2 0xD49 JUMPI PUSH2 0x2710 DUP4 DIV SWAP3 POP PUSH1 0x4 ADD JUMPDEST PUSH1 0x64 DUP4 LT PUSH2 0xD5B JUMPI PUSH1 0x64 DUP4 DIV SWAP3 POP PUSH1 0x2 ADD JUMPDEST PUSH1 0xA DUP4 LT PUSH2 0xD67 JUMPI PUSH1 0x1 ADD JUMPDEST SWAP3 SWAP2 POP POP JUMP JUMPDEST PUSH1 0x0 PUSH1 0x20 DUP3 DUP5 SUB SLT ISZERO PUSH2 0xD7F JUMPI PUSH1 0x0 DUP1 REVERT JUMPDEST POP CALLDATALOAD SWAP2 SWAP1 POP JUMP JUMPDEST PUSH1 0x0 JUMPDEST DUP4 DUP2 LT ISZERO PUSH2 0xDA1 JUMPI DUP2 DUP2 ADD MLOAD DUP4 DUP3 ADD MSTORE PUSH1 0x20 ADD PUSH2 0xD89 JUMP JUMPDEST POP POP PUSH1 0x0 SWAP2 ADD MSTORE JUMP JUMPDEST PUSH1 0x0 DUP2 MLOAD DUP1 DUP5 MSTORE PUSH2 0xDC2 DUP2 PUSH1 0x20 DUP7 ADD PUSH1 0x20 DUP7 ADD PUSH2 0xD86 JUMP JUMPDEST PUSH1 0x1F ADD PUSH1 0x1F NOT AND SWAP3 SWAP1 SWAP3 ADD PUSH1 0x20 ADD SWAP3 SWAP2 POP POP JUMP JUMPDEST PUSH1 0x20 DUP2 MSTORE PUSH1 0x0 PUSH2 0x880 PUSH1 0x20 DUP4 ADD DUP5 PUSH2 0xDAA JUMP JUMPDEST PUSH4 0x4E487B71 PUSH1 0xE0 SHL PUSH1 0x0 MSTORE PUSH1 0x41 PUSH1 0x4 MSTORE PUSH1 0x24 PUSH1 0x0 REVERT JUMPDEST PUSH1 0x40 MLOAD PUSH2 0x120 DUP2 ADD PUSH1 0x1 PUSH1 0x1 PUSH1 0x40 SHL SUB DUP2 GT DUP3 DUP3 LT OR ISZERO PUSH2 0xE22 JUMPI PUSH2 0xE22 PUSH2 0xDE9 JUMP JUMPDEST PUSH1 0x40 MSTORE SWAP1 JUMP JUMPDEST PUSH1 0x40 MLOAD PUSH1 0x1F DUP3 ADD PUSH1 0x1F NOT AND DUP2 ADD PUSH1 0x1 PUSH1 0x1 PUSH1 0x40 SHL SUB DUP2 GT DUP3 DUP3 LT OR ISZERO PUSH2 0xE50 JUMPI PUSH2 0xE50 PUSH2 0xDE9 JUMP JUMPDEST PUSH1 0x40 MSTORE SWAP2 SWAP1 POP JUMP JUMPDEST PUSH1 0x0 PUSH1 0x1 PUSH1 0x1 PUSH1 0x40 SHL SUB DUP3 GT ISZERO PUSH2 0xE71 JUMPI PUSH2 0xE71 PUSH2 0xDE9 JUMP JUMPDEST POP PUSH1 0x1F ADD PUSH1 0x1F NOT AND PUSH1 0x20 ADD SWAP1 JUMP JUMPDEST PUSH1 0x0 PUSH2 0xE92 PUSH2 0xE8D DUP5 PUSH2 0xE58 JUMP JUMPDEST PUSH2 0xE28 JUMP JUMPDEST SWAP1 POP DUP3 DUP2 MSTORE DUP4 DUP4 DUP4 ADD GT ISZERO PUSH2 0xEA6 JUMPI PUSH1 0x0 DUP1 REVERT JUMPDEST DUP3 DUP3 PUSH1 0x20 DUP4 ADD CALLDATACOPY PUSH1 0x0 PUSH1 0x20 DUP5 DUP4 ADD ADD MSTORE SWAP4 SWAP3 POP POP POP JUMP JUMPDEST PUSH1 0x0 DUP3 PUSH1 0x1F DUP4 ADD SLT PUSH2 0xECE JUMPI PUSH1 0x0 DUP1 REVERT JUMPDEST PUSH2 0x880 DUP4 DUP4 CALLDATALOAD PUSH1 0x20 DUP6 ADD PUSH2 0xE7F JUMP JUMPDEST PUSH1 0x0 DUP1 PUSH1 0x0 PUSH1 0x60 DUP5 DUP7 SUB SLT ISZERO PUSH2 0xEF2 JUMPI PUSH1 0x0 DUP1 REVERT JUMPDEST DUP4 CALLDATALOAD SWAP3 POP PUSH1 0x20 DUP5 ADD CALLDATALOAD PUSH1 0x1 PUSH1 0x1 PUSH1 0x40 SHL SUB DUP2 GT ISZERO PUSH2 0xF0F JUMPI PUSH1 0x0 DUP1 REVERT JUMPDEST PUSH2 0xF1B DUP7 DUP3 DUP8 ADD PUSH2 0xEBD JUMP JUMPDEST SWAP3 POP POP PUSH1 0x40 DUP5 ADD CALLDATALOAD SWAP1 POP SWAP3 POP SWAP3 POP SWAP3 JUMP JUMPDEST PUSH1 0x0 DUP1 DUP4 PUSH1 0x1F DUP5 ADD SLT PUSH2 0xF3E JUMPI PUSH1 0x0 DUP1 REVERT JUMPDEST POP DUP2 CALLDATALOAD PUSH1 0x1 PUSH1 0x1 PUSH1 0x40 SHL SUB DUP2 GT ISZERO PUSH2 0xF55 JUMPI PUSH1 0x0 DUP1 REVERT JUMPDEST PUSH1 0x20 DUP4 ADD SWAP2 POP DUP4 PUSH1 0x20 DUP3 DUP6 ADD ADD GT ISZERO PUSH2 0xF6D JUMPI PUSH1 0x0 DUP1 REVERT JUMPDEST SWAP3 POP SWAP3 SWAP1 POP JUMP JUMPDEST PUSH1 0x0 DUP1 PUSH1 0x0 PUSH1 0x40 DUP5 DUP7 SUB SLT ISZERO PUSH2 0xF89 JUMPI PUSH1 0x0 DUP1 REVERT JUMPDEST DUP4 CALLDATALOAD SWAP3 POP PUSH1 0x20 DUP5 ADD CALLDATALOAD PUSH1 0x1 PUSH1 0x1 PUSH1 0x40 SHL SUB DUP2 GT ISZERO PUSH2 0xFA6 JUMPI PUSH1 0x0 DUP1 REVERT JUMPDEST PUSH2 0xFB2 DUP7 DUP3 DUP8 ADD PUSH2 0xF2C JUMP JUMPDEST SWAP5 SWAP8 SWAP1 SWAP7 POP SWAP4 SWAP5 POP POP POP POP JUMP JUMPDEST PUSH1 0x0 DUP1 PUSH1 0x40 DUP4 DUP6 SUB SLT ISZERO PUSH2 0xFD2 JUMPI PUSH1 0x0 DUP1 REVERT JUMPDEST DUP3 CALLDATALOAD SWAP2 POP PUSH1 0x20 DUP4 ADD CALLDATALOAD PUSH1 0x1 PUSH1 0x1 PUSH1 0x40 SHL SUB DUP2 GT ISZERO PUSH2 0xFEF JUMPI PUSH1 0x0 DUP1 REVERT JUMPDEST PUSH2 0xFFB DUP6 DUP3 DUP7 ADD PUSH2 0xEBD JUMP JUMPDEST SWAP2 POP POP SWAP3 POP SWAP3 SWAP1 POP JUMP JUMPDEST PUSH1 0x0 DUP1 PUSH1 0x0 DUP1 PUSH1 0x40 DUP6 DUP8 SUB SLT ISZERO PUSH2 0x101B JUMPI PUSH1 0x0 DUP1 REVERT JUMPDEST DUP5 CALLDATALOAD PUSH1 0x1 PUSH1 0x1 PUSH1 0x40 SHL SUB DUP1 DUP3 GT ISZERO PUSH2 0x1032 JUMPI PUSH1 0x0 DUP1 REVERT JUMPDEST PUSH2 0x103E DUP9 DUP4 DUP10 ADD PUSH2 0xF2C JUMP JUMPDEST SWAP1 SWAP7 POP SWAP5 POP PUSH1 0x20 DUP8 ADD CALLDATALOAD SWAP2 POP DUP1 DUP3 GT ISZERO PUSH2 0x1057 JUMPI PUSH1 0x0 DUP1 REVERT JUMPDEST POP PUSH2 0x1064 DUP8 DUP3 DUP9 ADD PUSH2 0xF2C JUMP JUMPDEST SWAP6 SWAP9 SWAP5 SWAP8 POP SWAP6 POP POP POP POP JUMP JUMPDEST PUSH1 0x0 DUP1 PUSH1 0x20 DUP4 DUP6 SUB SLT ISZERO PUSH2 0x1083 JUMPI PUSH1 0x0 DUP1 REVERT JUMPDEST DUP3 CALLDATALOAD PUSH1 0x1 PUSH1 0x1 PUSH1 0x40 SHL SUB DUP2 GT ISZERO PUSH2 0x1099 JUMPI PUSH1 0x0 DUP1 REVERT JUMPDEST PUSH2 0x10A5 DUP6 DUP3 DUP7 ADD PUSH2 0xF2C JUMP JUMPDEST SWAP1 SWAP7 SWAP1 SWAP6 POP SWAP4 POP POP POP POP JUMP JUMPDEST PUSH1 0x20 DUP1 DUP3 MSTORE PUSH1 0x25 SWAP1 DUP3 ADD MSTORE PUSH32 0x46756E6374696F6E2061636365737369626C65206F6E6C792062792074686520 PUSH1 0x40 DUP3 ADD MSTORE PUSH5 0x37BBB732B9 PUSH1 0xD9 SHL PUSH1 0x60 DUP3 ADD MSTORE PUSH1 0x80 ADD SWAP1 JUMP JUMPDEST DUP1 MLOAD DUP1 ISZERO ISZERO DUP2 EQ PUSH2 0x391 JUMPI PUSH1 0x0 DUP1 REVERT JUMPDEST PUSH1 0x0 PUSH1 0x20 DUP3 DUP5 SUB SLT ISZERO PUSH2 0x1118 JUMPI PUSH1 0x0 DUP1 REVERT JUMPDEST PUSH2 0x880 DUP3 PUSH2 0x10F6 JUMP JUMPDEST PUSH1 0x0 DUP3 PUSH1 0x1F DUP4 ADD SLT PUSH2 0x1132 JUMPI PUSH1 0x0 DUP1 REVERT JUMPDEST DUP2 MLOAD PUSH2 0x1140 PUSH2 0xE8D DUP3 PUSH2 0xE58 JUMP JUMPDEST DUP2 DUP2 MSTORE DUP5 PUSH1 0x20 DUP4 DUP7 ADD ADD GT ISZERO PUSH2 0x1155 JUMPI PUSH1 0x0 DUP1 REVERT JUMPDEST PUSH2 0x469 DUP3 PUSH1 0x20 DUP4 ADD PUSH1 0x20 DUP8 ADD PUSH2 0xD86 JUMP JUMPDEST PUSH1 0x1 PUSH1 0x1 PUSH1 0xA0 SHL SUB DUP2 AND DUP2 EQ PUSH2 0x117B JUMPI PUSH1 0x0 DUP1 REVERT JUMPDEST POP JUMP JUMPDEST DUP1 MLOAD PUSH2 0x391 DUP2 PUSH2 0x1166 JUMP JUMPDEST PUSH1 0x0 PUSH1 0x20 DUP3 DUP5 SUB SLT ISZERO PUSH2 0x119B JUMPI PUSH1 0x0 DUP1 REVERT JUMPDEST DUP2 MLOAD PUSH1 0x1 PUSH1 0x1 PUSH1 0x40 SHL SUB DUP1 DUP3 GT ISZERO PUSH2 0x11B2 JUMPI PUSH1 0x0 DUP1 REVERT JUMPDEST SWAP1 DUP4 ADD SWAP1 PUSH2 0x120 DUP3 DUP7 SUB SLT ISZERO PUSH2 0x11C7 JUMPI PUSH1 0x0 DUP1 REVERT JUMPDEST PUSH2 0x11CF PUSH2 0xDFF JUMP JUMPDEST DUP3 MLOAD DUP2 MSTORE PUSH1 0x20 DUP4 ADD MLOAD DUP3 DUP2 GT ISZERO PUSH2 0x11E5 JUMPI PUSH1 0x0 DUP1 REVERT JUMPDEST PUSH2 0x11F1 DUP8 DUP3 DUP7 ADD PUSH2 0x1121 JUMP JUMPDEST PUSH1 0x20 DUP4 ADD MSTORE POP PUSH1 0x40 DUP4 ADD MLOAD PUSH1 0x40 DUP3 ADD MSTORE PUSH1 0x60 DUP4 ADD MLOAD PUSH1 0x60 DUP3 ADD MSTORE PUSH2 0x1217 PUSH1 0x80 DUP5 ADD PUSH2 0x117E JUMP JUMPDEST PUSH1 0x80 DUP3 ADD MSTORE PUSH2 0x1228 PUSH1 0xA0 DUP5 ADD PUSH2 0x117E JUMP JUMPDEST PUSH1 0xA0 DUP3 ADD MSTORE PUSH1 0xC0 DUP4 ADD MLOAD PUSH1 0xC0 DUP3 ADD MSTORE PUSH1 0xE0 DUP4 ADD MLOAD DUP3 DUP2 GT ISZERO PUSH2 0x1249 JUMPI PUSH1 0x0 DUP1 REVERT JUMPDEST PUSH2 0x1255 DUP8 DUP3 DUP7 ADD PUSH2 0x1121 JUMP JUMPDEST PUSH1 0xE0 DUP4 ADD MSTORE POP PUSH2 0x100 SWAP2 POP PUSH2 0x126B DUP3 DUP5 ADD PUSH2 0x10F6 JUMP JUMPDEST SWAP2 DUP2 ADD SWAP2 SWAP1 SWAP2 MSTORE SWAP5 SWAP4 POP POP POP POP JUMP JUMPDEST DUP2 DUP4 MSTORE DUP2 DUP2 PUSH1 0x20 DUP6 ADD CALLDATACOPY POP PUSH1 0x0 DUP3 DUP3 ADD PUSH1 0x20 SWAP1 DUP2 ADD SWAP2 SWAP1 SWAP2 MSTORE PUSH1 0x1F SWAP1 SWAP2 ADD PUSH1 0x1F NOT AND SWAP1 SWAP2 ADD ADD SWAP1 JUMP JUMPDEST DUP4 DUP2 MSTORE PUSH1 0x40 PUSH1 0x20 DUP3 ADD MSTORE PUSH1 0x0 PUSH2 0x820 PUSH1 0x40 DUP4 ADD DUP5 DUP7 PUSH2 0x127A JUMP JUMPDEST PUSH1 0x20 DUP2 MSTORE PUSH1 0x0 PUSH2 0x469 PUSH1 0x20 DUP4 ADD DUP5 DUP7 PUSH2 0x127A JUMP JUMPDEST PUSH1 0x0 DUP3 MLOAD PUSH2 0x12E3 DUP2 DUP5 PUSH1 0x20 DUP8 ADD PUSH2 0xD86 JUMP JUMPDEST SWAP2 SWAP1 SWAP2 ADD SWAP3 SWAP2 POP POP JUMP JUMPDEST PUSH1 0x0 PUSH1 0x20 DUP3 DUP5 SUB SLT ISZERO PUSH2 0x12FF JUMPI PUSH1 0x0 DUP1 REVERT JUMPDEST DUP2 CALLDATALOAD PUSH1 0x1 PUSH1 0x1 PUSH1 0x40 SHL SUB DUP1 DUP3 GT ISZERO PUSH2 0x1316 JUMPI PUSH1 0x0 DUP1 REVERT JUMPDEST SWAP1 DUP4 ADD SWAP1 PUSH1 0x20 DUP3 DUP7 SUB SLT ISZERO PUSH2 0x132A JUMPI PUSH1 0x0 DUP1 REVERT JUMPDEST PUSH1 0x40 MLOAD PUSH1 0x20 DUP2 ADD DUP2 DUP2 LT DUP4 DUP3 GT OR ISZERO PUSH2 0x1345 JUMPI PUSH2 0x1345 PUSH2 0xDE9 JUMP JUMPDEST PUSH1 0x40 MSTORE DUP3 CALLDATALOAD DUP3 DUP2 GT ISZERO PUSH2 0x1357 JUMPI PUSH1 0x0 DUP1 REVERT JUMPDEST DUP1 DUP5 ADD SWAP4 POP POP DUP6 PUSH1 0x1F DUP5 ADD SLT PUSH2 0x136C JUMPI PUSH1 0x0 DUP1 REVERT JUMPDEST PUSH2 0x137B DUP7 DUP5 CALLDATALOAD PUSH1 0x20 DUP7 ADD PUSH2 0xE7F JUMP JUMPDEST DUP2 MSTORE SWAP6 SWAP5 POP POP POP POP POP JUMP JUMPDEST PUSH1 0x0 PUSH1 0x20 DUP3 DUP5 SUB SLT ISZERO PUSH2 0x1398 JUMPI PUSH1 0x0 DUP1 REVERT JUMPDEST DUP2 CALLDATALOAD PUSH1 0x1 PUSH1 0x1 PUSH1 0x40 SHL SUB DUP1 DUP3 GT ISZERO PUSH2 0x13AF JUMPI PUSH1 0x0 DUP1 REVERT JUMPDEST SWAP1 DUP4 ADD SWAP1 PUSH1 0x40 DUP3 DUP7 SUB SLT ISZERO PUSH2 0x13C3 JUMPI PUSH1 0x0 DUP1 REVERT JUMPDEST PUSH1 0x40 MLOAD PUSH1 0x40 DUP2 ADD DUP2 DUP2 LT DUP4 DUP3 GT OR ISZERO PUSH2 0x13DE JUMPI PUSH2 0x13DE PUSH2 0xDE9 JUMP JUMPDEST PUSH1 0x40 MSTORE DUP3 CALLDATALOAD DUP3 DUP2 GT ISZERO PUSH2 0x13F0 JUMPI PUSH1 0x0 DUP1 REVERT JUMPDEST PUSH2 0x13FC DUP8 DUP3 DUP7 ADD PUSH2 0xEBD JUMP JUMPDEST DUP3 MSTORE POP PUSH1 0x20 DUP4 ADD CALLDATALOAD DUP3 DUP2 GT ISZERO PUSH2 0x1411 JUMPI PUSH1 0x0 DUP1 REVERT JUMPDEST PUSH2 0x141D DUP8 DUP3 DUP7 ADD PUSH2 0xEBD JUMP JUMPDEST PUSH1 0x20 DUP4 ADD MSTORE POP SWAP6 SWAP5 POP POP POP POP POP JUMP JUMPDEST PUSH1 0x0 PUSH1 0x20 DUP3 DUP5 SUB SLT ISZERO PUSH2 0x143E JUMPI PUSH1 0x0 DUP1 REVERT JUMPDEST DUP2 MLOAD PUSH2 0x880 DUP2 PUSH2 0x1166 JUMP JUMPDEST PUSH1 0x40 DUP2 MSTORE PUSH1 0x0 PUSH2 0x145C PUSH1 0x40 DUP4 ADD DUP6 PUSH2 0xDAA JUMP JUMPDEST SWAP1 POP DUP3 PUSH1 0x20 DUP4 ADD MSTORE SWAP4 SWAP3 POP POP POP JUMP JUMPDEST PUSH1 0x0 PUSH1 0x20 DUP3 DUP5 SUB SLT ISZERO PUSH2 0x147D JUMPI PUSH1 0x0 DUP1 REVERT JUMPDEST POP MLOAD SWAP2 SWAP1 POP JUMP JUMPDEST PUSH32 0x19457468657265756D205369676E6564204D6573736167653A0A000000000000 DUP2 MSTORE PUSH1 0x0 DUP4 MLOAD PUSH2 0x14BC DUP2 PUSH1 0x1A DUP6 ADD PUSH1 0x20 DUP9 ADD PUSH2 0xD86 JUMP JUMPDEST DUP4 MLOAD SWAP1 DUP4 ADD SWAP1 PUSH2 0x14D3 DUP2 PUSH1 0x1A DUP5 ADD PUSH1 0x20 DUP9 ADD PUSH2 0xD86 JUMP JUMPDEST ADD PUSH1 0x1A ADD SWAP5 SWAP4 POP POP POP POP JUMP INVALID PUSH28 0x627974657320726573706F6E73653B206279746573207369676E6174 PUSH22 0x72653B7DA2646970667358221220C2CC26E0D00056CB 0xC3 PC 0x22 0xB0 OR 0xDD SWAP9 DUP9 0xB0 0xF9 0xAA 0xE3 EQ 0x26 XOR 0xE0 0xB2 0xD9 SWAP3 PUSH9 0x6224FD4664736F6C63 NUMBER STOP ADDMOD SGT STOP CALLER ",
  "sha1": "c96aa4a8e9422237f38d8e8b01f4ef03874e5ae6",
  "source": "// SPDX-License-Identifier: GPL-3.0\n\npragma solidity >=0.7.0 <0.9.0;\n\nimport \"./APIProvider.sol\";\nimport \"./BaseClient.sol\";\n\nimport \"@openzeppelin/contracts/utils/Strings.sol\";\n\n\nstruct Input {\n    string apiIdentifier;\n}\n\nstruct APIResponse { //TODO pasar estas esctructuras al provider? o la funcion de getinputdatastructure a algun lugar accesible por APIOracle python\n    bytes response;\n    bytes signature;\n}\n\ncontract APIConsumer is BaseClient {\n\n    APIProvider public provider;\n    \n    constructor(address brokerAddress, address apiProviderAddress) BaseClient(brokerAddress) {\n        provider = APIProvider(apiProviderAddress);\n    }\n\n    function submitRequest(uint payment, bytes memory input) public onlyOwner payable returns (uint) {\n        return super.submitRequest(payment, input, 0);\n    }\n\n    function checkResult(bytes calldata inputData, bytes calldata resultData) external override view returns (bool) {\n        Input memory input = abi.decode(inputData, (Input));\n        APIResponse memory apiResponse = abi.decode(resultData, (APIResponse));\n        return _verifySignature(apiResponse, provider.getAddress(input.apiIdentifier));\n    }\n\n    function getInputDataStructure() external override pure returns (string memory) {\n        return \"{string apiIdentifier;}\";\n    }\n\n    function getResultDataStructure() external override pure returns (string memory) {\n        return \"{bytes response; bytes signature;}\";\n    }\n\n    function _verifySignature(APIResponse memory apiResponse, address signer) private pure returns (bool) {\n        bytes32 prefixedHash = keccak256(abi.encodePacked(\"\\x19Ethereum Signed Message:\\n\", Strings.toString(apiResponse.response.length), apiResponse.response));\n        (bytes32 r, bytes32 s, uint8 v) = _splitSignature(apiResponse.signature);\n        return (ecrecover(prefixedHash, v, r, s) == signer);\n    }\n\n    function _splitSignature(bytes memory signature) private pure returns (bytes32 r, bytes32 s, uint8 v) {\n        require(signature.length == 65, \"invalid signature length\");\n        assembly {\n            r := mload(add(signature, 32))\n            s := mload(add(signature, 64))\n            v := byte(0, mload(add(signature, 96)))\n        }\n    }\n\n}",
  "sourcePath": "contracts/APIConsumer.sol",
  "type": "contract"
}