{
  "abi": [
    {
      "inputs": [
        {
          "internalType": "address",
          "name": "brokerAddress",
          "type": "address"
        },
        {
          "internalType": "address",
          "name": "apiProviderAddress",
          "type": "address"
        }
      ],
      "stateMutability": "nonpayable",
      "type": "constructor"
    },
    {
      "anonymous": false,
      "inputs": [
        {
          "indexed": false,
          "internalType": "uint256",
          "name": "requestID",
          "type": "uint256"
        }
      ],
      "name": "requestSubmitted",
      "type": "event"
    },
    {
      "inputs": [],
      "name": "brokerContract",
      "outputs": [
        {
          "internalType": "contract ExecutionBroker",
          "name": "",
          "type": "address"
        }
      ],
      "stateMutability": "view",
      "type": "function"
    },
    {
      "inputs": [
        {
          "internalType": "uint256",
          "name": "requestID",
          "type": "uint256"
        }
      ],
      "name": "cancelRequest",
      "outputs": [],
      "stateMutability": "nonpayable",
      "type": "function"
    },
    {
      "inputs": [
        {
          "internalType": "bytes",
          "name": "inputData",
          "type": "bytes"
        },
        {
          "internalType": "bytes",
          "name": "resultData",
          "type": "bytes"
        }
      ],
      "name": "checkResult",
      "outputs": [
        {
          "internalType": "bool",
          "name": "",
          "type": "bool"
        }
      ],
      "stateMutability": "view",
      "type": "function"
    },
    {
      "inputs": [],
      "name": "getInputDataStructure",
      "outputs": [
        {
          "internalType": "string",
          "name": "",
          "type": "string"
        }
      ],
      "stateMutability": "pure",
      "type": "function"
    },
    {
      "inputs": [],
      "name": "getResultDataStructure",
      "outputs": [
        {
          "internalType": "string",
          "name": "",
          "type": "string"
        }
      ],
      "stateMutability": "pure",
      "type": "function"
    },
    {
      "inputs": [],
      "name": "isOwner",
      "outputs": [
        {
          "internalType": "bool",
          "name": "",
          "type": "bool"
        }
      ],
      "stateMutability": "view",
      "type": "function"
    },
    {
      "inputs": [],
      "name": "owner",
      "outputs": [
        {
          "internalType": "address",
          "name": "",
          "type": "address"
        }
      ],
      "stateMutability": "view",
      "type": "function"
    },
    {
      "inputs": [
        {
          "internalType": "bytes",
          "name": "resultData",
          "type": "bytes"
        }
      ],
      "name": "processResult",
      "outputs": [],
      "stateMutability": "nonpayable",
      "type": "function"
    },
    {
      "inputs": [],
      "name": "provider",
      "outputs": [
        {
          "internalType": "contract APIProvider",
          "name": "",
          "type": "address"
        }
      ],
      "stateMutability": "view",
      "type": "function"
    },
    {
      "inputs": [],
      "name": "sendFunds",
      "outputs": [],
      "stateMutability": "payable",
      "type": "function"
    },
    {
      "inputs": [
        {
          "internalType": "uint256",
          "name": "payment",
          "type": "uint256"
        },
        {
          "internalType": "bytes",
          "name": "input",
          "type": "bytes"
        },
        {
          "internalType": "uint256",
          "name": "postProcessingGas",
          "type": "uint256"
        }
      ],
      "name": "submitRequest",
      "outputs": [
        {
          "internalType": "uint256",
          "name": "",
          "type": "uint256"
        }
      ],
      "stateMutability": "payable",
      "type": "function"
    },
    {
      "inputs": [
        {
          "internalType": "uint256",
          "name": "payment",
          "type": "uint256"
        },
        {
          "internalType": "bytes",
          "name": "input",
          "type": "bytes"
        }
      ],
      "name": "submitRequest",
      "outputs": [
        {
          "internalType": "uint256",
          "name": "",
          "type": "uint256"
        }
      ],
      "stateMutability": "payable",
      "type": "function"
    },
    {
      "inputs": [
        {
          "internalType": "uint256",
          "name": "value",
          "type": "uint256"
        }
      ],
      "name": "withdrawFunds",
      "outputs": [
        {
          "internalType": "bool",
          "name": "",
          "type": "bool"
        }
      ],
      "stateMutability": "nonpayable",
      "type": "function"
    }
  ],
  "bytecode": "608060405234801561001057600080fd5b5060405161102938038061102983398101604081905261002f91610087565b600080546001600160a01b03199081163317909155600180546001600160a01b03948516908316179055600280549290931691161790556100ba565b80516001600160a01b038116811461008257600080fd5b919050565b6000806040838503121561009a57600080fd5b6100a38361006b565b91506100b16020840161006b565b90509250929050565b610f60806100c96000396000f3fe6080604052600436106100c25760003560e01c8063877f0ad01161007f5780638f32d59b116100595780638f32d59b1461020c578063c2c562451461022c578063c91c7b371461024c578063cb3927471461026c57600080fd5b8063877f0ad0146101db5780638d68cf59146101a35780638da5cb5b146101ee57600080fd5b8063085d4883146100c7578063155dd5ee146101045780632896de13146101345780633015394c1461018357806343bb58de146101a55780638244741c146101c6575b600080fd5b3480156100d357600080fd5b506002546100e7906001600160a01b031681565b6040516001600160a01b0390911681526020015b60405180910390f35b34801561011057600080fd5b5061012461011f3660046109c3565b61028c565b60405190151581526020016100fb565b34801561014057600080fd5b5060408051808201909152601781527f7b737472696e67206170694964656e7469666965723b7d00000000000000000060208201525b6040516100fb9190610a2c565b34801561018f57600080fd5b506101a361019e3660046109c3565b610359565b005b6101b86101b3366004610aeb565b6103f6565b6040519081526020016100fb565b3480156101d257600080fd5b50610176610589565b6101b86101e9366004610b3b565b6105a9565b3480156101fa57600080fd5b506000546001600160a01b03166100e7565b34801561021857600080fd5b506000546001600160a01b03163314610124565b34801561023857600080fd5b506001546100e7906001600160a01b031681565b34801561025857600080fd5b50610124610267366004610bcb565b6105e9565b34801561027857600080fd5b506101a3610287366004610c37565b610691565b600080546001600160a01b031633146102c05760405162461bcd60e51b81526004016102b790610c79565b60405180910390fd5b814710156103055760405162461bcd60e51b8152602060048201526012602482015271496e73756666696369656e742066756e647360701b60448201526064016102b7565b6040513390600090829085908381818185875af1925050503d8060008114610349576040519150601f19603f3d011682016040523d82523d6000602084013e61034e565b606091505b509095945050505050565b6000546001600160a01b031633146103835760405162461bcd60e51b81526004016102b790610c79565b600154604051630c054e5360e21b8152600481018390526001600160a01b0390911690633015394c906024016020604051808303816000875af11580156103ce573d6000803e3d6000fd5b505050506040513d601f19601f820116820180604052508101906103f29190610cbe565b5050565b6001546000906001600160a01b031633148061041c57506000546001600160a01b031633145b6104805760405162461bcd60e51b815260206004820152602f60248201527f46756e6374696f6e2061636365737369626c65206f6e6c79206279207468652060448201526e37bbb732b91037b910313937b5b2b960891b60648201526084016102b7565b61048a4734610ce7565b8411156104ce5760405162461bcd60e51b8152602060048201526012602482015271496e73756666696369656e742066756e647360701b60448201526064016102b7565b6001546040516378f8af2560e11b81526000916001600160a01b03169063f1f15e4a9087906105039088908890600401610d08565b60206040518083038185885af1158015610521573d6000803e3d6000fd5b50505050506040513d601f19601f820116820180604052508101906105469190610d2a565b90507fd3b0b0209035a5613265e8fb1f38873ea24c7c6189b128eebe3689c03d13905c8160405161057991815260200190565b60405180910390a1949350505050565b6060604051806060016040528060228152602001610f0960229139905090565b600080546001600160a01b031633146105d45760405162461bcd60e51b81526004016102b790610c79565b6105e0838360006103f6565b90505b92915050565b6000806105f885870187610d43565b9050600061060884860186610ddd565b600254835160405163bf40fac160e01b81529293506106869284926001600160a01b03169163bf40fac1916106409190600401610a2c565b602060405180830381865afa15801561065d573d6000803e3d6000fd5b505050506040513d601f19601f820116820180604052508101906106819190610e84565b610708565b979650505050505050565b6001546001600160a01b031633146103f25760405162461bcd60e51b815260206004820152603460248201527f43616e206f6e6c792062652063616c6c65642062792074686520726567697374604482015273195c995908189c9bdad95c8818dbdb9d1c9858dd60621b60648201526084016102b7565b6000806107198460000151516107e4565b845160405161072c929190602001610ead565b60405160208183030381529060405280519060200120905060008060006107568760200151610877565b925092509250856001600160a01b0316600185838686604051600081526020016040526040516107a2949392919093845260ff9290921660208401526040830152606082015260800190565b6020604051602081039080840390855afa1580156107c4573d6000803e3d6000fd5b505050602060405103516001600160a01b03161494505050505092915050565b606060006107f1836108eb565b600101905060008167ffffffffffffffff81111561081157610811610a3f565b6040519080825280601f01601f19166020018201604052801561083b576020820181803683370190505b5090508181016020015b600019016f181899199a1a9b1b9c1cb0b131b232b360811b600a86061a8153600a850494508461084557509392505050565b600080600083516041146108cd5760405162461bcd60e51b815260206004820152601860248201527f696e76616c6964207369676e6174757265206c656e677468000000000000000060448201526064016102b7565b50505060208101516040820151606090920151909260009190911a90565b60008072184f03e93ff9f4daa797ed6e38ed64bf6a1f0160401b831061092a5772184f03e93ff9f4daa797ed6e38ed64bf6a1f0160401b830492506040015b6d04ee2d6d415b85acef81000000008310610956576d04ee2d6d415b85acef8100000000830492506020015b662386f26fc10000831061097457662386f26fc10000830492506010015b6305f5e100831061098c576305f5e100830492506008015b61271083106109a057612710830492506004015b606483106109b2576064830492506002015b600a83106105e35760010192915050565b6000602082840312156109d557600080fd5b5035919050565b60005b838110156109f75781810151838201526020016109df565b50506000910152565b60008151808452610a188160208601602086016109dc565b601f01601f19169290920160200192915050565b6020815260006105e06020830184610a00565b634e487b7160e01b600052604160045260246000fd5b600067ffffffffffffffff80841115610a7057610a70610a3f565b604051601f8501601f19908116603f01168101908282118183101715610a9857610a98610a3f565b81604052809350858152868686011115610ab157600080fd5b858560208301376000602087830101525050509392505050565b600082601f830112610adc57600080fd5b6105e083833560208501610a55565b600080600060608486031215610b0057600080fd5b83359250602084013567ffffffffffffffff811115610b1e57600080fd5b610b2a86828701610acb565b925050604084013590509250925092565b60008060408385031215610b4e57600080fd5b82359150602083013567ffffffffffffffff811115610b6c57600080fd5b610b7885828601610acb565b9150509250929050565b60008083601f840112610b9457600080fd5b50813567ffffffffffffffff811115610bac57600080fd5b602083019150836020828501011115610bc457600080fd5b9250929050565b60008060008060408587031215610be157600080fd5b843567ffffffffffffffff80821115610bf957600080fd5b610c0588838901610b82565b90965094506020870135915080821115610c1e57600080fd5b50610c2b87828801610b82565b95989497509550505050565b60008060208385031215610c4a57600080fd5b823567ffffffffffffffff811115610c6157600080fd5b610c6d85828601610b82565b90969095509350505050565b60208082526025908201527f46756e6374696f6e2061636365737369626c65206f6e6c79206279207468652060408201526437bbb732b960d91b606082015260800190565b600060208284031215610cd057600080fd5b81518015158114610ce057600080fd5b9392505050565b808201808211156105e357634e487b7160e01b600052601160045260246000fd5b604081526000610d1b6040830185610a00565b90508260208301529392505050565b600060208284031215610d3c57600080fd5b5051919050565b600060208284031215610d5557600080fd5b813567ffffffffffffffff80821115610d6d57600080fd5b9083019060208286031215610d8157600080fd5b604051602081018181108382111715610d9c57610d9c610a3f565b604052823582811115610dae57600080fd5b80840193505085601f840112610dc357600080fd5b610dd286843560208601610a55565b815295945050505050565b600060208284031215610def57600080fd5b813567ffffffffffffffff80821115610e0757600080fd5b9083019060408286031215610e1b57600080fd5b604051604081018181108382111715610e3657610e36610a3f565b604052823582811115610e4857600080fd5b610e5487828601610acb565b825250602083013582811115610e6957600080fd5b610e7587828601610acb565b60208301525095945050505050565b600060208284031215610e9657600080fd5b81516001600160a01b0381168114610ce057600080fd5b7f19457468657265756d205369676e6564204d6573736167653a0a000000000000815260008351610ee581601a8501602088016109dc565b835190830190610efc81601a8401602088016109dc565b01601a0194935050505056fe7b627974657320726573706f6e73653b206279746573207369676e61747572653b7da26469706673582212208f19b8ab247dbbec86c7f1827a430a9f6b9d7274902fcfd588fcb3fabf7a25a864736f6c63430008130033",
  "bytecodeSha1": "7514f78c04491f42c683b8411a1999d02620b09a",
  "compiler": {
    "evm_version": "istanbul",
    "optimizer": {
      "enabled": true,
      "runs": 200
    },
    "version": "0.8.19+commit.7dd6d404"
  },
  "contractName": "APIConsumer",
  "language": "Solidity",
  "natspec": {
    "kind": "dev",
    "methods": {},
    "version": 1
  },
  "opcodes": "PUSH1 0x80 PUSH1 0x40 MSTORE PUSH1 0x4 CALLDATASIZE LT PUSH2 0xC2 JUMPI PUSH1 0x0 CALLDATALOAD PUSH1 0xE0 SHR DUP1 PUSH4 0x877F0AD0 GT PUSH2 0x7F JUMPI DUP1 PUSH4 0x8F32D59B GT PUSH2 0x59 JUMPI DUP1 PUSH4 0x8F32D59B EQ PUSH2 0x20C JUMPI DUP1 PUSH4 0xC2C56245 EQ PUSH2 0x22C JUMPI DUP1 PUSH4 0xC91C7B37 EQ PUSH2 0x24C JUMPI DUP1 PUSH4 0xCB392747 EQ PUSH2 0x26C JUMPI PUSH1 0x0 DUP1 REVERT JUMPDEST DUP1 PUSH4 0x877F0AD0 EQ PUSH2 0x1DB JUMPI DUP1 PUSH4 0x8D68CF59 EQ PUSH2 0x1A3 JUMPI DUP1 PUSH4 0x8DA5CB5B EQ PUSH2 0x1EE JUMPI PUSH1 0x0 DUP1 REVERT JUMPDEST DUP1 PUSH4 0x85D4883 EQ PUSH2 0xC7 JUMPI DUP1 PUSH4 0x155DD5EE EQ PUSH2 0x104 JUMPI DUP1 PUSH4 0x2896DE13 EQ PUSH2 0x134 JUMPI DUP1 PUSH4 0x3015394C EQ PUSH2 0x183 JUMPI DUP1 PUSH4 0x43BB58DE EQ PUSH2 0x1A5 JUMPI DUP1 PUSH4 0x8244741C EQ PUSH2 0x1C6 JUMPI JUMPDEST PUSH1 0x0 DUP1 REVERT JUMPDEST CALLVALUE DUP1 ISZERO PUSH2 0xD3 JUMPI PUSH1 0x0 DUP1 REVERT JUMPDEST POP PUSH1 0x2 SLOAD PUSH2 0xE7 SWAP1 PUSH1 0x1 PUSH1 0x1 PUSH1 0xA0 SHL SUB AND DUP2 JUMP JUMPDEST PUSH1 0x40 MLOAD PUSH1 0x1 PUSH1 0x1 PUSH1 0xA0 SHL SUB SWAP1 SWAP2 AND DUP2 MSTORE PUSH1 0x20 ADD JUMPDEST PUSH1 0x40 MLOAD DUP1 SWAP2 SUB SWAP1 RETURN JUMPDEST CALLVALUE DUP1 ISZERO PUSH2 0x110 JUMPI PUSH1 0x0 DUP1 REVERT JUMPDEST POP PUSH2 0x124 PUSH2 0x11F CALLDATASIZE PUSH1 0x4 PUSH2 0x9C3 JUMP JUMPDEST PUSH2 0x28C JUMP JUMPDEST PUSH1 0x40 MLOAD SWAP1 ISZERO ISZERO DUP2 MSTORE PUSH1 0x20 ADD PUSH2 0xFB JUMP JUMPDEST CALLVALUE DUP1 ISZERO PUSH2 0x140 JUMPI PUSH1 0x0 DUP1 REVERT JUMPDEST POP PUSH1 0x40 DUP1 MLOAD DUP1 DUP3 ADD SWAP1 SWAP2 MSTORE PUSH1 0x17 DUP2 MSTORE PUSH32 0x7B737472696E67206170694964656E7469666965723B7D000000000000000000 PUSH1 0x20 DUP3 ADD MSTORE JUMPDEST PUSH1 0x40 MLOAD PUSH2 0xFB SWAP2 SWAP1 PUSH2 0xA2C JUMP JUMPDEST CALLVALUE DUP1 ISZERO PUSH2 0x18F JUMPI PUSH1 0x0 DUP1 REVERT JUMPDEST POP PUSH2 0x1A3 PUSH2 0x19E CALLDATASIZE PUSH1 0x4 PUSH2 0x9C3 JUMP JUMPDEST PUSH2 0x359 JUMP JUMPDEST STOP JUMPDEST PUSH2 0x1B8 PUSH2 0x1B3 CALLDATASIZE PUSH1 0x4 PUSH2 0xAEB JUMP JUMPDEST PUSH2 0x3F6 JUMP JUMPDEST PUSH1 0x40 MLOAD SWAP1 DUP2 MSTORE PUSH1 0x20 ADD PUSH2 0xFB JUMP JUMPDEST CALLVALUE DUP1 ISZERO PUSH2 0x1D2 JUMPI PUSH1 0x0 DUP1 REVERT JUMPDEST POP PUSH2 0x176 PUSH2 0x589 JUMP JUMPDEST PUSH2 0x1B8 PUSH2 0x1E9 CALLDATASIZE PUSH1 0x4 PUSH2 0xB3B JUMP JUMPDEST PUSH2 0x5A9 JUMP JUMPDEST CALLVALUE DUP1 ISZERO PUSH2 0x1FA JUMPI PUSH1 0x0 DUP1 REVERT JUMPDEST POP PUSH1 0x0 SLOAD PUSH1 0x1 PUSH1 0x1 PUSH1 0xA0 SHL SUB AND PUSH2 0xE7 JUMP JUMPDEST CALLVALUE DUP1 ISZERO PUSH2 0x218 JUMPI PUSH1 0x0 DUP1 REVERT JUMPDEST POP PUSH1 0x0 SLOAD PUSH1 0x1 PUSH1 0x1 PUSH1 0xA0 SHL SUB AND CALLER EQ PUSH2 0x124 JUMP JUMPDEST CALLVALUE DUP1 ISZERO PUSH2 0x238 JUMPI PUSH1 0x0 DUP1 REVERT JUMPDEST POP PUSH1 0x1 SLOAD PUSH2 0xE7 SWAP1 PUSH1 0x1 PUSH1 0x1 PUSH1 0xA0 SHL SUB AND DUP2 JUMP JUMPDEST CALLVALUE DUP1 ISZERO PUSH2 0x258 JUMPI PUSH1 0x0 DUP1 REVERT JUMPDEST POP PUSH2 0x124 PUSH2 0x267 CALLDATASIZE PUSH1 0x4 PUSH2 0xBCB JUMP JUMPDEST PUSH2 0x5E9 JUMP JUMPDEST CALLVALUE DUP1 ISZERO PUSH2 0x278 JUMPI PUSH1 0x0 DUP1 REVERT JUMPDEST POP PUSH2 0x1A3 PUSH2 0x287 CALLDATASIZE PUSH1 0x4 PUSH2 0xC37 JUMP JUMPDEST PUSH2 0x691 JUMP JUMPDEST PUSH1 0x0 DUP1 SLOAD PUSH1 0x1 PUSH1 0x1 PUSH1 0xA0 SHL SUB AND CALLER EQ PUSH2 0x2C0 JUMPI PUSH1 0x40 MLOAD PUSH3 0x461BCD PUSH1 0xE5 SHL DUP2 MSTORE PUSH1 0x4 ADD PUSH2 0x2B7 SWAP1 PUSH2 0xC79 JUMP JUMPDEST PUSH1 0x40 MLOAD DUP1 SWAP2 SUB SWAP1 REVERT JUMPDEST DUP2 SELFBALANCE LT ISZERO PUSH2 0x305 JUMPI PUSH1 0x40 MLOAD PUSH3 0x461BCD PUSH1 0xE5 SHL DUP2 MSTORE PUSH1 0x20 PUSH1 0x4 DUP3 ADD MSTORE PUSH1 0x12 PUSH1 0x24 DUP3 ADD MSTORE PUSH18 0x496E73756666696369656E742066756E6473 PUSH1 0x70 SHL PUSH1 0x44 DUP3 ADD MSTORE PUSH1 0x64 ADD PUSH2 0x2B7 JUMP JUMPDEST PUSH1 0x40 MLOAD CALLER SWAP1 PUSH1 0x0 SWAP1 DUP3 SWAP1 DUP6 SWAP1 DUP4 DUP2 DUP2 DUP2 DUP6 DUP8 GAS CALL SWAP3 POP POP POP RETURNDATASIZE DUP1 PUSH1 0x0 DUP2 EQ PUSH2 0x349 JUMPI PUSH1 0x40 MLOAD SWAP2 POP PUSH1 0x1F NOT PUSH1 0x3F RETURNDATASIZE ADD AND DUP3 ADD PUSH1 0x40 MSTORE RETURNDATASIZE DUP3 MSTORE RETURNDATASIZE PUSH1 0x0 PUSH1 0x20 DUP5 ADD RETURNDATACOPY PUSH2 0x34E JUMP JUMPDEST PUSH1 0x60 SWAP2 POP JUMPDEST POP SWAP1 SWAP6 SWAP5 POP POP POP POP POP JUMP JUMPDEST PUSH1 0x0 SLOAD PUSH1 0x1 PUSH1 0x1 PUSH1 0xA0 SHL SUB AND CALLER EQ PUSH2 0x383 JUMPI PUSH1 0x40 MLOAD PUSH3 0x461BCD PUSH1 0xE5 SHL DUP2 MSTORE PUSH1 0x4 ADD PUSH2 0x2B7 SWAP1 PUSH2 0xC79 JUMP JUMPDEST PUSH1 0x1 SLOAD PUSH1 0x40 MLOAD PUSH4 0xC054E53 PUSH1 0xE2 SHL DUP2 MSTORE PUSH1 0x4 DUP2 ADD DUP4 SWAP1 MSTORE PUSH1 0x1 PUSH1 0x1 PUSH1 0xA0 SHL SUB SWAP1 SWAP2 AND SWAP1 PUSH4 0x3015394C SWAP1 PUSH1 0x24 ADD PUSH1 0x20 PUSH1 0x40 MLOAD DUP1 DUP4 SUB DUP2 PUSH1 0x0 DUP8 GAS CALL ISZERO DUP1 ISZERO PUSH2 0x3CE JUMPI RETURNDATASIZE PUSH1 0x0 DUP1 RETURNDATACOPY RETURNDATASIZE PUSH1 0x0 REVERT JUMPDEST POP POP POP POP PUSH1 0x40 MLOAD RETURNDATASIZE PUSH1 0x1F NOT PUSH1 0x1F DUP3 ADD AND DUP3 ADD DUP1 PUSH1 0x40 MSTORE POP DUP2 ADD SWAP1 PUSH2 0x3F2 SWAP2 SWAP1 PUSH2 0xCBE JUMP JUMPDEST POP POP JUMP JUMPDEST PUSH1 0x1 SLOAD PUSH1 0x0 SWAP1 PUSH1 0x1 PUSH1 0x1 PUSH1 0xA0 SHL SUB AND CALLER EQ DUP1 PUSH2 0x41C JUMPI POP PUSH1 0x0 SLOAD PUSH1 0x1 PUSH1 0x1 PUSH1 0xA0 SHL SUB AND CALLER EQ JUMPDEST PUSH2 0x480 JUMPI PUSH1 0x40 MLOAD PUSH3 0x461BCD PUSH1 0xE5 SHL DUP2 MSTORE PUSH1 0x20 PUSH1 0x4 DUP3 ADD MSTORE PUSH1 0x2F PUSH1 0x24 DUP3 ADD MSTORE PUSH32 0x46756E6374696F6E2061636365737369626C65206F6E6C792062792074686520 PUSH1 0x44 DUP3 ADD MSTORE PUSH15 0x37BBB732B91037B910313937B5B2B9 PUSH1 0x89 SHL PUSH1 0x64 DUP3 ADD MSTORE PUSH1 0x84 ADD PUSH2 0x2B7 JUMP JUMPDEST PUSH2 0x48A SELFBALANCE CALLVALUE PUSH2 0xCE7 JUMP JUMPDEST DUP5 GT ISZERO PUSH2 0x4CE JUMPI PUSH1 0x40 MLOAD PUSH3 0x461BCD PUSH1 0xE5 SHL DUP2 MSTORE PUSH1 0x20 PUSH1 0x4 DUP3 ADD MSTORE PUSH1 0x12 PUSH1 0x24 DUP3 ADD MSTORE PUSH18 0x496E73756666696369656E742066756E6473 PUSH1 0x70 SHL PUSH1 0x44 DUP3 ADD MSTORE PUSH1 0x64 ADD PUSH2 0x2B7 JUMP JUMPDEST PUSH1 0x1 SLOAD PUSH1 0x40 MLOAD PUSH4 0x78F8AF25 PUSH1 0xE1 SHL DUP2 MSTORE PUSH1 0x0 SWAP2 PUSH1 0x1 PUSH1 0x1 PUSH1 0xA0 SHL SUB AND SWAP1 PUSH4 0xF1F15E4A SWAP1 DUP8 SWAP1 PUSH2 0x503 SWAP1 DUP9 SWAP1 DUP9 SWAP1 PUSH1 0x4 ADD PUSH2 0xD08 JUMP JUMPDEST PUSH1 0x20 PUSH1 0x40 MLOAD DUP1 DUP4 SUB DUP2 DUP6 DUP9 GAS CALL ISZERO DUP1 ISZERO PUSH2 0x521 JUMPI RETURNDATASIZE PUSH1 0x0 DUP1 RETURNDATACOPY RETURNDATASIZE PUSH1 0x0 REVERT JUMPDEST POP POP POP POP POP PUSH1 0x40 MLOAD RETURNDATASIZE PUSH1 0x1F NOT PUSH1 0x1F DUP3 ADD AND DUP3 ADD DUP1 PUSH1 0x40 MSTORE POP DUP2 ADD SWAP1 PUSH2 0x546 SWAP2 SWAP1 PUSH2 0xD2A JUMP JUMPDEST SWAP1 POP PUSH32 0xD3B0B0209035A5613265E8FB1F38873EA24C7C6189B128EEBE3689C03D13905C DUP2 PUSH1 0x40 MLOAD PUSH2 0x579 SWAP2 DUP2 MSTORE PUSH1 0x20 ADD SWAP1 JUMP JUMPDEST PUSH1 0x40 MLOAD DUP1 SWAP2 SUB SWAP1 LOG1 SWAP5 SWAP4 POP POP POP POP JUMP JUMPDEST PUSH1 0x60 PUSH1 0x40 MLOAD DUP1 PUSH1 0x60 ADD PUSH1 0x40 MSTORE DUP1 PUSH1 0x22 DUP2 MSTORE PUSH1 0x20 ADD PUSH2 0xF09 PUSH1 0x22 SWAP2 CODECOPY SWAP1 POP SWAP1 JUMP JUMPDEST PUSH1 0x0 DUP1 SLOAD PUSH1 0x1 PUSH1 0x1 PUSH1 0xA0 SHL SUB AND CALLER EQ PUSH2 0x5D4 JUMPI PUSH1 0x40 MLOAD PUSH3 0x461BCD PUSH1 0xE5 SHL DUP2 MSTORE PUSH1 0x4 ADD PUSH2 0x2B7 SWAP1 PUSH2 0xC79 JUMP JUMPDEST PUSH2 0x5E0 DUP4 DUP4 PUSH1 0x0 PUSH2 0x3F6 JUMP JUMPDEST SWAP1 POP JUMPDEST SWAP3 SWAP2 POP POP JUMP JUMPDEST PUSH1 0x0 DUP1 PUSH2 0x5F8 DUP6 DUP8 ADD DUP8 PUSH2 0xD43 JUMP JUMPDEST SWAP1 POP PUSH1 0x0 PUSH2 0x608 DUP5 DUP7 ADD DUP7 PUSH2 0xDDD JUMP JUMPDEST PUSH1 0x2 SLOAD DUP4 MLOAD PUSH1 0x40 MLOAD PUSH4 0xBF40FAC1 PUSH1 0xE0 SHL DUP2 MSTORE SWAP3 SWAP4 POP PUSH2 0x686 SWAP3 DUP5 SWAP3 PUSH1 0x1 PUSH1 0x1 PUSH1 0xA0 SHL SUB AND SWAP2 PUSH4 0xBF40FAC1 SWAP2 PUSH2 0x640 SWAP2 SWAP1 PUSH1 0x4 ADD PUSH2 0xA2C JUMP JUMPDEST PUSH1 0x20 PUSH1 0x40 MLOAD DUP1 DUP4 SUB DUP2 DUP7 GAS STATICCALL ISZERO DUP1 ISZERO PUSH2 0x65D JUMPI RETURNDATASIZE PUSH1 0x0 DUP1 RETURNDATACOPY RETURNDATASIZE PUSH1 0x0 REVERT JUMPDEST POP POP POP POP PUSH1 0x40 MLOAD RETURNDATASIZE PUSH1 0x1F NOT PUSH1 0x1F DUP3 ADD AND DUP3 ADD DUP1 PUSH1 0x40 MSTORE POP DUP2 ADD SWAP1 PUSH2 0x681 SWAP2 SWAP1 PUSH2 0xE84 JUMP JUMPDEST PUSH2 0x708 JUMP JUMPDEST SWAP8 SWAP7 POP POP POP POP POP POP POP JUMP JUMPDEST PUSH1 0x1 SLOAD PUSH1 0x1 PUSH1 0x1 PUSH1 0xA0 SHL SUB AND CALLER EQ PUSH2 0x3F2 JUMPI PUSH1 0x40 MLOAD PUSH3 0x461BCD PUSH1 0xE5 SHL DUP2 MSTORE PUSH1 0x20 PUSH1 0x4 DUP3 ADD MSTORE PUSH1 0x34 PUSH1 0x24 DUP3 ADD MSTORE PUSH32 0x43616E206F6E6C792062652063616C6C65642062792074686520726567697374 PUSH1 0x44 DUP3 ADD MSTORE PUSH20 0x195C995908189C9BDAD95C8818DBDB9D1C9858DD PUSH1 0x62 SHL PUSH1 0x64 DUP3 ADD MSTORE PUSH1 0x84 ADD PUSH2 0x2B7 JUMP JUMPDEST PUSH1 0x0 DUP1 PUSH2 0x719 DUP5 PUSH1 0x0 ADD MLOAD MLOAD PUSH2 0x7E4 JUMP JUMPDEST DUP5 MLOAD PUSH1 0x40 MLOAD PUSH2 0x72C SWAP3 SWAP2 SWAP1 PUSH1 0x20 ADD PUSH2 0xEAD JUMP JUMPDEST PUSH1 0x40 MLOAD PUSH1 0x20 DUP2 DUP4 SUB SUB DUP2 MSTORE SWAP1 PUSH1 0x40 MSTORE DUP1 MLOAD SWAP1 PUSH1 0x20 ADD KECCAK256 SWAP1 POP PUSH1 0x0 DUP1 PUSH1 0x0 PUSH2 0x756 DUP8 PUSH1 0x20 ADD MLOAD PUSH2 0x877 JUMP JUMPDEST SWAP3 POP SWAP3 POP SWAP3 POP DUP6 PUSH1 0x1 PUSH1 0x1 PUSH1 0xA0 SHL SUB AND PUSH1 0x1 DUP6 DUP4 DUP7 DUP7 PUSH1 0x40 MLOAD PUSH1 0x0 DUP2 MSTORE PUSH1 0x20 ADD PUSH1 0x40 MSTORE PUSH1 0x40 MLOAD PUSH2 0x7A2 SWAP5 SWAP4 SWAP3 SWAP2 SWAP1 SWAP4 DUP5 MSTORE PUSH1 0xFF SWAP3 SWAP1 SWAP3 AND PUSH1 0x20 DUP5 ADD MSTORE PUSH1 0x40 DUP4 ADD MSTORE PUSH1 0x60 DUP3 ADD MSTORE PUSH1 0x80 ADD SWAP1 JUMP JUMPDEST PUSH1 0x20 PUSH1 0x40 MLOAD PUSH1 0x20 DUP2 SUB SWAP1 DUP1 DUP5 SUB SWAP1 DUP6 GAS STATICCALL ISZERO DUP1 ISZERO PUSH2 0x7C4 JUMPI RETURNDATASIZE PUSH1 0x0 DUP1 RETURNDATACOPY RETURNDATASIZE PUSH1 0x0 REVERT JUMPDEST POP POP POP PUSH1 0x20 PUSH1 0x40 MLOAD SUB MLOAD PUSH1 0x1 PUSH1 0x1 PUSH1 0xA0 SHL SUB AND EQ SWAP5 POP POP POP POP POP SWAP3 SWAP2 POP POP JUMP JUMPDEST PUSH1 0x60 PUSH1 0x0 PUSH2 0x7F1 DUP4 PUSH2 0x8EB JUMP JUMPDEST PUSH1 0x1 ADD SWAP1 POP PUSH1 0x0 DUP2 PUSH8 0xFFFFFFFFFFFFFFFF DUP2 GT ISZERO PUSH2 0x811 JUMPI PUSH2 0x811 PUSH2 0xA3F JUMP JUMPDEST PUSH1 0x40 MLOAD SWAP1 DUP1 DUP3 MSTORE DUP1 PUSH1 0x1F ADD PUSH1 0x1F NOT AND PUSH1 0x20 ADD DUP3 ADD PUSH1 0x40 MSTORE DUP1 ISZERO PUSH2 0x83B JUMPI PUSH1 0x20 DUP3 ADD DUP2 DUP1 CALLDATASIZE DUP4 CALLDATACOPY ADD SWAP1 POP JUMPDEST POP SWAP1 POP DUP2 DUP2 ADD PUSH1 0x20 ADD JUMPDEST PUSH1 0x0 NOT ADD PUSH16 0x181899199A1A9B1B9C1CB0B131B232B3 PUSH1 0x81 SHL PUSH1 0xA DUP7 MOD BYTE DUP2 MSTORE8 PUSH1 0xA DUP6 DIV SWAP5 POP DUP5 PUSH2 0x845 JUMPI POP SWAP4 SWAP3 POP POP POP JUMP JUMPDEST PUSH1 0x0 DUP1 PUSH1 0x0 DUP4 MLOAD PUSH1 0x41 EQ PUSH2 0x8CD JUMPI PUSH1 0x40 MLOAD PUSH3 0x461BCD PUSH1 0xE5 SHL DUP2 MSTORE PUSH1 0x20 PUSH1 0x4 DUP3 ADD MSTORE PUSH1 0x18 PUSH1 0x24 DUP3 ADD MSTORE PUSH32 0x696E76616C6964207369676E6174757265206C656E6774680000000000000000 PUSH1 0x44 DUP3 ADD MSTORE PUSH1 0x64 ADD PUSH2 0x2B7 JUMP JUMPDEST POP POP POP PUSH1 0x20 DUP2 ADD MLOAD PUSH1 0x40 DUP3 ADD MLOAD PUSH1 0x60 SWAP1 SWAP3 ADD MLOAD SWAP1 SWAP3 PUSH1 0x0 SWAP2 SWAP1 SWAP2 BYTE SWAP1 JUMP JUMPDEST PUSH1 0x0 DUP1 PUSH19 0x184F03E93FF9F4DAA797ED6E38ED64BF6A1F01 PUSH1 0x40 SHL DUP4 LT PUSH2 0x92A JUMPI PUSH19 0x184F03E93FF9F4DAA797ED6E38ED64BF6A1F01 PUSH1 0x40 SHL DUP4 DIV SWAP3 POP PUSH1 0x40 ADD JUMPDEST PUSH14 0x4EE2D6D415B85ACEF8100000000 DUP4 LT PUSH2 0x956 JUMPI PUSH14 0x4EE2D6D415B85ACEF8100000000 DUP4 DIV SWAP3 POP PUSH1 0x20 ADD JUMPDEST PUSH7 0x2386F26FC10000 DUP4 LT PUSH2 0x974 JUMPI PUSH7 0x2386F26FC10000 DUP4 DIV SWAP3 POP PUSH1 0x10 ADD JUMPDEST PUSH4 0x5F5E100 DUP4 LT PUSH2 0x98C JUMPI PUSH4 0x5F5E100 DUP4 DIV SWAP3 POP PUSH1 0x8 ADD JUMPDEST PUSH2 0x2710 DUP4 LT PUSH2 0x9A0 JUMPI PUSH2 0x2710 DUP4 DIV SWAP3 POP PUSH1 0x4 ADD JUMPDEST PUSH1 0x64 DUP4 LT PUSH2 0x9B2 JUMPI PUSH1 0x64 DUP4 DIV SWAP3 POP PUSH1 0x2 ADD JUMPDEST PUSH1 0xA DUP4 LT PUSH2 0x5E3 JUMPI PUSH1 0x1 ADD SWAP3 SWAP2 POP POP JUMP JUMPDEST PUSH1 0x0 PUSH1 0x20 DUP3 DUP5 SUB SLT ISZERO PUSH2 0x9D5 JUMPI PUSH1 0x0 DUP1 REVERT JUMPDEST POP CALLDATALOAD SWAP2 SWAP1 POP JUMP JUMPDEST PUSH1 0x0 JUMPDEST DUP4 DUP2 LT ISZERO PUSH2 0x9F7 JUMPI DUP2 DUP2 ADD MLOAD DUP4 DUP3 ADD MSTORE PUSH1 0x20 ADD PUSH2 0x9DF JUMP JUMPDEST POP POP PUSH1 0x0 SWAP2 ADD MSTORE JUMP JUMPDEST PUSH1 0x0 DUP2 MLOAD DUP1 DUP5 MSTORE PUSH2 0xA18 DUP2 PUSH1 0x20 DUP7 ADD PUSH1 0x20 DUP7 ADD PUSH2 0x9DC JUMP JUMPDEST PUSH1 0x1F ADD PUSH1 0x1F NOT AND SWAP3 SWAP1 SWAP3 ADD PUSH1 0x20 ADD SWAP3 SWAP2 POP POP JUMP JUMPDEST PUSH1 0x20 DUP2 MSTORE PUSH1 0x0 PUSH2 0x5E0 PUSH1 0x20 DUP4 ADD DUP5 PUSH2 0xA00 JUMP JUMPDEST PUSH4 0x4E487B71 PUSH1 0xE0 SHL PUSH1 0x0 MSTORE PUSH1 0x41 PUSH1 0x4 MSTORE PUSH1 0x24 PUSH1 0x0 REVERT JUMPDEST PUSH1 0x0 PUSH8 0xFFFFFFFFFFFFFFFF DUP1 DUP5 GT ISZERO PUSH2 0xA70 JUMPI PUSH2 0xA70 PUSH2 0xA3F JUMP JUMPDEST PUSH1 0x40 MLOAD PUSH1 0x1F DUP6 ADD PUSH1 0x1F NOT SWAP1 DUP2 AND PUSH1 0x3F ADD AND DUP2 ADD SWAP1 DUP3 DUP3 GT DUP2 DUP4 LT OR ISZERO PUSH2 0xA98 JUMPI PUSH2 0xA98 PUSH2 0xA3F JUMP JUMPDEST DUP2 PUSH1 0x40 MSTORE DUP1 SWAP4 POP DUP6 DUP2 MSTORE DUP7 DUP7 DUP7 ADD GT ISZERO PUSH2 0xAB1 JUMPI PUSH1 0x0 DUP1 REVERT JUMPDEST DUP6 DUP6 PUSH1 0x20 DUP4 ADD CALLDATACOPY PUSH1 0x0 PUSH1 0x20 DUP8 DUP4 ADD ADD MSTORE POP POP POP SWAP4 SWAP3 POP POP POP JUMP JUMPDEST PUSH1 0x0 DUP3 PUSH1 0x1F DUP4 ADD SLT PUSH2 0xADC JUMPI PUSH1 0x0 DUP1 REVERT JUMPDEST PUSH2 0x5E0 DUP4 DUP4 CALLDATALOAD PUSH1 0x20 DUP6 ADD PUSH2 0xA55 JUMP JUMPDEST PUSH1 0x0 DUP1 PUSH1 0x0 PUSH1 0x60 DUP5 DUP7 SUB SLT ISZERO PUSH2 0xB00 JUMPI PUSH1 0x0 DUP1 REVERT JUMPDEST DUP4 CALLDATALOAD SWAP3 POP PUSH1 0x20 DUP5 ADD CALLDATALOAD PUSH8 0xFFFFFFFFFFFFFFFF DUP2 GT ISZERO PUSH2 0xB1E JUMPI PUSH1 0x0 DUP1 REVERT JUMPDEST PUSH2 0xB2A DUP7 DUP3 DUP8 ADD PUSH2 0xACB JUMP JUMPDEST SWAP3 POP POP PUSH1 0x40 DUP5 ADD CALLDATALOAD SWAP1 POP SWAP3 POP SWAP3 POP SWAP3 JUMP JUMPDEST PUSH1 0x0 DUP1 PUSH1 0x40 DUP4 DUP6 SUB SLT ISZERO PUSH2 0xB4E JUMPI PUSH1 0x0 DUP1 REVERT JUMPDEST DUP3 CALLDATALOAD SWAP2 POP PUSH1 0x20 DUP4 ADD CALLDATALOAD PUSH8 0xFFFFFFFFFFFFFFFF DUP2 GT ISZERO PUSH2 0xB6C JUMPI PUSH1 0x0 DUP1 REVERT JUMPDEST PUSH2 0xB78 DUP6 DUP3 DUP7 ADD PUSH2 0xACB JUMP JUMPDEST SWAP2 POP POP SWAP3 POP SWAP3 SWAP1 POP JUMP JUMPDEST PUSH1 0x0 DUP1 DUP4 PUSH1 0x1F DUP5 ADD SLT PUSH2 0xB94 JUMPI PUSH1 0x0 DUP1 REVERT JUMPDEST POP DUP2 CALLDATALOAD PUSH8 0xFFFFFFFFFFFFFFFF DUP2 GT ISZERO PUSH2 0xBAC JUMPI PUSH1 0x0 DUP1 REVERT JUMPDEST PUSH1 0x20 DUP4 ADD SWAP2 POP DUP4 PUSH1 0x20 DUP3 DUP6 ADD ADD GT ISZERO PUSH2 0xBC4 JUMPI PUSH1 0x0 DUP1 REVERT JUMPDEST SWAP3 POP SWAP3 SWAP1 POP JUMP JUMPDEST PUSH1 0x0 DUP1 PUSH1 0x0 DUP1 PUSH1 0x40 DUP6 DUP8 SUB SLT ISZERO PUSH2 0xBE1 JUMPI PUSH1 0x0 DUP1 REVERT JUMPDEST DUP5 CALLDATALOAD PUSH8 0xFFFFFFFFFFFFFFFF DUP1 DUP3 GT ISZERO PUSH2 0xBF9 JUMPI PUSH1 0x0 DUP1 REVERT JUMPDEST PUSH2 0xC05 DUP9 DUP4 DUP10 ADD PUSH2 0xB82 JUMP JUMPDEST SWAP1 SWAP7 POP SWAP5 POP PUSH1 0x20 DUP8 ADD CALLDATALOAD SWAP2 POP DUP1 DUP3 GT ISZERO PUSH2 0xC1E JUMPI PUSH1 0x0 DUP1 REVERT JUMPDEST POP PUSH2 0xC2B DUP8 DUP3 DUP9 ADD PUSH2 0xB82 JUMP JUMPDEST SWAP6 SWAP9 SWAP5 SWAP8 POP SWAP6 POP POP POP POP JUMP JUMPDEST PUSH1 0x0 DUP1 PUSH1 0x20 DUP4 DUP6 SUB SLT ISZERO PUSH2 0xC4A JUMPI PUSH1 0x0 DUP1 REVERT JUMPDEST DUP3 CALLDATALOAD PUSH8 0xFFFFFFFFFFFFFFFF DUP2 GT ISZERO PUSH2 0xC61 JUMPI PUSH1 0x0 DUP1 REVERT JUMPDEST PUSH2 0xC6D DUP6 DUP3 DUP7 ADD PUSH2 0xB82 JUMP JUMPDEST SWAP1 SWAP7 SWAP1 SWAP6 POP SWAP4 POP POP POP POP JUMP JUMPDEST PUSH1 0x20 DUP1 DUP3 MSTORE PUSH1 0x25 SWAP1 DUP3 ADD MSTORE PUSH32 0x46756E6374696F6E2061636365737369626C65206F6E6C792062792074686520 PUSH1 0x40 DUP3 ADD MSTORE PUSH5 0x37BBB732B9 PUSH1 0xD9 SHL PUSH1 0x60 DUP3 ADD MSTORE PUSH1 0x80 ADD SWAP1 JUMP JUMPDEST PUSH1 0x0 PUSH1 0x20 DUP3 DUP5 SUB SLT ISZERO PUSH2 0xCD0 JUMPI PUSH1 0x0 DUP1 REVERT JUMPDEST DUP2 MLOAD DUP1 ISZERO ISZERO DUP2 EQ PUSH2 0xCE0 JUMPI PUSH1 0x0 DUP1 REVERT JUMPDEST SWAP4 SWAP3 POP POP POP JUMP JUMPDEST DUP1 DUP3 ADD DUP1 DUP3 GT ISZERO PUSH2 0x5E3 JUMPI PUSH4 0x4E487B71 PUSH1 0xE0 SHL PUSH1 0x0 MSTORE PUSH1 0x11 PUSH1 0x4 MSTORE PUSH1 0x24 PUSH1 0x0 REVERT JUMPDEST PUSH1 0x40 DUP2 MSTORE PUSH1 0x0 PUSH2 0xD1B PUSH1 0x40 DUP4 ADD DUP6 PUSH2 0xA00 JUMP JUMPDEST SWAP1 POP DUP3 PUSH1 0x20 DUP4 ADD MSTORE SWAP4 SWAP3 POP POP POP JUMP JUMPDEST PUSH1 0x0 PUSH1 0x20 DUP3 DUP5 SUB SLT ISZERO PUSH2 0xD3C JUMPI PUSH1 0x0 DUP1 REVERT JUMPDEST POP MLOAD SWAP2 SWAP1 POP JUMP JUMPDEST PUSH1 0x0 PUSH1 0x20 DUP3 DUP5 SUB SLT ISZERO PUSH2 0xD55 JUMPI PUSH1 0x0 DUP1 REVERT JUMPDEST DUP2 CALLDATALOAD PUSH8 0xFFFFFFFFFFFFFFFF DUP1 DUP3 GT ISZERO PUSH2 0xD6D JUMPI PUSH1 0x0 DUP1 REVERT JUMPDEST SWAP1 DUP4 ADD SWAP1 PUSH1 0x20 DUP3 DUP7 SUB SLT ISZERO PUSH2 0xD81 JUMPI PUSH1 0x0 DUP1 REVERT JUMPDEST PUSH1 0x40 MLOAD PUSH1 0x20 DUP2 ADD DUP2 DUP2 LT DUP4 DUP3 GT OR ISZERO PUSH2 0xD9C JUMPI PUSH2 0xD9C PUSH2 0xA3F JUMP JUMPDEST PUSH1 0x40 MSTORE DUP3 CALLDATALOAD DUP3 DUP2 GT ISZERO PUSH2 0xDAE JUMPI PUSH1 0x0 DUP1 REVERT JUMPDEST DUP1 DUP5 ADD SWAP4 POP POP DUP6 PUSH1 0x1F DUP5 ADD SLT PUSH2 0xDC3 JUMPI PUSH1 0x0 DUP1 REVERT JUMPDEST PUSH2 0xDD2 DUP7 DUP5 CALLDATALOAD PUSH1 0x20 DUP7 ADD PUSH2 0xA55 JUMP JUMPDEST DUP2 MSTORE SWAP6 SWAP5 POP POP POP POP POP JUMP JUMPDEST PUSH1 0x0 PUSH1 0x20 DUP3 DUP5 SUB SLT ISZERO PUSH2 0xDEF JUMPI PUSH1 0x0 DUP1 REVERT JUMPDEST DUP2 CALLDATALOAD PUSH8 0xFFFFFFFFFFFFFFFF DUP1 DUP3 GT ISZERO PUSH2 0xE07 JUMPI PUSH1 0x0 DUP1 REVERT JUMPDEST SWAP1 DUP4 ADD SWAP1 PUSH1 0x40 DUP3 DUP7 SUB SLT ISZERO PUSH2 0xE1B JUMPI PUSH1 0x0 DUP1 REVERT JUMPDEST PUSH1 0x40 MLOAD PUSH1 0x40 DUP2 ADD DUP2 DUP2 LT DUP4 DUP3 GT OR ISZERO PUSH2 0xE36 JUMPI PUSH2 0xE36 PUSH2 0xA3F JUMP JUMPDEST PUSH1 0x40 MSTORE DUP3 CALLDATALOAD DUP3 DUP2 GT ISZERO PUSH2 0xE48 JUMPI PUSH1 0x0 DUP1 REVERT JUMPDEST PUSH2 0xE54 DUP8 DUP3 DUP7 ADD PUSH2 0xACB JUMP JUMPDEST DUP3 MSTORE POP PUSH1 0x20 DUP4 ADD CALLDATALOAD DUP3 DUP2 GT ISZERO PUSH2 0xE69 JUMPI PUSH1 0x0 DUP1 REVERT JUMPDEST PUSH2 0xE75 DUP8 DUP3 DUP7 ADD PUSH2 0xACB JUMP JUMPDEST PUSH1 0x20 DUP4 ADD MSTORE POP SWAP6 SWAP5 POP POP POP POP POP JUMP JUMPDEST PUSH1 0x0 PUSH1 0x20 DUP3 DUP5 SUB SLT ISZERO PUSH2 0xE96 JUMPI PUSH1 0x0 DUP1 REVERT JUMPDEST DUP2 MLOAD PUSH1 0x1 PUSH1 0x1 PUSH1 0xA0 SHL SUB DUP2 AND DUP2 EQ PUSH2 0xCE0 JUMPI PUSH1 0x0 DUP1 REVERT JUMPDEST PUSH32 0x19457468657265756D205369676E6564204D6573736167653A0A000000000000 DUP2 MSTORE PUSH1 0x0 DUP4 MLOAD PUSH2 0xEE5 DUP2 PUSH1 0x1A DUP6 ADD PUSH1 0x20 DUP9 ADD PUSH2 0x9DC JUMP JUMPDEST DUP4 MLOAD SWAP1 DUP4 ADD SWAP1 PUSH2 0xEFC DUP2 PUSH1 0x1A DUP5 ADD PUSH1 0x20 DUP9 ADD PUSH2 0x9DC JUMP JUMPDEST ADD PUSH1 0x1A ADD SWAP5 SWAP4 POP POP POP POP JUMP INVALID PUSH28 0x627974657320726573706F6E73653B206279746573207369676E6174 PUSH22 0x72653B7DA26469706673582212208F19B8AB247DBBEC DUP7 0xC7 CALL DUP3 PUSH27 0x430A9F6B9D7274902FCFD588FCB3FABF7A25A864736F6C63430008 SGT STOP CALLER ",
  "sha1": "c96aa4a8e9422237f38d8e8b01f4ef03874e5ae6",
  "source": "// SPDX-License-Identifier: GPL-3.0\n\npragma solidity >=0.7.0 <0.9.0;\n\nimport \"./APIProvider.sol\";\nimport \"./BaseClient.sol\";\n\nimport \"@openzeppelin/contracts/utils/Strings.sol\";\n\n\nstruct Input {\n    string apiIdentifier;\n}\n\nstruct APIResponse { //TODO pasar estas esctructuras al provider? o la funcion de getinputdatastructure a algun lugar accesible por APIOracle python\n    bytes response;\n    bytes signature;\n}\n\ncontract APIConsumer is BaseClient {\n\n    APIProvider public provider;\n    \n    constructor(address brokerAddress, address apiProviderAddress) BaseClient(brokerAddress) {\n        provider = APIProvider(apiProviderAddress);\n    }\n\n    function submitRequest(uint payment, bytes memory input) public onlyOwner payable returns (uint) {\n        return super.submitRequest(payment, input, 0);\n    }\n\n    function checkResult(bytes calldata inputData, bytes calldata resultData) external override view returns (bool) {\n        Input memory input = abi.decode(inputData, (Input));\n        APIResponse memory apiResponse = abi.decode(resultData, (APIResponse));\n        return _verifySignature(apiResponse, provider.getAddress(input.apiIdentifier));\n    }\n\n    function getInputDataStructure() external override pure returns (string memory) {\n        return \"{string apiIdentifier;}\";\n    }\n\n    function getResultDataStructure() external override pure returns (string memory) {\n        return \"{bytes response; bytes signature;}\";\n    }\n\n    function _verifySignature(APIResponse memory apiResponse, address signer) private pure returns (bool) {\n        bytes32 prefixedHash = keccak256(abi.encodePacked(\"\\x19Ethereum Signed Message:\\n\", Strings.toString(apiResponse.response.length), apiResponse.response));\n        (bytes32 r, bytes32 s, uint8 v) = _splitSignature(apiResponse.signature);\n        return (ecrecover(prefixedHash, v, r, s) == signer);\n    }\n\n    function _splitSignature(bytes memory signature) private pure returns (bytes32 r, bytes32 s, uint8 v) {\n        require(signature.length == 65, \"invalid signature length\");\n        assembly {\n            r := mload(add(signature, 32))\n            s := mload(add(signature, 64))\n            v := byte(0, mload(add(signature, 96)))\n        }\n    }\n\n}",
  "sourcePath": "contracts/APIConsumer.sol",
  "type": "contract"
}