{
  "abi": [
    {
      "inputs": [
        {
          "internalType": "address",
          "name": "apiProviderAddress",
          "type": "address"
        }
      ],
      "stateMutability": "nonpayable",
      "type": "constructor"
    },
    {
      "inputs": [],
      "name": "provider",
      "outputs": [
        {
          "internalType": "contract APIProvider",
          "name": "",
          "type": "address"
        }
      ],
      "stateMutability": "view",
      "type": "function"
    },
    {
      "inputs": [
        {
          "internalType": "bytes",
          "name": "signature",
          "type": "bytes"
        }
      ],
      "name": "splitSignature",
      "outputs": [
        {
          "internalType": "bytes32",
          "name": "r",
          "type": "bytes32"
        },
        {
          "internalType": "bytes32",
          "name": "s",
          "type": "bytes32"
        },
        {
          "internalType": "uint8",
          "name": "v",
          "type": "uint8"
        }
      ],
      "stateMutability": "pure",
      "type": "function"
    },
    {
      "inputs": [
        {
          "internalType": "bytes32",
          "name": "signedHash",
          "type": "bytes32"
        },
        {
          "internalType": "bytes",
          "name": "signature",
          "type": "bytes"
        },
        {
          "internalType": "address",
          "name": "signer",
          "type": "address"
        }
      ],
      "name": "verifySignature",
      "outputs": [
        {
          "internalType": "bool",
          "name": "",
          "type": "bool"
        }
      ],
      "stateMutability": "pure",
      "type": "function"
    }
  ],
  "bytecode": "608060405234801561001057600080fd5b5060405161044138038061044183398101604081905261002f91610054565b600080546001600160a01b0319166001600160a01b0392909216919091179055610084565b60006020828403121561006657600080fd5b81516001600160a01b038116811461007d57600080fd5b9392505050565b6103ae806100936000396000f3fe608060405234801561001057600080fd5b50600436106100415760003560e01c8063085d48831461004657806331cd419914610076578063a7bb580314610099575b600080fd5b600054610059906001600160a01b031681565b6040516001600160a01b0390911681526020015b60405180910390f35b610089610084366004610216565b6100ca565b604051901515815260200161006d565b6100ac6100a73660046102c7565b61019e565b60408051938452602084019290925260ff169082015260600161006d565b60008060008061010f87878080601f01602080910402602001604051908101604052809392919081815260200183838082843760009201919091525061019e92505050565b925092509250846001600160a01b03166001898386866040516000815260200160405260405161015b949392919093845260ff9290921660208401526040830152606082015260800190565b6020604051602081039080840390855afa15801561017d573d6000803e3d6000fd5b505050602060405103516001600160a01b0316149350505050949350505050565b600080600083516041146101f85760405162461bcd60e51b815260206004820152601860248201527f696e76616c6964207369676e6174757265206c656e6774680000000000000000604482015260640160405180910390fd5b50505060208101516040820151606090920151909260009190911a90565b6000806000806060858703121561022c57600080fd5b84359350602085013567ffffffffffffffff8082111561024b57600080fd5b818701915087601f83011261025f57600080fd5b81358181111561026e57600080fd5b88602082850101111561028057600080fd5b60209290920194509092505060408501356001600160a01b03811681146102a657600080fd5b939692955090935050565b634e487b7160e01b600052604160045260246000fd5b6000602082840312156102d957600080fd5b813567ffffffffffffffff808211156102f157600080fd5b818401915084601f83011261030557600080fd5b813581811115610317576103176102b1565b604051601f8201601f19908116603f0116810190838211818310171561033f5761033f6102b1565b8160405282815287602084870101111561035857600080fd5b82602086016020830137600092810160200192909252509594505050505056fea264697066735822122014a06c0e2a07645e4364574b3cc5a16f04b204c3c6f2cd17d2dbdbfb7948595764736f6c63430008130033",
  "bytecodeSha1": "423ff956902cab0cc186441951db001b189e5c4f",
  "compiler": {
    "evm_version": "istanbul",
    "optimizer": {
      "enabled": true,
      "runs": 200
    },
    "version": "0.8.19+commit.7dd6d404"
  },
  "contractName": "APIConsumer",
  "language": "Solidity",
  "natspec": {
    "kind": "dev",
    "methods": {},
    "version": 1
  },
  "opcodes": "PUSH1 0x80 PUSH1 0x40 MSTORE CALLVALUE DUP1 ISZERO PUSH2 0x10 JUMPI PUSH1 0x0 DUP1 REVERT JUMPDEST POP PUSH1 0x4 CALLDATASIZE LT PUSH2 0x41 JUMPI PUSH1 0x0 CALLDATALOAD PUSH1 0xE0 SHR DUP1 PUSH4 0x85D4883 EQ PUSH2 0x46 JUMPI DUP1 PUSH4 0x31CD4199 EQ PUSH2 0x76 JUMPI DUP1 PUSH4 0xA7BB5803 EQ PUSH2 0x99 JUMPI JUMPDEST PUSH1 0x0 DUP1 REVERT JUMPDEST PUSH1 0x0 SLOAD PUSH2 0x59 SWAP1 PUSH1 0x1 PUSH1 0x1 PUSH1 0xA0 SHL SUB AND DUP2 JUMP JUMPDEST PUSH1 0x40 MLOAD PUSH1 0x1 PUSH1 0x1 PUSH1 0xA0 SHL SUB SWAP1 SWAP2 AND DUP2 MSTORE PUSH1 0x20 ADD JUMPDEST PUSH1 0x40 MLOAD DUP1 SWAP2 SUB SWAP1 RETURN JUMPDEST PUSH2 0x89 PUSH2 0x84 CALLDATASIZE PUSH1 0x4 PUSH2 0x216 JUMP JUMPDEST PUSH2 0xCA JUMP JUMPDEST PUSH1 0x40 MLOAD SWAP1 ISZERO ISZERO DUP2 MSTORE PUSH1 0x20 ADD PUSH2 0x6D JUMP JUMPDEST PUSH2 0xAC PUSH2 0xA7 CALLDATASIZE PUSH1 0x4 PUSH2 0x2C7 JUMP JUMPDEST PUSH2 0x19E JUMP JUMPDEST PUSH1 0x40 DUP1 MLOAD SWAP4 DUP5 MSTORE PUSH1 0x20 DUP5 ADD SWAP3 SWAP1 SWAP3 MSTORE PUSH1 0xFF AND SWAP1 DUP3 ADD MSTORE PUSH1 0x60 ADD PUSH2 0x6D JUMP JUMPDEST PUSH1 0x0 DUP1 PUSH1 0x0 DUP1 PUSH2 0x10F DUP8 DUP8 DUP1 DUP1 PUSH1 0x1F ADD PUSH1 0x20 DUP1 SWAP2 DIV MUL PUSH1 0x20 ADD PUSH1 0x40 MLOAD SWAP1 DUP2 ADD PUSH1 0x40 MSTORE DUP1 SWAP4 SWAP3 SWAP2 SWAP1 DUP2 DUP2 MSTORE PUSH1 0x20 ADD DUP4 DUP4 DUP1 DUP3 DUP5 CALLDATACOPY PUSH1 0x0 SWAP3 ADD SWAP2 SWAP1 SWAP2 MSTORE POP PUSH2 0x19E SWAP3 POP POP POP JUMP JUMPDEST SWAP3 POP SWAP3 POP SWAP3 POP DUP5 PUSH1 0x1 PUSH1 0x1 PUSH1 0xA0 SHL SUB AND PUSH1 0x1 DUP10 DUP4 DUP7 DUP7 PUSH1 0x40 MLOAD PUSH1 0x0 DUP2 MSTORE PUSH1 0x20 ADD PUSH1 0x40 MSTORE PUSH1 0x40 MLOAD PUSH2 0x15B SWAP5 SWAP4 SWAP3 SWAP2 SWAP1 SWAP4 DUP5 MSTORE PUSH1 0xFF SWAP3 SWAP1 SWAP3 AND PUSH1 0x20 DUP5 ADD MSTORE PUSH1 0x40 DUP4 ADD MSTORE PUSH1 0x60 DUP3 ADD MSTORE PUSH1 0x80 ADD SWAP1 JUMP JUMPDEST PUSH1 0x20 PUSH1 0x40 MLOAD PUSH1 0x20 DUP2 SUB SWAP1 DUP1 DUP5 SUB SWAP1 DUP6 GAS STATICCALL ISZERO DUP1 ISZERO PUSH2 0x17D JUMPI RETURNDATASIZE PUSH1 0x0 DUP1 RETURNDATACOPY RETURNDATASIZE PUSH1 0x0 REVERT JUMPDEST POP POP POP PUSH1 0x20 PUSH1 0x40 MLOAD SUB MLOAD PUSH1 0x1 PUSH1 0x1 PUSH1 0xA0 SHL SUB AND EQ SWAP4 POP POP POP POP SWAP5 SWAP4 POP POP POP POP JUMP JUMPDEST PUSH1 0x0 DUP1 PUSH1 0x0 DUP4 MLOAD PUSH1 0x41 EQ PUSH2 0x1F8 JUMPI PUSH1 0x40 MLOAD PUSH3 0x461BCD PUSH1 0xE5 SHL DUP2 MSTORE PUSH1 0x20 PUSH1 0x4 DUP3 ADD MSTORE PUSH1 0x18 PUSH1 0x24 DUP3 ADD MSTORE PUSH32 0x696E76616C6964207369676E6174757265206C656E6774680000000000000000 PUSH1 0x44 DUP3 ADD MSTORE PUSH1 0x64 ADD PUSH1 0x40 MLOAD DUP1 SWAP2 SUB SWAP1 REVERT JUMPDEST POP POP POP PUSH1 0x20 DUP2 ADD MLOAD PUSH1 0x40 DUP3 ADD MLOAD PUSH1 0x60 SWAP1 SWAP3 ADD MLOAD SWAP1 SWAP3 PUSH1 0x0 SWAP2 SWAP1 SWAP2 BYTE SWAP1 JUMP JUMPDEST PUSH1 0x0 DUP1 PUSH1 0x0 DUP1 PUSH1 0x60 DUP6 DUP8 SUB SLT ISZERO PUSH2 0x22C JUMPI PUSH1 0x0 DUP1 REVERT JUMPDEST DUP5 CALLDATALOAD SWAP4 POP PUSH1 0x20 DUP6 ADD CALLDATALOAD PUSH8 0xFFFFFFFFFFFFFFFF DUP1 DUP3 GT ISZERO PUSH2 0x24B JUMPI PUSH1 0x0 DUP1 REVERT JUMPDEST DUP2 DUP8 ADD SWAP2 POP DUP8 PUSH1 0x1F DUP4 ADD SLT PUSH2 0x25F JUMPI PUSH1 0x0 DUP1 REVERT JUMPDEST DUP2 CALLDATALOAD DUP2 DUP2 GT ISZERO PUSH2 0x26E JUMPI PUSH1 0x0 DUP1 REVERT JUMPDEST DUP9 PUSH1 0x20 DUP3 DUP6 ADD ADD GT ISZERO PUSH2 0x280 JUMPI PUSH1 0x0 DUP1 REVERT JUMPDEST PUSH1 0x20 SWAP3 SWAP1 SWAP3 ADD SWAP5 POP SWAP1 SWAP3 POP POP PUSH1 0x40 DUP6 ADD CALLDATALOAD PUSH1 0x1 PUSH1 0x1 PUSH1 0xA0 SHL SUB DUP2 AND DUP2 EQ PUSH2 0x2A6 JUMPI PUSH1 0x0 DUP1 REVERT JUMPDEST SWAP4 SWAP7 SWAP3 SWAP6 POP SWAP1 SWAP4 POP POP JUMP JUMPDEST PUSH4 0x4E487B71 PUSH1 0xE0 SHL PUSH1 0x0 MSTORE PUSH1 0x41 PUSH1 0x4 MSTORE PUSH1 0x24 PUSH1 0x0 REVERT JUMPDEST PUSH1 0x0 PUSH1 0x20 DUP3 DUP5 SUB SLT ISZERO PUSH2 0x2D9 JUMPI PUSH1 0x0 DUP1 REVERT JUMPDEST DUP2 CALLDATALOAD PUSH8 0xFFFFFFFFFFFFFFFF DUP1 DUP3 GT ISZERO PUSH2 0x2F1 JUMPI PUSH1 0x0 DUP1 REVERT JUMPDEST DUP2 DUP5 ADD SWAP2 POP DUP5 PUSH1 0x1F DUP4 ADD SLT PUSH2 0x305 JUMPI PUSH1 0x0 DUP1 REVERT JUMPDEST DUP2 CALLDATALOAD DUP2 DUP2 GT ISZERO PUSH2 0x317 JUMPI PUSH2 0x317 PUSH2 0x2B1 JUMP JUMPDEST PUSH1 0x40 MLOAD PUSH1 0x1F DUP3 ADD PUSH1 0x1F NOT SWAP1 DUP2 AND PUSH1 0x3F ADD AND DUP2 ADD SWAP1 DUP4 DUP3 GT DUP2 DUP4 LT OR ISZERO PUSH2 0x33F JUMPI PUSH2 0x33F PUSH2 0x2B1 JUMP JUMPDEST DUP2 PUSH1 0x40 MSTORE DUP3 DUP2 MSTORE DUP8 PUSH1 0x20 DUP5 DUP8 ADD ADD GT ISZERO PUSH2 0x358 JUMPI PUSH1 0x0 DUP1 REVERT JUMPDEST DUP3 PUSH1 0x20 DUP7 ADD PUSH1 0x20 DUP4 ADD CALLDATACOPY PUSH1 0x0 SWAP3 DUP2 ADD PUSH1 0x20 ADD SWAP3 SWAP1 SWAP3 MSTORE POP SWAP6 SWAP5 POP POP POP POP POP JUMP INVALID LOG2 PUSH5 0x6970667358 0x22 SLT KECCAK256 EQ LOG0 PUSH13 0xE2A07645E4364574B3CC5A16F DIV 0xB2 DIV 0xC3 0xC6 CALLCODE 0xCD OR 0xD2 0xDB 0xDB 0xFB PUSH26 0x48595764736F6C63430008130033000000000000000000000000 ",
  "sha1": "8e67f0d51d104c5638617b1038ba56930089ffe7",
  "source": "// SPDX-License-Identifier: GPL-3.0\n\npragma solidity >=0.7.0 <0.9.0;\n\nimport \"./APIProvider.sol\";\n\ncontract APIConsumer {\n    // TODO esto es un ejemplo de ZT rollup, o ZT Oracle\n    // TODO el turbosnitch 3000 es otro ejemplo, que ademas el post process genere el nuevo bloque a minar, y capaz haga uso de api consumer para obtener los bloques? o mejor los guardo en el cliente?\n    APIProvider public provider;\n    //web3.personal.sign(hash, web3.eth.defaultAccount, console.log)\n    constructor(address apiProviderAddress) {\n        provider = APIProvider(apiProviderAddress);\n    }\n\n    function verifySignature(\n        bytes32 signedHash, bytes calldata signature, address signer\n    ) public pure returns (bool) {\n        (bytes32 r, bytes32 s, uint8 v) = splitSignature(signature);\n        return (ecrecover(signedHash, v, r, s) == signer);\n    }\n\n    function splitSignature(\n        bytes memory signature\n    ) public pure returns (bytes32 r, bytes32 s, uint8 v) {\n        require(signature.length == 65, \"invalid signature length\");\n        assembly {\n            r := mload(add(signature, 32))\n            s := mload(add(signature, 64))\n            v := byte(0, mload(add(signature, 96)))\n        }\n    }\n\n}",
  "sourcePath": "contracts/APIConsumer.sol",
  "type": "contract"
}