{
  "abi": [
    {
      "inputs": [
        {
          "internalType": "address",
          "name": "brokerAddress",
          "type": "address"
        },
        {
          "internalType": "address",
          "name": "apiProviderAddress",
          "type": "address"
        }
      ],
      "stateMutability": "nonpayable",
      "type": "constructor"
    },
    {
      "anonymous": false,
      "inputs": [
        {
          "indexed": false,
          "internalType": "uint256",
          "name": "balance",
          "type": "uint256"
        }
      ],
      "name": "asd",
      "type": "event"
    },
    {
      "anonymous": false,
      "inputs": [
        {
          "indexed": false,
          "internalType": "uint256",
          "name": "requestID",
          "type": "uint256"
        }
      ],
      "name": "requestSubmitted",
      "type": "event"
    },
    {
      "anonymous": false,
      "inputs": [
        {
          "indexed": false,
          "internalType": "uint256",
          "name": "requestID",
          "type": "uint256"
        },
        {
          "indexed": false,
          "internalType": "bool",
          "name": "success",
          "type": "bool"
        }
      ],
      "name": "resultPostProcessed",
      "type": "event"
    },
    {
      "inputs": [],
      "name": "brokerContract",
      "outputs": [
        {
          "internalType": "contract ExecutionBroker",
          "name": "",
          "type": "address"
        }
      ],
      "stateMutability": "view",
      "type": "function"
    },
    {
      "inputs": [
        {
          "internalType": "uint256",
          "name": "requestID",
          "type": "uint256"
        }
      ],
      "name": "cancelRequest",
      "outputs": [],
      "stateMutability": "nonpayable",
      "type": "function"
    },
    {
      "inputs": [
        {
          "internalType": "bytes",
          "name": "inputData",
          "type": "bytes"
        },
        {
          "internalType": "bytes",
          "name": "resultData",
          "type": "bytes"
        }
      ],
      "name": "checkResult",
      "outputs": [
        {
          "internalType": "bool",
          "name": "",
          "type": "bool"
        }
      ],
      "stateMutability": "view",
      "type": "function"
    },
    {
      "inputs": [],
      "name": "getInputDataStructure",
      "outputs": [
        {
          "internalType": "string",
          "name": "",
          "type": "string"
        }
      ],
      "stateMutability": "pure",
      "type": "function"
    },
    {
      "inputs": [],
      "name": "getResultDataStructure",
      "outputs": [
        {
          "internalType": "string",
          "name": "",
          "type": "string"
        }
      ],
      "stateMutability": "pure",
      "type": "function"
    },
    {
      "inputs": [],
      "name": "isOwner",
      "outputs": [
        {
          "internalType": "bool",
          "name": "",
          "type": "bool"
        }
      ],
      "stateMutability": "view",
      "type": "function"
    },
    {
      "inputs": [],
      "name": "myfunc",
      "outputs": [],
      "stateMutability": "payable",
      "type": "function"
    },
    {
      "inputs": [],
      "name": "owner",
      "outputs": [
        {
          "internalType": "address",
          "name": "",
          "type": "address"
        }
      ],
      "stateMutability": "view",
      "type": "function"
    },
    {
      "inputs": [
        {
          "internalType": "bytes",
          "name": "resultData",
          "type": "bytes"
        }
      ],
      "name": "processResult",
      "outputs": [],
      "stateMutability": "nonpayable",
      "type": "function"
    },
    {
      "inputs": [],
      "name": "provider",
      "outputs": [
        {
          "internalType": "contract APIProvider",
          "name": "",
          "type": "address"
        }
      ],
      "stateMutability": "view",
      "type": "function"
    },
    {
      "inputs": [],
      "name": "sendFunds",
      "outputs": [],
      "stateMutability": "payable",
      "type": "function"
    },
    {
      "inputs": [
        {
          "internalType": "uint256",
          "name": "payment",
          "type": "uint256"
        },
        {
          "internalType": "bytes",
          "name": "input",
          "type": "bytes"
        },
        {
          "internalType": "uint256",
          "name": "postProcessingGas",
          "type": "uint256"
        }
      ],
      "name": "submitRequest",
      "outputs": [
        {
          "internalType": "uint256",
          "name": "",
          "type": "uint256"
        }
      ],
      "stateMutability": "payable",
      "type": "function"
    },
    {
      "inputs": [
        {
          "internalType": "uint256",
          "name": "payment",
          "type": "uint256"
        },
        {
          "internalType": "bytes",
          "name": "input",
          "type": "bytes"
        }
      ],
      "name": "submitRequest",
      "outputs": [
        {
          "internalType": "uint256",
          "name": "",
          "type": "uint256"
        }
      ],
      "stateMutability": "payable",
      "type": "function"
    },
    {
      "inputs": [
        {
          "internalType": "uint256",
          "name": "requestID",
          "type": "uint256"
        },
        {
          "internalType": "bytes",
          "name": "result",
          "type": "bytes"
        }
      ],
      "name": "submitResult",
      "outputs": [
        {
          "internalType": "bool",
          "name": "",
          "type": "bool"
        }
      ],
      "stateMutability": "nonpayable",
      "type": "function"
    },
    {
      "inputs": [
        {
          "internalType": "uint256",
          "name": "value",
          "type": "uint256"
        }
      ],
      "name": "withdrawFunds",
      "outputs": [
        {
          "internalType": "bool",
          "name": "",
          "type": "bool"
        }
      ],
      "stateMutability": "nonpayable",
      "type": "function"
    }
  ],
  "bytecode": "608060405234801561001057600080fd5b5060405161163c38038061163c83398101604081905261002f91610087565b600080546001600160a01b03199081163317909155600180546001600160a01b03948516908316179055600380549290931691161790556100ba565b80516001600160a01b038116811461008257600080fd5b919050565b6000806040838503121561009a57600080fd5b6100a38361006b565b91506100b16020840161006b565b90509250929050565b611573806100c96000396000f3fe6080604052600436106100e85760003560e01c80638244741c1161008a5780638f32d59b116100595780638f32d59b1461025a578063c2c562451461027a578063c91c7b371461029a578063cb392747146102ba57600080fd5b80638244741c14610214578063877f0ad0146102295780638d68cf59146101c95780638da5cb5b1461023c57600080fd5b80633015394c116100c65780633015394c146101a957806343bb58de146101cb57806349875db2146101ec578063614039551461020c57600080fd5b8063085d4883146100ed578063155dd5ee1461012a5780632896de131461015a575b600080fd5b3480156100f957600080fd5b5060035461010d906001600160a01b031681565b6040516001600160a01b0390911681526020015b60405180910390f35b34801561013657600080fd5b5061014a610145366004610da9565b6102da565b6040519015158152602001610121565b34801561016657600080fd5b5060408051808201909152601781527f7b737472696e67206170694964656e7469666965723b7d00000000000000000060208201525b6040516101219190610e12565b3480156101b557600080fd5b506101c96101c4366004610da9565b6103a9565b005b6101de6101d9366004610f19565b610446565b604051908152602001610121565b3480156101f857600080fd5b5061014a610207366004610fb0565b610484565b6101c9610830565b34801561022057600080fd5b5061019c610865565b6101de610237366004610ffb565b610885565b34801561024857600080fd5b506000546001600160a01b031661010d565b34801561026657600080fd5b506000546001600160a01b0316331461014a565b34801561028657600080fd5b5060015461010d906001600160a01b031681565b3480156102a657600080fd5b5061014a6102b5366004611041565b6108c3565b3480156102c657600080fd5b506101c96102d53660046110ac565b61096b565b600080546001600160a01b0316331461030e5760405162461bcd60e51b8152600401610305906110ed565b60405180910390fd5b814710156103535760405162461bcd60e51b8152602060048201526012602482015271496e73756666696369656e742066756e647360701b6044820152606401610305565b6040513390600090829085908381818185875af1925050503d8060008114610397576040519150601f19603f3d011682016040523d82523d6000602084013e61039c565b606091505b509093505050505b919050565b6000546001600160a01b031633146103d35760405162461bcd60e51b8152600401610305906110ed565b600154604051630c054e5360e21b8152600481018390526001600160a01b0390911690633015394c906024016020604051808303816000875af115801561041e573d6000803e3d6000fd5b505050506040513d601f19601f820116820180604052508101906104429190611142565b5050565b600080546001600160a01b031633146104715760405162461bcd60e51b8152600401610305906110ed565b61047c8484846109d2565b949350505050565b60008381526002602052604081205460ff16151560011461050d5760405162461bcd60e51b815260206004820152603f60248201527f5468697320494420646f6573206e6f742062656c6f6e6720746f20616e20616360448201527f7469766520726571756573742077697468696e207468697320636c69656e74006064820152608401610305565b60015460405163c58343ef60e01b8152600481018690526000916001600160a01b03169063c58343ef90602401600060405180830381865afa158015610557573d6000803e3d6000fd5b505050506040513d6000823e601f3d908101601f1916820160405261057f91908101906111c5565b60a08101519091506001600160a01b03166105e85760405162461bcd60e51b8152602060048201526024808201527f596f75206e65656420746f2061636365707420746865207265717565737420666044820152631a5c9cdd60e21b6064820152608401610305565b6101008101511561063b5760405162461bcd60e51b815260206004820152601d60248201527f546865207265717565737420697320616c726561647920636c6f7365640000006044820152606401610305565b60a08101516001600160a01b031633146106a55760405162461bcd60e51b815260206004820152602560248201527f536f6d656f6e6520656c736520686173206163636570746564207468652052656044820152641c5d595cdd60da1b6064820152608401610305565b6001546040516324c3aed960e11b81526000916001600160a01b0316906349875db2906106da908990899089906004016112df565b6020604051808303816000875af11580156106f9573d6000803e3d6000fd5b505050506040513d601f19601f8201168201806040525081019061071d9190611142565b9050801561082757600086815260026020526040808220805460ff191690555163cb39274760e01b9061075690889088906024016112f9565b60408051601f198184030181529181526020820180516001600160e01b03166001600160e01b0319909416939093179092526060850151915190925060009130916107a290859061130d565b60006040518083038160008787f1925050503d80600081146107e0576040519150601f19603f3d011682016040523d82523d6000602084013e6107e5565b606091505b5050604080518a815282151560208201529192507fa531c8f4bbf2a18049d85528bb5aaae66874af94bcb325738ee729a2b6cf8428910160405180910390a150505b95945050505050565b6040514781527f75defdb7a75665883a3d0aa17bf6c1b1b30c6ef8f2aad1999588b9d393fbd7d79060200160405180910390a1565b606060405180606001604052806022815260200161151c60229139905090565b600080546001600160a01b031633146108b05760405162461bcd60e51b8152600401610305906110ed565b6108bc83836000610446565b9392505050565b6000806108d285870187611329565b905060006108e2848601866113c2565b600354835160405163bf40fac160e01b81529293506109609284926001600160a01b03169163bf40fac19161091a9190600401610e12565b602060405180830381865afa158015610937573d6000803e3d6000fd5b505050506040513d601f19601f8201168201806040525081019061095b9190611468565b610aee565b979650505050505050565b3330146104425760405162461bcd60e51b815260206004820152602f60248201527f46756e6374696f6e2061636365737369626c65206f6e6c79206279207468652060448201526e31b7b73a3930b1ba1034ba39b2b63360891b6064820152608401610305565b600047841115610a195760405162461bcd60e51b8152602060048201526012602482015271496e73756666696369656e742066756e647360701b6044820152606401610305565b6001546040516378f8af2560e11b81526000916001600160a01b03169063f1f15e4a908790610a4e9088908890600401611485565b60206040518083038185885af1158015610a6c573d6000803e3d6000fd5b50505050506040513d601f19601f82011682018060405250810190610a9191906114a7565b90507fd3b0b0209035a5613265e8fb1f38873ea24c7c6189b128eebe3689c03d13905c81604051610ac491815260200190565b60405180910390a16000818152600260205260409020805460ff1916600117905590509392505050565b600080610aff846000015151610bca565b8451604051610b129291906020016114c0565b6040516020818303038152906040528051906020012090506000806000610b3c8760200151610c5c565b925092509250856001600160a01b031660018583868660405160008152602001604052604051610b88949392919093845260ff9290921660208401526040830152606082015260800190565b6020604051602081039080840390855afa158015610baa573d6000803e3d6000fd5b505050602060405103516001600160a01b03161494505050505092915050565b60606000610bd783610cd0565b60010190506000816001600160401b03811115610bf657610bf6610e25565b6040519080825280601f01601f191660200182016040528015610c20576020820181803683370190505b5090508181016020015b600019016f181899199a1a9b1b9c1cb0b131b232b360811b600a86061a8153600a8504945084610c2a57509392505050565b60008060008351604114610cb25760405162461bcd60e51b815260206004820152601860248201527f696e76616c6964207369676e6174757265206c656e67746800000000000000006044820152606401610305565b50505060208101516040820151606090920151909260009190911a90565b60008072184f03e93ff9f4daa797ed6e38ed64bf6a1f0160401b8310610d0f5772184f03e93ff9f4daa797ed6e38ed64bf6a1f0160401b830492506040015b6d04ee2d6d415b85acef81000000008310610d3b576d04ee2d6d415b85acef8100000000830492506020015b662386f26fc100008310610d5957662386f26fc10000830492506010015b6305f5e1008310610d71576305f5e100830492506008015b6127108310610d8557612710830492506004015b60648310610d97576064830492506002015b600a8310610da3576001015b92915050565b600060208284031215610dbb57600080fd5b5035919050565b60005b83811015610ddd578181015183820152602001610dc5565b50506000910152565b60008151808452610dfe816020860160208601610dc2565b601f01601f19169290920160200192915050565b6020815260006108bc6020830184610de6565b634e487b7160e01b600052604160045260246000fd5b60405161012081016001600160401b0381118282101715610e5e57610e5e610e25565b60405290565b604051601f8201601f191681016001600160401b0381118282101715610e8c57610e8c610e25565b604052919050565b60006001600160401b03821115610ead57610ead610e25565b50601f01601f191660200190565b6000610ece610ec984610e94565b610e64565b9050828152838383011115610ee257600080fd5b828260208301376000602084830101529392505050565b600082601f830112610f0a57600080fd5b6108bc83833560208501610ebb565b600080600060608486031215610f2e57600080fd5b8335925060208401356001600160401b03811115610f4b57600080fd5b610f5786828701610ef9565b925050604084013590509250925092565b60008083601f840112610f7a57600080fd5b5081356001600160401b03811115610f9157600080fd5b602083019150836020828501011115610fa957600080fd5b9250929050565b600080600060408486031215610fc557600080fd5b8335925060208401356001600160401b03811115610fe257600080fd5b610fee86828701610f68565b9497909650939450505050565b6000806040838503121561100e57600080fd5b8235915060208301356001600160401b0381111561102b57600080fd5b61103785828601610ef9565b9150509250929050565b6000806000806040858703121561105757600080fd5b84356001600160401b038082111561106e57600080fd5b61107a88838901610f68565b9096509450602087013591508082111561109357600080fd5b506110a087828801610f68565b95989497509550505050565b600080602083850312156110bf57600080fd5b82356001600160401b038111156110d557600080fd5b6110e185828601610f68565b90969095509350505050565b60208082526025908201527f46756e6374696f6e2061636365737369626c65206f6e6c79206279207468652060408201526437bbb732b960d91b606082015260800190565b805180151581146103a457600080fd5b60006020828403121561115457600080fd5b6108bc82611132565b600082601f83011261116e57600080fd5b815161117c610ec982610e94565b81815284602083860101111561119157600080fd5b61047c826020830160208701610dc2565b6001600160a01b03811681146111b757600080fd5b50565b80516103a4816111a2565b6000602082840312156111d757600080fd5b81516001600160401b03808211156111ee57600080fd5b90830190610120828603121561120357600080fd5b61120b610e3b565b8251815260208301518281111561122157600080fd5b61122d8782860161115d565b6020830152506040830151604082015260608301516060820152611253608084016111ba565b608082015261126460a084016111ba565b60a082015260c083015160c082015260e08301518281111561128557600080fd5b6112918782860161115d565b60e08301525061010091506112a7828401611132565b91810191909152949350505050565b81835281816020850137506000828201602090810191909152601f909101601f19169091010190565b8381526040602082015260006108276040830184866112b6565b60208152600061047c6020830184866112b6565b6000825161131f818460208701610dc2565b9190910192915050565b60006020828403121561133b57600080fd5b81356001600160401b038082111561135257600080fd5b908301906020828603121561136657600080fd5b60405160208101818110838211171561138157611381610e25565b60405282358281111561139357600080fd5b80840193505085601f8401126113a857600080fd5b6113b786843560208601610ebb565b815295945050505050565b6000602082840312156113d457600080fd5b81356001600160401b03808211156113eb57600080fd5b90830190604082860312156113ff57600080fd5b60405160408101818110838211171561141a5761141a610e25565b60405282358281111561142c57600080fd5b61143887828601610ef9565b82525060208301358281111561144d57600080fd5b61145987828601610ef9565b60208301525095945050505050565b60006020828403121561147a57600080fd5b81516108bc816111a2565b6040815260006114986040830185610de6565b90508260208301529392505050565b6000602082840312156114b957600080fd5b5051919050565b7f19457468657265756d205369676e6564204d6573736167653a0a0000000000008152600083516114f881601a850160208801610dc2565b83519083019061150f81601a840160208801610dc2565b01601a0194935050505056fe7b627974657320726573706f6e73653b206279746573207369676e61747572653b7da2646970667358221220484230000fa295c1b0196fa4f44b787eafcd1fe3399d2d8ef517d71b7498f85364736f6c63430008130033",
  "bytecodeSha1": "ca79cff4c94de2f5035b25be7477475f957485ac",
  "compiler": {
    "evm_version": "istanbul",
    "optimizer": {
      "enabled": true,
      "runs": 200
    },
    "version": "0.8.19+commit.7dd6d404"
  },
  "contractName": "APIConsumer",
  "language": "Solidity",
  "natspec": {
    "kind": "dev",
    "methods": {},
    "version": 1
  },
  "opcodes": "PUSH1 0x80 PUSH1 0x40 MSTORE PUSH1 0x4 CALLDATASIZE LT PUSH2 0xE8 JUMPI PUSH1 0x0 CALLDATALOAD PUSH1 0xE0 SHR DUP1 PUSH4 0x8244741C GT PUSH2 0x8A JUMPI DUP1 PUSH4 0x8F32D59B GT PUSH2 0x59 JUMPI DUP1 PUSH4 0x8F32D59B EQ PUSH2 0x25A JUMPI DUP1 PUSH4 0xC2C56245 EQ PUSH2 0x27A JUMPI DUP1 PUSH4 0xC91C7B37 EQ PUSH2 0x29A JUMPI DUP1 PUSH4 0xCB392747 EQ PUSH2 0x2BA JUMPI PUSH1 0x0 DUP1 REVERT JUMPDEST DUP1 PUSH4 0x8244741C EQ PUSH2 0x214 JUMPI DUP1 PUSH4 0x877F0AD0 EQ PUSH2 0x229 JUMPI DUP1 PUSH4 0x8D68CF59 EQ PUSH2 0x1C9 JUMPI DUP1 PUSH4 0x8DA5CB5B EQ PUSH2 0x23C JUMPI PUSH1 0x0 DUP1 REVERT JUMPDEST DUP1 PUSH4 0x3015394C GT PUSH2 0xC6 JUMPI DUP1 PUSH4 0x3015394C EQ PUSH2 0x1A9 JUMPI DUP1 PUSH4 0x43BB58DE EQ PUSH2 0x1CB JUMPI DUP1 PUSH4 0x49875DB2 EQ PUSH2 0x1EC JUMPI DUP1 PUSH4 0x61403955 EQ PUSH2 0x20C JUMPI PUSH1 0x0 DUP1 REVERT JUMPDEST DUP1 PUSH4 0x85D4883 EQ PUSH2 0xED JUMPI DUP1 PUSH4 0x155DD5EE EQ PUSH2 0x12A JUMPI DUP1 PUSH4 0x2896DE13 EQ PUSH2 0x15A JUMPI JUMPDEST PUSH1 0x0 DUP1 REVERT JUMPDEST CALLVALUE DUP1 ISZERO PUSH2 0xF9 JUMPI PUSH1 0x0 DUP1 REVERT JUMPDEST POP PUSH1 0x3 SLOAD PUSH2 0x10D SWAP1 PUSH1 0x1 PUSH1 0x1 PUSH1 0xA0 SHL SUB AND DUP2 JUMP JUMPDEST PUSH1 0x40 MLOAD PUSH1 0x1 PUSH1 0x1 PUSH1 0xA0 SHL SUB SWAP1 SWAP2 AND DUP2 MSTORE PUSH1 0x20 ADD JUMPDEST PUSH1 0x40 MLOAD DUP1 SWAP2 SUB SWAP1 RETURN JUMPDEST CALLVALUE DUP1 ISZERO PUSH2 0x136 JUMPI PUSH1 0x0 DUP1 REVERT JUMPDEST POP PUSH2 0x14A PUSH2 0x145 CALLDATASIZE PUSH1 0x4 PUSH2 0xDA9 JUMP JUMPDEST PUSH2 0x2DA JUMP JUMPDEST PUSH1 0x40 MLOAD SWAP1 ISZERO ISZERO DUP2 MSTORE PUSH1 0x20 ADD PUSH2 0x121 JUMP JUMPDEST CALLVALUE DUP1 ISZERO PUSH2 0x166 JUMPI PUSH1 0x0 DUP1 REVERT JUMPDEST POP PUSH1 0x40 DUP1 MLOAD DUP1 DUP3 ADD SWAP1 SWAP2 MSTORE PUSH1 0x17 DUP2 MSTORE PUSH32 0x7B737472696E67206170694964656E7469666965723B7D000000000000000000 PUSH1 0x20 DUP3 ADD MSTORE JUMPDEST PUSH1 0x40 MLOAD PUSH2 0x121 SWAP2 SWAP1 PUSH2 0xE12 JUMP JUMPDEST CALLVALUE DUP1 ISZERO PUSH2 0x1B5 JUMPI PUSH1 0x0 DUP1 REVERT JUMPDEST POP PUSH2 0x1C9 PUSH2 0x1C4 CALLDATASIZE PUSH1 0x4 PUSH2 0xDA9 JUMP JUMPDEST PUSH2 0x3A9 JUMP JUMPDEST STOP JUMPDEST PUSH2 0x1DE PUSH2 0x1D9 CALLDATASIZE PUSH1 0x4 PUSH2 0xF19 JUMP JUMPDEST PUSH2 0x446 JUMP JUMPDEST PUSH1 0x40 MLOAD SWAP1 DUP2 MSTORE PUSH1 0x20 ADD PUSH2 0x121 JUMP JUMPDEST CALLVALUE DUP1 ISZERO PUSH2 0x1F8 JUMPI PUSH1 0x0 DUP1 REVERT JUMPDEST POP PUSH2 0x14A PUSH2 0x207 CALLDATASIZE PUSH1 0x4 PUSH2 0xFB0 JUMP JUMPDEST PUSH2 0x484 JUMP JUMPDEST PUSH2 0x1C9 PUSH2 0x830 JUMP JUMPDEST CALLVALUE DUP1 ISZERO PUSH2 0x220 JUMPI PUSH1 0x0 DUP1 REVERT JUMPDEST POP PUSH2 0x19C PUSH2 0x865 JUMP JUMPDEST PUSH2 0x1DE PUSH2 0x237 CALLDATASIZE PUSH1 0x4 PUSH2 0xFFB JUMP JUMPDEST PUSH2 0x885 JUMP JUMPDEST CALLVALUE DUP1 ISZERO PUSH2 0x248 JUMPI PUSH1 0x0 DUP1 REVERT JUMPDEST POP PUSH1 0x0 SLOAD PUSH1 0x1 PUSH1 0x1 PUSH1 0xA0 SHL SUB AND PUSH2 0x10D JUMP JUMPDEST CALLVALUE DUP1 ISZERO PUSH2 0x266 JUMPI PUSH1 0x0 DUP1 REVERT JUMPDEST POP PUSH1 0x0 SLOAD PUSH1 0x1 PUSH1 0x1 PUSH1 0xA0 SHL SUB AND CALLER EQ PUSH2 0x14A JUMP JUMPDEST CALLVALUE DUP1 ISZERO PUSH2 0x286 JUMPI PUSH1 0x0 DUP1 REVERT JUMPDEST POP PUSH1 0x1 SLOAD PUSH2 0x10D SWAP1 PUSH1 0x1 PUSH1 0x1 PUSH1 0xA0 SHL SUB AND DUP2 JUMP JUMPDEST CALLVALUE DUP1 ISZERO PUSH2 0x2A6 JUMPI PUSH1 0x0 DUP1 REVERT JUMPDEST POP PUSH2 0x14A PUSH2 0x2B5 CALLDATASIZE PUSH1 0x4 PUSH2 0x1041 JUMP JUMPDEST PUSH2 0x8C3 JUMP JUMPDEST CALLVALUE DUP1 ISZERO PUSH2 0x2C6 JUMPI PUSH1 0x0 DUP1 REVERT JUMPDEST POP PUSH2 0x1C9 PUSH2 0x2D5 CALLDATASIZE PUSH1 0x4 PUSH2 0x10AC JUMP JUMPDEST PUSH2 0x96B JUMP JUMPDEST PUSH1 0x0 DUP1 SLOAD PUSH1 0x1 PUSH1 0x1 PUSH1 0xA0 SHL SUB AND CALLER EQ PUSH2 0x30E JUMPI PUSH1 0x40 MLOAD PUSH3 0x461BCD PUSH1 0xE5 SHL DUP2 MSTORE PUSH1 0x4 ADD PUSH2 0x305 SWAP1 PUSH2 0x10ED JUMP JUMPDEST PUSH1 0x40 MLOAD DUP1 SWAP2 SUB SWAP1 REVERT JUMPDEST DUP2 SELFBALANCE LT ISZERO PUSH2 0x353 JUMPI PUSH1 0x40 MLOAD PUSH3 0x461BCD PUSH1 0xE5 SHL DUP2 MSTORE PUSH1 0x20 PUSH1 0x4 DUP3 ADD MSTORE PUSH1 0x12 PUSH1 0x24 DUP3 ADD MSTORE PUSH18 0x496E73756666696369656E742066756E6473 PUSH1 0x70 SHL PUSH1 0x44 DUP3 ADD MSTORE PUSH1 0x64 ADD PUSH2 0x305 JUMP JUMPDEST PUSH1 0x40 MLOAD CALLER SWAP1 PUSH1 0x0 SWAP1 DUP3 SWAP1 DUP6 SWAP1 DUP4 DUP2 DUP2 DUP2 DUP6 DUP8 GAS CALL SWAP3 POP POP POP RETURNDATASIZE DUP1 PUSH1 0x0 DUP2 EQ PUSH2 0x397 JUMPI PUSH1 0x40 MLOAD SWAP2 POP PUSH1 0x1F NOT PUSH1 0x3F RETURNDATASIZE ADD AND DUP3 ADD PUSH1 0x40 MSTORE RETURNDATASIZE DUP3 MSTORE RETURNDATASIZE PUSH1 0x0 PUSH1 0x20 DUP5 ADD RETURNDATACOPY PUSH2 0x39C JUMP JUMPDEST PUSH1 0x60 SWAP2 POP JUMPDEST POP SWAP1 SWAP4 POP POP POP POP JUMPDEST SWAP2 SWAP1 POP JUMP JUMPDEST PUSH1 0x0 SLOAD PUSH1 0x1 PUSH1 0x1 PUSH1 0xA0 SHL SUB AND CALLER EQ PUSH2 0x3D3 JUMPI PUSH1 0x40 MLOAD PUSH3 0x461BCD PUSH1 0xE5 SHL DUP2 MSTORE PUSH1 0x4 ADD PUSH2 0x305 SWAP1 PUSH2 0x10ED JUMP JUMPDEST PUSH1 0x1 SLOAD PUSH1 0x40 MLOAD PUSH4 0xC054E53 PUSH1 0xE2 SHL DUP2 MSTORE PUSH1 0x4 DUP2 ADD DUP4 SWAP1 MSTORE PUSH1 0x1 PUSH1 0x1 PUSH1 0xA0 SHL SUB SWAP1 SWAP2 AND SWAP1 PUSH4 0x3015394C SWAP1 PUSH1 0x24 ADD PUSH1 0x20 PUSH1 0x40 MLOAD DUP1 DUP4 SUB DUP2 PUSH1 0x0 DUP8 GAS CALL ISZERO DUP1 ISZERO PUSH2 0x41E JUMPI RETURNDATASIZE PUSH1 0x0 DUP1 RETURNDATACOPY RETURNDATASIZE PUSH1 0x0 REVERT JUMPDEST POP POP POP POP PUSH1 0x40 MLOAD RETURNDATASIZE PUSH1 0x1F NOT PUSH1 0x1F DUP3 ADD AND DUP3 ADD DUP1 PUSH1 0x40 MSTORE POP DUP2 ADD SWAP1 PUSH2 0x442 SWAP2 SWAP1 PUSH2 0x1142 JUMP JUMPDEST POP POP JUMP JUMPDEST PUSH1 0x0 DUP1 SLOAD PUSH1 0x1 PUSH1 0x1 PUSH1 0xA0 SHL SUB AND CALLER EQ PUSH2 0x471 JUMPI PUSH1 0x40 MLOAD PUSH3 0x461BCD PUSH1 0xE5 SHL DUP2 MSTORE PUSH1 0x4 ADD PUSH2 0x305 SWAP1 PUSH2 0x10ED JUMP JUMPDEST PUSH2 0x47C DUP5 DUP5 DUP5 PUSH2 0x9D2 JUMP JUMPDEST SWAP5 SWAP4 POP POP POP POP JUMP JUMPDEST PUSH1 0x0 DUP4 DUP2 MSTORE PUSH1 0x2 PUSH1 0x20 MSTORE PUSH1 0x40 DUP2 KECCAK256 SLOAD PUSH1 0xFF AND ISZERO ISZERO PUSH1 0x1 EQ PUSH2 0x50D JUMPI PUSH1 0x40 MLOAD PUSH3 0x461BCD PUSH1 0xE5 SHL DUP2 MSTORE PUSH1 0x20 PUSH1 0x4 DUP3 ADD MSTORE PUSH1 0x3F PUSH1 0x24 DUP3 ADD MSTORE PUSH32 0x5468697320494420646F6573206E6F742062656C6F6E6720746F20616E206163 PUSH1 0x44 DUP3 ADD MSTORE PUSH32 0x7469766520726571756573742077697468696E207468697320636C69656E7400 PUSH1 0x64 DUP3 ADD MSTORE PUSH1 0x84 ADD PUSH2 0x305 JUMP JUMPDEST PUSH1 0x1 SLOAD PUSH1 0x40 MLOAD PUSH4 0xC58343EF PUSH1 0xE0 SHL DUP2 MSTORE PUSH1 0x4 DUP2 ADD DUP7 SWAP1 MSTORE PUSH1 0x0 SWAP2 PUSH1 0x1 PUSH1 0x1 PUSH1 0xA0 SHL SUB AND SWAP1 PUSH4 0xC58343EF SWAP1 PUSH1 0x24 ADD PUSH1 0x0 PUSH1 0x40 MLOAD DUP1 DUP4 SUB DUP2 DUP7 GAS STATICCALL ISZERO DUP1 ISZERO PUSH2 0x557 JUMPI RETURNDATASIZE PUSH1 0x0 DUP1 RETURNDATACOPY RETURNDATASIZE PUSH1 0x0 REVERT JUMPDEST POP POP POP POP PUSH1 0x40 MLOAD RETURNDATASIZE PUSH1 0x0 DUP3 RETURNDATACOPY PUSH1 0x1F RETURNDATASIZE SWAP1 DUP2 ADD PUSH1 0x1F NOT AND DUP3 ADD PUSH1 0x40 MSTORE PUSH2 0x57F SWAP2 SWAP1 DUP2 ADD SWAP1 PUSH2 0x11C5 JUMP JUMPDEST PUSH1 0xA0 DUP2 ADD MLOAD SWAP1 SWAP2 POP PUSH1 0x1 PUSH1 0x1 PUSH1 0xA0 SHL SUB AND PUSH2 0x5E8 JUMPI PUSH1 0x40 MLOAD PUSH3 0x461BCD PUSH1 0xE5 SHL DUP2 MSTORE PUSH1 0x20 PUSH1 0x4 DUP3 ADD MSTORE PUSH1 0x24 DUP1 DUP3 ADD MSTORE PUSH32 0x596F75206E65656420746F206163636570742074686520726571756573742066 PUSH1 0x44 DUP3 ADD MSTORE PUSH4 0x1A5C9CDD PUSH1 0xE2 SHL PUSH1 0x64 DUP3 ADD MSTORE PUSH1 0x84 ADD PUSH2 0x305 JUMP JUMPDEST PUSH2 0x100 DUP2 ADD MLOAD ISZERO PUSH2 0x63B JUMPI PUSH1 0x40 MLOAD PUSH3 0x461BCD PUSH1 0xE5 SHL DUP2 MSTORE PUSH1 0x20 PUSH1 0x4 DUP3 ADD MSTORE PUSH1 0x1D PUSH1 0x24 DUP3 ADD MSTORE PUSH32 0x546865207265717565737420697320616C726561647920636C6F736564000000 PUSH1 0x44 DUP3 ADD MSTORE PUSH1 0x64 ADD PUSH2 0x305 JUMP JUMPDEST PUSH1 0xA0 DUP2 ADD MLOAD PUSH1 0x1 PUSH1 0x1 PUSH1 0xA0 SHL SUB AND CALLER EQ PUSH2 0x6A5 JUMPI PUSH1 0x40 MLOAD PUSH3 0x461BCD PUSH1 0xE5 SHL DUP2 MSTORE PUSH1 0x20 PUSH1 0x4 DUP3 ADD MSTORE PUSH1 0x25 PUSH1 0x24 DUP3 ADD MSTORE PUSH32 0x536F6D656F6E6520656C73652068617320616363657074656420746865205265 PUSH1 0x44 DUP3 ADD MSTORE PUSH5 0x1C5D595CDD PUSH1 0xDA SHL PUSH1 0x64 DUP3 ADD MSTORE PUSH1 0x84 ADD PUSH2 0x305 JUMP JUMPDEST PUSH1 0x1 SLOAD PUSH1 0x40 MLOAD PUSH4 0x24C3AED9 PUSH1 0xE1 SHL DUP2 MSTORE PUSH1 0x0 SWAP2 PUSH1 0x1 PUSH1 0x1 PUSH1 0xA0 SHL SUB AND SWAP1 PUSH4 0x49875DB2 SWAP1 PUSH2 0x6DA SWAP1 DUP10 SWAP1 DUP10 SWAP1 DUP10 SWAP1 PUSH1 0x4 ADD PUSH2 0x12DF JUMP JUMPDEST PUSH1 0x20 PUSH1 0x40 MLOAD DUP1 DUP4 SUB DUP2 PUSH1 0x0 DUP8 GAS CALL ISZERO DUP1 ISZERO PUSH2 0x6F9 JUMPI RETURNDATASIZE PUSH1 0x0 DUP1 RETURNDATACOPY RETURNDATASIZE PUSH1 0x0 REVERT JUMPDEST POP POP POP POP PUSH1 0x40 MLOAD RETURNDATASIZE PUSH1 0x1F NOT PUSH1 0x1F DUP3 ADD AND DUP3 ADD DUP1 PUSH1 0x40 MSTORE POP DUP2 ADD SWAP1 PUSH2 0x71D SWAP2 SWAP1 PUSH2 0x1142 JUMP JUMPDEST SWAP1 POP DUP1 ISZERO PUSH2 0x827 JUMPI PUSH1 0x0 DUP7 DUP2 MSTORE PUSH1 0x2 PUSH1 0x20 MSTORE PUSH1 0x40 DUP1 DUP3 KECCAK256 DUP1 SLOAD PUSH1 0xFF NOT AND SWAP1 SSTORE MLOAD PUSH4 0xCB392747 PUSH1 0xE0 SHL SWAP1 PUSH2 0x756 SWAP1 DUP9 SWAP1 DUP9 SWAP1 PUSH1 0x24 ADD PUSH2 0x12F9 JUMP JUMPDEST PUSH1 0x40 DUP1 MLOAD PUSH1 0x1F NOT DUP2 DUP5 SUB ADD DUP2 MSTORE SWAP2 DUP2 MSTORE PUSH1 0x20 DUP3 ADD DUP1 MLOAD PUSH1 0x1 PUSH1 0x1 PUSH1 0xE0 SHL SUB AND PUSH1 0x1 PUSH1 0x1 PUSH1 0xE0 SHL SUB NOT SWAP1 SWAP5 AND SWAP4 SWAP1 SWAP4 OR SWAP1 SWAP3 MSTORE PUSH1 0x60 DUP6 ADD MLOAD SWAP2 MLOAD SWAP1 SWAP3 POP PUSH1 0x0 SWAP2 ADDRESS SWAP2 PUSH2 0x7A2 SWAP1 DUP6 SWAP1 PUSH2 0x130D JUMP JUMPDEST PUSH1 0x0 PUSH1 0x40 MLOAD DUP1 DUP4 SUB DUP2 PUSH1 0x0 DUP8 DUP8 CALL SWAP3 POP POP POP RETURNDATASIZE DUP1 PUSH1 0x0 DUP2 EQ PUSH2 0x7E0 JUMPI PUSH1 0x40 MLOAD SWAP2 POP PUSH1 0x1F NOT PUSH1 0x3F RETURNDATASIZE ADD AND DUP3 ADD PUSH1 0x40 MSTORE RETURNDATASIZE DUP3 MSTORE RETURNDATASIZE PUSH1 0x0 PUSH1 0x20 DUP5 ADD RETURNDATACOPY PUSH2 0x7E5 JUMP JUMPDEST PUSH1 0x60 SWAP2 POP JUMPDEST POP POP PUSH1 0x40 DUP1 MLOAD DUP11 DUP2 MSTORE DUP3 ISZERO ISZERO PUSH1 0x20 DUP3 ADD MSTORE SWAP2 SWAP3 POP PUSH32 0xA531C8F4BBF2A18049D85528BB5AAAE66874AF94BCB325738EE729A2B6CF8428 SWAP2 ADD PUSH1 0x40 MLOAD DUP1 SWAP2 SUB SWAP1 LOG1 POP POP JUMPDEST SWAP6 SWAP5 POP POP POP POP POP JUMP JUMPDEST PUSH1 0x40 MLOAD SELFBALANCE DUP2 MSTORE PUSH32 0x75DEFDB7A75665883A3D0AA17BF6C1B1B30C6EF8F2AAD1999588B9D393FBD7D7 SWAP1 PUSH1 0x20 ADD PUSH1 0x40 MLOAD DUP1 SWAP2 SUB SWAP1 LOG1 JUMP JUMPDEST PUSH1 0x60 PUSH1 0x40 MLOAD DUP1 PUSH1 0x60 ADD PUSH1 0x40 MSTORE DUP1 PUSH1 0x22 DUP2 MSTORE PUSH1 0x20 ADD PUSH2 0x151C PUSH1 0x22 SWAP2 CODECOPY SWAP1 POP SWAP1 JUMP JUMPDEST PUSH1 0x0 DUP1 SLOAD PUSH1 0x1 PUSH1 0x1 PUSH1 0xA0 SHL SUB AND CALLER EQ PUSH2 0x8B0 JUMPI PUSH1 0x40 MLOAD PUSH3 0x461BCD PUSH1 0xE5 SHL DUP2 MSTORE PUSH1 0x4 ADD PUSH2 0x305 SWAP1 PUSH2 0x10ED JUMP JUMPDEST PUSH2 0x8BC DUP4 DUP4 PUSH1 0x0 PUSH2 0x446 JUMP JUMPDEST SWAP4 SWAP3 POP POP POP JUMP JUMPDEST PUSH1 0x0 DUP1 PUSH2 0x8D2 DUP6 DUP8 ADD DUP8 PUSH2 0x1329 JUMP JUMPDEST SWAP1 POP PUSH1 0x0 PUSH2 0x8E2 DUP5 DUP7 ADD DUP7 PUSH2 0x13C2 JUMP JUMPDEST PUSH1 0x3 SLOAD DUP4 MLOAD PUSH1 0x40 MLOAD PUSH4 0xBF40FAC1 PUSH1 0xE0 SHL DUP2 MSTORE SWAP3 SWAP4 POP PUSH2 0x960 SWAP3 DUP5 SWAP3 PUSH1 0x1 PUSH1 0x1 PUSH1 0xA0 SHL SUB AND SWAP2 PUSH4 0xBF40FAC1 SWAP2 PUSH2 0x91A SWAP2 SWAP1 PUSH1 0x4 ADD PUSH2 0xE12 JUMP JUMPDEST PUSH1 0x20 PUSH1 0x40 MLOAD DUP1 DUP4 SUB DUP2 DUP7 GAS STATICCALL ISZERO DUP1 ISZERO PUSH2 0x937 JUMPI RETURNDATASIZE PUSH1 0x0 DUP1 RETURNDATACOPY RETURNDATASIZE PUSH1 0x0 REVERT JUMPDEST POP POP POP POP PUSH1 0x40 MLOAD RETURNDATASIZE PUSH1 0x1F NOT PUSH1 0x1F DUP3 ADD AND DUP3 ADD DUP1 PUSH1 0x40 MSTORE POP DUP2 ADD SWAP1 PUSH2 0x95B SWAP2 SWAP1 PUSH2 0x1468 JUMP JUMPDEST PUSH2 0xAEE JUMP JUMPDEST SWAP8 SWAP7 POP POP POP POP POP POP POP JUMP JUMPDEST CALLER ADDRESS EQ PUSH2 0x442 JUMPI PUSH1 0x40 MLOAD PUSH3 0x461BCD PUSH1 0xE5 SHL DUP2 MSTORE PUSH1 0x20 PUSH1 0x4 DUP3 ADD MSTORE PUSH1 0x2F PUSH1 0x24 DUP3 ADD MSTORE PUSH32 0x46756E6374696F6E2061636365737369626C65206F6E6C792062792074686520 PUSH1 0x44 DUP3 ADD MSTORE PUSH15 0x31B7B73A3930B1BA1034BA39B2B633 PUSH1 0x89 SHL PUSH1 0x64 DUP3 ADD MSTORE PUSH1 0x84 ADD PUSH2 0x305 JUMP JUMPDEST PUSH1 0x0 SELFBALANCE DUP5 GT ISZERO PUSH2 0xA19 JUMPI PUSH1 0x40 MLOAD PUSH3 0x461BCD PUSH1 0xE5 SHL DUP2 MSTORE PUSH1 0x20 PUSH1 0x4 DUP3 ADD MSTORE PUSH1 0x12 PUSH1 0x24 DUP3 ADD MSTORE PUSH18 0x496E73756666696369656E742066756E6473 PUSH1 0x70 SHL PUSH1 0x44 DUP3 ADD MSTORE PUSH1 0x64 ADD PUSH2 0x305 JUMP JUMPDEST PUSH1 0x1 SLOAD PUSH1 0x40 MLOAD PUSH4 0x78F8AF25 PUSH1 0xE1 SHL DUP2 MSTORE PUSH1 0x0 SWAP2 PUSH1 0x1 PUSH1 0x1 PUSH1 0xA0 SHL SUB AND SWAP1 PUSH4 0xF1F15E4A SWAP1 DUP8 SWAP1 PUSH2 0xA4E SWAP1 DUP9 SWAP1 DUP9 SWAP1 PUSH1 0x4 ADD PUSH2 0x1485 JUMP JUMPDEST PUSH1 0x20 PUSH1 0x40 MLOAD DUP1 DUP4 SUB DUP2 DUP6 DUP9 GAS CALL ISZERO DUP1 ISZERO PUSH2 0xA6C JUMPI RETURNDATASIZE PUSH1 0x0 DUP1 RETURNDATACOPY RETURNDATASIZE PUSH1 0x0 REVERT JUMPDEST POP POP POP POP POP PUSH1 0x40 MLOAD RETURNDATASIZE PUSH1 0x1F NOT PUSH1 0x1F DUP3 ADD AND DUP3 ADD DUP1 PUSH1 0x40 MSTORE POP DUP2 ADD SWAP1 PUSH2 0xA91 SWAP2 SWAP1 PUSH2 0x14A7 JUMP JUMPDEST SWAP1 POP PUSH32 0xD3B0B0209035A5613265E8FB1F38873EA24C7C6189B128EEBE3689C03D13905C DUP2 PUSH1 0x40 MLOAD PUSH2 0xAC4 SWAP2 DUP2 MSTORE PUSH1 0x20 ADD SWAP1 JUMP JUMPDEST PUSH1 0x40 MLOAD DUP1 SWAP2 SUB SWAP1 LOG1 PUSH1 0x0 DUP2 DUP2 MSTORE PUSH1 0x2 PUSH1 0x20 MSTORE PUSH1 0x40 SWAP1 KECCAK256 DUP1 SLOAD PUSH1 0xFF NOT AND PUSH1 0x1 OR SWAP1 SSTORE SWAP1 POP SWAP4 SWAP3 POP POP POP JUMP JUMPDEST PUSH1 0x0 DUP1 PUSH2 0xAFF DUP5 PUSH1 0x0 ADD MLOAD MLOAD PUSH2 0xBCA JUMP JUMPDEST DUP5 MLOAD PUSH1 0x40 MLOAD PUSH2 0xB12 SWAP3 SWAP2 SWAP1 PUSH1 0x20 ADD PUSH2 0x14C0 JUMP JUMPDEST PUSH1 0x40 MLOAD PUSH1 0x20 DUP2 DUP4 SUB SUB DUP2 MSTORE SWAP1 PUSH1 0x40 MSTORE DUP1 MLOAD SWAP1 PUSH1 0x20 ADD KECCAK256 SWAP1 POP PUSH1 0x0 DUP1 PUSH1 0x0 PUSH2 0xB3C DUP8 PUSH1 0x20 ADD MLOAD PUSH2 0xC5C JUMP JUMPDEST SWAP3 POP SWAP3 POP SWAP3 POP DUP6 PUSH1 0x1 PUSH1 0x1 PUSH1 0xA0 SHL SUB AND PUSH1 0x1 DUP6 DUP4 DUP7 DUP7 PUSH1 0x40 MLOAD PUSH1 0x0 DUP2 MSTORE PUSH1 0x20 ADD PUSH1 0x40 MSTORE PUSH1 0x40 MLOAD PUSH2 0xB88 SWAP5 SWAP4 SWAP3 SWAP2 SWAP1 SWAP4 DUP5 MSTORE PUSH1 0xFF SWAP3 SWAP1 SWAP3 AND PUSH1 0x20 DUP5 ADD MSTORE PUSH1 0x40 DUP4 ADD MSTORE PUSH1 0x60 DUP3 ADD MSTORE PUSH1 0x80 ADD SWAP1 JUMP JUMPDEST PUSH1 0x20 PUSH1 0x40 MLOAD PUSH1 0x20 DUP2 SUB SWAP1 DUP1 DUP5 SUB SWAP1 DUP6 GAS STATICCALL ISZERO DUP1 ISZERO PUSH2 0xBAA JUMPI RETURNDATASIZE PUSH1 0x0 DUP1 RETURNDATACOPY RETURNDATASIZE PUSH1 0x0 REVERT JUMPDEST POP POP POP PUSH1 0x20 PUSH1 0x40 MLOAD SUB MLOAD PUSH1 0x1 PUSH1 0x1 PUSH1 0xA0 SHL SUB AND EQ SWAP5 POP POP POP POP POP SWAP3 SWAP2 POP POP JUMP JUMPDEST PUSH1 0x60 PUSH1 0x0 PUSH2 0xBD7 DUP4 PUSH2 0xCD0 JUMP JUMPDEST PUSH1 0x1 ADD SWAP1 POP PUSH1 0x0 DUP2 PUSH1 0x1 PUSH1 0x1 PUSH1 0x40 SHL SUB DUP2 GT ISZERO PUSH2 0xBF6 JUMPI PUSH2 0xBF6 PUSH2 0xE25 JUMP JUMPDEST PUSH1 0x40 MLOAD SWAP1 DUP1 DUP3 MSTORE DUP1 PUSH1 0x1F ADD PUSH1 0x1F NOT AND PUSH1 0x20 ADD DUP3 ADD PUSH1 0x40 MSTORE DUP1 ISZERO PUSH2 0xC20 JUMPI PUSH1 0x20 DUP3 ADD DUP2 DUP1 CALLDATASIZE DUP4 CALLDATACOPY ADD SWAP1 POP JUMPDEST POP SWAP1 POP DUP2 DUP2 ADD PUSH1 0x20 ADD JUMPDEST PUSH1 0x0 NOT ADD PUSH16 0x181899199A1A9B1B9C1CB0B131B232B3 PUSH1 0x81 SHL PUSH1 0xA DUP7 MOD BYTE DUP2 MSTORE8 PUSH1 0xA DUP6 DIV SWAP5 POP DUP5 PUSH2 0xC2A JUMPI POP SWAP4 SWAP3 POP POP POP JUMP JUMPDEST PUSH1 0x0 DUP1 PUSH1 0x0 DUP4 MLOAD PUSH1 0x41 EQ PUSH2 0xCB2 JUMPI PUSH1 0x40 MLOAD PUSH3 0x461BCD PUSH1 0xE5 SHL DUP2 MSTORE PUSH1 0x20 PUSH1 0x4 DUP3 ADD MSTORE PUSH1 0x18 PUSH1 0x24 DUP3 ADD MSTORE PUSH32 0x696E76616C6964207369676E6174757265206C656E6774680000000000000000 PUSH1 0x44 DUP3 ADD MSTORE PUSH1 0x64 ADD PUSH2 0x305 JUMP JUMPDEST POP POP POP PUSH1 0x20 DUP2 ADD MLOAD PUSH1 0x40 DUP3 ADD MLOAD PUSH1 0x60 SWAP1 SWAP3 ADD MLOAD SWAP1 SWAP3 PUSH1 0x0 SWAP2 SWAP1 SWAP2 BYTE SWAP1 JUMP JUMPDEST PUSH1 0x0 DUP1 PUSH19 0x184F03E93FF9F4DAA797ED6E38ED64BF6A1F01 PUSH1 0x40 SHL DUP4 LT PUSH2 0xD0F JUMPI PUSH19 0x184F03E93FF9F4DAA797ED6E38ED64BF6A1F01 PUSH1 0x40 SHL DUP4 DIV SWAP3 POP PUSH1 0x40 ADD JUMPDEST PUSH14 0x4EE2D6D415B85ACEF8100000000 DUP4 LT PUSH2 0xD3B JUMPI PUSH14 0x4EE2D6D415B85ACEF8100000000 DUP4 DIV SWAP3 POP PUSH1 0x20 ADD JUMPDEST PUSH7 0x2386F26FC10000 DUP4 LT PUSH2 0xD59 JUMPI PUSH7 0x2386F26FC10000 DUP4 DIV SWAP3 POP PUSH1 0x10 ADD JUMPDEST PUSH4 0x5F5E100 DUP4 LT PUSH2 0xD71 JUMPI PUSH4 0x5F5E100 DUP4 DIV SWAP3 POP PUSH1 0x8 ADD JUMPDEST PUSH2 0x2710 DUP4 LT PUSH2 0xD85 JUMPI PUSH2 0x2710 DUP4 DIV SWAP3 POP PUSH1 0x4 ADD JUMPDEST PUSH1 0x64 DUP4 LT PUSH2 0xD97 JUMPI PUSH1 0x64 DUP4 DIV SWAP3 POP PUSH1 0x2 ADD JUMPDEST PUSH1 0xA DUP4 LT PUSH2 0xDA3 JUMPI PUSH1 0x1 ADD JUMPDEST SWAP3 SWAP2 POP POP JUMP JUMPDEST PUSH1 0x0 PUSH1 0x20 DUP3 DUP5 SUB SLT ISZERO PUSH2 0xDBB JUMPI PUSH1 0x0 DUP1 REVERT JUMPDEST POP CALLDATALOAD SWAP2 SWAP1 POP JUMP JUMPDEST PUSH1 0x0 JUMPDEST DUP4 DUP2 LT ISZERO PUSH2 0xDDD JUMPI DUP2 DUP2 ADD MLOAD DUP4 DUP3 ADD MSTORE PUSH1 0x20 ADD PUSH2 0xDC5 JUMP JUMPDEST POP POP PUSH1 0x0 SWAP2 ADD MSTORE JUMP JUMPDEST PUSH1 0x0 DUP2 MLOAD DUP1 DUP5 MSTORE PUSH2 0xDFE DUP2 PUSH1 0x20 DUP7 ADD PUSH1 0x20 DUP7 ADD PUSH2 0xDC2 JUMP JUMPDEST PUSH1 0x1F ADD PUSH1 0x1F NOT AND SWAP3 SWAP1 SWAP3 ADD PUSH1 0x20 ADD SWAP3 SWAP2 POP POP JUMP JUMPDEST PUSH1 0x20 DUP2 MSTORE PUSH1 0x0 PUSH2 0x8BC PUSH1 0x20 DUP4 ADD DUP5 PUSH2 0xDE6 JUMP JUMPDEST PUSH4 0x4E487B71 PUSH1 0xE0 SHL PUSH1 0x0 MSTORE PUSH1 0x41 PUSH1 0x4 MSTORE PUSH1 0x24 PUSH1 0x0 REVERT JUMPDEST PUSH1 0x40 MLOAD PUSH2 0x120 DUP2 ADD PUSH1 0x1 PUSH1 0x1 PUSH1 0x40 SHL SUB DUP2 GT DUP3 DUP3 LT OR ISZERO PUSH2 0xE5E JUMPI PUSH2 0xE5E PUSH2 0xE25 JUMP JUMPDEST PUSH1 0x40 MSTORE SWAP1 JUMP JUMPDEST PUSH1 0x40 MLOAD PUSH1 0x1F DUP3 ADD PUSH1 0x1F NOT AND DUP2 ADD PUSH1 0x1 PUSH1 0x1 PUSH1 0x40 SHL SUB DUP2 GT DUP3 DUP3 LT OR ISZERO PUSH2 0xE8C JUMPI PUSH2 0xE8C PUSH2 0xE25 JUMP JUMPDEST PUSH1 0x40 MSTORE SWAP2 SWAP1 POP JUMP JUMPDEST PUSH1 0x0 PUSH1 0x1 PUSH1 0x1 PUSH1 0x40 SHL SUB DUP3 GT ISZERO PUSH2 0xEAD JUMPI PUSH2 0xEAD PUSH2 0xE25 JUMP JUMPDEST POP PUSH1 0x1F ADD PUSH1 0x1F NOT AND PUSH1 0x20 ADD SWAP1 JUMP JUMPDEST PUSH1 0x0 PUSH2 0xECE PUSH2 0xEC9 DUP5 PUSH2 0xE94 JUMP JUMPDEST PUSH2 0xE64 JUMP JUMPDEST SWAP1 POP DUP3 DUP2 MSTORE DUP4 DUP4 DUP4 ADD GT ISZERO PUSH2 0xEE2 JUMPI PUSH1 0x0 DUP1 REVERT JUMPDEST DUP3 DUP3 PUSH1 0x20 DUP4 ADD CALLDATACOPY PUSH1 0x0 PUSH1 0x20 DUP5 DUP4 ADD ADD MSTORE SWAP4 SWAP3 POP POP POP JUMP JUMPDEST PUSH1 0x0 DUP3 PUSH1 0x1F DUP4 ADD SLT PUSH2 0xF0A JUMPI PUSH1 0x0 DUP1 REVERT JUMPDEST PUSH2 0x8BC DUP4 DUP4 CALLDATALOAD PUSH1 0x20 DUP6 ADD PUSH2 0xEBB JUMP JUMPDEST PUSH1 0x0 DUP1 PUSH1 0x0 PUSH1 0x60 DUP5 DUP7 SUB SLT ISZERO PUSH2 0xF2E JUMPI PUSH1 0x0 DUP1 REVERT JUMPDEST DUP4 CALLDATALOAD SWAP3 POP PUSH1 0x20 DUP5 ADD CALLDATALOAD PUSH1 0x1 PUSH1 0x1 PUSH1 0x40 SHL SUB DUP2 GT ISZERO PUSH2 0xF4B JUMPI PUSH1 0x0 DUP1 REVERT JUMPDEST PUSH2 0xF57 DUP7 DUP3 DUP8 ADD PUSH2 0xEF9 JUMP JUMPDEST SWAP3 POP POP PUSH1 0x40 DUP5 ADD CALLDATALOAD SWAP1 POP SWAP3 POP SWAP3 POP SWAP3 JUMP JUMPDEST PUSH1 0x0 DUP1 DUP4 PUSH1 0x1F DUP5 ADD SLT PUSH2 0xF7A JUMPI PUSH1 0x0 DUP1 REVERT JUMPDEST POP DUP2 CALLDATALOAD PUSH1 0x1 PUSH1 0x1 PUSH1 0x40 SHL SUB DUP2 GT ISZERO PUSH2 0xF91 JUMPI PUSH1 0x0 DUP1 REVERT JUMPDEST PUSH1 0x20 DUP4 ADD SWAP2 POP DUP4 PUSH1 0x20 DUP3 DUP6 ADD ADD GT ISZERO PUSH2 0xFA9 JUMPI PUSH1 0x0 DUP1 REVERT JUMPDEST SWAP3 POP SWAP3 SWAP1 POP JUMP JUMPDEST PUSH1 0x0 DUP1 PUSH1 0x0 PUSH1 0x40 DUP5 DUP7 SUB SLT ISZERO PUSH2 0xFC5 JUMPI PUSH1 0x0 DUP1 REVERT JUMPDEST DUP4 CALLDATALOAD SWAP3 POP PUSH1 0x20 DUP5 ADD CALLDATALOAD PUSH1 0x1 PUSH1 0x1 PUSH1 0x40 SHL SUB DUP2 GT ISZERO PUSH2 0xFE2 JUMPI PUSH1 0x0 DUP1 REVERT JUMPDEST PUSH2 0xFEE DUP7 DUP3 DUP8 ADD PUSH2 0xF68 JUMP JUMPDEST SWAP5 SWAP8 SWAP1 SWAP7 POP SWAP4 SWAP5 POP POP POP POP JUMP JUMPDEST PUSH1 0x0 DUP1 PUSH1 0x40 DUP4 DUP6 SUB SLT ISZERO PUSH2 0x100E JUMPI PUSH1 0x0 DUP1 REVERT JUMPDEST DUP3 CALLDATALOAD SWAP2 POP PUSH1 0x20 DUP4 ADD CALLDATALOAD PUSH1 0x1 PUSH1 0x1 PUSH1 0x40 SHL SUB DUP2 GT ISZERO PUSH2 0x102B JUMPI PUSH1 0x0 DUP1 REVERT JUMPDEST PUSH2 0x1037 DUP6 DUP3 DUP7 ADD PUSH2 0xEF9 JUMP JUMPDEST SWAP2 POP POP SWAP3 POP SWAP3 SWAP1 POP JUMP JUMPDEST PUSH1 0x0 DUP1 PUSH1 0x0 DUP1 PUSH1 0x40 DUP6 DUP8 SUB SLT ISZERO PUSH2 0x1057 JUMPI PUSH1 0x0 DUP1 REVERT JUMPDEST DUP5 CALLDATALOAD PUSH1 0x1 PUSH1 0x1 PUSH1 0x40 SHL SUB DUP1 DUP3 GT ISZERO PUSH2 0x106E JUMPI PUSH1 0x0 DUP1 REVERT JUMPDEST PUSH2 0x107A DUP9 DUP4 DUP10 ADD PUSH2 0xF68 JUMP JUMPDEST SWAP1 SWAP7 POP SWAP5 POP PUSH1 0x20 DUP8 ADD CALLDATALOAD SWAP2 POP DUP1 DUP3 GT ISZERO PUSH2 0x1093 JUMPI PUSH1 0x0 DUP1 REVERT JUMPDEST POP PUSH2 0x10A0 DUP8 DUP3 DUP9 ADD PUSH2 0xF68 JUMP JUMPDEST SWAP6 SWAP9 SWAP5 SWAP8 POP SWAP6 POP POP POP POP JUMP JUMPDEST PUSH1 0x0 DUP1 PUSH1 0x20 DUP4 DUP6 SUB SLT ISZERO PUSH2 0x10BF JUMPI PUSH1 0x0 DUP1 REVERT JUMPDEST DUP3 CALLDATALOAD PUSH1 0x1 PUSH1 0x1 PUSH1 0x40 SHL SUB DUP2 GT ISZERO PUSH2 0x10D5 JUMPI PUSH1 0x0 DUP1 REVERT JUMPDEST PUSH2 0x10E1 DUP6 DUP3 DUP7 ADD PUSH2 0xF68 JUMP JUMPDEST SWAP1 SWAP7 SWAP1 SWAP6 POP SWAP4 POP POP POP POP JUMP JUMPDEST PUSH1 0x20 DUP1 DUP3 MSTORE PUSH1 0x25 SWAP1 DUP3 ADD MSTORE PUSH32 0x46756E6374696F6E2061636365737369626C65206F6E6C792062792074686520 PUSH1 0x40 DUP3 ADD MSTORE PUSH5 0x37BBB732B9 PUSH1 0xD9 SHL PUSH1 0x60 DUP3 ADD MSTORE PUSH1 0x80 ADD SWAP1 JUMP JUMPDEST DUP1 MLOAD DUP1 ISZERO ISZERO DUP2 EQ PUSH2 0x3A4 JUMPI PUSH1 0x0 DUP1 REVERT JUMPDEST PUSH1 0x0 PUSH1 0x20 DUP3 DUP5 SUB SLT ISZERO PUSH2 0x1154 JUMPI PUSH1 0x0 DUP1 REVERT JUMPDEST PUSH2 0x8BC DUP3 PUSH2 0x1132 JUMP JUMPDEST PUSH1 0x0 DUP3 PUSH1 0x1F DUP4 ADD SLT PUSH2 0x116E JUMPI PUSH1 0x0 DUP1 REVERT JUMPDEST DUP2 MLOAD PUSH2 0x117C PUSH2 0xEC9 DUP3 PUSH2 0xE94 JUMP JUMPDEST DUP2 DUP2 MSTORE DUP5 PUSH1 0x20 DUP4 DUP7 ADD ADD GT ISZERO PUSH2 0x1191 JUMPI PUSH1 0x0 DUP1 REVERT JUMPDEST PUSH2 0x47C DUP3 PUSH1 0x20 DUP4 ADD PUSH1 0x20 DUP8 ADD PUSH2 0xDC2 JUMP JUMPDEST PUSH1 0x1 PUSH1 0x1 PUSH1 0xA0 SHL SUB DUP2 AND DUP2 EQ PUSH2 0x11B7 JUMPI PUSH1 0x0 DUP1 REVERT JUMPDEST POP JUMP JUMPDEST DUP1 MLOAD PUSH2 0x3A4 DUP2 PUSH2 0x11A2 JUMP JUMPDEST PUSH1 0x0 PUSH1 0x20 DUP3 DUP5 SUB SLT ISZERO PUSH2 0x11D7 JUMPI PUSH1 0x0 DUP1 REVERT JUMPDEST DUP2 MLOAD PUSH1 0x1 PUSH1 0x1 PUSH1 0x40 SHL SUB DUP1 DUP3 GT ISZERO PUSH2 0x11EE JUMPI PUSH1 0x0 DUP1 REVERT JUMPDEST SWAP1 DUP4 ADD SWAP1 PUSH2 0x120 DUP3 DUP7 SUB SLT ISZERO PUSH2 0x1203 JUMPI PUSH1 0x0 DUP1 REVERT JUMPDEST PUSH2 0x120B PUSH2 0xE3B JUMP JUMPDEST DUP3 MLOAD DUP2 MSTORE PUSH1 0x20 DUP4 ADD MLOAD DUP3 DUP2 GT ISZERO PUSH2 0x1221 JUMPI PUSH1 0x0 DUP1 REVERT JUMPDEST PUSH2 0x122D DUP8 DUP3 DUP7 ADD PUSH2 0x115D JUMP JUMPDEST PUSH1 0x20 DUP4 ADD MSTORE POP PUSH1 0x40 DUP4 ADD MLOAD PUSH1 0x40 DUP3 ADD MSTORE PUSH1 0x60 DUP4 ADD MLOAD PUSH1 0x60 DUP3 ADD MSTORE PUSH2 0x1253 PUSH1 0x80 DUP5 ADD PUSH2 0x11BA JUMP JUMPDEST PUSH1 0x80 DUP3 ADD MSTORE PUSH2 0x1264 PUSH1 0xA0 DUP5 ADD PUSH2 0x11BA JUMP JUMPDEST PUSH1 0xA0 DUP3 ADD MSTORE PUSH1 0xC0 DUP4 ADD MLOAD PUSH1 0xC0 DUP3 ADD MSTORE PUSH1 0xE0 DUP4 ADD MLOAD DUP3 DUP2 GT ISZERO PUSH2 0x1285 JUMPI PUSH1 0x0 DUP1 REVERT JUMPDEST PUSH2 0x1291 DUP8 DUP3 DUP7 ADD PUSH2 0x115D JUMP JUMPDEST PUSH1 0xE0 DUP4 ADD MSTORE POP PUSH2 0x100 SWAP2 POP PUSH2 0x12A7 DUP3 DUP5 ADD PUSH2 0x1132 JUMP JUMPDEST SWAP2 DUP2 ADD SWAP2 SWAP1 SWAP2 MSTORE SWAP5 SWAP4 POP POP POP POP JUMP JUMPDEST DUP2 DUP4 MSTORE DUP2 DUP2 PUSH1 0x20 DUP6 ADD CALLDATACOPY POP PUSH1 0x0 DUP3 DUP3 ADD PUSH1 0x20 SWAP1 DUP2 ADD SWAP2 SWAP1 SWAP2 MSTORE PUSH1 0x1F SWAP1 SWAP2 ADD PUSH1 0x1F NOT AND SWAP1 SWAP2 ADD ADD SWAP1 JUMP JUMPDEST DUP4 DUP2 MSTORE PUSH1 0x40 PUSH1 0x20 DUP3 ADD MSTORE PUSH1 0x0 PUSH2 0x827 PUSH1 0x40 DUP4 ADD DUP5 DUP7 PUSH2 0x12B6 JUMP JUMPDEST PUSH1 0x20 DUP2 MSTORE PUSH1 0x0 PUSH2 0x47C PUSH1 0x20 DUP4 ADD DUP5 DUP7 PUSH2 0x12B6 JUMP JUMPDEST PUSH1 0x0 DUP3 MLOAD PUSH2 0x131F DUP2 DUP5 PUSH1 0x20 DUP8 ADD PUSH2 0xDC2 JUMP JUMPDEST SWAP2 SWAP1 SWAP2 ADD SWAP3 SWAP2 POP POP JUMP JUMPDEST PUSH1 0x0 PUSH1 0x20 DUP3 DUP5 SUB SLT ISZERO PUSH2 0x133B JUMPI PUSH1 0x0 DUP1 REVERT JUMPDEST DUP2 CALLDATALOAD PUSH1 0x1 PUSH1 0x1 PUSH1 0x40 SHL SUB DUP1 DUP3 GT ISZERO PUSH2 0x1352 JUMPI PUSH1 0x0 DUP1 REVERT JUMPDEST SWAP1 DUP4 ADD SWAP1 PUSH1 0x20 DUP3 DUP7 SUB SLT ISZERO PUSH2 0x1366 JUMPI PUSH1 0x0 DUP1 REVERT JUMPDEST PUSH1 0x40 MLOAD PUSH1 0x20 DUP2 ADD DUP2 DUP2 LT DUP4 DUP3 GT OR ISZERO PUSH2 0x1381 JUMPI PUSH2 0x1381 PUSH2 0xE25 JUMP JUMPDEST PUSH1 0x40 MSTORE DUP3 CALLDATALOAD DUP3 DUP2 GT ISZERO PUSH2 0x1393 JUMPI PUSH1 0x0 DUP1 REVERT JUMPDEST DUP1 DUP5 ADD SWAP4 POP POP DUP6 PUSH1 0x1F DUP5 ADD SLT PUSH2 0x13A8 JUMPI PUSH1 0x0 DUP1 REVERT JUMPDEST PUSH2 0x13B7 DUP7 DUP5 CALLDATALOAD PUSH1 0x20 DUP7 ADD PUSH2 0xEBB JUMP JUMPDEST DUP2 MSTORE SWAP6 SWAP5 POP POP POP POP POP JUMP JUMPDEST PUSH1 0x0 PUSH1 0x20 DUP3 DUP5 SUB SLT ISZERO PUSH2 0x13D4 JUMPI PUSH1 0x0 DUP1 REVERT JUMPDEST DUP2 CALLDATALOAD PUSH1 0x1 PUSH1 0x1 PUSH1 0x40 SHL SUB DUP1 DUP3 GT ISZERO PUSH2 0x13EB JUMPI PUSH1 0x0 DUP1 REVERT JUMPDEST SWAP1 DUP4 ADD SWAP1 PUSH1 0x40 DUP3 DUP7 SUB SLT ISZERO PUSH2 0x13FF JUMPI PUSH1 0x0 DUP1 REVERT JUMPDEST PUSH1 0x40 MLOAD PUSH1 0x40 DUP2 ADD DUP2 DUP2 LT DUP4 DUP3 GT OR ISZERO PUSH2 0x141A JUMPI PUSH2 0x141A PUSH2 0xE25 JUMP JUMPDEST PUSH1 0x40 MSTORE DUP3 CALLDATALOAD DUP3 DUP2 GT ISZERO PUSH2 0x142C JUMPI PUSH1 0x0 DUP1 REVERT JUMPDEST PUSH2 0x1438 DUP8 DUP3 DUP7 ADD PUSH2 0xEF9 JUMP JUMPDEST DUP3 MSTORE POP PUSH1 0x20 DUP4 ADD CALLDATALOAD DUP3 DUP2 GT ISZERO PUSH2 0x144D JUMPI PUSH1 0x0 DUP1 REVERT JUMPDEST PUSH2 0x1459 DUP8 DUP3 DUP7 ADD PUSH2 0xEF9 JUMP JUMPDEST PUSH1 0x20 DUP4 ADD MSTORE POP SWAP6 SWAP5 POP POP POP POP POP JUMP JUMPDEST PUSH1 0x0 PUSH1 0x20 DUP3 DUP5 SUB SLT ISZERO PUSH2 0x147A JUMPI PUSH1 0x0 DUP1 REVERT JUMPDEST DUP2 MLOAD PUSH2 0x8BC DUP2 PUSH2 0x11A2 JUMP JUMPDEST PUSH1 0x40 DUP2 MSTORE PUSH1 0x0 PUSH2 0x1498 PUSH1 0x40 DUP4 ADD DUP6 PUSH2 0xDE6 JUMP JUMPDEST SWAP1 POP DUP3 PUSH1 0x20 DUP4 ADD MSTORE SWAP4 SWAP3 POP POP POP JUMP JUMPDEST PUSH1 0x0 PUSH1 0x20 DUP3 DUP5 SUB SLT ISZERO PUSH2 0x14B9 JUMPI PUSH1 0x0 DUP1 REVERT JUMPDEST POP MLOAD SWAP2 SWAP1 POP JUMP JUMPDEST PUSH32 0x19457468657265756D205369676E6564204D6573736167653A0A000000000000 DUP2 MSTORE PUSH1 0x0 DUP4 MLOAD PUSH2 0x14F8 DUP2 PUSH1 0x1A DUP6 ADD PUSH1 0x20 DUP9 ADD PUSH2 0xDC2 JUMP JUMPDEST DUP4 MLOAD SWAP1 DUP4 ADD SWAP1 PUSH2 0x150F DUP2 PUSH1 0x1A DUP5 ADD PUSH1 0x20 DUP9 ADD PUSH2 0xDC2 JUMP JUMPDEST ADD PUSH1 0x1A ADD SWAP5 SWAP4 POP POP POP POP JUMP INVALID PUSH28 0x627974657320726573706F6E73653B206279746573207369676E6174 PUSH22 0x72653B7DA2646970667358221220484230000FA295C1 0xB0 NOT PUSH16 0xA4F44B787EAFCD1FE3399D2D8EF517D7 SHL PUSH21 0x98F85364736F6C6343000813003300000000000000 ",
  "sha1": "c96aa4a8e9422237f38d8e8b01f4ef03874e5ae6",
  "source": "// SPDX-License-Identifier: GPL-3.0\n\npragma solidity >=0.7.0 <0.9.0;\n\nimport \"./APIProvider.sol\";\nimport \"./BaseClient.sol\";\n\nimport \"@openzeppelin/contracts/utils/Strings.sol\";\n\n\nstruct Input {\n    string apiIdentifier;\n}\n\nstruct APIResponse { //TODO pasar estas esctructuras al provider? o la funcion de getinputdatastructure a algun lugar accesible por APIOracle python\n    bytes response;\n    bytes signature;\n}\n\ncontract APIConsumer is BaseClient {\n\n    APIProvider public provider;\n    \n    constructor(address brokerAddress, address apiProviderAddress) BaseClient(brokerAddress) {\n        provider = APIProvider(apiProviderAddress);\n    }\n\n    function submitRequest(uint payment, bytes memory input) public onlyOwner payable returns (uint) {\n        return super.submitRequest(payment, input, 0);\n    }\n\n    function checkResult(bytes calldata inputData, bytes calldata resultData) external override view returns (bool) {\n        Input memory input = abi.decode(inputData, (Input));\n        APIResponse memory apiResponse = abi.decode(resultData, (APIResponse));\n        return _verifySignature(apiResponse, provider.getAddress(input.apiIdentifier));\n    }\n\n    function getInputDataStructure() external override pure returns (string memory) {\n        return \"{string apiIdentifier;}\";\n    }\n\n    function getResultDataStructure() external override pure returns (string memory) {\n        return \"{bytes response; bytes signature;}\";\n    }\n\n    function _verifySignature(APIResponse memory apiResponse, address signer) private pure returns (bool) {\n        bytes32 prefixedHash = keccak256(abi.encodePacked(\"\\x19Ethereum Signed Message:\\n\", Strings.toString(apiResponse.response.length), apiResponse.response));\n        (bytes32 r, bytes32 s, uint8 v) = _splitSignature(apiResponse.signature);\n        return (ecrecover(prefixedHash, v, r, s) == signer);\n    }\n\n    function _splitSignature(bytes memory signature) private pure returns (bytes32 r, bytes32 s, uint8 v) {\n        require(signature.length == 65, \"invalid signature length\");\n        assembly {\n            r := mload(add(signature, 32))\n            s := mload(add(signature, 64))\n            v := byte(0, mload(add(signature, 96)))\n        }\n    }\n\n}",
  "sourcePath": "contracts/APIConsumer.sol",
  "type": "contract"
}