{
  "abi": [
    {
      "inputs": [],
      "stateMutability": "nonpayable",
      "type": "constructor"
    },
    {
      "inputs": [
        {
          "internalType": "string",
          "name": "",
          "type": "string"
        }
      ],
      "name": "RegisteredAPIs",
      "outputs": [
        {
          "internalType": "address",
          "name": "",
          "type": "address"
        }
      ],
      "stateMutability": "view",
      "type": "function"
    },
    {
      "inputs": [
        {
          "internalType": "string",
          "name": "apiIdentifier",
          "type": "string"
        }
      ],
      "name": "getAddress",
      "outputs": [
        {
          "internalType": "address",
          "name": "",
          "type": "address"
        }
      ],
      "stateMutability": "view",
      "type": "function"
    },
    {
      "inputs": [],
      "name": "isOwner",
      "outputs": [
        {
          "internalType": "bool",
          "name": "",
          "type": "bool"
        }
      ],
      "stateMutability": "view",
      "type": "function"
    },
    {
      "inputs": [],
      "name": "owner",
      "outputs": [
        {
          "internalType": "address",
          "name": "",
          "type": "address"
        }
      ],
      "stateMutability": "view",
      "type": "function"
    },
    {
      "inputs": [
        {
          "internalType": "string",
          "name": "apiIdentifier",
          "type": "string"
        },
        {
          "internalType": "address",
          "name": "apiAddress",
          "type": "address"
        }
      ],
      "name": "setAPIAddress",
      "outputs": [],
      "stateMutability": "nonpayable",
      "type": "function"
    }
  ],
  "bytecode": "608060405234801561001057600080fd5b50600080546001600160a01b0319163317905561047a806100326000396000f3fe608060405234801561001057600080fd5b50600436106100575760003560e01c80635346eb831461005c5780638da5cb5b146100ad5780638f32d59b146100be578063a226039c146100dc578063bf40fac1146100f1575b600080fd5b61009061006a366004610295565b80516020818301810180516001825292820191909301209152546001600160a01b031681565b6040516001600160a01b0390911681526020015b60405180910390f35b6000546001600160a01b0316610090565b6000546001600160a01b0316331460405190151581526020016100a4565b6100ef6100ea36600461038f565b610104565b005b6100906100ff3660046103f2565b6101b8565b6000546001600160a01b031633146101715760405162461bcd60e51b815260206004820152602560248201527f46756e6374696f6e2061636365737369626c65206f6e6c79206279207468652060448201526437bbb732b960d91b60648201526084015b60405180910390fd5b8060018484604051610184929190610434565b90815260405190819003602001902080546001600160a01b03929092166001600160a01b0319909216919091179055505050565b6000806001600160a01b0316600184846040516101d6929190610434565b908152604051908190036020019020546001600160a01b03160361024c5760405162461bcd60e51b815260206004820152602760248201527f54686973206964656e74696669657220686173206e6f74206265656e207265676044820152661a5cdd195c995960ca1b6064820152608401610168565b6001838360405161025e929190610434565b908152604051908190036020019020546001600160a01b0316905092915050565b634e487b7160e01b600052604160045260246000fd5b6000602082840312156102a757600080fd5b813567ffffffffffffffff808211156102bf57600080fd5b818401915084601f8301126102d357600080fd5b8135818111156102e5576102e561027f565b604051601f8201601f19908116603f0116810190838211818310171561030d5761030d61027f565b8160405282815287602084870101111561032657600080fd5b826020860160208301376000928101602001929092525095945050505050565b60008083601f84011261035857600080fd5b50813567ffffffffffffffff81111561037057600080fd5b60208301915083602082850101111561038857600080fd5b9250929050565b6000806000604084860312156103a457600080fd5b833567ffffffffffffffff8111156103bb57600080fd5b6103c786828701610346565b90945092505060208401356001600160a01b03811681146103e757600080fd5b809150509250925092565b6000806020838503121561040557600080fd5b823567ffffffffffffffff81111561041c57600080fd5b61042885828601610346565b90969095509350505050565b818382376000910190815291905056fea2646970667358221220d9bc5221609ec3bb30ae68f171a842bb2b6bfb8dee2715b042b9105ace06bcfb64736f6c63430008170033",
  "bytecodeSha1": "9b08f00b064623d04f2c099f68afc2d5ba0361e5",
  "compiler": {
    "evm_version": "istanbul",
    "optimizer": {
      "enabled": true,
      "runs": 200
    },
    "version": "0.8.23+commit.f704f362"
  },
  "contractName": "APIProvider",
  "language": "Solidity",
  "natspec": {
    "kind": "dev",
    "methods": {},
    "version": 1
  },
  "opcodes": "PUSH1 0x80 PUSH1 0x40 MSTORE CALLVALUE DUP1 ISZERO PUSH2 0x10 JUMPI PUSH1 0x0 DUP1 REVERT JUMPDEST POP PUSH1 0x4 CALLDATASIZE LT PUSH2 0x57 JUMPI PUSH1 0x0 CALLDATALOAD PUSH1 0xE0 SHR DUP1 PUSH4 0x5346EB83 EQ PUSH2 0x5C JUMPI DUP1 PUSH4 0x8DA5CB5B EQ PUSH2 0xAD JUMPI DUP1 PUSH4 0x8F32D59B EQ PUSH2 0xBE JUMPI DUP1 PUSH4 0xA226039C EQ PUSH2 0xDC JUMPI DUP1 PUSH4 0xBF40FAC1 EQ PUSH2 0xF1 JUMPI JUMPDEST PUSH1 0x0 DUP1 REVERT JUMPDEST PUSH2 0x90 PUSH2 0x6A CALLDATASIZE PUSH1 0x4 PUSH2 0x295 JUMP JUMPDEST DUP1 MLOAD PUSH1 0x20 DUP2 DUP4 ADD DUP2 ADD DUP1 MLOAD PUSH1 0x1 DUP3 MSTORE SWAP3 DUP3 ADD SWAP2 SWAP1 SWAP4 ADD KECCAK256 SWAP2 MSTORE SLOAD PUSH1 0x1 PUSH1 0x1 PUSH1 0xA0 SHL SUB AND DUP2 JUMP JUMPDEST PUSH1 0x40 MLOAD PUSH1 0x1 PUSH1 0x1 PUSH1 0xA0 SHL SUB SWAP1 SWAP2 AND DUP2 MSTORE PUSH1 0x20 ADD JUMPDEST PUSH1 0x40 MLOAD DUP1 SWAP2 SUB SWAP1 RETURN JUMPDEST PUSH1 0x0 SLOAD PUSH1 0x1 PUSH1 0x1 PUSH1 0xA0 SHL SUB AND PUSH2 0x90 JUMP JUMPDEST PUSH1 0x0 SLOAD PUSH1 0x1 PUSH1 0x1 PUSH1 0xA0 SHL SUB AND CALLER EQ PUSH1 0x40 MLOAD SWAP1 ISZERO ISZERO DUP2 MSTORE PUSH1 0x20 ADD PUSH2 0xA4 JUMP JUMPDEST PUSH2 0xEF PUSH2 0xEA CALLDATASIZE PUSH1 0x4 PUSH2 0x38F JUMP JUMPDEST PUSH2 0x104 JUMP JUMPDEST STOP JUMPDEST PUSH2 0x90 PUSH2 0xFF CALLDATASIZE PUSH1 0x4 PUSH2 0x3F2 JUMP JUMPDEST PUSH2 0x1B8 JUMP JUMPDEST PUSH1 0x0 SLOAD PUSH1 0x1 PUSH1 0x1 PUSH1 0xA0 SHL SUB AND CALLER EQ PUSH2 0x171 JUMPI PUSH1 0x40 MLOAD PUSH3 0x461BCD PUSH1 0xE5 SHL DUP2 MSTORE PUSH1 0x20 PUSH1 0x4 DUP3 ADD MSTORE PUSH1 0x25 PUSH1 0x24 DUP3 ADD MSTORE PUSH32 0x46756E6374696F6E2061636365737369626C65206F6E6C792062792074686520 PUSH1 0x44 DUP3 ADD MSTORE PUSH5 0x37BBB732B9 PUSH1 0xD9 SHL PUSH1 0x64 DUP3 ADD MSTORE PUSH1 0x84 ADD JUMPDEST PUSH1 0x40 MLOAD DUP1 SWAP2 SUB SWAP1 REVERT JUMPDEST DUP1 PUSH1 0x1 DUP5 DUP5 PUSH1 0x40 MLOAD PUSH2 0x184 SWAP3 SWAP2 SWAP1 PUSH2 0x434 JUMP JUMPDEST SWAP1 DUP2 MSTORE PUSH1 0x40 MLOAD SWAP1 DUP2 SWAP1 SUB PUSH1 0x20 ADD SWAP1 KECCAK256 DUP1 SLOAD PUSH1 0x1 PUSH1 0x1 PUSH1 0xA0 SHL SUB SWAP3 SWAP1 SWAP3 AND PUSH1 0x1 PUSH1 0x1 PUSH1 0xA0 SHL SUB NOT SWAP1 SWAP3 AND SWAP2 SWAP1 SWAP2 OR SWAP1 SSTORE POP POP POP JUMP JUMPDEST PUSH1 0x0 DUP1 PUSH1 0x1 PUSH1 0x1 PUSH1 0xA0 SHL SUB AND PUSH1 0x1 DUP5 DUP5 PUSH1 0x40 MLOAD PUSH2 0x1D6 SWAP3 SWAP2 SWAP1 PUSH2 0x434 JUMP JUMPDEST SWAP1 DUP2 MSTORE PUSH1 0x40 MLOAD SWAP1 DUP2 SWAP1 SUB PUSH1 0x20 ADD SWAP1 KECCAK256 SLOAD PUSH1 0x1 PUSH1 0x1 PUSH1 0xA0 SHL SUB AND SUB PUSH2 0x24C JUMPI PUSH1 0x40 MLOAD PUSH3 0x461BCD PUSH1 0xE5 SHL DUP2 MSTORE PUSH1 0x20 PUSH1 0x4 DUP3 ADD MSTORE PUSH1 0x27 PUSH1 0x24 DUP3 ADD MSTORE PUSH32 0x54686973206964656E74696669657220686173206E6F74206265656E20726567 PUSH1 0x44 DUP3 ADD MSTORE PUSH7 0x1A5CDD195C9959 PUSH1 0xCA SHL PUSH1 0x64 DUP3 ADD MSTORE PUSH1 0x84 ADD PUSH2 0x168 JUMP JUMPDEST PUSH1 0x1 DUP4 DUP4 PUSH1 0x40 MLOAD PUSH2 0x25E SWAP3 SWAP2 SWAP1 PUSH2 0x434 JUMP JUMPDEST SWAP1 DUP2 MSTORE PUSH1 0x40 MLOAD SWAP1 DUP2 SWAP1 SUB PUSH1 0x20 ADD SWAP1 KECCAK256 SLOAD PUSH1 0x1 PUSH1 0x1 PUSH1 0xA0 SHL SUB AND SWAP1 POP SWAP3 SWAP2 POP POP JUMP JUMPDEST PUSH4 0x4E487B71 PUSH1 0xE0 SHL PUSH1 0x0 MSTORE PUSH1 0x41 PUSH1 0x4 MSTORE PUSH1 0x24 PUSH1 0x0 REVERT JUMPDEST PUSH1 0x0 PUSH1 0x20 DUP3 DUP5 SUB SLT ISZERO PUSH2 0x2A7 JUMPI PUSH1 0x0 DUP1 REVERT JUMPDEST DUP2 CALLDATALOAD PUSH8 0xFFFFFFFFFFFFFFFF DUP1 DUP3 GT ISZERO PUSH2 0x2BF JUMPI PUSH1 0x0 DUP1 REVERT JUMPDEST DUP2 DUP5 ADD SWAP2 POP DUP5 PUSH1 0x1F DUP4 ADD SLT PUSH2 0x2D3 JUMPI PUSH1 0x0 DUP1 REVERT JUMPDEST DUP2 CALLDATALOAD DUP2 DUP2 GT ISZERO PUSH2 0x2E5 JUMPI PUSH2 0x2E5 PUSH2 0x27F JUMP JUMPDEST PUSH1 0x40 MLOAD PUSH1 0x1F DUP3 ADD PUSH1 0x1F NOT SWAP1 DUP2 AND PUSH1 0x3F ADD AND DUP2 ADD SWAP1 DUP4 DUP3 GT DUP2 DUP4 LT OR ISZERO PUSH2 0x30D JUMPI PUSH2 0x30D PUSH2 0x27F JUMP JUMPDEST DUP2 PUSH1 0x40 MSTORE DUP3 DUP2 MSTORE DUP8 PUSH1 0x20 DUP5 DUP8 ADD ADD GT ISZERO PUSH2 0x326 JUMPI PUSH1 0x0 DUP1 REVERT JUMPDEST DUP3 PUSH1 0x20 DUP7 ADD PUSH1 0x20 DUP4 ADD CALLDATACOPY PUSH1 0x0 SWAP3 DUP2 ADD PUSH1 0x20 ADD SWAP3 SWAP1 SWAP3 MSTORE POP SWAP6 SWAP5 POP POP POP POP POP JUMP JUMPDEST PUSH1 0x0 DUP1 DUP4 PUSH1 0x1F DUP5 ADD SLT PUSH2 0x358 JUMPI PUSH1 0x0 DUP1 REVERT JUMPDEST POP DUP2 CALLDATALOAD PUSH8 0xFFFFFFFFFFFFFFFF DUP2 GT ISZERO PUSH2 0x370 JUMPI PUSH1 0x0 DUP1 REVERT JUMPDEST PUSH1 0x20 DUP4 ADD SWAP2 POP DUP4 PUSH1 0x20 DUP3 DUP6 ADD ADD GT ISZERO PUSH2 0x388 JUMPI PUSH1 0x0 DUP1 REVERT JUMPDEST SWAP3 POP SWAP3 SWAP1 POP JUMP JUMPDEST PUSH1 0x0 DUP1 PUSH1 0x0 PUSH1 0x40 DUP5 DUP7 SUB SLT ISZERO PUSH2 0x3A4 JUMPI PUSH1 0x0 DUP1 REVERT JUMPDEST DUP4 CALLDATALOAD PUSH8 0xFFFFFFFFFFFFFFFF DUP2 GT ISZERO PUSH2 0x3BB JUMPI PUSH1 0x0 DUP1 REVERT JUMPDEST PUSH2 0x3C7 DUP7 DUP3 DUP8 ADD PUSH2 0x346 JUMP JUMPDEST SWAP1 SWAP5 POP SWAP3 POP POP PUSH1 0x20 DUP5 ADD CALLDATALOAD PUSH1 0x1 PUSH1 0x1 PUSH1 0xA0 SHL SUB DUP2 AND DUP2 EQ PUSH2 0x3E7 JUMPI PUSH1 0x0 DUP1 REVERT JUMPDEST DUP1 SWAP2 POP POP SWAP3 POP SWAP3 POP SWAP3 JUMP JUMPDEST PUSH1 0x0 DUP1 PUSH1 0x20 DUP4 DUP6 SUB SLT ISZERO PUSH2 0x405 JUMPI PUSH1 0x0 DUP1 REVERT JUMPDEST DUP3 CALLDATALOAD PUSH8 0xFFFFFFFFFFFFFFFF DUP2 GT ISZERO PUSH2 0x41C JUMPI PUSH1 0x0 DUP1 REVERT JUMPDEST PUSH2 0x428 DUP6 DUP3 DUP7 ADD PUSH2 0x346 JUMP JUMPDEST SWAP1 SWAP7 SWAP1 SWAP6 POP SWAP4 POP POP POP POP JUMP JUMPDEST DUP2 DUP4 DUP3 CALLDATACOPY PUSH1 0x0 SWAP2 ADD SWAP1 DUP2 MSTORE SWAP2 SWAP1 POP JUMP INVALID LOG2 PUSH5 0x6970667358 0x22 SLT KECCAK256 0xD9 0xBC MSTORE 0x21 PUSH1 0x9E 0xC3 0xBB ADDRESS 0xAE PUSH9 0xF171A842BB2B6BFB8D 0xEE 0x27 ISZERO 0xB0 TIMESTAMP 0xB9 LT GAS 0xCE MOD 0xBC 0xFB PUSH5 0x736F6C6343 STOP ADDMOD OR STOP CALLER ",
  "sha1": "894fa5f982baa8b32c90b9309fa831f0562dba08",
  "source": "// SPDX-License-Identifier: GPL-3.0\n\npragma solidity >=0.7.0 <0.9.0;\n\nimport \"./Ownable.sol\";\n\n\ncontract APIProvider is Ownable {\n\n    mapping(string => address) public RegisteredAPIs;\n\n    constructor () Ownable() {}\n\n    function setAPIAddress(string calldata apiIdentifier, address apiAddress) public onlyOwner {\n        RegisteredAPIs[apiIdentifier] = apiAddress;\n    }\n\n    function getAddress(string calldata apiIdentifier) public view returns (address) {\n        require(RegisteredAPIs[apiIdentifier] != address(0x0), \"This identifier has not been registered\");\n        return RegisteredAPIs[apiIdentifier];\n    }\n\n}",
  "sourcePath": "contracts/APIProvider.sol",
  "type": "contract"
}