{
  "abi": [
    {
      "inputs": [
        {
          "internalType": "uint256",
          "name": "acceptanceStake",
          "type": "uint256"
        },
        {
          "internalType": "uint256",
          "name": "acceptanceGracePeriod",
          "type": "uint256"
        }
      ],
      "stateMutability": "nonpayable",
      "type": "constructor"
    },
    {
      "anonymous": false,
      "inputs": [
        {
          "indexed": false,
          "internalType": "uint256",
          "name": "requestID",
          "type": "uint256"
        },
        {
          "indexed": false,
          "internalType": "address",
          "name": "acceptor",
          "type": "address"
        },
        {
          "indexed": false,
          "internalType": "bool",
          "name": "refundSuccess",
          "type": "bool"
        }
      ],
      "name": "acceptanceCancelled",
      "type": "event"
    },
    {
      "anonymous": false,
      "inputs": [
        {
          "indexed": false,
          "internalType": "uint256",
          "name": "requestID",
          "type": "uint256"
        },
        {
          "indexed": false,
          "internalType": "address",
          "name": "acceptor",
          "type": "address"
        }
      ],
      "name": "requestAccepted",
      "type": "event"
    },
    {
      "anonymous": false,
      "inputs": [
        {
          "indexed": false,
          "internalType": "uint256",
          "name": "requestID",
          "type": "uint256"
        }
      ],
      "name": "requestCancelled",
      "type": "event"
    },
    {
      "anonymous": false,
      "inputs": [
        {
          "indexed": false,
          "internalType": "uint256",
          "name": "requestID",
          "type": "uint256"
        },
        {
          "indexed": false,
          "internalType": "bool",
          "name": "transferSuccess",
          "type": "bool"
        }
      ],
      "name": "requestCompleted",
      "type": "event"
    },
    {
      "anonymous": false,
      "inputs": [
        {
          "indexed": false,
          "internalType": "uint256",
          "name": "requestID",
          "type": "uint256"
        },
        {
          "indexed": false,
          "internalType": "uint256",
          "name": "payment",
          "type": "uint256"
        }
      ],
      "name": "requestCreated",
      "type": "event"
    },
    {
      "anonymous": false,
      "inputs": [
        {
          "indexed": false,
          "internalType": "uint256",
          "name": "requestID",
          "type": "uint256"
        },
        {
          "indexed": false,
          "internalType": "uint256",
          "name": "payment",
          "type": "uint256"
        },
        {
          "indexed": false,
          "internalType": "bool",
          "name": "transferSuccess",
          "type": "bool"
        }
      ],
      "name": "requestReOpened",
      "type": "event"
    },
    {
      "inputs": [],
      "name": "ACCEPTANCE_GRACE_PERIOD",
      "outputs": [
        {
          "internalType": "uint256",
          "name": "",
          "type": "uint256"
        }
      ],
      "stateMutability": "view",
      "type": "function"
    },
    {
      "inputs": [],
      "name": "ACCEPTANCE_STAKE",
      "outputs": [
        {
          "internalType": "uint256",
          "name": "",
          "type": "uint256"
        }
      ],
      "stateMutability": "view",
      "type": "function"
    },
    {
      "inputs": [
        {
          "internalType": "uint256",
          "name": "requestID",
          "type": "uint256"
        }
      ],
      "name": "acceptRequest",
      "outputs": [],
      "stateMutability": "payable",
      "type": "function"
    },
    {
      "inputs": [
        {
          "internalType": "uint256",
          "name": "requestID",
          "type": "uint256"
        }
      ],
      "name": "cancelAcceptance",
      "outputs": [],
      "stateMutability": "nonpayable",
      "type": "function"
    },
    {
      "inputs": [
        {
          "internalType": "uint256",
          "name": "requestID",
          "type": "uint256"
        }
      ],
      "name": "cancelRequest",
      "outputs": [
        {
          "internalType": "bool",
          "name": "",
          "type": "bool"
        }
      ],
      "stateMutability": "nonpayable",
      "type": "function"
    },
    {
      "inputs": [
        {
          "internalType": "uint256",
          "name": "requestID",
          "type": "uint256"
        }
      ],
      "name": "getRequest",
      "outputs": [
        {
          "components": [
            {
              "internalType": "uint256",
              "name": "id",
              "type": "uint256"
            },
            {
              "internalType": "bytes",
              "name": "input",
              "type": "bytes"
            },
            {
              "internalType": "uint256",
              "name": "payment",
              "type": "uint256"
            },
            {
              "internalType": "uint256",
              "name": "postProcessingGas",
              "type": "uint256"
            },
            {
              "internalType": "contract BaseClient",
              "name": "client",
              "type": "address"
            },
            {
              "internalType": "address",
              "name": "executor",
              "type": "address"
            },
            {
              "internalType": "uint256",
              "name": "acceptedTimestamp",
              "type": "uint256"
            },
            {
              "internalType": "bytes",
              "name": "result",
              "type": "bytes"
            },
            {
              "internalType": "bool",
              "name": "closed",
              "type": "bool"
            }
          ],
          "internalType": "struct Request",
          "name": "",
          "type": "tuple"
        }
      ],
      "stateMutability": "view",
      "type": "function"
    },
    {
      "inputs": [],
      "name": "getRequests",
      "outputs": [
        {
          "components": [
            {
              "internalType": "uint256",
              "name": "id",
              "type": "uint256"
            },
            {
              "internalType": "bytes",
              "name": "input",
              "type": "bytes"
            },
            {
              "internalType": "uint256",
              "name": "payment",
              "type": "uint256"
            },
            {
              "internalType": "uint256",
              "name": "postProcessingGas",
              "type": "uint256"
            },
            {
              "internalType": "contract BaseClient",
              "name": "client",
              "type": "address"
            },
            {
              "internalType": "address",
              "name": "executor",
              "type": "address"
            },
            {
              "internalType": "uint256",
              "name": "acceptedTimestamp",
              "type": "uint256"
            },
            {
              "internalType": "bytes",
              "name": "result",
              "type": "bytes"
            },
            {
              "internalType": "bool",
              "name": "closed",
              "type": "bool"
            }
          ],
          "internalType": "struct Request[]",
          "name": "",
          "type": "tuple[]"
        }
      ],
      "stateMutability": "view",
      "type": "function"
    },
    {
      "inputs": [
        {
          "internalType": "uint256",
          "name": "amount",
          "type": "uint256"
        },
        {
          "internalType": "address",
          "name": "destination",
          "type": "address"
        }
      ],
      "name": "publicTransferFunds",
      "outputs": [
        {
          "internalType": "bool",
          "name": "",
          "type": "bool"
        }
      ],
      "stateMutability": "nonpayable",
      "type": "function"
    },
    {
      "inputs": [
        {
          "internalType": "uint256",
          "name": "requestID",
          "type": "uint256"
        }
      ],
      "name": "publicizeRequest",
      "outputs": [],
      "stateMutability": "nonpayable",
      "type": "function"
    },
    {
      "inputs": [],
      "name": "requestCount",
      "outputs": [
        {
          "internalType": "uint256",
          "name": "",
          "type": "uint256"
        }
      ],
      "stateMutability": "view",
      "type": "function"
    },
    {
      "inputs": [
        {
          "internalType": "uint256",
          "name": "",
          "type": "uint256"
        }
      ],
      "name": "requests",
      "outputs": [
        {
          "internalType": "uint256",
          "name": "id",
          "type": "uint256"
        },
        {
          "internalType": "bytes",
          "name": "input",
          "type": "bytes"
        },
        {
          "internalType": "uint256",
          "name": "payment",
          "type": "uint256"
        },
        {
          "internalType": "uint256",
          "name": "postProcessingGas",
          "type": "uint256"
        },
        {
          "internalType": "contract BaseClient",
          "name": "client",
          "type": "address"
        },
        {
          "internalType": "address",
          "name": "executor",
          "type": "address"
        },
        {
          "internalType": "uint256",
          "name": "acceptedTimestamp",
          "type": "uint256"
        },
        {
          "internalType": "bytes",
          "name": "result",
          "type": "bytes"
        },
        {
          "internalType": "bool",
          "name": "closed",
          "type": "bool"
        }
      ],
      "stateMutability": "view",
      "type": "function"
    },
    {
      "inputs": [
        {
          "internalType": "bytes",
          "name": "input",
          "type": "bytes"
        },
        {
          "internalType": "uint256",
          "name": "postProcessingGas",
          "type": "uint256"
        }
      ],
      "name": "submitRequest",
      "outputs": [
        {
          "internalType": "uint256",
          "name": "",
          "type": "uint256"
        }
      ],
      "stateMutability": "payable",
      "type": "function"
    },
    {
      "inputs": [
        {
          "internalType": "uint256",
          "name": "requestID",
          "type": "uint256"
        },
        {
          "internalType": "bytes",
          "name": "result",
          "type": "bytes"
        }
      ],
      "name": "submitResult",
      "outputs": [
        {
          "internalType": "bool",
          "name": "",
          "type": "bool"
        }
      ],
      "stateMutability": "nonpayable",
      "type": "function"
    },
    {
      "inputs": [
        {
          "internalType": "address",
          "name": "",
          "type": "address"
        }
      ],
      "name": "weiBalances",
      "outputs": [
        {
          "internalType": "uint256",
          "name": "",
          "type": "uint256"
        }
      ],
      "stateMutability": "view",
      "type": "function"
    }
  ],
  "bytecode": "608060405234801561001057600080fd5b506040516120c13803806120c183398101604081905261002f9161003d565b600291909155600155610061565b6000806040838503121561005057600080fd5b505080516020909101519092909150565b612051806100706000396000f3fe6080604052600436106100dd5760003560e01c80635badbe4c1161007f5780638813ce12116100595780638813ce1214610247578063c58343ef14610269578063dfad956514610296578063f1f15e4a146102ac57600080fd5b80635badbe4c146101d05780636ef9e145146101e557806381d12c581461021257600080fd5b806349875db2116100bb57806349875db21461015b5780634ba1f0981461017b578063540a61781461019057806354c7d906146101b057600080fd5b806303f94dbd146100e25780630d45c1991461010b5780633015394c1461013b575b600080fd5b3480156100ee57600080fd5b506100f860015481565b6040519081526020015b60405180910390f35b34801561011757600080fd5b5061012b610126366004611966565b6102bf565b6040519015158152602001610102565b34801561014757600080fd5b5061012b610156366004611992565b6103e4565b34801561016757600080fd5b5061012b6101763660046119f4565b610653565b61018e610189366004611992565b6109c5565b005b34801561019c57600080fd5b5061018e6101ab366004611992565b610d8b565b3480156101bc57600080fd5b5061018e6101cb366004611992565b610e7c565b3480156101dc57600080fd5b506003546100f8565b3480156101f157600080fd5b506100f8610200366004611a40565b60006020819052908152604090205481565b34801561021e57600080fd5b5061023261022d366004611992565b611146565b60405161010299989796959493929190611aa1565b34801561025357600080fd5b5061025c6112c6565b6040516101029190611bc4565b34801561027557600080fd5b50610289610284366004611992565b6114a8565b6040516101029190611c26565b3480156102a257600080fd5b506100f860025481565b6100f86102ba366004611c39565b6116bf565b3360009081526020819052604081205483111561032d5760405162461bcd60e51b815260206004820152602160248201527f53656e64657220646f6573206e6f74206861766520656e6f7567682066756e646044820152607360f81b60648201526084015b60405180910390fd5b336000908152602081905260408120805485929061034c908490611c9b565b909155505060405182906000906001600160a01b0383169086908381818185875af1925050503d806000811461039e576040519150601f19603f3d011682016040523d82523d6000602084013e6103a3565b606091505b50509050806103da576001600160a01b038416600090815260208190526040812080548792906103d4908490611cae565b90915550505b9150505b92915050565b6000600382815481106103f9576103f9611cc1565b600091825260209091206008600990920201015460ff16156104555760405162461bcd60e51b8152602060048201526015602482015274151a19481c995c5d595cdd081a5cc818db1bdcd959605a1b6044820152606401610324565b6003828154811061046857610468611cc1565b60009182526020909120600990910201600401546001600160a01b031633146104ee5760405162461bcd60e51b815260206004820152603260248201527f596f752063616e742063616e63656c20612072657175657374207468617420776044820152716173206e6f74206d61646520627920796f7560701b6064820152608401610324565b60006001600160a01b03166003838154811061050c5761050c611cc1565b60009182526020909120600560099092020101546001600160a01b0316146105825760405162461bcd60e51b815260206004820152602360248201527f596f752063616e742063616e63656c20616e2061636365707465642072657175604482015262195cdd60ea1b6064820152608401610324565b60016003838154811061059757610597611cc1565b600091825260209182902060099190910201600801805460ff1916921515929092179091556040518381527f1523a7600668f21efd095a2e4b78dc32da863f11b5b54ed0043034aeefd6442c910160405180910390a1600061064c6003848154811061060557610605611cc1565b9060005260206000209060090201600201546003858154811061062a5761062a611cc1565b60009182526020909120600460099092020101546001600160a01b0316611919565b9392505050565b60006003848154811061066857610668611cc1565b60009182526020909120600990910201600401546001600160a01b031633146106ea5760405162461bcd60e51b815260206004820152602e60248201527f596f752063616e206f6e6c79207375626d697420726573756c7473207468726f60448201526d1d59da081d1a194818db1a595b9d60921b6064820152608401610324565b600384815481106106fd576106fd611cc1565b906000526020600020906009020160040160009054906101000a90046001600160a01b03166001600160a01b031663c91c7b376003868154811061074357610743611cc1565b906000526020600020906009020160010185856040518463ffffffff1660e01b815260040161077493929190611d3a565b602060405180830381865afa158015610791573d6000803e3d6000fd5b505050506040513d601f19601f820116820180604052508101906107b59190611ddb565b156108af578282600386815481106107cf576107cf611cc1565b906000526020600020906009020160070191826107ed929190611e61565b5060016003858154811061080357610803611cc1565b60009182526020822060099190910201600801805460ff191692151592909217909155600254600380548790811061083d5761083d611cc1565b9060005260206000209060090201600201546108599190611cae565b905060006108678233611919565b6040805188815282151560208201529192507f3a9d74378077c9f5b32fc00fedf52e35e392cd3621eef9e4038d12634df5dd58910160405180910390a160019250505061064c565b6000600385815481106108c4576108c4611cc1565b906000526020600020906009020160050160006101000a8154816001600160a01b0302191690836001600160a01b03160217905550600061091f6064600254605f61090f9190611f22565b6109199190611f39565b33611919565b90507f8d2c03fca17b18f205938c2e2849aec3a5eadd9ca5de6d1d82d4a561c556759d856003878154811061095657610956611cc1565b60009182526020918290206002600990920201015460408051938452918301528315159082015260600160405180910390a16109b96064600254600561099c9190611f22565b6109a69190611f39565b6003878154811061062a5761062a611cc1565b50600095945050505050565b600381815481106109d8576109d8611cc1565b600091825260209091206008600990920201015460ff1615610a345760405162461bcd60e51b8152602060048201526015602482015274151a19481c995c5d595cdd081a5cc818db1bdcd959605a1b6044820152606401610324565b336001600160a01b031660038281548110610a5157610a51611cc1565b60009182526020909120600560099092020101546001600160a01b031603610acb5760405162461bcd60e51b815260206004820152602760248201527f54686973207265717565737420697320616c726561647920616363657074656460448201526620627920796f7560c81b6064820152608401610324565b60006001600160a01b031660038281548110610ae957610ae9611cc1565b60009182526020909120600560099092020101546001600160a01b03161480610b4257504260015460038381548110610b2457610b24611cc1565b906000526020600020906009020160060154610b409190611cae565b105b610ba85760405162461bcd60e51b815260206004820152603160248201527f546865726520697320616e20756e6578706972656420616363657074616e636560448201527008199bdc881d1a1a5cc81c995c5d595cdd607a1b6064820152608401610324565b6002543414610c045760405162461bcd60e51b815260206004820152602260248201527f496e636f727265637420616d6f756e74206f66207374616b652070726f766964604482015261195960f21b6064820152608401610324565b60006001600160a01b031660038281548110610c2257610c22611cc1565b60009182526020909120600560099092020101546001600160a01b031614610ccb57610c976064600254605f610c589190611f22565b610c629190611f39565b60038381548110610c7557610c75611cc1565b60009182526020909120600560099092020101546001600160a01b0316611919565b50610cc960646002546005610cac9190611f22565b610cb69190611f39565b6003838154811061062a5761062a611cc1565b505b3360038281548110610cdf57610cdf611cc1565b906000526020600020906009020160050160006101000a8154816001600160a01b0302191690836001600160a01b031602179055504260038281548110610d2857610d28611cc1565b9060005260206000209060090201600601819055507f08f298fd72dbd217fb0a6d75ebb7814f41823b563772413db23636b1600a0aca8133604051610d809291909182526001600160a01b0316602082015260400190565b60405180910390a150565b60006001600160a01b031660038281548110610da957610da9611cc1565b60009182526020909120600560099092020101546001600160a01b031614610e1e5760405162461bcd60e51b815260206004820152602260248201527f596f752063616e74207075626c6963697a6520612074616b656e2072657175656044820152611cdd60f21b6064820152608401610324565b7f179928cdd6b95a06e7b333f9371e3b93a5421dc0a2d8c7039619e7bc1c433eeb8160038381548110610e5357610e53611cc1565b906000526020600020906009020160020154604051610d80929190918252602082015260400190565b60006001600160a01b031660038281548110610e9a57610e9a611cc1565b60009182526020909120600560099092020101546001600160a01b031603610f1c5760405162461bcd60e51b815260206004820152602f60248201527f5468657265206973206e6f206163636570746f7220666f72207468652070726f60448201526e1d9a591959081c995c5d595cdd1251608a1b6064820152608401610324565b60038181548110610f2f57610f2f611cc1565b600091825260209091206008600990920201015460ff1615610f8c5760405162461bcd60e51b8152602060048201526016602482015275151a1a5cc81c995c5d595cdd081a5cc818db1bdcd95960521b6044820152606401610324565b336001600160a01b031660038281548110610fa957610fa9611cc1565b60009182526020909120600560099092020101546001600160a01b0316146110395760405162461bcd60e51b815260206004820152603960248201527f596f752063616e742063616e63656c20616e20616363657074616e636520746860448201527f617420646f6573206e6f742062656c6f6e6720746f20796f75000000000000006064820152608401610324565b60006003828154811061104e5761104e611cc1565b906000526020600020906009020160050160006101000a8154816001600160a01b0302191690836001600160a01b0316021790555060006110996064600254605f61090f9190611f22565b90507f233aebe1d7c90b97e1fe6ce1e226cca4feee120bc312447d954c577a9e2255e482600384815481106110d0576110d0611cc1565b600091825260209182902060099091020160050154604080519384526001600160a01b03909116918301919091528315159082015260600160405180910390a1611141606460025460056111249190611f22565b61112e9190611f39565b6003848154811061062a5761062a611cc1565b505050565b6003818154811061115657600080fd5b6000918252602090912060099091020180546001820180549193509061117b90611cd7565b80601f01602080910402602001604051908101604052809291908181526020018280546111a790611cd7565b80156111f45780601f106111c9576101008083540402835291602001916111f4565b820191906000526020600020905b8154815290600101906020018083116111d757829003601f168201915b50505060028401546003850154600486015460058701546006880154600789018054989995989497506001600160a01b0393841696509190921693919261123a90611cd7565b80601f016020809104026020016040519081016040528092919081815260200182805461126690611cd7565b80156112b35780601f10611288576101008083540402835291602001916112b3565b820191906000526020600020905b81548152906001019060200180831161129657829003601f168201915b5050506008909301549192505060ff1689565b60606003805480602002602001604051908101604052809291908181526020016000905b8282101561149f5783829060005260206000209060090201604051806101200160405290816000820154815260200160018201805461132890611cd7565b80601f016020809104026020016040519081016040528092919081815260200182805461135490611cd7565b80156113a15780601f10611376576101008083540402835291602001916113a1565b820191906000526020600020905b81548152906001019060200180831161138457829003601f168201915b5050509183525050600282015460208201526003820154604082015260048201546001600160a01b0390811660608301526005830154166080820152600682015460a082015260078201805460c0909201916113fc90611cd7565b80601f016020809104026020016040519081016040528092919081815260200182805461142890611cd7565b80156114755780601f1061144a57610100808354040283529160200191611475565b820191906000526020600020905b81548152906001019060200180831161145857829003601f168201915b50505091835250506008919091015460ff16151560209182015290825260019290920191016112ea565b50505050905090565b61150b6040518061012001604052806000815260200160608152602001600081526020016000815260200160006001600160a01b0316815260200160006001600160a01b0316815260200160008152602001606081526020016000151581525090565b6003828154811061151e5761151e611cc1565b9060005260206000209060090201604051806101200160405290816000820154815260200160018201805461155290611cd7565b80601f016020809104026020016040519081016040528092919081815260200182805461157e90611cd7565b80156115cb5780601f106115a0576101008083540402835291602001916115cb565b820191906000526020600020905b8154815290600101906020018083116115ae57829003601f168201915b5050509183525050600282015460208201526003820154604082015260048201546001600160a01b0390811660608301526005830154166080820152600682015460a082015260078201805460c09092019161162690611cd7565b80601f016020809104026020016040519081016040528092919081815260200182805461165290611cd7565b801561169f5780601f106116745761010080835404028352916020019161169f565b820191906000526020600020905b81548152906001019060200180831161168257829003601f168201915b50505091835250506008919091015460ff16151560209091015292915050565b60006116cb3a83611f22565b341161173f5760405162461bcd60e51b815260206004820152603f60248201527f54686520706f73742070726f63657373696e67206761732063616e6e6f74207460448201527f616b65757020616c6c206f662074686520737570706c696564206574686572006064820152608401610324565b6000604051806101200160405280600380549050815260200186868080601f0160208091040260200160405190810160405280939291908181526020018383808284376000920182905250938552505034602080850182905260408086018a90523360608701526080860185905260a086018590528051808301869052815180820384018152908201825260c087015260e09095019390935284518451908152928301525081519293507f179928cdd6b95a06e7b333f9371e3b93a5421dc0a2d8c7039619e7bc1c433eeb929081900390910190a160038054600181018255600091909152815160099091027fc2575a0e9e593c00f959f8c92f12db2869c3395a3b0502d05e2516446f71f85b810191825560208301518392917fc2575a0e9e593c00f959f8c92f12db2869c3395a3b0502d05e2516446f71f85c01906118869082611f5b565b50604082015160028201556060820151600382015560808201516004820180546001600160a01b039283166001600160a01b03199182161790915560a084015160058401805491909316911617905560c0820151600682015560e082015160078201906118f39082611f5b565b5061010091909101516008909101805460ff191691151591909117905551949350505050565b3360009081526020819052604081208054849190839061193a908490611cae565b9091555061064c905083836102bf565b80356001600160a01b038116811461196157600080fd5b919050565b6000806040838503121561197957600080fd5b823591506119896020840161194a565b90509250929050565b6000602082840312156119a457600080fd5b5035919050565b60008083601f8401126119bd57600080fd5b50813567ffffffffffffffff8111156119d557600080fd5b6020830191508360208285010111156119ed57600080fd5b9250929050565b600080600060408486031215611a0957600080fd5b83359250602084013567ffffffffffffffff811115611a2757600080fd5b611a33868287016119ab565b9497909650939450505050565b600060208284031215611a5257600080fd5b61064c8261194a565b6000815180845260005b81811015611a8157602081850181015186830182015201611a65565b506000602082860101526020601f19601f83011685010191505092915050565b60006101208b8352806020840152611abb8184018c611a5b565b604084018b9052606084018a90526001600160a01b038981166080860152881660a085015260c0840187905283810360e08501529050611afb8186611a5b565b9150508215156101008301529a9950505050505050505050565b6000610120825184526020830151816020860152611b3582860182611a5b565b91505060408301516040850152606083015160608501526080830151611b6660808601826001600160a01b03169052565b5060a0830151611b8160a08601826001600160a01b03169052565b5060c083015160c085015260e083015184820360e0860152611ba38282611a5b565b91505061010080840151611bba8287018215159052565b5090949350505050565b6000602080830181845280855180835260408601915060408160051b870101925083870160005b82811015611c1957603f19888603018452611c07858351611b15565b94509285019290850190600101611beb565b5092979650505050505050565b60208152600061064c6020830184611b15565b600080600060408486031215611c4e57600080fd5b833567ffffffffffffffff811115611c6557600080fd5b611c71868287016119ab565b909790965060209590950135949350505050565b634e487b7160e01b600052601160045260246000fd5b818103818111156103de576103de611c85565b808201808211156103de576103de611c85565b634e487b7160e01b600052603260045260246000fd5b600181811c90821680611ceb57607f821691505b602082108103611d0b57634e487b7160e01b600052602260045260246000fd5b50919050565b81835281816020850137506000828201602090810191909152601f909101601f19169091010190565b604081526000808554611d4c81611cd7565b8060408601526060600180841660008114611d6e5760018114611d8857611db9565b60ff1985168884015283151560051b880183019550611db9565b8a60005260208060002060005b86811015611db05781548b8201870152908401908201611d95565b8a018501975050505b50505050508281036020840152611dd1818587611d11565b9695505050505050565b600060208284031215611ded57600080fd5b8151801515811461064c57600080fd5b634e487b7160e01b600052604160045260246000fd5b601f82111561114157600081815260208120601f850160051c81016020861015611e3a5750805b601f850160051c820191505b81811015611e5957828155600101611e46565b505050505050565b67ffffffffffffffff831115611e7957611e79611dfd565b611e8d83611e878354611cd7565b83611e13565b6000601f841160018114611ec15760008515611ea95750838201355b600019600387901b1c1916600186901b178355611f1b565b600083815260209020601f19861690835b82811015611ef25786850135825560209485019460019092019101611ed2565b5086821015611f0f5760001960f88860031b161c19848701351681555b505060018560011b0183555b5050505050565b80820281158282048414176103de576103de611c85565b600082611f5657634e487b7160e01b600052601260045260246000fd5b500490565b815167ffffffffffffffff811115611f7557611f75611dfd565b611f8981611f838454611cd7565b84611e13565b602080601f831160018114611fbe5760008415611fa65750858301515b600019600386901b1c1916600185901b178555611e59565b600085815260208120601f198616915b82811015611fed57888601518255948401946001909101908401611fce565b508582101561200b5787850151600019600388901b60f8161c191681555b5050505050600190811b0190555056fea2646970667358221220db0690bf5e99cdef6e73a04021523d7bb4752e03a8bb1e8a76520d9932e9a63564736f6c63430008130033",
  "bytecodeSha1": "96eda7d0b89500fd812819cac61c91a7d8630196",
  "compiler": {
    "evm_version": "istanbul",
    "optimizer": {
      "enabled": true,
      "runs": 200
    },
    "version": "0.8.19+commit.7dd6d404"
  },
  "contractName": "ExecutionBroker",
  "language": "Solidity",
  "natspec": {
    "kind": "dev",
    "methods": {},
    "version": 1
  },
  "opcodes": "PUSH1 0x80 PUSH1 0x40 MSTORE PUSH1 0x4 CALLDATASIZE LT PUSH2 0xDD JUMPI PUSH1 0x0 CALLDATALOAD PUSH1 0xE0 SHR DUP1 PUSH4 0x5BADBE4C GT PUSH2 0x7F JUMPI DUP1 PUSH4 0x8813CE12 GT PUSH2 0x59 JUMPI DUP1 PUSH4 0x8813CE12 EQ PUSH2 0x247 JUMPI DUP1 PUSH4 0xC58343EF EQ PUSH2 0x269 JUMPI DUP1 PUSH4 0xDFAD9565 EQ PUSH2 0x296 JUMPI DUP1 PUSH4 0xF1F15E4A EQ PUSH2 0x2AC JUMPI PUSH1 0x0 DUP1 REVERT JUMPDEST DUP1 PUSH4 0x5BADBE4C EQ PUSH2 0x1D0 JUMPI DUP1 PUSH4 0x6EF9E145 EQ PUSH2 0x1E5 JUMPI DUP1 PUSH4 0x81D12C58 EQ PUSH2 0x212 JUMPI PUSH1 0x0 DUP1 REVERT JUMPDEST DUP1 PUSH4 0x49875DB2 GT PUSH2 0xBB JUMPI DUP1 PUSH4 0x49875DB2 EQ PUSH2 0x15B JUMPI DUP1 PUSH4 0x4BA1F098 EQ PUSH2 0x17B JUMPI DUP1 PUSH4 0x540A6178 EQ PUSH2 0x190 JUMPI DUP1 PUSH4 0x54C7D906 EQ PUSH2 0x1B0 JUMPI PUSH1 0x0 DUP1 REVERT JUMPDEST DUP1 PUSH4 0x3F94DBD EQ PUSH2 0xE2 JUMPI DUP1 PUSH4 0xD45C199 EQ PUSH2 0x10B JUMPI DUP1 PUSH4 0x3015394C EQ PUSH2 0x13B JUMPI JUMPDEST PUSH1 0x0 DUP1 REVERT JUMPDEST CALLVALUE DUP1 ISZERO PUSH2 0xEE JUMPI PUSH1 0x0 DUP1 REVERT JUMPDEST POP PUSH2 0xF8 PUSH1 0x1 SLOAD DUP2 JUMP JUMPDEST PUSH1 0x40 MLOAD SWAP1 DUP2 MSTORE PUSH1 0x20 ADD JUMPDEST PUSH1 0x40 MLOAD DUP1 SWAP2 SUB SWAP1 RETURN JUMPDEST CALLVALUE DUP1 ISZERO PUSH2 0x117 JUMPI PUSH1 0x0 DUP1 REVERT JUMPDEST POP PUSH2 0x12B PUSH2 0x126 CALLDATASIZE PUSH1 0x4 PUSH2 0x1966 JUMP JUMPDEST PUSH2 0x2BF JUMP JUMPDEST PUSH1 0x40 MLOAD SWAP1 ISZERO ISZERO DUP2 MSTORE PUSH1 0x20 ADD PUSH2 0x102 JUMP JUMPDEST CALLVALUE DUP1 ISZERO PUSH2 0x147 JUMPI PUSH1 0x0 DUP1 REVERT JUMPDEST POP PUSH2 0x12B PUSH2 0x156 CALLDATASIZE PUSH1 0x4 PUSH2 0x1992 JUMP JUMPDEST PUSH2 0x3E4 JUMP JUMPDEST CALLVALUE DUP1 ISZERO PUSH2 0x167 JUMPI PUSH1 0x0 DUP1 REVERT JUMPDEST POP PUSH2 0x12B PUSH2 0x176 CALLDATASIZE PUSH1 0x4 PUSH2 0x19F4 JUMP JUMPDEST PUSH2 0x653 JUMP JUMPDEST PUSH2 0x18E PUSH2 0x189 CALLDATASIZE PUSH1 0x4 PUSH2 0x1992 JUMP JUMPDEST PUSH2 0x9C5 JUMP JUMPDEST STOP JUMPDEST CALLVALUE DUP1 ISZERO PUSH2 0x19C JUMPI PUSH1 0x0 DUP1 REVERT JUMPDEST POP PUSH2 0x18E PUSH2 0x1AB CALLDATASIZE PUSH1 0x4 PUSH2 0x1992 JUMP JUMPDEST PUSH2 0xD8B JUMP JUMPDEST CALLVALUE DUP1 ISZERO PUSH2 0x1BC JUMPI PUSH1 0x0 DUP1 REVERT JUMPDEST POP PUSH2 0x18E PUSH2 0x1CB CALLDATASIZE PUSH1 0x4 PUSH2 0x1992 JUMP JUMPDEST PUSH2 0xE7C JUMP JUMPDEST CALLVALUE DUP1 ISZERO PUSH2 0x1DC JUMPI PUSH1 0x0 DUP1 REVERT JUMPDEST POP PUSH1 0x3 SLOAD PUSH2 0xF8 JUMP JUMPDEST CALLVALUE DUP1 ISZERO PUSH2 0x1F1 JUMPI PUSH1 0x0 DUP1 REVERT JUMPDEST POP PUSH2 0xF8 PUSH2 0x200 CALLDATASIZE PUSH1 0x4 PUSH2 0x1A40 JUMP JUMPDEST PUSH1 0x0 PUSH1 0x20 DUP2 SWAP1 MSTORE SWAP1 DUP2 MSTORE PUSH1 0x40 SWAP1 KECCAK256 SLOAD DUP2 JUMP JUMPDEST CALLVALUE DUP1 ISZERO PUSH2 0x21E JUMPI PUSH1 0x0 DUP1 REVERT JUMPDEST POP PUSH2 0x232 PUSH2 0x22D CALLDATASIZE PUSH1 0x4 PUSH2 0x1992 JUMP JUMPDEST PUSH2 0x1146 JUMP JUMPDEST PUSH1 0x40 MLOAD PUSH2 0x102 SWAP10 SWAP9 SWAP8 SWAP7 SWAP6 SWAP5 SWAP4 SWAP3 SWAP2 SWAP1 PUSH2 0x1AA1 JUMP JUMPDEST CALLVALUE DUP1 ISZERO PUSH2 0x253 JUMPI PUSH1 0x0 DUP1 REVERT JUMPDEST POP PUSH2 0x25C PUSH2 0x12C6 JUMP JUMPDEST PUSH1 0x40 MLOAD PUSH2 0x102 SWAP2 SWAP1 PUSH2 0x1BC4 JUMP JUMPDEST CALLVALUE DUP1 ISZERO PUSH2 0x275 JUMPI PUSH1 0x0 DUP1 REVERT JUMPDEST POP PUSH2 0x289 PUSH2 0x284 CALLDATASIZE PUSH1 0x4 PUSH2 0x1992 JUMP JUMPDEST PUSH2 0x14A8 JUMP JUMPDEST PUSH1 0x40 MLOAD PUSH2 0x102 SWAP2 SWAP1 PUSH2 0x1C26 JUMP JUMPDEST CALLVALUE DUP1 ISZERO PUSH2 0x2A2 JUMPI PUSH1 0x0 DUP1 REVERT JUMPDEST POP PUSH2 0xF8 PUSH1 0x2 SLOAD DUP2 JUMP JUMPDEST PUSH2 0xF8 PUSH2 0x2BA CALLDATASIZE PUSH1 0x4 PUSH2 0x1C39 JUMP JUMPDEST PUSH2 0x16BF JUMP JUMPDEST CALLER PUSH1 0x0 SWAP1 DUP2 MSTORE PUSH1 0x20 DUP2 SWAP1 MSTORE PUSH1 0x40 DUP2 KECCAK256 SLOAD DUP4 GT ISZERO PUSH2 0x32D JUMPI PUSH1 0x40 MLOAD PUSH3 0x461BCD PUSH1 0xE5 SHL DUP2 MSTORE PUSH1 0x20 PUSH1 0x4 DUP3 ADD MSTORE PUSH1 0x21 PUSH1 0x24 DUP3 ADD MSTORE PUSH32 0x53656E64657220646F6573206E6F74206861766520656E6F7567682066756E64 PUSH1 0x44 DUP3 ADD MSTORE PUSH1 0x73 PUSH1 0xF8 SHL PUSH1 0x64 DUP3 ADD MSTORE PUSH1 0x84 ADD JUMPDEST PUSH1 0x40 MLOAD DUP1 SWAP2 SUB SWAP1 REVERT JUMPDEST CALLER PUSH1 0x0 SWAP1 DUP2 MSTORE PUSH1 0x20 DUP2 SWAP1 MSTORE PUSH1 0x40 DUP2 KECCAK256 DUP1 SLOAD DUP6 SWAP3 SWAP1 PUSH2 0x34C SWAP1 DUP5 SWAP1 PUSH2 0x1C9B JUMP JUMPDEST SWAP1 SWAP2 SSTORE POP POP PUSH1 0x40 MLOAD DUP3 SWAP1 PUSH1 0x0 SWAP1 PUSH1 0x1 PUSH1 0x1 PUSH1 0xA0 SHL SUB DUP4 AND SWAP1 DUP7 SWAP1 DUP4 DUP2 DUP2 DUP2 DUP6 DUP8 GAS CALL SWAP3 POP POP POP RETURNDATASIZE DUP1 PUSH1 0x0 DUP2 EQ PUSH2 0x39E JUMPI PUSH1 0x40 MLOAD SWAP2 POP PUSH1 0x1F NOT PUSH1 0x3F RETURNDATASIZE ADD AND DUP3 ADD PUSH1 0x40 MSTORE RETURNDATASIZE DUP3 MSTORE RETURNDATASIZE PUSH1 0x0 PUSH1 0x20 DUP5 ADD RETURNDATACOPY PUSH2 0x3A3 JUMP JUMPDEST PUSH1 0x60 SWAP2 POP JUMPDEST POP POP SWAP1 POP DUP1 PUSH2 0x3DA JUMPI PUSH1 0x1 PUSH1 0x1 PUSH1 0xA0 SHL SUB DUP5 AND PUSH1 0x0 SWAP1 DUP2 MSTORE PUSH1 0x20 DUP2 SWAP1 MSTORE PUSH1 0x40 DUP2 KECCAK256 DUP1 SLOAD DUP8 SWAP3 SWAP1 PUSH2 0x3D4 SWAP1 DUP5 SWAP1 PUSH2 0x1CAE JUMP JUMPDEST SWAP1 SWAP2 SSTORE POP POP JUMPDEST SWAP2 POP POP JUMPDEST SWAP3 SWAP2 POP POP JUMP JUMPDEST PUSH1 0x0 PUSH1 0x3 DUP3 DUP2 SLOAD DUP2 LT PUSH2 0x3F9 JUMPI PUSH2 0x3F9 PUSH2 0x1CC1 JUMP JUMPDEST PUSH1 0x0 SWAP2 DUP3 MSTORE PUSH1 0x20 SWAP1 SWAP2 KECCAK256 PUSH1 0x8 PUSH1 0x9 SWAP1 SWAP3 MUL ADD ADD SLOAD PUSH1 0xFF AND ISZERO PUSH2 0x455 JUMPI PUSH1 0x40 MLOAD PUSH3 0x461BCD PUSH1 0xE5 SHL DUP2 MSTORE PUSH1 0x20 PUSH1 0x4 DUP3 ADD MSTORE PUSH1 0x15 PUSH1 0x24 DUP3 ADD MSTORE PUSH21 0x151A19481C995C5D595CDD081A5CC818DB1BDCD959 PUSH1 0x5A SHL PUSH1 0x44 DUP3 ADD MSTORE PUSH1 0x64 ADD PUSH2 0x324 JUMP JUMPDEST PUSH1 0x3 DUP3 DUP2 SLOAD DUP2 LT PUSH2 0x468 JUMPI PUSH2 0x468 PUSH2 0x1CC1 JUMP JUMPDEST PUSH1 0x0 SWAP2 DUP3 MSTORE PUSH1 0x20 SWAP1 SWAP2 KECCAK256 PUSH1 0x9 SWAP1 SWAP2 MUL ADD PUSH1 0x4 ADD SLOAD PUSH1 0x1 PUSH1 0x1 PUSH1 0xA0 SHL SUB AND CALLER EQ PUSH2 0x4EE JUMPI PUSH1 0x40 MLOAD PUSH3 0x461BCD PUSH1 0xE5 SHL DUP2 MSTORE PUSH1 0x20 PUSH1 0x4 DUP3 ADD MSTORE PUSH1 0x32 PUSH1 0x24 DUP3 ADD MSTORE PUSH32 0x596F752063616E742063616E63656C2061207265717565737420746861742077 PUSH1 0x44 DUP3 ADD MSTORE PUSH18 0x6173206E6F74206D61646520627920796F75 PUSH1 0x70 SHL PUSH1 0x64 DUP3 ADD MSTORE PUSH1 0x84 ADD PUSH2 0x324 JUMP JUMPDEST PUSH1 0x0 PUSH1 0x1 PUSH1 0x1 PUSH1 0xA0 SHL SUB AND PUSH1 0x3 DUP4 DUP2 SLOAD DUP2 LT PUSH2 0x50C JUMPI PUSH2 0x50C PUSH2 0x1CC1 JUMP JUMPDEST PUSH1 0x0 SWAP2 DUP3 MSTORE PUSH1 0x20 SWAP1 SWAP2 KECCAK256 PUSH1 0x5 PUSH1 0x9 SWAP1 SWAP3 MUL ADD ADD SLOAD PUSH1 0x1 PUSH1 0x1 PUSH1 0xA0 SHL SUB AND EQ PUSH2 0x582 JUMPI PUSH1 0x40 MLOAD PUSH3 0x461BCD PUSH1 0xE5 SHL DUP2 MSTORE PUSH1 0x20 PUSH1 0x4 DUP3 ADD MSTORE PUSH1 0x23 PUSH1 0x24 DUP3 ADD MSTORE PUSH32 0x596F752063616E742063616E63656C20616E2061636365707465642072657175 PUSH1 0x44 DUP3 ADD MSTORE PUSH3 0x195CDD PUSH1 0xEA SHL PUSH1 0x64 DUP3 ADD MSTORE PUSH1 0x84 ADD PUSH2 0x324 JUMP JUMPDEST PUSH1 0x1 PUSH1 0x3 DUP4 DUP2 SLOAD DUP2 LT PUSH2 0x597 JUMPI PUSH2 0x597 PUSH2 0x1CC1 JUMP JUMPDEST PUSH1 0x0 SWAP2 DUP3 MSTORE PUSH1 0x20 SWAP2 DUP3 SWAP1 KECCAK256 PUSH1 0x9 SWAP2 SWAP1 SWAP2 MUL ADD PUSH1 0x8 ADD DUP1 SLOAD PUSH1 0xFF NOT AND SWAP3 ISZERO ISZERO SWAP3 SWAP1 SWAP3 OR SWAP1 SWAP2 SSTORE PUSH1 0x40 MLOAD DUP4 DUP2 MSTORE PUSH32 0x1523A7600668F21EFD095A2E4B78DC32DA863F11B5B54ED0043034AEEFD6442C SWAP2 ADD PUSH1 0x40 MLOAD DUP1 SWAP2 SUB SWAP1 LOG1 PUSH1 0x0 PUSH2 0x64C PUSH1 0x3 DUP5 DUP2 SLOAD DUP2 LT PUSH2 0x605 JUMPI PUSH2 0x605 PUSH2 0x1CC1 JUMP JUMPDEST SWAP1 PUSH1 0x0 MSTORE PUSH1 0x20 PUSH1 0x0 KECCAK256 SWAP1 PUSH1 0x9 MUL ADD PUSH1 0x2 ADD SLOAD PUSH1 0x3 DUP6 DUP2 SLOAD DUP2 LT PUSH2 0x62A JUMPI PUSH2 0x62A PUSH2 0x1CC1 JUMP JUMPDEST PUSH1 0x0 SWAP2 DUP3 MSTORE PUSH1 0x20 SWAP1 SWAP2 KECCAK256 PUSH1 0x4 PUSH1 0x9 SWAP1 SWAP3 MUL ADD ADD SLOAD PUSH1 0x1 PUSH1 0x1 PUSH1 0xA0 SHL SUB AND PUSH2 0x1919 JUMP JUMPDEST SWAP4 SWAP3 POP POP POP JUMP JUMPDEST PUSH1 0x0 PUSH1 0x3 DUP5 DUP2 SLOAD DUP2 LT PUSH2 0x668 JUMPI PUSH2 0x668 PUSH2 0x1CC1 JUMP JUMPDEST PUSH1 0x0 SWAP2 DUP3 MSTORE PUSH1 0x20 SWAP1 SWAP2 KECCAK256 PUSH1 0x9 SWAP1 SWAP2 MUL ADD PUSH1 0x4 ADD SLOAD PUSH1 0x1 PUSH1 0x1 PUSH1 0xA0 SHL SUB AND CALLER EQ PUSH2 0x6EA JUMPI PUSH1 0x40 MLOAD PUSH3 0x461BCD PUSH1 0xE5 SHL DUP2 MSTORE PUSH1 0x20 PUSH1 0x4 DUP3 ADD MSTORE PUSH1 0x2E PUSH1 0x24 DUP3 ADD MSTORE PUSH32 0x596F752063616E206F6E6C79207375626D697420726573756C7473207468726F PUSH1 0x44 DUP3 ADD MSTORE PUSH14 0x1D59DA081D1A194818DB1A595B9D PUSH1 0x92 SHL PUSH1 0x64 DUP3 ADD MSTORE PUSH1 0x84 ADD PUSH2 0x324 JUMP JUMPDEST PUSH1 0x3 DUP5 DUP2 SLOAD DUP2 LT PUSH2 0x6FD JUMPI PUSH2 0x6FD PUSH2 0x1CC1 JUMP JUMPDEST SWAP1 PUSH1 0x0 MSTORE PUSH1 0x20 PUSH1 0x0 KECCAK256 SWAP1 PUSH1 0x9 MUL ADD PUSH1 0x4 ADD PUSH1 0x0 SWAP1 SLOAD SWAP1 PUSH2 0x100 EXP SWAP1 DIV PUSH1 0x1 PUSH1 0x1 PUSH1 0xA0 SHL SUB AND PUSH1 0x1 PUSH1 0x1 PUSH1 0xA0 SHL SUB AND PUSH4 0xC91C7B37 PUSH1 0x3 DUP7 DUP2 SLOAD DUP2 LT PUSH2 0x743 JUMPI PUSH2 0x743 PUSH2 0x1CC1 JUMP JUMPDEST SWAP1 PUSH1 0x0 MSTORE PUSH1 0x20 PUSH1 0x0 KECCAK256 SWAP1 PUSH1 0x9 MUL ADD PUSH1 0x1 ADD DUP6 DUP6 PUSH1 0x40 MLOAD DUP5 PUSH4 0xFFFFFFFF AND PUSH1 0xE0 SHL DUP2 MSTORE PUSH1 0x4 ADD PUSH2 0x774 SWAP4 SWAP3 SWAP2 SWAP1 PUSH2 0x1D3A JUMP JUMPDEST PUSH1 0x20 PUSH1 0x40 MLOAD DUP1 DUP4 SUB DUP2 DUP7 GAS STATICCALL ISZERO DUP1 ISZERO PUSH2 0x791 JUMPI RETURNDATASIZE PUSH1 0x0 DUP1 RETURNDATACOPY RETURNDATASIZE PUSH1 0x0 REVERT JUMPDEST POP POP POP POP PUSH1 0x40 MLOAD RETURNDATASIZE PUSH1 0x1F NOT PUSH1 0x1F DUP3 ADD AND DUP3 ADD DUP1 PUSH1 0x40 MSTORE POP DUP2 ADD SWAP1 PUSH2 0x7B5 SWAP2 SWAP1 PUSH2 0x1DDB JUMP JUMPDEST ISZERO PUSH2 0x8AF JUMPI DUP3 DUP3 PUSH1 0x3 DUP7 DUP2 SLOAD DUP2 LT PUSH2 0x7CF JUMPI PUSH2 0x7CF PUSH2 0x1CC1 JUMP JUMPDEST SWAP1 PUSH1 0x0 MSTORE PUSH1 0x20 PUSH1 0x0 KECCAK256 SWAP1 PUSH1 0x9 MUL ADD PUSH1 0x7 ADD SWAP2 DUP3 PUSH2 0x7ED SWAP3 SWAP2 SWAP1 PUSH2 0x1E61 JUMP JUMPDEST POP PUSH1 0x1 PUSH1 0x3 DUP6 DUP2 SLOAD DUP2 LT PUSH2 0x803 JUMPI PUSH2 0x803 PUSH2 0x1CC1 JUMP JUMPDEST PUSH1 0x0 SWAP2 DUP3 MSTORE PUSH1 0x20 DUP3 KECCAK256 PUSH1 0x9 SWAP2 SWAP1 SWAP2 MUL ADD PUSH1 0x8 ADD DUP1 SLOAD PUSH1 0xFF NOT AND SWAP3 ISZERO ISZERO SWAP3 SWAP1 SWAP3 OR SWAP1 SWAP2 SSTORE PUSH1 0x2 SLOAD PUSH1 0x3 DUP1 SLOAD DUP8 SWAP1 DUP2 LT PUSH2 0x83D JUMPI PUSH2 0x83D PUSH2 0x1CC1 JUMP JUMPDEST SWAP1 PUSH1 0x0 MSTORE PUSH1 0x20 PUSH1 0x0 KECCAK256 SWAP1 PUSH1 0x9 MUL ADD PUSH1 0x2 ADD SLOAD PUSH2 0x859 SWAP2 SWAP1 PUSH2 0x1CAE JUMP JUMPDEST SWAP1 POP PUSH1 0x0 PUSH2 0x867 DUP3 CALLER PUSH2 0x1919 JUMP JUMPDEST PUSH1 0x40 DUP1 MLOAD DUP9 DUP2 MSTORE DUP3 ISZERO ISZERO PUSH1 0x20 DUP3 ADD MSTORE SWAP2 SWAP3 POP PUSH32 0x3A9D74378077C9F5B32FC00FEDF52E35E392CD3621EEF9E4038D12634DF5DD58 SWAP2 ADD PUSH1 0x40 MLOAD DUP1 SWAP2 SUB SWAP1 LOG1 PUSH1 0x1 SWAP3 POP POP POP PUSH2 0x64C JUMP JUMPDEST PUSH1 0x0 PUSH1 0x3 DUP6 DUP2 SLOAD DUP2 LT PUSH2 0x8C4 JUMPI PUSH2 0x8C4 PUSH2 0x1CC1 JUMP JUMPDEST SWAP1 PUSH1 0x0 MSTORE PUSH1 0x20 PUSH1 0x0 KECCAK256 SWAP1 PUSH1 0x9 MUL ADD PUSH1 0x5 ADD PUSH1 0x0 PUSH2 0x100 EXP DUP2 SLOAD DUP2 PUSH1 0x1 PUSH1 0x1 PUSH1 0xA0 SHL SUB MUL NOT AND SWAP1 DUP4 PUSH1 0x1 PUSH1 0x1 PUSH1 0xA0 SHL SUB AND MUL OR SWAP1 SSTORE POP PUSH1 0x0 PUSH2 0x91F PUSH1 0x64 PUSH1 0x2 SLOAD PUSH1 0x5F PUSH2 0x90F SWAP2 SWAP1 PUSH2 0x1F22 JUMP JUMPDEST PUSH2 0x919 SWAP2 SWAP1 PUSH2 0x1F39 JUMP JUMPDEST CALLER PUSH2 0x1919 JUMP JUMPDEST SWAP1 POP PUSH32 0x8D2C03FCA17B18F205938C2E2849AEC3A5EADD9CA5DE6D1D82D4A561C556759D DUP6 PUSH1 0x3 DUP8 DUP2 SLOAD DUP2 LT PUSH2 0x956 JUMPI PUSH2 0x956 PUSH2 0x1CC1 JUMP JUMPDEST PUSH1 0x0 SWAP2 DUP3 MSTORE PUSH1 0x20 SWAP2 DUP3 SWAP1 KECCAK256 PUSH1 0x2 PUSH1 0x9 SWAP1 SWAP3 MUL ADD ADD SLOAD PUSH1 0x40 DUP1 MLOAD SWAP4 DUP5 MSTORE SWAP2 DUP4 ADD MSTORE DUP4 ISZERO ISZERO SWAP1 DUP3 ADD MSTORE PUSH1 0x60 ADD PUSH1 0x40 MLOAD DUP1 SWAP2 SUB SWAP1 LOG1 PUSH2 0x9B9 PUSH1 0x64 PUSH1 0x2 SLOAD PUSH1 0x5 PUSH2 0x99C SWAP2 SWAP1 PUSH2 0x1F22 JUMP JUMPDEST PUSH2 0x9A6 SWAP2 SWAP1 PUSH2 0x1F39 JUMP JUMPDEST PUSH1 0x3 DUP8 DUP2 SLOAD DUP2 LT PUSH2 0x62A JUMPI PUSH2 0x62A PUSH2 0x1CC1 JUMP JUMPDEST POP PUSH1 0x0 SWAP6 SWAP5 POP POP POP POP POP JUMP JUMPDEST PUSH1 0x3 DUP2 DUP2 SLOAD DUP2 LT PUSH2 0x9D8 JUMPI PUSH2 0x9D8 PUSH2 0x1CC1 JUMP JUMPDEST PUSH1 0x0 SWAP2 DUP3 MSTORE PUSH1 0x20 SWAP1 SWAP2 KECCAK256 PUSH1 0x8 PUSH1 0x9 SWAP1 SWAP3 MUL ADD ADD SLOAD PUSH1 0xFF AND ISZERO PUSH2 0xA34 JUMPI PUSH1 0x40 MLOAD PUSH3 0x461BCD PUSH1 0xE5 SHL DUP2 MSTORE PUSH1 0x20 PUSH1 0x4 DUP3 ADD MSTORE PUSH1 0x15 PUSH1 0x24 DUP3 ADD MSTORE PUSH21 0x151A19481C995C5D595CDD081A5CC818DB1BDCD959 PUSH1 0x5A SHL PUSH1 0x44 DUP3 ADD MSTORE PUSH1 0x64 ADD PUSH2 0x324 JUMP JUMPDEST CALLER PUSH1 0x1 PUSH1 0x1 PUSH1 0xA0 SHL SUB AND PUSH1 0x3 DUP3 DUP2 SLOAD DUP2 LT PUSH2 0xA51 JUMPI PUSH2 0xA51 PUSH2 0x1CC1 JUMP JUMPDEST PUSH1 0x0 SWAP2 DUP3 MSTORE PUSH1 0x20 SWAP1 SWAP2 KECCAK256 PUSH1 0x5 PUSH1 0x9 SWAP1 SWAP3 MUL ADD ADD SLOAD PUSH1 0x1 PUSH1 0x1 PUSH1 0xA0 SHL SUB AND SUB PUSH2 0xACB JUMPI PUSH1 0x40 MLOAD PUSH3 0x461BCD PUSH1 0xE5 SHL DUP2 MSTORE PUSH1 0x20 PUSH1 0x4 DUP3 ADD MSTORE PUSH1 0x27 PUSH1 0x24 DUP3 ADD MSTORE PUSH32 0x54686973207265717565737420697320616C7265616479206163636570746564 PUSH1 0x44 DUP3 ADD MSTORE PUSH7 0x20627920796F75 PUSH1 0xC8 SHL PUSH1 0x64 DUP3 ADD MSTORE PUSH1 0x84 ADD PUSH2 0x324 JUMP JUMPDEST PUSH1 0x0 PUSH1 0x1 PUSH1 0x1 PUSH1 0xA0 SHL SUB AND PUSH1 0x3 DUP3 DUP2 SLOAD DUP2 LT PUSH2 0xAE9 JUMPI PUSH2 0xAE9 PUSH2 0x1CC1 JUMP JUMPDEST PUSH1 0x0 SWAP2 DUP3 MSTORE PUSH1 0x20 SWAP1 SWAP2 KECCAK256 PUSH1 0x5 PUSH1 0x9 SWAP1 SWAP3 MUL ADD ADD SLOAD PUSH1 0x1 PUSH1 0x1 PUSH1 0xA0 SHL SUB AND EQ DUP1 PUSH2 0xB42 JUMPI POP TIMESTAMP PUSH1 0x1 SLOAD PUSH1 0x3 DUP4 DUP2 SLOAD DUP2 LT PUSH2 0xB24 JUMPI PUSH2 0xB24 PUSH2 0x1CC1 JUMP JUMPDEST SWAP1 PUSH1 0x0 MSTORE PUSH1 0x20 PUSH1 0x0 KECCAK256 SWAP1 PUSH1 0x9 MUL ADD PUSH1 0x6 ADD SLOAD PUSH2 0xB40 SWAP2 SWAP1 PUSH2 0x1CAE JUMP JUMPDEST LT JUMPDEST PUSH2 0xBA8 JUMPI PUSH1 0x40 MLOAD PUSH3 0x461BCD PUSH1 0xE5 SHL DUP2 MSTORE PUSH1 0x20 PUSH1 0x4 DUP3 ADD MSTORE PUSH1 0x31 PUSH1 0x24 DUP3 ADD MSTORE PUSH32 0x546865726520697320616E20756E6578706972656420616363657074616E6365 PUSH1 0x44 DUP3 ADD MSTORE PUSH17 0x8199BDC881D1A1A5CC81C995C5D595CDD PUSH1 0x7A SHL PUSH1 0x64 DUP3 ADD MSTORE PUSH1 0x84 ADD PUSH2 0x324 JUMP JUMPDEST PUSH1 0x2 SLOAD CALLVALUE EQ PUSH2 0xC04 JUMPI PUSH1 0x40 MLOAD PUSH3 0x461BCD PUSH1 0xE5 SHL DUP2 MSTORE PUSH1 0x20 PUSH1 0x4 DUP3 ADD MSTORE PUSH1 0x22 PUSH1 0x24 DUP3 ADD MSTORE PUSH32 0x496E636F727265637420616D6F756E74206F66207374616B652070726F766964 PUSH1 0x44 DUP3 ADD MSTORE PUSH2 0x1959 PUSH1 0xF2 SHL PUSH1 0x64 DUP3 ADD MSTORE PUSH1 0x84 ADD PUSH2 0x324 JUMP JUMPDEST PUSH1 0x0 PUSH1 0x1 PUSH1 0x1 PUSH1 0xA0 SHL SUB AND PUSH1 0x3 DUP3 DUP2 SLOAD DUP2 LT PUSH2 0xC22 JUMPI PUSH2 0xC22 PUSH2 0x1CC1 JUMP JUMPDEST PUSH1 0x0 SWAP2 DUP3 MSTORE PUSH1 0x20 SWAP1 SWAP2 KECCAK256 PUSH1 0x5 PUSH1 0x9 SWAP1 SWAP3 MUL ADD ADD SLOAD PUSH1 0x1 PUSH1 0x1 PUSH1 0xA0 SHL SUB AND EQ PUSH2 0xCCB JUMPI PUSH2 0xC97 PUSH1 0x64 PUSH1 0x2 SLOAD PUSH1 0x5F PUSH2 0xC58 SWAP2 SWAP1 PUSH2 0x1F22 JUMP JUMPDEST PUSH2 0xC62 SWAP2 SWAP1 PUSH2 0x1F39 JUMP JUMPDEST PUSH1 0x3 DUP4 DUP2 SLOAD DUP2 LT PUSH2 0xC75 JUMPI PUSH2 0xC75 PUSH2 0x1CC1 JUMP JUMPDEST PUSH1 0x0 SWAP2 DUP3 MSTORE PUSH1 0x20 SWAP1 SWAP2 KECCAK256 PUSH1 0x5 PUSH1 0x9 SWAP1 SWAP3 MUL ADD ADD SLOAD PUSH1 0x1 PUSH1 0x1 PUSH1 0xA0 SHL SUB AND PUSH2 0x1919 JUMP JUMPDEST POP PUSH2 0xCC9 PUSH1 0x64 PUSH1 0x2 SLOAD PUSH1 0x5 PUSH2 0xCAC SWAP2 SWAP1 PUSH2 0x1F22 JUMP JUMPDEST PUSH2 0xCB6 SWAP2 SWAP1 PUSH2 0x1F39 JUMP JUMPDEST PUSH1 0x3 DUP4 DUP2 SLOAD DUP2 LT PUSH2 0x62A JUMPI PUSH2 0x62A PUSH2 0x1CC1 JUMP JUMPDEST POP JUMPDEST CALLER PUSH1 0x3 DUP3 DUP2 SLOAD DUP2 LT PUSH2 0xCDF JUMPI PUSH2 0xCDF PUSH2 0x1CC1 JUMP JUMPDEST SWAP1 PUSH1 0x0 MSTORE PUSH1 0x20 PUSH1 0x0 KECCAK256 SWAP1 PUSH1 0x9 MUL ADD PUSH1 0x5 ADD PUSH1 0x0 PUSH2 0x100 EXP DUP2 SLOAD DUP2 PUSH1 0x1 PUSH1 0x1 PUSH1 0xA0 SHL SUB MUL NOT AND SWAP1 DUP4 PUSH1 0x1 PUSH1 0x1 PUSH1 0xA0 SHL SUB AND MUL OR SWAP1 SSTORE POP TIMESTAMP PUSH1 0x3 DUP3 DUP2 SLOAD DUP2 LT PUSH2 0xD28 JUMPI PUSH2 0xD28 PUSH2 0x1CC1 JUMP JUMPDEST SWAP1 PUSH1 0x0 MSTORE PUSH1 0x20 PUSH1 0x0 KECCAK256 SWAP1 PUSH1 0x9 MUL ADD PUSH1 0x6 ADD DUP2 SWAP1 SSTORE POP PUSH32 0x8F298FD72DBD217FB0A6D75EBB7814F41823B563772413DB23636B1600A0ACA DUP2 CALLER PUSH1 0x40 MLOAD PUSH2 0xD80 SWAP3 SWAP2 SWAP1 SWAP2 DUP3 MSTORE PUSH1 0x1 PUSH1 0x1 PUSH1 0xA0 SHL SUB AND PUSH1 0x20 DUP3 ADD MSTORE PUSH1 0x40 ADD SWAP1 JUMP JUMPDEST PUSH1 0x40 MLOAD DUP1 SWAP2 SUB SWAP1 LOG1 POP JUMP JUMPDEST PUSH1 0x0 PUSH1 0x1 PUSH1 0x1 PUSH1 0xA0 SHL SUB AND PUSH1 0x3 DUP3 DUP2 SLOAD DUP2 LT PUSH2 0xDA9 JUMPI PUSH2 0xDA9 PUSH2 0x1CC1 JUMP JUMPDEST PUSH1 0x0 SWAP2 DUP3 MSTORE PUSH1 0x20 SWAP1 SWAP2 KECCAK256 PUSH1 0x5 PUSH1 0x9 SWAP1 SWAP3 MUL ADD ADD SLOAD PUSH1 0x1 PUSH1 0x1 PUSH1 0xA0 SHL SUB AND EQ PUSH2 0xE1E JUMPI PUSH1 0x40 MLOAD PUSH3 0x461BCD PUSH1 0xE5 SHL DUP2 MSTORE PUSH1 0x20 PUSH1 0x4 DUP3 ADD MSTORE PUSH1 0x22 PUSH1 0x24 DUP3 ADD MSTORE PUSH32 0x596F752063616E74207075626C6963697A6520612074616B656E207265717565 PUSH1 0x44 DUP3 ADD MSTORE PUSH2 0x1CDD PUSH1 0xF2 SHL PUSH1 0x64 DUP3 ADD MSTORE PUSH1 0x84 ADD PUSH2 0x324 JUMP JUMPDEST PUSH32 0x179928CDD6B95A06E7B333F9371E3B93A5421DC0A2D8C7039619E7BC1C433EEB DUP2 PUSH1 0x3 DUP4 DUP2 SLOAD DUP2 LT PUSH2 0xE53 JUMPI PUSH2 0xE53 PUSH2 0x1CC1 JUMP JUMPDEST SWAP1 PUSH1 0x0 MSTORE PUSH1 0x20 PUSH1 0x0 KECCAK256 SWAP1 PUSH1 0x9 MUL ADD PUSH1 0x2 ADD SLOAD PUSH1 0x40 MLOAD PUSH2 0xD80 SWAP3 SWAP2 SWAP1 SWAP2 DUP3 MSTORE PUSH1 0x20 DUP3 ADD MSTORE PUSH1 0x40 ADD SWAP1 JUMP JUMPDEST PUSH1 0x0 PUSH1 0x1 PUSH1 0x1 PUSH1 0xA0 SHL SUB AND PUSH1 0x3 DUP3 DUP2 SLOAD DUP2 LT PUSH2 0xE9A JUMPI PUSH2 0xE9A PUSH2 0x1CC1 JUMP JUMPDEST PUSH1 0x0 SWAP2 DUP3 MSTORE PUSH1 0x20 SWAP1 SWAP2 KECCAK256 PUSH1 0x5 PUSH1 0x9 SWAP1 SWAP3 MUL ADD ADD SLOAD PUSH1 0x1 PUSH1 0x1 PUSH1 0xA0 SHL SUB AND SUB PUSH2 0xF1C JUMPI PUSH1 0x40 MLOAD PUSH3 0x461BCD PUSH1 0xE5 SHL DUP2 MSTORE PUSH1 0x20 PUSH1 0x4 DUP3 ADD MSTORE PUSH1 0x2F PUSH1 0x24 DUP3 ADD MSTORE PUSH32 0x5468657265206973206E6F206163636570746F7220666F72207468652070726F PUSH1 0x44 DUP3 ADD MSTORE PUSH15 0x1D9A591959081C995C5D595CDD1251 PUSH1 0x8A SHL PUSH1 0x64 DUP3 ADD MSTORE PUSH1 0x84 ADD PUSH2 0x324 JUMP JUMPDEST PUSH1 0x3 DUP2 DUP2 SLOAD DUP2 LT PUSH2 0xF2F JUMPI PUSH2 0xF2F PUSH2 0x1CC1 JUMP JUMPDEST PUSH1 0x0 SWAP2 DUP3 MSTORE PUSH1 0x20 SWAP1 SWAP2 KECCAK256 PUSH1 0x8 PUSH1 0x9 SWAP1 SWAP3 MUL ADD ADD SLOAD PUSH1 0xFF AND ISZERO PUSH2 0xF8C JUMPI PUSH1 0x40 MLOAD PUSH3 0x461BCD PUSH1 0xE5 SHL DUP2 MSTORE PUSH1 0x20 PUSH1 0x4 DUP3 ADD MSTORE PUSH1 0x16 PUSH1 0x24 DUP3 ADD MSTORE PUSH22 0x151A1A5CC81C995C5D595CDD081A5CC818DB1BDCD959 PUSH1 0x52 SHL PUSH1 0x44 DUP3 ADD MSTORE PUSH1 0x64 ADD PUSH2 0x324 JUMP JUMPDEST CALLER PUSH1 0x1 PUSH1 0x1 PUSH1 0xA0 SHL SUB AND PUSH1 0x3 DUP3 DUP2 SLOAD DUP2 LT PUSH2 0xFA9 JUMPI PUSH2 0xFA9 PUSH2 0x1CC1 JUMP JUMPDEST PUSH1 0x0 SWAP2 DUP3 MSTORE PUSH1 0x20 SWAP1 SWAP2 KECCAK256 PUSH1 0x5 PUSH1 0x9 SWAP1 SWAP3 MUL ADD ADD SLOAD PUSH1 0x1 PUSH1 0x1 PUSH1 0xA0 SHL SUB AND EQ PUSH2 0x1039 JUMPI PUSH1 0x40 MLOAD PUSH3 0x461BCD PUSH1 0xE5 SHL DUP2 MSTORE PUSH1 0x20 PUSH1 0x4 DUP3 ADD MSTORE PUSH1 0x39 PUSH1 0x24 DUP3 ADD MSTORE PUSH32 0x596F752063616E742063616E63656C20616E20616363657074616E6365207468 PUSH1 0x44 DUP3 ADD MSTORE PUSH32 0x617420646F6573206E6F742062656C6F6E6720746F20796F7500000000000000 PUSH1 0x64 DUP3 ADD MSTORE PUSH1 0x84 ADD PUSH2 0x324 JUMP JUMPDEST PUSH1 0x0 PUSH1 0x3 DUP3 DUP2 SLOAD DUP2 LT PUSH2 0x104E JUMPI PUSH2 0x104E PUSH2 0x1CC1 JUMP JUMPDEST SWAP1 PUSH1 0x0 MSTORE PUSH1 0x20 PUSH1 0x0 KECCAK256 SWAP1 PUSH1 0x9 MUL ADD PUSH1 0x5 ADD PUSH1 0x0 PUSH2 0x100 EXP DUP2 SLOAD DUP2 PUSH1 0x1 PUSH1 0x1 PUSH1 0xA0 SHL SUB MUL NOT AND SWAP1 DUP4 PUSH1 0x1 PUSH1 0x1 PUSH1 0xA0 SHL SUB AND MUL OR SWAP1 SSTORE POP PUSH1 0x0 PUSH2 0x1099 PUSH1 0x64 PUSH1 0x2 SLOAD PUSH1 0x5F PUSH2 0x90F SWAP2 SWAP1 PUSH2 0x1F22 JUMP JUMPDEST SWAP1 POP PUSH32 0x233AEBE1D7C90B97E1FE6CE1E226CCA4FEEE120BC312447D954C577A9E2255E4 DUP3 PUSH1 0x3 DUP5 DUP2 SLOAD DUP2 LT PUSH2 0x10D0 JUMPI PUSH2 0x10D0 PUSH2 0x1CC1 JUMP JUMPDEST PUSH1 0x0 SWAP2 DUP3 MSTORE PUSH1 0x20 SWAP2 DUP3 SWAP1 KECCAK256 PUSH1 0x9 SWAP1 SWAP2 MUL ADD PUSH1 0x5 ADD SLOAD PUSH1 0x40 DUP1 MLOAD SWAP4 DUP5 MSTORE PUSH1 0x1 PUSH1 0x1 PUSH1 0xA0 SHL SUB SWAP1 SWAP2 AND SWAP2 DUP4 ADD SWAP2 SWAP1 SWAP2 MSTORE DUP4 ISZERO ISZERO SWAP1 DUP3 ADD MSTORE PUSH1 0x60 ADD PUSH1 0x40 MLOAD DUP1 SWAP2 SUB SWAP1 LOG1 PUSH2 0x1141 PUSH1 0x64 PUSH1 0x2 SLOAD PUSH1 0x5 PUSH2 0x1124 SWAP2 SWAP1 PUSH2 0x1F22 JUMP JUMPDEST PUSH2 0x112E SWAP2 SWAP1 PUSH2 0x1F39 JUMP JUMPDEST PUSH1 0x3 DUP5 DUP2 SLOAD DUP2 LT PUSH2 0x62A JUMPI PUSH2 0x62A PUSH2 0x1CC1 JUMP JUMPDEST POP POP POP JUMP JUMPDEST PUSH1 0x3 DUP2 DUP2 SLOAD DUP2 LT PUSH2 0x1156 JUMPI PUSH1 0x0 DUP1 REVERT JUMPDEST PUSH1 0x0 SWAP2 DUP3 MSTORE PUSH1 0x20 SWAP1 SWAP2 KECCAK256 PUSH1 0x9 SWAP1 SWAP2 MUL ADD DUP1 SLOAD PUSH1 0x1 DUP3 ADD DUP1 SLOAD SWAP2 SWAP4 POP SWAP1 PUSH2 0x117B SWAP1 PUSH2 0x1CD7 JUMP JUMPDEST DUP1 PUSH1 0x1F ADD PUSH1 0x20 DUP1 SWAP2 DIV MUL PUSH1 0x20 ADD PUSH1 0x40 MLOAD SWAP1 DUP2 ADD PUSH1 0x40 MSTORE DUP1 SWAP3 SWAP2 SWAP1 DUP2 DUP2 MSTORE PUSH1 0x20 ADD DUP3 DUP1 SLOAD PUSH2 0x11A7 SWAP1 PUSH2 0x1CD7 JUMP JUMPDEST DUP1 ISZERO PUSH2 0x11F4 JUMPI DUP1 PUSH1 0x1F LT PUSH2 0x11C9 JUMPI PUSH2 0x100 DUP1 DUP4 SLOAD DIV MUL DUP4 MSTORE SWAP2 PUSH1 0x20 ADD SWAP2 PUSH2 0x11F4 JUMP JUMPDEST DUP3 ADD SWAP2 SWAP1 PUSH1 0x0 MSTORE PUSH1 0x20 PUSH1 0x0 KECCAK256 SWAP1 JUMPDEST DUP2 SLOAD DUP2 MSTORE SWAP1 PUSH1 0x1 ADD SWAP1 PUSH1 0x20 ADD DUP1 DUP4 GT PUSH2 0x11D7 JUMPI DUP3 SWAP1 SUB PUSH1 0x1F AND DUP3 ADD SWAP2 JUMPDEST POP POP POP PUSH1 0x2 DUP5 ADD SLOAD PUSH1 0x3 DUP6 ADD SLOAD PUSH1 0x4 DUP7 ADD SLOAD PUSH1 0x5 DUP8 ADD SLOAD PUSH1 0x6 DUP9 ADD SLOAD PUSH1 0x7 DUP10 ADD DUP1 SLOAD SWAP9 SWAP10 SWAP6 SWAP9 SWAP5 SWAP8 POP PUSH1 0x1 PUSH1 0x1 PUSH1 0xA0 SHL SUB SWAP4 DUP5 AND SWAP7 POP SWAP2 SWAP1 SWAP3 AND SWAP4 SWAP2 SWAP3 PUSH2 0x123A SWAP1 PUSH2 0x1CD7 JUMP JUMPDEST DUP1 PUSH1 0x1F ADD PUSH1 0x20 DUP1 SWAP2 DIV MUL PUSH1 0x20 ADD PUSH1 0x40 MLOAD SWAP1 DUP2 ADD PUSH1 0x40 MSTORE DUP1 SWAP3 SWAP2 SWAP1 DUP2 DUP2 MSTORE PUSH1 0x20 ADD DUP3 DUP1 SLOAD PUSH2 0x1266 SWAP1 PUSH2 0x1CD7 JUMP JUMPDEST DUP1 ISZERO PUSH2 0x12B3 JUMPI DUP1 PUSH1 0x1F LT PUSH2 0x1288 JUMPI PUSH2 0x100 DUP1 DUP4 SLOAD DIV MUL DUP4 MSTORE SWAP2 PUSH1 0x20 ADD SWAP2 PUSH2 0x12B3 JUMP JUMPDEST DUP3 ADD SWAP2 SWAP1 PUSH1 0x0 MSTORE PUSH1 0x20 PUSH1 0x0 KECCAK256 SWAP1 JUMPDEST DUP2 SLOAD DUP2 MSTORE SWAP1 PUSH1 0x1 ADD SWAP1 PUSH1 0x20 ADD DUP1 DUP4 GT PUSH2 0x1296 JUMPI DUP3 SWAP1 SUB PUSH1 0x1F AND DUP3 ADD SWAP2 JUMPDEST POP POP POP PUSH1 0x8 SWAP1 SWAP4 ADD SLOAD SWAP2 SWAP3 POP POP PUSH1 0xFF AND DUP10 JUMP JUMPDEST PUSH1 0x60 PUSH1 0x3 DUP1 SLOAD DUP1 PUSH1 0x20 MUL PUSH1 0x20 ADD PUSH1 0x40 MLOAD SWAP1 DUP2 ADD PUSH1 0x40 MSTORE DUP1 SWAP3 SWAP2 SWAP1 DUP2 DUP2 MSTORE PUSH1 0x20 ADD PUSH1 0x0 SWAP1 JUMPDEST DUP3 DUP3 LT ISZERO PUSH2 0x149F JUMPI DUP4 DUP3 SWAP1 PUSH1 0x0 MSTORE PUSH1 0x20 PUSH1 0x0 KECCAK256 SWAP1 PUSH1 0x9 MUL ADD PUSH1 0x40 MLOAD DUP1 PUSH2 0x120 ADD PUSH1 0x40 MSTORE SWAP1 DUP2 PUSH1 0x0 DUP3 ADD SLOAD DUP2 MSTORE PUSH1 0x20 ADD PUSH1 0x1 DUP3 ADD DUP1 SLOAD PUSH2 0x1328 SWAP1 PUSH2 0x1CD7 JUMP JUMPDEST DUP1 PUSH1 0x1F ADD PUSH1 0x20 DUP1 SWAP2 DIV MUL PUSH1 0x20 ADD PUSH1 0x40 MLOAD SWAP1 DUP2 ADD PUSH1 0x40 MSTORE DUP1 SWAP3 SWAP2 SWAP1 DUP2 DUP2 MSTORE PUSH1 0x20 ADD DUP3 DUP1 SLOAD PUSH2 0x1354 SWAP1 PUSH2 0x1CD7 JUMP JUMPDEST DUP1 ISZERO PUSH2 0x13A1 JUMPI DUP1 PUSH1 0x1F LT PUSH2 0x1376 JUMPI PUSH2 0x100 DUP1 DUP4 SLOAD DIV MUL DUP4 MSTORE SWAP2 PUSH1 0x20 ADD SWAP2 PUSH2 0x13A1 JUMP JUMPDEST DUP3 ADD SWAP2 SWAP1 PUSH1 0x0 MSTORE PUSH1 0x20 PUSH1 0x0 KECCAK256 SWAP1 JUMPDEST DUP2 SLOAD DUP2 MSTORE SWAP1 PUSH1 0x1 ADD SWAP1 PUSH1 0x20 ADD DUP1 DUP4 GT PUSH2 0x1384 JUMPI DUP3 SWAP1 SUB PUSH1 0x1F AND DUP3 ADD SWAP2 JUMPDEST POP POP POP SWAP2 DUP4 MSTORE POP POP PUSH1 0x2 DUP3 ADD SLOAD PUSH1 0x20 DUP3 ADD MSTORE PUSH1 0x3 DUP3 ADD SLOAD PUSH1 0x40 DUP3 ADD MSTORE PUSH1 0x4 DUP3 ADD SLOAD PUSH1 0x1 PUSH1 0x1 PUSH1 0xA0 SHL SUB SWAP1 DUP2 AND PUSH1 0x60 DUP4 ADD MSTORE PUSH1 0x5 DUP4 ADD SLOAD AND PUSH1 0x80 DUP3 ADD MSTORE PUSH1 0x6 DUP3 ADD SLOAD PUSH1 0xA0 DUP3 ADD MSTORE PUSH1 0x7 DUP3 ADD DUP1 SLOAD PUSH1 0xC0 SWAP1 SWAP3 ADD SWAP2 PUSH2 0x13FC SWAP1 PUSH2 0x1CD7 JUMP JUMPDEST DUP1 PUSH1 0x1F ADD PUSH1 0x20 DUP1 SWAP2 DIV MUL PUSH1 0x20 ADD PUSH1 0x40 MLOAD SWAP1 DUP2 ADD PUSH1 0x40 MSTORE DUP1 SWAP3 SWAP2 SWAP1 DUP2 DUP2 MSTORE PUSH1 0x20 ADD DUP3 DUP1 SLOAD PUSH2 0x1428 SWAP1 PUSH2 0x1CD7 JUMP JUMPDEST DUP1 ISZERO PUSH2 0x1475 JUMPI DUP1 PUSH1 0x1F LT PUSH2 0x144A JUMPI PUSH2 0x100 DUP1 DUP4 SLOAD DIV MUL DUP4 MSTORE SWAP2 PUSH1 0x20 ADD SWAP2 PUSH2 0x1475 JUMP JUMPDEST DUP3 ADD SWAP2 SWAP1 PUSH1 0x0 MSTORE PUSH1 0x20 PUSH1 0x0 KECCAK256 SWAP1 JUMPDEST DUP2 SLOAD DUP2 MSTORE SWAP1 PUSH1 0x1 ADD SWAP1 PUSH1 0x20 ADD DUP1 DUP4 GT PUSH2 0x1458 JUMPI DUP3 SWAP1 SUB PUSH1 0x1F AND DUP3 ADD SWAP2 JUMPDEST POP POP POP SWAP2 DUP4 MSTORE POP POP PUSH1 0x8 SWAP2 SWAP1 SWAP2 ADD SLOAD PUSH1 0xFF AND ISZERO ISZERO PUSH1 0x20 SWAP2 DUP3 ADD MSTORE SWAP1 DUP3 MSTORE PUSH1 0x1 SWAP3 SWAP1 SWAP3 ADD SWAP2 ADD PUSH2 0x12EA JUMP JUMPDEST POP POP POP POP SWAP1 POP SWAP1 JUMP JUMPDEST PUSH2 0x150B PUSH1 0x40 MLOAD DUP1 PUSH2 0x120 ADD PUSH1 0x40 MSTORE DUP1 PUSH1 0x0 DUP2 MSTORE PUSH1 0x20 ADD PUSH1 0x60 DUP2 MSTORE PUSH1 0x20 ADD PUSH1 0x0 DUP2 MSTORE PUSH1 0x20 ADD PUSH1 0x0 DUP2 MSTORE PUSH1 0x20 ADD PUSH1 0x0 PUSH1 0x1 PUSH1 0x1 PUSH1 0xA0 SHL SUB AND DUP2 MSTORE PUSH1 0x20 ADD PUSH1 0x0 PUSH1 0x1 PUSH1 0x1 PUSH1 0xA0 SHL SUB AND DUP2 MSTORE PUSH1 0x20 ADD PUSH1 0x0 DUP2 MSTORE PUSH1 0x20 ADD PUSH1 0x60 DUP2 MSTORE PUSH1 0x20 ADD PUSH1 0x0 ISZERO ISZERO DUP2 MSTORE POP SWAP1 JUMP JUMPDEST PUSH1 0x3 DUP3 DUP2 SLOAD DUP2 LT PUSH2 0x151E JUMPI PUSH2 0x151E PUSH2 0x1CC1 JUMP JUMPDEST SWAP1 PUSH1 0x0 MSTORE PUSH1 0x20 PUSH1 0x0 KECCAK256 SWAP1 PUSH1 0x9 MUL ADD PUSH1 0x40 MLOAD DUP1 PUSH2 0x120 ADD PUSH1 0x40 MSTORE SWAP1 DUP2 PUSH1 0x0 DUP3 ADD SLOAD DUP2 MSTORE PUSH1 0x20 ADD PUSH1 0x1 DUP3 ADD DUP1 SLOAD PUSH2 0x1552 SWAP1 PUSH2 0x1CD7 JUMP JUMPDEST DUP1 PUSH1 0x1F ADD PUSH1 0x20 DUP1 SWAP2 DIV MUL PUSH1 0x20 ADD PUSH1 0x40 MLOAD SWAP1 DUP2 ADD PUSH1 0x40 MSTORE DUP1 SWAP3 SWAP2 SWAP1 DUP2 DUP2 MSTORE PUSH1 0x20 ADD DUP3 DUP1 SLOAD PUSH2 0x157E SWAP1 PUSH2 0x1CD7 JUMP JUMPDEST DUP1 ISZERO PUSH2 0x15CB JUMPI DUP1 PUSH1 0x1F LT PUSH2 0x15A0 JUMPI PUSH2 0x100 DUP1 DUP4 SLOAD DIV MUL DUP4 MSTORE SWAP2 PUSH1 0x20 ADD SWAP2 PUSH2 0x15CB JUMP JUMPDEST DUP3 ADD SWAP2 SWAP1 PUSH1 0x0 MSTORE PUSH1 0x20 PUSH1 0x0 KECCAK256 SWAP1 JUMPDEST DUP2 SLOAD DUP2 MSTORE SWAP1 PUSH1 0x1 ADD SWAP1 PUSH1 0x20 ADD DUP1 DUP4 GT PUSH2 0x15AE JUMPI DUP3 SWAP1 SUB PUSH1 0x1F AND DUP3 ADD SWAP2 JUMPDEST POP POP POP SWAP2 DUP4 MSTORE POP POP PUSH1 0x2 DUP3 ADD SLOAD PUSH1 0x20 DUP3 ADD MSTORE PUSH1 0x3 DUP3 ADD SLOAD PUSH1 0x40 DUP3 ADD MSTORE PUSH1 0x4 DUP3 ADD SLOAD PUSH1 0x1 PUSH1 0x1 PUSH1 0xA0 SHL SUB SWAP1 DUP2 AND PUSH1 0x60 DUP4 ADD MSTORE PUSH1 0x5 DUP4 ADD SLOAD AND PUSH1 0x80 DUP3 ADD MSTORE PUSH1 0x6 DUP3 ADD SLOAD PUSH1 0xA0 DUP3 ADD MSTORE PUSH1 0x7 DUP3 ADD DUP1 SLOAD PUSH1 0xC0 SWAP1 SWAP3 ADD SWAP2 PUSH2 0x1626 SWAP1 PUSH2 0x1CD7 JUMP JUMPDEST DUP1 PUSH1 0x1F ADD PUSH1 0x20 DUP1 SWAP2 DIV MUL PUSH1 0x20 ADD PUSH1 0x40 MLOAD SWAP1 DUP2 ADD PUSH1 0x40 MSTORE DUP1 SWAP3 SWAP2 SWAP1 DUP2 DUP2 MSTORE PUSH1 0x20 ADD DUP3 DUP1 SLOAD PUSH2 0x1652 SWAP1 PUSH2 0x1CD7 JUMP JUMPDEST DUP1 ISZERO PUSH2 0x169F JUMPI DUP1 PUSH1 0x1F LT PUSH2 0x1674 JUMPI PUSH2 0x100 DUP1 DUP4 SLOAD DIV MUL DUP4 MSTORE SWAP2 PUSH1 0x20 ADD SWAP2 PUSH2 0x169F JUMP JUMPDEST DUP3 ADD SWAP2 SWAP1 PUSH1 0x0 MSTORE PUSH1 0x20 PUSH1 0x0 KECCAK256 SWAP1 JUMPDEST DUP2 SLOAD DUP2 MSTORE SWAP1 PUSH1 0x1 ADD SWAP1 PUSH1 0x20 ADD DUP1 DUP4 GT PUSH2 0x1682 JUMPI DUP3 SWAP1 SUB PUSH1 0x1F AND DUP3 ADD SWAP2 JUMPDEST POP POP POP SWAP2 DUP4 MSTORE POP POP PUSH1 0x8 SWAP2 SWAP1 SWAP2 ADD SLOAD PUSH1 0xFF AND ISZERO ISZERO PUSH1 0x20 SWAP1 SWAP2 ADD MSTORE SWAP3 SWAP2 POP POP JUMP JUMPDEST PUSH1 0x0 PUSH2 0x16CB GASPRICE DUP4 PUSH2 0x1F22 JUMP JUMPDEST CALLVALUE GT PUSH2 0x173F JUMPI PUSH1 0x40 MLOAD PUSH3 0x461BCD PUSH1 0xE5 SHL DUP2 MSTORE PUSH1 0x20 PUSH1 0x4 DUP3 ADD MSTORE PUSH1 0x3F PUSH1 0x24 DUP3 ADD MSTORE PUSH32 0x54686520706F73742070726F63657373696E67206761732063616E6E6F742074 PUSH1 0x44 DUP3 ADD MSTORE PUSH32 0x616B65757020616C6C206F662074686520737570706C69656420657468657200 PUSH1 0x64 DUP3 ADD MSTORE PUSH1 0x84 ADD PUSH2 0x324 JUMP JUMPDEST PUSH1 0x0 PUSH1 0x40 MLOAD DUP1 PUSH2 0x120 ADD PUSH1 0x40 MSTORE DUP1 PUSH1 0x3 DUP1 SLOAD SWAP1 POP DUP2 MSTORE PUSH1 0x20 ADD DUP7 DUP7 DUP1 DUP1 PUSH1 0x1F ADD PUSH1 0x20 DUP1 SWAP2 DIV MUL PUSH1 0x20 ADD PUSH1 0x40 MLOAD SWAP1 DUP2 ADD PUSH1 0x40 MSTORE DUP1 SWAP4 SWAP3 SWAP2 SWAP1 DUP2 DUP2 MSTORE PUSH1 0x20 ADD DUP4 DUP4 DUP1 DUP3 DUP5 CALLDATACOPY PUSH1 0x0 SWAP3 ADD DUP3 SWAP1 MSTORE POP SWAP4 DUP6 MSTORE POP POP CALLVALUE PUSH1 0x20 DUP1 DUP6 ADD DUP3 SWAP1 MSTORE PUSH1 0x40 DUP1 DUP7 ADD DUP11 SWAP1 MSTORE CALLER PUSH1 0x60 DUP8 ADD MSTORE PUSH1 0x80 DUP7 ADD DUP6 SWAP1 MSTORE PUSH1 0xA0 DUP7 ADD DUP6 SWAP1 MSTORE DUP1 MLOAD DUP1 DUP4 ADD DUP7 SWAP1 MSTORE DUP2 MLOAD DUP1 DUP3 SUB DUP5 ADD DUP2 MSTORE SWAP1 DUP3 ADD DUP3 MSTORE PUSH1 0xC0 DUP8 ADD MSTORE PUSH1 0xE0 SWAP1 SWAP6 ADD SWAP4 SWAP1 SWAP4 MSTORE DUP5 MLOAD DUP5 MLOAD SWAP1 DUP2 MSTORE SWAP3 DUP4 ADD MSTORE POP DUP2 MLOAD SWAP3 SWAP4 POP PUSH32 0x179928CDD6B95A06E7B333F9371E3B93A5421DC0A2D8C7039619E7BC1C433EEB SWAP3 SWAP1 DUP2 SWAP1 SUB SWAP1 SWAP2 ADD SWAP1 LOG1 PUSH1 0x3 DUP1 SLOAD PUSH1 0x1 DUP2 ADD DUP3 SSTORE PUSH1 0x0 SWAP2 SWAP1 SWAP2 MSTORE DUP2 MLOAD PUSH1 0x9 SWAP1 SWAP2 MUL PUSH32 0xC2575A0E9E593C00F959F8C92F12DB2869C3395A3B0502D05E2516446F71F85B DUP2 ADD SWAP2 DUP3 SSTORE PUSH1 0x20 DUP4 ADD MLOAD DUP4 SWAP3 SWAP2 PUSH32 0xC2575A0E9E593C00F959F8C92F12DB2869C3395A3B0502D05E2516446F71F85C ADD SWAP1 PUSH2 0x1886 SWAP1 DUP3 PUSH2 0x1F5B JUMP JUMPDEST POP PUSH1 0x40 DUP3 ADD MLOAD PUSH1 0x2 DUP3 ADD SSTORE PUSH1 0x60 DUP3 ADD MLOAD PUSH1 0x3 DUP3 ADD SSTORE PUSH1 0x80 DUP3 ADD MLOAD PUSH1 0x4 DUP3 ADD DUP1 SLOAD PUSH1 0x1 PUSH1 0x1 PUSH1 0xA0 SHL SUB SWAP3 DUP4 AND PUSH1 0x1 PUSH1 0x1 PUSH1 0xA0 SHL SUB NOT SWAP2 DUP3 AND OR SWAP1 SWAP2 SSTORE PUSH1 0xA0 DUP5 ADD MLOAD PUSH1 0x5 DUP5 ADD DUP1 SLOAD SWAP2 SWAP1 SWAP4 AND SWAP2 AND OR SWAP1 SSTORE PUSH1 0xC0 DUP3 ADD MLOAD PUSH1 0x6 DUP3 ADD SSTORE PUSH1 0xE0 DUP3 ADD MLOAD PUSH1 0x7 DUP3 ADD SWAP1 PUSH2 0x18F3 SWAP1 DUP3 PUSH2 0x1F5B JUMP JUMPDEST POP PUSH2 0x100 SWAP2 SWAP1 SWAP2 ADD MLOAD PUSH1 0x8 SWAP1 SWAP2 ADD DUP1 SLOAD PUSH1 0xFF NOT AND SWAP2 ISZERO ISZERO SWAP2 SWAP1 SWAP2 OR SWAP1 SSTORE MLOAD SWAP5 SWAP4 POP POP POP POP JUMP JUMPDEST CALLER PUSH1 0x0 SWAP1 DUP2 MSTORE PUSH1 0x20 DUP2 SWAP1 MSTORE PUSH1 0x40 DUP2 KECCAK256 DUP1 SLOAD DUP5 SWAP2 SWAP1 DUP4 SWAP1 PUSH2 0x193A SWAP1 DUP5 SWAP1 PUSH2 0x1CAE JUMP JUMPDEST SWAP1 SWAP2 SSTORE POP PUSH2 0x64C SWAP1 POP DUP4 DUP4 PUSH2 0x2BF JUMP JUMPDEST DUP1 CALLDATALOAD PUSH1 0x1 PUSH1 0x1 PUSH1 0xA0 SHL SUB DUP2 AND DUP2 EQ PUSH2 0x1961 JUMPI PUSH1 0x0 DUP1 REVERT JUMPDEST SWAP2 SWAP1 POP JUMP JUMPDEST PUSH1 0x0 DUP1 PUSH1 0x40 DUP4 DUP6 SUB SLT ISZERO PUSH2 0x1979 JUMPI PUSH1 0x0 DUP1 REVERT JUMPDEST DUP3 CALLDATALOAD SWAP2 POP PUSH2 0x1989 PUSH1 0x20 DUP5 ADD PUSH2 0x194A JUMP JUMPDEST SWAP1 POP SWAP3 POP SWAP3 SWAP1 POP JUMP JUMPDEST PUSH1 0x0 PUSH1 0x20 DUP3 DUP5 SUB SLT ISZERO PUSH2 0x19A4 JUMPI PUSH1 0x0 DUP1 REVERT JUMPDEST POP CALLDATALOAD SWAP2 SWAP1 POP JUMP JUMPDEST PUSH1 0x0 DUP1 DUP4 PUSH1 0x1F DUP5 ADD SLT PUSH2 0x19BD JUMPI PUSH1 0x0 DUP1 REVERT JUMPDEST POP DUP2 CALLDATALOAD PUSH8 0xFFFFFFFFFFFFFFFF DUP2 GT ISZERO PUSH2 0x19D5 JUMPI PUSH1 0x0 DUP1 REVERT JUMPDEST PUSH1 0x20 DUP4 ADD SWAP2 POP DUP4 PUSH1 0x20 DUP3 DUP6 ADD ADD GT ISZERO PUSH2 0x19ED JUMPI PUSH1 0x0 DUP1 REVERT JUMPDEST SWAP3 POP SWAP3 SWAP1 POP JUMP JUMPDEST PUSH1 0x0 DUP1 PUSH1 0x0 PUSH1 0x40 DUP5 DUP7 SUB SLT ISZERO PUSH2 0x1A09 JUMPI PUSH1 0x0 DUP1 REVERT JUMPDEST DUP4 CALLDATALOAD SWAP3 POP PUSH1 0x20 DUP5 ADD CALLDATALOAD PUSH8 0xFFFFFFFFFFFFFFFF DUP2 GT ISZERO PUSH2 0x1A27 JUMPI PUSH1 0x0 DUP1 REVERT JUMPDEST PUSH2 0x1A33 DUP7 DUP3 DUP8 ADD PUSH2 0x19AB JUMP JUMPDEST SWAP5 SWAP8 SWAP1 SWAP7 POP SWAP4 SWAP5 POP POP POP POP JUMP JUMPDEST PUSH1 0x0 PUSH1 0x20 DUP3 DUP5 SUB SLT ISZERO PUSH2 0x1A52 JUMPI PUSH1 0x0 DUP1 REVERT JUMPDEST PUSH2 0x64C DUP3 PUSH2 0x194A JUMP JUMPDEST PUSH1 0x0 DUP2 MLOAD DUP1 DUP5 MSTORE PUSH1 0x0 JUMPDEST DUP2 DUP2 LT ISZERO PUSH2 0x1A81 JUMPI PUSH1 0x20 DUP2 DUP6 ADD DUP2 ADD MLOAD DUP7 DUP4 ADD DUP3 ADD MSTORE ADD PUSH2 0x1A65 JUMP JUMPDEST POP PUSH1 0x0 PUSH1 0x20 DUP3 DUP7 ADD ADD MSTORE PUSH1 0x20 PUSH1 0x1F NOT PUSH1 0x1F DUP4 ADD AND DUP6 ADD ADD SWAP2 POP POP SWAP3 SWAP2 POP POP JUMP JUMPDEST PUSH1 0x0 PUSH2 0x120 DUP12 DUP4 MSTORE DUP1 PUSH1 0x20 DUP5 ADD MSTORE PUSH2 0x1ABB DUP2 DUP5 ADD DUP13 PUSH2 0x1A5B JUMP JUMPDEST PUSH1 0x40 DUP5 ADD DUP12 SWAP1 MSTORE PUSH1 0x60 DUP5 ADD DUP11 SWAP1 MSTORE PUSH1 0x1 PUSH1 0x1 PUSH1 0xA0 SHL SUB DUP10 DUP2 AND PUSH1 0x80 DUP7 ADD MSTORE DUP9 AND PUSH1 0xA0 DUP6 ADD MSTORE PUSH1 0xC0 DUP5 ADD DUP8 SWAP1 MSTORE DUP4 DUP2 SUB PUSH1 0xE0 DUP6 ADD MSTORE SWAP1 POP PUSH2 0x1AFB DUP2 DUP7 PUSH2 0x1A5B JUMP JUMPDEST SWAP2 POP POP DUP3 ISZERO ISZERO PUSH2 0x100 DUP4 ADD MSTORE SWAP11 SWAP10 POP POP POP POP POP POP POP POP POP POP JUMP JUMPDEST PUSH1 0x0 PUSH2 0x120 DUP3 MLOAD DUP5 MSTORE PUSH1 0x20 DUP4 ADD MLOAD DUP2 PUSH1 0x20 DUP7 ADD MSTORE PUSH2 0x1B35 DUP3 DUP7 ADD DUP3 PUSH2 0x1A5B JUMP JUMPDEST SWAP2 POP POP PUSH1 0x40 DUP4 ADD MLOAD PUSH1 0x40 DUP6 ADD MSTORE PUSH1 0x60 DUP4 ADD MLOAD PUSH1 0x60 DUP6 ADD MSTORE PUSH1 0x80 DUP4 ADD MLOAD PUSH2 0x1B66 PUSH1 0x80 DUP7 ADD DUP3 PUSH1 0x1 PUSH1 0x1 PUSH1 0xA0 SHL SUB AND SWAP1 MSTORE JUMP JUMPDEST POP PUSH1 0xA0 DUP4 ADD MLOAD PUSH2 0x1B81 PUSH1 0xA0 DUP7 ADD DUP3 PUSH1 0x1 PUSH1 0x1 PUSH1 0xA0 SHL SUB AND SWAP1 MSTORE JUMP JUMPDEST POP PUSH1 0xC0 DUP4 ADD MLOAD PUSH1 0xC0 DUP6 ADD MSTORE PUSH1 0xE0 DUP4 ADD MLOAD DUP5 DUP3 SUB PUSH1 0xE0 DUP7 ADD MSTORE PUSH2 0x1BA3 DUP3 DUP3 PUSH2 0x1A5B JUMP JUMPDEST SWAP2 POP POP PUSH2 0x100 DUP1 DUP5 ADD MLOAD PUSH2 0x1BBA DUP3 DUP8 ADD DUP3 ISZERO ISZERO SWAP1 MSTORE JUMP JUMPDEST POP SWAP1 SWAP5 SWAP4 POP POP POP POP JUMP JUMPDEST PUSH1 0x0 PUSH1 0x20 DUP1 DUP4 ADD DUP2 DUP5 MSTORE DUP1 DUP6 MLOAD DUP1 DUP4 MSTORE PUSH1 0x40 DUP7 ADD SWAP2 POP PUSH1 0x40 DUP2 PUSH1 0x5 SHL DUP8 ADD ADD SWAP3 POP DUP4 DUP8 ADD PUSH1 0x0 JUMPDEST DUP3 DUP2 LT ISZERO PUSH2 0x1C19 JUMPI PUSH1 0x3F NOT DUP9 DUP7 SUB ADD DUP5 MSTORE PUSH2 0x1C07 DUP6 DUP4 MLOAD PUSH2 0x1B15 JUMP JUMPDEST SWAP5 POP SWAP3 DUP6 ADD SWAP3 SWAP1 DUP6 ADD SWAP1 PUSH1 0x1 ADD PUSH2 0x1BEB JUMP JUMPDEST POP SWAP3 SWAP8 SWAP7 POP POP POP POP POP POP POP JUMP JUMPDEST PUSH1 0x20 DUP2 MSTORE PUSH1 0x0 PUSH2 0x64C PUSH1 0x20 DUP4 ADD DUP5 PUSH2 0x1B15 JUMP JUMPDEST PUSH1 0x0 DUP1 PUSH1 0x0 PUSH1 0x40 DUP5 DUP7 SUB SLT ISZERO PUSH2 0x1C4E JUMPI PUSH1 0x0 DUP1 REVERT JUMPDEST DUP4 CALLDATALOAD PUSH8 0xFFFFFFFFFFFFFFFF DUP2 GT ISZERO PUSH2 0x1C65 JUMPI PUSH1 0x0 DUP1 REVERT JUMPDEST PUSH2 0x1C71 DUP7 DUP3 DUP8 ADD PUSH2 0x19AB JUMP JUMPDEST SWAP1 SWAP8 SWAP1 SWAP7 POP PUSH1 0x20 SWAP6 SWAP1 SWAP6 ADD CALLDATALOAD SWAP5 SWAP4 POP POP POP POP JUMP JUMPDEST PUSH4 0x4E487B71 PUSH1 0xE0 SHL PUSH1 0x0 MSTORE PUSH1 0x11 PUSH1 0x4 MSTORE PUSH1 0x24 PUSH1 0x0 REVERT JUMPDEST DUP2 DUP2 SUB DUP2 DUP2 GT ISZERO PUSH2 0x3DE JUMPI PUSH2 0x3DE PUSH2 0x1C85 JUMP JUMPDEST DUP1 DUP3 ADD DUP1 DUP3 GT ISZERO PUSH2 0x3DE JUMPI PUSH2 0x3DE PUSH2 0x1C85 JUMP JUMPDEST PUSH4 0x4E487B71 PUSH1 0xE0 SHL PUSH1 0x0 MSTORE PUSH1 0x32 PUSH1 0x4 MSTORE PUSH1 0x24 PUSH1 0x0 REVERT JUMPDEST PUSH1 0x1 DUP2 DUP2 SHR SWAP1 DUP3 AND DUP1 PUSH2 0x1CEB JUMPI PUSH1 0x7F DUP3 AND SWAP2 POP JUMPDEST PUSH1 0x20 DUP3 LT DUP2 SUB PUSH2 0x1D0B JUMPI PUSH4 0x4E487B71 PUSH1 0xE0 SHL PUSH1 0x0 MSTORE PUSH1 0x22 PUSH1 0x4 MSTORE PUSH1 0x24 PUSH1 0x0 REVERT JUMPDEST POP SWAP2 SWAP1 POP JUMP JUMPDEST DUP2 DUP4 MSTORE DUP2 DUP2 PUSH1 0x20 DUP6 ADD CALLDATACOPY POP PUSH1 0x0 DUP3 DUP3 ADD PUSH1 0x20 SWAP1 DUP2 ADD SWAP2 SWAP1 SWAP2 MSTORE PUSH1 0x1F SWAP1 SWAP2 ADD PUSH1 0x1F NOT AND SWAP1 SWAP2 ADD ADD SWAP1 JUMP JUMPDEST PUSH1 0x40 DUP2 MSTORE PUSH1 0x0 DUP1 DUP6 SLOAD PUSH2 0x1D4C DUP2 PUSH2 0x1CD7 JUMP JUMPDEST DUP1 PUSH1 0x40 DUP7 ADD MSTORE PUSH1 0x60 PUSH1 0x1 DUP1 DUP5 AND PUSH1 0x0 DUP2 EQ PUSH2 0x1D6E JUMPI PUSH1 0x1 DUP2 EQ PUSH2 0x1D88 JUMPI PUSH2 0x1DB9 JUMP JUMPDEST PUSH1 0xFF NOT DUP6 AND DUP9 DUP5 ADD MSTORE DUP4 ISZERO ISZERO PUSH1 0x5 SHL DUP9 ADD DUP4 ADD SWAP6 POP PUSH2 0x1DB9 JUMP JUMPDEST DUP11 PUSH1 0x0 MSTORE PUSH1 0x20 DUP1 PUSH1 0x0 KECCAK256 PUSH1 0x0 JUMPDEST DUP7 DUP2 LT ISZERO PUSH2 0x1DB0 JUMPI DUP2 SLOAD DUP12 DUP3 ADD DUP8 ADD MSTORE SWAP1 DUP5 ADD SWAP1 DUP3 ADD PUSH2 0x1D95 JUMP JUMPDEST DUP11 ADD DUP6 ADD SWAP8 POP POP POP JUMPDEST POP POP POP POP POP DUP3 DUP2 SUB PUSH1 0x20 DUP5 ADD MSTORE PUSH2 0x1DD1 DUP2 DUP6 DUP8 PUSH2 0x1D11 JUMP JUMPDEST SWAP7 SWAP6 POP POP POP POP POP POP JUMP JUMPDEST PUSH1 0x0 PUSH1 0x20 DUP3 DUP5 SUB SLT ISZERO PUSH2 0x1DED JUMPI PUSH1 0x0 DUP1 REVERT JUMPDEST DUP2 MLOAD DUP1 ISZERO ISZERO DUP2 EQ PUSH2 0x64C JUMPI PUSH1 0x0 DUP1 REVERT JUMPDEST PUSH4 0x4E487B71 PUSH1 0xE0 SHL PUSH1 0x0 MSTORE PUSH1 0x41 PUSH1 0x4 MSTORE PUSH1 0x24 PUSH1 0x0 REVERT JUMPDEST PUSH1 0x1F DUP3 GT ISZERO PUSH2 0x1141 JUMPI PUSH1 0x0 DUP2 DUP2 MSTORE PUSH1 0x20 DUP2 KECCAK256 PUSH1 0x1F DUP6 ADD PUSH1 0x5 SHR DUP2 ADD PUSH1 0x20 DUP7 LT ISZERO PUSH2 0x1E3A JUMPI POP DUP1 JUMPDEST PUSH1 0x1F DUP6 ADD PUSH1 0x5 SHR DUP3 ADD SWAP2 POP JUMPDEST DUP2 DUP2 LT ISZERO PUSH2 0x1E59 JUMPI DUP3 DUP2 SSTORE PUSH1 0x1 ADD PUSH2 0x1E46 JUMP JUMPDEST POP POP POP POP POP POP JUMP JUMPDEST PUSH8 0xFFFFFFFFFFFFFFFF DUP4 GT ISZERO PUSH2 0x1E79 JUMPI PUSH2 0x1E79 PUSH2 0x1DFD JUMP JUMPDEST PUSH2 0x1E8D DUP4 PUSH2 0x1E87 DUP4 SLOAD PUSH2 0x1CD7 JUMP JUMPDEST DUP4 PUSH2 0x1E13 JUMP JUMPDEST PUSH1 0x0 PUSH1 0x1F DUP5 GT PUSH1 0x1 DUP2 EQ PUSH2 0x1EC1 JUMPI PUSH1 0x0 DUP6 ISZERO PUSH2 0x1EA9 JUMPI POP DUP4 DUP3 ADD CALLDATALOAD JUMPDEST PUSH1 0x0 NOT PUSH1 0x3 DUP8 SWAP1 SHL SHR NOT AND PUSH1 0x1 DUP7 SWAP1 SHL OR DUP4 SSTORE PUSH2 0x1F1B JUMP JUMPDEST PUSH1 0x0 DUP4 DUP2 MSTORE PUSH1 0x20 SWAP1 KECCAK256 PUSH1 0x1F NOT DUP7 AND SWAP1 DUP4 JUMPDEST DUP3 DUP2 LT ISZERO PUSH2 0x1EF2 JUMPI DUP7 DUP6 ADD CALLDATALOAD DUP3 SSTORE PUSH1 0x20 SWAP5 DUP6 ADD SWAP5 PUSH1 0x1 SWAP1 SWAP3 ADD SWAP2 ADD PUSH2 0x1ED2 JUMP JUMPDEST POP DUP7 DUP3 LT ISZERO PUSH2 0x1F0F JUMPI PUSH1 0x0 NOT PUSH1 0xF8 DUP9 PUSH1 0x3 SHL AND SHR NOT DUP5 DUP8 ADD CALLDATALOAD AND DUP2 SSTORE JUMPDEST POP POP PUSH1 0x1 DUP6 PUSH1 0x1 SHL ADD DUP4 SSTORE JUMPDEST POP POP POP POP POP JUMP JUMPDEST DUP1 DUP3 MUL DUP2 ISZERO DUP3 DUP3 DIV DUP5 EQ OR PUSH2 0x3DE JUMPI PUSH2 0x3DE PUSH2 0x1C85 JUMP JUMPDEST PUSH1 0x0 DUP3 PUSH2 0x1F56 JUMPI PUSH4 0x4E487B71 PUSH1 0xE0 SHL PUSH1 0x0 MSTORE PUSH1 0x12 PUSH1 0x4 MSTORE PUSH1 0x24 PUSH1 0x0 REVERT JUMPDEST POP DIV SWAP1 JUMP JUMPDEST DUP2 MLOAD PUSH8 0xFFFFFFFFFFFFFFFF DUP2 GT ISZERO PUSH2 0x1F75 JUMPI PUSH2 0x1F75 PUSH2 0x1DFD JUMP JUMPDEST PUSH2 0x1F89 DUP2 PUSH2 0x1F83 DUP5 SLOAD PUSH2 0x1CD7 JUMP JUMPDEST DUP5 PUSH2 0x1E13 JUMP JUMPDEST PUSH1 0x20 DUP1 PUSH1 0x1F DUP4 GT PUSH1 0x1 DUP2 EQ PUSH2 0x1FBE JUMPI PUSH1 0x0 DUP5 ISZERO PUSH2 0x1FA6 JUMPI POP DUP6 DUP4 ADD MLOAD JUMPDEST PUSH1 0x0 NOT PUSH1 0x3 DUP7 SWAP1 SHL SHR NOT AND PUSH1 0x1 DUP6 SWAP1 SHL OR DUP6 SSTORE PUSH2 0x1E59 JUMP JUMPDEST PUSH1 0x0 DUP6 DUP2 MSTORE PUSH1 0x20 DUP2 KECCAK256 PUSH1 0x1F NOT DUP7 AND SWAP2 JUMPDEST DUP3 DUP2 LT ISZERO PUSH2 0x1FED JUMPI DUP9 DUP7 ADD MLOAD DUP3 SSTORE SWAP5 DUP5 ADD SWAP5 PUSH1 0x1 SWAP1 SWAP2 ADD SWAP1 DUP5 ADD PUSH2 0x1FCE JUMP JUMPDEST POP DUP6 DUP3 LT ISZERO PUSH2 0x200B JUMPI DUP8 DUP6 ADD MLOAD PUSH1 0x0 NOT PUSH1 0x3 DUP9 SWAP1 SHL PUSH1 0xF8 AND SHR NOT AND DUP2 SSTORE JUMPDEST POP POP POP POP POP PUSH1 0x1 SWAP1 DUP2 SHL ADD SWAP1 SSTORE POP JUMP INVALID LOG2 PUSH5 0x6970667358 0x22 SLT KECCAK256 0xDB MOD SWAP1 0xBF 0x5E SWAP10 0xCD 0xEF PUSH15 0x73A04021523D7BB4752E03A8BB1E8A PUSH23 0x520D9932E9A63564736F6C634300081300330000000000 ",
  "sha1": "ba08067607f3a8fcc635b25239dc646b55a177df",
  "source": "// SPDX-License-Identifier: GPL-3.0\n\npragma solidity >=0.7.0 <0.9.0;\n\nimport \"./Transferable.sol\";\nimport \"./BaseClient.sol\";\n\n\nstruct Request {\n    uint id;  // Index, for unicity when raw comparing\n    bytes input;\n    uint payment; // In Wei; deberia tener en cuenta el computo y el gas de las operaciones de submit y claim\n    uint postProcessingGas;\n    BaseClient client;\n    address executor;\n    uint acceptedTimestamp;\n    bytes result;\n    bool closed;\n}\n\n\ncontract ExecutionBroker is Transferable {\n\n    uint public ACCEPTANCE_GRACE_PERIOD;  // = 3600 seconds\n    uint public ACCEPTANCE_STAKE;  //TODO ver si vale la pena lo del porcentaje, capaz hago la stake mas chica pero hago que se pierda el 100% de la stake si la caga\n\n    Request[] public requests;\n\n    event requestCreated(uint requestID, uint payment);\n    event requestCancelled(uint requestID);\n\n    event requestAccepted(uint requestID, address acceptor);\n    event acceptanceCancelled(uint requestID, address acceptor, bool refundSuccess);\n\n    event requestCompleted(uint requestID, bool transferSuccess);\n    event requestReOpened(uint requestID, uint payment, bool transferSuccess);\n\n    constructor(uint acceptanceStake, uint acceptanceGracePeriod) {\n        ACCEPTANCE_STAKE = acceptanceStake;\n        ACCEPTANCE_GRACE_PERIOD = acceptanceGracePeriod;\n    }\n\n    // Public views\n\n    function requestCount() public view returns (uint) {\n        return requests.length;\n    }\n\n    function getRequests() public view returns (Request[] memory) {\n        return requests;\n    }\n\n    function getRequest(uint requestID) public view returns (Request memory) {\n        return requests[requestID];\n    }\n\n    // Restricted interaction functions\n\n    function submitRequest(bytes calldata input, uint postProcessingGas) public payable returns (uint) {\n        require(msg.value > postProcessingGas * tx.gasprice, \"The post processing gas cannot takeup all of the supplied ether\");\n        Request memory request = Request({\n            id: requests.length,\n            input: input,\n            payment: msg.value,  // aca esta incluido el post processing gas, para evitar tener que devolver aparte\n            postProcessingGas: postProcessingGas,\n            client: BaseClient(payable(msg.sender)),\n            executor: address(0x0),\n            acceptedTimestamp: 0,\n            result: abi.encode(0),\n            closed: false\n        });\n        emit requestCreated(request.id, msg.value);\n        requests.push(request);\n        return request.id;\n    }\n\n    function cancelRequest(uint requestID) public returns (bool) {\n        require(!requests[requestID].closed, \"The request is closed\");\n        require(msg.sender == address(requests[requestID].client), \"You cant cancel a request that was not made by you\");\n        require(requests[requestID].executor == address(0x0), \"You cant cancel an accepted request\");\n        requests[requestID].closed = true;\n        emit requestCancelled(requestID);\n        bool transferSuccess = _internalTransferFunds(requests[requestID].payment, address(requests[requestID].client));\n        return transferSuccess;\n    }\n\n    // Open interaction functions\n\n    function publicizeRequest(uint requestID) public {  // This is to re emit the event In case the request gets forgotten\n        require(requests[requestID].executor == address(0x00), \"You cant publicize a taken request\");\n        emit requestCreated(requestID, requests[requestID].payment);\n    }\n\n    function acceptRequest(uint requestID) public payable {\n        // what if Request does not exist? what happens to the funds? IF YOU TRY TO ACCESS AN INVALID INDEX IN AN ARRAY, THE FUNCTION GETS REVERTED AND FUNDS RETURNED TOGETHER WITH SPARE GAS (BUT NOT ALREADY CONSUMED GAS)\n        // what happens to the funds if one of the requires fail? THEY GET RETURNED\n        require(!requests[requestID].closed, \"The request is closed\");\n        require(requests[requestID].executor != msg.sender, \"This request is already accepted by you\");\n        require(requests[requestID].executor == address(0x0) || (requests[requestID].acceptedTimestamp + ACCEPTANCE_GRACE_PERIOD) < block.timestamp, \"There is an unexpired acceptance for this request\");\n        require(msg.value == ACCEPTANCE_STAKE, \"Incorrect amount of stake provided\");\n        if (requests[requestID].executor != address(0x0)) {\n            _internalTransferFunds((ACCEPTANCE_STAKE*95)/100, requests[requestID].executor);\n            _internalTransferFunds((ACCEPTANCE_STAKE*5)/100, address(requests[requestID].client));\n        }\n        requests[requestID].executor = msg.sender;\n        requests[requestID].acceptedTimestamp = block.timestamp;\n        emit requestAccepted(requestID, msg.sender);\n    }\n\n    function cancelAcceptance(uint requestID) public {\n        require(requests[requestID].executor != address(0x0), \"There is no acceptor for the provided requestID\");\n        require(requests[requestID].closed == false, \"This request is closed\");\n        require(requests[requestID].executor == msg.sender, \"You cant cancel an acceptance that does not belong to you\");\n        requests[requestID].executor = address(0x0);\n        bool transferSuccess = _internalTransferFunds((ACCEPTANCE_STAKE*95)/100, msg.sender);  // Devolver un 95% del stake\n        emit acceptanceCancelled(requestID, requests[requestID].executor, transferSuccess);\n        _internalTransferFunds((ACCEPTANCE_STAKE*5)/100, address(requests[requestID].client));\n    }\n\n    function submitResult(uint requestID, bytes calldata result) external returns (bool) {\n        // para evitar que le roben el resultado, puede subirlo encriptado y posteriormente subir la clave de decrypt, NAAAA, no es eficiente\n        // pero aca caigo en el mismo dilema, tengo que esperar que pase la clave decrypt y tengo que poner un timer para que no ponga cualquier cosa y se vaya, aunque supongo que no lo quiere hacer porque quiere recuperar la insurance. Entonces capaz saco el tiempo de acceptance time window, y confiar que el tipo va a cumplir porque quiere cobrar, aunque capaz se cuelga y no lo puede resolver, entonces capaz es mejor que se haga con encriptacion? no pero eso no me sirve porque desencriptar es costoso. Mejor le pongo una opcion al tipo para cancelar la aceptacion, y se come el gas pero recupera la prima\n        require(msg.sender == address(requests[requestID].client), \"You can only submit results through the client\");\n        if (requests[requestID].client.checkResult(requests[requestID].input, result)) {\n            requests[requestID].result = result;\n            requests[requestID].closed = true;\n            uint payAmount = requests[requestID].payment + ACCEPTANCE_STAKE;\n            bool transferSuccess = _internalTransferFunds(payAmount, msg.sender);\n            emit requestCompleted(requestID, transferSuccess);\n            return true;\n        } else {\n            requests[requestID].executor = address(0x0);\n            bool transferSuccess = _internalTransferFunds((ACCEPTANCE_STAKE*95)/100, msg.sender);\n            emit requestReOpened(requestID, requests[requestID].payment, transferSuccess);\n            _internalTransferFunds((ACCEPTANCE_STAKE*5)/100, address(requests[requestID].client));\n            return false;\n        }\n    }\n}",
  "sourcePath": "contracts/ExecutionBroker.sol",
  "type": "contract"
}