{
  "abi": [
    {
      "inputs": [
        {
          "internalType": "uint256",
          "name": "acceptanceStake",
          "type": "uint256"
        }
      ],
      "stateMutability": "nonpayable",
      "type": "constructor"
    },
    {
      "anonymous": false,
      "inputs": [
        {
          "indexed": false,
          "internalType": "uint256",
          "name": "requestID",
          "type": "uint256"
        },
        {
          "indexed": false,
          "internalType": "address",
          "name": "acceptor",
          "type": "address"
        },
        {
          "indexed": false,
          "internalType": "bool",
          "name": "refundSuccess",
          "type": "bool"
        }
      ],
      "name": "acceptanceCancelled",
      "type": "event"
    },
    {
      "anonymous": false,
      "inputs": [
        {
          "indexed": false,
          "internalType": "uint256",
          "name": "requestID",
          "type": "uint256"
        },
        {
          "indexed": false,
          "internalType": "address",
          "name": "acceptor",
          "type": "address"
        }
      ],
      "name": "requestAccepted",
      "type": "event"
    },
    {
      "anonymous": false,
      "inputs": [
        {
          "indexed": false,
          "internalType": "uint256",
          "name": "requestID",
          "type": "uint256"
        }
      ],
      "name": "requestCancelled",
      "type": "event"
    },
    {
      "anonymous": false,
      "inputs": [
        {
          "indexed": false,
          "internalType": "uint256",
          "name": "requestID",
          "type": "uint256"
        },
        {
          "indexed": false,
          "internalType": "bool",
          "name": "transferSuccess",
          "type": "bool"
        }
      ],
      "name": "requestCompleted",
      "type": "event"
    },
    {
      "anonymous": false,
      "inputs": [
        {
          "indexed": false,
          "internalType": "uint256",
          "name": "requestID",
          "type": "uint256"
        },
        {
          "indexed": false,
          "internalType": "uint256",
          "name": "payment",
          "type": "uint256"
        }
      ],
      "name": "requestCreated",
      "type": "event"
    },
    {
      "anonymous": false,
      "inputs": [
        {
          "indexed": false,
          "internalType": "uint256",
          "name": "requestID",
          "type": "uint256"
        },
        {
          "indexed": false,
          "internalType": "uint256",
          "name": "payment",
          "type": "uint256"
        },
        {
          "indexed": false,
          "internalType": "bool",
          "name": "transferSuccess",
          "type": "bool"
        }
      ],
      "name": "requestReOpened",
      "type": "event"
    },
    {
      "anonymous": false,
      "inputs": [
        {
          "indexed": false,
          "internalType": "uint256",
          "name": "requestID",
          "type": "uint256"
        },
        {
          "indexed": false,
          "internalType": "bool",
          "name": "success",
          "type": "bool"
        }
      ],
      "name": "resultPostProcessed",
      "type": "event"
    },
    {
      "inputs": [],
      "name": "ACCEPTANCE_STAKE",
      "outputs": [
        {
          "internalType": "uint256",
          "name": "",
          "type": "uint256"
        }
      ],
      "stateMutability": "view",
      "type": "function"
    },
    {
      "inputs": [
        {
          "internalType": "uint256",
          "name": "requestID",
          "type": "uint256"
        }
      ],
      "name": "acceptRequest",
      "outputs": [],
      "stateMutability": "payable",
      "type": "function"
    },
    {
      "inputs": [
        {
          "internalType": "uint256",
          "name": "requestID",
          "type": "uint256"
        }
      ],
      "name": "cancelAcceptance",
      "outputs": [],
      "stateMutability": "nonpayable",
      "type": "function"
    },
    {
      "inputs": [
        {
          "internalType": "uint256",
          "name": "requestID",
          "type": "uint256"
        }
      ],
      "name": "cancelRequest",
      "outputs": [
        {
          "internalType": "bool",
          "name": "",
          "type": "bool"
        }
      ],
      "stateMutability": "nonpayable",
      "type": "function"
    },
    {
      "inputs": [],
      "name": "getRequests",
      "outputs": [
        {
          "components": [
            {
              "internalType": "uint256",
              "name": "id",
              "type": "uint256"
            },
            {
              "internalType": "bytes",
              "name": "input",
              "type": "bytes"
            },
            {
              "internalType": "uint256",
              "name": "payment",
              "type": "uint256"
            },
            {
              "internalType": "uint256",
              "name": "postProcessingGas",
              "type": "uint256"
            },
            {
              "internalType": "contract BaseClient",
              "name": "client",
              "type": "address"
            },
            {
              "internalType": "address",
              "name": "executor",
              "type": "address"
            },
            {
              "internalType": "bytes",
              "name": "result",
              "type": "bytes"
            },
            {
              "internalType": "bool",
              "name": "closed",
              "type": "bool"
            }
          ],
          "internalType": "struct Request[]",
          "name": "",
          "type": "tuple[]"
        }
      ],
      "stateMutability": "view",
      "type": "function"
    },
    {
      "inputs": [
        {
          "internalType": "uint256",
          "name": "amount",
          "type": "uint256"
        },
        {
          "internalType": "address",
          "name": "destination",
          "type": "address"
        }
      ],
      "name": "publicTransferFunds",
      "outputs": [
        {
          "internalType": "bool",
          "name": "",
          "type": "bool"
        }
      ],
      "stateMutability": "nonpayable",
      "type": "function"
    },
    {
      "inputs": [
        {
          "internalType": "uint256",
          "name": "requestID",
          "type": "uint256"
        }
      ],
      "name": "publicizeRequest",
      "outputs": [],
      "stateMutability": "nonpayable",
      "type": "function"
    },
    {
      "inputs": [],
      "name": "requestCount",
      "outputs": [
        {
          "internalType": "uint256",
          "name": "",
          "type": "uint256"
        }
      ],
      "stateMutability": "view",
      "type": "function"
    },
    {
      "inputs": [
        {
          "internalType": "uint256",
          "name": "",
          "type": "uint256"
        }
      ],
      "name": "requests",
      "outputs": [
        {
          "internalType": "uint256",
          "name": "id",
          "type": "uint256"
        },
        {
          "internalType": "bytes",
          "name": "input",
          "type": "bytes"
        },
        {
          "internalType": "uint256",
          "name": "payment",
          "type": "uint256"
        },
        {
          "internalType": "uint256",
          "name": "postProcessingGas",
          "type": "uint256"
        },
        {
          "internalType": "contract BaseClient",
          "name": "client",
          "type": "address"
        },
        {
          "internalType": "address",
          "name": "executor",
          "type": "address"
        },
        {
          "internalType": "bytes",
          "name": "result",
          "type": "bytes"
        },
        {
          "internalType": "bool",
          "name": "closed",
          "type": "bool"
        }
      ],
      "stateMutability": "view",
      "type": "function"
    },
    {
      "inputs": [
        {
          "internalType": "bytes",
          "name": "input",
          "type": "bytes"
        },
        {
          "internalType": "uint256",
          "name": "postProcessingGas",
          "type": "uint256"
        }
      ],
      "name": "submitRequest",
      "outputs": [
        {
          "internalType": "uint256",
          "name": "",
          "type": "uint256"
        }
      ],
      "stateMutability": "payable",
      "type": "function"
    },
    {
      "inputs": [
        {
          "internalType": "uint256",
          "name": "requestID",
          "type": "uint256"
        },
        {
          "internalType": "bytes",
          "name": "result",
          "type": "bytes"
        }
      ],
      "name": "submitResult",
      "outputs": [
        {
          "internalType": "bool",
          "name": "",
          "type": "bool"
        }
      ],
      "stateMutability": "nonpayable",
      "type": "function"
    },
    {
      "inputs": [
        {
          "internalType": "address",
          "name": "",
          "type": "address"
        }
      ],
      "name": "weiBalances",
      "outputs": [
        {
          "internalType": "uint256",
          "name": "",
          "type": "uint256"
        }
      ],
      "stateMutability": "view",
      "type": "function"
    }
  ],
  "bytecode": "608060405234801561001057600080fd5b50604051611e90380380611e9083398101604081905261002f91610037565b600155610050565b60006020828403121561004957600080fd5b5051919050565b611e318061005f6000396000f3fe6080604052600436106100a75760003560e01c80635badbe4c116100645780635badbe4c146101765780636ef9e1451461019557806381d12c58146101c25780638813ce12146101f6578063dfad956514610218578063f1f15e4a1461022e57600080fd5b80630d45c199146100ac5780633015394c146100e157806349875db2146101015780634ba1f09814610121578063540a61781461013657806354c7d90614610156575b600080fd5b3480156100b857600080fd5b506100cc6100c7366004611753565b610241565b60405190151581526020015b60405180910390f35b3480156100ed57600080fd5b506100cc6100fc36600461177f565b610366565b34801561010d57600080fd5b506100cc61011c3660046117e1565b6105d5565b61013461012f36600461177f565b610bb1565b005b34801561014257600080fd5b5061013461015136600461177f565b610db3565b34801561016257600080fd5b5061013461017136600461177f565b610ea4565b34801561018257600080fd5b506002545b6040519081526020016100d8565b3480156101a157600080fd5b506101876101b036600461182d565b60006020819052908152604090205481565b3480156101ce57600080fd5b506101e26101dd36600461177f565b61116e565b6040516100d8989796959493929190611898565b34801561020257600080fd5b5061020b6112e6565b6040516100d89190611903565b34801561022457600080fd5b5061018760015481565b61018761023c3660046119f1565b6114be565b336000908152602081905260408120548311156102af5760405162461bcd60e51b815260206004820152602160248201527f53656e64657220646f6573206e6f74206861766520656e6f7567682066756e646044820152607360f81b60648201526084015b60405180910390fd5b33600090815260208190526040812080548592906102ce908490611a53565b909155505060405182906000906001600160a01b0383169086908381818185875af1925050503d8060008114610320576040519150601f19603f3d011682016040523d82523d6000602084013e610325565b606091505b505090508061035c576001600160a01b03841660009081526020819052604081208054879290610356908490611a66565b90915550505b9150505b92915050565b60006002828154811061037b5761037b611a79565b600091825260209091206007600890920201015460ff16156103d75760405162461bcd60e51b8152602060048201526015602482015274151a19481c995c5d595cdd081a5cc818db1bdcd959605a1b60448201526064016102a6565b600282815481106103ea576103ea611a79565b60009182526020909120600890910201600401546001600160a01b031633146104705760405162461bcd60e51b815260206004820152603260248201527f596f752063616e742063616e63656c20612072657175657374207468617420776044820152716173206e6f74206d61646520627920796f7560701b60648201526084016102a6565b60006001600160a01b03166002838154811061048e5761048e611a79565b60009182526020909120600560089092020101546001600160a01b0316146105045760405162461bcd60e51b815260206004820152602360248201527f596f752063616e742063616e63656c20616e2061636365707465642072657175604482015262195cdd60ea1b60648201526084016102a6565b60016002838154811061051957610519611a79565b600091825260209182902060089190910201600701805460ff1916921515929092179091556040518381527f1523a7600668f21efd095a2e4b78dc32da863f11b5b54ed0043034aeefd6442c910160405180910390a160006105ce6002848154811061058757610587611a79565b906000526020600020906008020160020154600285815481106105ac576105ac611a79565b60009182526020909120600460089092020101546001600160a01b0316611706565b9392505050565b6000806001600160a01b0316600285815481106105f4576105f4611a79565b60009182526020909120600560089092020101546001600160a01b03160361066a5760405162461bcd60e51b8152602060048201526024808201527f596f75206e65656420746f2061636365707420746865207265717565737420666044820152631a5c9cdd60e21b60648201526084016102a6565b6002848154811061067d5761067d611a79565b600091825260209091206007600890920201015460ff16156106e15760405162461bcd60e51b815260206004820152601d60248201527f546865207265717565737420697320616c726561647920636c6f73656400000060448201526064016102a6565b336001600160a01b0316600285815481106106fe576106fe611a79565b60009182526020909120600560089092020101546001600160a01b0316146107765760405162461bcd60e51b815260206004820152602560248201527f536f6d656f6e6520656c736520686173206163636570746564207468652052656044820152641c5d595cdd60da1b60648201526084016102a6565b6002848154811061078957610789611a79565b906000526020600020906008020160040160009054906101000a90046001600160a01b03166001600160a01b031663c91c7b37600286815481106107cf576107cf611a79565b906000526020600020906008020160010185856040518463ffffffff1660e01b815260040161080093929190611b46565b602060405180830381865afa15801561081d573d6000803e3d6000fd5b505050506040513d601f19601f820116820180604052508101906108419190611b8c565b15610a9b5782826002868154811061085b5761085b611a79565b90600052602060002090600802016006019182610879929190611c12565b5060016002858154811061088f5761088f611a79565b60009182526020822060089190910201600701805460ff19169215159290921790915560015460028054879081106108c9576108c9611a79565b9060005260206000209060080201600201546108e59190611a66565b905060006108f38233611706565b6040805188815282151560208201529192507f3a9d74378077c9f5b32fc00fedf52e35e392cd3621eef9e4038d12634df5dd58910160405180910390a1600063cb39274760e01b6002888154811061094d5761094d611a79565b906000526020600020906008020160060160405160240161096e9190611cd3565b604051602081830303815290604052906001600160e01b0319166020820180516001600160e01b03838183161783525050505090506000600288815481106109b8576109b8611a79565b6000918252602090912060046008909202010154600280546001600160a01b03909216918a9081106109ec576109ec611a79565b90600052602060002090600802016003015483604051610a0c9190611ce6565b60006040518083038160008787f1925050503d8060008114610a4a576040519150601f19603f3d011682016040523d82523d6000602084013e610a4f565b606091505b5050604080518a815282151560208201529192507fa531c8f4bbf2a18049d85528bb5aaae66874af94bcb325738ee729a2b6cf8428910160405180910390a160019450505050506105ce565b600060028581548110610ab057610ab0611a79565b906000526020600020906008020160050160006101000a8154816001600160a01b0302191690836001600160a01b031602179055506000610b0b6064600154605f610afb9190611d02565b610b059190611d19565b33611706565b90507f8d2c03fca17b18f205938c2e2849aec3a5eadd9ca5de6d1d82d4a561c556759d8560028781548110610b4257610b42611a79565b60009182526020918290206002600890920201015460408051938452918301528315159082015260600160405180910390a1610ba560646001546005610b889190611d02565b610b929190611d19565b600287815481106105ac576105ac611a79565b50600095945050505050565b60028181548110610bc457610bc4611a79565b600091825260209091206007600890920201015460ff1615610c205760405162461bcd60e51b8152602060048201526015602482015274151a19481c995c5d595cdd081a5cc818db1bdcd959605a1b60448201526064016102a6565b60006001600160a01b031660028281548110610c3e57610c3e611a79565b60009182526020909120600560089092020101546001600160a01b031614610cc05760405162461bcd60e51b815260206004820152602f60248201527f546865726520616c726561647920697320616e20616363657074616e6365206660448201526e1bdc881d1a1a5cc81c995c5d595cdd608a1b60648201526084016102a6565b6001543414610d1c5760405162461bcd60e51b815260206004820152602260248201527f496e636f727265637420616d6f756e74206f66207374616b652070726f766964604482015261195960f21b60648201526084016102a6565b3360028281548110610d3057610d30611a79565b906000526020600020906008020160050160006101000a8154816001600160a01b0302191690836001600160a01b031602179055507f08f298fd72dbd217fb0a6d75ebb7814f41823b563772413db23636b1600a0aca8133604051610da89291909182526001600160a01b0316602082015260400190565b60405180910390a150565b60006001600160a01b031660028281548110610dd157610dd1611a79565b60009182526020909120600560089092020101546001600160a01b031614610e465760405162461bcd60e51b815260206004820152602260248201527f596f752063616e74207075626c6963697a6520612074616b656e2072657175656044820152611cdd60f21b60648201526084016102a6565b7f179928cdd6b95a06e7b333f9371e3b93a5421dc0a2d8c7039619e7bc1c433eeb8160028381548110610e7b57610e7b611a79565b906000526020600020906008020160020154604051610da8929190918252602082015260400190565b60006001600160a01b031660028281548110610ec257610ec2611a79565b60009182526020909120600560089092020101546001600160a01b031603610f445760405162461bcd60e51b815260206004820152602f60248201527f5468657265206973206e6f206163636570746f7220666f72207468652070726f60448201526e1d9a591959081c995c5d595cdd1251608a1b60648201526084016102a6565b60028181548110610f5757610f57611a79565b600091825260209091206007600890920201015460ff1615610fb45760405162461bcd60e51b8152602060048201526016602482015275151a1a5cc81c995c5d595cdd081a5cc818db1bdcd95960521b60448201526064016102a6565b336001600160a01b031660028281548110610fd157610fd1611a79565b60009182526020909120600560089092020101546001600160a01b0316146110615760405162461bcd60e51b815260206004820152603960248201527f596f752063616e742063616e63656c20616e20616363657074616e636520746860448201527f617420646f6573206e6f742062656c6f6e6720746f20796f750000000000000060648201526084016102a6565b60006002828154811061107657611076611a79565b906000526020600020906008020160050160006101000a8154816001600160a01b0302191690836001600160a01b0316021790555060006110c16064600154605f610afb9190611d02565b90507f233aebe1d7c90b97e1fe6ce1e226cca4feee120bc312447d954c577a9e2255e482600284815481106110f8576110f8611a79565b600091825260209182902060089091020160050154604080519384526001600160a01b03909116918301919091528315159082015260600160405180910390a16111696064600154600561114c9190611d02565b6111569190611d19565b600284815481106105ac576105ac611a79565b505050565b6002818154811061117e57600080fd5b600091825260209091206008909102018054600182018054919350906111a390611a8f565b80601f01602080910402602001604051908101604052809291908181526020018280546111cf90611a8f565b801561121c5780601f106111f15761010080835404028352916020019161121c565b820191906000526020600020905b8154815290600101906020018083116111ff57829003601f168201915b5050506002840154600385015460048601546005870154600688018054979894979396506001600160a01b0392831695509116929161125a90611a8f565b80601f016020809104026020016040519081016040528092919081815260200182805461128690611a8f565b80156112d35780601f106112a8576101008083540402835291602001916112d3565b820191906000526020600020905b8154815290600101906020018083116112b657829003601f168201915b5050506007909301549192505060ff1688565b60606002805480602002602001604051908101604052809291908181526020016000905b828210156114b55783829060005260206000209060080201604051806101000160405290816000820154815260200160018201805461134890611a8f565b80601f016020809104026020016040519081016040528092919081815260200182805461137490611a8f565b80156113c15780601f10611396576101008083540402835291602001916113c1565b820191906000526020600020905b8154815290600101906020018083116113a457829003601f168201915b5050509183525050600282015460208201526003820154604082015260048201546001600160a01b039081166060830152600583015416608082015260068201805460a09092019161141290611a8f565b80601f016020809104026020016040519081016040528092919081815260200182805461143e90611a8f565b801561148b5780601f106114605761010080835404028352916020019161148b565b820191906000526020600020905b81548152906001019060200180831161146e57829003601f168201915b50505091835250506007919091015460ff161515602091820152908252600192909201910161130a565b50505050905090565b60006114ca3a83611d02565b341161153e5760405162461bcd60e51b815260206004820152603f60248201527f54686520706f73742070726f63657373696e67206761732063616e6e6f74207460448201527f616b65757020616c6c206f662074686520737570706c6965642065746865720060648201526084016102a6565b6000604051806101000160405280600280549050815260200186868080601f0160208091040260200160405190810160405280939291908181526020018383808284376000920182905250938552505034602080850182905260408086018a9052336060870152608086018590528051808301869052815180820384018152908201825260a087015260c09095019390935284518451908152928301525081519293507f179928cdd6b95a06e7b333f9371e3b93a5421dc0a2d8c7039619e7bc1c433eeb929081900390910190a160028054600181018255600091909152815160089091027f405787fa12a823e0f2b7631cc41b3ba8828b3321ca811111fa75cd3aa3bb5ace810191825560208301518392917f405787fa12a823e0f2b7631cc41b3ba8828b3321ca811111fa75cd3aa3bb5acf019061167e9082611d3b565b50604082015160028201556060820151600382015560808201516004820180546001600160a01b039283166001600160a01b03199182161790915560a084015160058401805491909316911617905560c082015160068201906116e19082611d3b565b5060e091909101516007909101805460ff191691151591909117905551949350505050565b33600090815260208190526040812080548491908390611727908490611a66565b909155506105ce90508383610241565b80356001600160a01b038116811461174e57600080fd5b919050565b6000806040838503121561176657600080fd5b8235915061177660208401611737565b90509250929050565b60006020828403121561179157600080fd5b5035919050565b60008083601f8401126117aa57600080fd5b50813567ffffffffffffffff8111156117c257600080fd5b6020830191508360208285010111156117da57600080fd5b9250929050565b6000806000604084860312156117f657600080fd5b83359250602084013567ffffffffffffffff81111561181457600080fd5b61182086828701611798565b9497909650939450505050565b60006020828403121561183f57600080fd5b6105ce82611737565b60005b8381101561186357818101518382015260200161184b565b50506000910152565b60008151808452611884816020860160208601611848565b601f01601f19169290920160200192915050565b60006101008a83528060208401526118b28184018b61186c565b604084018a9052606084018990526001600160a01b038881166080860152871660a085015283810360c085015290506118eb818661186c565b91505082151560e08301529998505050505050505050565b60006020808301818452808551808352604092508286019150828160051b87010184880160005b838110156119e357603f1989840301855281516101008151855288820151818a8701526119598287018261186c565b838a0151878b0152606080850151908801526080808501516001600160a01b03169088015260a080850151919350915061199d828801826001600160a01b03169052565b505060c080830151868303828801526119b6838261186c565b9250505060e08083015192506119cf8187018415159052565b50958801959350509086019060010161192a565b509098975050505050505050565b600080600060408486031215611a0657600080fd5b833567ffffffffffffffff811115611a1d57600080fd5b611a2986828701611798565b909790965060209590950135949350505050565b634e487b7160e01b600052601160045260246000fd5b8181038181111561036057610360611a3d565b8082018082111561036057610360611a3d565b634e487b7160e01b600052603260045260246000fd5b600181811c90821680611aa357607f821691505b602082108103611ac357634e487b7160e01b600052602260045260246000fd5b50919050565b60008154611ad681611a8f565b808552602060018381168015611af35760018114611b0d57611b3b565b60ff1985168884015283151560051b880183019550611b3b565b866000528260002060005b85811015611b335781548a8201860152908301908401611b18565b890184019650505b505050505092915050565b604081526000611b596040830186611ac9565b8281036020840152838152838560208301376000602085830101526020601f19601f860116820101915050949350505050565b600060208284031215611b9e57600080fd5b815180151581146105ce57600080fd5b634e487b7160e01b600052604160045260246000fd5b601f82111561116957600081815260208120601f850160051c81016020861015611beb5750805b601f850160051c820191505b81811015611c0a57828155600101611bf7565b505050505050565b67ffffffffffffffff831115611c2a57611c2a611bae565b611c3e83611c388354611a8f565b83611bc4565b6000601f841160018114611c725760008515611c5a5750838201355b600019600387901b1c1916600186901b178355611ccc565b600083815260209020601f19861690835b82811015611ca35786850135825560209485019460019092019101611c83565b5086821015611cc05760001960f88860031b161c19848701351681555b505060018560011b0183555b5050505050565b6020815260006105ce6020830184611ac9565b60008251611cf8818460208701611848565b9190910192915050565b808202811582820484141761036057610360611a3d565b600082611d3657634e487b7160e01b600052601260045260246000fd5b500490565b815167ffffffffffffffff811115611d5557611d55611bae565b611d6981611d638454611a8f565b84611bc4565b602080601f831160018114611d9e5760008415611d865750858301515b600019600386901b1c1916600185901b178555611c0a565b600085815260208120601f198616915b82811015611dcd57888601518255948401946001909101908401611dae565b5085821015611deb5787850151600019600388901b60f8161c191681555b5050505050600190811b0190555056fea264697066735822122080f8e17b24fef3b5a281c74fc72fc73a57f292995ec705ce1276b12aeec6bab964736f6c63430008130033",
  "bytecodeSha1": "7abbc4d3adca4db6589bf077684340e0a9719cf0",
  "compiler": {
    "evm_version": "istanbul",
    "optimizer": {
      "enabled": true,
      "runs": 200
    },
    "version": "0.8.19+commit.7dd6d404"
  },
  "contractName": "ExecutionBroker",
  "language": "Solidity",
  "natspec": {
    "kind": "dev",
    "methods": {},
    "version": 1
  },
  "opcodes": "PUSH1 0x80 PUSH1 0x40 MSTORE PUSH1 0x4 CALLDATASIZE LT PUSH2 0xA7 JUMPI PUSH1 0x0 CALLDATALOAD PUSH1 0xE0 SHR DUP1 PUSH4 0x5BADBE4C GT PUSH2 0x64 JUMPI DUP1 PUSH4 0x5BADBE4C EQ PUSH2 0x176 JUMPI DUP1 PUSH4 0x6EF9E145 EQ PUSH2 0x195 JUMPI DUP1 PUSH4 0x81D12C58 EQ PUSH2 0x1C2 JUMPI DUP1 PUSH4 0x8813CE12 EQ PUSH2 0x1F6 JUMPI DUP1 PUSH4 0xDFAD9565 EQ PUSH2 0x218 JUMPI DUP1 PUSH4 0xF1F15E4A EQ PUSH2 0x22E JUMPI PUSH1 0x0 DUP1 REVERT JUMPDEST DUP1 PUSH4 0xD45C199 EQ PUSH2 0xAC JUMPI DUP1 PUSH4 0x3015394C EQ PUSH2 0xE1 JUMPI DUP1 PUSH4 0x49875DB2 EQ PUSH2 0x101 JUMPI DUP1 PUSH4 0x4BA1F098 EQ PUSH2 0x121 JUMPI DUP1 PUSH4 0x540A6178 EQ PUSH2 0x136 JUMPI DUP1 PUSH4 0x54C7D906 EQ PUSH2 0x156 JUMPI JUMPDEST PUSH1 0x0 DUP1 REVERT JUMPDEST CALLVALUE DUP1 ISZERO PUSH2 0xB8 JUMPI PUSH1 0x0 DUP1 REVERT JUMPDEST POP PUSH2 0xCC PUSH2 0xC7 CALLDATASIZE PUSH1 0x4 PUSH2 0x1753 JUMP JUMPDEST PUSH2 0x241 JUMP JUMPDEST PUSH1 0x40 MLOAD SWAP1 ISZERO ISZERO DUP2 MSTORE PUSH1 0x20 ADD JUMPDEST PUSH1 0x40 MLOAD DUP1 SWAP2 SUB SWAP1 RETURN JUMPDEST CALLVALUE DUP1 ISZERO PUSH2 0xED JUMPI PUSH1 0x0 DUP1 REVERT JUMPDEST POP PUSH2 0xCC PUSH2 0xFC CALLDATASIZE PUSH1 0x4 PUSH2 0x177F JUMP JUMPDEST PUSH2 0x366 JUMP JUMPDEST CALLVALUE DUP1 ISZERO PUSH2 0x10D JUMPI PUSH1 0x0 DUP1 REVERT JUMPDEST POP PUSH2 0xCC PUSH2 0x11C CALLDATASIZE PUSH1 0x4 PUSH2 0x17E1 JUMP JUMPDEST PUSH2 0x5D5 JUMP JUMPDEST PUSH2 0x134 PUSH2 0x12F CALLDATASIZE PUSH1 0x4 PUSH2 0x177F JUMP JUMPDEST PUSH2 0xBB1 JUMP JUMPDEST STOP JUMPDEST CALLVALUE DUP1 ISZERO PUSH2 0x142 JUMPI PUSH1 0x0 DUP1 REVERT JUMPDEST POP PUSH2 0x134 PUSH2 0x151 CALLDATASIZE PUSH1 0x4 PUSH2 0x177F JUMP JUMPDEST PUSH2 0xDB3 JUMP JUMPDEST CALLVALUE DUP1 ISZERO PUSH2 0x162 JUMPI PUSH1 0x0 DUP1 REVERT JUMPDEST POP PUSH2 0x134 PUSH2 0x171 CALLDATASIZE PUSH1 0x4 PUSH2 0x177F JUMP JUMPDEST PUSH2 0xEA4 JUMP JUMPDEST CALLVALUE DUP1 ISZERO PUSH2 0x182 JUMPI PUSH1 0x0 DUP1 REVERT JUMPDEST POP PUSH1 0x2 SLOAD JUMPDEST PUSH1 0x40 MLOAD SWAP1 DUP2 MSTORE PUSH1 0x20 ADD PUSH2 0xD8 JUMP JUMPDEST CALLVALUE DUP1 ISZERO PUSH2 0x1A1 JUMPI PUSH1 0x0 DUP1 REVERT JUMPDEST POP PUSH2 0x187 PUSH2 0x1B0 CALLDATASIZE PUSH1 0x4 PUSH2 0x182D JUMP JUMPDEST PUSH1 0x0 PUSH1 0x20 DUP2 SWAP1 MSTORE SWAP1 DUP2 MSTORE PUSH1 0x40 SWAP1 KECCAK256 SLOAD DUP2 JUMP JUMPDEST CALLVALUE DUP1 ISZERO PUSH2 0x1CE JUMPI PUSH1 0x0 DUP1 REVERT JUMPDEST POP PUSH2 0x1E2 PUSH2 0x1DD CALLDATASIZE PUSH1 0x4 PUSH2 0x177F JUMP JUMPDEST PUSH2 0x116E JUMP JUMPDEST PUSH1 0x40 MLOAD PUSH2 0xD8 SWAP9 SWAP8 SWAP7 SWAP6 SWAP5 SWAP4 SWAP3 SWAP2 SWAP1 PUSH2 0x1898 JUMP JUMPDEST CALLVALUE DUP1 ISZERO PUSH2 0x202 JUMPI PUSH1 0x0 DUP1 REVERT JUMPDEST POP PUSH2 0x20B PUSH2 0x12E6 JUMP JUMPDEST PUSH1 0x40 MLOAD PUSH2 0xD8 SWAP2 SWAP1 PUSH2 0x1903 JUMP JUMPDEST CALLVALUE DUP1 ISZERO PUSH2 0x224 JUMPI PUSH1 0x0 DUP1 REVERT JUMPDEST POP PUSH2 0x187 PUSH1 0x1 SLOAD DUP2 JUMP JUMPDEST PUSH2 0x187 PUSH2 0x23C CALLDATASIZE PUSH1 0x4 PUSH2 0x19F1 JUMP JUMPDEST PUSH2 0x14BE JUMP JUMPDEST CALLER PUSH1 0x0 SWAP1 DUP2 MSTORE PUSH1 0x20 DUP2 SWAP1 MSTORE PUSH1 0x40 DUP2 KECCAK256 SLOAD DUP4 GT ISZERO PUSH2 0x2AF JUMPI PUSH1 0x40 MLOAD PUSH3 0x461BCD PUSH1 0xE5 SHL DUP2 MSTORE PUSH1 0x20 PUSH1 0x4 DUP3 ADD MSTORE PUSH1 0x21 PUSH1 0x24 DUP3 ADD MSTORE PUSH32 0x53656E64657220646F6573206E6F74206861766520656E6F7567682066756E64 PUSH1 0x44 DUP3 ADD MSTORE PUSH1 0x73 PUSH1 0xF8 SHL PUSH1 0x64 DUP3 ADD MSTORE PUSH1 0x84 ADD JUMPDEST PUSH1 0x40 MLOAD DUP1 SWAP2 SUB SWAP1 REVERT JUMPDEST CALLER PUSH1 0x0 SWAP1 DUP2 MSTORE PUSH1 0x20 DUP2 SWAP1 MSTORE PUSH1 0x40 DUP2 KECCAK256 DUP1 SLOAD DUP6 SWAP3 SWAP1 PUSH2 0x2CE SWAP1 DUP5 SWAP1 PUSH2 0x1A53 JUMP JUMPDEST SWAP1 SWAP2 SSTORE POP POP PUSH1 0x40 MLOAD DUP3 SWAP1 PUSH1 0x0 SWAP1 PUSH1 0x1 PUSH1 0x1 PUSH1 0xA0 SHL SUB DUP4 AND SWAP1 DUP7 SWAP1 DUP4 DUP2 DUP2 DUP2 DUP6 DUP8 GAS CALL SWAP3 POP POP POP RETURNDATASIZE DUP1 PUSH1 0x0 DUP2 EQ PUSH2 0x320 JUMPI PUSH1 0x40 MLOAD SWAP2 POP PUSH1 0x1F NOT PUSH1 0x3F RETURNDATASIZE ADD AND DUP3 ADD PUSH1 0x40 MSTORE RETURNDATASIZE DUP3 MSTORE RETURNDATASIZE PUSH1 0x0 PUSH1 0x20 DUP5 ADD RETURNDATACOPY PUSH2 0x325 JUMP JUMPDEST PUSH1 0x60 SWAP2 POP JUMPDEST POP POP SWAP1 POP DUP1 PUSH2 0x35C JUMPI PUSH1 0x1 PUSH1 0x1 PUSH1 0xA0 SHL SUB DUP5 AND PUSH1 0x0 SWAP1 DUP2 MSTORE PUSH1 0x20 DUP2 SWAP1 MSTORE PUSH1 0x40 DUP2 KECCAK256 DUP1 SLOAD DUP8 SWAP3 SWAP1 PUSH2 0x356 SWAP1 DUP5 SWAP1 PUSH2 0x1A66 JUMP JUMPDEST SWAP1 SWAP2 SSTORE POP POP JUMPDEST SWAP2 POP POP JUMPDEST SWAP3 SWAP2 POP POP JUMP JUMPDEST PUSH1 0x0 PUSH1 0x2 DUP3 DUP2 SLOAD DUP2 LT PUSH2 0x37B JUMPI PUSH2 0x37B PUSH2 0x1A79 JUMP JUMPDEST PUSH1 0x0 SWAP2 DUP3 MSTORE PUSH1 0x20 SWAP1 SWAP2 KECCAK256 PUSH1 0x7 PUSH1 0x8 SWAP1 SWAP3 MUL ADD ADD SLOAD PUSH1 0xFF AND ISZERO PUSH2 0x3D7 JUMPI PUSH1 0x40 MLOAD PUSH3 0x461BCD PUSH1 0xE5 SHL DUP2 MSTORE PUSH1 0x20 PUSH1 0x4 DUP3 ADD MSTORE PUSH1 0x15 PUSH1 0x24 DUP3 ADD MSTORE PUSH21 0x151A19481C995C5D595CDD081A5CC818DB1BDCD959 PUSH1 0x5A SHL PUSH1 0x44 DUP3 ADD MSTORE PUSH1 0x64 ADD PUSH2 0x2A6 JUMP JUMPDEST PUSH1 0x2 DUP3 DUP2 SLOAD DUP2 LT PUSH2 0x3EA JUMPI PUSH2 0x3EA PUSH2 0x1A79 JUMP JUMPDEST PUSH1 0x0 SWAP2 DUP3 MSTORE PUSH1 0x20 SWAP1 SWAP2 KECCAK256 PUSH1 0x8 SWAP1 SWAP2 MUL ADD PUSH1 0x4 ADD SLOAD PUSH1 0x1 PUSH1 0x1 PUSH1 0xA0 SHL SUB AND CALLER EQ PUSH2 0x470 JUMPI PUSH1 0x40 MLOAD PUSH3 0x461BCD PUSH1 0xE5 SHL DUP2 MSTORE PUSH1 0x20 PUSH1 0x4 DUP3 ADD MSTORE PUSH1 0x32 PUSH1 0x24 DUP3 ADD MSTORE PUSH32 0x596F752063616E742063616E63656C2061207265717565737420746861742077 PUSH1 0x44 DUP3 ADD MSTORE PUSH18 0x6173206E6F74206D61646520627920796F75 PUSH1 0x70 SHL PUSH1 0x64 DUP3 ADD MSTORE PUSH1 0x84 ADD PUSH2 0x2A6 JUMP JUMPDEST PUSH1 0x0 PUSH1 0x1 PUSH1 0x1 PUSH1 0xA0 SHL SUB AND PUSH1 0x2 DUP4 DUP2 SLOAD DUP2 LT PUSH2 0x48E JUMPI PUSH2 0x48E PUSH2 0x1A79 JUMP JUMPDEST PUSH1 0x0 SWAP2 DUP3 MSTORE PUSH1 0x20 SWAP1 SWAP2 KECCAK256 PUSH1 0x5 PUSH1 0x8 SWAP1 SWAP3 MUL ADD ADD SLOAD PUSH1 0x1 PUSH1 0x1 PUSH1 0xA0 SHL SUB AND EQ PUSH2 0x504 JUMPI PUSH1 0x40 MLOAD PUSH3 0x461BCD PUSH1 0xE5 SHL DUP2 MSTORE PUSH1 0x20 PUSH1 0x4 DUP3 ADD MSTORE PUSH1 0x23 PUSH1 0x24 DUP3 ADD MSTORE PUSH32 0x596F752063616E742063616E63656C20616E2061636365707465642072657175 PUSH1 0x44 DUP3 ADD MSTORE PUSH3 0x195CDD PUSH1 0xEA SHL PUSH1 0x64 DUP3 ADD MSTORE PUSH1 0x84 ADD PUSH2 0x2A6 JUMP JUMPDEST PUSH1 0x1 PUSH1 0x2 DUP4 DUP2 SLOAD DUP2 LT PUSH2 0x519 JUMPI PUSH2 0x519 PUSH2 0x1A79 JUMP JUMPDEST PUSH1 0x0 SWAP2 DUP3 MSTORE PUSH1 0x20 SWAP2 DUP3 SWAP1 KECCAK256 PUSH1 0x8 SWAP2 SWAP1 SWAP2 MUL ADD PUSH1 0x7 ADD DUP1 SLOAD PUSH1 0xFF NOT AND SWAP3 ISZERO ISZERO SWAP3 SWAP1 SWAP3 OR SWAP1 SWAP2 SSTORE PUSH1 0x40 MLOAD DUP4 DUP2 MSTORE PUSH32 0x1523A7600668F21EFD095A2E4B78DC32DA863F11B5B54ED0043034AEEFD6442C SWAP2 ADD PUSH1 0x40 MLOAD DUP1 SWAP2 SUB SWAP1 LOG1 PUSH1 0x0 PUSH2 0x5CE PUSH1 0x2 DUP5 DUP2 SLOAD DUP2 LT PUSH2 0x587 JUMPI PUSH2 0x587 PUSH2 0x1A79 JUMP JUMPDEST SWAP1 PUSH1 0x0 MSTORE PUSH1 0x20 PUSH1 0x0 KECCAK256 SWAP1 PUSH1 0x8 MUL ADD PUSH1 0x2 ADD SLOAD PUSH1 0x2 DUP6 DUP2 SLOAD DUP2 LT PUSH2 0x5AC JUMPI PUSH2 0x5AC PUSH2 0x1A79 JUMP JUMPDEST PUSH1 0x0 SWAP2 DUP3 MSTORE PUSH1 0x20 SWAP1 SWAP2 KECCAK256 PUSH1 0x4 PUSH1 0x8 SWAP1 SWAP3 MUL ADD ADD SLOAD PUSH1 0x1 PUSH1 0x1 PUSH1 0xA0 SHL SUB AND PUSH2 0x1706 JUMP JUMPDEST SWAP4 SWAP3 POP POP POP JUMP JUMPDEST PUSH1 0x0 DUP1 PUSH1 0x1 PUSH1 0x1 PUSH1 0xA0 SHL SUB AND PUSH1 0x2 DUP6 DUP2 SLOAD DUP2 LT PUSH2 0x5F4 JUMPI PUSH2 0x5F4 PUSH2 0x1A79 JUMP JUMPDEST PUSH1 0x0 SWAP2 DUP3 MSTORE PUSH1 0x20 SWAP1 SWAP2 KECCAK256 PUSH1 0x5 PUSH1 0x8 SWAP1 SWAP3 MUL ADD ADD SLOAD PUSH1 0x1 PUSH1 0x1 PUSH1 0xA0 SHL SUB AND SUB PUSH2 0x66A JUMPI PUSH1 0x40 MLOAD PUSH3 0x461BCD PUSH1 0xE5 SHL DUP2 MSTORE PUSH1 0x20 PUSH1 0x4 DUP3 ADD MSTORE PUSH1 0x24 DUP1 DUP3 ADD MSTORE PUSH32 0x596F75206E65656420746F206163636570742074686520726571756573742066 PUSH1 0x44 DUP3 ADD MSTORE PUSH4 0x1A5C9CDD PUSH1 0xE2 SHL PUSH1 0x64 DUP3 ADD MSTORE PUSH1 0x84 ADD PUSH2 0x2A6 JUMP JUMPDEST PUSH1 0x2 DUP5 DUP2 SLOAD DUP2 LT PUSH2 0x67D JUMPI PUSH2 0x67D PUSH2 0x1A79 JUMP JUMPDEST PUSH1 0x0 SWAP2 DUP3 MSTORE PUSH1 0x20 SWAP1 SWAP2 KECCAK256 PUSH1 0x7 PUSH1 0x8 SWAP1 SWAP3 MUL ADD ADD SLOAD PUSH1 0xFF AND ISZERO PUSH2 0x6E1 JUMPI PUSH1 0x40 MLOAD PUSH3 0x461BCD PUSH1 0xE5 SHL DUP2 MSTORE PUSH1 0x20 PUSH1 0x4 DUP3 ADD MSTORE PUSH1 0x1D PUSH1 0x24 DUP3 ADD MSTORE PUSH32 0x546865207265717565737420697320616C726561647920636C6F736564000000 PUSH1 0x44 DUP3 ADD MSTORE PUSH1 0x64 ADD PUSH2 0x2A6 JUMP JUMPDEST CALLER PUSH1 0x1 PUSH1 0x1 PUSH1 0xA0 SHL SUB AND PUSH1 0x2 DUP6 DUP2 SLOAD DUP2 LT PUSH2 0x6FE JUMPI PUSH2 0x6FE PUSH2 0x1A79 JUMP JUMPDEST PUSH1 0x0 SWAP2 DUP3 MSTORE PUSH1 0x20 SWAP1 SWAP2 KECCAK256 PUSH1 0x5 PUSH1 0x8 SWAP1 SWAP3 MUL ADD ADD SLOAD PUSH1 0x1 PUSH1 0x1 PUSH1 0xA0 SHL SUB AND EQ PUSH2 0x776 JUMPI PUSH1 0x40 MLOAD PUSH3 0x461BCD PUSH1 0xE5 SHL DUP2 MSTORE PUSH1 0x20 PUSH1 0x4 DUP3 ADD MSTORE PUSH1 0x25 PUSH1 0x24 DUP3 ADD MSTORE PUSH32 0x536F6D656F6E6520656C73652068617320616363657074656420746865205265 PUSH1 0x44 DUP3 ADD MSTORE PUSH5 0x1C5D595CDD PUSH1 0xDA SHL PUSH1 0x64 DUP3 ADD MSTORE PUSH1 0x84 ADD PUSH2 0x2A6 JUMP JUMPDEST PUSH1 0x2 DUP5 DUP2 SLOAD DUP2 LT PUSH2 0x789 JUMPI PUSH2 0x789 PUSH2 0x1A79 JUMP JUMPDEST SWAP1 PUSH1 0x0 MSTORE PUSH1 0x20 PUSH1 0x0 KECCAK256 SWAP1 PUSH1 0x8 MUL ADD PUSH1 0x4 ADD PUSH1 0x0 SWAP1 SLOAD SWAP1 PUSH2 0x100 EXP SWAP1 DIV PUSH1 0x1 PUSH1 0x1 PUSH1 0xA0 SHL SUB AND PUSH1 0x1 PUSH1 0x1 PUSH1 0xA0 SHL SUB AND PUSH4 0xC91C7B37 PUSH1 0x2 DUP7 DUP2 SLOAD DUP2 LT PUSH2 0x7CF JUMPI PUSH2 0x7CF PUSH2 0x1A79 JUMP JUMPDEST SWAP1 PUSH1 0x0 MSTORE PUSH1 0x20 PUSH1 0x0 KECCAK256 SWAP1 PUSH1 0x8 MUL ADD PUSH1 0x1 ADD DUP6 DUP6 PUSH1 0x40 MLOAD DUP5 PUSH4 0xFFFFFFFF AND PUSH1 0xE0 SHL DUP2 MSTORE PUSH1 0x4 ADD PUSH2 0x800 SWAP4 SWAP3 SWAP2 SWAP1 PUSH2 0x1B46 JUMP JUMPDEST PUSH1 0x20 PUSH1 0x40 MLOAD DUP1 DUP4 SUB DUP2 DUP7 GAS STATICCALL ISZERO DUP1 ISZERO PUSH2 0x81D JUMPI RETURNDATASIZE PUSH1 0x0 DUP1 RETURNDATACOPY RETURNDATASIZE PUSH1 0x0 REVERT JUMPDEST POP POP POP POP PUSH1 0x40 MLOAD RETURNDATASIZE PUSH1 0x1F NOT PUSH1 0x1F DUP3 ADD AND DUP3 ADD DUP1 PUSH1 0x40 MSTORE POP DUP2 ADD SWAP1 PUSH2 0x841 SWAP2 SWAP1 PUSH2 0x1B8C JUMP JUMPDEST ISZERO PUSH2 0xA9B JUMPI DUP3 DUP3 PUSH1 0x2 DUP7 DUP2 SLOAD DUP2 LT PUSH2 0x85B JUMPI PUSH2 0x85B PUSH2 0x1A79 JUMP JUMPDEST SWAP1 PUSH1 0x0 MSTORE PUSH1 0x20 PUSH1 0x0 KECCAK256 SWAP1 PUSH1 0x8 MUL ADD PUSH1 0x6 ADD SWAP2 DUP3 PUSH2 0x879 SWAP3 SWAP2 SWAP1 PUSH2 0x1C12 JUMP JUMPDEST POP PUSH1 0x1 PUSH1 0x2 DUP6 DUP2 SLOAD DUP2 LT PUSH2 0x88F JUMPI PUSH2 0x88F PUSH2 0x1A79 JUMP JUMPDEST PUSH1 0x0 SWAP2 DUP3 MSTORE PUSH1 0x20 DUP3 KECCAK256 PUSH1 0x8 SWAP2 SWAP1 SWAP2 MUL ADD PUSH1 0x7 ADD DUP1 SLOAD PUSH1 0xFF NOT AND SWAP3 ISZERO ISZERO SWAP3 SWAP1 SWAP3 OR SWAP1 SWAP2 SSTORE PUSH1 0x1 SLOAD PUSH1 0x2 DUP1 SLOAD DUP8 SWAP1 DUP2 LT PUSH2 0x8C9 JUMPI PUSH2 0x8C9 PUSH2 0x1A79 JUMP JUMPDEST SWAP1 PUSH1 0x0 MSTORE PUSH1 0x20 PUSH1 0x0 KECCAK256 SWAP1 PUSH1 0x8 MUL ADD PUSH1 0x2 ADD SLOAD PUSH2 0x8E5 SWAP2 SWAP1 PUSH2 0x1A66 JUMP JUMPDEST SWAP1 POP PUSH1 0x0 PUSH2 0x8F3 DUP3 CALLER PUSH2 0x1706 JUMP JUMPDEST PUSH1 0x40 DUP1 MLOAD DUP9 DUP2 MSTORE DUP3 ISZERO ISZERO PUSH1 0x20 DUP3 ADD MSTORE SWAP2 SWAP3 POP PUSH32 0x3A9D74378077C9F5B32FC00FEDF52E35E392CD3621EEF9E4038D12634DF5DD58 SWAP2 ADD PUSH1 0x40 MLOAD DUP1 SWAP2 SUB SWAP1 LOG1 PUSH1 0x0 PUSH4 0xCB392747 PUSH1 0xE0 SHL PUSH1 0x2 DUP9 DUP2 SLOAD DUP2 LT PUSH2 0x94D JUMPI PUSH2 0x94D PUSH2 0x1A79 JUMP JUMPDEST SWAP1 PUSH1 0x0 MSTORE PUSH1 0x20 PUSH1 0x0 KECCAK256 SWAP1 PUSH1 0x8 MUL ADD PUSH1 0x6 ADD PUSH1 0x40 MLOAD PUSH1 0x24 ADD PUSH2 0x96E SWAP2 SWAP1 PUSH2 0x1CD3 JUMP JUMPDEST PUSH1 0x40 MLOAD PUSH1 0x20 DUP2 DUP4 SUB SUB DUP2 MSTORE SWAP1 PUSH1 0x40 MSTORE SWAP1 PUSH1 0x1 PUSH1 0x1 PUSH1 0xE0 SHL SUB NOT AND PUSH1 0x20 DUP3 ADD DUP1 MLOAD PUSH1 0x1 PUSH1 0x1 PUSH1 0xE0 SHL SUB DUP4 DUP2 DUP4 AND OR DUP4 MSTORE POP POP POP POP SWAP1 POP PUSH1 0x0 PUSH1 0x2 DUP9 DUP2 SLOAD DUP2 LT PUSH2 0x9B8 JUMPI PUSH2 0x9B8 PUSH2 0x1A79 JUMP JUMPDEST PUSH1 0x0 SWAP2 DUP3 MSTORE PUSH1 0x20 SWAP1 SWAP2 KECCAK256 PUSH1 0x4 PUSH1 0x8 SWAP1 SWAP3 MUL ADD ADD SLOAD PUSH1 0x2 DUP1 SLOAD PUSH1 0x1 PUSH1 0x1 PUSH1 0xA0 SHL SUB SWAP1 SWAP3 AND SWAP2 DUP11 SWAP1 DUP2 LT PUSH2 0x9EC JUMPI PUSH2 0x9EC PUSH2 0x1A79 JUMP JUMPDEST SWAP1 PUSH1 0x0 MSTORE PUSH1 0x20 PUSH1 0x0 KECCAK256 SWAP1 PUSH1 0x8 MUL ADD PUSH1 0x3 ADD SLOAD DUP4 PUSH1 0x40 MLOAD PUSH2 0xA0C SWAP2 SWAP1 PUSH2 0x1CE6 JUMP JUMPDEST PUSH1 0x0 PUSH1 0x40 MLOAD DUP1 DUP4 SUB DUP2 PUSH1 0x0 DUP8 DUP8 CALL SWAP3 POP POP POP RETURNDATASIZE DUP1 PUSH1 0x0 DUP2 EQ PUSH2 0xA4A JUMPI PUSH1 0x40 MLOAD SWAP2 POP PUSH1 0x1F NOT PUSH1 0x3F RETURNDATASIZE ADD AND DUP3 ADD PUSH1 0x40 MSTORE RETURNDATASIZE DUP3 MSTORE RETURNDATASIZE PUSH1 0x0 PUSH1 0x20 DUP5 ADD RETURNDATACOPY PUSH2 0xA4F JUMP JUMPDEST PUSH1 0x60 SWAP2 POP JUMPDEST POP POP PUSH1 0x40 DUP1 MLOAD DUP11 DUP2 MSTORE DUP3 ISZERO ISZERO PUSH1 0x20 DUP3 ADD MSTORE SWAP2 SWAP3 POP PUSH32 0xA531C8F4BBF2A18049D85528BB5AAAE66874AF94BCB325738EE729A2B6CF8428 SWAP2 ADD PUSH1 0x40 MLOAD DUP1 SWAP2 SUB SWAP1 LOG1 PUSH1 0x1 SWAP5 POP POP POP POP POP PUSH2 0x5CE JUMP JUMPDEST PUSH1 0x0 PUSH1 0x2 DUP6 DUP2 SLOAD DUP2 LT PUSH2 0xAB0 JUMPI PUSH2 0xAB0 PUSH2 0x1A79 JUMP JUMPDEST SWAP1 PUSH1 0x0 MSTORE PUSH1 0x20 PUSH1 0x0 KECCAK256 SWAP1 PUSH1 0x8 MUL ADD PUSH1 0x5 ADD PUSH1 0x0 PUSH2 0x100 EXP DUP2 SLOAD DUP2 PUSH1 0x1 PUSH1 0x1 PUSH1 0xA0 SHL SUB MUL NOT AND SWAP1 DUP4 PUSH1 0x1 PUSH1 0x1 PUSH1 0xA0 SHL SUB AND MUL OR SWAP1 SSTORE POP PUSH1 0x0 PUSH2 0xB0B PUSH1 0x64 PUSH1 0x1 SLOAD PUSH1 0x5F PUSH2 0xAFB SWAP2 SWAP1 PUSH2 0x1D02 JUMP JUMPDEST PUSH2 0xB05 SWAP2 SWAP1 PUSH2 0x1D19 JUMP JUMPDEST CALLER PUSH2 0x1706 JUMP JUMPDEST SWAP1 POP PUSH32 0x8D2C03FCA17B18F205938C2E2849AEC3A5EADD9CA5DE6D1D82D4A561C556759D DUP6 PUSH1 0x2 DUP8 DUP2 SLOAD DUP2 LT PUSH2 0xB42 JUMPI PUSH2 0xB42 PUSH2 0x1A79 JUMP JUMPDEST PUSH1 0x0 SWAP2 DUP3 MSTORE PUSH1 0x20 SWAP2 DUP3 SWAP1 KECCAK256 PUSH1 0x2 PUSH1 0x8 SWAP1 SWAP3 MUL ADD ADD SLOAD PUSH1 0x40 DUP1 MLOAD SWAP4 DUP5 MSTORE SWAP2 DUP4 ADD MSTORE DUP4 ISZERO ISZERO SWAP1 DUP3 ADD MSTORE PUSH1 0x60 ADD PUSH1 0x40 MLOAD DUP1 SWAP2 SUB SWAP1 LOG1 PUSH2 0xBA5 PUSH1 0x64 PUSH1 0x1 SLOAD PUSH1 0x5 PUSH2 0xB88 SWAP2 SWAP1 PUSH2 0x1D02 JUMP JUMPDEST PUSH2 0xB92 SWAP2 SWAP1 PUSH2 0x1D19 JUMP JUMPDEST PUSH1 0x2 DUP8 DUP2 SLOAD DUP2 LT PUSH2 0x5AC JUMPI PUSH2 0x5AC PUSH2 0x1A79 JUMP JUMPDEST POP PUSH1 0x0 SWAP6 SWAP5 POP POP POP POP POP JUMP JUMPDEST PUSH1 0x2 DUP2 DUP2 SLOAD DUP2 LT PUSH2 0xBC4 JUMPI PUSH2 0xBC4 PUSH2 0x1A79 JUMP JUMPDEST PUSH1 0x0 SWAP2 DUP3 MSTORE PUSH1 0x20 SWAP1 SWAP2 KECCAK256 PUSH1 0x7 PUSH1 0x8 SWAP1 SWAP3 MUL ADD ADD SLOAD PUSH1 0xFF AND ISZERO PUSH2 0xC20 JUMPI PUSH1 0x40 MLOAD PUSH3 0x461BCD PUSH1 0xE5 SHL DUP2 MSTORE PUSH1 0x20 PUSH1 0x4 DUP3 ADD MSTORE PUSH1 0x15 PUSH1 0x24 DUP3 ADD MSTORE PUSH21 0x151A19481C995C5D595CDD081A5CC818DB1BDCD959 PUSH1 0x5A SHL PUSH1 0x44 DUP3 ADD MSTORE PUSH1 0x64 ADD PUSH2 0x2A6 JUMP JUMPDEST PUSH1 0x0 PUSH1 0x1 PUSH1 0x1 PUSH1 0xA0 SHL SUB AND PUSH1 0x2 DUP3 DUP2 SLOAD DUP2 LT PUSH2 0xC3E JUMPI PUSH2 0xC3E PUSH2 0x1A79 JUMP JUMPDEST PUSH1 0x0 SWAP2 DUP3 MSTORE PUSH1 0x20 SWAP1 SWAP2 KECCAK256 PUSH1 0x5 PUSH1 0x8 SWAP1 SWAP3 MUL ADD ADD SLOAD PUSH1 0x1 PUSH1 0x1 PUSH1 0xA0 SHL SUB AND EQ PUSH2 0xCC0 JUMPI PUSH1 0x40 MLOAD PUSH3 0x461BCD PUSH1 0xE5 SHL DUP2 MSTORE PUSH1 0x20 PUSH1 0x4 DUP3 ADD MSTORE PUSH1 0x2F PUSH1 0x24 DUP3 ADD MSTORE PUSH32 0x546865726520616C726561647920697320616E20616363657074616E63652066 PUSH1 0x44 DUP3 ADD MSTORE PUSH15 0x1BDC881D1A1A5CC81C995C5D595CDD PUSH1 0x8A SHL PUSH1 0x64 DUP3 ADD MSTORE PUSH1 0x84 ADD PUSH2 0x2A6 JUMP JUMPDEST PUSH1 0x1 SLOAD CALLVALUE EQ PUSH2 0xD1C JUMPI PUSH1 0x40 MLOAD PUSH3 0x461BCD PUSH1 0xE5 SHL DUP2 MSTORE PUSH1 0x20 PUSH1 0x4 DUP3 ADD MSTORE PUSH1 0x22 PUSH1 0x24 DUP3 ADD MSTORE PUSH32 0x496E636F727265637420616D6F756E74206F66207374616B652070726F766964 PUSH1 0x44 DUP3 ADD MSTORE PUSH2 0x1959 PUSH1 0xF2 SHL PUSH1 0x64 DUP3 ADD MSTORE PUSH1 0x84 ADD PUSH2 0x2A6 JUMP JUMPDEST CALLER PUSH1 0x2 DUP3 DUP2 SLOAD DUP2 LT PUSH2 0xD30 JUMPI PUSH2 0xD30 PUSH2 0x1A79 JUMP JUMPDEST SWAP1 PUSH1 0x0 MSTORE PUSH1 0x20 PUSH1 0x0 KECCAK256 SWAP1 PUSH1 0x8 MUL ADD PUSH1 0x5 ADD PUSH1 0x0 PUSH2 0x100 EXP DUP2 SLOAD DUP2 PUSH1 0x1 PUSH1 0x1 PUSH1 0xA0 SHL SUB MUL NOT AND SWAP1 DUP4 PUSH1 0x1 PUSH1 0x1 PUSH1 0xA0 SHL SUB AND MUL OR SWAP1 SSTORE POP PUSH32 0x8F298FD72DBD217FB0A6D75EBB7814F41823B563772413DB23636B1600A0ACA DUP2 CALLER PUSH1 0x40 MLOAD PUSH2 0xDA8 SWAP3 SWAP2 SWAP1 SWAP2 DUP3 MSTORE PUSH1 0x1 PUSH1 0x1 PUSH1 0xA0 SHL SUB AND PUSH1 0x20 DUP3 ADD MSTORE PUSH1 0x40 ADD SWAP1 JUMP JUMPDEST PUSH1 0x40 MLOAD DUP1 SWAP2 SUB SWAP1 LOG1 POP JUMP JUMPDEST PUSH1 0x0 PUSH1 0x1 PUSH1 0x1 PUSH1 0xA0 SHL SUB AND PUSH1 0x2 DUP3 DUP2 SLOAD DUP2 LT PUSH2 0xDD1 JUMPI PUSH2 0xDD1 PUSH2 0x1A79 JUMP JUMPDEST PUSH1 0x0 SWAP2 DUP3 MSTORE PUSH1 0x20 SWAP1 SWAP2 KECCAK256 PUSH1 0x5 PUSH1 0x8 SWAP1 SWAP3 MUL ADD ADD SLOAD PUSH1 0x1 PUSH1 0x1 PUSH1 0xA0 SHL SUB AND EQ PUSH2 0xE46 JUMPI PUSH1 0x40 MLOAD PUSH3 0x461BCD PUSH1 0xE5 SHL DUP2 MSTORE PUSH1 0x20 PUSH1 0x4 DUP3 ADD MSTORE PUSH1 0x22 PUSH1 0x24 DUP3 ADD MSTORE PUSH32 0x596F752063616E74207075626C6963697A6520612074616B656E207265717565 PUSH1 0x44 DUP3 ADD MSTORE PUSH2 0x1CDD PUSH1 0xF2 SHL PUSH1 0x64 DUP3 ADD MSTORE PUSH1 0x84 ADD PUSH2 0x2A6 JUMP JUMPDEST PUSH32 0x179928CDD6B95A06E7B333F9371E3B93A5421DC0A2D8C7039619E7BC1C433EEB DUP2 PUSH1 0x2 DUP4 DUP2 SLOAD DUP2 LT PUSH2 0xE7B JUMPI PUSH2 0xE7B PUSH2 0x1A79 JUMP JUMPDEST SWAP1 PUSH1 0x0 MSTORE PUSH1 0x20 PUSH1 0x0 KECCAK256 SWAP1 PUSH1 0x8 MUL ADD PUSH1 0x2 ADD SLOAD PUSH1 0x40 MLOAD PUSH2 0xDA8 SWAP3 SWAP2 SWAP1 SWAP2 DUP3 MSTORE PUSH1 0x20 DUP3 ADD MSTORE PUSH1 0x40 ADD SWAP1 JUMP JUMPDEST PUSH1 0x0 PUSH1 0x1 PUSH1 0x1 PUSH1 0xA0 SHL SUB AND PUSH1 0x2 DUP3 DUP2 SLOAD DUP2 LT PUSH2 0xEC2 JUMPI PUSH2 0xEC2 PUSH2 0x1A79 JUMP JUMPDEST PUSH1 0x0 SWAP2 DUP3 MSTORE PUSH1 0x20 SWAP1 SWAP2 KECCAK256 PUSH1 0x5 PUSH1 0x8 SWAP1 SWAP3 MUL ADD ADD SLOAD PUSH1 0x1 PUSH1 0x1 PUSH1 0xA0 SHL SUB AND SUB PUSH2 0xF44 JUMPI PUSH1 0x40 MLOAD PUSH3 0x461BCD PUSH1 0xE5 SHL DUP2 MSTORE PUSH1 0x20 PUSH1 0x4 DUP3 ADD MSTORE PUSH1 0x2F PUSH1 0x24 DUP3 ADD MSTORE PUSH32 0x5468657265206973206E6F206163636570746F7220666F72207468652070726F PUSH1 0x44 DUP3 ADD MSTORE PUSH15 0x1D9A591959081C995C5D595CDD1251 PUSH1 0x8A SHL PUSH1 0x64 DUP3 ADD MSTORE PUSH1 0x84 ADD PUSH2 0x2A6 JUMP JUMPDEST PUSH1 0x2 DUP2 DUP2 SLOAD DUP2 LT PUSH2 0xF57 JUMPI PUSH2 0xF57 PUSH2 0x1A79 JUMP JUMPDEST PUSH1 0x0 SWAP2 DUP3 MSTORE PUSH1 0x20 SWAP1 SWAP2 KECCAK256 PUSH1 0x7 PUSH1 0x8 SWAP1 SWAP3 MUL ADD ADD SLOAD PUSH1 0xFF AND ISZERO PUSH2 0xFB4 JUMPI PUSH1 0x40 MLOAD PUSH3 0x461BCD PUSH1 0xE5 SHL DUP2 MSTORE PUSH1 0x20 PUSH1 0x4 DUP3 ADD MSTORE PUSH1 0x16 PUSH1 0x24 DUP3 ADD MSTORE PUSH22 0x151A1A5CC81C995C5D595CDD081A5CC818DB1BDCD959 PUSH1 0x52 SHL PUSH1 0x44 DUP3 ADD MSTORE PUSH1 0x64 ADD PUSH2 0x2A6 JUMP JUMPDEST CALLER PUSH1 0x1 PUSH1 0x1 PUSH1 0xA0 SHL SUB AND PUSH1 0x2 DUP3 DUP2 SLOAD DUP2 LT PUSH2 0xFD1 JUMPI PUSH2 0xFD1 PUSH2 0x1A79 JUMP JUMPDEST PUSH1 0x0 SWAP2 DUP3 MSTORE PUSH1 0x20 SWAP1 SWAP2 KECCAK256 PUSH1 0x5 PUSH1 0x8 SWAP1 SWAP3 MUL ADD ADD SLOAD PUSH1 0x1 PUSH1 0x1 PUSH1 0xA0 SHL SUB AND EQ PUSH2 0x1061 JUMPI PUSH1 0x40 MLOAD PUSH3 0x461BCD PUSH1 0xE5 SHL DUP2 MSTORE PUSH1 0x20 PUSH1 0x4 DUP3 ADD MSTORE PUSH1 0x39 PUSH1 0x24 DUP3 ADD MSTORE PUSH32 0x596F752063616E742063616E63656C20616E20616363657074616E6365207468 PUSH1 0x44 DUP3 ADD MSTORE PUSH32 0x617420646F6573206E6F742062656C6F6E6720746F20796F7500000000000000 PUSH1 0x64 DUP3 ADD MSTORE PUSH1 0x84 ADD PUSH2 0x2A6 JUMP JUMPDEST PUSH1 0x0 PUSH1 0x2 DUP3 DUP2 SLOAD DUP2 LT PUSH2 0x1076 JUMPI PUSH2 0x1076 PUSH2 0x1A79 JUMP JUMPDEST SWAP1 PUSH1 0x0 MSTORE PUSH1 0x20 PUSH1 0x0 KECCAK256 SWAP1 PUSH1 0x8 MUL ADD PUSH1 0x5 ADD PUSH1 0x0 PUSH2 0x100 EXP DUP2 SLOAD DUP2 PUSH1 0x1 PUSH1 0x1 PUSH1 0xA0 SHL SUB MUL NOT AND SWAP1 DUP4 PUSH1 0x1 PUSH1 0x1 PUSH1 0xA0 SHL SUB AND MUL OR SWAP1 SSTORE POP PUSH1 0x0 PUSH2 0x10C1 PUSH1 0x64 PUSH1 0x1 SLOAD PUSH1 0x5F PUSH2 0xAFB SWAP2 SWAP1 PUSH2 0x1D02 JUMP JUMPDEST SWAP1 POP PUSH32 0x233AEBE1D7C90B97E1FE6CE1E226CCA4FEEE120BC312447D954C577A9E2255E4 DUP3 PUSH1 0x2 DUP5 DUP2 SLOAD DUP2 LT PUSH2 0x10F8 JUMPI PUSH2 0x10F8 PUSH2 0x1A79 JUMP JUMPDEST PUSH1 0x0 SWAP2 DUP3 MSTORE PUSH1 0x20 SWAP2 DUP3 SWAP1 KECCAK256 PUSH1 0x8 SWAP1 SWAP2 MUL ADD PUSH1 0x5 ADD SLOAD PUSH1 0x40 DUP1 MLOAD SWAP4 DUP5 MSTORE PUSH1 0x1 PUSH1 0x1 PUSH1 0xA0 SHL SUB SWAP1 SWAP2 AND SWAP2 DUP4 ADD SWAP2 SWAP1 SWAP2 MSTORE DUP4 ISZERO ISZERO SWAP1 DUP3 ADD MSTORE PUSH1 0x60 ADD PUSH1 0x40 MLOAD DUP1 SWAP2 SUB SWAP1 LOG1 PUSH2 0x1169 PUSH1 0x64 PUSH1 0x1 SLOAD PUSH1 0x5 PUSH2 0x114C SWAP2 SWAP1 PUSH2 0x1D02 JUMP JUMPDEST PUSH2 0x1156 SWAP2 SWAP1 PUSH2 0x1D19 JUMP JUMPDEST PUSH1 0x2 DUP5 DUP2 SLOAD DUP2 LT PUSH2 0x5AC JUMPI PUSH2 0x5AC PUSH2 0x1A79 JUMP JUMPDEST POP POP POP JUMP JUMPDEST PUSH1 0x2 DUP2 DUP2 SLOAD DUP2 LT PUSH2 0x117E JUMPI PUSH1 0x0 DUP1 REVERT JUMPDEST PUSH1 0x0 SWAP2 DUP3 MSTORE PUSH1 0x20 SWAP1 SWAP2 KECCAK256 PUSH1 0x8 SWAP1 SWAP2 MUL ADD DUP1 SLOAD PUSH1 0x1 DUP3 ADD DUP1 SLOAD SWAP2 SWAP4 POP SWAP1 PUSH2 0x11A3 SWAP1 PUSH2 0x1A8F JUMP JUMPDEST DUP1 PUSH1 0x1F ADD PUSH1 0x20 DUP1 SWAP2 DIV MUL PUSH1 0x20 ADD PUSH1 0x40 MLOAD SWAP1 DUP2 ADD PUSH1 0x40 MSTORE DUP1 SWAP3 SWAP2 SWAP1 DUP2 DUP2 MSTORE PUSH1 0x20 ADD DUP3 DUP1 SLOAD PUSH2 0x11CF SWAP1 PUSH2 0x1A8F JUMP JUMPDEST DUP1 ISZERO PUSH2 0x121C JUMPI DUP1 PUSH1 0x1F LT PUSH2 0x11F1 JUMPI PUSH2 0x100 DUP1 DUP4 SLOAD DIV MUL DUP4 MSTORE SWAP2 PUSH1 0x20 ADD SWAP2 PUSH2 0x121C JUMP JUMPDEST DUP3 ADD SWAP2 SWAP1 PUSH1 0x0 MSTORE PUSH1 0x20 PUSH1 0x0 KECCAK256 SWAP1 JUMPDEST DUP2 SLOAD DUP2 MSTORE SWAP1 PUSH1 0x1 ADD SWAP1 PUSH1 0x20 ADD DUP1 DUP4 GT PUSH2 0x11FF JUMPI DUP3 SWAP1 SUB PUSH1 0x1F AND DUP3 ADD SWAP2 JUMPDEST POP POP POP PUSH1 0x2 DUP5 ADD SLOAD PUSH1 0x3 DUP6 ADD SLOAD PUSH1 0x4 DUP7 ADD SLOAD PUSH1 0x5 DUP8 ADD SLOAD PUSH1 0x6 DUP9 ADD DUP1 SLOAD SWAP8 SWAP9 SWAP5 SWAP8 SWAP4 SWAP7 POP PUSH1 0x1 PUSH1 0x1 PUSH1 0xA0 SHL SUB SWAP3 DUP4 AND SWAP6 POP SWAP2 AND SWAP3 SWAP2 PUSH2 0x125A SWAP1 PUSH2 0x1A8F JUMP JUMPDEST DUP1 PUSH1 0x1F ADD PUSH1 0x20 DUP1 SWAP2 DIV MUL PUSH1 0x20 ADD PUSH1 0x40 MLOAD SWAP1 DUP2 ADD PUSH1 0x40 MSTORE DUP1 SWAP3 SWAP2 SWAP1 DUP2 DUP2 MSTORE PUSH1 0x20 ADD DUP3 DUP1 SLOAD PUSH2 0x1286 SWAP1 PUSH2 0x1A8F JUMP JUMPDEST DUP1 ISZERO PUSH2 0x12D3 JUMPI DUP1 PUSH1 0x1F LT PUSH2 0x12A8 JUMPI PUSH2 0x100 DUP1 DUP4 SLOAD DIV MUL DUP4 MSTORE SWAP2 PUSH1 0x20 ADD SWAP2 PUSH2 0x12D3 JUMP JUMPDEST DUP3 ADD SWAP2 SWAP1 PUSH1 0x0 MSTORE PUSH1 0x20 PUSH1 0x0 KECCAK256 SWAP1 JUMPDEST DUP2 SLOAD DUP2 MSTORE SWAP1 PUSH1 0x1 ADD SWAP1 PUSH1 0x20 ADD DUP1 DUP4 GT PUSH2 0x12B6 JUMPI DUP3 SWAP1 SUB PUSH1 0x1F AND DUP3 ADD SWAP2 JUMPDEST POP POP POP PUSH1 0x7 SWAP1 SWAP4 ADD SLOAD SWAP2 SWAP3 POP POP PUSH1 0xFF AND DUP9 JUMP JUMPDEST PUSH1 0x60 PUSH1 0x2 DUP1 SLOAD DUP1 PUSH1 0x20 MUL PUSH1 0x20 ADD PUSH1 0x40 MLOAD SWAP1 DUP2 ADD PUSH1 0x40 MSTORE DUP1 SWAP3 SWAP2 SWAP1 DUP2 DUP2 MSTORE PUSH1 0x20 ADD PUSH1 0x0 SWAP1 JUMPDEST DUP3 DUP3 LT ISZERO PUSH2 0x14B5 JUMPI DUP4 DUP3 SWAP1 PUSH1 0x0 MSTORE PUSH1 0x20 PUSH1 0x0 KECCAK256 SWAP1 PUSH1 0x8 MUL ADD PUSH1 0x40 MLOAD DUP1 PUSH2 0x100 ADD PUSH1 0x40 MSTORE SWAP1 DUP2 PUSH1 0x0 DUP3 ADD SLOAD DUP2 MSTORE PUSH1 0x20 ADD PUSH1 0x1 DUP3 ADD DUP1 SLOAD PUSH2 0x1348 SWAP1 PUSH2 0x1A8F JUMP JUMPDEST DUP1 PUSH1 0x1F ADD PUSH1 0x20 DUP1 SWAP2 DIV MUL PUSH1 0x20 ADD PUSH1 0x40 MLOAD SWAP1 DUP2 ADD PUSH1 0x40 MSTORE DUP1 SWAP3 SWAP2 SWAP1 DUP2 DUP2 MSTORE PUSH1 0x20 ADD DUP3 DUP1 SLOAD PUSH2 0x1374 SWAP1 PUSH2 0x1A8F JUMP JUMPDEST DUP1 ISZERO PUSH2 0x13C1 JUMPI DUP1 PUSH1 0x1F LT PUSH2 0x1396 JUMPI PUSH2 0x100 DUP1 DUP4 SLOAD DIV MUL DUP4 MSTORE SWAP2 PUSH1 0x20 ADD SWAP2 PUSH2 0x13C1 JUMP JUMPDEST DUP3 ADD SWAP2 SWAP1 PUSH1 0x0 MSTORE PUSH1 0x20 PUSH1 0x0 KECCAK256 SWAP1 JUMPDEST DUP2 SLOAD DUP2 MSTORE SWAP1 PUSH1 0x1 ADD SWAP1 PUSH1 0x20 ADD DUP1 DUP4 GT PUSH2 0x13A4 JUMPI DUP3 SWAP1 SUB PUSH1 0x1F AND DUP3 ADD SWAP2 JUMPDEST POP POP POP SWAP2 DUP4 MSTORE POP POP PUSH1 0x2 DUP3 ADD SLOAD PUSH1 0x20 DUP3 ADD MSTORE PUSH1 0x3 DUP3 ADD SLOAD PUSH1 0x40 DUP3 ADD MSTORE PUSH1 0x4 DUP3 ADD SLOAD PUSH1 0x1 PUSH1 0x1 PUSH1 0xA0 SHL SUB SWAP1 DUP2 AND PUSH1 0x60 DUP4 ADD MSTORE PUSH1 0x5 DUP4 ADD SLOAD AND PUSH1 0x80 DUP3 ADD MSTORE PUSH1 0x6 DUP3 ADD DUP1 SLOAD PUSH1 0xA0 SWAP1 SWAP3 ADD SWAP2 PUSH2 0x1412 SWAP1 PUSH2 0x1A8F JUMP JUMPDEST DUP1 PUSH1 0x1F ADD PUSH1 0x20 DUP1 SWAP2 DIV MUL PUSH1 0x20 ADD PUSH1 0x40 MLOAD SWAP1 DUP2 ADD PUSH1 0x40 MSTORE DUP1 SWAP3 SWAP2 SWAP1 DUP2 DUP2 MSTORE PUSH1 0x20 ADD DUP3 DUP1 SLOAD PUSH2 0x143E SWAP1 PUSH2 0x1A8F JUMP JUMPDEST DUP1 ISZERO PUSH2 0x148B JUMPI DUP1 PUSH1 0x1F LT PUSH2 0x1460 JUMPI PUSH2 0x100 DUP1 DUP4 SLOAD DIV MUL DUP4 MSTORE SWAP2 PUSH1 0x20 ADD SWAP2 PUSH2 0x148B JUMP JUMPDEST DUP3 ADD SWAP2 SWAP1 PUSH1 0x0 MSTORE PUSH1 0x20 PUSH1 0x0 KECCAK256 SWAP1 JUMPDEST DUP2 SLOAD DUP2 MSTORE SWAP1 PUSH1 0x1 ADD SWAP1 PUSH1 0x20 ADD DUP1 DUP4 GT PUSH2 0x146E JUMPI DUP3 SWAP1 SUB PUSH1 0x1F AND DUP3 ADD SWAP2 JUMPDEST POP POP POP SWAP2 DUP4 MSTORE POP POP PUSH1 0x7 SWAP2 SWAP1 SWAP2 ADD SLOAD PUSH1 0xFF AND ISZERO ISZERO PUSH1 0x20 SWAP2 DUP3 ADD MSTORE SWAP1 DUP3 MSTORE PUSH1 0x1 SWAP3 SWAP1 SWAP3 ADD SWAP2 ADD PUSH2 0x130A JUMP JUMPDEST POP POP POP POP SWAP1 POP SWAP1 JUMP JUMPDEST PUSH1 0x0 PUSH2 0x14CA GASPRICE DUP4 PUSH2 0x1D02 JUMP JUMPDEST CALLVALUE GT PUSH2 0x153E JUMPI PUSH1 0x40 MLOAD PUSH3 0x461BCD PUSH1 0xE5 SHL DUP2 MSTORE PUSH1 0x20 PUSH1 0x4 DUP3 ADD MSTORE PUSH1 0x3F PUSH1 0x24 DUP3 ADD MSTORE PUSH32 0x54686520706F73742070726F63657373696E67206761732063616E6E6F742074 PUSH1 0x44 DUP3 ADD MSTORE PUSH32 0x616B65757020616C6C206F662074686520737570706C69656420657468657200 PUSH1 0x64 DUP3 ADD MSTORE PUSH1 0x84 ADD PUSH2 0x2A6 JUMP JUMPDEST PUSH1 0x0 PUSH1 0x40 MLOAD DUP1 PUSH2 0x100 ADD PUSH1 0x40 MSTORE DUP1 PUSH1 0x2 DUP1 SLOAD SWAP1 POP DUP2 MSTORE PUSH1 0x20 ADD DUP7 DUP7 DUP1 DUP1 PUSH1 0x1F ADD PUSH1 0x20 DUP1 SWAP2 DIV MUL PUSH1 0x20 ADD PUSH1 0x40 MLOAD SWAP1 DUP2 ADD PUSH1 0x40 MSTORE DUP1 SWAP4 SWAP3 SWAP2 SWAP1 DUP2 DUP2 MSTORE PUSH1 0x20 ADD DUP4 DUP4 DUP1 DUP3 DUP5 CALLDATACOPY PUSH1 0x0 SWAP3 ADD DUP3 SWAP1 MSTORE POP SWAP4 DUP6 MSTORE POP POP CALLVALUE PUSH1 0x20 DUP1 DUP6 ADD DUP3 SWAP1 MSTORE PUSH1 0x40 DUP1 DUP7 ADD DUP11 SWAP1 MSTORE CALLER PUSH1 0x60 DUP8 ADD MSTORE PUSH1 0x80 DUP7 ADD DUP6 SWAP1 MSTORE DUP1 MLOAD DUP1 DUP4 ADD DUP7 SWAP1 MSTORE DUP2 MLOAD DUP1 DUP3 SUB DUP5 ADD DUP2 MSTORE SWAP1 DUP3 ADD DUP3 MSTORE PUSH1 0xA0 DUP8 ADD MSTORE PUSH1 0xC0 SWAP1 SWAP6 ADD SWAP4 SWAP1 SWAP4 MSTORE DUP5 MLOAD DUP5 MLOAD SWAP1 DUP2 MSTORE SWAP3 DUP4 ADD MSTORE POP DUP2 MLOAD SWAP3 SWAP4 POP PUSH32 0x179928CDD6B95A06E7B333F9371E3B93A5421DC0A2D8C7039619E7BC1C433EEB SWAP3 SWAP1 DUP2 SWAP1 SUB SWAP1 SWAP2 ADD SWAP1 LOG1 PUSH1 0x2 DUP1 SLOAD PUSH1 0x1 DUP2 ADD DUP3 SSTORE PUSH1 0x0 SWAP2 SWAP1 SWAP2 MSTORE DUP2 MLOAD PUSH1 0x8 SWAP1 SWAP2 MUL PUSH32 0x405787FA12A823E0F2B7631CC41B3BA8828B3321CA811111FA75CD3AA3BB5ACE DUP2 ADD SWAP2 DUP3 SSTORE PUSH1 0x20 DUP4 ADD MLOAD DUP4 SWAP3 SWAP2 PUSH32 0x405787FA12A823E0F2B7631CC41B3BA8828B3321CA811111FA75CD3AA3BB5ACF ADD SWAP1 PUSH2 0x167E SWAP1 DUP3 PUSH2 0x1D3B JUMP JUMPDEST POP PUSH1 0x40 DUP3 ADD MLOAD PUSH1 0x2 DUP3 ADD SSTORE PUSH1 0x60 DUP3 ADD MLOAD PUSH1 0x3 DUP3 ADD SSTORE PUSH1 0x80 DUP3 ADD MLOAD PUSH1 0x4 DUP3 ADD DUP1 SLOAD PUSH1 0x1 PUSH1 0x1 PUSH1 0xA0 SHL SUB SWAP3 DUP4 AND PUSH1 0x1 PUSH1 0x1 PUSH1 0xA0 SHL SUB NOT SWAP2 DUP3 AND OR SWAP1 SWAP2 SSTORE PUSH1 0xA0 DUP5 ADD MLOAD PUSH1 0x5 DUP5 ADD DUP1 SLOAD SWAP2 SWAP1 SWAP4 AND SWAP2 AND OR SWAP1 SSTORE PUSH1 0xC0 DUP3 ADD MLOAD PUSH1 0x6 DUP3 ADD SWAP1 PUSH2 0x16E1 SWAP1 DUP3 PUSH2 0x1D3B JUMP JUMPDEST POP PUSH1 0xE0 SWAP2 SWAP1 SWAP2 ADD MLOAD PUSH1 0x7 SWAP1 SWAP2 ADD DUP1 SLOAD PUSH1 0xFF NOT AND SWAP2 ISZERO ISZERO SWAP2 SWAP1 SWAP2 OR SWAP1 SSTORE MLOAD SWAP5 SWAP4 POP POP POP POP JUMP JUMPDEST CALLER PUSH1 0x0 SWAP1 DUP2 MSTORE PUSH1 0x20 DUP2 SWAP1 MSTORE PUSH1 0x40 DUP2 KECCAK256 DUP1 SLOAD DUP5 SWAP2 SWAP1 DUP4 SWAP1 PUSH2 0x1727 SWAP1 DUP5 SWAP1 PUSH2 0x1A66 JUMP JUMPDEST SWAP1 SWAP2 SSTORE POP PUSH2 0x5CE SWAP1 POP DUP4 DUP4 PUSH2 0x241 JUMP JUMPDEST DUP1 CALLDATALOAD PUSH1 0x1 PUSH1 0x1 PUSH1 0xA0 SHL SUB DUP2 AND DUP2 EQ PUSH2 0x174E JUMPI PUSH1 0x0 DUP1 REVERT JUMPDEST SWAP2 SWAP1 POP JUMP JUMPDEST PUSH1 0x0 DUP1 PUSH1 0x40 DUP4 DUP6 SUB SLT ISZERO PUSH2 0x1766 JUMPI PUSH1 0x0 DUP1 REVERT JUMPDEST DUP3 CALLDATALOAD SWAP2 POP PUSH2 0x1776 PUSH1 0x20 DUP5 ADD PUSH2 0x1737 JUMP JUMPDEST SWAP1 POP SWAP3 POP SWAP3 SWAP1 POP JUMP JUMPDEST PUSH1 0x0 PUSH1 0x20 DUP3 DUP5 SUB SLT ISZERO PUSH2 0x1791 JUMPI PUSH1 0x0 DUP1 REVERT JUMPDEST POP CALLDATALOAD SWAP2 SWAP1 POP JUMP JUMPDEST PUSH1 0x0 DUP1 DUP4 PUSH1 0x1F DUP5 ADD SLT PUSH2 0x17AA JUMPI PUSH1 0x0 DUP1 REVERT JUMPDEST POP DUP2 CALLDATALOAD PUSH8 0xFFFFFFFFFFFFFFFF DUP2 GT ISZERO PUSH2 0x17C2 JUMPI PUSH1 0x0 DUP1 REVERT JUMPDEST PUSH1 0x20 DUP4 ADD SWAP2 POP DUP4 PUSH1 0x20 DUP3 DUP6 ADD ADD GT ISZERO PUSH2 0x17DA JUMPI PUSH1 0x0 DUP1 REVERT JUMPDEST SWAP3 POP SWAP3 SWAP1 POP JUMP JUMPDEST PUSH1 0x0 DUP1 PUSH1 0x0 PUSH1 0x40 DUP5 DUP7 SUB SLT ISZERO PUSH2 0x17F6 JUMPI PUSH1 0x0 DUP1 REVERT JUMPDEST DUP4 CALLDATALOAD SWAP3 POP PUSH1 0x20 DUP5 ADD CALLDATALOAD PUSH8 0xFFFFFFFFFFFFFFFF DUP2 GT ISZERO PUSH2 0x1814 JUMPI PUSH1 0x0 DUP1 REVERT JUMPDEST PUSH2 0x1820 DUP7 DUP3 DUP8 ADD PUSH2 0x1798 JUMP JUMPDEST SWAP5 SWAP8 SWAP1 SWAP7 POP SWAP4 SWAP5 POP POP POP POP JUMP JUMPDEST PUSH1 0x0 PUSH1 0x20 DUP3 DUP5 SUB SLT ISZERO PUSH2 0x183F JUMPI PUSH1 0x0 DUP1 REVERT JUMPDEST PUSH2 0x5CE DUP3 PUSH2 0x1737 JUMP JUMPDEST PUSH1 0x0 JUMPDEST DUP4 DUP2 LT ISZERO PUSH2 0x1863 JUMPI DUP2 DUP2 ADD MLOAD DUP4 DUP3 ADD MSTORE PUSH1 0x20 ADD PUSH2 0x184B JUMP JUMPDEST POP POP PUSH1 0x0 SWAP2 ADD MSTORE JUMP JUMPDEST PUSH1 0x0 DUP2 MLOAD DUP1 DUP5 MSTORE PUSH2 0x1884 DUP2 PUSH1 0x20 DUP7 ADD PUSH1 0x20 DUP7 ADD PUSH2 0x1848 JUMP JUMPDEST PUSH1 0x1F ADD PUSH1 0x1F NOT AND SWAP3 SWAP1 SWAP3 ADD PUSH1 0x20 ADD SWAP3 SWAP2 POP POP JUMP JUMPDEST PUSH1 0x0 PUSH2 0x100 DUP11 DUP4 MSTORE DUP1 PUSH1 0x20 DUP5 ADD MSTORE PUSH2 0x18B2 DUP2 DUP5 ADD DUP12 PUSH2 0x186C JUMP JUMPDEST PUSH1 0x40 DUP5 ADD DUP11 SWAP1 MSTORE PUSH1 0x60 DUP5 ADD DUP10 SWAP1 MSTORE PUSH1 0x1 PUSH1 0x1 PUSH1 0xA0 SHL SUB DUP9 DUP2 AND PUSH1 0x80 DUP7 ADD MSTORE DUP8 AND PUSH1 0xA0 DUP6 ADD MSTORE DUP4 DUP2 SUB PUSH1 0xC0 DUP6 ADD MSTORE SWAP1 POP PUSH2 0x18EB DUP2 DUP7 PUSH2 0x186C JUMP JUMPDEST SWAP2 POP POP DUP3 ISZERO ISZERO PUSH1 0xE0 DUP4 ADD MSTORE SWAP10 SWAP9 POP POP POP POP POP POP POP POP POP JUMP JUMPDEST PUSH1 0x0 PUSH1 0x20 DUP1 DUP4 ADD DUP2 DUP5 MSTORE DUP1 DUP6 MLOAD DUP1 DUP4 MSTORE PUSH1 0x40 SWAP3 POP DUP3 DUP7 ADD SWAP2 POP DUP3 DUP2 PUSH1 0x5 SHL DUP8 ADD ADD DUP5 DUP9 ADD PUSH1 0x0 JUMPDEST DUP4 DUP2 LT ISZERO PUSH2 0x19E3 JUMPI PUSH1 0x3F NOT DUP10 DUP5 SUB ADD DUP6 MSTORE DUP2 MLOAD PUSH2 0x100 DUP2 MLOAD DUP6 MSTORE DUP9 DUP3 ADD MLOAD DUP2 DUP11 DUP8 ADD MSTORE PUSH2 0x1959 DUP3 DUP8 ADD DUP3 PUSH2 0x186C JUMP JUMPDEST DUP4 DUP11 ADD MLOAD DUP8 DUP12 ADD MSTORE PUSH1 0x60 DUP1 DUP6 ADD MLOAD SWAP1 DUP9 ADD MSTORE PUSH1 0x80 DUP1 DUP6 ADD MLOAD PUSH1 0x1 PUSH1 0x1 PUSH1 0xA0 SHL SUB AND SWAP1 DUP9 ADD MSTORE PUSH1 0xA0 DUP1 DUP6 ADD MLOAD SWAP2 SWAP4 POP SWAP2 POP PUSH2 0x199D DUP3 DUP9 ADD DUP3 PUSH1 0x1 PUSH1 0x1 PUSH1 0xA0 SHL SUB AND SWAP1 MSTORE JUMP JUMPDEST POP POP PUSH1 0xC0 DUP1 DUP4 ADD MLOAD DUP7 DUP4 SUB DUP3 DUP9 ADD MSTORE PUSH2 0x19B6 DUP4 DUP3 PUSH2 0x186C JUMP JUMPDEST SWAP3 POP POP POP PUSH1 0xE0 DUP1 DUP4 ADD MLOAD SWAP3 POP PUSH2 0x19CF DUP2 DUP8 ADD DUP5 ISZERO ISZERO SWAP1 MSTORE JUMP JUMPDEST POP SWAP6 DUP9 ADD SWAP6 SWAP4 POP POP SWAP1 DUP7 ADD SWAP1 PUSH1 0x1 ADD PUSH2 0x192A JUMP JUMPDEST POP SWAP1 SWAP9 SWAP8 POP POP POP POP POP POP POP POP JUMP JUMPDEST PUSH1 0x0 DUP1 PUSH1 0x0 PUSH1 0x40 DUP5 DUP7 SUB SLT ISZERO PUSH2 0x1A06 JUMPI PUSH1 0x0 DUP1 REVERT JUMPDEST DUP4 CALLDATALOAD PUSH8 0xFFFFFFFFFFFFFFFF DUP2 GT ISZERO PUSH2 0x1A1D JUMPI PUSH1 0x0 DUP1 REVERT JUMPDEST PUSH2 0x1A29 DUP7 DUP3 DUP8 ADD PUSH2 0x1798 JUMP JUMPDEST SWAP1 SWAP8 SWAP1 SWAP7 POP PUSH1 0x20 SWAP6 SWAP1 SWAP6 ADD CALLDATALOAD SWAP5 SWAP4 POP POP POP POP JUMP JUMPDEST PUSH4 0x4E487B71 PUSH1 0xE0 SHL PUSH1 0x0 MSTORE PUSH1 0x11 PUSH1 0x4 MSTORE PUSH1 0x24 PUSH1 0x0 REVERT JUMPDEST DUP2 DUP2 SUB DUP2 DUP2 GT ISZERO PUSH2 0x360 JUMPI PUSH2 0x360 PUSH2 0x1A3D JUMP JUMPDEST DUP1 DUP3 ADD DUP1 DUP3 GT ISZERO PUSH2 0x360 JUMPI PUSH2 0x360 PUSH2 0x1A3D JUMP JUMPDEST PUSH4 0x4E487B71 PUSH1 0xE0 SHL PUSH1 0x0 MSTORE PUSH1 0x32 PUSH1 0x4 MSTORE PUSH1 0x24 PUSH1 0x0 REVERT JUMPDEST PUSH1 0x1 DUP2 DUP2 SHR SWAP1 DUP3 AND DUP1 PUSH2 0x1AA3 JUMPI PUSH1 0x7F DUP3 AND SWAP2 POP JUMPDEST PUSH1 0x20 DUP3 LT DUP2 SUB PUSH2 0x1AC3 JUMPI PUSH4 0x4E487B71 PUSH1 0xE0 SHL PUSH1 0x0 MSTORE PUSH1 0x22 PUSH1 0x4 MSTORE PUSH1 0x24 PUSH1 0x0 REVERT JUMPDEST POP SWAP2 SWAP1 POP JUMP JUMPDEST PUSH1 0x0 DUP2 SLOAD PUSH2 0x1AD6 DUP2 PUSH2 0x1A8F JUMP JUMPDEST DUP1 DUP6 MSTORE PUSH1 0x20 PUSH1 0x1 DUP4 DUP2 AND DUP1 ISZERO PUSH2 0x1AF3 JUMPI PUSH1 0x1 DUP2 EQ PUSH2 0x1B0D JUMPI PUSH2 0x1B3B JUMP JUMPDEST PUSH1 0xFF NOT DUP6 AND DUP9 DUP5 ADD MSTORE DUP4 ISZERO ISZERO PUSH1 0x5 SHL DUP9 ADD DUP4 ADD SWAP6 POP PUSH2 0x1B3B JUMP JUMPDEST DUP7 PUSH1 0x0 MSTORE DUP3 PUSH1 0x0 KECCAK256 PUSH1 0x0 JUMPDEST DUP6 DUP2 LT ISZERO PUSH2 0x1B33 JUMPI DUP2 SLOAD DUP11 DUP3 ADD DUP7 ADD MSTORE SWAP1 DUP4 ADD SWAP1 DUP5 ADD PUSH2 0x1B18 JUMP JUMPDEST DUP10 ADD DUP5 ADD SWAP7 POP POP JUMPDEST POP POP POP POP POP SWAP3 SWAP2 POP POP JUMP JUMPDEST PUSH1 0x40 DUP2 MSTORE PUSH1 0x0 PUSH2 0x1B59 PUSH1 0x40 DUP4 ADD DUP7 PUSH2 0x1AC9 JUMP JUMPDEST DUP3 DUP2 SUB PUSH1 0x20 DUP5 ADD MSTORE DUP4 DUP2 MSTORE DUP4 DUP6 PUSH1 0x20 DUP4 ADD CALLDATACOPY PUSH1 0x0 PUSH1 0x20 DUP6 DUP4 ADD ADD MSTORE PUSH1 0x20 PUSH1 0x1F NOT PUSH1 0x1F DUP7 ADD AND DUP3 ADD ADD SWAP2 POP POP SWAP5 SWAP4 POP POP POP POP JUMP JUMPDEST PUSH1 0x0 PUSH1 0x20 DUP3 DUP5 SUB SLT ISZERO PUSH2 0x1B9E JUMPI PUSH1 0x0 DUP1 REVERT JUMPDEST DUP2 MLOAD DUP1 ISZERO ISZERO DUP2 EQ PUSH2 0x5CE JUMPI PUSH1 0x0 DUP1 REVERT JUMPDEST PUSH4 0x4E487B71 PUSH1 0xE0 SHL PUSH1 0x0 MSTORE PUSH1 0x41 PUSH1 0x4 MSTORE PUSH1 0x24 PUSH1 0x0 REVERT JUMPDEST PUSH1 0x1F DUP3 GT ISZERO PUSH2 0x1169 JUMPI PUSH1 0x0 DUP2 DUP2 MSTORE PUSH1 0x20 DUP2 KECCAK256 PUSH1 0x1F DUP6 ADD PUSH1 0x5 SHR DUP2 ADD PUSH1 0x20 DUP7 LT ISZERO PUSH2 0x1BEB JUMPI POP DUP1 JUMPDEST PUSH1 0x1F DUP6 ADD PUSH1 0x5 SHR DUP3 ADD SWAP2 POP JUMPDEST DUP2 DUP2 LT ISZERO PUSH2 0x1C0A JUMPI DUP3 DUP2 SSTORE PUSH1 0x1 ADD PUSH2 0x1BF7 JUMP JUMPDEST POP POP POP POP POP POP JUMP JUMPDEST PUSH8 0xFFFFFFFFFFFFFFFF DUP4 GT ISZERO PUSH2 0x1C2A JUMPI PUSH2 0x1C2A PUSH2 0x1BAE JUMP JUMPDEST PUSH2 0x1C3E DUP4 PUSH2 0x1C38 DUP4 SLOAD PUSH2 0x1A8F JUMP JUMPDEST DUP4 PUSH2 0x1BC4 JUMP JUMPDEST PUSH1 0x0 PUSH1 0x1F DUP5 GT PUSH1 0x1 DUP2 EQ PUSH2 0x1C72 JUMPI PUSH1 0x0 DUP6 ISZERO PUSH2 0x1C5A JUMPI POP DUP4 DUP3 ADD CALLDATALOAD JUMPDEST PUSH1 0x0 NOT PUSH1 0x3 DUP8 SWAP1 SHL SHR NOT AND PUSH1 0x1 DUP7 SWAP1 SHL OR DUP4 SSTORE PUSH2 0x1CCC JUMP JUMPDEST PUSH1 0x0 DUP4 DUP2 MSTORE PUSH1 0x20 SWAP1 KECCAK256 PUSH1 0x1F NOT DUP7 AND SWAP1 DUP4 JUMPDEST DUP3 DUP2 LT ISZERO PUSH2 0x1CA3 JUMPI DUP7 DUP6 ADD CALLDATALOAD DUP3 SSTORE PUSH1 0x20 SWAP5 DUP6 ADD SWAP5 PUSH1 0x1 SWAP1 SWAP3 ADD SWAP2 ADD PUSH2 0x1C83 JUMP JUMPDEST POP DUP7 DUP3 LT ISZERO PUSH2 0x1CC0 JUMPI PUSH1 0x0 NOT PUSH1 0xF8 DUP9 PUSH1 0x3 SHL AND SHR NOT DUP5 DUP8 ADD CALLDATALOAD AND DUP2 SSTORE JUMPDEST POP POP PUSH1 0x1 DUP6 PUSH1 0x1 SHL ADD DUP4 SSTORE JUMPDEST POP POP POP POP POP JUMP JUMPDEST PUSH1 0x20 DUP2 MSTORE PUSH1 0x0 PUSH2 0x5CE PUSH1 0x20 DUP4 ADD DUP5 PUSH2 0x1AC9 JUMP JUMPDEST PUSH1 0x0 DUP3 MLOAD PUSH2 0x1CF8 DUP2 DUP5 PUSH1 0x20 DUP8 ADD PUSH2 0x1848 JUMP JUMPDEST SWAP2 SWAP1 SWAP2 ADD SWAP3 SWAP2 POP POP JUMP JUMPDEST DUP1 DUP3 MUL DUP2 ISZERO DUP3 DUP3 DIV DUP5 EQ OR PUSH2 0x360 JUMPI PUSH2 0x360 PUSH2 0x1A3D JUMP JUMPDEST PUSH1 0x0 DUP3 PUSH2 0x1D36 JUMPI PUSH4 0x4E487B71 PUSH1 0xE0 SHL PUSH1 0x0 MSTORE PUSH1 0x12 PUSH1 0x4 MSTORE PUSH1 0x24 PUSH1 0x0 REVERT JUMPDEST POP DIV SWAP1 JUMP JUMPDEST DUP2 MLOAD PUSH8 0xFFFFFFFFFFFFFFFF DUP2 GT ISZERO PUSH2 0x1D55 JUMPI PUSH2 0x1D55 PUSH2 0x1BAE JUMP JUMPDEST PUSH2 0x1D69 DUP2 PUSH2 0x1D63 DUP5 SLOAD PUSH2 0x1A8F JUMP JUMPDEST DUP5 PUSH2 0x1BC4 JUMP JUMPDEST PUSH1 0x20 DUP1 PUSH1 0x1F DUP4 GT PUSH1 0x1 DUP2 EQ PUSH2 0x1D9E JUMPI PUSH1 0x0 DUP5 ISZERO PUSH2 0x1D86 JUMPI POP DUP6 DUP4 ADD MLOAD JUMPDEST PUSH1 0x0 NOT PUSH1 0x3 DUP7 SWAP1 SHL SHR NOT AND PUSH1 0x1 DUP6 SWAP1 SHL OR DUP6 SSTORE PUSH2 0x1C0A JUMP JUMPDEST PUSH1 0x0 DUP6 DUP2 MSTORE PUSH1 0x20 DUP2 KECCAK256 PUSH1 0x1F NOT DUP7 AND SWAP2 JUMPDEST DUP3 DUP2 LT ISZERO PUSH2 0x1DCD JUMPI DUP9 DUP7 ADD MLOAD DUP3 SSTORE SWAP5 DUP5 ADD SWAP5 PUSH1 0x1 SWAP1 SWAP2 ADD SWAP1 DUP5 ADD PUSH2 0x1DAE JUMP JUMPDEST POP DUP6 DUP3 LT ISZERO PUSH2 0x1DEB JUMPI DUP8 DUP6 ADD MLOAD PUSH1 0x0 NOT PUSH1 0x3 DUP9 SWAP1 SHL PUSH1 0xF8 AND SHR NOT AND DUP2 SSTORE JUMPDEST POP POP POP POP POP PUSH1 0x1 SWAP1 DUP2 SHL ADD SWAP1 SSTORE POP JUMP INVALID LOG2 PUSH5 0x6970667358 0x22 SLT KECCAK256 DUP1 0xF8 0xE1 PUSH28 0x24FEF3B5A281C74FC72FC73A57F292995EC705CE1276B12AEEC6BAB9 PUSH5 0x736F6C6343 STOP ADDMOD SGT STOP CALLER ",
  "sha1": "220b3d28871df75b61fc491f955ff6238bd231e2",
  "source": "// SPDX-License-Identifier: GPL-3.0\n\npragma solidity >=0.7.0 <0.9.0;\n\nimport \"./Transferable.sol\";\nimport \"./BaseClient.sol\";\n\n\nstruct Request {\n    uint id;  // Index, for unicity when raw comparing\n    bytes input; //TODO ver tema inputs y logic reference?\n    uint payment; // In Wei; deberia tener en cuenta el computo y el gas de las operaciones de submit y claim\n    uint postProcessingGas;\n    BaseClient client;\n    address executor;\n    bytes result;\n    bool closed;\n}\n\n\ncontract ExecutionBroker is Transferable {\n\n    uint public ACCEPTANCE_STAKE;  //TODO agregar acceptance time? aunque mas largo que el de delegated, solo para que sepan que no lo pueden bloquear para siempre\n\n    Request[] public requests;\n\n    event requestCreated(uint requestID, uint payment);\n    event requestCancelled(uint requestID);\n\n    event requestAccepted(uint requestID, address acceptor);\n    event acceptanceCancelled(uint requestID, address acceptor, bool refundSuccess);\n\n    event requestCompleted(uint requestID, bool transferSuccess);\n    event resultPostProcessed(uint requestID, bool success);\n    event requestReOpened(uint requestID, uint payment, bool transferSuccess);\n\n    constructor(uint acceptanceStake) {\n        ACCEPTANCE_STAKE = acceptanceStake;\n    }\n\n    // Public views\n\n    function requestCount() public view returns (uint) {\n        return requests.length;\n    }\n\n    function getRequests() public view returns (Request[] memory) {\n        return requests;\n    }\n\n    // Restricted interaction functions\n\n    function submitRequest(bytes calldata input, uint postProcessingGas) public payable returns (uint) {\n        require(msg.value > postProcessingGas * tx.gasprice, \"The post processing gas cannot takeup all of the supplied ether\");  //TODO en el bot de python, ver que efectivamente el net payment, valga la pena\n        Request memory request = Request({\n            id: requests.length,\n            input: input,\n            payment: msg.value,  // aca esta incluido el post processing gas, para evitar tener que devolver aparte\n            postProcessingGas: postProcessingGas,\n            client: BaseClient(msg.sender),\n            executor: address(0x0),\n            result: abi.encode(0),\n            closed: false\n        });\n        emit requestCreated(request.id, msg.value);\n        requests.push(request);\n        return request.id;\n    }\n\n    function cancelRequest(uint requestID) public returns (bool) {\n        require(!requests[requestID].closed, \"The request is closed\");\n        require(msg.sender == address(requests[requestID].client), \"You cant cancel a request that was not made by you\");\n        require(requests[requestID].executor == address(0x0), \"You cant cancel an accepted request\");\n        requests[requestID].closed = true;\n        emit requestCancelled(requestID);\n        bool transferSuccess = _internalTransferFunds(requests[requestID].payment, address(requests[requestID].client));\n        return transferSuccess;\n    }\n\n    // Open interaction functions\n\n    function publicizeRequest(uint requestID) public {  // This is to re emit the event In case the request gets forgotten\n        require(requests[requestID].executor == address(0x00), \"You cant publicize a taken request\");\n        emit requestCreated(requestID, requests[requestID].payment);\n    }\n\n    function acceptRequest(uint requestID) public payable {\n        // what if Request does not exist? what happens to the funds? IF YOU TRY TO ACCESS AN INVALID INDEX IN AN ARRAY, THE FUNCTION GETS REVERTED AND FUNDS RETURNED TOGETHER WITH SPARE GAS (BUT NOT ALREADY CONSUMED GAS)\n        // what happens to the funds if one of the requires fail? THEY GET RETURNED\n        require(!requests[requestID].closed, \"The request is closed\");\n        require(requests[requestID].executor == address(0x0), \"There already is an acceptance for this request\");\n        require(msg.value == ACCEPTANCE_STAKE, \"Incorrect amount of stake provided\");\n        requests[requestID].executor = msg.sender;\n        emit requestAccepted(requestID, msg.sender);\n    }\n\n    function cancelAcceptance(uint requestID) public {\n        require(requests[requestID].executor != address(0x0), \"There is no acceptor for the provided requestID\");\n        require(requests[requestID].closed == false, \"This request is closed\");\n        require(requests[requestID].executor == msg.sender, \"You cant cancel an acceptance that does not belong to you\");\n        requests[requestID].executor = address(0x0);\n        bool transferSuccess = _internalTransferFunds((ACCEPTANCE_STAKE*95)/100, msg.sender);  // Devolver un 95% del stake\n        emit acceptanceCancelled(requestID, requests[requestID].executor, transferSuccess);\n        _internalTransferFunds((ACCEPTANCE_STAKE*5)/100, address(requests[requestID].client));\n    }\n\n    function submitResult(uint requestID, bytes calldata result) public returns (bool) {\n        // para evitar que le roben el resultado, puede subirlo encriptado y posteriormente subir la clave de decrypt, NAAAA, no es eficiente\n        // pero aca caigo en el mismo dilema, tengo que esperar que pase la clave decrypt y tengo que poner un timer para que no ponga cualquier cosa y se vaya, aunque supongo que no lo quiere hacer porque quiere recuperar la insurance. Entonces capaz saco el tiempo de acceptance time window, y confiar que el tipo va a cumplir porque quiere cobrar, aunque capaz se cuelga y no lo puede resolver, entonces capaz es mejor que se haga con encriptacion? no pero eso no me sirve porque desencriptar es costoso. Mejor le pongo una opcion al tipo para cancelar la aceptacion, y se come el gas pero recupera la prima\n        require(requests[requestID].executor != address(0x0), \"You need to accept the request first\");\n        require(requests[requestID].closed == false, \"The request is already closed\");\n        require(requests[requestID].executor == msg.sender, \"Someone else has accepted the Request\");\n        if (requests[requestID].client.checkResult(requests[requestID].input, result)) {\n            requests[requestID].result = result;\n            requests[requestID].closed = true;\n            uint payAmount = requests[requestID].payment + ACCEPTANCE_STAKE;\n            bool transferSuccess = _internalTransferFunds(payAmount, msg.sender);\n            emit requestCompleted(requestID, transferSuccess);\n\n            bytes memory data = abi.encodeWithSelector(requests[requestID].client.processResult.selector, requests[requestID].result);\n            (bool callSuccess, ) = address(requests[requestID].client).call{gas: requests[requestID].postProcessingGas}(data);  // el delegate para que me aparezca el sender como el broker. cuidado si esto no me hace una vulnerabilidad, puedo vaciar fondos desde client? no deberia pasar nada, ni el broker ni el client puede extraer fondos\n            emit resultPostProcessed(requestID, callSuccess); //TODO ver si no le mando suficiente gas para el postprocessing, si me ejecuta igual o se cancela entero, HOPEFULLY SE CANCELA ENTEROOO\n\n            return true;\n        } else {\n            requests[requestID].executor = address(0x0);\n            bool transferSuccess = _internalTransferFunds((ACCEPTANCE_STAKE*95)/100, msg.sender);\n            emit requestReOpened(requestID, requests[requestID].payment, transferSuccess);\n            _internalTransferFunds((ACCEPTANCE_STAKE*5)/100, address(requests[requestID].client));\n            return false;\n        }\n    }\n}",
  "sourcePath": "contracts/ExecutionBroker.sol",
  "type": "contract"
}