{
  "abi": [
    {
      "inputs": [
        {
          "internalType": "bytes32[]",
          "name": "_targetHashes",
          "type": "bytes32[]"
        },
        {
          "internalType": "uint8",
          "name": "_fragmentDifficulty",
          "type": "uint8"
        }
      ],
      "stateMutability": "nonpayable",
      "type": "constructor"
    },
    {
      "inputs": [
        {
          "internalType": "uint256",
          "name": "",
          "type": "uint256"
        }
      ],
      "name": "passcodes",
      "outputs": [
        {
          "internalType": "uint32",
          "name": "",
          "type": "uint32"
        }
      ],
      "stateMutability": "view",
      "type": "function"
    },
    {
      "inputs": [],
      "name": "resolveOnChain",
      "outputs": [],
      "stateMutability": "nonpayable",
      "type": "function"
    }
  ],
  "bytecode": "608060405234801561001057600080fd5b506040516105e73803806105e783398101604081905261002f916100cc565b6000805461ffff191661010060ff8416021781555b82518160ff161015610098576001838260ff16815181106100675761006761019b565b6020908102919091018101518254600181018455600093845291909220015580610090816101b1565b915050610044565b5050506101de565b634e487b7160e01b600052604160045260246000fd5b805160ff811681146100c757600080fd5b919050565b600080604083850312156100df57600080fd5b82516001600160401b03808211156100f657600080fd5b818501915085601f83011261010a57600080fd5b815160208282111561011e5761011e6100a0565b8160051b604051601f19603f83011681018181108682111715610143576101436100a0565b60405292835281830193508481018201928984111561016157600080fd5b948201945b8386101561017f57855185529482019493820193610166565b965061018e90508782016100b6565b9450505050509250929050565b634e487b7160e01b600052603260045260246000fd5b600060ff821660ff81036101d557634e487b7160e01b600052601160045260246000fd5b60010192915050565b6103fa806101ed6000396000f3fe608060405234801561001057600080fd5b50600436106100365760003560e01c80638008a0571461003b578063e193890b14610045575b600080fd5b610043610071565b005b610058610053366004610241565b610207565b60405163ffffffff909116815260200160405180910390f35b6000805460018054909160ff1690811061008d5761008d61025a565b9060005260206000200154905060005b6000546100b390610100900460ff16600a61036c565b8163ffffffff161015610186576040805163ffffffff831660208201528391016040516020818303038152906040528051906020012003610174576002805460018101825560009182527f405787fa12a823e0f2b7631cc41b3ba8828b3321ca811111fa75cd3aa3bb5ace6008820401805460079092166004026101000a63ffffffff8181021990931692851602919091179055805460ff16908061015783610382565b91906101000a81548160ff021916908360ff160217905550505050565b8061017e816103a1565b91505061009d565b5060405162461bcd60e51b815260206004820152604560248201527f4e6f206e756d626572206f66207468652073657420646966666963756c74792060448201527f6d617463682074686520746172676574206861736820666f72207468697320726064820152646f756e642160d81b608482015260a40160405180910390fd5b6002818154811061021757600080fd5b9060005260206000209060089182820401919006600402915054906101000a900463ffffffff1681565b60006020828403121561025357600080fd5b5035919050565b634e487b7160e01b600052603260045260246000fd5b634e487b7160e01b600052601160045260246000fd5b600181815b808511156102c15781600019048211156102a7576102a7610270565b808516156102b457918102915b93841c939080029061028b565b509250929050565b6000826102d857506001610366565b816102e557506000610366565b81600181146102fb576002811461030557610321565b6001915050610366565b60ff84111561031657610316610270565b50506001821b610366565b5060208310610133831016604e8410600b8410161715610344575081810a610366565b61034e8383610286565b806000190482111561036257610362610270565b0290505b92915050565b600061037b60ff8416836102c9565b9392505050565b600060ff821660ff810361039857610398610270565b60010192915050565b600063ffffffff8083168181036103ba576103ba610270565b600101939250505056fea2646970667358221220f68166f5cea78a36b5f868a0338c316ef229ae3e5f3c0428b019d04ebd4a035964736f6c63430008170033",
  "bytecodeSha1": "f0f2a1a6f984215bfea7af5757580d8972dcb823",
  "compiler": {
    "evm_version": "istanbul",
    "optimizer": {
      "enabled": true,
      "runs": 200
    },
    "version": "0.8.23+commit.f704f362"
  },
  "contractName": "OnchainTS3000",
  "language": "Solidity",
  "natspec": {
    "kind": "dev",
    "methods": {},
    "version": 1
  },
  "opcodes": "PUSH1 0x80 PUSH1 0x40 MSTORE CALLVALUE DUP1 ISZERO PUSH2 0x10 JUMPI PUSH1 0x0 DUP1 REVERT JUMPDEST POP PUSH1 0x4 CALLDATASIZE LT PUSH2 0x36 JUMPI PUSH1 0x0 CALLDATALOAD PUSH1 0xE0 SHR DUP1 PUSH4 0x8008A057 EQ PUSH2 0x3B JUMPI DUP1 PUSH4 0xE193890B EQ PUSH2 0x45 JUMPI JUMPDEST PUSH1 0x0 DUP1 REVERT JUMPDEST PUSH2 0x43 PUSH2 0x71 JUMP JUMPDEST STOP JUMPDEST PUSH2 0x58 PUSH2 0x53 CALLDATASIZE PUSH1 0x4 PUSH2 0x241 JUMP JUMPDEST PUSH2 0x207 JUMP JUMPDEST PUSH1 0x40 MLOAD PUSH4 0xFFFFFFFF SWAP1 SWAP2 AND DUP2 MSTORE PUSH1 0x20 ADD PUSH1 0x40 MLOAD DUP1 SWAP2 SUB SWAP1 RETURN JUMPDEST PUSH1 0x0 DUP1 SLOAD PUSH1 0x1 DUP1 SLOAD SWAP1 SWAP2 PUSH1 0xFF AND SWAP1 DUP2 LT PUSH2 0x8D JUMPI PUSH2 0x8D PUSH2 0x25A JUMP JUMPDEST SWAP1 PUSH1 0x0 MSTORE PUSH1 0x20 PUSH1 0x0 KECCAK256 ADD SLOAD SWAP1 POP PUSH1 0x0 JUMPDEST PUSH1 0x0 SLOAD PUSH2 0xB3 SWAP1 PUSH2 0x100 SWAP1 DIV PUSH1 0xFF AND PUSH1 0xA PUSH2 0x36C JUMP JUMPDEST DUP2 PUSH4 0xFFFFFFFF AND LT ISZERO PUSH2 0x186 JUMPI PUSH1 0x40 DUP1 MLOAD PUSH4 0xFFFFFFFF DUP4 AND PUSH1 0x20 DUP3 ADD MSTORE DUP4 SWAP2 ADD PUSH1 0x40 MLOAD PUSH1 0x20 DUP2 DUP4 SUB SUB DUP2 MSTORE SWAP1 PUSH1 0x40 MSTORE DUP1 MLOAD SWAP1 PUSH1 0x20 ADD KECCAK256 SUB PUSH2 0x174 JUMPI PUSH1 0x2 DUP1 SLOAD PUSH1 0x1 DUP2 ADD DUP3 SSTORE PUSH1 0x0 SWAP2 DUP3 MSTORE PUSH32 0x405787FA12A823E0F2B7631CC41B3BA8828B3321CA811111FA75CD3AA3BB5ACE PUSH1 0x8 DUP3 DIV ADD DUP1 SLOAD PUSH1 0x7 SWAP1 SWAP3 AND PUSH1 0x4 MUL PUSH2 0x100 EXP PUSH4 0xFFFFFFFF DUP2 DUP2 MUL NOT SWAP1 SWAP4 AND SWAP3 DUP6 AND MUL SWAP2 SWAP1 SWAP2 OR SWAP1 SSTORE DUP1 SLOAD PUSH1 0xFF AND SWAP1 DUP1 PUSH2 0x157 DUP4 PUSH2 0x382 JUMP JUMPDEST SWAP2 SWAP1 PUSH2 0x100 EXP DUP2 SLOAD DUP2 PUSH1 0xFF MUL NOT AND SWAP1 DUP4 PUSH1 0xFF AND MUL OR SWAP1 SSTORE POP POP POP POP JUMP JUMPDEST DUP1 PUSH2 0x17E DUP2 PUSH2 0x3A1 JUMP JUMPDEST SWAP2 POP POP PUSH2 0x9D JUMP JUMPDEST POP PUSH1 0x40 MLOAD PUSH3 0x461BCD PUSH1 0xE5 SHL DUP2 MSTORE PUSH1 0x20 PUSH1 0x4 DUP3 ADD MSTORE PUSH1 0x45 PUSH1 0x24 DUP3 ADD MSTORE PUSH32 0x4E6F206E756D626572206F66207468652073657420646966666963756C747920 PUSH1 0x44 DUP3 ADD MSTORE PUSH32 0x6D617463682074686520746172676574206861736820666F7220746869732072 PUSH1 0x64 DUP3 ADD MSTORE PUSH5 0x6F756E6421 PUSH1 0xD8 SHL PUSH1 0x84 DUP3 ADD MSTORE PUSH1 0xA4 ADD PUSH1 0x40 MLOAD DUP1 SWAP2 SUB SWAP1 REVERT JUMPDEST PUSH1 0x2 DUP2 DUP2 SLOAD DUP2 LT PUSH2 0x217 JUMPI PUSH1 0x0 DUP1 REVERT JUMPDEST SWAP1 PUSH1 0x0 MSTORE PUSH1 0x20 PUSH1 0x0 KECCAK256 SWAP1 PUSH1 0x8 SWAP2 DUP3 DUP3 DIV ADD SWAP2 SWAP1 MOD PUSH1 0x4 MUL SWAP2 POP SLOAD SWAP1 PUSH2 0x100 EXP SWAP1 DIV PUSH4 0xFFFFFFFF AND DUP2 JUMP JUMPDEST PUSH1 0x0 PUSH1 0x20 DUP3 DUP5 SUB SLT ISZERO PUSH2 0x253 JUMPI PUSH1 0x0 DUP1 REVERT JUMPDEST POP CALLDATALOAD SWAP2 SWAP1 POP JUMP JUMPDEST PUSH4 0x4E487B71 PUSH1 0xE0 SHL PUSH1 0x0 MSTORE PUSH1 0x32 PUSH1 0x4 MSTORE PUSH1 0x24 PUSH1 0x0 REVERT JUMPDEST PUSH4 0x4E487B71 PUSH1 0xE0 SHL PUSH1 0x0 MSTORE PUSH1 0x11 PUSH1 0x4 MSTORE PUSH1 0x24 PUSH1 0x0 REVERT JUMPDEST PUSH1 0x1 DUP2 DUP2 JUMPDEST DUP1 DUP6 GT ISZERO PUSH2 0x2C1 JUMPI DUP2 PUSH1 0x0 NOT DIV DUP3 GT ISZERO PUSH2 0x2A7 JUMPI PUSH2 0x2A7 PUSH2 0x270 JUMP JUMPDEST DUP1 DUP6 AND ISZERO PUSH2 0x2B4 JUMPI SWAP2 DUP2 MUL SWAP2 JUMPDEST SWAP4 DUP5 SHR SWAP4 SWAP1 DUP1 MUL SWAP1 PUSH2 0x28B JUMP JUMPDEST POP SWAP3 POP SWAP3 SWAP1 POP JUMP JUMPDEST PUSH1 0x0 DUP3 PUSH2 0x2D8 JUMPI POP PUSH1 0x1 PUSH2 0x366 JUMP JUMPDEST DUP2 PUSH2 0x2E5 JUMPI POP PUSH1 0x0 PUSH2 0x366 JUMP JUMPDEST DUP2 PUSH1 0x1 DUP2 EQ PUSH2 0x2FB JUMPI PUSH1 0x2 DUP2 EQ PUSH2 0x305 JUMPI PUSH2 0x321 JUMP JUMPDEST PUSH1 0x1 SWAP2 POP POP PUSH2 0x366 JUMP JUMPDEST PUSH1 0xFF DUP5 GT ISZERO PUSH2 0x316 JUMPI PUSH2 0x316 PUSH2 0x270 JUMP JUMPDEST POP POP PUSH1 0x1 DUP3 SHL PUSH2 0x366 JUMP JUMPDEST POP PUSH1 0x20 DUP4 LT PUSH2 0x133 DUP4 LT AND PUSH1 0x4E DUP5 LT PUSH1 0xB DUP5 LT AND OR ISZERO PUSH2 0x344 JUMPI POP DUP2 DUP2 EXP PUSH2 0x366 JUMP JUMPDEST PUSH2 0x34E DUP4 DUP4 PUSH2 0x286 JUMP JUMPDEST DUP1 PUSH1 0x0 NOT DIV DUP3 GT ISZERO PUSH2 0x362 JUMPI PUSH2 0x362 PUSH2 0x270 JUMP JUMPDEST MUL SWAP1 POP JUMPDEST SWAP3 SWAP2 POP POP JUMP JUMPDEST PUSH1 0x0 PUSH2 0x37B PUSH1 0xFF DUP5 AND DUP4 PUSH2 0x2C9 JUMP JUMPDEST SWAP4 SWAP3 POP POP POP JUMP JUMPDEST PUSH1 0x0 PUSH1 0xFF DUP3 AND PUSH1 0xFF DUP2 SUB PUSH2 0x398 JUMPI PUSH2 0x398 PUSH2 0x270 JUMP JUMPDEST PUSH1 0x1 ADD SWAP3 SWAP2 POP POP JUMP JUMPDEST PUSH1 0x0 PUSH4 0xFFFFFFFF DUP1 DUP4 AND DUP2 DUP2 SUB PUSH2 0x3BA JUMPI PUSH2 0x3BA PUSH2 0x270 JUMP JUMPDEST PUSH1 0x1 ADD SWAP4 SWAP3 POP POP POP JUMP INVALID LOG2 PUSH5 0x6970667358 0x22 SLT KECCAK256 0xF6 DUP2 PUSH7 0xF5CEA78A36B5F8 PUSH9 0xA0338C316EF229AE3E PUSH0 EXTCODECOPY DIV 0x28 0xB0 NOT 0xD0 0x4E 0xBD 0x4A SUB MSIZE PUSH5 0x736F6C6343 STOP ADDMOD OR STOP CALLER ",
  "sha1": "c2813489d8aecb4e42fde59b3d5ff7362ae6813c",
  "source": "// SPDX-License-Identifier: GPL-3.0\n\npragma solidity >=0.7.0 <0.9.0;\n\n\ncontract OnchainTS3000 {\n\n    uint8 currentIndex;\n    uint8 fragmentDifficulty;\n    bytes32[] targetHashes;\n    uint32[] public passcodes;\n\n    constructor(bytes32[] memory _targetHashes, uint8 _fragmentDifficulty) {\n        currentIndex = 0;\n        fragmentDifficulty = _fragmentDifficulty;\n        for (uint8 i = 0; i < _targetHashes.length; i++) {\n            targetHashes.push(_targetHashes[i]);\n        }\n    }\n\n    function resolveOnChain() public {\n        bytes32 targetHash = targetHashes[currentIndex];\n        for (uint32 passcode = 0; passcode < 10**fragmentDifficulty; passcode++) {\n            if (keccak256(abi.encode(passcode)) == targetHash) {\n                passcodes.push(passcode);\n                currentIndex++;\n                return;\n            }\n        }\n        revert(\"No number of the set difficulty match the target hash for this round!\");\n    }\n\n}\n",
  "sourcePath": "contracts/OnchainTS3000.sol",
  "type": "contract"
}