{
  "abi": [
    {
      "inputs": [
        {
          "internalType": "address",
          "name": "brokerAddress",
          "type": "address"
        },
        {
          "internalType": "string",
          "name": "_encryptedDataRefference",
          "type": "string"
        },
        {
          "internalType": "bytes32",
          "name": "firstLocalHash",
          "type": "bytes32"
        },
        {
          "internalType": "bytes32[]",
          "name": "globalHashes",
          "type": "bytes32[]"
        }
      ],
      "stateMutability": "payable",
      "type": "constructor"
    },
    {
      "anonymous": false,
      "inputs": [],
      "name": "keyFullyMined",
      "type": "event"
    },
    {
      "anonymous": false,
      "inputs": [
        {
          "indexed": false,
          "internalType": "uint256",
          "name": "requestID",
          "type": "uint256"
        }
      ],
      "name": "requestSubmitted",
      "type": "event"
    },
    {
      "inputs": [],
      "name": "brokerContract",
      "outputs": [
        {
          "internalType": "contract ExecutionBroker",
          "name": "",
          "type": "address"
        }
      ],
      "stateMutability": "view",
      "type": "function"
    },
    {
      "inputs": [
        {
          "internalType": "uint256",
          "name": "requestID",
          "type": "uint256"
        }
      ],
      "name": "cancelRequest",
      "outputs": [],
      "stateMutability": "nonpayable",
      "type": "function"
    },
    {
      "inputs": [
        {
          "internalType": "bytes",
          "name": "inputData",
          "type": "bytes"
        },
        {
          "internalType": "bytes",
          "name": "resultData",
          "type": "bytes"
        }
      ],
      "name": "checkResult",
      "outputs": [
        {
          "internalType": "bool",
          "name": "",
          "type": "bool"
        }
      ],
      "stateMutability": "pure",
      "type": "function"
    },
    {
      "inputs": [],
      "name": "encryptedDataRefference",
      "outputs": [
        {
          "internalType": "string",
          "name": "",
          "type": "string"
        }
      ],
      "stateMutability": "view",
      "type": "function"
    },
    {
      "inputs": [],
      "name": "finalKey",
      "outputs": [
        {
          "internalType": "bytes32",
          "name": "",
          "type": "bytes32"
        }
      ],
      "stateMutability": "view",
      "type": "function"
    },
    {
      "inputs": [],
      "name": "getInputDataStructure",
      "outputs": [
        {
          "internalType": "string",
          "name": "",
          "type": "string"
        }
      ],
      "stateMutability": "pure",
      "type": "function"
    },
    {
      "inputs": [],
      "name": "getResultDataStructure",
      "outputs": [
        {
          "internalType": "string",
          "name": "",
          "type": "string"
        }
      ],
      "stateMutability": "pure",
      "type": "function"
    },
    {
      "inputs": [],
      "name": "isOwner",
      "outputs": [
        {
          "internalType": "bool",
          "name": "",
          "type": "bool"
        }
      ],
      "stateMutability": "view",
      "type": "function"
    },
    {
      "inputs": [
        {
          "internalType": "uint256",
          "name": "",
          "type": "uint256"
        }
      ],
      "name": "keyFragments",
      "outputs": [
        {
          "internalType": "bytes32",
          "name": "globalHash",
          "type": "bytes32"
        },
        {
          "internalType": "bytes32",
          "name": "localHash",
          "type": "bytes32"
        },
        {
          "internalType": "uint256",
          "name": "passcode",
          "type": "uint256"
        }
      ],
      "stateMutability": "view",
      "type": "function"
    },
    {
      "inputs": [],
      "name": "owner",
      "outputs": [
        {
          "internalType": "address",
          "name": "",
          "type": "address"
        }
      ],
      "stateMutability": "view",
      "type": "function"
    },
    {
      "inputs": [],
      "name": "postProcessingEnabled",
      "outputs": [
        {
          "internalType": "bool",
          "name": "",
          "type": "bool"
        }
      ],
      "stateMutability": "view",
      "type": "function"
    },
    {
      "inputs": [],
      "name": "postProcessingGas",
      "outputs": [
        {
          "internalType": "uint256",
          "name": "",
          "type": "uint256"
        }
      ],
      "stateMutability": "view",
      "type": "function"
    },
    {
      "inputs": [
        {
          "internalType": "bytes",
          "name": "resultData",
          "type": "bytes"
        }
      ],
      "name": "processResult",
      "outputs": [],
      "stateMutability": "nonpayable",
      "type": "function"
    },
    {
      "inputs": [],
      "name": "rewardPerFragment",
      "outputs": [
        {
          "internalType": "uint256",
          "name": "",
          "type": "uint256"
        }
      ],
      "stateMutability": "view",
      "type": "function"
    },
    {
      "inputs": [],
      "name": "sendFunds",
      "outputs": [],
      "stateMutability": "payable",
      "type": "function"
    },
    {
      "inputs": [
        {
          "internalType": "uint256",
          "name": "payment",
          "type": "uint256"
        },
        {
          "internalType": "bytes",
          "name": "input",
          "type": "bytes"
        },
        {
          "internalType": "uint256",
          "name": "postProcessingGas",
          "type": "uint256"
        }
      ],
      "name": "submitRequest",
      "outputs": [
        {
          "internalType": "uint256",
          "name": "",
          "type": "uint256"
        }
      ],
      "stateMutability": "payable",
      "type": "function"
    },
    {
      "inputs": [],
      "name": "togglePostProcessing",
      "outputs": [],
      "stateMutability": "nonpayable",
      "type": "function"
    },
    {
      "inputs": [
        {
          "internalType": "uint256",
          "name": "value",
          "type": "uint256"
        }
      ],
      "name": "withdrawFunds",
      "outputs": [
        {
          "internalType": "bool",
          "name": "",
          "type": "bool"
        }
      ],
      "stateMutability": "nonpayable",
      "type": "function"
    }
  ],
  "bytecode": "608060405260405162001735380380620017358339810160408190526200002691620004b2565b60008054336001600160a01b031991821617909155600180549091166001600160a01b03861617815562061a806006556007805460ff191690911790558051620000719034620005b8565b60055560026200008284826200066a565b5060005b815181101562000184576040805160608101825260008082526020820181905291810191909152828281518110620000c257620000c262000736565b602090810291909101015181526000829003620000e157602081018490525b600380546001810182556000829052825191027fc2575a0e9e593c00f959f8c92f12db2869c3395a3b0502d05e2516446f71f85b81019190915560208201517fc2575a0e9e593c00f959f8c92f12db2869c3395a3b0502d05e2516446f71f85c8201556040909101517fc2575a0e9e593c00f959f8c92f12db2869c3395a3b0502d05e2516446f71f85d90910155806200017b816200074c565b91505062000086565b50600060405180606001604052806000815260200183600081518110620001af57620001af62000736565b6020908102919091018101518252908101859052600554604080518451818501529284015183820152830151606083015291925062000205919060800160408051601f1981840301815291905260065462000211565b505050505050620007db565b6001546000906001600160a01b03163314806200023e57506200023e6000546001600160a01b0316331490565b620002a85760405162461bcd60e51b815260206004820152602f60248201527f46756e6374696f6e2061636365737369626c65206f6e6c79206279207468652060448201526e37bbb732b91037b910313937b5b2b960891b60648201526084015b60405180910390fd5b620002b4473462000768565b841115620002fa5760405162461bcd60e51b8152602060048201526012602482015271496e73756666696369656e742066756e647360701b60448201526064016200029f565b6001546040516378f8af2560e11b81526000916001600160a01b03169063f1f15e4a90879062000331908890889060040162000784565b60206040518083038185885af115801562000350573d6000803e3d6000fd5b50505050506040513d601f19601f82011682018060405250810190620003779190620007c1565b90507fd3b0b0209035a5613265e8fb1f38873ea24c7c6189b128eebe3689c03d13905c81604051620003ab91815260200190565b60405180910390a1949350505050565b634e487b7160e01b600052604160045260246000fd5b604051601f8201601f191681016001600160401b0381118282101715620003fc57620003fc620003bb565b604052919050565b60005b838110156200042157818101518382015260200162000407565b50506000910152565b600082601f8301126200043c57600080fd5b815160206001600160401b038211156200045a576200045a620003bb565b8160051b6200046b828201620003d1565b92835284810182019282810190878511156200048657600080fd5b83870192505b84831015620004a7578251825291830191908301906200048c565b979650505050505050565b60008060008060808587031215620004c957600080fd5b84516001600160a01b0381168114620004e157600080fd5b60208601519094506001600160401b0380821115620004ff57600080fd5b818701915087601f8301126200051457600080fd5b815181811115620005295762000529620003bb565b6200053e601f8201601f1916602001620003d1565b8181528960208386010111156200055457600080fd5b6200056782602083016020870162000404565b604089015160608a01519197509550925050808211156200058757600080fd5b5062000596878288016200042a565b91505092959194509250565b634e487b7160e01b600052601160045260246000fd5b600082620005d657634e487b7160e01b600052601260045260246000fd5b500490565b600181811c90821680620005f057607f821691505b6020821081036200061157634e487b7160e01b600052602260045260246000fd5b50919050565b601f8211156200066557600081815260208120601f850160051c81016020861015620006405750805b601f850160051c820191505b8181101562000661578281556001016200064c565b5050505b505050565b81516001600160401b03811115620006865762000686620003bb565b6200069e81620006978454620005db565b8462000617565b602080601f831160018114620006d65760008415620006bd5750858301515b600019600386901b1c1916600185901b17855562000661565b600085815260208120601f198616915b828110156200070757888601518255948401946001909101908401620006e6565b5085821015620007265787850151600019600388901b60f8161c191681555b5050505050600190811b01905550565b634e487b7160e01b600052603260045260246000fd5b600060018201620007615762000761620005a2565b5060010190565b808201808211156200077e576200077e620005a2565b92915050565b6040815260008351806040840152620007a581606085016020880162000404565b602083019390935250601f91909101601f191601606001919050565b600060208284031215620007d457600080fd5b5051919050565b610f4a80620007eb6000396000f3fe6080604052600436106101095760003560e01c80637353d891116100955780638f32d59b116100645780638f32d59b1461029a578063c2c56245146102ba578063c91c7b37146102da578063cb392747146102fa578063d997ebf51461031a57600080fd5b80637353d891146102185780638244741c146102535780638d68cf59146101b85780638da5cb5b1461026857600080fd5b80632d16d25b116100dc5780632d16d25b146101a35780632d9e78b8146101ba5780633015394c146101d057806343bb58de146101f0578063552b0b831461020357600080fd5b8063015594b81461010e578063155dd5ee1461013d578063224733851461015d5780632896de1314610181575b600080fd5b34801561011a57600080fd5b506007546101289060ff1681565b60405190151581526020015b60405180910390f35b34801561014957600080fd5b50610128610158366004610a76565b610330565b34801561016957600080fd5b5061017360065481565b604051908152602001610134565b34801561018d57600080fd5b506101966103fd565b6040516101349190610ad5565b3480156101af57600080fd5b506101b861041d565b005b3480156101c657600080fd5b5061017360045481565b3480156101dc57600080fd5b506101b86101eb366004610a76565b61046e565b6101736101fe366004610b36565b61050b565b34801561020f57600080fd5b5061019661069e565b34801561022457600080fd5b50610238610233366004610a76565b61072c565b60408051938452602084019290925290820152606001610134565b34801561025f57600080fd5b5061019661075f565b34801561027457600080fd5b506000546001600160a01b03165b6040516001600160a01b039091168152602001610134565b3480156102a657600080fd5b506000546001600160a01b03163314610128565b3480156102c657600080fd5b50600154610282906001600160a01b031681565b3480156102e657600080fd5b506101286102f5366004610c27565b61077f565b34801561030657600080fd5b506101b8610315366004610c93565b6107f9565b34801561032657600080fd5b5061017360055481565b600080546001600160a01b031633146103645760405162461bcd60e51b815260040161035b90610cd5565b60405180910390fd5b814710156103a95760405162461bcd60e51b8152602060048201526012602482015271496e73756666696369656e742066756e647360701b604482015260640161035b565b6040513390600090829085908381818185875af1925050503d80600081146103ed576040519150601f19603f3d011682016040523d82523d6000602084013e6103f2565b606091505b509095945050505050565b60606040518060600160405280603c8152602001610ed9603c9139905090565b6000546001600160a01b031633146104475760405162461bcd60e51b815260040161035b90610cd5565b60075460ff1661045857600161045b565b60005b6007805460ff1916911515919091179055565b6000546001600160a01b031633146104985760405162461bcd60e51b815260040161035b90610cd5565b600154604051630c054e5360e21b8152600481018390526001600160a01b0390911690633015394c906024016020604051808303816000875af11580156104e3573d6000803e3d6000fd5b505050506040513d601f19601f820116820180604052508101906105079190610d1a565b5050565b6001546000906001600160a01b031633148061053157506000546001600160a01b031633145b6105955760405162461bcd60e51b815260206004820152602f60248201527f46756e6374696f6e2061636365737369626c65206f6e6c79206279207468652060448201526e37bbb732b91037b910313937b5b2b960891b606482015260840161035b565b61059f4734610d52565b8411156105e35760405162461bcd60e51b8152602060048201526012602482015271496e73756666696369656e742066756e647360701b604482015260640161035b565b6001546040516378f8af2560e11b81526000916001600160a01b03169063f1f15e4a9087906106189088908890600401610d6b565b60206040518083038185885af1158015610636573d6000803e3d6000fd5b50505050506040513d601f19601f8201168201806040525081019061065b9190610d8d565b90507fd3b0b0209035a5613265e8fb1f38873ea24c7c6189b128eebe3689c03d13905c8160405161068e91815260200190565b60405180910390a1949350505050565b600280546106ab90610da6565b80601f01602080910402602001604051908101604052809291908181526020018280546106d790610da6565b80156107245780601f106106f957610100808354040283529160200191610724565b820191906000526020600020905b81548152906001019060200180831161070757829003601f168201915b505050505081565b6003818154811061073c57600080fd5b600091825260209091206003909102018054600182015460029092015490925083565b6060604051806060016040528060248152602001610eb560249139905090565b60008061078e85870187610de0565b9050600061079e84860186610e3c565b805183519192501480156107ee57508160200151816020015183604001516040516020016107d6929190918252602082015260400190565b60405160208183030381529060405280519060200120145b979650505050505050565b6001546001600160a01b031633146108705760405162461bcd60e51b815260206004820152603460248201527f43616e206f6e6c792062652063616c6c65642062792074686520726567697374604482015273195c995908189c9bdad95c8818dbdb9d1c9858dd60621b606482015260840161035b565b600061087e82840184610e3c565b90508060200151600382600001518154811061089c5761089c610e8b565b90600052602060002090600302016002018190555060016003805490506108c39190610ea1565b815103610928576020808201516040516108e1920190815260200190565b60408051601f198184030181529082905280516020909101206004557f3523c39eb1a9c40e6a7c7504001ca3d223a7675dc8634b5aa1b056124b87cd3690600090a1505050565b60208082015160405161093f920190815260200190565b604051602081830303815290604052805190602001206003826000015160016109689190610d52565b8154811061097857610978610e8b565b600091825260209091206001600390920201015560075460ff1615610a715760006040518060600160405280836000015160016109b59190610d52565b81526020016003846000015160016109cd9190610d52565b815481106109dd576109dd610e8b565b9060005260206000209060030201600001548152602001600384600001516001610a079190610d52565b81548110610a1757610a17610e8b565b6000918252602091829020600160039092020101549091526005546040805184518185015292840151838201528301516060830152919250610a6e919060800160405160208183030381529060405260065461050b565b50505b505050565b600060208284031215610a8857600080fd5b5035919050565b6000815180845260005b81811015610ab557602081850181015186830182015201610a99565b506000602082860101526020601f19601f83011685010191505092915050565b602081526000610ae86020830184610a8f565b9392505050565b634e487b7160e01b600052604160045260246000fd5b604051601f8201601f1916810167ffffffffffffffff81118282101715610b2e57610b2e610aef565b604052919050565b600080600060608486031215610b4b57600080fd5b8335925060208085013567ffffffffffffffff80821115610b6b57600080fd5b818701915087601f830112610b7f57600080fd5b813581811115610b9157610b91610aef565b610ba3601f8201601f19168501610b05565b91508082528884828501011115610bb957600080fd5b8084840185840137600084828401015250809450505050604084013590509250925092565b60008083601f840112610bf057600080fd5b50813567ffffffffffffffff811115610c0857600080fd5b602083019150836020828501011115610c2057600080fd5b9250929050565b60008060008060408587031215610c3d57600080fd5b843567ffffffffffffffff80821115610c5557600080fd5b610c6188838901610bde565b90965094506020870135915080821115610c7a57600080fd5b50610c8787828801610bde565b95989497509550505050565b60008060208385031215610ca657600080fd5b823567ffffffffffffffff811115610cbd57600080fd5b610cc985828601610bde565b90969095509350505050565b60208082526025908201527f46756e6374696f6e2061636365737369626c65206f6e6c79206279207468652060408201526437bbb732b960d91b606082015260800190565b600060208284031215610d2c57600080fd5b81518015158114610ae857600080fd5b634e487b7160e01b600052601160045260246000fd5b80820180821115610d6557610d65610d3c565b92915050565b604081526000610d7e6040830185610a8f565b90508260208301529392505050565b600060208284031215610d9f57600080fd5b5051919050565b600181811c90821680610dba57607f821691505b602082108103610dda57634e487b7160e01b600052602260045260246000fd5b50919050565b600060608284031215610df257600080fd5b6040516060810181811067ffffffffffffffff82111715610e1557610e15610aef565b80604052508235815260208301356020820152604083013560408201528091505092915050565b600060408284031215610e4e57600080fd5b6040516040810181811067ffffffffffffffff82111715610e7157610e71610aef565b604052823581526020928301359281019290925250919050565b634e487b7160e01b600052603260045260246000fd5b81810381811115610d6557610d65610d3c56fe7b75696e7420667261676d656e74496e6465783b2075696e742070617373636f64653b7d7b75696e7420667261676d656e74496e6465783b206279746573333220676c6f62616c486173683b2062797465733332206c6f63616c486173683b7da2646970667358221220c7c149b232715d8c437f2dba85e08b18805496654d50919bb8e75f0f5b3e5ada64736f6c63430008130033",
  "bytecodeSha1": "da3e92346496e6966ce43fca1a3bf94b21bde9b8",
  "compiler": {
    "evm_version": "istanbul",
    "optimizer": {
      "enabled": true,
      "runs": 200
    },
    "version": "0.8.19+commit.7dd6d404"
  },
  "contractName": "TS3000",
  "language": "Solidity",
  "natspec": {
    "kind": "dev",
    "methods": {},
    "version": 1
  },
  "opcodes": "PUSH1 0x80 PUSH1 0x40 MSTORE PUSH1 0x4 CALLDATASIZE LT PUSH2 0x109 JUMPI PUSH1 0x0 CALLDATALOAD PUSH1 0xE0 SHR DUP1 PUSH4 0x7353D891 GT PUSH2 0x95 JUMPI DUP1 PUSH4 0x8F32D59B GT PUSH2 0x64 JUMPI DUP1 PUSH4 0x8F32D59B EQ PUSH2 0x29A JUMPI DUP1 PUSH4 0xC2C56245 EQ PUSH2 0x2BA JUMPI DUP1 PUSH4 0xC91C7B37 EQ PUSH2 0x2DA JUMPI DUP1 PUSH4 0xCB392747 EQ PUSH2 0x2FA JUMPI DUP1 PUSH4 0xD997EBF5 EQ PUSH2 0x31A JUMPI PUSH1 0x0 DUP1 REVERT JUMPDEST DUP1 PUSH4 0x7353D891 EQ PUSH2 0x218 JUMPI DUP1 PUSH4 0x8244741C EQ PUSH2 0x253 JUMPI DUP1 PUSH4 0x8D68CF59 EQ PUSH2 0x1B8 JUMPI DUP1 PUSH4 0x8DA5CB5B EQ PUSH2 0x268 JUMPI PUSH1 0x0 DUP1 REVERT JUMPDEST DUP1 PUSH4 0x2D16D25B GT PUSH2 0xDC JUMPI DUP1 PUSH4 0x2D16D25B EQ PUSH2 0x1A3 JUMPI DUP1 PUSH4 0x2D9E78B8 EQ PUSH2 0x1BA JUMPI DUP1 PUSH4 0x3015394C EQ PUSH2 0x1D0 JUMPI DUP1 PUSH4 0x43BB58DE EQ PUSH2 0x1F0 JUMPI DUP1 PUSH4 0x552B0B83 EQ PUSH2 0x203 JUMPI PUSH1 0x0 DUP1 REVERT JUMPDEST DUP1 PUSH4 0x15594B8 EQ PUSH2 0x10E JUMPI DUP1 PUSH4 0x155DD5EE EQ PUSH2 0x13D JUMPI DUP1 PUSH4 0x22473385 EQ PUSH2 0x15D JUMPI DUP1 PUSH4 0x2896DE13 EQ PUSH2 0x181 JUMPI JUMPDEST PUSH1 0x0 DUP1 REVERT JUMPDEST CALLVALUE DUP1 ISZERO PUSH2 0x11A JUMPI PUSH1 0x0 DUP1 REVERT JUMPDEST POP PUSH1 0x7 SLOAD PUSH2 0x128 SWAP1 PUSH1 0xFF AND DUP2 JUMP JUMPDEST PUSH1 0x40 MLOAD SWAP1 ISZERO ISZERO DUP2 MSTORE PUSH1 0x20 ADD JUMPDEST PUSH1 0x40 MLOAD DUP1 SWAP2 SUB SWAP1 RETURN JUMPDEST CALLVALUE DUP1 ISZERO PUSH2 0x149 JUMPI PUSH1 0x0 DUP1 REVERT JUMPDEST POP PUSH2 0x128 PUSH2 0x158 CALLDATASIZE PUSH1 0x4 PUSH2 0xA76 JUMP JUMPDEST PUSH2 0x330 JUMP JUMPDEST CALLVALUE DUP1 ISZERO PUSH2 0x169 JUMPI PUSH1 0x0 DUP1 REVERT JUMPDEST POP PUSH2 0x173 PUSH1 0x6 SLOAD DUP2 JUMP JUMPDEST PUSH1 0x40 MLOAD SWAP1 DUP2 MSTORE PUSH1 0x20 ADD PUSH2 0x134 JUMP JUMPDEST CALLVALUE DUP1 ISZERO PUSH2 0x18D JUMPI PUSH1 0x0 DUP1 REVERT JUMPDEST POP PUSH2 0x196 PUSH2 0x3FD JUMP JUMPDEST PUSH1 0x40 MLOAD PUSH2 0x134 SWAP2 SWAP1 PUSH2 0xAD5 JUMP JUMPDEST CALLVALUE DUP1 ISZERO PUSH2 0x1AF JUMPI PUSH1 0x0 DUP1 REVERT JUMPDEST POP PUSH2 0x1B8 PUSH2 0x41D JUMP JUMPDEST STOP JUMPDEST CALLVALUE DUP1 ISZERO PUSH2 0x1C6 JUMPI PUSH1 0x0 DUP1 REVERT JUMPDEST POP PUSH2 0x173 PUSH1 0x4 SLOAD DUP2 JUMP JUMPDEST CALLVALUE DUP1 ISZERO PUSH2 0x1DC JUMPI PUSH1 0x0 DUP1 REVERT JUMPDEST POP PUSH2 0x1B8 PUSH2 0x1EB CALLDATASIZE PUSH1 0x4 PUSH2 0xA76 JUMP JUMPDEST PUSH2 0x46E JUMP JUMPDEST PUSH2 0x173 PUSH2 0x1FE CALLDATASIZE PUSH1 0x4 PUSH2 0xB36 JUMP JUMPDEST PUSH2 0x50B JUMP JUMPDEST CALLVALUE DUP1 ISZERO PUSH2 0x20F JUMPI PUSH1 0x0 DUP1 REVERT JUMPDEST POP PUSH2 0x196 PUSH2 0x69E JUMP JUMPDEST CALLVALUE DUP1 ISZERO PUSH2 0x224 JUMPI PUSH1 0x0 DUP1 REVERT JUMPDEST POP PUSH2 0x238 PUSH2 0x233 CALLDATASIZE PUSH1 0x4 PUSH2 0xA76 JUMP JUMPDEST PUSH2 0x72C JUMP JUMPDEST PUSH1 0x40 DUP1 MLOAD SWAP4 DUP5 MSTORE PUSH1 0x20 DUP5 ADD SWAP3 SWAP1 SWAP3 MSTORE SWAP1 DUP3 ADD MSTORE PUSH1 0x60 ADD PUSH2 0x134 JUMP JUMPDEST CALLVALUE DUP1 ISZERO PUSH2 0x25F JUMPI PUSH1 0x0 DUP1 REVERT JUMPDEST POP PUSH2 0x196 PUSH2 0x75F JUMP JUMPDEST CALLVALUE DUP1 ISZERO PUSH2 0x274 JUMPI PUSH1 0x0 DUP1 REVERT JUMPDEST POP PUSH1 0x0 SLOAD PUSH1 0x1 PUSH1 0x1 PUSH1 0xA0 SHL SUB AND JUMPDEST PUSH1 0x40 MLOAD PUSH1 0x1 PUSH1 0x1 PUSH1 0xA0 SHL SUB SWAP1 SWAP2 AND DUP2 MSTORE PUSH1 0x20 ADD PUSH2 0x134 JUMP JUMPDEST CALLVALUE DUP1 ISZERO PUSH2 0x2A6 JUMPI PUSH1 0x0 DUP1 REVERT JUMPDEST POP PUSH1 0x0 SLOAD PUSH1 0x1 PUSH1 0x1 PUSH1 0xA0 SHL SUB AND CALLER EQ PUSH2 0x128 JUMP JUMPDEST CALLVALUE DUP1 ISZERO PUSH2 0x2C6 JUMPI PUSH1 0x0 DUP1 REVERT JUMPDEST POP PUSH1 0x1 SLOAD PUSH2 0x282 SWAP1 PUSH1 0x1 PUSH1 0x1 PUSH1 0xA0 SHL SUB AND DUP2 JUMP JUMPDEST CALLVALUE DUP1 ISZERO PUSH2 0x2E6 JUMPI PUSH1 0x0 DUP1 REVERT JUMPDEST POP PUSH2 0x128 PUSH2 0x2F5 CALLDATASIZE PUSH1 0x4 PUSH2 0xC27 JUMP JUMPDEST PUSH2 0x77F JUMP JUMPDEST CALLVALUE DUP1 ISZERO PUSH2 0x306 JUMPI PUSH1 0x0 DUP1 REVERT JUMPDEST POP PUSH2 0x1B8 PUSH2 0x315 CALLDATASIZE PUSH1 0x4 PUSH2 0xC93 JUMP JUMPDEST PUSH2 0x7F9 JUMP JUMPDEST CALLVALUE DUP1 ISZERO PUSH2 0x326 JUMPI PUSH1 0x0 DUP1 REVERT JUMPDEST POP PUSH2 0x173 PUSH1 0x5 SLOAD DUP2 JUMP JUMPDEST PUSH1 0x0 DUP1 SLOAD PUSH1 0x1 PUSH1 0x1 PUSH1 0xA0 SHL SUB AND CALLER EQ PUSH2 0x364 JUMPI PUSH1 0x40 MLOAD PUSH3 0x461BCD PUSH1 0xE5 SHL DUP2 MSTORE PUSH1 0x4 ADD PUSH2 0x35B SWAP1 PUSH2 0xCD5 JUMP JUMPDEST PUSH1 0x40 MLOAD DUP1 SWAP2 SUB SWAP1 REVERT JUMPDEST DUP2 SELFBALANCE LT ISZERO PUSH2 0x3A9 JUMPI PUSH1 0x40 MLOAD PUSH3 0x461BCD PUSH1 0xE5 SHL DUP2 MSTORE PUSH1 0x20 PUSH1 0x4 DUP3 ADD MSTORE PUSH1 0x12 PUSH1 0x24 DUP3 ADD MSTORE PUSH18 0x496E73756666696369656E742066756E6473 PUSH1 0x70 SHL PUSH1 0x44 DUP3 ADD MSTORE PUSH1 0x64 ADD PUSH2 0x35B JUMP JUMPDEST PUSH1 0x40 MLOAD CALLER SWAP1 PUSH1 0x0 SWAP1 DUP3 SWAP1 DUP6 SWAP1 DUP4 DUP2 DUP2 DUP2 DUP6 DUP8 GAS CALL SWAP3 POP POP POP RETURNDATASIZE DUP1 PUSH1 0x0 DUP2 EQ PUSH2 0x3ED JUMPI PUSH1 0x40 MLOAD SWAP2 POP PUSH1 0x1F NOT PUSH1 0x3F RETURNDATASIZE ADD AND DUP3 ADD PUSH1 0x40 MSTORE RETURNDATASIZE DUP3 MSTORE RETURNDATASIZE PUSH1 0x0 PUSH1 0x20 DUP5 ADD RETURNDATACOPY PUSH2 0x3F2 JUMP JUMPDEST PUSH1 0x60 SWAP2 POP JUMPDEST POP SWAP1 SWAP6 SWAP5 POP POP POP POP POP JUMP JUMPDEST PUSH1 0x60 PUSH1 0x40 MLOAD DUP1 PUSH1 0x60 ADD PUSH1 0x40 MSTORE DUP1 PUSH1 0x3C DUP2 MSTORE PUSH1 0x20 ADD PUSH2 0xED9 PUSH1 0x3C SWAP2 CODECOPY SWAP1 POP SWAP1 JUMP JUMPDEST PUSH1 0x0 SLOAD PUSH1 0x1 PUSH1 0x1 PUSH1 0xA0 SHL SUB AND CALLER EQ PUSH2 0x447 JUMPI PUSH1 0x40 MLOAD PUSH3 0x461BCD PUSH1 0xE5 SHL DUP2 MSTORE PUSH1 0x4 ADD PUSH2 0x35B SWAP1 PUSH2 0xCD5 JUMP JUMPDEST PUSH1 0x7 SLOAD PUSH1 0xFF AND PUSH2 0x458 JUMPI PUSH1 0x1 PUSH2 0x45B JUMP JUMPDEST PUSH1 0x0 JUMPDEST PUSH1 0x7 DUP1 SLOAD PUSH1 0xFF NOT AND SWAP2 ISZERO ISZERO SWAP2 SWAP1 SWAP2 OR SWAP1 SSTORE JUMP JUMPDEST PUSH1 0x0 SLOAD PUSH1 0x1 PUSH1 0x1 PUSH1 0xA0 SHL SUB AND CALLER EQ PUSH2 0x498 JUMPI PUSH1 0x40 MLOAD PUSH3 0x461BCD PUSH1 0xE5 SHL DUP2 MSTORE PUSH1 0x4 ADD PUSH2 0x35B SWAP1 PUSH2 0xCD5 JUMP JUMPDEST PUSH1 0x1 SLOAD PUSH1 0x40 MLOAD PUSH4 0xC054E53 PUSH1 0xE2 SHL DUP2 MSTORE PUSH1 0x4 DUP2 ADD DUP4 SWAP1 MSTORE PUSH1 0x1 PUSH1 0x1 PUSH1 0xA0 SHL SUB SWAP1 SWAP2 AND SWAP1 PUSH4 0x3015394C SWAP1 PUSH1 0x24 ADD PUSH1 0x20 PUSH1 0x40 MLOAD DUP1 DUP4 SUB DUP2 PUSH1 0x0 DUP8 GAS CALL ISZERO DUP1 ISZERO PUSH2 0x4E3 JUMPI RETURNDATASIZE PUSH1 0x0 DUP1 RETURNDATACOPY RETURNDATASIZE PUSH1 0x0 REVERT JUMPDEST POP POP POP POP PUSH1 0x40 MLOAD RETURNDATASIZE PUSH1 0x1F NOT PUSH1 0x1F DUP3 ADD AND DUP3 ADD DUP1 PUSH1 0x40 MSTORE POP DUP2 ADD SWAP1 PUSH2 0x507 SWAP2 SWAP1 PUSH2 0xD1A JUMP JUMPDEST POP POP JUMP JUMPDEST PUSH1 0x1 SLOAD PUSH1 0x0 SWAP1 PUSH1 0x1 PUSH1 0x1 PUSH1 0xA0 SHL SUB AND CALLER EQ DUP1 PUSH2 0x531 JUMPI POP PUSH1 0x0 SLOAD PUSH1 0x1 PUSH1 0x1 PUSH1 0xA0 SHL SUB AND CALLER EQ JUMPDEST PUSH2 0x595 JUMPI PUSH1 0x40 MLOAD PUSH3 0x461BCD PUSH1 0xE5 SHL DUP2 MSTORE PUSH1 0x20 PUSH1 0x4 DUP3 ADD MSTORE PUSH1 0x2F PUSH1 0x24 DUP3 ADD MSTORE PUSH32 0x46756E6374696F6E2061636365737369626C65206F6E6C792062792074686520 PUSH1 0x44 DUP3 ADD MSTORE PUSH15 0x37BBB732B91037B910313937B5B2B9 PUSH1 0x89 SHL PUSH1 0x64 DUP3 ADD MSTORE PUSH1 0x84 ADD PUSH2 0x35B JUMP JUMPDEST PUSH2 0x59F SELFBALANCE CALLVALUE PUSH2 0xD52 JUMP JUMPDEST DUP5 GT ISZERO PUSH2 0x5E3 JUMPI PUSH1 0x40 MLOAD PUSH3 0x461BCD PUSH1 0xE5 SHL DUP2 MSTORE PUSH1 0x20 PUSH1 0x4 DUP3 ADD MSTORE PUSH1 0x12 PUSH1 0x24 DUP3 ADD MSTORE PUSH18 0x496E73756666696369656E742066756E6473 PUSH1 0x70 SHL PUSH1 0x44 DUP3 ADD MSTORE PUSH1 0x64 ADD PUSH2 0x35B JUMP JUMPDEST PUSH1 0x1 SLOAD PUSH1 0x40 MLOAD PUSH4 0x78F8AF25 PUSH1 0xE1 SHL DUP2 MSTORE PUSH1 0x0 SWAP2 PUSH1 0x1 PUSH1 0x1 PUSH1 0xA0 SHL SUB AND SWAP1 PUSH4 0xF1F15E4A SWAP1 DUP8 SWAP1 PUSH2 0x618 SWAP1 DUP9 SWAP1 DUP9 SWAP1 PUSH1 0x4 ADD PUSH2 0xD6B JUMP JUMPDEST PUSH1 0x20 PUSH1 0x40 MLOAD DUP1 DUP4 SUB DUP2 DUP6 DUP9 GAS CALL ISZERO DUP1 ISZERO PUSH2 0x636 JUMPI RETURNDATASIZE PUSH1 0x0 DUP1 RETURNDATACOPY RETURNDATASIZE PUSH1 0x0 REVERT JUMPDEST POP POP POP POP POP PUSH1 0x40 MLOAD RETURNDATASIZE PUSH1 0x1F NOT PUSH1 0x1F DUP3 ADD AND DUP3 ADD DUP1 PUSH1 0x40 MSTORE POP DUP2 ADD SWAP1 PUSH2 0x65B SWAP2 SWAP1 PUSH2 0xD8D JUMP JUMPDEST SWAP1 POP PUSH32 0xD3B0B0209035A5613265E8FB1F38873EA24C7C6189B128EEBE3689C03D13905C DUP2 PUSH1 0x40 MLOAD PUSH2 0x68E SWAP2 DUP2 MSTORE PUSH1 0x20 ADD SWAP1 JUMP JUMPDEST PUSH1 0x40 MLOAD DUP1 SWAP2 SUB SWAP1 LOG1 SWAP5 SWAP4 POP POP POP POP JUMP JUMPDEST PUSH1 0x2 DUP1 SLOAD PUSH2 0x6AB SWAP1 PUSH2 0xDA6 JUMP JUMPDEST DUP1 PUSH1 0x1F ADD PUSH1 0x20 DUP1 SWAP2 DIV MUL PUSH1 0x20 ADD PUSH1 0x40 MLOAD SWAP1 DUP2 ADD PUSH1 0x40 MSTORE DUP1 SWAP3 SWAP2 SWAP1 DUP2 DUP2 MSTORE PUSH1 0x20 ADD DUP3 DUP1 SLOAD PUSH2 0x6D7 SWAP1 PUSH2 0xDA6 JUMP JUMPDEST DUP1 ISZERO PUSH2 0x724 JUMPI DUP1 PUSH1 0x1F LT PUSH2 0x6F9 JUMPI PUSH2 0x100 DUP1 DUP4 SLOAD DIV MUL DUP4 MSTORE SWAP2 PUSH1 0x20 ADD SWAP2 PUSH2 0x724 JUMP JUMPDEST DUP3 ADD SWAP2 SWAP1 PUSH1 0x0 MSTORE PUSH1 0x20 PUSH1 0x0 KECCAK256 SWAP1 JUMPDEST DUP2 SLOAD DUP2 MSTORE SWAP1 PUSH1 0x1 ADD SWAP1 PUSH1 0x20 ADD DUP1 DUP4 GT PUSH2 0x707 JUMPI DUP3 SWAP1 SUB PUSH1 0x1F AND DUP3 ADD SWAP2 JUMPDEST POP POP POP POP POP DUP2 JUMP JUMPDEST PUSH1 0x3 DUP2 DUP2 SLOAD DUP2 LT PUSH2 0x73C JUMPI PUSH1 0x0 DUP1 REVERT JUMPDEST PUSH1 0x0 SWAP2 DUP3 MSTORE PUSH1 0x20 SWAP1 SWAP2 KECCAK256 PUSH1 0x3 SWAP1 SWAP2 MUL ADD DUP1 SLOAD PUSH1 0x1 DUP3 ADD SLOAD PUSH1 0x2 SWAP1 SWAP3 ADD SLOAD SWAP1 SWAP3 POP DUP4 JUMP JUMPDEST PUSH1 0x60 PUSH1 0x40 MLOAD DUP1 PUSH1 0x60 ADD PUSH1 0x40 MSTORE DUP1 PUSH1 0x24 DUP2 MSTORE PUSH1 0x20 ADD PUSH2 0xEB5 PUSH1 0x24 SWAP2 CODECOPY SWAP1 POP SWAP1 JUMP JUMPDEST PUSH1 0x0 DUP1 PUSH2 0x78E DUP6 DUP8 ADD DUP8 PUSH2 0xDE0 JUMP JUMPDEST SWAP1 POP PUSH1 0x0 PUSH2 0x79E DUP5 DUP7 ADD DUP7 PUSH2 0xE3C JUMP JUMPDEST DUP1 MLOAD DUP4 MLOAD SWAP2 SWAP3 POP EQ DUP1 ISZERO PUSH2 0x7EE JUMPI POP DUP2 PUSH1 0x20 ADD MLOAD DUP2 PUSH1 0x20 ADD MLOAD DUP4 PUSH1 0x40 ADD MLOAD PUSH1 0x40 MLOAD PUSH1 0x20 ADD PUSH2 0x7D6 SWAP3 SWAP2 SWAP1 SWAP2 DUP3 MSTORE PUSH1 0x20 DUP3 ADD MSTORE PUSH1 0x40 ADD SWAP1 JUMP JUMPDEST PUSH1 0x40 MLOAD PUSH1 0x20 DUP2 DUP4 SUB SUB DUP2 MSTORE SWAP1 PUSH1 0x40 MSTORE DUP1 MLOAD SWAP1 PUSH1 0x20 ADD KECCAK256 EQ JUMPDEST SWAP8 SWAP7 POP POP POP POP POP POP POP JUMP JUMPDEST PUSH1 0x1 SLOAD PUSH1 0x1 PUSH1 0x1 PUSH1 0xA0 SHL SUB AND CALLER EQ PUSH2 0x870 JUMPI PUSH1 0x40 MLOAD PUSH3 0x461BCD PUSH1 0xE5 SHL DUP2 MSTORE PUSH1 0x20 PUSH1 0x4 DUP3 ADD MSTORE PUSH1 0x34 PUSH1 0x24 DUP3 ADD MSTORE PUSH32 0x43616E206F6E6C792062652063616C6C65642062792074686520726567697374 PUSH1 0x44 DUP3 ADD MSTORE PUSH20 0x195C995908189C9BDAD95C8818DBDB9D1C9858DD PUSH1 0x62 SHL PUSH1 0x64 DUP3 ADD MSTORE PUSH1 0x84 ADD PUSH2 0x35B JUMP JUMPDEST PUSH1 0x0 PUSH2 0x87E DUP3 DUP5 ADD DUP5 PUSH2 0xE3C JUMP JUMPDEST SWAP1 POP DUP1 PUSH1 0x20 ADD MLOAD PUSH1 0x3 DUP3 PUSH1 0x0 ADD MLOAD DUP2 SLOAD DUP2 LT PUSH2 0x89C JUMPI PUSH2 0x89C PUSH2 0xE8B JUMP JUMPDEST SWAP1 PUSH1 0x0 MSTORE PUSH1 0x20 PUSH1 0x0 KECCAK256 SWAP1 PUSH1 0x3 MUL ADD PUSH1 0x2 ADD DUP2 SWAP1 SSTORE POP PUSH1 0x1 PUSH1 0x3 DUP1 SLOAD SWAP1 POP PUSH2 0x8C3 SWAP2 SWAP1 PUSH2 0xEA1 JUMP JUMPDEST DUP2 MLOAD SUB PUSH2 0x928 JUMPI PUSH1 0x20 DUP1 DUP3 ADD MLOAD PUSH1 0x40 MLOAD PUSH2 0x8E1 SWAP3 ADD SWAP1 DUP2 MSTORE PUSH1 0x20 ADD SWAP1 JUMP JUMPDEST PUSH1 0x40 DUP1 MLOAD PUSH1 0x1F NOT DUP2 DUP5 SUB ADD DUP2 MSTORE SWAP1 DUP3 SWAP1 MSTORE DUP1 MLOAD PUSH1 0x20 SWAP1 SWAP2 ADD KECCAK256 PUSH1 0x4 SSTORE PUSH32 0x3523C39EB1A9C40E6A7C7504001CA3D223A7675DC8634B5AA1B056124B87CD36 SWAP1 PUSH1 0x0 SWAP1 LOG1 POP POP POP JUMP JUMPDEST PUSH1 0x20 DUP1 DUP3 ADD MLOAD PUSH1 0x40 MLOAD PUSH2 0x93F SWAP3 ADD SWAP1 DUP2 MSTORE PUSH1 0x20 ADD SWAP1 JUMP JUMPDEST PUSH1 0x40 MLOAD PUSH1 0x20 DUP2 DUP4 SUB SUB DUP2 MSTORE SWAP1 PUSH1 0x40 MSTORE DUP1 MLOAD SWAP1 PUSH1 0x20 ADD KECCAK256 PUSH1 0x3 DUP3 PUSH1 0x0 ADD MLOAD PUSH1 0x1 PUSH2 0x968 SWAP2 SWAP1 PUSH2 0xD52 JUMP JUMPDEST DUP2 SLOAD DUP2 LT PUSH2 0x978 JUMPI PUSH2 0x978 PUSH2 0xE8B JUMP JUMPDEST PUSH1 0x0 SWAP2 DUP3 MSTORE PUSH1 0x20 SWAP1 SWAP2 KECCAK256 PUSH1 0x1 PUSH1 0x3 SWAP1 SWAP3 MUL ADD ADD SSTORE PUSH1 0x7 SLOAD PUSH1 0xFF AND ISZERO PUSH2 0xA71 JUMPI PUSH1 0x0 PUSH1 0x40 MLOAD DUP1 PUSH1 0x60 ADD PUSH1 0x40 MSTORE DUP1 DUP4 PUSH1 0x0 ADD MLOAD PUSH1 0x1 PUSH2 0x9B5 SWAP2 SWAP1 PUSH2 0xD52 JUMP JUMPDEST DUP2 MSTORE PUSH1 0x20 ADD PUSH1 0x3 DUP5 PUSH1 0x0 ADD MLOAD PUSH1 0x1 PUSH2 0x9CD SWAP2 SWAP1 PUSH2 0xD52 JUMP JUMPDEST DUP2 SLOAD DUP2 LT PUSH2 0x9DD JUMPI PUSH2 0x9DD PUSH2 0xE8B JUMP JUMPDEST SWAP1 PUSH1 0x0 MSTORE PUSH1 0x20 PUSH1 0x0 KECCAK256 SWAP1 PUSH1 0x3 MUL ADD PUSH1 0x0 ADD SLOAD DUP2 MSTORE PUSH1 0x20 ADD PUSH1 0x3 DUP5 PUSH1 0x0 ADD MLOAD PUSH1 0x1 PUSH2 0xA07 SWAP2 SWAP1 PUSH2 0xD52 JUMP JUMPDEST DUP2 SLOAD DUP2 LT PUSH2 0xA17 JUMPI PUSH2 0xA17 PUSH2 0xE8B JUMP JUMPDEST PUSH1 0x0 SWAP2 DUP3 MSTORE PUSH1 0x20 SWAP2 DUP3 SWAP1 KECCAK256 PUSH1 0x1 PUSH1 0x3 SWAP1 SWAP3 MUL ADD ADD SLOAD SWAP1 SWAP2 MSTORE PUSH1 0x5 SLOAD PUSH1 0x40 DUP1 MLOAD DUP5 MLOAD DUP2 DUP6 ADD MSTORE SWAP3 DUP5 ADD MLOAD DUP4 DUP3 ADD MSTORE DUP4 ADD MLOAD PUSH1 0x60 DUP4 ADD MSTORE SWAP2 SWAP3 POP PUSH2 0xA6E SWAP2 SWAP1 PUSH1 0x80 ADD PUSH1 0x40 MLOAD PUSH1 0x20 DUP2 DUP4 SUB SUB DUP2 MSTORE SWAP1 PUSH1 0x40 MSTORE PUSH1 0x6 SLOAD PUSH2 0x50B JUMP JUMPDEST POP POP JUMPDEST POP POP POP JUMP JUMPDEST PUSH1 0x0 PUSH1 0x20 DUP3 DUP5 SUB SLT ISZERO PUSH2 0xA88 JUMPI PUSH1 0x0 DUP1 REVERT JUMPDEST POP CALLDATALOAD SWAP2 SWAP1 POP JUMP JUMPDEST PUSH1 0x0 DUP2 MLOAD DUP1 DUP5 MSTORE PUSH1 0x0 JUMPDEST DUP2 DUP2 LT ISZERO PUSH2 0xAB5 JUMPI PUSH1 0x20 DUP2 DUP6 ADD DUP2 ADD MLOAD DUP7 DUP4 ADD DUP3 ADD MSTORE ADD PUSH2 0xA99 JUMP JUMPDEST POP PUSH1 0x0 PUSH1 0x20 DUP3 DUP7 ADD ADD MSTORE PUSH1 0x20 PUSH1 0x1F NOT PUSH1 0x1F DUP4 ADD AND DUP6 ADD ADD SWAP2 POP POP SWAP3 SWAP2 POP POP JUMP JUMPDEST PUSH1 0x20 DUP2 MSTORE PUSH1 0x0 PUSH2 0xAE8 PUSH1 0x20 DUP4 ADD DUP5 PUSH2 0xA8F JUMP JUMPDEST SWAP4 SWAP3 POP POP POP JUMP JUMPDEST PUSH4 0x4E487B71 PUSH1 0xE0 SHL PUSH1 0x0 MSTORE PUSH1 0x41 PUSH1 0x4 MSTORE PUSH1 0x24 PUSH1 0x0 REVERT JUMPDEST PUSH1 0x40 MLOAD PUSH1 0x1F DUP3 ADD PUSH1 0x1F NOT AND DUP2 ADD PUSH8 0xFFFFFFFFFFFFFFFF DUP2 GT DUP3 DUP3 LT OR ISZERO PUSH2 0xB2E JUMPI PUSH2 0xB2E PUSH2 0xAEF JUMP JUMPDEST PUSH1 0x40 MSTORE SWAP2 SWAP1 POP JUMP JUMPDEST PUSH1 0x0 DUP1 PUSH1 0x0 PUSH1 0x60 DUP5 DUP7 SUB SLT ISZERO PUSH2 0xB4B JUMPI PUSH1 0x0 DUP1 REVERT JUMPDEST DUP4 CALLDATALOAD SWAP3 POP PUSH1 0x20 DUP1 DUP6 ADD CALLDATALOAD PUSH8 0xFFFFFFFFFFFFFFFF DUP1 DUP3 GT ISZERO PUSH2 0xB6B JUMPI PUSH1 0x0 DUP1 REVERT JUMPDEST DUP2 DUP8 ADD SWAP2 POP DUP8 PUSH1 0x1F DUP4 ADD SLT PUSH2 0xB7F JUMPI PUSH1 0x0 DUP1 REVERT JUMPDEST DUP2 CALLDATALOAD DUP2 DUP2 GT ISZERO PUSH2 0xB91 JUMPI PUSH2 0xB91 PUSH2 0xAEF JUMP JUMPDEST PUSH2 0xBA3 PUSH1 0x1F DUP3 ADD PUSH1 0x1F NOT AND DUP6 ADD PUSH2 0xB05 JUMP JUMPDEST SWAP2 POP DUP1 DUP3 MSTORE DUP9 DUP5 DUP3 DUP6 ADD ADD GT ISZERO PUSH2 0xBB9 JUMPI PUSH1 0x0 DUP1 REVERT JUMPDEST DUP1 DUP5 DUP5 ADD DUP6 DUP5 ADD CALLDATACOPY PUSH1 0x0 DUP5 DUP3 DUP5 ADD ADD MSTORE POP DUP1 SWAP5 POP POP POP POP PUSH1 0x40 DUP5 ADD CALLDATALOAD SWAP1 POP SWAP3 POP SWAP3 POP SWAP3 JUMP JUMPDEST PUSH1 0x0 DUP1 DUP4 PUSH1 0x1F DUP5 ADD SLT PUSH2 0xBF0 JUMPI PUSH1 0x0 DUP1 REVERT JUMPDEST POP DUP2 CALLDATALOAD PUSH8 0xFFFFFFFFFFFFFFFF DUP2 GT ISZERO PUSH2 0xC08 JUMPI PUSH1 0x0 DUP1 REVERT JUMPDEST PUSH1 0x20 DUP4 ADD SWAP2 POP DUP4 PUSH1 0x20 DUP3 DUP6 ADD ADD GT ISZERO PUSH2 0xC20 JUMPI PUSH1 0x0 DUP1 REVERT JUMPDEST SWAP3 POP SWAP3 SWAP1 POP JUMP JUMPDEST PUSH1 0x0 DUP1 PUSH1 0x0 DUP1 PUSH1 0x40 DUP6 DUP8 SUB SLT ISZERO PUSH2 0xC3D JUMPI PUSH1 0x0 DUP1 REVERT JUMPDEST DUP5 CALLDATALOAD PUSH8 0xFFFFFFFFFFFFFFFF DUP1 DUP3 GT ISZERO PUSH2 0xC55 JUMPI PUSH1 0x0 DUP1 REVERT JUMPDEST PUSH2 0xC61 DUP9 DUP4 DUP10 ADD PUSH2 0xBDE JUMP JUMPDEST SWAP1 SWAP7 POP SWAP5 POP PUSH1 0x20 DUP8 ADD CALLDATALOAD SWAP2 POP DUP1 DUP3 GT ISZERO PUSH2 0xC7A JUMPI PUSH1 0x0 DUP1 REVERT JUMPDEST POP PUSH2 0xC87 DUP8 DUP3 DUP9 ADD PUSH2 0xBDE JUMP JUMPDEST SWAP6 SWAP9 SWAP5 SWAP8 POP SWAP6 POP POP POP POP JUMP JUMPDEST PUSH1 0x0 DUP1 PUSH1 0x20 DUP4 DUP6 SUB SLT ISZERO PUSH2 0xCA6 JUMPI PUSH1 0x0 DUP1 REVERT JUMPDEST DUP3 CALLDATALOAD PUSH8 0xFFFFFFFFFFFFFFFF DUP2 GT ISZERO PUSH2 0xCBD JUMPI PUSH1 0x0 DUP1 REVERT JUMPDEST PUSH2 0xCC9 DUP6 DUP3 DUP7 ADD PUSH2 0xBDE JUMP JUMPDEST SWAP1 SWAP7 SWAP1 SWAP6 POP SWAP4 POP POP POP POP JUMP JUMPDEST PUSH1 0x20 DUP1 DUP3 MSTORE PUSH1 0x25 SWAP1 DUP3 ADD MSTORE PUSH32 0x46756E6374696F6E2061636365737369626C65206F6E6C792062792074686520 PUSH1 0x40 DUP3 ADD MSTORE PUSH5 0x37BBB732B9 PUSH1 0xD9 SHL PUSH1 0x60 DUP3 ADD MSTORE PUSH1 0x80 ADD SWAP1 JUMP JUMPDEST PUSH1 0x0 PUSH1 0x20 DUP3 DUP5 SUB SLT ISZERO PUSH2 0xD2C JUMPI PUSH1 0x0 DUP1 REVERT JUMPDEST DUP2 MLOAD DUP1 ISZERO ISZERO DUP2 EQ PUSH2 0xAE8 JUMPI PUSH1 0x0 DUP1 REVERT JUMPDEST PUSH4 0x4E487B71 PUSH1 0xE0 SHL PUSH1 0x0 MSTORE PUSH1 0x11 PUSH1 0x4 MSTORE PUSH1 0x24 PUSH1 0x0 REVERT JUMPDEST DUP1 DUP3 ADD DUP1 DUP3 GT ISZERO PUSH2 0xD65 JUMPI PUSH2 0xD65 PUSH2 0xD3C JUMP JUMPDEST SWAP3 SWAP2 POP POP JUMP JUMPDEST PUSH1 0x40 DUP2 MSTORE PUSH1 0x0 PUSH2 0xD7E PUSH1 0x40 DUP4 ADD DUP6 PUSH2 0xA8F JUMP JUMPDEST SWAP1 POP DUP3 PUSH1 0x20 DUP4 ADD MSTORE SWAP4 SWAP3 POP POP POP JUMP JUMPDEST PUSH1 0x0 PUSH1 0x20 DUP3 DUP5 SUB SLT ISZERO PUSH2 0xD9F JUMPI PUSH1 0x0 DUP1 REVERT JUMPDEST POP MLOAD SWAP2 SWAP1 POP JUMP JUMPDEST PUSH1 0x1 DUP2 DUP2 SHR SWAP1 DUP3 AND DUP1 PUSH2 0xDBA JUMPI PUSH1 0x7F DUP3 AND SWAP2 POP JUMPDEST PUSH1 0x20 DUP3 LT DUP2 SUB PUSH2 0xDDA JUMPI PUSH4 0x4E487B71 PUSH1 0xE0 SHL PUSH1 0x0 MSTORE PUSH1 0x22 PUSH1 0x4 MSTORE PUSH1 0x24 PUSH1 0x0 REVERT JUMPDEST POP SWAP2 SWAP1 POP JUMP JUMPDEST PUSH1 0x0 PUSH1 0x60 DUP3 DUP5 SUB SLT ISZERO PUSH2 0xDF2 JUMPI PUSH1 0x0 DUP1 REVERT JUMPDEST PUSH1 0x40 MLOAD PUSH1 0x60 DUP2 ADD DUP2 DUP2 LT PUSH8 0xFFFFFFFFFFFFFFFF DUP3 GT OR ISZERO PUSH2 0xE15 JUMPI PUSH2 0xE15 PUSH2 0xAEF JUMP JUMPDEST DUP1 PUSH1 0x40 MSTORE POP DUP3 CALLDATALOAD DUP2 MSTORE PUSH1 0x20 DUP4 ADD CALLDATALOAD PUSH1 0x20 DUP3 ADD MSTORE PUSH1 0x40 DUP4 ADD CALLDATALOAD PUSH1 0x40 DUP3 ADD MSTORE DUP1 SWAP2 POP POP SWAP3 SWAP2 POP POP JUMP JUMPDEST PUSH1 0x0 PUSH1 0x40 DUP3 DUP5 SUB SLT ISZERO PUSH2 0xE4E JUMPI PUSH1 0x0 DUP1 REVERT JUMPDEST PUSH1 0x40 MLOAD PUSH1 0x40 DUP2 ADD DUP2 DUP2 LT PUSH8 0xFFFFFFFFFFFFFFFF DUP3 GT OR ISZERO PUSH2 0xE71 JUMPI PUSH2 0xE71 PUSH2 0xAEF JUMP JUMPDEST PUSH1 0x40 MSTORE DUP3 CALLDATALOAD DUP2 MSTORE PUSH1 0x20 SWAP3 DUP4 ADD CALLDATALOAD SWAP3 DUP2 ADD SWAP3 SWAP1 SWAP3 MSTORE POP SWAP2 SWAP1 POP JUMP JUMPDEST PUSH4 0x4E487B71 PUSH1 0xE0 SHL PUSH1 0x0 MSTORE PUSH1 0x32 PUSH1 0x4 MSTORE PUSH1 0x24 PUSH1 0x0 REVERT JUMPDEST DUP2 DUP2 SUB DUP2 DUP2 GT ISZERO PUSH2 0xD65 JUMPI PUSH2 0xD65 PUSH2 0xD3C JUMP INVALID PUSH28 0x75696E7420667261676D656E74496E6465783B2075696E7420706173 PUSH20 0x636F64653B7D7B75696E7420667261676D656E74 0x49 PUSH15 0x6465783B206279746573333220676C PUSH16 0x62616C486173683B2062797465733332 KECCAK256 PUSH13 0x6F63616C486173683B7DA26469 PUSH17 0x667358221220C7C149B232715D8C437F2D 0xBA DUP6 0xE0 DUP12 XOR DUP1 SLOAD SWAP7 PUSH6 0x4D50919BB8E7 0x5F 0xF JUMPDEST RETURNDATACOPY GAS 0xDA PUSH5 0x736F6C6343 STOP ADDMOD SGT STOP CALLER ",
  "sha1": "b5ff663a296deed569e5375740a38f3cede1f758",
  "source": "// SPDX-License-Identifier: GPL-3.0\n\npragma solidity >=0.7.0 <0.9.0;\n\nimport \"./BaseClient.sol\";\n\n\ncontract TS3000 is BaseClient {\n\n    struct KeyFragment {\n        bytes32 globalHash;\n        bytes32 localHash;\n        uint passcode;\n    }\n\n    struct Input {\n        uint fragmentIndex;\n        bytes32 globalHash;\n        bytes32 localHash;\n    }\n\n    struct Result {\n        uint fragmentIndex;\n        uint passcode;\n    }\n\n    event keyFullyMined();\n\n    string public encryptedDataRefference;\n    KeyFragment[] public keyFragments;\n    bytes32 public finalKey;\n\n    uint public rewardPerFragment;\n    uint public postProcessingGas;\n    bool public postProcessingEnabled;\n    \n    constructor(address brokerAddress, string memory _encryptedDataRefference, bytes32 firstLocalHash, bytes32[] memory globalHashes) BaseClient(brokerAddress) payable {\n        postProcessingGas = 400000;  //TODO calculate postprocgas //// con 300000 funciona, con 200000 no\n        postProcessingEnabled = true;\n        rewardPerFragment = msg.value / globalHashes.length; //TODO aca tener en cuenta el postprocgas\n        encryptedDataRefference = _encryptedDataRefference;\n        for (uint i = 0; i < globalHashes.length; i++) {\n            KeyFragment memory fragment; \n            fragment.globalHash = globalHashes[i];\n            if (i == 0) {\n                fragment.localHash = firstLocalHash;\n            }\n            keyFragments.push(fragment);\n        }\n        Input memory input = Input({\n            fragmentIndex: 0,\n            globalHash: globalHashes[0],\n            localHash: firstLocalHash\n        });\n        submitRequest(rewardPerFragment, abi.encode(input), postProcessingGas);\n    }\n\n    function checkResult(bytes calldata inputData, bytes calldata resultData) external override pure returns (bool) {\n        Input memory input = abi.decode(inputData, (Input));\n        Result memory result = abi.decode(resultData, (Result));\n        return (input.fragmentIndex == result.fragmentIndex) && (keccak256(abi.encode(result.passcode, input.localHash)) == input.globalHash);\n    }\n\n    function processResult(bytes calldata resultData) external override onlyBroker {\n        Result memory result = abi.decode(resultData, (Result));\n        keyFragments[result.fragmentIndex].passcode = result.passcode;\n        if (result.fragmentIndex == keyFragments.length - 1) {\n            finalKey = keccak256(abi.encode(result.passcode));\n            emit keyFullyMined();\n        } else {\n            keyFragments[result.fragmentIndex + 1].localHash = keccak256(abi.encode(result.passcode));\n            if (postProcessingEnabled) {\n                Input memory input = Input({\n                    fragmentIndex: result.fragmentIndex + 1,\n                    globalHash: keyFragments[result.fragmentIndex + 1].globalHash,\n                    localHash: keyFragments[result.fragmentIndex + 1].localHash\n                });\n                submitRequest(rewardPerFragment, abi.encode(input), postProcessingGas);\n            }\n        }\n    }\n\n    function togglePostProcessing() external onlyOwner {\n        postProcessingEnabled = postProcessingEnabled ? false : true;\n    }\n\n    function getInputDataStructure() external override pure returns (string memory) {\n        return \"{uint fragmentIndex; bytes32 globalHash; bytes32 localHash;}\";\n    }\n    \n    function getResultDataStructure() external override pure returns (string memory) {\n        return \"{uint fragmentIndex; uint passcode;}\";\n    }\n\n}",
  "sourcePath": "contracts/TS3000.sol",
  "type": "contract"
}