{
  "abi": [
    {
      "inputs": [
        {
          "internalType": "address",
          "name": "brokerAddress",
          "type": "address"
        },
        {
          "internalType": "string",
          "name": "_encryptedDataRefference",
          "type": "string"
        },
        {
          "internalType": "bytes32",
          "name": "firstLocalHash",
          "type": "bytes32"
        },
        {
          "internalType": "bytes32[]",
          "name": "globalHashes",
          "type": "bytes32[]"
        },
        {
          "internalType": "uint256",
          "name": "_minTimeFramePerFragment",
          "type": "uint256"
        }
      ],
      "stateMutability": "payable",
      "type": "constructor"
    },
    {
      "anonymous": false,
      "inputs": [],
      "name": "keyFullyMined",
      "type": "event"
    },
    {
      "anonymous": false,
      "inputs": [
        {
          "indexed": false,
          "internalType": "uint256",
          "name": "requestID",
          "type": "uint256"
        }
      ],
      "name": "requestSubmitted",
      "type": "event"
    },
    {
      "anonymous": false,
      "inputs": [
        {
          "indexed": false,
          "internalType": "uint256",
          "name": "requestID",
          "type": "uint256"
        },
        {
          "indexed": false,
          "internalType": "bool",
          "name": "success",
          "type": "bool"
        }
      ],
      "name": "resultPostProcessed",
      "type": "event"
    },
    {
      "inputs": [],
      "name": "brokerContract",
      "outputs": [
        {
          "internalType": "contract ExecutionBroker",
          "name": "",
          "type": "address"
        }
      ],
      "stateMutability": "view",
      "type": "function"
    },
    {
      "inputs": [
        {
          "internalType": "uint256",
          "name": "requestID",
          "type": "uint256"
        }
      ],
      "name": "cancelRequest",
      "outputs": [],
      "stateMutability": "nonpayable",
      "type": "function"
    },
    {
      "inputs": [
        {
          "internalType": "bytes",
          "name": "inputData",
          "type": "bytes"
        },
        {
          "internalType": "bytes",
          "name": "resultData",
          "type": "bytes"
        }
      ],
      "name": "checkResult",
      "outputs": [
        {
          "internalType": "bool",
          "name": "",
          "type": "bool"
        }
      ],
      "stateMutability": "view",
      "type": "function"
    },
    {
      "inputs": [],
      "name": "encryptedDataRefference",
      "outputs": [
        {
          "internalType": "string",
          "name": "",
          "type": "string"
        }
      ],
      "stateMutability": "view",
      "type": "function"
    },
    {
      "inputs": [],
      "name": "finalKey",
      "outputs": [
        {
          "internalType": "bytes32",
          "name": "",
          "type": "bytes32"
        }
      ],
      "stateMutability": "view",
      "type": "function"
    },
    {
      "inputs": [],
      "name": "getInputDataStructure",
      "outputs": [
        {
          "internalType": "string",
          "name": "",
          "type": "string"
        }
      ],
      "stateMutability": "pure",
      "type": "function"
    },
    {
      "inputs": [],
      "name": "getResultDataStructure",
      "outputs": [
        {
          "internalType": "string",
          "name": "",
          "type": "string"
        }
      ],
      "stateMutability": "pure",
      "type": "function"
    },
    {
      "inputs": [],
      "name": "isOwner",
      "outputs": [
        {
          "internalType": "bool",
          "name": "",
          "type": "bool"
        }
      ],
      "stateMutability": "view",
      "type": "function"
    },
    {
      "inputs": [
        {
          "internalType": "uint256",
          "name": "",
          "type": "uint256"
        }
      ],
      "name": "keyFragments",
      "outputs": [
        {
          "internalType": "bytes32",
          "name": "globalHash",
          "type": "bytes32"
        },
        {
          "internalType": "bytes32",
          "name": "localHash",
          "type": "bytes32"
        },
        {
          "internalType": "uint256",
          "name": "passcode",
          "type": "uint256"
        }
      ],
      "stateMutability": "view",
      "type": "function"
    },
    {
      "inputs": [],
      "name": "minTimeFramePerFragment",
      "outputs": [
        {
          "internalType": "uint256",
          "name": "",
          "type": "uint256"
        }
      ],
      "stateMutability": "view",
      "type": "function"
    },
    {
      "inputs": [],
      "name": "owner",
      "outputs": [
        {
          "internalType": "address",
          "name": "",
          "type": "address"
        }
      ],
      "stateMutability": "view",
      "type": "function"
    },
    {
      "inputs": [],
      "name": "postProcessingEnabled",
      "outputs": [
        {
          "internalType": "bool",
          "name": "",
          "type": "bool"
        }
      ],
      "stateMutability": "view",
      "type": "function"
    },
    {
      "inputs": [],
      "name": "postProcessingGas",
      "outputs": [
        {
          "internalType": "uint256",
          "name": "",
          "type": "uint256"
        }
      ],
      "stateMutability": "view",
      "type": "function"
    },
    {
      "inputs": [
        {
          "internalType": "bytes",
          "name": "resultData",
          "type": "bytes"
        }
      ],
      "name": "processResult",
      "outputs": [],
      "stateMutability": "nonpayable",
      "type": "function"
    },
    {
      "inputs": [],
      "name": "rewardPerFragment",
      "outputs": [
        {
          "internalType": "uint256",
          "name": "",
          "type": "uint256"
        }
      ],
      "stateMutability": "view",
      "type": "function"
    },
    {
      "inputs": [],
      "name": "sendFunds",
      "outputs": [],
      "stateMutability": "payable",
      "type": "function"
    },
    {
      "inputs": [
        {
          "internalType": "uint256",
          "name": "payment",
          "type": "uint256"
        },
        {
          "internalType": "bytes",
          "name": "input",
          "type": "bytes"
        },
        {
          "internalType": "uint256",
          "name": "postProcessingGas",
          "type": "uint256"
        }
      ],
      "name": "submitRequest",
      "outputs": [
        {
          "internalType": "uint256",
          "name": "",
          "type": "uint256"
        }
      ],
      "stateMutability": "payable",
      "type": "function"
    },
    {
      "inputs": [
        {
          "internalType": "uint256",
          "name": "requestID",
          "type": "uint256"
        },
        {
          "internalType": "bytes",
          "name": "result",
          "type": "bytes"
        }
      ],
      "name": "submitResult",
      "outputs": [
        {
          "internalType": "bool",
          "name": "",
          "type": "bool"
        }
      ],
      "stateMutability": "nonpayable",
      "type": "function"
    },
    {
      "inputs": [],
      "name": "togglePostProcessing",
      "outputs": [
        {
          "internalType": "bool",
          "name": "",
          "type": "bool"
        }
      ],
      "stateMutability": "nonpayable",
      "type": "function"
    },
    {
      "inputs": [
        {
          "internalType": "uint256",
          "name": "value",
          "type": "uint256"
        }
      ],
      "name": "withdrawFunds",
      "outputs": [
        {
          "internalType": "bool",
          "name": "",
          "type": "bool"
        }
      ],
      "stateMutability": "nonpayable",
      "type": "function"
    },
    {
      "stateMutability": "payable",
      "type": "receive"
    }
  ],
  "bytecode": "608060405260405162001d6a38038062001d6a833981016040819052620000269162000452565b60008054336001600160a01b031991821617909155600180549091166001600160a01b03871617815562061a806007556009805460ff1916909117905581516200007190346200054c565b6006556003620000828582620005fe565b50600881905560005b82518110156200018b576040805160608101825260008082526020820181905291810191909152838281518110620000c757620000c7620006ca565b602090810291909101015181526000829003620000e657602081018590525b6004805460018101825560009190915281517f8a35acfbc15ff81a39ae7d344fd709f28e8600b4aa8c65c6b64bfe7fe36bd19b60039092029182015560208201517f8a35acfbc15ff81a39ae7d344fd709f28e8600b4aa8c65c6b64bfe7fe36bd19c8201556040909101517f8a35acfbc15ff81a39ae7d344fd709f28e8600b4aa8c65c6b64bfe7fe36bd19d90910155806200018281620006e0565b9150506200008b565b50600060405180608001604052806000815260200184600081518110620001b657620001b6620006ca565b6020026020010151815260200185815260200142815250905062000227600654826040516020016200020e91908151815260208083015190820152604080830151908201526060918201519181019190915260800190565b60408051601f1981840301815291905260075462000234565b505050505050506200075f565b600047841115620002805760405162461bcd60e51b8152602060048201526012602482015271496e73756666696369656e742066756e647360701b604482015260640160405180910390fd5b6001546040516378f8af2560e11b81526000916001600160a01b03169063f1f15e4a908790620002b7908890889060040162000708565b60206040518083038185885af1158015620002d6573d6000803e3d6000fd5b50505050506040513d601f19601f82011682018060405250810190620002fd919062000745565b90507fd3b0b0209035a5613265e8fb1f38873ea24c7c6189b128eebe3689c03d13905c816040516200033191815260200190565b60405180910390a16000818152600260205260409020805460ff1916600117905590509392505050565b634e487b7160e01b600052604160045260246000fd5b604051601f8201601f191681016001600160401b03811182821017156200039c576200039c6200035b565b604052919050565b60005b83811015620003c1578181015183820152602001620003a7565b50506000910152565b600082601f830112620003dc57600080fd5b815160206001600160401b03821115620003fa57620003fa6200035b565b8160051b6200040b82820162000371565b92835284810182019282810190878511156200042657600080fd5b83870192505b8483101562000447578251825291830191908301906200042c565b979650505050505050565b600080600080600060a086880312156200046b57600080fd5b85516001600160a01b03811681146200048357600080fd5b60208701519095506001600160401b0380821115620004a157600080fd5b818801915088601f830112620004b657600080fd5b815181811115620004cb57620004cb6200035b565b620004e0601f8201601f191660200162000371565b8181528a6020838601011115620004f657600080fd5b62000509826020830160208701620003a4565b60408a015160608b01519198509650925050808211156200052957600080fd5b506200053888828901620003ca565b925050608086015190509295509295909350565b6000826200056a57634e487b7160e01b600052601260045260246000fd5b500490565b600181811c908216806200058457607f821691505b602082108103620005a557634e487b7160e01b600052602260045260246000fd5b50919050565b601f821115620005f957600081815260208120601f850160051c81016020861015620005d45750805b601f850160051c820191505b81811015620005f557828155600101620005e0565b5050505b505050565b81516001600160401b038111156200061a576200061a6200035b565b62000632816200062b84546200056f565b84620005ab565b602080601f8311600181146200066a5760008415620006515750858301515b600019600386901b1c1916600185901b178555620005f5565b600085815260208120601f198616915b828110156200069b578886015182559484019460019091019084016200067a565b5085821015620006ba5787850151600019600388901b60f8161c191681555b5050505050600190811b01905550565b634e487b7160e01b600052603260045260246000fd5b6000600182016200070157634e487b7160e01b600052601160045260246000fd5b5060010190565b604081526000835180604084015262000729816060850160208801620003a4565b602083019390935250601f91909101601f191601606001919050565b6000602082840312156200075857600080fd5b5051919050565b6115fb806200076f6000396000f3fe6080604052600436106101235760003560e01c80637353d891116100a0578063ace8e46211610064578063ace8e462146102fb578063c2c5624514610311578063c91c7b3714610331578063cb39274714610351578063d997ebf51461037157600080fd5b80637353d891146102595780638244741c146102945780638d68cf591461020f5780638da5cb5b146102a95780638f32d59b146102db57600080fd5b80632d9e78b8116100e75780632d9e78b8146101d95780633015394c146101ef57806343bb58de1461021157806349875db214610224578063552b0b831461024457600080fd5b8063015594b81461012f578063155dd5ee1461015e578063224733851461017e5780632896de13146101a25780632d16d25b146101c457600080fd5b3661012a57005b600080fd5b34801561013b57600080fd5b506009546101499060ff1681565b60405190151581526020015b60405180910390f35b34801561016a57600080fd5b50610149610179366004610e85565b610387565b34801561018a57600080fd5b5061019460075481565b604051908152602001610155565b3480156101ae57600080fd5b506101b7610456565b6040516101559190610eee565b3480156101d057600080fd5b50610149610476565b3480156101e557600080fd5b5061019460055481565b3480156101fb57600080fd5b5061020f61020a366004610e85565b6104cd565b005b61019461021f366004610fa1565b61056a565b34801561023057600080fd5b5061014961023f36600461107d565b6105a8565b34801561025057600080fd5b506101b7610960565b34801561026557600080fd5b50610279610274366004610e85565b6109ee565b60408051938452602084019290925290820152606001610155565b3480156102a057600080fd5b506101b7610a21565b3480156102b557600080fd5b506000546001600160a01b03165b6040516001600160a01b039091168152602001610155565b3480156102e757600080fd5b506000546001600160a01b03163314610149565b34801561030757600080fd5b5061019460085481565b34801561031d57600080fd5b506001546102c3906001600160a01b031681565b34801561033d57600080fd5b5061014961034c3660046110c9565b610a41565b34801561035d57600080fd5b5061020f61036c366004611135565b610add565b34801561037d57600080fd5b5061019460065481565b600080546001600160a01b031633146103bb5760405162461bcd60e51b81526004016103b290611177565b60405180910390fd5b814710156104005760405162461bcd60e51b8152602060048201526012602482015271496e73756666696369656e742066756e647360701b60448201526064016103b2565b6040513390600090829085908381818185875af1925050503d8060008114610444576040519150601f19603f3d011682016040523d82523d6000602084013e610449565b606091505b509093505050505b919050565b60606040518060800160405280604f8152602001611577604f9139905090565b600080546001600160a01b031633146104a15760405162461bcd60e51b81526004016103b290611177565b60095460ff166104b25760016104b5565b60005b6009805460ff1916911515918217905560ff16919050565b6000546001600160a01b031633146104f75760405162461bcd60e51b81526004016103b290611177565b600154604051630c054e5360e21b8152600481018390526001600160a01b0390911690633015394c906024016020604051808303816000875af1158015610542573d6000803e3d6000fd5b505050506040513d601f19601f8201168201806040525081019061056691906111cc565b5050565b600080546001600160a01b031633146105955760405162461bcd60e51b81526004016103b290611177565b6105a0848484610d69565b949350505050565b60008381526002602052604081205460ff1615156001146106315760405162461bcd60e51b815260206004820152603f60248201527f5468697320494420646f6573206e6f742062656c6f6e6720746f20616e20616360448201527f7469766520726571756573742077697468696e207468697320636c69656e740060648201526084016103b2565b60015460405163c58343ef60e01b8152600481018690526000916001600160a01b03169063c58343ef90602401600060405180830381865afa15801561067b573d6000803e3d6000fd5b505050506040513d6000823e601f3d908101601f191682016040526106a39190810190611243565b60a08101519091506001600160a01b031661070c5760405162461bcd60e51b8152602060048201526024808201527f596f75206e65656420746f2061636365707420746865207265717565737420666044820152631a5c9cdd60e21b60648201526084016103b2565b6101008101511561075f5760405162461bcd60e51b815260206004820152601d60248201527f546865207265717565737420697320616c726561647920636c6f73656400000060448201526064016103b2565b60a08101516001600160a01b031633146107c95760405162461bcd60e51b815260206004820152602560248201527f536f6d656f6e6520656c736520686173206163636570746564207468652052656044820152641c5d595cdd60da1b60648201526084016103b2565b6001546040516324c3aed960e11b81526000916001600160a01b0316906349875db2906107fe9089908990899060040161135e565b6020604051808303816000875af115801561081d573d6000803e3d6000fd5b505050506040513d601f19601f8201168201806040525081019061084191906111cc565b9050801561095757600086815260026020526040808220805460ff191690555163cb39274760e01b9061087a9088908890602401611378565b604051602081830303815290604052906001600160e01b0319166020820180516001600160e01b0383818316178352505050509050600083608001516001600160a01b03168460600151836040516108d2919061138c565b60006040518083038160008787f1925050503d8060008114610910576040519150601f19603f3d011682016040523d82523d6000602084013e610915565b606091505b5050604080518a815282151560208201529192507fa531c8f4bbf2a18049d85528bb5aaae66874af94bcb325738ee729a2b6cf8428910160405180910390a150505b95945050505050565b6003805461096d906113a8565b80601f0160208091040260200160405190810160405280929190818152602001828054610999906113a8565b80156109e65780601f106109bb576101008083540402835291602001916109e6565b820191906000526020600020905b8154815290600101906020018083116109c957829003601f168201915b505050505081565b600481815481106109fe57600080fd5b600091825260209091206003909102018054600182015460029092015490925083565b60606040518060600160405280603f8152602001611538603f9139905090565b600080610a50858701876113e2565b90506000610a6084860186611448565b905080602001518260600151148015610a7d575080602001514210155b8015610a8a575080518251145b8015610ad25750816020015181604001518360400151604051602001610aba929190918252602082015260400190565b60405160208183030381529060405280519060200120145b979650505050505050565b333014610b445760405162461bcd60e51b815260206004820152602f60248201527f46756e6374696f6e2061636365737369626c65206f6e6c79206279207468652060448201526e31b7b73a3930b1ba1034ba39b2b63360891b60648201526084016103b2565b6000610b5282840184611448565b905080604001516004826000015181548110610b7057610b706114a4565b6000918252602090912060026003909202010155600454610b93906001906114d0565b815103610bf8578060400151604051602001610bb191815260200190565b60408051601f198184030181529082905280516020909101206005557f3523c39eb1a9c40e6a7c7504001ca3d223a7675dc8634b5aa1b056124b87cd3690600090a1505050565b8060400151604051602001610c0f91815260200190565b60405160208183030381529060405280519060200120600482600001516001610c3891906114e9565b81548110610c4857610c486114a4565b600091825260209091206001600390920201015560095460ff1615610d64576000604051806080016040528083600001516001610c8591906114e9565b8152602001600484600001516001610c9d91906114e9565b81548110610cad57610cad6114a4565b9060005260206000209060030201600001548152602001600484600001516001610cd791906114e9565b81548110610ce757610ce76114a4565b90600052602060002090600302016001015481526020016008548460200151610d1091906114e9565b905260065460408051835160208083019190915284015181830152908301516060808301919091528301516080820152919250610d619160a001604051602081830303815290604052600754610d69565b50505b505050565b600047841115610db05760405162461bcd60e51b8152602060048201526012602482015271496e73756666696369656e742066756e647360701b60448201526064016103b2565b6001546040516378f8af2560e11b81526000916001600160a01b03169063f1f15e4a908790610de590889088906004016114fc565b60206040518083038185885af1158015610e03573d6000803e3d6000fd5b50505050506040513d601f19601f82011682018060405250810190610e28919061151e565b90507fd3b0b0209035a5613265e8fb1f38873ea24c7c6189b128eebe3689c03d13905c81604051610e5b91815260200190565b60405180910390a16000818152600260205260409020805460ff1916600117905590509392505050565b600060208284031215610e9757600080fd5b5035919050565b60005b83811015610eb9578181015183820152602001610ea1565b50506000910152565b60008151808452610eda816020860160208601610e9e565b601f01601f19169290920160200192915050565b602081526000610f016020830184610ec2565b9392505050565b634e487b7160e01b600052604160045260246000fd5b604051610120810167ffffffffffffffff81118282101715610f4257610f42610f08565b60405290565b604051601f8201601f1916810167ffffffffffffffff81118282101715610f7157610f71610f08565b604052919050565b600067ffffffffffffffff821115610f9357610f93610f08565b50601f01601f191660200190565b600080600060608486031215610fb657600080fd5b83359250602084013567ffffffffffffffff811115610fd457600080fd5b8401601f81018613610fe557600080fd5b8035610ff8610ff382610f79565b610f48565b81815287602083850101111561100d57600080fd5b81602084016020830137600060208383010152809450505050604084013590509250925092565b60008083601f84011261104657600080fd5b50813567ffffffffffffffff81111561105e57600080fd5b60208301915083602082850101111561107657600080fd5b9250929050565b60008060006040848603121561109257600080fd5b83359250602084013567ffffffffffffffff8111156110b057600080fd5b6110bc86828701611034565b9497909650939450505050565b600080600080604085870312156110df57600080fd5b843567ffffffffffffffff808211156110f757600080fd5b61110388838901611034565b9096509450602087013591508082111561111c57600080fd5b5061112987828801611034565b95989497509550505050565b6000806020838503121561114857600080fd5b823567ffffffffffffffff81111561115f57600080fd5b61116b85828601611034565b90969095509350505050565b60208082526025908201527f46756e6374696f6e2061636365737369626c65206f6e6c79206279207468652060408201526437bbb732b960d91b606082015260800190565b8051801515811461045157600080fd5b6000602082840312156111de57600080fd5b610f01826111bc565b600082601f8301126111f857600080fd5b8151611206610ff382610f79565b81815284602083860101111561121b57600080fd5b6105a0826020830160208701610e9e565b80516001600160a01b038116811461045157600080fd5b60006020828403121561125557600080fd5b815167ffffffffffffffff8082111561126d57600080fd5b90830190610120828603121561128257600080fd5b61128a610f1e565b825181526020830151828111156112a057600080fd5b6112ac878286016111e7565b60208301525060408301516040820152606083015160608201526112d26080840161122c565b60808201526112e360a0840161122c565b60a082015260c083015160c082015260e08301518281111561130457600080fd5b611310878286016111e7565b60e08301525061010091506113268284016111bc565b91810191909152949350505050565b81835281816020850137506000828201602090810191909152601f909101601f19169091010190565b838152604060208201526000610957604083018486611335565b6020815260006105a0602083018486611335565b6000825161139e818460208701610e9e565b9190910192915050565b600181811c908216806113bc57607f821691505b6020821081036113dc57634e487b7160e01b600052602260045260246000fd5b50919050565b6000608082840312156113f457600080fd5b6040516080810181811067ffffffffffffffff8211171561141757611417610f08565b8060405250823581526020830135602082015260408301356040820152606083013560608201528091505092915050565b60006060828403121561145a57600080fd5b6040516060810181811067ffffffffffffffff8211171561147d5761147d610f08565b80604052508235815260208301356020820152604083013560408201528091505092915050565b634e487b7160e01b600052603260045260246000fd5b634e487b7160e01b600052601160045260246000fd5b818103818111156114e3576114e36114ba565b92915050565b808201808211156114e3576114e36114ba565b60408152600061150f6040830185610ec2565b90508260208301529392505050565b60006020828403121561153057600080fd5b505191905056fe7b75696e7420667261676d656e74496e6465783b2075696e742074696d657374616d705265737472696374696f6e3b2075696e742070617373636f64653b7d7b75696e7420667261676d656e74496e6465783b206279746573333220676c6f62616c486173683b2062797465733332206c6f63616c486173683b2075696e74206d696e54696d657374616d703b7da26469706673582212207f8c1189c1efe22090ce6dbeccea3d4fde738bd90bfa243862273086866b5e1864736f6c63430008130033",
  "bytecodeSha1": "47ea07aaa80e683ed39066eb43bf02d171646e0b",
  "compiler": {
    "evm_version": "istanbul",
    "optimizer": {
      "enabled": true,
      "runs": 200
    },
    "version": "0.8.19+commit.7dd6d404"
  },
  "contractName": "TS3000",
  "language": "Solidity",
  "natspec": {
    "kind": "dev",
    "methods": {},
    "version": 1
  },
  "opcodes": "PUSH1 0x80 PUSH1 0x40 MSTORE PUSH1 0x4 CALLDATASIZE LT PUSH2 0x123 JUMPI PUSH1 0x0 CALLDATALOAD PUSH1 0xE0 SHR DUP1 PUSH4 0x7353D891 GT PUSH2 0xA0 JUMPI DUP1 PUSH4 0xACE8E462 GT PUSH2 0x64 JUMPI DUP1 PUSH4 0xACE8E462 EQ PUSH2 0x2FB JUMPI DUP1 PUSH4 0xC2C56245 EQ PUSH2 0x311 JUMPI DUP1 PUSH4 0xC91C7B37 EQ PUSH2 0x331 JUMPI DUP1 PUSH4 0xCB392747 EQ PUSH2 0x351 JUMPI DUP1 PUSH4 0xD997EBF5 EQ PUSH2 0x371 JUMPI PUSH1 0x0 DUP1 REVERT JUMPDEST DUP1 PUSH4 0x7353D891 EQ PUSH2 0x259 JUMPI DUP1 PUSH4 0x8244741C EQ PUSH2 0x294 JUMPI DUP1 PUSH4 0x8D68CF59 EQ PUSH2 0x20F JUMPI DUP1 PUSH4 0x8DA5CB5B EQ PUSH2 0x2A9 JUMPI DUP1 PUSH4 0x8F32D59B EQ PUSH2 0x2DB JUMPI PUSH1 0x0 DUP1 REVERT JUMPDEST DUP1 PUSH4 0x2D9E78B8 GT PUSH2 0xE7 JUMPI DUP1 PUSH4 0x2D9E78B8 EQ PUSH2 0x1D9 JUMPI DUP1 PUSH4 0x3015394C EQ PUSH2 0x1EF JUMPI DUP1 PUSH4 0x43BB58DE EQ PUSH2 0x211 JUMPI DUP1 PUSH4 0x49875DB2 EQ PUSH2 0x224 JUMPI DUP1 PUSH4 0x552B0B83 EQ PUSH2 0x244 JUMPI PUSH1 0x0 DUP1 REVERT JUMPDEST DUP1 PUSH4 0x15594B8 EQ PUSH2 0x12F JUMPI DUP1 PUSH4 0x155DD5EE EQ PUSH2 0x15E JUMPI DUP1 PUSH4 0x22473385 EQ PUSH2 0x17E JUMPI DUP1 PUSH4 0x2896DE13 EQ PUSH2 0x1A2 JUMPI DUP1 PUSH4 0x2D16D25B EQ PUSH2 0x1C4 JUMPI PUSH1 0x0 DUP1 REVERT JUMPDEST CALLDATASIZE PUSH2 0x12A JUMPI STOP JUMPDEST PUSH1 0x0 DUP1 REVERT JUMPDEST CALLVALUE DUP1 ISZERO PUSH2 0x13B JUMPI PUSH1 0x0 DUP1 REVERT JUMPDEST POP PUSH1 0x9 SLOAD PUSH2 0x149 SWAP1 PUSH1 0xFF AND DUP2 JUMP JUMPDEST PUSH1 0x40 MLOAD SWAP1 ISZERO ISZERO DUP2 MSTORE PUSH1 0x20 ADD JUMPDEST PUSH1 0x40 MLOAD DUP1 SWAP2 SUB SWAP1 RETURN JUMPDEST CALLVALUE DUP1 ISZERO PUSH2 0x16A JUMPI PUSH1 0x0 DUP1 REVERT JUMPDEST POP PUSH2 0x149 PUSH2 0x179 CALLDATASIZE PUSH1 0x4 PUSH2 0xE85 JUMP JUMPDEST PUSH2 0x387 JUMP JUMPDEST CALLVALUE DUP1 ISZERO PUSH2 0x18A JUMPI PUSH1 0x0 DUP1 REVERT JUMPDEST POP PUSH2 0x194 PUSH1 0x7 SLOAD DUP2 JUMP JUMPDEST PUSH1 0x40 MLOAD SWAP1 DUP2 MSTORE PUSH1 0x20 ADD PUSH2 0x155 JUMP JUMPDEST CALLVALUE DUP1 ISZERO PUSH2 0x1AE JUMPI PUSH1 0x0 DUP1 REVERT JUMPDEST POP PUSH2 0x1B7 PUSH2 0x456 JUMP JUMPDEST PUSH1 0x40 MLOAD PUSH2 0x155 SWAP2 SWAP1 PUSH2 0xEEE JUMP JUMPDEST CALLVALUE DUP1 ISZERO PUSH2 0x1D0 JUMPI PUSH1 0x0 DUP1 REVERT JUMPDEST POP PUSH2 0x149 PUSH2 0x476 JUMP JUMPDEST CALLVALUE DUP1 ISZERO PUSH2 0x1E5 JUMPI PUSH1 0x0 DUP1 REVERT JUMPDEST POP PUSH2 0x194 PUSH1 0x5 SLOAD DUP2 JUMP JUMPDEST CALLVALUE DUP1 ISZERO PUSH2 0x1FB JUMPI PUSH1 0x0 DUP1 REVERT JUMPDEST POP PUSH2 0x20F PUSH2 0x20A CALLDATASIZE PUSH1 0x4 PUSH2 0xE85 JUMP JUMPDEST PUSH2 0x4CD JUMP JUMPDEST STOP JUMPDEST PUSH2 0x194 PUSH2 0x21F CALLDATASIZE PUSH1 0x4 PUSH2 0xFA1 JUMP JUMPDEST PUSH2 0x56A JUMP JUMPDEST CALLVALUE DUP1 ISZERO PUSH2 0x230 JUMPI PUSH1 0x0 DUP1 REVERT JUMPDEST POP PUSH2 0x149 PUSH2 0x23F CALLDATASIZE PUSH1 0x4 PUSH2 0x107D JUMP JUMPDEST PUSH2 0x5A8 JUMP JUMPDEST CALLVALUE DUP1 ISZERO PUSH2 0x250 JUMPI PUSH1 0x0 DUP1 REVERT JUMPDEST POP PUSH2 0x1B7 PUSH2 0x960 JUMP JUMPDEST CALLVALUE DUP1 ISZERO PUSH2 0x265 JUMPI PUSH1 0x0 DUP1 REVERT JUMPDEST POP PUSH2 0x279 PUSH2 0x274 CALLDATASIZE PUSH1 0x4 PUSH2 0xE85 JUMP JUMPDEST PUSH2 0x9EE JUMP JUMPDEST PUSH1 0x40 DUP1 MLOAD SWAP4 DUP5 MSTORE PUSH1 0x20 DUP5 ADD SWAP3 SWAP1 SWAP3 MSTORE SWAP1 DUP3 ADD MSTORE PUSH1 0x60 ADD PUSH2 0x155 JUMP JUMPDEST CALLVALUE DUP1 ISZERO PUSH2 0x2A0 JUMPI PUSH1 0x0 DUP1 REVERT JUMPDEST POP PUSH2 0x1B7 PUSH2 0xA21 JUMP JUMPDEST CALLVALUE DUP1 ISZERO PUSH2 0x2B5 JUMPI PUSH1 0x0 DUP1 REVERT JUMPDEST POP PUSH1 0x0 SLOAD PUSH1 0x1 PUSH1 0x1 PUSH1 0xA0 SHL SUB AND JUMPDEST PUSH1 0x40 MLOAD PUSH1 0x1 PUSH1 0x1 PUSH1 0xA0 SHL SUB SWAP1 SWAP2 AND DUP2 MSTORE PUSH1 0x20 ADD PUSH2 0x155 JUMP JUMPDEST CALLVALUE DUP1 ISZERO PUSH2 0x2E7 JUMPI PUSH1 0x0 DUP1 REVERT JUMPDEST POP PUSH1 0x0 SLOAD PUSH1 0x1 PUSH1 0x1 PUSH1 0xA0 SHL SUB AND CALLER EQ PUSH2 0x149 JUMP JUMPDEST CALLVALUE DUP1 ISZERO PUSH2 0x307 JUMPI PUSH1 0x0 DUP1 REVERT JUMPDEST POP PUSH2 0x194 PUSH1 0x8 SLOAD DUP2 JUMP JUMPDEST CALLVALUE DUP1 ISZERO PUSH2 0x31D JUMPI PUSH1 0x0 DUP1 REVERT JUMPDEST POP PUSH1 0x1 SLOAD PUSH2 0x2C3 SWAP1 PUSH1 0x1 PUSH1 0x1 PUSH1 0xA0 SHL SUB AND DUP2 JUMP JUMPDEST CALLVALUE DUP1 ISZERO PUSH2 0x33D JUMPI PUSH1 0x0 DUP1 REVERT JUMPDEST POP PUSH2 0x149 PUSH2 0x34C CALLDATASIZE PUSH1 0x4 PUSH2 0x10C9 JUMP JUMPDEST PUSH2 0xA41 JUMP JUMPDEST CALLVALUE DUP1 ISZERO PUSH2 0x35D JUMPI PUSH1 0x0 DUP1 REVERT JUMPDEST POP PUSH2 0x20F PUSH2 0x36C CALLDATASIZE PUSH1 0x4 PUSH2 0x1135 JUMP JUMPDEST PUSH2 0xADD JUMP JUMPDEST CALLVALUE DUP1 ISZERO PUSH2 0x37D JUMPI PUSH1 0x0 DUP1 REVERT JUMPDEST POP PUSH2 0x194 PUSH1 0x6 SLOAD DUP2 JUMP JUMPDEST PUSH1 0x0 DUP1 SLOAD PUSH1 0x1 PUSH1 0x1 PUSH1 0xA0 SHL SUB AND CALLER EQ PUSH2 0x3BB JUMPI PUSH1 0x40 MLOAD PUSH3 0x461BCD PUSH1 0xE5 SHL DUP2 MSTORE PUSH1 0x4 ADD PUSH2 0x3B2 SWAP1 PUSH2 0x1177 JUMP JUMPDEST PUSH1 0x40 MLOAD DUP1 SWAP2 SUB SWAP1 REVERT JUMPDEST DUP2 SELFBALANCE LT ISZERO PUSH2 0x400 JUMPI PUSH1 0x40 MLOAD PUSH3 0x461BCD PUSH1 0xE5 SHL DUP2 MSTORE PUSH1 0x20 PUSH1 0x4 DUP3 ADD MSTORE PUSH1 0x12 PUSH1 0x24 DUP3 ADD MSTORE PUSH18 0x496E73756666696369656E742066756E6473 PUSH1 0x70 SHL PUSH1 0x44 DUP3 ADD MSTORE PUSH1 0x64 ADD PUSH2 0x3B2 JUMP JUMPDEST PUSH1 0x40 MLOAD CALLER SWAP1 PUSH1 0x0 SWAP1 DUP3 SWAP1 DUP6 SWAP1 DUP4 DUP2 DUP2 DUP2 DUP6 DUP8 GAS CALL SWAP3 POP POP POP RETURNDATASIZE DUP1 PUSH1 0x0 DUP2 EQ PUSH2 0x444 JUMPI PUSH1 0x40 MLOAD SWAP2 POP PUSH1 0x1F NOT PUSH1 0x3F RETURNDATASIZE ADD AND DUP3 ADD PUSH1 0x40 MSTORE RETURNDATASIZE DUP3 MSTORE RETURNDATASIZE PUSH1 0x0 PUSH1 0x20 DUP5 ADD RETURNDATACOPY PUSH2 0x449 JUMP JUMPDEST PUSH1 0x60 SWAP2 POP JUMPDEST POP SWAP1 SWAP4 POP POP POP POP JUMPDEST SWAP2 SWAP1 POP JUMP JUMPDEST PUSH1 0x60 PUSH1 0x40 MLOAD DUP1 PUSH1 0x80 ADD PUSH1 0x40 MSTORE DUP1 PUSH1 0x4F DUP2 MSTORE PUSH1 0x20 ADD PUSH2 0x1577 PUSH1 0x4F SWAP2 CODECOPY SWAP1 POP SWAP1 JUMP JUMPDEST PUSH1 0x0 DUP1 SLOAD PUSH1 0x1 PUSH1 0x1 PUSH1 0xA0 SHL SUB AND CALLER EQ PUSH2 0x4A1 JUMPI PUSH1 0x40 MLOAD PUSH3 0x461BCD PUSH1 0xE5 SHL DUP2 MSTORE PUSH1 0x4 ADD PUSH2 0x3B2 SWAP1 PUSH2 0x1177 JUMP JUMPDEST PUSH1 0x9 SLOAD PUSH1 0xFF AND PUSH2 0x4B2 JUMPI PUSH1 0x1 PUSH2 0x4B5 JUMP JUMPDEST PUSH1 0x0 JUMPDEST PUSH1 0x9 DUP1 SLOAD PUSH1 0xFF NOT AND SWAP2 ISZERO ISZERO SWAP2 DUP3 OR SWAP1 SSTORE PUSH1 0xFF AND SWAP2 SWAP1 POP JUMP JUMPDEST PUSH1 0x0 SLOAD PUSH1 0x1 PUSH1 0x1 PUSH1 0xA0 SHL SUB AND CALLER EQ PUSH2 0x4F7 JUMPI PUSH1 0x40 MLOAD PUSH3 0x461BCD PUSH1 0xE5 SHL DUP2 MSTORE PUSH1 0x4 ADD PUSH2 0x3B2 SWAP1 PUSH2 0x1177 JUMP JUMPDEST PUSH1 0x1 SLOAD PUSH1 0x40 MLOAD PUSH4 0xC054E53 PUSH1 0xE2 SHL DUP2 MSTORE PUSH1 0x4 DUP2 ADD DUP4 SWAP1 MSTORE PUSH1 0x1 PUSH1 0x1 PUSH1 0xA0 SHL SUB SWAP1 SWAP2 AND SWAP1 PUSH4 0x3015394C SWAP1 PUSH1 0x24 ADD PUSH1 0x20 PUSH1 0x40 MLOAD DUP1 DUP4 SUB DUP2 PUSH1 0x0 DUP8 GAS CALL ISZERO DUP1 ISZERO PUSH2 0x542 JUMPI RETURNDATASIZE PUSH1 0x0 DUP1 RETURNDATACOPY RETURNDATASIZE PUSH1 0x0 REVERT JUMPDEST POP POP POP POP PUSH1 0x40 MLOAD RETURNDATASIZE PUSH1 0x1F NOT PUSH1 0x1F DUP3 ADD AND DUP3 ADD DUP1 PUSH1 0x40 MSTORE POP DUP2 ADD SWAP1 PUSH2 0x566 SWAP2 SWAP1 PUSH2 0x11CC JUMP JUMPDEST POP POP JUMP JUMPDEST PUSH1 0x0 DUP1 SLOAD PUSH1 0x1 PUSH1 0x1 PUSH1 0xA0 SHL SUB AND CALLER EQ PUSH2 0x595 JUMPI PUSH1 0x40 MLOAD PUSH3 0x461BCD PUSH1 0xE5 SHL DUP2 MSTORE PUSH1 0x4 ADD PUSH2 0x3B2 SWAP1 PUSH2 0x1177 JUMP JUMPDEST PUSH2 0x5A0 DUP5 DUP5 DUP5 PUSH2 0xD69 JUMP JUMPDEST SWAP5 SWAP4 POP POP POP POP JUMP JUMPDEST PUSH1 0x0 DUP4 DUP2 MSTORE PUSH1 0x2 PUSH1 0x20 MSTORE PUSH1 0x40 DUP2 KECCAK256 SLOAD PUSH1 0xFF AND ISZERO ISZERO PUSH1 0x1 EQ PUSH2 0x631 JUMPI PUSH1 0x40 MLOAD PUSH3 0x461BCD PUSH1 0xE5 SHL DUP2 MSTORE PUSH1 0x20 PUSH1 0x4 DUP3 ADD MSTORE PUSH1 0x3F PUSH1 0x24 DUP3 ADD MSTORE PUSH32 0x5468697320494420646F6573206E6F742062656C6F6E6720746F20616E206163 PUSH1 0x44 DUP3 ADD MSTORE PUSH32 0x7469766520726571756573742077697468696E207468697320636C69656E7400 PUSH1 0x64 DUP3 ADD MSTORE PUSH1 0x84 ADD PUSH2 0x3B2 JUMP JUMPDEST PUSH1 0x1 SLOAD PUSH1 0x40 MLOAD PUSH4 0xC58343EF PUSH1 0xE0 SHL DUP2 MSTORE PUSH1 0x4 DUP2 ADD DUP7 SWAP1 MSTORE PUSH1 0x0 SWAP2 PUSH1 0x1 PUSH1 0x1 PUSH1 0xA0 SHL SUB AND SWAP1 PUSH4 0xC58343EF SWAP1 PUSH1 0x24 ADD PUSH1 0x0 PUSH1 0x40 MLOAD DUP1 DUP4 SUB DUP2 DUP7 GAS STATICCALL ISZERO DUP1 ISZERO PUSH2 0x67B JUMPI RETURNDATASIZE PUSH1 0x0 DUP1 RETURNDATACOPY RETURNDATASIZE PUSH1 0x0 REVERT JUMPDEST POP POP POP POP PUSH1 0x40 MLOAD RETURNDATASIZE PUSH1 0x0 DUP3 RETURNDATACOPY PUSH1 0x1F RETURNDATASIZE SWAP1 DUP2 ADD PUSH1 0x1F NOT AND DUP3 ADD PUSH1 0x40 MSTORE PUSH2 0x6A3 SWAP2 SWAP1 DUP2 ADD SWAP1 PUSH2 0x1243 JUMP JUMPDEST PUSH1 0xA0 DUP2 ADD MLOAD SWAP1 SWAP2 POP PUSH1 0x1 PUSH1 0x1 PUSH1 0xA0 SHL SUB AND PUSH2 0x70C JUMPI PUSH1 0x40 MLOAD PUSH3 0x461BCD PUSH1 0xE5 SHL DUP2 MSTORE PUSH1 0x20 PUSH1 0x4 DUP3 ADD MSTORE PUSH1 0x24 DUP1 DUP3 ADD MSTORE PUSH32 0x596F75206E65656420746F206163636570742074686520726571756573742066 PUSH1 0x44 DUP3 ADD MSTORE PUSH4 0x1A5C9CDD PUSH1 0xE2 SHL PUSH1 0x64 DUP3 ADD MSTORE PUSH1 0x84 ADD PUSH2 0x3B2 JUMP JUMPDEST PUSH2 0x100 DUP2 ADD MLOAD ISZERO PUSH2 0x75F JUMPI PUSH1 0x40 MLOAD PUSH3 0x461BCD PUSH1 0xE5 SHL DUP2 MSTORE PUSH1 0x20 PUSH1 0x4 DUP3 ADD MSTORE PUSH1 0x1D PUSH1 0x24 DUP3 ADD MSTORE PUSH32 0x546865207265717565737420697320616C726561647920636C6F736564000000 PUSH1 0x44 DUP3 ADD MSTORE PUSH1 0x64 ADD PUSH2 0x3B2 JUMP JUMPDEST PUSH1 0xA0 DUP2 ADD MLOAD PUSH1 0x1 PUSH1 0x1 PUSH1 0xA0 SHL SUB AND CALLER EQ PUSH2 0x7C9 JUMPI PUSH1 0x40 MLOAD PUSH3 0x461BCD PUSH1 0xE5 SHL DUP2 MSTORE PUSH1 0x20 PUSH1 0x4 DUP3 ADD MSTORE PUSH1 0x25 PUSH1 0x24 DUP3 ADD MSTORE PUSH32 0x536F6D656F6E6520656C73652068617320616363657074656420746865205265 PUSH1 0x44 DUP3 ADD MSTORE PUSH5 0x1C5D595CDD PUSH1 0xDA SHL PUSH1 0x64 DUP3 ADD MSTORE PUSH1 0x84 ADD PUSH2 0x3B2 JUMP JUMPDEST PUSH1 0x1 SLOAD PUSH1 0x40 MLOAD PUSH4 0x24C3AED9 PUSH1 0xE1 SHL DUP2 MSTORE PUSH1 0x0 SWAP2 PUSH1 0x1 PUSH1 0x1 PUSH1 0xA0 SHL SUB AND SWAP1 PUSH4 0x49875DB2 SWAP1 PUSH2 0x7FE SWAP1 DUP10 SWAP1 DUP10 SWAP1 DUP10 SWAP1 PUSH1 0x4 ADD PUSH2 0x135E JUMP JUMPDEST PUSH1 0x20 PUSH1 0x40 MLOAD DUP1 DUP4 SUB DUP2 PUSH1 0x0 DUP8 GAS CALL ISZERO DUP1 ISZERO PUSH2 0x81D JUMPI RETURNDATASIZE PUSH1 0x0 DUP1 RETURNDATACOPY RETURNDATASIZE PUSH1 0x0 REVERT JUMPDEST POP POP POP POP PUSH1 0x40 MLOAD RETURNDATASIZE PUSH1 0x1F NOT PUSH1 0x1F DUP3 ADD AND DUP3 ADD DUP1 PUSH1 0x40 MSTORE POP DUP2 ADD SWAP1 PUSH2 0x841 SWAP2 SWAP1 PUSH2 0x11CC JUMP JUMPDEST SWAP1 POP DUP1 ISZERO PUSH2 0x957 JUMPI PUSH1 0x0 DUP7 DUP2 MSTORE PUSH1 0x2 PUSH1 0x20 MSTORE PUSH1 0x40 DUP1 DUP3 KECCAK256 DUP1 SLOAD PUSH1 0xFF NOT AND SWAP1 SSTORE MLOAD PUSH4 0xCB392747 PUSH1 0xE0 SHL SWAP1 PUSH2 0x87A SWAP1 DUP9 SWAP1 DUP9 SWAP1 PUSH1 0x24 ADD PUSH2 0x1378 JUMP JUMPDEST PUSH1 0x40 MLOAD PUSH1 0x20 DUP2 DUP4 SUB SUB DUP2 MSTORE SWAP1 PUSH1 0x40 MSTORE SWAP1 PUSH1 0x1 PUSH1 0x1 PUSH1 0xE0 SHL SUB NOT AND PUSH1 0x20 DUP3 ADD DUP1 MLOAD PUSH1 0x1 PUSH1 0x1 PUSH1 0xE0 SHL SUB DUP4 DUP2 DUP4 AND OR DUP4 MSTORE POP POP POP POP SWAP1 POP PUSH1 0x0 DUP4 PUSH1 0x80 ADD MLOAD PUSH1 0x1 PUSH1 0x1 PUSH1 0xA0 SHL SUB AND DUP5 PUSH1 0x60 ADD MLOAD DUP4 PUSH1 0x40 MLOAD PUSH2 0x8D2 SWAP2 SWAP1 PUSH2 0x138C JUMP JUMPDEST PUSH1 0x0 PUSH1 0x40 MLOAD DUP1 DUP4 SUB DUP2 PUSH1 0x0 DUP8 DUP8 CALL SWAP3 POP POP POP RETURNDATASIZE DUP1 PUSH1 0x0 DUP2 EQ PUSH2 0x910 JUMPI PUSH1 0x40 MLOAD SWAP2 POP PUSH1 0x1F NOT PUSH1 0x3F RETURNDATASIZE ADD AND DUP3 ADD PUSH1 0x40 MSTORE RETURNDATASIZE DUP3 MSTORE RETURNDATASIZE PUSH1 0x0 PUSH1 0x20 DUP5 ADD RETURNDATACOPY PUSH2 0x915 JUMP JUMPDEST PUSH1 0x60 SWAP2 POP JUMPDEST POP POP PUSH1 0x40 DUP1 MLOAD DUP11 DUP2 MSTORE DUP3 ISZERO ISZERO PUSH1 0x20 DUP3 ADD MSTORE SWAP2 SWAP3 POP PUSH32 0xA531C8F4BBF2A18049D85528BB5AAAE66874AF94BCB325738EE729A2B6CF8428 SWAP2 ADD PUSH1 0x40 MLOAD DUP1 SWAP2 SUB SWAP1 LOG1 POP POP JUMPDEST SWAP6 SWAP5 POP POP POP POP POP JUMP JUMPDEST PUSH1 0x3 DUP1 SLOAD PUSH2 0x96D SWAP1 PUSH2 0x13A8 JUMP JUMPDEST DUP1 PUSH1 0x1F ADD PUSH1 0x20 DUP1 SWAP2 DIV MUL PUSH1 0x20 ADD PUSH1 0x40 MLOAD SWAP1 DUP2 ADD PUSH1 0x40 MSTORE DUP1 SWAP3 SWAP2 SWAP1 DUP2 DUP2 MSTORE PUSH1 0x20 ADD DUP3 DUP1 SLOAD PUSH2 0x999 SWAP1 PUSH2 0x13A8 JUMP JUMPDEST DUP1 ISZERO PUSH2 0x9E6 JUMPI DUP1 PUSH1 0x1F LT PUSH2 0x9BB JUMPI PUSH2 0x100 DUP1 DUP4 SLOAD DIV MUL DUP4 MSTORE SWAP2 PUSH1 0x20 ADD SWAP2 PUSH2 0x9E6 JUMP JUMPDEST DUP3 ADD SWAP2 SWAP1 PUSH1 0x0 MSTORE PUSH1 0x20 PUSH1 0x0 KECCAK256 SWAP1 JUMPDEST DUP2 SLOAD DUP2 MSTORE SWAP1 PUSH1 0x1 ADD SWAP1 PUSH1 0x20 ADD DUP1 DUP4 GT PUSH2 0x9C9 JUMPI DUP3 SWAP1 SUB PUSH1 0x1F AND DUP3 ADD SWAP2 JUMPDEST POP POP POP POP POP DUP2 JUMP JUMPDEST PUSH1 0x4 DUP2 DUP2 SLOAD DUP2 LT PUSH2 0x9FE JUMPI PUSH1 0x0 DUP1 REVERT JUMPDEST PUSH1 0x0 SWAP2 DUP3 MSTORE PUSH1 0x20 SWAP1 SWAP2 KECCAK256 PUSH1 0x3 SWAP1 SWAP2 MUL ADD DUP1 SLOAD PUSH1 0x1 DUP3 ADD SLOAD PUSH1 0x2 SWAP1 SWAP3 ADD SLOAD SWAP1 SWAP3 POP DUP4 JUMP JUMPDEST PUSH1 0x60 PUSH1 0x40 MLOAD DUP1 PUSH1 0x60 ADD PUSH1 0x40 MSTORE DUP1 PUSH1 0x3F DUP2 MSTORE PUSH1 0x20 ADD PUSH2 0x1538 PUSH1 0x3F SWAP2 CODECOPY SWAP1 POP SWAP1 JUMP JUMPDEST PUSH1 0x0 DUP1 PUSH2 0xA50 DUP6 DUP8 ADD DUP8 PUSH2 0x13E2 JUMP JUMPDEST SWAP1 POP PUSH1 0x0 PUSH2 0xA60 DUP5 DUP7 ADD DUP7 PUSH2 0x1448 JUMP JUMPDEST SWAP1 POP DUP1 PUSH1 0x20 ADD MLOAD DUP3 PUSH1 0x60 ADD MLOAD EQ DUP1 ISZERO PUSH2 0xA7D JUMPI POP DUP1 PUSH1 0x20 ADD MLOAD TIMESTAMP LT ISZERO JUMPDEST DUP1 ISZERO PUSH2 0xA8A JUMPI POP DUP1 MLOAD DUP3 MLOAD EQ JUMPDEST DUP1 ISZERO PUSH2 0xAD2 JUMPI POP DUP2 PUSH1 0x20 ADD MLOAD DUP2 PUSH1 0x40 ADD MLOAD DUP4 PUSH1 0x40 ADD MLOAD PUSH1 0x40 MLOAD PUSH1 0x20 ADD PUSH2 0xABA SWAP3 SWAP2 SWAP1 SWAP2 DUP3 MSTORE PUSH1 0x20 DUP3 ADD MSTORE PUSH1 0x40 ADD SWAP1 JUMP JUMPDEST PUSH1 0x40 MLOAD PUSH1 0x20 DUP2 DUP4 SUB SUB DUP2 MSTORE SWAP1 PUSH1 0x40 MSTORE DUP1 MLOAD SWAP1 PUSH1 0x20 ADD KECCAK256 EQ JUMPDEST SWAP8 SWAP7 POP POP POP POP POP POP POP JUMP JUMPDEST CALLER ADDRESS EQ PUSH2 0xB44 JUMPI PUSH1 0x40 MLOAD PUSH3 0x461BCD PUSH1 0xE5 SHL DUP2 MSTORE PUSH1 0x20 PUSH1 0x4 DUP3 ADD MSTORE PUSH1 0x2F PUSH1 0x24 DUP3 ADD MSTORE PUSH32 0x46756E6374696F6E2061636365737369626C65206F6E6C792062792074686520 PUSH1 0x44 DUP3 ADD MSTORE PUSH15 0x31B7B73A3930B1BA1034BA39B2B633 PUSH1 0x89 SHL PUSH1 0x64 DUP3 ADD MSTORE PUSH1 0x84 ADD PUSH2 0x3B2 JUMP JUMPDEST PUSH1 0x0 PUSH2 0xB52 DUP3 DUP5 ADD DUP5 PUSH2 0x1448 JUMP JUMPDEST SWAP1 POP DUP1 PUSH1 0x40 ADD MLOAD PUSH1 0x4 DUP3 PUSH1 0x0 ADD MLOAD DUP2 SLOAD DUP2 LT PUSH2 0xB70 JUMPI PUSH2 0xB70 PUSH2 0x14A4 JUMP JUMPDEST PUSH1 0x0 SWAP2 DUP3 MSTORE PUSH1 0x20 SWAP1 SWAP2 KECCAK256 PUSH1 0x2 PUSH1 0x3 SWAP1 SWAP3 MUL ADD ADD SSTORE PUSH1 0x4 SLOAD PUSH2 0xB93 SWAP1 PUSH1 0x1 SWAP1 PUSH2 0x14D0 JUMP JUMPDEST DUP2 MLOAD SUB PUSH2 0xBF8 JUMPI DUP1 PUSH1 0x40 ADD MLOAD PUSH1 0x40 MLOAD PUSH1 0x20 ADD PUSH2 0xBB1 SWAP2 DUP2 MSTORE PUSH1 0x20 ADD SWAP1 JUMP JUMPDEST PUSH1 0x40 DUP1 MLOAD PUSH1 0x1F NOT DUP2 DUP5 SUB ADD DUP2 MSTORE SWAP1 DUP3 SWAP1 MSTORE DUP1 MLOAD PUSH1 0x20 SWAP1 SWAP2 ADD KECCAK256 PUSH1 0x5 SSTORE PUSH32 0x3523C39EB1A9C40E6A7C7504001CA3D223A7675DC8634B5AA1B056124B87CD36 SWAP1 PUSH1 0x0 SWAP1 LOG1 POP POP POP JUMP JUMPDEST DUP1 PUSH1 0x40 ADD MLOAD PUSH1 0x40 MLOAD PUSH1 0x20 ADD PUSH2 0xC0F SWAP2 DUP2 MSTORE PUSH1 0x20 ADD SWAP1 JUMP JUMPDEST PUSH1 0x40 MLOAD PUSH1 0x20 DUP2 DUP4 SUB SUB DUP2 MSTORE SWAP1 PUSH1 0x40 MSTORE DUP1 MLOAD SWAP1 PUSH1 0x20 ADD KECCAK256 PUSH1 0x4 DUP3 PUSH1 0x0 ADD MLOAD PUSH1 0x1 PUSH2 0xC38 SWAP2 SWAP1 PUSH2 0x14E9 JUMP JUMPDEST DUP2 SLOAD DUP2 LT PUSH2 0xC48 JUMPI PUSH2 0xC48 PUSH2 0x14A4 JUMP JUMPDEST PUSH1 0x0 SWAP2 DUP3 MSTORE PUSH1 0x20 SWAP1 SWAP2 KECCAK256 PUSH1 0x1 PUSH1 0x3 SWAP1 SWAP3 MUL ADD ADD SSTORE PUSH1 0x9 SLOAD PUSH1 0xFF AND ISZERO PUSH2 0xD64 JUMPI PUSH1 0x0 PUSH1 0x40 MLOAD DUP1 PUSH1 0x80 ADD PUSH1 0x40 MSTORE DUP1 DUP4 PUSH1 0x0 ADD MLOAD PUSH1 0x1 PUSH2 0xC85 SWAP2 SWAP1 PUSH2 0x14E9 JUMP JUMPDEST DUP2 MSTORE PUSH1 0x20 ADD PUSH1 0x4 DUP5 PUSH1 0x0 ADD MLOAD PUSH1 0x1 PUSH2 0xC9D SWAP2 SWAP1 PUSH2 0x14E9 JUMP JUMPDEST DUP2 SLOAD DUP2 LT PUSH2 0xCAD JUMPI PUSH2 0xCAD PUSH2 0x14A4 JUMP JUMPDEST SWAP1 PUSH1 0x0 MSTORE PUSH1 0x20 PUSH1 0x0 KECCAK256 SWAP1 PUSH1 0x3 MUL ADD PUSH1 0x0 ADD SLOAD DUP2 MSTORE PUSH1 0x20 ADD PUSH1 0x4 DUP5 PUSH1 0x0 ADD MLOAD PUSH1 0x1 PUSH2 0xCD7 SWAP2 SWAP1 PUSH2 0x14E9 JUMP JUMPDEST DUP2 SLOAD DUP2 LT PUSH2 0xCE7 JUMPI PUSH2 0xCE7 PUSH2 0x14A4 JUMP JUMPDEST SWAP1 PUSH1 0x0 MSTORE PUSH1 0x20 PUSH1 0x0 KECCAK256 SWAP1 PUSH1 0x3 MUL ADD PUSH1 0x1 ADD SLOAD DUP2 MSTORE PUSH1 0x20 ADD PUSH1 0x8 SLOAD DUP5 PUSH1 0x20 ADD MLOAD PUSH2 0xD10 SWAP2 SWAP1 PUSH2 0x14E9 JUMP JUMPDEST SWAP1 MSTORE PUSH1 0x6 SLOAD PUSH1 0x40 DUP1 MLOAD DUP4 MLOAD PUSH1 0x20 DUP1 DUP4 ADD SWAP2 SWAP1 SWAP2 MSTORE DUP5 ADD MLOAD DUP2 DUP4 ADD MSTORE SWAP1 DUP4 ADD MLOAD PUSH1 0x60 DUP1 DUP4 ADD SWAP2 SWAP1 SWAP2 MSTORE DUP4 ADD MLOAD PUSH1 0x80 DUP3 ADD MSTORE SWAP2 SWAP3 POP PUSH2 0xD61 SWAP2 PUSH1 0xA0 ADD PUSH1 0x40 MLOAD PUSH1 0x20 DUP2 DUP4 SUB SUB DUP2 MSTORE SWAP1 PUSH1 0x40 MSTORE PUSH1 0x7 SLOAD PUSH2 0xD69 JUMP JUMPDEST POP POP JUMPDEST POP POP POP JUMP JUMPDEST PUSH1 0x0 SELFBALANCE DUP5 GT ISZERO PUSH2 0xDB0 JUMPI PUSH1 0x40 MLOAD PUSH3 0x461BCD PUSH1 0xE5 SHL DUP2 MSTORE PUSH1 0x20 PUSH1 0x4 DUP3 ADD MSTORE PUSH1 0x12 PUSH1 0x24 DUP3 ADD MSTORE PUSH18 0x496E73756666696369656E742066756E6473 PUSH1 0x70 SHL PUSH1 0x44 DUP3 ADD MSTORE PUSH1 0x64 ADD PUSH2 0x3B2 JUMP JUMPDEST PUSH1 0x1 SLOAD PUSH1 0x40 MLOAD PUSH4 0x78F8AF25 PUSH1 0xE1 SHL DUP2 MSTORE PUSH1 0x0 SWAP2 PUSH1 0x1 PUSH1 0x1 PUSH1 0xA0 SHL SUB AND SWAP1 PUSH4 0xF1F15E4A SWAP1 DUP8 SWAP1 PUSH2 0xDE5 SWAP1 DUP9 SWAP1 DUP9 SWAP1 PUSH1 0x4 ADD PUSH2 0x14FC JUMP JUMPDEST PUSH1 0x20 PUSH1 0x40 MLOAD DUP1 DUP4 SUB DUP2 DUP6 DUP9 GAS CALL ISZERO DUP1 ISZERO PUSH2 0xE03 JUMPI RETURNDATASIZE PUSH1 0x0 DUP1 RETURNDATACOPY RETURNDATASIZE PUSH1 0x0 REVERT JUMPDEST POP POP POP POP POP PUSH1 0x40 MLOAD RETURNDATASIZE PUSH1 0x1F NOT PUSH1 0x1F DUP3 ADD AND DUP3 ADD DUP1 PUSH1 0x40 MSTORE POP DUP2 ADD SWAP1 PUSH2 0xE28 SWAP2 SWAP1 PUSH2 0x151E JUMP JUMPDEST SWAP1 POP PUSH32 0xD3B0B0209035A5613265E8FB1F38873EA24C7C6189B128EEBE3689C03D13905C DUP2 PUSH1 0x40 MLOAD PUSH2 0xE5B SWAP2 DUP2 MSTORE PUSH1 0x20 ADD SWAP1 JUMP JUMPDEST PUSH1 0x40 MLOAD DUP1 SWAP2 SUB SWAP1 LOG1 PUSH1 0x0 DUP2 DUP2 MSTORE PUSH1 0x2 PUSH1 0x20 MSTORE PUSH1 0x40 SWAP1 KECCAK256 DUP1 SLOAD PUSH1 0xFF NOT AND PUSH1 0x1 OR SWAP1 SSTORE SWAP1 POP SWAP4 SWAP3 POP POP POP JUMP JUMPDEST PUSH1 0x0 PUSH1 0x20 DUP3 DUP5 SUB SLT ISZERO PUSH2 0xE97 JUMPI PUSH1 0x0 DUP1 REVERT JUMPDEST POP CALLDATALOAD SWAP2 SWAP1 POP JUMP JUMPDEST PUSH1 0x0 JUMPDEST DUP4 DUP2 LT ISZERO PUSH2 0xEB9 JUMPI DUP2 DUP2 ADD MLOAD DUP4 DUP3 ADD MSTORE PUSH1 0x20 ADD PUSH2 0xEA1 JUMP JUMPDEST POP POP PUSH1 0x0 SWAP2 ADD MSTORE JUMP JUMPDEST PUSH1 0x0 DUP2 MLOAD DUP1 DUP5 MSTORE PUSH2 0xEDA DUP2 PUSH1 0x20 DUP7 ADD PUSH1 0x20 DUP7 ADD PUSH2 0xE9E JUMP JUMPDEST PUSH1 0x1F ADD PUSH1 0x1F NOT AND SWAP3 SWAP1 SWAP3 ADD PUSH1 0x20 ADD SWAP3 SWAP2 POP POP JUMP JUMPDEST PUSH1 0x20 DUP2 MSTORE PUSH1 0x0 PUSH2 0xF01 PUSH1 0x20 DUP4 ADD DUP5 PUSH2 0xEC2 JUMP JUMPDEST SWAP4 SWAP3 POP POP POP JUMP JUMPDEST PUSH4 0x4E487B71 PUSH1 0xE0 SHL PUSH1 0x0 MSTORE PUSH1 0x41 PUSH1 0x4 MSTORE PUSH1 0x24 PUSH1 0x0 REVERT JUMPDEST PUSH1 0x40 MLOAD PUSH2 0x120 DUP2 ADD PUSH8 0xFFFFFFFFFFFFFFFF DUP2 GT DUP3 DUP3 LT OR ISZERO PUSH2 0xF42 JUMPI PUSH2 0xF42 PUSH2 0xF08 JUMP JUMPDEST PUSH1 0x40 MSTORE SWAP1 JUMP JUMPDEST PUSH1 0x40 MLOAD PUSH1 0x1F DUP3 ADD PUSH1 0x1F NOT AND DUP2 ADD PUSH8 0xFFFFFFFFFFFFFFFF DUP2 GT DUP3 DUP3 LT OR ISZERO PUSH2 0xF71 JUMPI PUSH2 0xF71 PUSH2 0xF08 JUMP JUMPDEST PUSH1 0x40 MSTORE SWAP2 SWAP1 POP JUMP JUMPDEST PUSH1 0x0 PUSH8 0xFFFFFFFFFFFFFFFF DUP3 GT ISZERO PUSH2 0xF93 JUMPI PUSH2 0xF93 PUSH2 0xF08 JUMP JUMPDEST POP PUSH1 0x1F ADD PUSH1 0x1F NOT AND PUSH1 0x20 ADD SWAP1 JUMP JUMPDEST PUSH1 0x0 DUP1 PUSH1 0x0 PUSH1 0x60 DUP5 DUP7 SUB SLT ISZERO PUSH2 0xFB6 JUMPI PUSH1 0x0 DUP1 REVERT JUMPDEST DUP4 CALLDATALOAD SWAP3 POP PUSH1 0x20 DUP5 ADD CALLDATALOAD PUSH8 0xFFFFFFFFFFFFFFFF DUP2 GT ISZERO PUSH2 0xFD4 JUMPI PUSH1 0x0 DUP1 REVERT JUMPDEST DUP5 ADD PUSH1 0x1F DUP2 ADD DUP7 SGT PUSH2 0xFE5 JUMPI PUSH1 0x0 DUP1 REVERT JUMPDEST DUP1 CALLDATALOAD PUSH2 0xFF8 PUSH2 0xFF3 DUP3 PUSH2 0xF79 JUMP JUMPDEST PUSH2 0xF48 JUMP JUMPDEST DUP2 DUP2 MSTORE DUP8 PUSH1 0x20 DUP4 DUP6 ADD ADD GT ISZERO PUSH2 0x100D JUMPI PUSH1 0x0 DUP1 REVERT JUMPDEST DUP2 PUSH1 0x20 DUP5 ADD PUSH1 0x20 DUP4 ADD CALLDATACOPY PUSH1 0x0 PUSH1 0x20 DUP4 DUP4 ADD ADD MSTORE DUP1 SWAP5 POP POP POP POP PUSH1 0x40 DUP5 ADD CALLDATALOAD SWAP1 POP SWAP3 POP SWAP3 POP SWAP3 JUMP JUMPDEST PUSH1 0x0 DUP1 DUP4 PUSH1 0x1F DUP5 ADD SLT PUSH2 0x1046 JUMPI PUSH1 0x0 DUP1 REVERT JUMPDEST POP DUP2 CALLDATALOAD PUSH8 0xFFFFFFFFFFFFFFFF DUP2 GT ISZERO PUSH2 0x105E JUMPI PUSH1 0x0 DUP1 REVERT JUMPDEST PUSH1 0x20 DUP4 ADD SWAP2 POP DUP4 PUSH1 0x20 DUP3 DUP6 ADD ADD GT ISZERO PUSH2 0x1076 JUMPI PUSH1 0x0 DUP1 REVERT JUMPDEST SWAP3 POP SWAP3 SWAP1 POP JUMP JUMPDEST PUSH1 0x0 DUP1 PUSH1 0x0 PUSH1 0x40 DUP5 DUP7 SUB SLT ISZERO PUSH2 0x1092 JUMPI PUSH1 0x0 DUP1 REVERT JUMPDEST DUP4 CALLDATALOAD SWAP3 POP PUSH1 0x20 DUP5 ADD CALLDATALOAD PUSH8 0xFFFFFFFFFFFFFFFF DUP2 GT ISZERO PUSH2 0x10B0 JUMPI PUSH1 0x0 DUP1 REVERT JUMPDEST PUSH2 0x10BC DUP7 DUP3 DUP8 ADD PUSH2 0x1034 JUMP JUMPDEST SWAP5 SWAP8 SWAP1 SWAP7 POP SWAP4 SWAP5 POP POP POP POP JUMP JUMPDEST PUSH1 0x0 DUP1 PUSH1 0x0 DUP1 PUSH1 0x40 DUP6 DUP8 SUB SLT ISZERO PUSH2 0x10DF JUMPI PUSH1 0x0 DUP1 REVERT JUMPDEST DUP5 CALLDATALOAD PUSH8 0xFFFFFFFFFFFFFFFF DUP1 DUP3 GT ISZERO PUSH2 0x10F7 JUMPI PUSH1 0x0 DUP1 REVERT JUMPDEST PUSH2 0x1103 DUP9 DUP4 DUP10 ADD PUSH2 0x1034 JUMP JUMPDEST SWAP1 SWAP7 POP SWAP5 POP PUSH1 0x20 DUP8 ADD CALLDATALOAD SWAP2 POP DUP1 DUP3 GT ISZERO PUSH2 0x111C JUMPI PUSH1 0x0 DUP1 REVERT JUMPDEST POP PUSH2 0x1129 DUP8 DUP3 DUP9 ADD PUSH2 0x1034 JUMP JUMPDEST SWAP6 SWAP9 SWAP5 SWAP8 POP SWAP6 POP POP POP POP JUMP JUMPDEST PUSH1 0x0 DUP1 PUSH1 0x20 DUP4 DUP6 SUB SLT ISZERO PUSH2 0x1148 JUMPI PUSH1 0x0 DUP1 REVERT JUMPDEST DUP3 CALLDATALOAD PUSH8 0xFFFFFFFFFFFFFFFF DUP2 GT ISZERO PUSH2 0x115F JUMPI PUSH1 0x0 DUP1 REVERT JUMPDEST PUSH2 0x116B DUP6 DUP3 DUP7 ADD PUSH2 0x1034 JUMP JUMPDEST SWAP1 SWAP7 SWAP1 SWAP6 POP SWAP4 POP POP POP POP JUMP JUMPDEST PUSH1 0x20 DUP1 DUP3 MSTORE PUSH1 0x25 SWAP1 DUP3 ADD MSTORE PUSH32 0x46756E6374696F6E2061636365737369626C65206F6E6C792062792074686520 PUSH1 0x40 DUP3 ADD MSTORE PUSH5 0x37BBB732B9 PUSH1 0xD9 SHL PUSH1 0x60 DUP3 ADD MSTORE PUSH1 0x80 ADD SWAP1 JUMP JUMPDEST DUP1 MLOAD DUP1 ISZERO ISZERO DUP2 EQ PUSH2 0x451 JUMPI PUSH1 0x0 DUP1 REVERT JUMPDEST PUSH1 0x0 PUSH1 0x20 DUP3 DUP5 SUB SLT ISZERO PUSH2 0x11DE JUMPI PUSH1 0x0 DUP1 REVERT JUMPDEST PUSH2 0xF01 DUP3 PUSH2 0x11BC JUMP JUMPDEST PUSH1 0x0 DUP3 PUSH1 0x1F DUP4 ADD SLT PUSH2 0x11F8 JUMPI PUSH1 0x0 DUP1 REVERT JUMPDEST DUP2 MLOAD PUSH2 0x1206 PUSH2 0xFF3 DUP3 PUSH2 0xF79 JUMP JUMPDEST DUP2 DUP2 MSTORE DUP5 PUSH1 0x20 DUP4 DUP7 ADD ADD GT ISZERO PUSH2 0x121B JUMPI PUSH1 0x0 DUP1 REVERT JUMPDEST PUSH2 0x5A0 DUP3 PUSH1 0x20 DUP4 ADD PUSH1 0x20 DUP8 ADD PUSH2 0xE9E JUMP JUMPDEST DUP1 MLOAD PUSH1 0x1 PUSH1 0x1 PUSH1 0xA0 SHL SUB DUP2 AND DUP2 EQ PUSH2 0x451 JUMPI PUSH1 0x0 DUP1 REVERT JUMPDEST PUSH1 0x0 PUSH1 0x20 DUP3 DUP5 SUB SLT ISZERO PUSH2 0x1255 JUMPI PUSH1 0x0 DUP1 REVERT JUMPDEST DUP2 MLOAD PUSH8 0xFFFFFFFFFFFFFFFF DUP1 DUP3 GT ISZERO PUSH2 0x126D JUMPI PUSH1 0x0 DUP1 REVERT JUMPDEST SWAP1 DUP4 ADD SWAP1 PUSH2 0x120 DUP3 DUP7 SUB SLT ISZERO PUSH2 0x1282 JUMPI PUSH1 0x0 DUP1 REVERT JUMPDEST PUSH2 0x128A PUSH2 0xF1E JUMP JUMPDEST DUP3 MLOAD DUP2 MSTORE PUSH1 0x20 DUP4 ADD MLOAD DUP3 DUP2 GT ISZERO PUSH2 0x12A0 JUMPI PUSH1 0x0 DUP1 REVERT JUMPDEST PUSH2 0x12AC DUP8 DUP3 DUP7 ADD PUSH2 0x11E7 JUMP JUMPDEST PUSH1 0x20 DUP4 ADD MSTORE POP PUSH1 0x40 DUP4 ADD MLOAD PUSH1 0x40 DUP3 ADD MSTORE PUSH1 0x60 DUP4 ADD MLOAD PUSH1 0x60 DUP3 ADD MSTORE PUSH2 0x12D2 PUSH1 0x80 DUP5 ADD PUSH2 0x122C JUMP JUMPDEST PUSH1 0x80 DUP3 ADD MSTORE PUSH2 0x12E3 PUSH1 0xA0 DUP5 ADD PUSH2 0x122C JUMP JUMPDEST PUSH1 0xA0 DUP3 ADD MSTORE PUSH1 0xC0 DUP4 ADD MLOAD PUSH1 0xC0 DUP3 ADD MSTORE PUSH1 0xE0 DUP4 ADD MLOAD DUP3 DUP2 GT ISZERO PUSH2 0x1304 JUMPI PUSH1 0x0 DUP1 REVERT JUMPDEST PUSH2 0x1310 DUP8 DUP3 DUP7 ADD PUSH2 0x11E7 JUMP JUMPDEST PUSH1 0xE0 DUP4 ADD MSTORE POP PUSH2 0x100 SWAP2 POP PUSH2 0x1326 DUP3 DUP5 ADD PUSH2 0x11BC JUMP JUMPDEST SWAP2 DUP2 ADD SWAP2 SWAP1 SWAP2 MSTORE SWAP5 SWAP4 POP POP POP POP JUMP JUMPDEST DUP2 DUP4 MSTORE DUP2 DUP2 PUSH1 0x20 DUP6 ADD CALLDATACOPY POP PUSH1 0x0 DUP3 DUP3 ADD PUSH1 0x20 SWAP1 DUP2 ADD SWAP2 SWAP1 SWAP2 MSTORE PUSH1 0x1F SWAP1 SWAP2 ADD PUSH1 0x1F NOT AND SWAP1 SWAP2 ADD ADD SWAP1 JUMP JUMPDEST DUP4 DUP2 MSTORE PUSH1 0x40 PUSH1 0x20 DUP3 ADD MSTORE PUSH1 0x0 PUSH2 0x957 PUSH1 0x40 DUP4 ADD DUP5 DUP7 PUSH2 0x1335 JUMP JUMPDEST PUSH1 0x20 DUP2 MSTORE PUSH1 0x0 PUSH2 0x5A0 PUSH1 0x20 DUP4 ADD DUP5 DUP7 PUSH2 0x1335 JUMP JUMPDEST PUSH1 0x0 DUP3 MLOAD PUSH2 0x139E DUP2 DUP5 PUSH1 0x20 DUP8 ADD PUSH2 0xE9E JUMP JUMPDEST SWAP2 SWAP1 SWAP2 ADD SWAP3 SWAP2 POP POP JUMP JUMPDEST PUSH1 0x1 DUP2 DUP2 SHR SWAP1 DUP3 AND DUP1 PUSH2 0x13BC JUMPI PUSH1 0x7F DUP3 AND SWAP2 POP JUMPDEST PUSH1 0x20 DUP3 LT DUP2 SUB PUSH2 0x13DC JUMPI PUSH4 0x4E487B71 PUSH1 0xE0 SHL PUSH1 0x0 MSTORE PUSH1 0x22 PUSH1 0x4 MSTORE PUSH1 0x24 PUSH1 0x0 REVERT JUMPDEST POP SWAP2 SWAP1 POP JUMP JUMPDEST PUSH1 0x0 PUSH1 0x80 DUP3 DUP5 SUB SLT ISZERO PUSH2 0x13F4 JUMPI PUSH1 0x0 DUP1 REVERT JUMPDEST PUSH1 0x40 MLOAD PUSH1 0x80 DUP2 ADD DUP2 DUP2 LT PUSH8 0xFFFFFFFFFFFFFFFF DUP3 GT OR ISZERO PUSH2 0x1417 JUMPI PUSH2 0x1417 PUSH2 0xF08 JUMP JUMPDEST DUP1 PUSH1 0x40 MSTORE POP DUP3 CALLDATALOAD DUP2 MSTORE PUSH1 0x20 DUP4 ADD CALLDATALOAD PUSH1 0x20 DUP3 ADD MSTORE PUSH1 0x40 DUP4 ADD CALLDATALOAD PUSH1 0x40 DUP3 ADD MSTORE PUSH1 0x60 DUP4 ADD CALLDATALOAD PUSH1 0x60 DUP3 ADD MSTORE DUP1 SWAP2 POP POP SWAP3 SWAP2 POP POP JUMP JUMPDEST PUSH1 0x0 PUSH1 0x60 DUP3 DUP5 SUB SLT ISZERO PUSH2 0x145A JUMPI PUSH1 0x0 DUP1 REVERT JUMPDEST PUSH1 0x40 MLOAD PUSH1 0x60 DUP2 ADD DUP2 DUP2 LT PUSH8 0xFFFFFFFFFFFFFFFF DUP3 GT OR ISZERO PUSH2 0x147D JUMPI PUSH2 0x147D PUSH2 0xF08 JUMP JUMPDEST DUP1 PUSH1 0x40 MSTORE POP DUP3 CALLDATALOAD DUP2 MSTORE PUSH1 0x20 DUP4 ADD CALLDATALOAD PUSH1 0x20 DUP3 ADD MSTORE PUSH1 0x40 DUP4 ADD CALLDATALOAD PUSH1 0x40 DUP3 ADD MSTORE DUP1 SWAP2 POP POP SWAP3 SWAP2 POP POP JUMP JUMPDEST PUSH4 0x4E487B71 PUSH1 0xE0 SHL PUSH1 0x0 MSTORE PUSH1 0x32 PUSH1 0x4 MSTORE PUSH1 0x24 PUSH1 0x0 REVERT JUMPDEST PUSH4 0x4E487B71 PUSH1 0xE0 SHL PUSH1 0x0 MSTORE PUSH1 0x11 PUSH1 0x4 MSTORE PUSH1 0x24 PUSH1 0x0 REVERT JUMPDEST DUP2 DUP2 SUB DUP2 DUP2 GT ISZERO PUSH2 0x14E3 JUMPI PUSH2 0x14E3 PUSH2 0x14BA JUMP JUMPDEST SWAP3 SWAP2 POP POP JUMP JUMPDEST DUP1 DUP3 ADD DUP1 DUP3 GT ISZERO PUSH2 0x14E3 JUMPI PUSH2 0x14E3 PUSH2 0x14BA JUMP JUMPDEST PUSH1 0x40 DUP2 MSTORE PUSH1 0x0 PUSH2 0x150F PUSH1 0x40 DUP4 ADD DUP6 PUSH2 0xEC2 JUMP JUMPDEST SWAP1 POP DUP3 PUSH1 0x20 DUP4 ADD MSTORE SWAP4 SWAP3 POP POP POP JUMP JUMPDEST PUSH1 0x0 PUSH1 0x20 DUP3 DUP5 SUB SLT ISZERO PUSH2 0x1530 JUMPI PUSH1 0x0 DUP1 REVERT JUMPDEST POP MLOAD SWAP2 SWAP1 POP JUMP INVALID PUSH28 0x75696E7420667261676D656E74496E6465783B2075696E742074696D PUSH6 0x7374616D7052 PUSH6 0x737472696374 PUSH10 0x6F6E3B2075696E742070 PUSH2 0x7373 PUSH4 0x6F64653B PUSH30 0x7B75696E7420667261676D656E74496E6465783B20627974657333322067 PUSH13 0x6F62616C486173683B20627974 PUSH6 0x733332206C6F PUSH4 0x616C4861 PUSH20 0x683B2075696E74206D696E54696D657374616D70 EXTCODESIZE PUSH30 0xA26469706673582212207F8C1189C1EFE22090CE6DBECCEA3D4FDE738BD9 SIGNEXTEND STATICCALL 0x24 CODESIZE PUSH3 0x273086 DUP7 PUSH12 0x5E1864736F6C634300081300 CALLER ",
  "sha1": "f6632c698ae0f46ab0591c5a5b6af12cb5f19cfb",
  "source": "// SPDX-License-Identifier: GPL-3.0\n\npragma solidity >=0.7.0 <0.9.0;\n\nimport \"./BaseClient.sol\";\n\n\ncontract TS3000 is BaseClient {\n\n    struct KeyFragment {\n        bytes32 globalHash;\n        bytes32 localHash;\n        uint passcode;\n    }\n\n    struct Input {\n        uint fragmentIndex;\n        bytes32 globalHash;\n        bytes32 localHash;\n        uint minTimestamp;\n    }\n\n    struct Result {\n        uint fragmentIndex;\n        uint timestampRestriction;\n        uint passcode;\n    }\n\n    event keyFullyMined();\n\n    string public encryptedDataRefference;\n    KeyFragment[] public keyFragments;\n    bytes32 public finalKey;\n\n    uint public rewardPerFragment;\n    uint public postProcessingGas;\n    uint public minTimeFramePerFragment;\n    bool public postProcessingEnabled;\n    \n    constructor(address brokerAddress, string memory _encryptedDataRefference, bytes32 firstLocalHash, bytes32[] memory globalHashes, uint _minTimeFramePerFragment) BaseClient(brokerAddress) payable {\n        postProcessingGas = 400000;  // calculate postprocgas //// con 300000 funciona, con 200000 no\n        postProcessingEnabled = true;\n        rewardPerFragment = msg.value / globalHashes.length; //aca tener en cuenta el postprocgas\n        encryptedDataRefference = _encryptedDataRefference;\n        minTimeFramePerFragment = _minTimeFramePerFragment;\n        for (uint i = 0; i < globalHashes.length; i++) {\n            KeyFragment memory fragment; \n            fragment.globalHash = globalHashes[i];\n            if (i == 0) {\n                fragment.localHash = firstLocalHash;\n            }\n            keyFragments.push(fragment);\n        }\n        Input memory input = Input({\n            fragmentIndex: 0,\n            globalHash: globalHashes[0],\n            localHash: firstLocalHash,\n            minTimestamp: block.timestamp\n        });\n        _submitRequest(rewardPerFragment, abi.encode(input), postProcessingGas);\n    }\n\n    function checkResult(bytes calldata inputData, bytes calldata resultData) external override view returns (bool) {\n        Input memory input = abi.decode(inputData, (Input));\n        Result memory result = abi.decode(resultData, (Result));\n        return (input.minTimestamp == result.timestampRestriction) && (block.timestamp >= result.timestampRestriction) && (input.fragmentIndex == result.fragmentIndex) && (keccak256(abi.encode(result.passcode, input.localHash)) == input.globalHash);\n    }\n\n    function processResult(bytes calldata resultData) public override onlyClient { // decidir si quiero mantener el parametro de post processing gas, o si lo dejo limitless a criterio del ejecutor. LO MANTENGO POR QUE ESTA SETEADO EL LIMITE DESDE BASE CLIENT FUERA DEL CONTROL DE CLIENTES MALICIOSOS\n        //La hago public y only client en vez de internal porque necesito el cambio de msg.sender y necesito limitar el gas\n        Result memory result = abi.decode(resultData, (Result));\n        keyFragments[result.fragmentIndex].passcode = result.passcode;\n        if (result.fragmentIndex == keyFragments.length - 1) {\n            finalKey = keccak256(abi.encode(result.passcode));\n            emit keyFullyMined();\n        } else {\n            keyFragments[result.fragmentIndex + 1].localHash = keccak256(abi.encode(result.passcode));\n            if (postProcessingEnabled) {\n                Input memory input = Input({\n                    fragmentIndex: result.fragmentIndex + 1,\n                    globalHash: keyFragments[result.fragmentIndex + 1].globalHash,\n                    localHash: keyFragments[result.fragmentIndex + 1].localHash,\n                    minTimestamp: result.timestampRestriction + minTimeFramePerFragment\n                });\n                _submitRequest(rewardPerFragment, abi.encode(input), postProcessingGas);\n            }\n        }\n    }\n\n    function togglePostProcessing() external onlyOwner returns (bool) {\n        postProcessingEnabled = postProcessingEnabled ? false : true;\n        return postProcessingEnabled;\n    }\n\n    function getInputDataStructure() external override pure returns (string memory) {\n        return \"{uint fragmentIndex; bytes32 globalHash; bytes32 localHash; uint minTimestamp;}\";\n    }\n    \n    function getResultDataStructure() external override pure returns (string memory) {\n        return \"{uint fragmentIndex; uint timestampRestriction; uint passcode;}\";\n    }\n\n}",
  "sourcePath": "contracts/TS3000.sol",
  "type": "contract"
}