{
  "abi": [
    {
      "inputs": [
        {
          "internalType": "address",
          "name": "brokerAddress",
          "type": "address"
        },
        {
          "internalType": "string",
          "name": "_encryptedDataRefference",
          "type": "string"
        },
        {
          "internalType": "bytes32",
          "name": "firstLocalHash",
          "type": "bytes32"
        },
        {
          "internalType": "bytes32[]",
          "name": "globalHashes",
          "type": "bytes32[]"
        },
        {
          "internalType": "uint256",
          "name": "_minTimeFramePerFragment",
          "type": "uint256"
        },
        {
          "internalType": "uint256",
          "name": "_fragmentDifficulty",
          "type": "uint256"
        }
      ],
      "stateMutability": "payable",
      "type": "constructor"
    },
    {
      "anonymous": false,
      "inputs": [],
      "name": "keyFullyMined",
      "type": "event"
    },
    {
      "anonymous": false,
      "inputs": [
        {
          "indexed": false,
          "internalType": "uint256",
          "name": "requestID",
          "type": "uint256"
        }
      ],
      "name": "requestSubmitted",
      "type": "event"
    },
    {
      "anonymous": false,
      "inputs": [
        {
          "indexed": false,
          "internalType": "uint256",
          "name": "requestID",
          "type": "uint256"
        },
        {
          "indexed": false,
          "internalType": "bool",
          "name": "success",
          "type": "bool"
        }
      ],
      "name": "resultPostProcessed",
      "type": "event"
    },
    {
      "inputs": [],
      "name": "brokerContract",
      "outputs": [
        {
          "internalType": "contract ExecutionBroker",
          "name": "",
          "type": "address"
        }
      ],
      "stateMutability": "view",
      "type": "function"
    },
    {
      "inputs": [
        {
          "internalType": "uint256",
          "name": "requestID",
          "type": "uint256"
        }
      ],
      "name": "cancelRequest",
      "outputs": [],
      "stateMutability": "nonpayable",
      "type": "function"
    },
    {
      "inputs": [
        {
          "internalType": "bytes",
          "name": "inputData",
          "type": "bytes"
        },
        {
          "internalType": "bytes",
          "name": "resultData",
          "type": "bytes"
        }
      ],
      "name": "checkResult",
      "outputs": [
        {
          "internalType": "bool",
          "name": "",
          "type": "bool"
        }
      ],
      "stateMutability": "view",
      "type": "function"
    },
    {
      "inputs": [],
      "name": "encryptedDataRefference",
      "outputs": [
        {
          "internalType": "string",
          "name": "",
          "type": "string"
        }
      ],
      "stateMutability": "view",
      "type": "function"
    },
    {
      "inputs": [],
      "name": "finalKey",
      "outputs": [
        {
          "internalType": "bytes32",
          "name": "",
          "type": "bytes32"
        }
      ],
      "stateMutability": "view",
      "type": "function"
    },
    {
      "inputs": [],
      "name": "fragmentDifficulty",
      "outputs": [
        {
          "internalType": "uint256",
          "name": "",
          "type": "uint256"
        }
      ],
      "stateMutability": "view",
      "type": "function"
    },
    {
      "inputs": [],
      "name": "getInputDataStructure",
      "outputs": [
        {
          "internalType": "string",
          "name": "",
          "type": "string"
        }
      ],
      "stateMutability": "pure",
      "type": "function"
    },
    {
      "inputs": [],
      "name": "getResultDataStructure",
      "outputs": [
        {
          "internalType": "string",
          "name": "",
          "type": "string"
        }
      ],
      "stateMutability": "pure",
      "type": "function"
    },
    {
      "inputs": [],
      "name": "isOwner",
      "outputs": [
        {
          "internalType": "bool",
          "name": "",
          "type": "bool"
        }
      ],
      "stateMutability": "view",
      "type": "function"
    },
    {
      "inputs": [
        {
          "internalType": "uint256",
          "name": "",
          "type": "uint256"
        }
      ],
      "name": "keyFragments",
      "outputs": [
        {
          "internalType": "bytes32",
          "name": "globalHash",
          "type": "bytes32"
        },
        {
          "internalType": "bytes32",
          "name": "localHash",
          "type": "bytes32"
        },
        {
          "internalType": "uint256",
          "name": "passcode",
          "type": "uint256"
        }
      ],
      "stateMutability": "view",
      "type": "function"
    },
    {
      "inputs": [],
      "name": "minTimeFramePerFragment",
      "outputs": [
        {
          "internalType": "uint256",
          "name": "",
          "type": "uint256"
        }
      ],
      "stateMutability": "view",
      "type": "function"
    },
    {
      "inputs": [],
      "name": "owner",
      "outputs": [
        {
          "internalType": "address",
          "name": "",
          "type": "address"
        }
      ],
      "stateMutability": "view",
      "type": "function"
    },
    {
      "inputs": [],
      "name": "postProcessingEnabled",
      "outputs": [
        {
          "internalType": "bool",
          "name": "",
          "type": "bool"
        }
      ],
      "stateMutability": "view",
      "type": "function"
    },
    {
      "inputs": [],
      "name": "postProcessingGas",
      "outputs": [
        {
          "internalType": "uint256",
          "name": "",
          "type": "uint256"
        }
      ],
      "stateMutability": "view",
      "type": "function"
    },
    {
      "inputs": [
        {
          "internalType": "bytes",
          "name": "resultData",
          "type": "bytes"
        }
      ],
      "name": "processResult",
      "outputs": [],
      "stateMutability": "nonpayable",
      "type": "function"
    },
    {
      "inputs": [
        {
          "internalType": "bytes",
          "name": "inputData",
          "type": "bytes"
        }
      ],
      "name": "resolveOnChain",
      "outputs": [
        {
          "internalType": "bytes",
          "name": "",
          "type": "bytes"
        }
      ],
      "stateMutability": "view",
      "type": "function"
    },
    {
      "inputs": [],
      "name": "rewardPerFragment",
      "outputs": [
        {
          "internalType": "uint256",
          "name": "",
          "type": "uint256"
        }
      ],
      "stateMutability": "view",
      "type": "function"
    },
    {
      "inputs": [],
      "name": "sendFunds",
      "outputs": [],
      "stateMutability": "payable",
      "type": "function"
    },
    {
      "inputs": [
        {
          "internalType": "uint256",
          "name": "payment",
          "type": "uint256"
        },
        {
          "internalType": "bytes",
          "name": "input",
          "type": "bytes"
        },
        {
          "internalType": "uint256",
          "name": "postProcessingGas",
          "type": "uint256"
        }
      ],
      "name": "submitRequest",
      "outputs": [
        {
          "internalType": "uint256",
          "name": "",
          "type": "uint256"
        }
      ],
      "stateMutability": "payable",
      "type": "function"
    },
    {
      "inputs": [
        {
          "internalType": "uint256",
          "name": "requestID",
          "type": "uint256"
        },
        {
          "internalType": "bytes",
          "name": "result",
          "type": "bytes"
        }
      ],
      "name": "submitResult",
      "outputs": [
        {
          "internalType": "bool",
          "name": "",
          "type": "bool"
        }
      ],
      "stateMutability": "nonpayable",
      "type": "function"
    },
    {
      "inputs": [],
      "name": "togglePostProcessing",
      "outputs": [
        {
          "internalType": "bool",
          "name": "",
          "type": "bool"
        }
      ],
      "stateMutability": "nonpayable",
      "type": "function"
    },
    {
      "inputs": [
        {
          "internalType": "uint256",
          "name": "value",
          "type": "uint256"
        }
      ],
      "name": "withdrawFunds",
      "outputs": [
        {
          "internalType": "bool",
          "name": "",
          "type": "bool"
        }
      ],
      "stateMutability": "nonpayable",
      "type": "function"
    },
    {
      "stateMutability": "payable",
      "type": "receive"
    }
  ],
  "bytecode": "608060405260405162001dd038038062001dd083398101604081905262000026916200044e565b60008054336001600160a01b031991821617909155600180549091166001600160a01b03881617815562061a80600855600a805460ff191690911790556006819055825162000076903462000550565b600755600362000087868262000604565b50600982905560005b835181101562000186576040805160608101825260008082526020820181905291810191909152848281518110620000cc57620000cc620006d0565b602090810291909101015181526000829003620000eb57602081018690525b600480546001808201835560009290925282517f8a35acfbc15ff81a39ae7d344fd709f28e8600b4aa8c65c6b64bfe7fe36bd19b60039092029182015560208301517f8a35acfbc15ff81a39ae7d344fd709f28e8600b4aa8c65c6b64bfe7fe36bd19c8201556040909201517f8a35acfbc15ff81a39ae7d344fd709f28e8600b4aa8c65c6b64bfe7fe36bd19d909201919091550162000090565b50600060405180608001604052806000815260200185600081518110620001b157620001b1620006d0565b6020026020010151815260200186815260200142815250905062000222600754826040516020016200020991908151815260208083015190820152604080830151908201526060918201519181019190915260800190565b60408051601f1981840301815291905260085462000230565b50505050505050506200073d565b6000478411156200027c5760405162461bcd60e51b8152602060048201526012602482015271496e73756666696369656e742066756e647360701b604482015260640160405180910390fd5b6001546040516378f8af2560e11b81526000916001600160a01b03169063f1f15e4a908790620002b39088908890600401620006e6565b60206040518083038185885af1158015620002d2573d6000803e3d6000fd5b50505050506040513d601f19601f82011682018060405250810190620002f9919062000723565b90507fd3b0b0209035a5613265e8fb1f38873ea24c7c6189b128eebe3689c03d13905c816040516200032d91815260200190565b60405180910390a16000818152600260205260409020805460ff1916600117905590509392505050565b634e487b7160e01b600052604160045260246000fd5b604051601f8201601f191681016001600160401b038111828210171562000398576200039862000357565b604052919050565b60005b83811015620003bd578181015183820152602001620003a3565b50506000910152565b600082601f830112620003d857600080fd5b815160206001600160401b03821115620003f657620003f662000357565b8160051b620004078282016200036d565b92835284810182019282810190878511156200042257600080fd5b83870192505b84831015620004435782518252918301919083019062000428565b979650505050505050565b60008060008060008060c087890312156200046857600080fd5b86516001600160a01b03811681146200048057600080fd5b60208801519096506001600160401b03808211156200049e57600080fd5b818901915089601f830112620004b357600080fd5b815181811115620004c857620004c862000357565b620004dd601f8201601f19166020016200036d565b8181528b6020838601011115620004f357600080fd5b62000506826020830160208701620003a0565b60408b015160608c01519199509750925050808211156200052657600080fd5b506200053589828a01620003c6565b9350506080870151915060a087015190509295509295509295565b6000826200056e57634e487b7160e01b600052601260045260246000fd5b500490565b600181811c908216806200058857607f821691505b602082108103620005a957634e487b7160e01b600052602260045260246000fd5b50919050565b601f821115620005ff576000816000526020600020601f850160051c81016020861015620005da5750805b601f850160051c820191505b81811015620005fb57828155600101620005e6565b5050505b505050565b81516001600160401b0381111562000620576200062062000357565b620006388162000631845462000573565b84620005af565b602080601f831160018114620006705760008415620006575750858301515b600019600386901b1c1916600185901b178555620005fb565b600085815260208120601f198616915b82811015620006a15788860151825594840194600190910190840162000680565b5085821015620006c05787850151600019600388901b60f8161c191681555b5050505050600190811b01905550565b634e487b7160e01b600052603260045260246000fd5b604081526000835180604084015262000707816060850160208801620003a0565b602083019390935250601f91909101601f191601606001919050565b6000602082840312156200073657600080fd5b5051919050565b611683806200074d6000396000f3fe6080604052600436106101395760003560e01c80637353d891116100ab578063a0a7ccff1161006f578063a0a7ccff14610327578063ace8e46214610347578063c2c562451461035d578063c91c7b371461037d578063cb3927471461039d578063d997ebf5146103bd57600080fd5b80637353d891146102855780638244741c146102c05780638d68cf59146102255780638da5cb5b146102d55780638f32d59b1461030757600080fd5b80632d9e78b8116100fd5780632d9e78b8146101ef5780633015394c1461020557806343bb58de1461022757806349875db21461023a5780634f7ef8661461025a578063552b0b831461027057600080fd5b8063015594b814610145578063155dd5ee1461017457806322473385146101945780632896de13146101b85780632d16d25b146101da57600080fd5b3661014057005b600080fd5b34801561015157600080fd5b50600a5461015f9060ff1681565b60405190151581526020015b60405180910390f35b34801561018057600080fd5b5061015f61018f366004610f13565b6103d3565b3480156101a057600080fd5b506101aa60085481565b60405190815260200161016b565b3480156101c457600080fd5b506101cd6104a2565b60405161016b9190610f7c565b3480156101e657600080fd5b5061015f6104c2565b3480156101fb57600080fd5b506101aa60055481565b34801561021157600080fd5b50610225610220366004610f13565b610519565b005b6101aa61023536600461102f565b6105b6565b34801561024657600080fd5b5061015f61025536600461110b565b6105f4565b34801561026657600080fd5b506101aa60065481565b34801561027c57600080fd5b506101cd6109ac565b34801561029157600080fd5b506102a56102a0366004610f13565b610a3a565b6040805193845260208401929092529082015260600161016b565b3480156102cc57600080fd5b506101cd610a6d565b3480156102e157600080fd5b506000546001600160a01b03165b6040516001600160a01b03909116815260200161016b565b34801561031357600080fd5b506000546001600160a01b0316331461015f565b34801561033357600080fd5b506101cd610342366004611157565b610a8d565b34801561035357600080fd5b506101aa60095481565b34801561036957600080fd5b506001546102ef906001600160a01b031681565b34801561038957600080fd5b5061015f610398366004611199565b610acf565b3480156103a957600080fd5b506102256103b8366004611157565b610b6b565b3480156103c957600080fd5b506101aa60075481565b600080546001600160a01b031633146104075760405162461bcd60e51b81526004016103fe90611205565b60405180910390fd5b8147101561044c5760405162461bcd60e51b8152602060048201526012602482015271496e73756666696369656e742066756e647360701b60448201526064016103fe565b6040513390600090829085908381818185875af1925050503d8060008114610490576040519150601f19603f3d011682016040523d82523d6000602084013e610495565b606091505b509093505050505b919050565b60606040518060800160405280604f81526020016115ff604f9139905090565b600080546001600160a01b031633146104ed5760405162461bcd60e51b81526004016103fe90611205565b600a5460ff166104fe576001610501565b60005b600a805460ff1916911515918217905560ff16919050565b6000546001600160a01b031633146105435760405162461bcd60e51b81526004016103fe90611205565b600154604051630c054e5360e21b8152600481018390526001600160a01b0390911690633015394c906024016020604051808303816000875af115801561058e573d6000803e3d6000fd5b505050506040513d601f19601f820116820180604052508101906105b2919061125a565b5050565b600080546001600160a01b031633146105e15760405162461bcd60e51b81526004016103fe90611205565b6105ec848484610df7565b949350505050565b60008381526002602052604081205460ff16151560011461067d5760405162461bcd60e51b815260206004820152603f60248201527f5468697320494420646f6573206e6f742062656c6f6e6720746f20616e20616360448201527f7469766520726571756573742077697468696e207468697320636c69656e740060648201526084016103fe565b60015460405163c58343ef60e01b8152600481018690526000916001600160a01b03169063c58343ef90602401600060405180830381865afa1580156106c7573d6000803e3d6000fd5b505050506040513d6000823e601f3d908101601f191682016040526106ef91908101906112d1565b60a08101519091506001600160a01b03166107585760405162461bcd60e51b8152602060048201526024808201527f596f75206e65656420746f2061636365707420746865207265717565737420666044820152631a5c9cdd60e21b60648201526084016103fe565b610100810151156107ab5760405162461bcd60e51b815260206004820152601d60248201527f546865207265717565737420697320616c726561647920636c6f73656400000060448201526064016103fe565b60a08101516001600160a01b031633146108155760405162461bcd60e51b815260206004820152602560248201527f536f6d656f6e6520656c736520686173206163636570746564207468652052656044820152641c5d595cdd60da1b60648201526084016103fe565b6001546040516324c3aed960e11b81526000916001600160a01b0316906349875db29061084a908990899089906004016113ec565b6020604051808303816000875af1158015610869573d6000803e3d6000fd5b505050506040513d601f19601f8201168201806040525081019061088d919061125a565b905080156109a357600086815260026020526040808220805460ff191690555163cb39274760e01b906108c69088908890602401611406565b604051602081830303815290604052906001600160e01b0319166020820180516001600160e01b0383818316178352505050509050600083608001516001600160a01b031684606001518360405161091e919061141a565b60006040518083038160008787f1925050503d806000811461095c576040519150601f19603f3d011682016040523d82523d6000602084013e610961565b606091505b5050604080518a815282151560208201529192507fa531c8f4bbf2a18049d85528bb5aaae66874af94bcb325738ee729a2b6cf8428910160405180910390a150505b95945050505050565b600380546109b990611436565b80601f01602080910402602001604051908101604052809291908181526020018280546109e590611436565b8015610a325780601f10610a0757610100808354040283529160200191610a32565b820191906000526020600020905b815481529060010190602001808311610a1557829003601f168201915b505050505081565b60048181548110610a4a57600080fd5b600091825260209091206003909102018054600182015460029092015490925083565b60606040518060600160405280603f81526020016115c0603f9139905090565b606082828080601f0160208091040260200160405190810160405280939291908181526020018383808284376000920191909152509293505050505b92915050565b600080610ade85870187611470565b90506000610aee848601866114d6565b905080602001518260600151148015610b0b575080602001514210155b8015610b18575080518251145b8015610b605750816020015181604001518360400151604051602001610b48929190918252602082015260400190565b60405160208183030381529060405280519060200120145b979650505050505050565b333014610bd25760405162461bcd60e51b815260206004820152602f60248201527f46756e6374696f6e2061636365737369626c65206f6e6c79206279207468652060448201526e31b7b73a3930b1ba1034ba39b2b63360891b60648201526084016103fe565b6000610be0828401846114d6565b905080604001516004826000015181548110610bfe57610bfe611532565b6000918252602090912060026003909202010155600454610c219060019061155e565b815103610c86578060400151604051602001610c3f91815260200190565b60408051601f198184030181529082905280516020909101206005557f3523c39eb1a9c40e6a7c7504001ca3d223a7675dc8634b5aa1b056124b87cd3690600090a1505050565b8060400151604051602001610c9d91815260200190565b60405160208183030381529060405280519060200120600482600001516001610cc69190611571565b81548110610cd657610cd6611532565b6000918252602090912060016003909202010155600a5460ff1615610df2576000604051806080016040528083600001516001610d139190611571565b8152602001600484600001516001610d2b9190611571565b81548110610d3b57610d3b611532565b9060005260206000209060030201600001548152602001600484600001516001610d659190611571565b81548110610d7557610d75611532565b90600052602060002090600302016001015481526020016009548460200151610d9e9190611571565b905260075460408051835160208083019190915284015181830152908301516060808301919091528301516080820152919250610def9160a001604051602081830303815290604052600854610df7565b50505b505050565b600047841115610e3e5760405162461bcd60e51b8152602060048201526012602482015271496e73756666696369656e742066756e647360701b60448201526064016103fe565b6001546040516378f8af2560e11b81526000916001600160a01b03169063f1f15e4a908790610e739088908890600401611584565b60206040518083038185885af1158015610e91573d6000803e3d6000fd5b50505050506040513d601f19601f82011682018060405250810190610eb691906115a6565b90507fd3b0b0209035a5613265e8fb1f38873ea24c7c6189b128eebe3689c03d13905c81604051610ee991815260200190565b60405180910390a16000818152600260205260409020805460ff1916600117905590509392505050565b600060208284031215610f2557600080fd5b5035919050565b60005b83811015610f47578181015183820152602001610f2f565b50506000910152565b60008151808452610f68816020860160208601610f2c565b601f01601f19169290920160200192915050565b602081526000610f8f6020830184610f50565b9392505050565b634e487b7160e01b600052604160045260246000fd5b604051610120810167ffffffffffffffff81118282101715610fd057610fd0610f96565b60405290565b604051601f8201601f1916810167ffffffffffffffff81118282101715610fff57610fff610f96565b604052919050565b600067ffffffffffffffff82111561102157611021610f96565b50601f01601f191660200190565b60008060006060848603121561104457600080fd5b83359250602084013567ffffffffffffffff81111561106257600080fd5b8401601f8101861361107357600080fd5b803561108661108182611007565b610fd6565b81815287602083850101111561109b57600080fd5b81602084016020830137600060208383010152809450505050604084013590509250925092565b60008083601f8401126110d457600080fd5b50813567ffffffffffffffff8111156110ec57600080fd5b60208301915083602082850101111561110457600080fd5b9250929050565b60008060006040848603121561112057600080fd5b83359250602084013567ffffffffffffffff81111561113e57600080fd5b61114a868287016110c2565b9497909650939450505050565b6000806020838503121561116a57600080fd5b823567ffffffffffffffff81111561118157600080fd5b61118d858286016110c2565b90969095509350505050565b600080600080604085870312156111af57600080fd5b843567ffffffffffffffff808211156111c757600080fd5b6111d3888389016110c2565b909650945060208701359150808211156111ec57600080fd5b506111f9878288016110c2565b95989497509550505050565b60208082526025908201527f46756e6374696f6e2061636365737369626c65206f6e6c79206279207468652060408201526437bbb732b960d91b606082015260800190565b8051801515811461049d57600080fd5b60006020828403121561126c57600080fd5b610f8f8261124a565b600082601f83011261128657600080fd5b815161129461108182611007565b8181528460208386010111156112a957600080fd5b6105ec826020830160208701610f2c565b80516001600160a01b038116811461049d57600080fd5b6000602082840312156112e357600080fd5b815167ffffffffffffffff808211156112fb57600080fd5b90830190610120828603121561131057600080fd5b611318610fac565b8251815260208301518281111561132e57600080fd5b61133a87828601611275565b6020830152506040830151604082015260608301516060820152611360608084016112ba565b608082015261137160a084016112ba565b60a082015260c083015160c082015260e08301518281111561139257600080fd5b61139e87828601611275565b60e08301525061010091506113b482840161124a565b91810191909152949350505050565b81835281816020850137506000828201602090810191909152601f909101601f19169091010190565b8381526040602082015260006109a36040830184866113c3565b6020815260006105ec6020830184866113c3565b6000825161142c818460208701610f2c565b9190910192915050565b600181811c9082168061144a57607f821691505b60208210810361146a57634e487b7160e01b600052602260045260246000fd5b50919050565b60006080828403121561148257600080fd5b6040516080810181811067ffffffffffffffff821117156114a5576114a5610f96565b8060405250823581526020830135602082015260408301356040820152606083013560608201528091505092915050565b6000606082840312156114e857600080fd5b6040516060810181811067ffffffffffffffff8211171561150b5761150b610f96565b80604052508235815260208301356020820152604083013560408201528091505092915050565b634e487b7160e01b600052603260045260246000fd5b634e487b7160e01b600052601160045260246000fd5b81810381811115610ac957610ac9611548565b80820180821115610ac957610ac9611548565b6040815260006115976040830185610f50565b90508260208301529392505050565b6000602082840312156115b857600080fd5b505191905056fe7b75696e7420667261676d656e74496e6465783b2075696e742074696d657374616d705265737472696374696f6e3b2075696e742070617373636f64653b7d7b75696e7420667261676d656e74496e6465783b206279746573333220676c6f62616c486173683b2062797465733332206c6f63616c486173683b2075696e74206d696e54696d657374616d703b7da26469706673582212209b41181b8852add7cefa6b0d68382f02bfde7d45a354f92810d3cc81adfa688c64736f6c63430008170033",
  "bytecodeSha1": "1105f4c55c00e4eafbe14e4245b16fb357703546",
  "compiler": {
    "evm_version": "istanbul",
    "optimizer": {
      "enabled": true,
      "runs": 200
    },
    "version": "0.8.23+commit.f704f362"
  },
  "contractName": "TS3000",
  "language": "Solidity",
  "natspec": {
    "kind": "dev",
    "methods": {},
    "version": 1
  },
  "opcodes": "PUSH1 0x80 PUSH1 0x40 MSTORE PUSH1 0x4 CALLDATASIZE LT PUSH2 0x139 JUMPI PUSH1 0x0 CALLDATALOAD PUSH1 0xE0 SHR DUP1 PUSH4 0x7353D891 GT PUSH2 0xAB JUMPI DUP1 PUSH4 0xA0A7CCFF GT PUSH2 0x6F JUMPI DUP1 PUSH4 0xA0A7CCFF EQ PUSH2 0x327 JUMPI DUP1 PUSH4 0xACE8E462 EQ PUSH2 0x347 JUMPI DUP1 PUSH4 0xC2C56245 EQ PUSH2 0x35D JUMPI DUP1 PUSH4 0xC91C7B37 EQ PUSH2 0x37D JUMPI DUP1 PUSH4 0xCB392747 EQ PUSH2 0x39D JUMPI DUP1 PUSH4 0xD997EBF5 EQ PUSH2 0x3BD JUMPI PUSH1 0x0 DUP1 REVERT JUMPDEST DUP1 PUSH4 0x7353D891 EQ PUSH2 0x285 JUMPI DUP1 PUSH4 0x8244741C EQ PUSH2 0x2C0 JUMPI DUP1 PUSH4 0x8D68CF59 EQ PUSH2 0x225 JUMPI DUP1 PUSH4 0x8DA5CB5B EQ PUSH2 0x2D5 JUMPI DUP1 PUSH4 0x8F32D59B EQ PUSH2 0x307 JUMPI PUSH1 0x0 DUP1 REVERT JUMPDEST DUP1 PUSH4 0x2D9E78B8 GT PUSH2 0xFD JUMPI DUP1 PUSH4 0x2D9E78B8 EQ PUSH2 0x1EF JUMPI DUP1 PUSH4 0x3015394C EQ PUSH2 0x205 JUMPI DUP1 PUSH4 0x43BB58DE EQ PUSH2 0x227 JUMPI DUP1 PUSH4 0x49875DB2 EQ PUSH2 0x23A JUMPI DUP1 PUSH4 0x4F7EF866 EQ PUSH2 0x25A JUMPI DUP1 PUSH4 0x552B0B83 EQ PUSH2 0x270 JUMPI PUSH1 0x0 DUP1 REVERT JUMPDEST DUP1 PUSH4 0x15594B8 EQ PUSH2 0x145 JUMPI DUP1 PUSH4 0x155DD5EE EQ PUSH2 0x174 JUMPI DUP1 PUSH4 0x22473385 EQ PUSH2 0x194 JUMPI DUP1 PUSH4 0x2896DE13 EQ PUSH2 0x1B8 JUMPI DUP1 PUSH4 0x2D16D25B EQ PUSH2 0x1DA JUMPI PUSH1 0x0 DUP1 REVERT JUMPDEST CALLDATASIZE PUSH2 0x140 JUMPI STOP JUMPDEST PUSH1 0x0 DUP1 REVERT JUMPDEST CALLVALUE DUP1 ISZERO PUSH2 0x151 JUMPI PUSH1 0x0 DUP1 REVERT JUMPDEST POP PUSH1 0xA SLOAD PUSH2 0x15F SWAP1 PUSH1 0xFF AND DUP2 JUMP JUMPDEST PUSH1 0x40 MLOAD SWAP1 ISZERO ISZERO DUP2 MSTORE PUSH1 0x20 ADD JUMPDEST PUSH1 0x40 MLOAD DUP1 SWAP2 SUB SWAP1 RETURN JUMPDEST CALLVALUE DUP1 ISZERO PUSH2 0x180 JUMPI PUSH1 0x0 DUP1 REVERT JUMPDEST POP PUSH2 0x15F PUSH2 0x18F CALLDATASIZE PUSH1 0x4 PUSH2 0xF13 JUMP JUMPDEST PUSH2 0x3D3 JUMP JUMPDEST CALLVALUE DUP1 ISZERO PUSH2 0x1A0 JUMPI PUSH1 0x0 DUP1 REVERT JUMPDEST POP PUSH2 0x1AA PUSH1 0x8 SLOAD DUP2 JUMP JUMPDEST PUSH1 0x40 MLOAD SWAP1 DUP2 MSTORE PUSH1 0x20 ADD PUSH2 0x16B JUMP JUMPDEST CALLVALUE DUP1 ISZERO PUSH2 0x1C4 JUMPI PUSH1 0x0 DUP1 REVERT JUMPDEST POP PUSH2 0x1CD PUSH2 0x4A2 JUMP JUMPDEST PUSH1 0x40 MLOAD PUSH2 0x16B SWAP2 SWAP1 PUSH2 0xF7C JUMP JUMPDEST CALLVALUE DUP1 ISZERO PUSH2 0x1E6 JUMPI PUSH1 0x0 DUP1 REVERT JUMPDEST POP PUSH2 0x15F PUSH2 0x4C2 JUMP JUMPDEST CALLVALUE DUP1 ISZERO PUSH2 0x1FB JUMPI PUSH1 0x0 DUP1 REVERT JUMPDEST POP PUSH2 0x1AA PUSH1 0x5 SLOAD DUP2 JUMP JUMPDEST CALLVALUE DUP1 ISZERO PUSH2 0x211 JUMPI PUSH1 0x0 DUP1 REVERT JUMPDEST POP PUSH2 0x225 PUSH2 0x220 CALLDATASIZE PUSH1 0x4 PUSH2 0xF13 JUMP JUMPDEST PUSH2 0x519 JUMP JUMPDEST STOP JUMPDEST PUSH2 0x1AA PUSH2 0x235 CALLDATASIZE PUSH1 0x4 PUSH2 0x102F JUMP JUMPDEST PUSH2 0x5B6 JUMP JUMPDEST CALLVALUE DUP1 ISZERO PUSH2 0x246 JUMPI PUSH1 0x0 DUP1 REVERT JUMPDEST POP PUSH2 0x15F PUSH2 0x255 CALLDATASIZE PUSH1 0x4 PUSH2 0x110B JUMP JUMPDEST PUSH2 0x5F4 JUMP JUMPDEST CALLVALUE DUP1 ISZERO PUSH2 0x266 JUMPI PUSH1 0x0 DUP1 REVERT JUMPDEST POP PUSH2 0x1AA PUSH1 0x6 SLOAD DUP2 JUMP JUMPDEST CALLVALUE DUP1 ISZERO PUSH2 0x27C JUMPI PUSH1 0x0 DUP1 REVERT JUMPDEST POP PUSH2 0x1CD PUSH2 0x9AC JUMP JUMPDEST CALLVALUE DUP1 ISZERO PUSH2 0x291 JUMPI PUSH1 0x0 DUP1 REVERT JUMPDEST POP PUSH2 0x2A5 PUSH2 0x2A0 CALLDATASIZE PUSH1 0x4 PUSH2 0xF13 JUMP JUMPDEST PUSH2 0xA3A JUMP JUMPDEST PUSH1 0x40 DUP1 MLOAD SWAP4 DUP5 MSTORE PUSH1 0x20 DUP5 ADD SWAP3 SWAP1 SWAP3 MSTORE SWAP1 DUP3 ADD MSTORE PUSH1 0x60 ADD PUSH2 0x16B JUMP JUMPDEST CALLVALUE DUP1 ISZERO PUSH2 0x2CC JUMPI PUSH1 0x0 DUP1 REVERT JUMPDEST POP PUSH2 0x1CD PUSH2 0xA6D JUMP JUMPDEST CALLVALUE DUP1 ISZERO PUSH2 0x2E1 JUMPI PUSH1 0x0 DUP1 REVERT JUMPDEST POP PUSH1 0x0 SLOAD PUSH1 0x1 PUSH1 0x1 PUSH1 0xA0 SHL SUB AND JUMPDEST PUSH1 0x40 MLOAD PUSH1 0x1 PUSH1 0x1 PUSH1 0xA0 SHL SUB SWAP1 SWAP2 AND DUP2 MSTORE PUSH1 0x20 ADD PUSH2 0x16B JUMP JUMPDEST CALLVALUE DUP1 ISZERO PUSH2 0x313 JUMPI PUSH1 0x0 DUP1 REVERT JUMPDEST POP PUSH1 0x0 SLOAD PUSH1 0x1 PUSH1 0x1 PUSH1 0xA0 SHL SUB AND CALLER EQ PUSH2 0x15F JUMP JUMPDEST CALLVALUE DUP1 ISZERO PUSH2 0x333 JUMPI PUSH1 0x0 DUP1 REVERT JUMPDEST POP PUSH2 0x1CD PUSH2 0x342 CALLDATASIZE PUSH1 0x4 PUSH2 0x1157 JUMP JUMPDEST PUSH2 0xA8D JUMP JUMPDEST CALLVALUE DUP1 ISZERO PUSH2 0x353 JUMPI PUSH1 0x0 DUP1 REVERT JUMPDEST POP PUSH2 0x1AA PUSH1 0x9 SLOAD DUP2 JUMP JUMPDEST CALLVALUE DUP1 ISZERO PUSH2 0x369 JUMPI PUSH1 0x0 DUP1 REVERT JUMPDEST POP PUSH1 0x1 SLOAD PUSH2 0x2EF SWAP1 PUSH1 0x1 PUSH1 0x1 PUSH1 0xA0 SHL SUB AND DUP2 JUMP JUMPDEST CALLVALUE DUP1 ISZERO PUSH2 0x389 JUMPI PUSH1 0x0 DUP1 REVERT JUMPDEST POP PUSH2 0x15F PUSH2 0x398 CALLDATASIZE PUSH1 0x4 PUSH2 0x1199 JUMP JUMPDEST PUSH2 0xACF JUMP JUMPDEST CALLVALUE DUP1 ISZERO PUSH2 0x3A9 JUMPI PUSH1 0x0 DUP1 REVERT JUMPDEST POP PUSH2 0x225 PUSH2 0x3B8 CALLDATASIZE PUSH1 0x4 PUSH2 0x1157 JUMP JUMPDEST PUSH2 0xB6B JUMP JUMPDEST CALLVALUE DUP1 ISZERO PUSH2 0x3C9 JUMPI PUSH1 0x0 DUP1 REVERT JUMPDEST POP PUSH2 0x1AA PUSH1 0x7 SLOAD DUP2 JUMP JUMPDEST PUSH1 0x0 DUP1 SLOAD PUSH1 0x1 PUSH1 0x1 PUSH1 0xA0 SHL SUB AND CALLER EQ PUSH2 0x407 JUMPI PUSH1 0x40 MLOAD PUSH3 0x461BCD PUSH1 0xE5 SHL DUP2 MSTORE PUSH1 0x4 ADD PUSH2 0x3FE SWAP1 PUSH2 0x1205 JUMP JUMPDEST PUSH1 0x40 MLOAD DUP1 SWAP2 SUB SWAP1 REVERT JUMPDEST DUP2 SELFBALANCE LT ISZERO PUSH2 0x44C JUMPI PUSH1 0x40 MLOAD PUSH3 0x461BCD PUSH1 0xE5 SHL DUP2 MSTORE PUSH1 0x20 PUSH1 0x4 DUP3 ADD MSTORE PUSH1 0x12 PUSH1 0x24 DUP3 ADD MSTORE PUSH18 0x496E73756666696369656E742066756E6473 PUSH1 0x70 SHL PUSH1 0x44 DUP3 ADD MSTORE PUSH1 0x64 ADD PUSH2 0x3FE JUMP JUMPDEST PUSH1 0x40 MLOAD CALLER SWAP1 PUSH1 0x0 SWAP1 DUP3 SWAP1 DUP6 SWAP1 DUP4 DUP2 DUP2 DUP2 DUP6 DUP8 GAS CALL SWAP3 POP POP POP RETURNDATASIZE DUP1 PUSH1 0x0 DUP2 EQ PUSH2 0x490 JUMPI PUSH1 0x40 MLOAD SWAP2 POP PUSH1 0x1F NOT PUSH1 0x3F RETURNDATASIZE ADD AND DUP3 ADD PUSH1 0x40 MSTORE RETURNDATASIZE DUP3 MSTORE RETURNDATASIZE PUSH1 0x0 PUSH1 0x20 DUP5 ADD RETURNDATACOPY PUSH2 0x495 JUMP JUMPDEST PUSH1 0x60 SWAP2 POP JUMPDEST POP SWAP1 SWAP4 POP POP POP POP JUMPDEST SWAP2 SWAP1 POP JUMP JUMPDEST PUSH1 0x60 PUSH1 0x40 MLOAD DUP1 PUSH1 0x80 ADD PUSH1 0x40 MSTORE DUP1 PUSH1 0x4F DUP2 MSTORE PUSH1 0x20 ADD PUSH2 0x15FF PUSH1 0x4F SWAP2 CODECOPY SWAP1 POP SWAP1 JUMP JUMPDEST PUSH1 0x0 DUP1 SLOAD PUSH1 0x1 PUSH1 0x1 PUSH1 0xA0 SHL SUB AND CALLER EQ PUSH2 0x4ED JUMPI PUSH1 0x40 MLOAD PUSH3 0x461BCD PUSH1 0xE5 SHL DUP2 MSTORE PUSH1 0x4 ADD PUSH2 0x3FE SWAP1 PUSH2 0x1205 JUMP JUMPDEST PUSH1 0xA SLOAD PUSH1 0xFF AND PUSH2 0x4FE JUMPI PUSH1 0x1 PUSH2 0x501 JUMP JUMPDEST PUSH1 0x0 JUMPDEST PUSH1 0xA DUP1 SLOAD PUSH1 0xFF NOT AND SWAP2 ISZERO ISZERO SWAP2 DUP3 OR SWAP1 SSTORE PUSH1 0xFF AND SWAP2 SWAP1 POP JUMP JUMPDEST PUSH1 0x0 SLOAD PUSH1 0x1 PUSH1 0x1 PUSH1 0xA0 SHL SUB AND CALLER EQ PUSH2 0x543 JUMPI PUSH1 0x40 MLOAD PUSH3 0x461BCD PUSH1 0xE5 SHL DUP2 MSTORE PUSH1 0x4 ADD PUSH2 0x3FE SWAP1 PUSH2 0x1205 JUMP JUMPDEST PUSH1 0x1 SLOAD PUSH1 0x40 MLOAD PUSH4 0xC054E53 PUSH1 0xE2 SHL DUP2 MSTORE PUSH1 0x4 DUP2 ADD DUP4 SWAP1 MSTORE PUSH1 0x1 PUSH1 0x1 PUSH1 0xA0 SHL SUB SWAP1 SWAP2 AND SWAP1 PUSH4 0x3015394C SWAP1 PUSH1 0x24 ADD PUSH1 0x20 PUSH1 0x40 MLOAD DUP1 DUP4 SUB DUP2 PUSH1 0x0 DUP8 GAS CALL ISZERO DUP1 ISZERO PUSH2 0x58E JUMPI RETURNDATASIZE PUSH1 0x0 DUP1 RETURNDATACOPY RETURNDATASIZE PUSH1 0x0 REVERT JUMPDEST POP POP POP POP PUSH1 0x40 MLOAD RETURNDATASIZE PUSH1 0x1F NOT PUSH1 0x1F DUP3 ADD AND DUP3 ADD DUP1 PUSH1 0x40 MSTORE POP DUP2 ADD SWAP1 PUSH2 0x5B2 SWAP2 SWAP1 PUSH2 0x125A JUMP JUMPDEST POP POP JUMP JUMPDEST PUSH1 0x0 DUP1 SLOAD PUSH1 0x1 PUSH1 0x1 PUSH1 0xA0 SHL SUB AND CALLER EQ PUSH2 0x5E1 JUMPI PUSH1 0x40 MLOAD PUSH3 0x461BCD PUSH1 0xE5 SHL DUP2 MSTORE PUSH1 0x4 ADD PUSH2 0x3FE SWAP1 PUSH2 0x1205 JUMP JUMPDEST PUSH2 0x5EC DUP5 DUP5 DUP5 PUSH2 0xDF7 JUMP JUMPDEST SWAP5 SWAP4 POP POP POP POP JUMP JUMPDEST PUSH1 0x0 DUP4 DUP2 MSTORE PUSH1 0x2 PUSH1 0x20 MSTORE PUSH1 0x40 DUP2 KECCAK256 SLOAD PUSH1 0xFF AND ISZERO ISZERO PUSH1 0x1 EQ PUSH2 0x67D JUMPI PUSH1 0x40 MLOAD PUSH3 0x461BCD PUSH1 0xE5 SHL DUP2 MSTORE PUSH1 0x20 PUSH1 0x4 DUP3 ADD MSTORE PUSH1 0x3F PUSH1 0x24 DUP3 ADD MSTORE PUSH32 0x5468697320494420646F6573206E6F742062656C6F6E6720746F20616E206163 PUSH1 0x44 DUP3 ADD MSTORE PUSH32 0x7469766520726571756573742077697468696E207468697320636C69656E7400 PUSH1 0x64 DUP3 ADD MSTORE PUSH1 0x84 ADD PUSH2 0x3FE JUMP JUMPDEST PUSH1 0x1 SLOAD PUSH1 0x40 MLOAD PUSH4 0xC58343EF PUSH1 0xE0 SHL DUP2 MSTORE PUSH1 0x4 DUP2 ADD DUP7 SWAP1 MSTORE PUSH1 0x0 SWAP2 PUSH1 0x1 PUSH1 0x1 PUSH1 0xA0 SHL SUB AND SWAP1 PUSH4 0xC58343EF SWAP1 PUSH1 0x24 ADD PUSH1 0x0 PUSH1 0x40 MLOAD DUP1 DUP4 SUB DUP2 DUP7 GAS STATICCALL ISZERO DUP1 ISZERO PUSH2 0x6C7 JUMPI RETURNDATASIZE PUSH1 0x0 DUP1 RETURNDATACOPY RETURNDATASIZE PUSH1 0x0 REVERT JUMPDEST POP POP POP POP PUSH1 0x40 MLOAD RETURNDATASIZE PUSH1 0x0 DUP3 RETURNDATACOPY PUSH1 0x1F RETURNDATASIZE SWAP1 DUP2 ADD PUSH1 0x1F NOT AND DUP3 ADD PUSH1 0x40 MSTORE PUSH2 0x6EF SWAP2 SWAP1 DUP2 ADD SWAP1 PUSH2 0x12D1 JUMP JUMPDEST PUSH1 0xA0 DUP2 ADD MLOAD SWAP1 SWAP2 POP PUSH1 0x1 PUSH1 0x1 PUSH1 0xA0 SHL SUB AND PUSH2 0x758 JUMPI PUSH1 0x40 MLOAD PUSH3 0x461BCD PUSH1 0xE5 SHL DUP2 MSTORE PUSH1 0x20 PUSH1 0x4 DUP3 ADD MSTORE PUSH1 0x24 DUP1 DUP3 ADD MSTORE PUSH32 0x596F75206E65656420746F206163636570742074686520726571756573742066 PUSH1 0x44 DUP3 ADD MSTORE PUSH4 0x1A5C9CDD PUSH1 0xE2 SHL PUSH1 0x64 DUP3 ADD MSTORE PUSH1 0x84 ADD PUSH2 0x3FE JUMP JUMPDEST PUSH2 0x100 DUP2 ADD MLOAD ISZERO PUSH2 0x7AB JUMPI PUSH1 0x40 MLOAD PUSH3 0x461BCD PUSH1 0xE5 SHL DUP2 MSTORE PUSH1 0x20 PUSH1 0x4 DUP3 ADD MSTORE PUSH1 0x1D PUSH1 0x24 DUP3 ADD MSTORE PUSH32 0x546865207265717565737420697320616C726561647920636C6F736564000000 PUSH1 0x44 DUP3 ADD MSTORE PUSH1 0x64 ADD PUSH2 0x3FE JUMP JUMPDEST PUSH1 0xA0 DUP2 ADD MLOAD PUSH1 0x1 PUSH1 0x1 PUSH1 0xA0 SHL SUB AND CALLER EQ PUSH2 0x815 JUMPI PUSH1 0x40 MLOAD PUSH3 0x461BCD PUSH1 0xE5 SHL DUP2 MSTORE PUSH1 0x20 PUSH1 0x4 DUP3 ADD MSTORE PUSH1 0x25 PUSH1 0x24 DUP3 ADD MSTORE PUSH32 0x536F6D656F6E6520656C73652068617320616363657074656420746865205265 PUSH1 0x44 DUP3 ADD MSTORE PUSH5 0x1C5D595CDD PUSH1 0xDA SHL PUSH1 0x64 DUP3 ADD MSTORE PUSH1 0x84 ADD PUSH2 0x3FE JUMP JUMPDEST PUSH1 0x1 SLOAD PUSH1 0x40 MLOAD PUSH4 0x24C3AED9 PUSH1 0xE1 SHL DUP2 MSTORE PUSH1 0x0 SWAP2 PUSH1 0x1 PUSH1 0x1 PUSH1 0xA0 SHL SUB AND SWAP1 PUSH4 0x49875DB2 SWAP1 PUSH2 0x84A SWAP1 DUP10 SWAP1 DUP10 SWAP1 DUP10 SWAP1 PUSH1 0x4 ADD PUSH2 0x13EC JUMP JUMPDEST PUSH1 0x20 PUSH1 0x40 MLOAD DUP1 DUP4 SUB DUP2 PUSH1 0x0 DUP8 GAS CALL ISZERO DUP1 ISZERO PUSH2 0x869 JUMPI RETURNDATASIZE PUSH1 0x0 DUP1 RETURNDATACOPY RETURNDATASIZE PUSH1 0x0 REVERT JUMPDEST POP POP POP POP PUSH1 0x40 MLOAD RETURNDATASIZE PUSH1 0x1F NOT PUSH1 0x1F DUP3 ADD AND DUP3 ADD DUP1 PUSH1 0x40 MSTORE POP DUP2 ADD SWAP1 PUSH2 0x88D SWAP2 SWAP1 PUSH2 0x125A JUMP JUMPDEST SWAP1 POP DUP1 ISZERO PUSH2 0x9A3 JUMPI PUSH1 0x0 DUP7 DUP2 MSTORE PUSH1 0x2 PUSH1 0x20 MSTORE PUSH1 0x40 DUP1 DUP3 KECCAK256 DUP1 SLOAD PUSH1 0xFF NOT AND SWAP1 SSTORE MLOAD PUSH4 0xCB392747 PUSH1 0xE0 SHL SWAP1 PUSH2 0x8C6 SWAP1 DUP9 SWAP1 DUP9 SWAP1 PUSH1 0x24 ADD PUSH2 0x1406 JUMP JUMPDEST PUSH1 0x40 MLOAD PUSH1 0x20 DUP2 DUP4 SUB SUB DUP2 MSTORE SWAP1 PUSH1 0x40 MSTORE SWAP1 PUSH1 0x1 PUSH1 0x1 PUSH1 0xE0 SHL SUB NOT AND PUSH1 0x20 DUP3 ADD DUP1 MLOAD PUSH1 0x1 PUSH1 0x1 PUSH1 0xE0 SHL SUB DUP4 DUP2 DUP4 AND OR DUP4 MSTORE POP POP POP POP SWAP1 POP PUSH1 0x0 DUP4 PUSH1 0x80 ADD MLOAD PUSH1 0x1 PUSH1 0x1 PUSH1 0xA0 SHL SUB AND DUP5 PUSH1 0x60 ADD MLOAD DUP4 PUSH1 0x40 MLOAD PUSH2 0x91E SWAP2 SWAP1 PUSH2 0x141A JUMP JUMPDEST PUSH1 0x0 PUSH1 0x40 MLOAD DUP1 DUP4 SUB DUP2 PUSH1 0x0 DUP8 DUP8 CALL SWAP3 POP POP POP RETURNDATASIZE DUP1 PUSH1 0x0 DUP2 EQ PUSH2 0x95C JUMPI PUSH1 0x40 MLOAD SWAP2 POP PUSH1 0x1F NOT PUSH1 0x3F RETURNDATASIZE ADD AND DUP3 ADD PUSH1 0x40 MSTORE RETURNDATASIZE DUP3 MSTORE RETURNDATASIZE PUSH1 0x0 PUSH1 0x20 DUP5 ADD RETURNDATACOPY PUSH2 0x961 JUMP JUMPDEST PUSH1 0x60 SWAP2 POP JUMPDEST POP POP PUSH1 0x40 DUP1 MLOAD DUP11 DUP2 MSTORE DUP3 ISZERO ISZERO PUSH1 0x20 DUP3 ADD MSTORE SWAP2 SWAP3 POP PUSH32 0xA531C8F4BBF2A18049D85528BB5AAAE66874AF94BCB325738EE729A2B6CF8428 SWAP2 ADD PUSH1 0x40 MLOAD DUP1 SWAP2 SUB SWAP1 LOG1 POP POP JUMPDEST SWAP6 SWAP5 POP POP POP POP POP JUMP JUMPDEST PUSH1 0x3 DUP1 SLOAD PUSH2 0x9B9 SWAP1 PUSH2 0x1436 JUMP JUMPDEST DUP1 PUSH1 0x1F ADD PUSH1 0x20 DUP1 SWAP2 DIV MUL PUSH1 0x20 ADD PUSH1 0x40 MLOAD SWAP1 DUP2 ADD PUSH1 0x40 MSTORE DUP1 SWAP3 SWAP2 SWAP1 DUP2 DUP2 MSTORE PUSH1 0x20 ADD DUP3 DUP1 SLOAD PUSH2 0x9E5 SWAP1 PUSH2 0x1436 JUMP JUMPDEST DUP1 ISZERO PUSH2 0xA32 JUMPI DUP1 PUSH1 0x1F LT PUSH2 0xA07 JUMPI PUSH2 0x100 DUP1 DUP4 SLOAD DIV MUL DUP4 MSTORE SWAP2 PUSH1 0x20 ADD SWAP2 PUSH2 0xA32 JUMP JUMPDEST DUP3 ADD SWAP2 SWAP1 PUSH1 0x0 MSTORE PUSH1 0x20 PUSH1 0x0 KECCAK256 SWAP1 JUMPDEST DUP2 SLOAD DUP2 MSTORE SWAP1 PUSH1 0x1 ADD SWAP1 PUSH1 0x20 ADD DUP1 DUP4 GT PUSH2 0xA15 JUMPI DUP3 SWAP1 SUB PUSH1 0x1F AND DUP3 ADD SWAP2 JUMPDEST POP POP POP POP POP DUP2 JUMP JUMPDEST PUSH1 0x4 DUP2 DUP2 SLOAD DUP2 LT PUSH2 0xA4A JUMPI PUSH1 0x0 DUP1 REVERT JUMPDEST PUSH1 0x0 SWAP2 DUP3 MSTORE PUSH1 0x20 SWAP1 SWAP2 KECCAK256 PUSH1 0x3 SWAP1 SWAP2 MUL ADD DUP1 SLOAD PUSH1 0x1 DUP3 ADD SLOAD PUSH1 0x2 SWAP1 SWAP3 ADD SLOAD SWAP1 SWAP3 POP DUP4 JUMP JUMPDEST PUSH1 0x60 PUSH1 0x40 MLOAD DUP1 PUSH1 0x60 ADD PUSH1 0x40 MSTORE DUP1 PUSH1 0x3F DUP2 MSTORE PUSH1 0x20 ADD PUSH2 0x15C0 PUSH1 0x3F SWAP2 CODECOPY SWAP1 POP SWAP1 JUMP JUMPDEST PUSH1 0x60 DUP3 DUP3 DUP1 DUP1 PUSH1 0x1F ADD PUSH1 0x20 DUP1 SWAP2 DIV MUL PUSH1 0x20 ADD PUSH1 0x40 MLOAD SWAP1 DUP2 ADD PUSH1 0x40 MSTORE DUP1 SWAP4 SWAP3 SWAP2 SWAP1 DUP2 DUP2 MSTORE PUSH1 0x20 ADD DUP4 DUP4 DUP1 DUP3 DUP5 CALLDATACOPY PUSH1 0x0 SWAP3 ADD SWAP2 SWAP1 SWAP2 MSTORE POP SWAP3 SWAP4 POP POP POP POP JUMPDEST SWAP3 SWAP2 POP POP JUMP JUMPDEST PUSH1 0x0 DUP1 PUSH2 0xADE DUP6 DUP8 ADD DUP8 PUSH2 0x1470 JUMP JUMPDEST SWAP1 POP PUSH1 0x0 PUSH2 0xAEE DUP5 DUP7 ADD DUP7 PUSH2 0x14D6 JUMP JUMPDEST SWAP1 POP DUP1 PUSH1 0x20 ADD MLOAD DUP3 PUSH1 0x60 ADD MLOAD EQ DUP1 ISZERO PUSH2 0xB0B JUMPI POP DUP1 PUSH1 0x20 ADD MLOAD TIMESTAMP LT ISZERO JUMPDEST DUP1 ISZERO PUSH2 0xB18 JUMPI POP DUP1 MLOAD DUP3 MLOAD EQ JUMPDEST DUP1 ISZERO PUSH2 0xB60 JUMPI POP DUP2 PUSH1 0x20 ADD MLOAD DUP2 PUSH1 0x40 ADD MLOAD DUP4 PUSH1 0x40 ADD MLOAD PUSH1 0x40 MLOAD PUSH1 0x20 ADD PUSH2 0xB48 SWAP3 SWAP2 SWAP1 SWAP2 DUP3 MSTORE PUSH1 0x20 DUP3 ADD MSTORE PUSH1 0x40 ADD SWAP1 JUMP JUMPDEST PUSH1 0x40 MLOAD PUSH1 0x20 DUP2 DUP4 SUB SUB DUP2 MSTORE SWAP1 PUSH1 0x40 MSTORE DUP1 MLOAD SWAP1 PUSH1 0x20 ADD KECCAK256 EQ JUMPDEST SWAP8 SWAP7 POP POP POP POP POP POP POP JUMP JUMPDEST CALLER ADDRESS EQ PUSH2 0xBD2 JUMPI PUSH1 0x40 MLOAD PUSH3 0x461BCD PUSH1 0xE5 SHL DUP2 MSTORE PUSH1 0x20 PUSH1 0x4 DUP3 ADD MSTORE PUSH1 0x2F PUSH1 0x24 DUP3 ADD MSTORE PUSH32 0x46756E6374696F6E2061636365737369626C65206F6E6C792062792074686520 PUSH1 0x44 DUP3 ADD MSTORE PUSH15 0x31B7B73A3930B1BA1034BA39B2B633 PUSH1 0x89 SHL PUSH1 0x64 DUP3 ADD MSTORE PUSH1 0x84 ADD PUSH2 0x3FE JUMP JUMPDEST PUSH1 0x0 PUSH2 0xBE0 DUP3 DUP5 ADD DUP5 PUSH2 0x14D6 JUMP JUMPDEST SWAP1 POP DUP1 PUSH1 0x40 ADD MLOAD PUSH1 0x4 DUP3 PUSH1 0x0 ADD MLOAD DUP2 SLOAD DUP2 LT PUSH2 0xBFE JUMPI PUSH2 0xBFE PUSH2 0x1532 JUMP JUMPDEST PUSH1 0x0 SWAP2 DUP3 MSTORE PUSH1 0x20 SWAP1 SWAP2 KECCAK256 PUSH1 0x2 PUSH1 0x3 SWAP1 SWAP3 MUL ADD ADD SSTORE PUSH1 0x4 SLOAD PUSH2 0xC21 SWAP1 PUSH1 0x1 SWAP1 PUSH2 0x155E JUMP JUMPDEST DUP2 MLOAD SUB PUSH2 0xC86 JUMPI DUP1 PUSH1 0x40 ADD MLOAD PUSH1 0x40 MLOAD PUSH1 0x20 ADD PUSH2 0xC3F SWAP2 DUP2 MSTORE PUSH1 0x20 ADD SWAP1 JUMP JUMPDEST PUSH1 0x40 DUP1 MLOAD PUSH1 0x1F NOT DUP2 DUP5 SUB ADD DUP2 MSTORE SWAP1 DUP3 SWAP1 MSTORE DUP1 MLOAD PUSH1 0x20 SWAP1 SWAP2 ADD KECCAK256 PUSH1 0x5 SSTORE PUSH32 0x3523C39EB1A9C40E6A7C7504001CA3D223A7675DC8634B5AA1B056124B87CD36 SWAP1 PUSH1 0x0 SWAP1 LOG1 POP POP POP JUMP JUMPDEST DUP1 PUSH1 0x40 ADD MLOAD PUSH1 0x40 MLOAD PUSH1 0x20 ADD PUSH2 0xC9D SWAP2 DUP2 MSTORE PUSH1 0x20 ADD SWAP1 JUMP JUMPDEST PUSH1 0x40 MLOAD PUSH1 0x20 DUP2 DUP4 SUB SUB DUP2 MSTORE SWAP1 PUSH1 0x40 MSTORE DUP1 MLOAD SWAP1 PUSH1 0x20 ADD KECCAK256 PUSH1 0x4 DUP3 PUSH1 0x0 ADD MLOAD PUSH1 0x1 PUSH2 0xCC6 SWAP2 SWAP1 PUSH2 0x1571 JUMP JUMPDEST DUP2 SLOAD DUP2 LT PUSH2 0xCD6 JUMPI PUSH2 0xCD6 PUSH2 0x1532 JUMP JUMPDEST PUSH1 0x0 SWAP2 DUP3 MSTORE PUSH1 0x20 SWAP1 SWAP2 KECCAK256 PUSH1 0x1 PUSH1 0x3 SWAP1 SWAP3 MUL ADD ADD SSTORE PUSH1 0xA SLOAD PUSH1 0xFF AND ISZERO PUSH2 0xDF2 JUMPI PUSH1 0x0 PUSH1 0x40 MLOAD DUP1 PUSH1 0x80 ADD PUSH1 0x40 MSTORE DUP1 DUP4 PUSH1 0x0 ADD MLOAD PUSH1 0x1 PUSH2 0xD13 SWAP2 SWAP1 PUSH2 0x1571 JUMP JUMPDEST DUP2 MSTORE PUSH1 0x20 ADD PUSH1 0x4 DUP5 PUSH1 0x0 ADD MLOAD PUSH1 0x1 PUSH2 0xD2B SWAP2 SWAP1 PUSH2 0x1571 JUMP JUMPDEST DUP2 SLOAD DUP2 LT PUSH2 0xD3B JUMPI PUSH2 0xD3B PUSH2 0x1532 JUMP JUMPDEST SWAP1 PUSH1 0x0 MSTORE PUSH1 0x20 PUSH1 0x0 KECCAK256 SWAP1 PUSH1 0x3 MUL ADD PUSH1 0x0 ADD SLOAD DUP2 MSTORE PUSH1 0x20 ADD PUSH1 0x4 DUP5 PUSH1 0x0 ADD MLOAD PUSH1 0x1 PUSH2 0xD65 SWAP2 SWAP1 PUSH2 0x1571 JUMP JUMPDEST DUP2 SLOAD DUP2 LT PUSH2 0xD75 JUMPI PUSH2 0xD75 PUSH2 0x1532 JUMP JUMPDEST SWAP1 PUSH1 0x0 MSTORE PUSH1 0x20 PUSH1 0x0 KECCAK256 SWAP1 PUSH1 0x3 MUL ADD PUSH1 0x1 ADD SLOAD DUP2 MSTORE PUSH1 0x20 ADD PUSH1 0x9 SLOAD DUP5 PUSH1 0x20 ADD MLOAD PUSH2 0xD9E SWAP2 SWAP1 PUSH2 0x1571 JUMP JUMPDEST SWAP1 MSTORE PUSH1 0x7 SLOAD PUSH1 0x40 DUP1 MLOAD DUP4 MLOAD PUSH1 0x20 DUP1 DUP4 ADD SWAP2 SWAP1 SWAP2 MSTORE DUP5 ADD MLOAD DUP2 DUP4 ADD MSTORE SWAP1 DUP4 ADD MLOAD PUSH1 0x60 DUP1 DUP4 ADD SWAP2 SWAP1 SWAP2 MSTORE DUP4 ADD MLOAD PUSH1 0x80 DUP3 ADD MSTORE SWAP2 SWAP3 POP PUSH2 0xDEF SWAP2 PUSH1 0xA0 ADD PUSH1 0x40 MLOAD PUSH1 0x20 DUP2 DUP4 SUB SUB DUP2 MSTORE SWAP1 PUSH1 0x40 MSTORE PUSH1 0x8 SLOAD PUSH2 0xDF7 JUMP JUMPDEST POP POP JUMPDEST POP POP POP JUMP JUMPDEST PUSH1 0x0 SELFBALANCE DUP5 GT ISZERO PUSH2 0xE3E JUMPI PUSH1 0x40 MLOAD PUSH3 0x461BCD PUSH1 0xE5 SHL DUP2 MSTORE PUSH1 0x20 PUSH1 0x4 DUP3 ADD MSTORE PUSH1 0x12 PUSH1 0x24 DUP3 ADD MSTORE PUSH18 0x496E73756666696369656E742066756E6473 PUSH1 0x70 SHL PUSH1 0x44 DUP3 ADD MSTORE PUSH1 0x64 ADD PUSH2 0x3FE JUMP JUMPDEST PUSH1 0x1 SLOAD PUSH1 0x40 MLOAD PUSH4 0x78F8AF25 PUSH1 0xE1 SHL DUP2 MSTORE PUSH1 0x0 SWAP2 PUSH1 0x1 PUSH1 0x1 PUSH1 0xA0 SHL SUB AND SWAP1 PUSH4 0xF1F15E4A SWAP1 DUP8 SWAP1 PUSH2 0xE73 SWAP1 DUP9 SWAP1 DUP9 SWAP1 PUSH1 0x4 ADD PUSH2 0x1584 JUMP JUMPDEST PUSH1 0x20 PUSH1 0x40 MLOAD DUP1 DUP4 SUB DUP2 DUP6 DUP9 GAS CALL ISZERO DUP1 ISZERO PUSH2 0xE91 JUMPI RETURNDATASIZE PUSH1 0x0 DUP1 RETURNDATACOPY RETURNDATASIZE PUSH1 0x0 REVERT JUMPDEST POP POP POP POP POP PUSH1 0x40 MLOAD RETURNDATASIZE PUSH1 0x1F NOT PUSH1 0x1F DUP3 ADD AND DUP3 ADD DUP1 PUSH1 0x40 MSTORE POP DUP2 ADD SWAP1 PUSH2 0xEB6 SWAP2 SWAP1 PUSH2 0x15A6 JUMP JUMPDEST SWAP1 POP PUSH32 0xD3B0B0209035A5613265E8FB1F38873EA24C7C6189B128EEBE3689C03D13905C DUP2 PUSH1 0x40 MLOAD PUSH2 0xEE9 SWAP2 DUP2 MSTORE PUSH1 0x20 ADD SWAP1 JUMP JUMPDEST PUSH1 0x40 MLOAD DUP1 SWAP2 SUB SWAP1 LOG1 PUSH1 0x0 DUP2 DUP2 MSTORE PUSH1 0x2 PUSH1 0x20 MSTORE PUSH1 0x40 SWAP1 KECCAK256 DUP1 SLOAD PUSH1 0xFF NOT AND PUSH1 0x1 OR SWAP1 SSTORE SWAP1 POP SWAP4 SWAP3 POP POP POP JUMP JUMPDEST PUSH1 0x0 PUSH1 0x20 DUP3 DUP5 SUB SLT ISZERO PUSH2 0xF25 JUMPI PUSH1 0x0 DUP1 REVERT JUMPDEST POP CALLDATALOAD SWAP2 SWAP1 POP JUMP JUMPDEST PUSH1 0x0 JUMPDEST DUP4 DUP2 LT ISZERO PUSH2 0xF47 JUMPI DUP2 DUP2 ADD MLOAD DUP4 DUP3 ADD MSTORE PUSH1 0x20 ADD PUSH2 0xF2F JUMP JUMPDEST POP POP PUSH1 0x0 SWAP2 ADD MSTORE JUMP JUMPDEST PUSH1 0x0 DUP2 MLOAD DUP1 DUP5 MSTORE PUSH2 0xF68 DUP2 PUSH1 0x20 DUP7 ADD PUSH1 0x20 DUP7 ADD PUSH2 0xF2C JUMP JUMPDEST PUSH1 0x1F ADD PUSH1 0x1F NOT AND SWAP3 SWAP1 SWAP3 ADD PUSH1 0x20 ADD SWAP3 SWAP2 POP POP JUMP JUMPDEST PUSH1 0x20 DUP2 MSTORE PUSH1 0x0 PUSH2 0xF8F PUSH1 0x20 DUP4 ADD DUP5 PUSH2 0xF50 JUMP JUMPDEST SWAP4 SWAP3 POP POP POP JUMP JUMPDEST PUSH4 0x4E487B71 PUSH1 0xE0 SHL PUSH1 0x0 MSTORE PUSH1 0x41 PUSH1 0x4 MSTORE PUSH1 0x24 PUSH1 0x0 REVERT JUMPDEST PUSH1 0x40 MLOAD PUSH2 0x120 DUP2 ADD PUSH8 0xFFFFFFFFFFFFFFFF DUP2 GT DUP3 DUP3 LT OR ISZERO PUSH2 0xFD0 JUMPI PUSH2 0xFD0 PUSH2 0xF96 JUMP JUMPDEST PUSH1 0x40 MSTORE SWAP1 JUMP JUMPDEST PUSH1 0x40 MLOAD PUSH1 0x1F DUP3 ADD PUSH1 0x1F NOT AND DUP2 ADD PUSH8 0xFFFFFFFFFFFFFFFF DUP2 GT DUP3 DUP3 LT OR ISZERO PUSH2 0xFFF JUMPI PUSH2 0xFFF PUSH2 0xF96 JUMP JUMPDEST PUSH1 0x40 MSTORE SWAP2 SWAP1 POP JUMP JUMPDEST PUSH1 0x0 PUSH8 0xFFFFFFFFFFFFFFFF DUP3 GT ISZERO PUSH2 0x1021 JUMPI PUSH2 0x1021 PUSH2 0xF96 JUMP JUMPDEST POP PUSH1 0x1F ADD PUSH1 0x1F NOT AND PUSH1 0x20 ADD SWAP1 JUMP JUMPDEST PUSH1 0x0 DUP1 PUSH1 0x0 PUSH1 0x60 DUP5 DUP7 SUB SLT ISZERO PUSH2 0x1044 JUMPI PUSH1 0x0 DUP1 REVERT JUMPDEST DUP4 CALLDATALOAD SWAP3 POP PUSH1 0x20 DUP5 ADD CALLDATALOAD PUSH8 0xFFFFFFFFFFFFFFFF DUP2 GT ISZERO PUSH2 0x1062 JUMPI PUSH1 0x0 DUP1 REVERT JUMPDEST DUP5 ADD PUSH1 0x1F DUP2 ADD DUP7 SGT PUSH2 0x1073 JUMPI PUSH1 0x0 DUP1 REVERT JUMPDEST DUP1 CALLDATALOAD PUSH2 0x1086 PUSH2 0x1081 DUP3 PUSH2 0x1007 JUMP JUMPDEST PUSH2 0xFD6 JUMP JUMPDEST DUP2 DUP2 MSTORE DUP8 PUSH1 0x20 DUP4 DUP6 ADD ADD GT ISZERO PUSH2 0x109B JUMPI PUSH1 0x0 DUP1 REVERT JUMPDEST DUP2 PUSH1 0x20 DUP5 ADD PUSH1 0x20 DUP4 ADD CALLDATACOPY PUSH1 0x0 PUSH1 0x20 DUP4 DUP4 ADD ADD MSTORE DUP1 SWAP5 POP POP POP POP PUSH1 0x40 DUP5 ADD CALLDATALOAD SWAP1 POP SWAP3 POP SWAP3 POP SWAP3 JUMP JUMPDEST PUSH1 0x0 DUP1 DUP4 PUSH1 0x1F DUP5 ADD SLT PUSH2 0x10D4 JUMPI PUSH1 0x0 DUP1 REVERT JUMPDEST POP DUP2 CALLDATALOAD PUSH8 0xFFFFFFFFFFFFFFFF DUP2 GT ISZERO PUSH2 0x10EC JUMPI PUSH1 0x0 DUP1 REVERT JUMPDEST PUSH1 0x20 DUP4 ADD SWAP2 POP DUP4 PUSH1 0x20 DUP3 DUP6 ADD ADD GT ISZERO PUSH2 0x1104 JUMPI PUSH1 0x0 DUP1 REVERT JUMPDEST SWAP3 POP SWAP3 SWAP1 POP JUMP JUMPDEST PUSH1 0x0 DUP1 PUSH1 0x0 PUSH1 0x40 DUP5 DUP7 SUB SLT ISZERO PUSH2 0x1120 JUMPI PUSH1 0x0 DUP1 REVERT JUMPDEST DUP4 CALLDATALOAD SWAP3 POP PUSH1 0x20 DUP5 ADD CALLDATALOAD PUSH8 0xFFFFFFFFFFFFFFFF DUP2 GT ISZERO PUSH2 0x113E JUMPI PUSH1 0x0 DUP1 REVERT JUMPDEST PUSH2 0x114A DUP7 DUP3 DUP8 ADD PUSH2 0x10C2 JUMP JUMPDEST SWAP5 SWAP8 SWAP1 SWAP7 POP SWAP4 SWAP5 POP POP POP POP JUMP JUMPDEST PUSH1 0x0 DUP1 PUSH1 0x20 DUP4 DUP6 SUB SLT ISZERO PUSH2 0x116A JUMPI PUSH1 0x0 DUP1 REVERT JUMPDEST DUP3 CALLDATALOAD PUSH8 0xFFFFFFFFFFFFFFFF DUP2 GT ISZERO PUSH2 0x1181 JUMPI PUSH1 0x0 DUP1 REVERT JUMPDEST PUSH2 0x118D DUP6 DUP3 DUP7 ADD PUSH2 0x10C2 JUMP JUMPDEST SWAP1 SWAP7 SWAP1 SWAP6 POP SWAP4 POP POP POP POP JUMP JUMPDEST PUSH1 0x0 DUP1 PUSH1 0x0 DUP1 PUSH1 0x40 DUP6 DUP8 SUB SLT ISZERO PUSH2 0x11AF JUMPI PUSH1 0x0 DUP1 REVERT JUMPDEST DUP5 CALLDATALOAD PUSH8 0xFFFFFFFFFFFFFFFF DUP1 DUP3 GT ISZERO PUSH2 0x11C7 JUMPI PUSH1 0x0 DUP1 REVERT JUMPDEST PUSH2 0x11D3 DUP9 DUP4 DUP10 ADD PUSH2 0x10C2 JUMP JUMPDEST SWAP1 SWAP7 POP SWAP5 POP PUSH1 0x20 DUP8 ADD CALLDATALOAD SWAP2 POP DUP1 DUP3 GT ISZERO PUSH2 0x11EC JUMPI PUSH1 0x0 DUP1 REVERT JUMPDEST POP PUSH2 0x11F9 DUP8 DUP3 DUP9 ADD PUSH2 0x10C2 JUMP JUMPDEST SWAP6 SWAP9 SWAP5 SWAP8 POP SWAP6 POP POP POP POP JUMP JUMPDEST PUSH1 0x20 DUP1 DUP3 MSTORE PUSH1 0x25 SWAP1 DUP3 ADD MSTORE PUSH32 0x46756E6374696F6E2061636365737369626C65206F6E6C792062792074686520 PUSH1 0x40 DUP3 ADD MSTORE PUSH5 0x37BBB732B9 PUSH1 0xD9 SHL PUSH1 0x60 DUP3 ADD MSTORE PUSH1 0x80 ADD SWAP1 JUMP JUMPDEST DUP1 MLOAD DUP1 ISZERO ISZERO DUP2 EQ PUSH2 0x49D JUMPI PUSH1 0x0 DUP1 REVERT JUMPDEST PUSH1 0x0 PUSH1 0x20 DUP3 DUP5 SUB SLT ISZERO PUSH2 0x126C JUMPI PUSH1 0x0 DUP1 REVERT JUMPDEST PUSH2 0xF8F DUP3 PUSH2 0x124A JUMP JUMPDEST PUSH1 0x0 DUP3 PUSH1 0x1F DUP4 ADD SLT PUSH2 0x1286 JUMPI PUSH1 0x0 DUP1 REVERT JUMPDEST DUP2 MLOAD PUSH2 0x1294 PUSH2 0x1081 DUP3 PUSH2 0x1007 JUMP JUMPDEST DUP2 DUP2 MSTORE DUP5 PUSH1 0x20 DUP4 DUP7 ADD ADD GT ISZERO PUSH2 0x12A9 JUMPI PUSH1 0x0 DUP1 REVERT JUMPDEST PUSH2 0x5EC DUP3 PUSH1 0x20 DUP4 ADD PUSH1 0x20 DUP8 ADD PUSH2 0xF2C JUMP JUMPDEST DUP1 MLOAD PUSH1 0x1 PUSH1 0x1 PUSH1 0xA0 SHL SUB DUP2 AND DUP2 EQ PUSH2 0x49D JUMPI PUSH1 0x0 DUP1 REVERT JUMPDEST PUSH1 0x0 PUSH1 0x20 DUP3 DUP5 SUB SLT ISZERO PUSH2 0x12E3 JUMPI PUSH1 0x0 DUP1 REVERT JUMPDEST DUP2 MLOAD PUSH8 0xFFFFFFFFFFFFFFFF DUP1 DUP3 GT ISZERO PUSH2 0x12FB JUMPI PUSH1 0x0 DUP1 REVERT JUMPDEST SWAP1 DUP4 ADD SWAP1 PUSH2 0x120 DUP3 DUP7 SUB SLT ISZERO PUSH2 0x1310 JUMPI PUSH1 0x0 DUP1 REVERT JUMPDEST PUSH2 0x1318 PUSH2 0xFAC JUMP JUMPDEST DUP3 MLOAD DUP2 MSTORE PUSH1 0x20 DUP4 ADD MLOAD DUP3 DUP2 GT ISZERO PUSH2 0x132E JUMPI PUSH1 0x0 DUP1 REVERT JUMPDEST PUSH2 0x133A DUP8 DUP3 DUP7 ADD PUSH2 0x1275 JUMP JUMPDEST PUSH1 0x20 DUP4 ADD MSTORE POP PUSH1 0x40 DUP4 ADD MLOAD PUSH1 0x40 DUP3 ADD MSTORE PUSH1 0x60 DUP4 ADD MLOAD PUSH1 0x60 DUP3 ADD MSTORE PUSH2 0x1360 PUSH1 0x80 DUP5 ADD PUSH2 0x12BA JUMP JUMPDEST PUSH1 0x80 DUP3 ADD MSTORE PUSH2 0x1371 PUSH1 0xA0 DUP5 ADD PUSH2 0x12BA JUMP JUMPDEST PUSH1 0xA0 DUP3 ADD MSTORE PUSH1 0xC0 DUP4 ADD MLOAD PUSH1 0xC0 DUP3 ADD MSTORE PUSH1 0xE0 DUP4 ADD MLOAD DUP3 DUP2 GT ISZERO PUSH2 0x1392 JUMPI PUSH1 0x0 DUP1 REVERT JUMPDEST PUSH2 0x139E DUP8 DUP3 DUP7 ADD PUSH2 0x1275 JUMP JUMPDEST PUSH1 0xE0 DUP4 ADD MSTORE POP PUSH2 0x100 SWAP2 POP PUSH2 0x13B4 DUP3 DUP5 ADD PUSH2 0x124A JUMP JUMPDEST SWAP2 DUP2 ADD SWAP2 SWAP1 SWAP2 MSTORE SWAP5 SWAP4 POP POP POP POP JUMP JUMPDEST DUP2 DUP4 MSTORE DUP2 DUP2 PUSH1 0x20 DUP6 ADD CALLDATACOPY POP PUSH1 0x0 DUP3 DUP3 ADD PUSH1 0x20 SWAP1 DUP2 ADD SWAP2 SWAP1 SWAP2 MSTORE PUSH1 0x1F SWAP1 SWAP2 ADD PUSH1 0x1F NOT AND SWAP1 SWAP2 ADD ADD SWAP1 JUMP JUMPDEST DUP4 DUP2 MSTORE PUSH1 0x40 PUSH1 0x20 DUP3 ADD MSTORE PUSH1 0x0 PUSH2 0x9A3 PUSH1 0x40 DUP4 ADD DUP5 DUP7 PUSH2 0x13C3 JUMP JUMPDEST PUSH1 0x20 DUP2 MSTORE PUSH1 0x0 PUSH2 0x5EC PUSH1 0x20 DUP4 ADD DUP5 DUP7 PUSH2 0x13C3 JUMP JUMPDEST PUSH1 0x0 DUP3 MLOAD PUSH2 0x142C DUP2 DUP5 PUSH1 0x20 DUP8 ADD PUSH2 0xF2C JUMP JUMPDEST SWAP2 SWAP1 SWAP2 ADD SWAP3 SWAP2 POP POP JUMP JUMPDEST PUSH1 0x1 DUP2 DUP2 SHR SWAP1 DUP3 AND DUP1 PUSH2 0x144A JUMPI PUSH1 0x7F DUP3 AND SWAP2 POP JUMPDEST PUSH1 0x20 DUP3 LT DUP2 SUB PUSH2 0x146A JUMPI PUSH4 0x4E487B71 PUSH1 0xE0 SHL PUSH1 0x0 MSTORE PUSH1 0x22 PUSH1 0x4 MSTORE PUSH1 0x24 PUSH1 0x0 REVERT JUMPDEST POP SWAP2 SWAP1 POP JUMP JUMPDEST PUSH1 0x0 PUSH1 0x80 DUP3 DUP5 SUB SLT ISZERO PUSH2 0x1482 JUMPI PUSH1 0x0 DUP1 REVERT JUMPDEST PUSH1 0x40 MLOAD PUSH1 0x80 DUP2 ADD DUP2 DUP2 LT PUSH8 0xFFFFFFFFFFFFFFFF DUP3 GT OR ISZERO PUSH2 0x14A5 JUMPI PUSH2 0x14A5 PUSH2 0xF96 JUMP JUMPDEST DUP1 PUSH1 0x40 MSTORE POP DUP3 CALLDATALOAD DUP2 MSTORE PUSH1 0x20 DUP4 ADD CALLDATALOAD PUSH1 0x20 DUP3 ADD MSTORE PUSH1 0x40 DUP4 ADD CALLDATALOAD PUSH1 0x40 DUP3 ADD MSTORE PUSH1 0x60 DUP4 ADD CALLDATALOAD PUSH1 0x60 DUP3 ADD MSTORE DUP1 SWAP2 POP POP SWAP3 SWAP2 POP POP JUMP JUMPDEST PUSH1 0x0 PUSH1 0x60 DUP3 DUP5 SUB SLT ISZERO PUSH2 0x14E8 JUMPI PUSH1 0x0 DUP1 REVERT JUMPDEST PUSH1 0x40 MLOAD PUSH1 0x60 DUP2 ADD DUP2 DUP2 LT PUSH8 0xFFFFFFFFFFFFFFFF DUP3 GT OR ISZERO PUSH2 0x150B JUMPI PUSH2 0x150B PUSH2 0xF96 JUMP JUMPDEST DUP1 PUSH1 0x40 MSTORE POP DUP3 CALLDATALOAD DUP2 MSTORE PUSH1 0x20 DUP4 ADD CALLDATALOAD PUSH1 0x20 DUP3 ADD MSTORE PUSH1 0x40 DUP4 ADD CALLDATALOAD PUSH1 0x40 DUP3 ADD MSTORE DUP1 SWAP2 POP POP SWAP3 SWAP2 POP POP JUMP JUMPDEST PUSH4 0x4E487B71 PUSH1 0xE0 SHL PUSH1 0x0 MSTORE PUSH1 0x32 PUSH1 0x4 MSTORE PUSH1 0x24 PUSH1 0x0 REVERT JUMPDEST PUSH4 0x4E487B71 PUSH1 0xE0 SHL PUSH1 0x0 MSTORE PUSH1 0x11 PUSH1 0x4 MSTORE PUSH1 0x24 PUSH1 0x0 REVERT JUMPDEST DUP2 DUP2 SUB DUP2 DUP2 GT ISZERO PUSH2 0xAC9 JUMPI PUSH2 0xAC9 PUSH2 0x1548 JUMP JUMPDEST DUP1 DUP3 ADD DUP1 DUP3 GT ISZERO PUSH2 0xAC9 JUMPI PUSH2 0xAC9 PUSH2 0x1548 JUMP JUMPDEST PUSH1 0x40 DUP2 MSTORE PUSH1 0x0 PUSH2 0x1597 PUSH1 0x40 DUP4 ADD DUP6 PUSH2 0xF50 JUMP JUMPDEST SWAP1 POP DUP3 PUSH1 0x20 DUP4 ADD MSTORE SWAP4 SWAP3 POP POP POP JUMP JUMPDEST PUSH1 0x0 PUSH1 0x20 DUP3 DUP5 SUB SLT ISZERO PUSH2 0x15B8 JUMPI PUSH1 0x0 DUP1 REVERT JUMPDEST POP MLOAD SWAP2 SWAP1 POP JUMP INVALID PUSH28 0x75696E7420667261676D656E74496E6465783B2075696E742074696D PUSH6 0x7374616D7052 PUSH6 0x737472696374 PUSH10 0x6F6E3B2075696E742070 PUSH2 0x7373 PUSH4 0x6F64653B PUSH30 0x7B75696E7420667261676D656E74496E6465783B20627974657333322067 PUSH13 0x6F62616C486173683B20627974 PUSH6 0x733332206C6F PUSH4 0x616C4861 PUSH20 0x683B2075696E74206D696E54696D657374616D70 EXTCODESIZE PUSH30 0xA26469706673582212209B41181B8852ADD7CEFA6B0D68382F02BFDE7D45 LOG3 SLOAD 0xF9 0x28 LT 0xD3 0xCC DUP2 0xAD STATICCALL PUSH9 0x8C64736F6C63430008 OR STOP CALLER ",
  "sha1": "c374bd8508daee07ae923fcf042d2a8b6c27cbd9",
  "source": "// SPDX-License-Identifier: GPL-3.0\n\npragma solidity >=0.7.0 <0.9.0;\n\nimport \"./BaseClient.sol\";\n\n\ncontract TS3000 is BaseClient {\n\n    struct KeyFragment {\n        bytes32 globalHash;\n        bytes32 localHash;\n        uint passcode;\n    }\n\n    struct Input {\n        uint fragmentIndex;\n        bytes32 globalHash;\n        bytes32 localHash;\n        uint minTimestamp;\n    }\n\n    struct Result {\n        uint fragmentIndex;\n        uint timestampRestriction;\n        uint passcode;\n    }\n\n    event keyFullyMined();\n\n    string public encryptedDataRefference;\n    KeyFragment[] public keyFragments;\n    bytes32 public finalKey;\n\n    uint public fragmentDifficulty;\n    uint public rewardPerFragment;\n    uint public postProcessingGas;\n    uint public minTimeFramePerFragment;\n    bool public postProcessingEnabled;\n    \n    constructor(address brokerAddress, string memory _encryptedDataRefference, bytes32 firstLocalHash, bytes32[] memory globalHashes, uint _minTimeFramePerFragment, uint _fragmentDifficulty) BaseClient(brokerAddress) payable {\n        postProcessingGas = 400000;  // calculate postprocgas //// con 300000 funciona, con 200000 no\n        postProcessingEnabled = true;\n        fragmentDifficulty = _fragmentDifficulty;\n        rewardPerFragment = msg.value / globalHashes.length; //aca tener en cuenta el postprocgas\n        encryptedDataRefference = _encryptedDataRefference;\n        minTimeFramePerFragment = _minTimeFramePerFragment;\n        for (uint i = 0; i < globalHashes.length; i++) {\n            KeyFragment memory fragment; \n            fragment.globalHash = globalHashes[i];\n            if (i == 0) {\n                fragment.localHash = firstLocalHash;\n            }\n            keyFragments.push(fragment);\n        }\n        Input memory input = Input({\n            fragmentIndex: 0,\n            globalHash: globalHashes[0],\n            localHash: firstLocalHash,\n            minTimestamp: block.timestamp\n        });\n        _submitRequest(rewardPerFragment, abi.encode(input), postProcessingGas);\n    }\n\n    function checkResult(bytes calldata inputData, bytes calldata resultData) external override view returns (bool) {\n        Input memory input = abi.decode(inputData, (Input));\n        Result memory result = abi.decode(resultData, (Result));\n        return (input.minTimestamp == result.timestampRestriction) && (block.timestamp >= result.timestampRestriction) && (input.fragmentIndex == result.fragmentIndex) && (keccak256(abi.encode(result.passcode, input.localHash)) == input.globalHash);\n    }\n\n    function processResult(bytes calldata resultData) public override onlyClient { // decidir si quiero mantener el parametro de post processing gas, o si lo dejo limitless a criterio del ejecutor. LO MANTENGO POR QUE ESTA SETEADO EL LIMITE DESDE BASE CLIENT FUERA DEL CONTROL DE CLIENTES MALICIOSOS\n        //La hago public y only client en vez de internal porque necesito el cambio de msg.sender y necesito limitar el gas\n        Result memory result = abi.decode(resultData, (Result));\n        keyFragments[result.fragmentIndex].passcode = result.passcode;\n        if (result.fragmentIndex == keyFragments.length - 1) {\n            finalKey = keccak256(abi.encode(result.passcode));\n            emit keyFullyMined();\n        } else {\n            keyFragments[result.fragmentIndex + 1].localHash = keccak256(abi.encode(result.passcode));\n            if (postProcessingEnabled) {\n                Input memory input = Input({\n                    fragmentIndex: result.fragmentIndex + 1,\n                    globalHash: keyFragments[result.fragmentIndex + 1].globalHash,\n                    localHash: keyFragments[result.fragmentIndex + 1].localHash,\n                    minTimestamp: result.timestampRestriction + minTimeFramePerFragment\n                });\n                _submitRequest(rewardPerFragment, abi.encode(input), postProcessingGas);\n            }\n        }\n    }\n\n    function togglePostProcessing() external onlyOwner returns (bool) {\n        postProcessingEnabled = postProcessingEnabled ? false : true;\n        return postProcessingEnabled;\n    }\n\n    function getInputDataStructure() external override pure returns (string memory) {\n        return \"{uint fragmentIndex; bytes32 globalHash; bytes32 localHash; uint minTimestamp;}\";\n    }\n    \n    function getResultDataStructure() external override pure returns (string memory) {\n        return \"{uint fragmentIndex; uint timestampRestriction; uint passcode;}\";\n    }\n}\n",
  "sourcePath": "contracts/TS3000.sol",
  "type": "contract"
}