{
  "abi": [
    {
      "inputs": [
        {
          "internalType": "address",
          "name": "brokerAddress",
          "type": "address"
        },
        {
          "internalType": "string",
          "name": "_encryptedDataRefference",
          "type": "string"
        },
        {
          "internalType": "bytes32",
          "name": "firstLocalHash",
          "type": "bytes32"
        },
        {
          "internalType": "bytes32[]",
          "name": "globalHashes",
          "type": "bytes32[]"
        }
      ],
      "stateMutability": "payable",
      "type": "constructor"
    },
    {
      "anonymous": false,
      "inputs": [],
      "name": "keyFullyMined",
      "type": "event"
    },
    {
      "anonymous": false,
      "inputs": [
        {
          "indexed": false,
          "internalType": "uint256",
          "name": "requestID",
          "type": "uint256"
        }
      ],
      "name": "requestSubmitted",
      "type": "event"
    },
    {
      "inputs": [],
      "name": "brokerContract",
      "outputs": [
        {
          "internalType": "contract ExecutionBroker",
          "name": "",
          "type": "address"
        }
      ],
      "stateMutability": "view",
      "type": "function"
    },
    {
      "inputs": [
        {
          "internalType": "uint256",
          "name": "requestID",
          "type": "uint256"
        }
      ],
      "name": "cancelRequest",
      "outputs": [],
      "stateMutability": "nonpayable",
      "type": "function"
    },
    {
      "inputs": [
        {
          "internalType": "bytes",
          "name": "inputData",
          "type": "bytes"
        },
        {
          "internalType": "bytes",
          "name": "resultData",
          "type": "bytes"
        }
      ],
      "name": "checkResult",
      "outputs": [
        {
          "internalType": "bool",
          "name": "",
          "type": "bool"
        }
      ],
      "stateMutability": "pure",
      "type": "function"
    },
    {
      "inputs": [],
      "name": "encryptedDataRefference",
      "outputs": [
        {
          "internalType": "string",
          "name": "",
          "type": "string"
        }
      ],
      "stateMutability": "view",
      "type": "function"
    },
    {
      "inputs": [],
      "name": "finalKey",
      "outputs": [
        {
          "internalType": "bytes32",
          "name": "",
          "type": "bytes32"
        }
      ],
      "stateMutability": "view",
      "type": "function"
    },
    {
      "inputs": [],
      "name": "getInputDataStructure",
      "outputs": [
        {
          "internalType": "string",
          "name": "",
          "type": "string"
        }
      ],
      "stateMutability": "pure",
      "type": "function"
    },
    {
      "inputs": [],
      "name": "isOwner",
      "outputs": [
        {
          "internalType": "bool",
          "name": "",
          "type": "bool"
        }
      ],
      "stateMutability": "view",
      "type": "function"
    },
    {
      "inputs": [
        {
          "internalType": "uint256",
          "name": "",
          "type": "uint256"
        }
      ],
      "name": "keyFragments",
      "outputs": [
        {
          "internalType": "bytes32",
          "name": "globalHash",
          "type": "bytes32"
        },
        {
          "internalType": "bytes32",
          "name": "localHash",
          "type": "bytes32"
        },
        {
          "internalType": "uint256",
          "name": "passcode",
          "type": "uint256"
        }
      ],
      "stateMutability": "view",
      "type": "function"
    },
    {
      "inputs": [],
      "name": "owner",
      "outputs": [
        {
          "internalType": "address",
          "name": "",
          "type": "address"
        }
      ],
      "stateMutability": "view",
      "type": "function"
    },
    {
      "inputs": [],
      "name": "postProcessingEnabled",
      "outputs": [
        {
          "internalType": "bool",
          "name": "",
          "type": "bool"
        }
      ],
      "stateMutability": "view",
      "type": "function"
    },
    {
      "inputs": [],
      "name": "postProcessingGas",
      "outputs": [
        {
          "internalType": "uint256",
          "name": "",
          "type": "uint256"
        }
      ],
      "stateMutability": "view",
      "type": "function"
    },
    {
      "inputs": [
        {
          "internalType": "bytes",
          "name": "resultData",
          "type": "bytes"
        }
      ],
      "name": "processResult",
      "outputs": [],
      "stateMutability": "nonpayable",
      "type": "function"
    },
    {
      "inputs": [],
      "name": "rewardPerFragment",
      "outputs": [
        {
          "internalType": "uint256",
          "name": "",
          "type": "uint256"
        }
      ],
      "stateMutability": "view",
      "type": "function"
    },
    {
      "inputs": [],
      "name": "sendFunds",
      "outputs": [],
      "stateMutability": "payable",
      "type": "function"
    },
    {
      "inputs": [
        {
          "internalType": "uint256",
          "name": "payment",
          "type": "uint256"
        },
        {
          "internalType": "bytes",
          "name": "input",
          "type": "bytes"
        },
        {
          "internalType": "uint256",
          "name": "postProcessingGas",
          "type": "uint256"
        }
      ],
      "name": "submitRequest",
      "outputs": [
        {
          "internalType": "uint256",
          "name": "",
          "type": "uint256"
        }
      ],
      "stateMutability": "payable",
      "type": "function"
    },
    {
      "inputs": [],
      "name": "togglePostProcessing",
      "outputs": [],
      "stateMutability": "nonpayable",
      "type": "function"
    },
    {
      "inputs": [
        {
          "internalType": "uint256",
          "name": "value",
          "type": "uint256"
        }
      ],
      "name": "withdrawFunds",
      "outputs": [
        {
          "internalType": "bool",
          "name": "",
          "type": "bool"
        }
      ],
      "stateMutability": "nonpayable",
      "type": "function"
    }
  ],
  "bytecode": "60806040526040516200165638038062001656833981016040819052620000269162000493565b60008054336001600160a01b031991821617909155600180549091166001600160a01b038616178155600a6006556007805460ff1916909117905580516200006f903462000599565b60055560026200008084826200064b565b5060005b815181101562000182576040805160608101825260008082526020820181905291810191909152828281518110620000c057620000c062000717565b602090810291909101015181526000829003620000df57602081018490525b600380546001810182556000829052825191027fc2575a0e9e593c00f959f8c92f12db2869c3395a3b0502d05e2516446f71f85b81019190915560208201517fc2575a0e9e593c00f959f8c92f12db2869c3395a3b0502d05e2516446f71f85c8201556040909101517fc2575a0e9e593c00f959f8c92f12db2869c3395a3b0502d05e2516446f71f85d909101558062000179816200072d565b91505062000084565b50600060405180606001604052806000815260200183600081518110620001ad57620001ad62000717565b6020908102919091018101518252908101859052600554604080518451818501529284015183820152830151606083015291925062000203919060800160408051601f198184030181529190526006546200020f565b505050505050620007bc565b6000620002266000546001600160a01b0316331490565b620002895760405162461bcd60e51b815260206004820152602860248201527f46756e6374696f6e2061636365737369626c65206f6e6c7920627920746865206044820152676f776e657220212160c01b60648201526084015b60405180910390fd5b62000295473462000749565b841115620002db5760405162461bcd60e51b8152602060048201526012602482015271496e73756666696369656e742066756e647360701b604482015260640162000280565b6001546040516378f8af2560e11b81526000916001600160a01b03169063f1f15e4a90879062000312908890889060040162000765565b60206040518083038185885af115801562000331573d6000803e3d6000fd5b50505050506040513d601f19601f82011682018060405250810190620003589190620007a2565b90507fd3b0b0209035a5613265e8fb1f38873ea24c7c6189b128eebe3689c03d13905c816040516200038c91815260200190565b60405180910390a1949350505050565b634e487b7160e01b600052604160045260246000fd5b604051601f8201601f191681016001600160401b0381118282101715620003dd57620003dd6200039c565b604052919050565b60005b8381101562000402578181015183820152602001620003e8565b50506000910152565b600082601f8301126200041d57600080fd5b815160206001600160401b038211156200043b576200043b6200039c565b8160051b6200044c828201620003b2565b92835284810182019282810190878511156200046757600080fd5b83870192505b8483101562000488578251825291830191908301906200046d565b979650505050505050565b60008060008060808587031215620004aa57600080fd5b84516001600160a01b0381168114620004c257600080fd5b60208601519094506001600160401b0380821115620004e057600080fd5b818701915087601f830112620004f557600080fd5b8151818111156200050a576200050a6200039c565b6200051f601f8201601f1916602001620003b2565b8181528960208386010111156200053557600080fd5b62000548826020830160208701620003e5565b604089015160608a01519197509550925050808211156200056857600080fd5b5062000577878288016200040b565b91505092959194509250565b634e487b7160e01b600052601160045260246000fd5b600082620005b757634e487b7160e01b600052601260045260246000fd5b500490565b600181811c90821680620005d157607f821691505b602082108103620005f257634e487b7160e01b600052602260045260246000fd5b50919050565b601f8211156200064657600081815260208120601f850160051c81016020861015620006215750805b601f850160051c820191505b8181101562000642578281556001016200062d565b5050505b505050565b81516001600160401b038111156200066757620006676200039c565b6200067f81620006788454620005bc565b84620005f8565b602080601f831160018114620006b757600084156200069e5750858301515b600019600386901b1c1916600185901b17855562000642565b600085815260208120601f198616915b82811015620006e857888601518255948401946001909101908401620006c7565b5085821015620007075787850151600019600388901b60f8161c191681555b5050505050600190811b01905550565b634e487b7160e01b600052603260045260246000fd5b60006001820162000742576200074262000583565b5060010190565b808201808211156200075f576200075f62000583565b92915050565b604081526000835180604084015262000786816060850160208801620003e5565b602083019390935250601f91909101601f191601606001919050565b600060208284031215620007b557600080fd5b5051919050565b610e8a80620007cc6000396000f3fe6080604052600436106100fe5760003560e01c8063552b0b83116100955780638f32d59b116100645780638f32d59b1461027a578063c2c562451461029a578063c91c7b37146102ba578063cb392747146102da578063d997ebf5146102fa57600080fd5b8063552b0b83146101f85780637353d8911461020d5780638d68cf59146101ad5780638da5cb5b1461024857600080fd5b80632d16d25b116100d15780632d16d25b146101985780632d9e78b8146101af5780633015394c146101c557806343bb58de146101e557600080fd5b8063015594b814610103578063155dd5ee1461013257806322473385146101525780632896de1314610176575b600080fd5b34801561010f57600080fd5b5060075461011d9060ff1681565b60405190151581526020015b60405180910390f35b34801561013e57600080fd5b5061011d61014d3660046109d7565b610310565b34801561015e57600080fd5b5061016860065481565b604051908152602001610129565b34801561018257600080fd5b5061018b6103dd565b6040516101299190610a36565b3480156101a457600080fd5b506101ad6103fd565b005b3480156101bb57600080fd5b5061016860045481565b3480156101d157600080fd5b506101ad6101e03660046109d7565b61044e565b6101686101f3366004610a97565b6104eb565b34801561020457600080fd5b5061018b61061f565b34801561021957600080fd5b5061022d6102283660046109d7565b6106ad565b60408051938452602084019290925290820152606001610129565b34801561025457600080fd5b506000546001600160a01b03165b6040516001600160a01b039091168152602001610129565b34801561028657600080fd5b506000546001600160a01b0316331461011d565b3480156102a657600080fd5b50600154610262906001600160a01b031681565b3480156102c657600080fd5b5061011d6102d5366004610b88565b6106e0565b3480156102e657600080fd5b506101ad6102f5366004610bf4565b61075a565b34801561030657600080fd5b5061016860055481565b600080546001600160a01b031633146103445760405162461bcd60e51b815260040161033b90610c36565b60405180910390fd5b814710156103895760405162461bcd60e51b8152602060048201526012602482015271496e73756666696369656e742066756e647360701b604482015260640161033b565b6040513390600090829085908381818185875af1925050503d80600081146103cd576040519150601f19603f3d011682016040523d82523d6000602084013e6103d2565b606091505b509095945050505050565b60606040518060600160405280603c8152602001610e19603c9139905090565b6000546001600160a01b031633146104275760405162461bcd60e51b815260040161033b90610c36565b60075460ff1661043857600161043b565b60005b6007805460ff1916911515919091179055565b6000546001600160a01b031633146104785760405162461bcd60e51b815260040161033b90610c36565b600154604051630c054e5360e21b8152600481018390526001600160a01b0390911690633015394c906024016020604051808303816000875af11580156104c3573d6000803e3d6000fd5b505050506040513d601f19601f820116820180604052508101906104e79190610c7e565b5050565b600080546001600160a01b031633146105165760405162461bcd60e51b815260040161033b90610c36565b6105204734610cb6565b8411156105645760405162461bcd60e51b8152602060048201526012602482015271496e73756666696369656e742066756e647360701b604482015260640161033b565b6001546040516378f8af2560e11b81526000916001600160a01b03169063f1f15e4a9087906105999088908890600401610ccf565b60206040518083038185885af11580156105b7573d6000803e3d6000fd5b50505050506040513d601f19601f820116820180604052508101906105dc9190610cf1565b90507fd3b0b0209035a5613265e8fb1f38873ea24c7c6189b128eebe3689c03d13905c8160405161060f91815260200190565b60405180910390a1949350505050565b6002805461062c90610d0a565b80601f016020809104026020016040519081016040528092919081815260200182805461065890610d0a565b80156106a55780601f1061067a576101008083540402835291602001916106a5565b820191906000526020600020905b81548152906001019060200180831161068857829003601f168201915b505050505081565b600381815481106106bd57600080fd5b600091825260209091206003909102018054600182015460029092015490925083565b6000806106ef85870187610d44565b905060006106ff84860186610da0565b8051835191925014801561074f5750816020015181602001518360400151604051602001610737929190918252602082015260400190565b60405160208183030381529060405280519060200120145b979650505050505050565b6001546001600160a01b031633146107d15760405162461bcd60e51b815260206004820152603460248201527f43616e206f6e6c792062652063616c6c65642062792074686520726567697374604482015273195c995908189c9bdad95c8818dbdb9d1c9858dd60621b606482015260840161033b565b60006107df82840184610da0565b9050806020015160038260000151815481106107fd576107fd610def565b90600052602060002090600302016002018190555060016003805490506108249190610e05565b81510361088957602080820151604051610842920190815260200190565b60408051601f198184030181529082905280516020909101206004557f3523c39eb1a9c40e6a7c7504001ca3d223a7675dc8634b5aa1b056124b87cd3690600090a1505050565b6020808201516040516108a0920190815260200190565b604051602081830303815290604052805190602001206003826000015160016108c99190610cb6565b815481106108d9576108d9610def565b600091825260209091206001600390920201015560075460ff16156109d25760006040518060600160405280836000015160016109169190610cb6565b815260200160038460000151600161092e9190610cb6565b8154811061093e5761093e610def565b90600052602060002090600302016000015481526020016003846000015160016109689190610cb6565b8154811061097857610978610def565b60009182526020918290206001600390920201015490915260055460408051845181850152928401518382015283015160608301529192506109cf91906080016040516020818303038152906040526006546104eb565b50505b505050565b6000602082840312156109e957600080fd5b5035919050565b6000815180845260005b81811015610a16576020818501810151868301820152016109fa565b506000602082860101526020601f19601f83011685010191505092915050565b602081526000610a4960208301846109f0565b9392505050565b634e487b7160e01b600052604160045260246000fd5b604051601f8201601f1916810167ffffffffffffffff81118282101715610a8f57610a8f610a50565b604052919050565b600080600060608486031215610aac57600080fd5b8335925060208085013567ffffffffffffffff80821115610acc57600080fd5b818701915087601f830112610ae057600080fd5b813581811115610af257610af2610a50565b610b04601f8201601f19168501610a66565b91508082528884828501011115610b1a57600080fd5b8084840185840137600084828401015250809450505050604084013590509250925092565b60008083601f840112610b5157600080fd5b50813567ffffffffffffffff811115610b6957600080fd5b602083019150836020828501011115610b8157600080fd5b9250929050565b60008060008060408587031215610b9e57600080fd5b843567ffffffffffffffff80821115610bb657600080fd5b610bc288838901610b3f565b90965094506020870135915080821115610bdb57600080fd5b50610be887828801610b3f565b95989497509550505050565b60008060208385031215610c0757600080fd5b823567ffffffffffffffff811115610c1e57600080fd5b610c2a85828601610b3f565b90969095509350505050565b60208082526028908201527f46756e6374696f6e2061636365737369626c65206f6e6c7920627920746865206040820152676f776e657220212160c01b606082015260800190565b600060208284031215610c9057600080fd5b81518015158114610a4957600080fd5b634e487b7160e01b600052601160045260246000fd5b80820180821115610cc957610cc9610ca0565b92915050565b604081526000610ce260408301856109f0565b90508260208301529392505050565b600060208284031215610d0357600080fd5b5051919050565b600181811c90821680610d1e57607f821691505b602082108103610d3e57634e487b7160e01b600052602260045260246000fd5b50919050565b600060608284031215610d5657600080fd5b6040516060810181811067ffffffffffffffff82111715610d7957610d79610a50565b80604052508235815260208301356020820152604083013560408201528091505092915050565b600060408284031215610db257600080fd5b6040516040810181811067ffffffffffffffff82111715610dd557610dd5610a50565b604052823581526020928301359281019290925250919050565b634e487b7160e01b600052603260045260246000fd5b81810381811115610cc957610cc9610ca056fe7b75696e7420667261676d656e74496e6465783b206279746573333220676c6f62616c486173683b2062797465733332206c6f63616c486173683b7da2646970667358221220561dd3ac48510015fec2ec60f0627b0e0a11b68635ef9268a69d351ec76d28b564736f6c63430008130033",
  "bytecodeSha1": "b11ba72525c591e9cac7fc4fb8e79e6133282105",
  "compiler": {
    "evm_version": "istanbul",
    "optimizer": {
      "enabled": true,
      "runs": 200
    },
    "version": "0.8.19+commit.7dd6d404"
  },
  "contractName": "TS3000",
  "language": "Solidity",
  "natspec": {
    "kind": "dev",
    "methods": {},
    "version": 1
  },
  "opcodes": "PUSH1 0x80 PUSH1 0x40 MSTORE PUSH1 0x4 CALLDATASIZE LT PUSH2 0xFE JUMPI PUSH1 0x0 CALLDATALOAD PUSH1 0xE0 SHR DUP1 PUSH4 0x552B0B83 GT PUSH2 0x95 JUMPI DUP1 PUSH4 0x8F32D59B GT PUSH2 0x64 JUMPI DUP1 PUSH4 0x8F32D59B EQ PUSH2 0x27A JUMPI DUP1 PUSH4 0xC2C56245 EQ PUSH2 0x29A JUMPI DUP1 PUSH4 0xC91C7B37 EQ PUSH2 0x2BA JUMPI DUP1 PUSH4 0xCB392747 EQ PUSH2 0x2DA JUMPI DUP1 PUSH4 0xD997EBF5 EQ PUSH2 0x2FA JUMPI PUSH1 0x0 DUP1 REVERT JUMPDEST DUP1 PUSH4 0x552B0B83 EQ PUSH2 0x1F8 JUMPI DUP1 PUSH4 0x7353D891 EQ PUSH2 0x20D JUMPI DUP1 PUSH4 0x8D68CF59 EQ PUSH2 0x1AD JUMPI DUP1 PUSH4 0x8DA5CB5B EQ PUSH2 0x248 JUMPI PUSH1 0x0 DUP1 REVERT JUMPDEST DUP1 PUSH4 0x2D16D25B GT PUSH2 0xD1 JUMPI DUP1 PUSH4 0x2D16D25B EQ PUSH2 0x198 JUMPI DUP1 PUSH4 0x2D9E78B8 EQ PUSH2 0x1AF JUMPI DUP1 PUSH4 0x3015394C EQ PUSH2 0x1C5 JUMPI DUP1 PUSH4 0x43BB58DE EQ PUSH2 0x1E5 JUMPI PUSH1 0x0 DUP1 REVERT JUMPDEST DUP1 PUSH4 0x15594B8 EQ PUSH2 0x103 JUMPI DUP1 PUSH4 0x155DD5EE EQ PUSH2 0x132 JUMPI DUP1 PUSH4 0x22473385 EQ PUSH2 0x152 JUMPI DUP1 PUSH4 0x2896DE13 EQ PUSH2 0x176 JUMPI JUMPDEST PUSH1 0x0 DUP1 REVERT JUMPDEST CALLVALUE DUP1 ISZERO PUSH2 0x10F JUMPI PUSH1 0x0 DUP1 REVERT JUMPDEST POP PUSH1 0x7 SLOAD PUSH2 0x11D SWAP1 PUSH1 0xFF AND DUP2 JUMP JUMPDEST PUSH1 0x40 MLOAD SWAP1 ISZERO ISZERO DUP2 MSTORE PUSH1 0x20 ADD JUMPDEST PUSH1 0x40 MLOAD DUP1 SWAP2 SUB SWAP1 RETURN JUMPDEST CALLVALUE DUP1 ISZERO PUSH2 0x13E JUMPI PUSH1 0x0 DUP1 REVERT JUMPDEST POP PUSH2 0x11D PUSH2 0x14D CALLDATASIZE PUSH1 0x4 PUSH2 0x9D7 JUMP JUMPDEST PUSH2 0x310 JUMP JUMPDEST CALLVALUE DUP1 ISZERO PUSH2 0x15E JUMPI PUSH1 0x0 DUP1 REVERT JUMPDEST POP PUSH2 0x168 PUSH1 0x6 SLOAD DUP2 JUMP JUMPDEST PUSH1 0x40 MLOAD SWAP1 DUP2 MSTORE PUSH1 0x20 ADD PUSH2 0x129 JUMP JUMPDEST CALLVALUE DUP1 ISZERO PUSH2 0x182 JUMPI PUSH1 0x0 DUP1 REVERT JUMPDEST POP PUSH2 0x18B PUSH2 0x3DD JUMP JUMPDEST PUSH1 0x40 MLOAD PUSH2 0x129 SWAP2 SWAP1 PUSH2 0xA36 JUMP JUMPDEST CALLVALUE DUP1 ISZERO PUSH2 0x1A4 JUMPI PUSH1 0x0 DUP1 REVERT JUMPDEST POP PUSH2 0x1AD PUSH2 0x3FD JUMP JUMPDEST STOP JUMPDEST CALLVALUE DUP1 ISZERO PUSH2 0x1BB JUMPI PUSH1 0x0 DUP1 REVERT JUMPDEST POP PUSH2 0x168 PUSH1 0x4 SLOAD DUP2 JUMP JUMPDEST CALLVALUE DUP1 ISZERO PUSH2 0x1D1 JUMPI PUSH1 0x0 DUP1 REVERT JUMPDEST POP PUSH2 0x1AD PUSH2 0x1E0 CALLDATASIZE PUSH1 0x4 PUSH2 0x9D7 JUMP JUMPDEST PUSH2 0x44E JUMP JUMPDEST PUSH2 0x168 PUSH2 0x1F3 CALLDATASIZE PUSH1 0x4 PUSH2 0xA97 JUMP JUMPDEST PUSH2 0x4EB JUMP JUMPDEST CALLVALUE DUP1 ISZERO PUSH2 0x204 JUMPI PUSH1 0x0 DUP1 REVERT JUMPDEST POP PUSH2 0x18B PUSH2 0x61F JUMP JUMPDEST CALLVALUE DUP1 ISZERO PUSH2 0x219 JUMPI PUSH1 0x0 DUP1 REVERT JUMPDEST POP PUSH2 0x22D PUSH2 0x228 CALLDATASIZE PUSH1 0x4 PUSH2 0x9D7 JUMP JUMPDEST PUSH2 0x6AD JUMP JUMPDEST PUSH1 0x40 DUP1 MLOAD SWAP4 DUP5 MSTORE PUSH1 0x20 DUP5 ADD SWAP3 SWAP1 SWAP3 MSTORE SWAP1 DUP3 ADD MSTORE PUSH1 0x60 ADD PUSH2 0x129 JUMP JUMPDEST CALLVALUE DUP1 ISZERO PUSH2 0x254 JUMPI PUSH1 0x0 DUP1 REVERT JUMPDEST POP PUSH1 0x0 SLOAD PUSH1 0x1 PUSH1 0x1 PUSH1 0xA0 SHL SUB AND JUMPDEST PUSH1 0x40 MLOAD PUSH1 0x1 PUSH1 0x1 PUSH1 0xA0 SHL SUB SWAP1 SWAP2 AND DUP2 MSTORE PUSH1 0x20 ADD PUSH2 0x129 JUMP JUMPDEST CALLVALUE DUP1 ISZERO PUSH2 0x286 JUMPI PUSH1 0x0 DUP1 REVERT JUMPDEST POP PUSH1 0x0 SLOAD PUSH1 0x1 PUSH1 0x1 PUSH1 0xA0 SHL SUB AND CALLER EQ PUSH2 0x11D JUMP JUMPDEST CALLVALUE DUP1 ISZERO PUSH2 0x2A6 JUMPI PUSH1 0x0 DUP1 REVERT JUMPDEST POP PUSH1 0x1 SLOAD PUSH2 0x262 SWAP1 PUSH1 0x1 PUSH1 0x1 PUSH1 0xA0 SHL SUB AND DUP2 JUMP JUMPDEST CALLVALUE DUP1 ISZERO PUSH2 0x2C6 JUMPI PUSH1 0x0 DUP1 REVERT JUMPDEST POP PUSH2 0x11D PUSH2 0x2D5 CALLDATASIZE PUSH1 0x4 PUSH2 0xB88 JUMP JUMPDEST PUSH2 0x6E0 JUMP JUMPDEST CALLVALUE DUP1 ISZERO PUSH2 0x2E6 JUMPI PUSH1 0x0 DUP1 REVERT JUMPDEST POP PUSH2 0x1AD PUSH2 0x2F5 CALLDATASIZE PUSH1 0x4 PUSH2 0xBF4 JUMP JUMPDEST PUSH2 0x75A JUMP JUMPDEST CALLVALUE DUP1 ISZERO PUSH2 0x306 JUMPI PUSH1 0x0 DUP1 REVERT JUMPDEST POP PUSH2 0x168 PUSH1 0x5 SLOAD DUP2 JUMP JUMPDEST PUSH1 0x0 DUP1 SLOAD PUSH1 0x1 PUSH1 0x1 PUSH1 0xA0 SHL SUB AND CALLER EQ PUSH2 0x344 JUMPI PUSH1 0x40 MLOAD PUSH3 0x461BCD PUSH1 0xE5 SHL DUP2 MSTORE PUSH1 0x4 ADD PUSH2 0x33B SWAP1 PUSH2 0xC36 JUMP JUMPDEST PUSH1 0x40 MLOAD DUP1 SWAP2 SUB SWAP1 REVERT JUMPDEST DUP2 SELFBALANCE LT ISZERO PUSH2 0x389 JUMPI PUSH1 0x40 MLOAD PUSH3 0x461BCD PUSH1 0xE5 SHL DUP2 MSTORE PUSH1 0x20 PUSH1 0x4 DUP3 ADD MSTORE PUSH1 0x12 PUSH1 0x24 DUP3 ADD MSTORE PUSH18 0x496E73756666696369656E742066756E6473 PUSH1 0x70 SHL PUSH1 0x44 DUP3 ADD MSTORE PUSH1 0x64 ADD PUSH2 0x33B JUMP JUMPDEST PUSH1 0x40 MLOAD CALLER SWAP1 PUSH1 0x0 SWAP1 DUP3 SWAP1 DUP6 SWAP1 DUP4 DUP2 DUP2 DUP2 DUP6 DUP8 GAS CALL SWAP3 POP POP POP RETURNDATASIZE DUP1 PUSH1 0x0 DUP2 EQ PUSH2 0x3CD JUMPI PUSH1 0x40 MLOAD SWAP2 POP PUSH1 0x1F NOT PUSH1 0x3F RETURNDATASIZE ADD AND DUP3 ADD PUSH1 0x40 MSTORE RETURNDATASIZE DUP3 MSTORE RETURNDATASIZE PUSH1 0x0 PUSH1 0x20 DUP5 ADD RETURNDATACOPY PUSH2 0x3D2 JUMP JUMPDEST PUSH1 0x60 SWAP2 POP JUMPDEST POP SWAP1 SWAP6 SWAP5 POP POP POP POP POP JUMP JUMPDEST PUSH1 0x60 PUSH1 0x40 MLOAD DUP1 PUSH1 0x60 ADD PUSH1 0x40 MSTORE DUP1 PUSH1 0x3C DUP2 MSTORE PUSH1 0x20 ADD PUSH2 0xE19 PUSH1 0x3C SWAP2 CODECOPY SWAP1 POP SWAP1 JUMP JUMPDEST PUSH1 0x0 SLOAD PUSH1 0x1 PUSH1 0x1 PUSH1 0xA0 SHL SUB AND CALLER EQ PUSH2 0x427 JUMPI PUSH1 0x40 MLOAD PUSH3 0x461BCD PUSH1 0xE5 SHL DUP2 MSTORE PUSH1 0x4 ADD PUSH2 0x33B SWAP1 PUSH2 0xC36 JUMP JUMPDEST PUSH1 0x7 SLOAD PUSH1 0xFF AND PUSH2 0x438 JUMPI PUSH1 0x1 PUSH2 0x43B JUMP JUMPDEST PUSH1 0x0 JUMPDEST PUSH1 0x7 DUP1 SLOAD PUSH1 0xFF NOT AND SWAP2 ISZERO ISZERO SWAP2 SWAP1 SWAP2 OR SWAP1 SSTORE JUMP JUMPDEST PUSH1 0x0 SLOAD PUSH1 0x1 PUSH1 0x1 PUSH1 0xA0 SHL SUB AND CALLER EQ PUSH2 0x478 JUMPI PUSH1 0x40 MLOAD PUSH3 0x461BCD PUSH1 0xE5 SHL DUP2 MSTORE PUSH1 0x4 ADD PUSH2 0x33B SWAP1 PUSH2 0xC36 JUMP JUMPDEST PUSH1 0x1 SLOAD PUSH1 0x40 MLOAD PUSH4 0xC054E53 PUSH1 0xE2 SHL DUP2 MSTORE PUSH1 0x4 DUP2 ADD DUP4 SWAP1 MSTORE PUSH1 0x1 PUSH1 0x1 PUSH1 0xA0 SHL SUB SWAP1 SWAP2 AND SWAP1 PUSH4 0x3015394C SWAP1 PUSH1 0x24 ADD PUSH1 0x20 PUSH1 0x40 MLOAD DUP1 DUP4 SUB DUP2 PUSH1 0x0 DUP8 GAS CALL ISZERO DUP1 ISZERO PUSH2 0x4C3 JUMPI RETURNDATASIZE PUSH1 0x0 DUP1 RETURNDATACOPY RETURNDATASIZE PUSH1 0x0 REVERT JUMPDEST POP POP POP POP PUSH1 0x40 MLOAD RETURNDATASIZE PUSH1 0x1F NOT PUSH1 0x1F DUP3 ADD AND DUP3 ADD DUP1 PUSH1 0x40 MSTORE POP DUP2 ADD SWAP1 PUSH2 0x4E7 SWAP2 SWAP1 PUSH2 0xC7E JUMP JUMPDEST POP POP JUMP JUMPDEST PUSH1 0x0 DUP1 SLOAD PUSH1 0x1 PUSH1 0x1 PUSH1 0xA0 SHL SUB AND CALLER EQ PUSH2 0x516 JUMPI PUSH1 0x40 MLOAD PUSH3 0x461BCD PUSH1 0xE5 SHL DUP2 MSTORE PUSH1 0x4 ADD PUSH2 0x33B SWAP1 PUSH2 0xC36 JUMP JUMPDEST PUSH2 0x520 SELFBALANCE CALLVALUE PUSH2 0xCB6 JUMP JUMPDEST DUP5 GT ISZERO PUSH2 0x564 JUMPI PUSH1 0x40 MLOAD PUSH3 0x461BCD PUSH1 0xE5 SHL DUP2 MSTORE PUSH1 0x20 PUSH1 0x4 DUP3 ADD MSTORE PUSH1 0x12 PUSH1 0x24 DUP3 ADD MSTORE PUSH18 0x496E73756666696369656E742066756E6473 PUSH1 0x70 SHL PUSH1 0x44 DUP3 ADD MSTORE PUSH1 0x64 ADD PUSH2 0x33B JUMP JUMPDEST PUSH1 0x1 SLOAD PUSH1 0x40 MLOAD PUSH4 0x78F8AF25 PUSH1 0xE1 SHL DUP2 MSTORE PUSH1 0x0 SWAP2 PUSH1 0x1 PUSH1 0x1 PUSH1 0xA0 SHL SUB AND SWAP1 PUSH4 0xF1F15E4A SWAP1 DUP8 SWAP1 PUSH2 0x599 SWAP1 DUP9 SWAP1 DUP9 SWAP1 PUSH1 0x4 ADD PUSH2 0xCCF JUMP JUMPDEST PUSH1 0x20 PUSH1 0x40 MLOAD DUP1 DUP4 SUB DUP2 DUP6 DUP9 GAS CALL ISZERO DUP1 ISZERO PUSH2 0x5B7 JUMPI RETURNDATASIZE PUSH1 0x0 DUP1 RETURNDATACOPY RETURNDATASIZE PUSH1 0x0 REVERT JUMPDEST POP POP POP POP POP PUSH1 0x40 MLOAD RETURNDATASIZE PUSH1 0x1F NOT PUSH1 0x1F DUP3 ADD AND DUP3 ADD DUP1 PUSH1 0x40 MSTORE POP DUP2 ADD SWAP1 PUSH2 0x5DC SWAP2 SWAP1 PUSH2 0xCF1 JUMP JUMPDEST SWAP1 POP PUSH32 0xD3B0B0209035A5613265E8FB1F38873EA24C7C6189B128EEBE3689C03D13905C DUP2 PUSH1 0x40 MLOAD PUSH2 0x60F SWAP2 DUP2 MSTORE PUSH1 0x20 ADD SWAP1 JUMP JUMPDEST PUSH1 0x40 MLOAD DUP1 SWAP2 SUB SWAP1 LOG1 SWAP5 SWAP4 POP POP POP POP JUMP JUMPDEST PUSH1 0x2 DUP1 SLOAD PUSH2 0x62C SWAP1 PUSH2 0xD0A JUMP JUMPDEST DUP1 PUSH1 0x1F ADD PUSH1 0x20 DUP1 SWAP2 DIV MUL PUSH1 0x20 ADD PUSH1 0x40 MLOAD SWAP1 DUP2 ADD PUSH1 0x40 MSTORE DUP1 SWAP3 SWAP2 SWAP1 DUP2 DUP2 MSTORE PUSH1 0x20 ADD DUP3 DUP1 SLOAD PUSH2 0x658 SWAP1 PUSH2 0xD0A JUMP JUMPDEST DUP1 ISZERO PUSH2 0x6A5 JUMPI DUP1 PUSH1 0x1F LT PUSH2 0x67A JUMPI PUSH2 0x100 DUP1 DUP4 SLOAD DIV MUL DUP4 MSTORE SWAP2 PUSH1 0x20 ADD SWAP2 PUSH2 0x6A5 JUMP JUMPDEST DUP3 ADD SWAP2 SWAP1 PUSH1 0x0 MSTORE PUSH1 0x20 PUSH1 0x0 KECCAK256 SWAP1 JUMPDEST DUP2 SLOAD DUP2 MSTORE SWAP1 PUSH1 0x1 ADD SWAP1 PUSH1 0x20 ADD DUP1 DUP4 GT PUSH2 0x688 JUMPI DUP3 SWAP1 SUB PUSH1 0x1F AND DUP3 ADD SWAP2 JUMPDEST POP POP POP POP POP DUP2 JUMP JUMPDEST PUSH1 0x3 DUP2 DUP2 SLOAD DUP2 LT PUSH2 0x6BD JUMPI PUSH1 0x0 DUP1 REVERT JUMPDEST PUSH1 0x0 SWAP2 DUP3 MSTORE PUSH1 0x20 SWAP1 SWAP2 KECCAK256 PUSH1 0x3 SWAP1 SWAP2 MUL ADD DUP1 SLOAD PUSH1 0x1 DUP3 ADD SLOAD PUSH1 0x2 SWAP1 SWAP3 ADD SLOAD SWAP1 SWAP3 POP DUP4 JUMP JUMPDEST PUSH1 0x0 DUP1 PUSH2 0x6EF DUP6 DUP8 ADD DUP8 PUSH2 0xD44 JUMP JUMPDEST SWAP1 POP PUSH1 0x0 PUSH2 0x6FF DUP5 DUP7 ADD DUP7 PUSH2 0xDA0 JUMP JUMPDEST DUP1 MLOAD DUP4 MLOAD SWAP2 SWAP3 POP EQ DUP1 ISZERO PUSH2 0x74F JUMPI POP DUP2 PUSH1 0x20 ADD MLOAD DUP2 PUSH1 0x20 ADD MLOAD DUP4 PUSH1 0x40 ADD MLOAD PUSH1 0x40 MLOAD PUSH1 0x20 ADD PUSH2 0x737 SWAP3 SWAP2 SWAP1 SWAP2 DUP3 MSTORE PUSH1 0x20 DUP3 ADD MSTORE PUSH1 0x40 ADD SWAP1 JUMP JUMPDEST PUSH1 0x40 MLOAD PUSH1 0x20 DUP2 DUP4 SUB SUB DUP2 MSTORE SWAP1 PUSH1 0x40 MSTORE DUP1 MLOAD SWAP1 PUSH1 0x20 ADD KECCAK256 EQ JUMPDEST SWAP8 SWAP7 POP POP POP POP POP POP POP JUMP JUMPDEST PUSH1 0x1 SLOAD PUSH1 0x1 PUSH1 0x1 PUSH1 0xA0 SHL SUB AND CALLER EQ PUSH2 0x7D1 JUMPI PUSH1 0x40 MLOAD PUSH3 0x461BCD PUSH1 0xE5 SHL DUP2 MSTORE PUSH1 0x20 PUSH1 0x4 DUP3 ADD MSTORE PUSH1 0x34 PUSH1 0x24 DUP3 ADD MSTORE PUSH32 0x43616E206F6E6C792062652063616C6C65642062792074686520726567697374 PUSH1 0x44 DUP3 ADD MSTORE PUSH20 0x195C995908189C9BDAD95C8818DBDB9D1C9858DD PUSH1 0x62 SHL PUSH1 0x64 DUP3 ADD MSTORE PUSH1 0x84 ADD PUSH2 0x33B JUMP JUMPDEST PUSH1 0x0 PUSH2 0x7DF DUP3 DUP5 ADD DUP5 PUSH2 0xDA0 JUMP JUMPDEST SWAP1 POP DUP1 PUSH1 0x20 ADD MLOAD PUSH1 0x3 DUP3 PUSH1 0x0 ADD MLOAD DUP2 SLOAD DUP2 LT PUSH2 0x7FD JUMPI PUSH2 0x7FD PUSH2 0xDEF JUMP JUMPDEST SWAP1 PUSH1 0x0 MSTORE PUSH1 0x20 PUSH1 0x0 KECCAK256 SWAP1 PUSH1 0x3 MUL ADD PUSH1 0x2 ADD DUP2 SWAP1 SSTORE POP PUSH1 0x1 PUSH1 0x3 DUP1 SLOAD SWAP1 POP PUSH2 0x824 SWAP2 SWAP1 PUSH2 0xE05 JUMP JUMPDEST DUP2 MLOAD SUB PUSH2 0x889 JUMPI PUSH1 0x20 DUP1 DUP3 ADD MLOAD PUSH1 0x40 MLOAD PUSH2 0x842 SWAP3 ADD SWAP1 DUP2 MSTORE PUSH1 0x20 ADD SWAP1 JUMP JUMPDEST PUSH1 0x40 DUP1 MLOAD PUSH1 0x1F NOT DUP2 DUP5 SUB ADD DUP2 MSTORE SWAP1 DUP3 SWAP1 MSTORE DUP1 MLOAD PUSH1 0x20 SWAP1 SWAP2 ADD KECCAK256 PUSH1 0x4 SSTORE PUSH32 0x3523C39EB1A9C40E6A7C7504001CA3D223A7675DC8634B5AA1B056124B87CD36 SWAP1 PUSH1 0x0 SWAP1 LOG1 POP POP POP JUMP JUMPDEST PUSH1 0x20 DUP1 DUP3 ADD MLOAD PUSH1 0x40 MLOAD PUSH2 0x8A0 SWAP3 ADD SWAP1 DUP2 MSTORE PUSH1 0x20 ADD SWAP1 JUMP JUMPDEST PUSH1 0x40 MLOAD PUSH1 0x20 DUP2 DUP4 SUB SUB DUP2 MSTORE SWAP1 PUSH1 0x40 MSTORE DUP1 MLOAD SWAP1 PUSH1 0x20 ADD KECCAK256 PUSH1 0x3 DUP3 PUSH1 0x0 ADD MLOAD PUSH1 0x1 PUSH2 0x8C9 SWAP2 SWAP1 PUSH2 0xCB6 JUMP JUMPDEST DUP2 SLOAD DUP2 LT PUSH2 0x8D9 JUMPI PUSH2 0x8D9 PUSH2 0xDEF JUMP JUMPDEST PUSH1 0x0 SWAP2 DUP3 MSTORE PUSH1 0x20 SWAP1 SWAP2 KECCAK256 PUSH1 0x1 PUSH1 0x3 SWAP1 SWAP3 MUL ADD ADD SSTORE PUSH1 0x7 SLOAD PUSH1 0xFF AND ISZERO PUSH2 0x9D2 JUMPI PUSH1 0x0 PUSH1 0x40 MLOAD DUP1 PUSH1 0x60 ADD PUSH1 0x40 MSTORE DUP1 DUP4 PUSH1 0x0 ADD MLOAD PUSH1 0x1 PUSH2 0x916 SWAP2 SWAP1 PUSH2 0xCB6 JUMP JUMPDEST DUP2 MSTORE PUSH1 0x20 ADD PUSH1 0x3 DUP5 PUSH1 0x0 ADD MLOAD PUSH1 0x1 PUSH2 0x92E SWAP2 SWAP1 PUSH2 0xCB6 JUMP JUMPDEST DUP2 SLOAD DUP2 LT PUSH2 0x93E JUMPI PUSH2 0x93E PUSH2 0xDEF JUMP JUMPDEST SWAP1 PUSH1 0x0 MSTORE PUSH1 0x20 PUSH1 0x0 KECCAK256 SWAP1 PUSH1 0x3 MUL ADD PUSH1 0x0 ADD SLOAD DUP2 MSTORE PUSH1 0x20 ADD PUSH1 0x3 DUP5 PUSH1 0x0 ADD MLOAD PUSH1 0x1 PUSH2 0x968 SWAP2 SWAP1 PUSH2 0xCB6 JUMP JUMPDEST DUP2 SLOAD DUP2 LT PUSH2 0x978 JUMPI PUSH2 0x978 PUSH2 0xDEF JUMP JUMPDEST PUSH1 0x0 SWAP2 DUP3 MSTORE PUSH1 0x20 SWAP2 DUP3 SWAP1 KECCAK256 PUSH1 0x1 PUSH1 0x3 SWAP1 SWAP3 MUL ADD ADD SLOAD SWAP1 SWAP2 MSTORE PUSH1 0x5 SLOAD PUSH1 0x40 DUP1 MLOAD DUP5 MLOAD DUP2 DUP6 ADD MSTORE SWAP3 DUP5 ADD MLOAD DUP4 DUP3 ADD MSTORE DUP4 ADD MLOAD PUSH1 0x60 DUP4 ADD MSTORE SWAP2 SWAP3 POP PUSH2 0x9CF SWAP2 SWAP1 PUSH1 0x80 ADD PUSH1 0x40 MLOAD PUSH1 0x20 DUP2 DUP4 SUB SUB DUP2 MSTORE SWAP1 PUSH1 0x40 MSTORE PUSH1 0x6 SLOAD PUSH2 0x4EB JUMP JUMPDEST POP POP JUMPDEST POP POP POP JUMP JUMPDEST PUSH1 0x0 PUSH1 0x20 DUP3 DUP5 SUB SLT ISZERO PUSH2 0x9E9 JUMPI PUSH1 0x0 DUP1 REVERT JUMPDEST POP CALLDATALOAD SWAP2 SWAP1 POP JUMP JUMPDEST PUSH1 0x0 DUP2 MLOAD DUP1 DUP5 MSTORE PUSH1 0x0 JUMPDEST DUP2 DUP2 LT ISZERO PUSH2 0xA16 JUMPI PUSH1 0x20 DUP2 DUP6 ADD DUP2 ADD MLOAD DUP7 DUP4 ADD DUP3 ADD MSTORE ADD PUSH2 0x9FA JUMP JUMPDEST POP PUSH1 0x0 PUSH1 0x20 DUP3 DUP7 ADD ADD MSTORE PUSH1 0x20 PUSH1 0x1F NOT PUSH1 0x1F DUP4 ADD AND DUP6 ADD ADD SWAP2 POP POP SWAP3 SWAP2 POP POP JUMP JUMPDEST PUSH1 0x20 DUP2 MSTORE PUSH1 0x0 PUSH2 0xA49 PUSH1 0x20 DUP4 ADD DUP5 PUSH2 0x9F0 JUMP JUMPDEST SWAP4 SWAP3 POP POP POP JUMP JUMPDEST PUSH4 0x4E487B71 PUSH1 0xE0 SHL PUSH1 0x0 MSTORE PUSH1 0x41 PUSH1 0x4 MSTORE PUSH1 0x24 PUSH1 0x0 REVERT JUMPDEST PUSH1 0x40 MLOAD PUSH1 0x1F DUP3 ADD PUSH1 0x1F NOT AND DUP2 ADD PUSH8 0xFFFFFFFFFFFFFFFF DUP2 GT DUP3 DUP3 LT OR ISZERO PUSH2 0xA8F JUMPI PUSH2 0xA8F PUSH2 0xA50 JUMP JUMPDEST PUSH1 0x40 MSTORE SWAP2 SWAP1 POP JUMP JUMPDEST PUSH1 0x0 DUP1 PUSH1 0x0 PUSH1 0x60 DUP5 DUP7 SUB SLT ISZERO PUSH2 0xAAC JUMPI PUSH1 0x0 DUP1 REVERT JUMPDEST DUP4 CALLDATALOAD SWAP3 POP PUSH1 0x20 DUP1 DUP6 ADD CALLDATALOAD PUSH8 0xFFFFFFFFFFFFFFFF DUP1 DUP3 GT ISZERO PUSH2 0xACC JUMPI PUSH1 0x0 DUP1 REVERT JUMPDEST DUP2 DUP8 ADD SWAP2 POP DUP8 PUSH1 0x1F DUP4 ADD SLT PUSH2 0xAE0 JUMPI PUSH1 0x0 DUP1 REVERT JUMPDEST DUP2 CALLDATALOAD DUP2 DUP2 GT ISZERO PUSH2 0xAF2 JUMPI PUSH2 0xAF2 PUSH2 0xA50 JUMP JUMPDEST PUSH2 0xB04 PUSH1 0x1F DUP3 ADD PUSH1 0x1F NOT AND DUP6 ADD PUSH2 0xA66 JUMP JUMPDEST SWAP2 POP DUP1 DUP3 MSTORE DUP9 DUP5 DUP3 DUP6 ADD ADD GT ISZERO PUSH2 0xB1A JUMPI PUSH1 0x0 DUP1 REVERT JUMPDEST DUP1 DUP5 DUP5 ADD DUP6 DUP5 ADD CALLDATACOPY PUSH1 0x0 DUP5 DUP3 DUP5 ADD ADD MSTORE POP DUP1 SWAP5 POP POP POP POP PUSH1 0x40 DUP5 ADD CALLDATALOAD SWAP1 POP SWAP3 POP SWAP3 POP SWAP3 JUMP JUMPDEST PUSH1 0x0 DUP1 DUP4 PUSH1 0x1F DUP5 ADD SLT PUSH2 0xB51 JUMPI PUSH1 0x0 DUP1 REVERT JUMPDEST POP DUP2 CALLDATALOAD PUSH8 0xFFFFFFFFFFFFFFFF DUP2 GT ISZERO PUSH2 0xB69 JUMPI PUSH1 0x0 DUP1 REVERT JUMPDEST PUSH1 0x20 DUP4 ADD SWAP2 POP DUP4 PUSH1 0x20 DUP3 DUP6 ADD ADD GT ISZERO PUSH2 0xB81 JUMPI PUSH1 0x0 DUP1 REVERT JUMPDEST SWAP3 POP SWAP3 SWAP1 POP JUMP JUMPDEST PUSH1 0x0 DUP1 PUSH1 0x0 DUP1 PUSH1 0x40 DUP6 DUP8 SUB SLT ISZERO PUSH2 0xB9E JUMPI PUSH1 0x0 DUP1 REVERT JUMPDEST DUP5 CALLDATALOAD PUSH8 0xFFFFFFFFFFFFFFFF DUP1 DUP3 GT ISZERO PUSH2 0xBB6 JUMPI PUSH1 0x0 DUP1 REVERT JUMPDEST PUSH2 0xBC2 DUP9 DUP4 DUP10 ADD PUSH2 0xB3F JUMP JUMPDEST SWAP1 SWAP7 POP SWAP5 POP PUSH1 0x20 DUP8 ADD CALLDATALOAD SWAP2 POP DUP1 DUP3 GT ISZERO PUSH2 0xBDB JUMPI PUSH1 0x0 DUP1 REVERT JUMPDEST POP PUSH2 0xBE8 DUP8 DUP3 DUP9 ADD PUSH2 0xB3F JUMP JUMPDEST SWAP6 SWAP9 SWAP5 SWAP8 POP SWAP6 POP POP POP POP JUMP JUMPDEST PUSH1 0x0 DUP1 PUSH1 0x20 DUP4 DUP6 SUB SLT ISZERO PUSH2 0xC07 JUMPI PUSH1 0x0 DUP1 REVERT JUMPDEST DUP3 CALLDATALOAD PUSH8 0xFFFFFFFFFFFFFFFF DUP2 GT ISZERO PUSH2 0xC1E JUMPI PUSH1 0x0 DUP1 REVERT JUMPDEST PUSH2 0xC2A DUP6 DUP3 DUP7 ADD PUSH2 0xB3F JUMP JUMPDEST SWAP1 SWAP7 SWAP1 SWAP6 POP SWAP4 POP POP POP POP JUMP JUMPDEST PUSH1 0x20 DUP1 DUP3 MSTORE PUSH1 0x28 SWAP1 DUP3 ADD MSTORE PUSH32 0x46756E6374696F6E2061636365737369626C65206F6E6C792062792074686520 PUSH1 0x40 DUP3 ADD MSTORE PUSH8 0x6F776E6572202121 PUSH1 0xC0 SHL PUSH1 0x60 DUP3 ADD MSTORE PUSH1 0x80 ADD SWAP1 JUMP JUMPDEST PUSH1 0x0 PUSH1 0x20 DUP3 DUP5 SUB SLT ISZERO PUSH2 0xC90 JUMPI PUSH1 0x0 DUP1 REVERT JUMPDEST DUP2 MLOAD DUP1 ISZERO ISZERO DUP2 EQ PUSH2 0xA49 JUMPI PUSH1 0x0 DUP1 REVERT JUMPDEST PUSH4 0x4E487B71 PUSH1 0xE0 SHL PUSH1 0x0 MSTORE PUSH1 0x11 PUSH1 0x4 MSTORE PUSH1 0x24 PUSH1 0x0 REVERT JUMPDEST DUP1 DUP3 ADD DUP1 DUP3 GT ISZERO PUSH2 0xCC9 JUMPI PUSH2 0xCC9 PUSH2 0xCA0 JUMP JUMPDEST SWAP3 SWAP2 POP POP JUMP JUMPDEST PUSH1 0x40 DUP2 MSTORE PUSH1 0x0 PUSH2 0xCE2 PUSH1 0x40 DUP4 ADD DUP6 PUSH2 0x9F0 JUMP JUMPDEST SWAP1 POP DUP3 PUSH1 0x20 DUP4 ADD MSTORE SWAP4 SWAP3 POP POP POP JUMP JUMPDEST PUSH1 0x0 PUSH1 0x20 DUP3 DUP5 SUB SLT ISZERO PUSH2 0xD03 JUMPI PUSH1 0x0 DUP1 REVERT JUMPDEST POP MLOAD SWAP2 SWAP1 POP JUMP JUMPDEST PUSH1 0x1 DUP2 DUP2 SHR SWAP1 DUP3 AND DUP1 PUSH2 0xD1E JUMPI PUSH1 0x7F DUP3 AND SWAP2 POP JUMPDEST PUSH1 0x20 DUP3 LT DUP2 SUB PUSH2 0xD3E JUMPI PUSH4 0x4E487B71 PUSH1 0xE0 SHL PUSH1 0x0 MSTORE PUSH1 0x22 PUSH1 0x4 MSTORE PUSH1 0x24 PUSH1 0x0 REVERT JUMPDEST POP SWAP2 SWAP1 POP JUMP JUMPDEST PUSH1 0x0 PUSH1 0x60 DUP3 DUP5 SUB SLT ISZERO PUSH2 0xD56 JUMPI PUSH1 0x0 DUP1 REVERT JUMPDEST PUSH1 0x40 MLOAD PUSH1 0x60 DUP2 ADD DUP2 DUP2 LT PUSH8 0xFFFFFFFFFFFFFFFF DUP3 GT OR ISZERO PUSH2 0xD79 JUMPI PUSH2 0xD79 PUSH2 0xA50 JUMP JUMPDEST DUP1 PUSH1 0x40 MSTORE POP DUP3 CALLDATALOAD DUP2 MSTORE PUSH1 0x20 DUP4 ADD CALLDATALOAD PUSH1 0x20 DUP3 ADD MSTORE PUSH1 0x40 DUP4 ADD CALLDATALOAD PUSH1 0x40 DUP3 ADD MSTORE DUP1 SWAP2 POP POP SWAP3 SWAP2 POP POP JUMP JUMPDEST PUSH1 0x0 PUSH1 0x40 DUP3 DUP5 SUB SLT ISZERO PUSH2 0xDB2 JUMPI PUSH1 0x0 DUP1 REVERT JUMPDEST PUSH1 0x40 MLOAD PUSH1 0x40 DUP2 ADD DUP2 DUP2 LT PUSH8 0xFFFFFFFFFFFFFFFF DUP3 GT OR ISZERO PUSH2 0xDD5 JUMPI PUSH2 0xDD5 PUSH2 0xA50 JUMP JUMPDEST PUSH1 0x40 MSTORE DUP3 CALLDATALOAD DUP2 MSTORE PUSH1 0x20 SWAP3 DUP4 ADD CALLDATALOAD SWAP3 DUP2 ADD SWAP3 SWAP1 SWAP3 MSTORE POP SWAP2 SWAP1 POP JUMP JUMPDEST PUSH4 0x4E487B71 PUSH1 0xE0 SHL PUSH1 0x0 MSTORE PUSH1 0x32 PUSH1 0x4 MSTORE PUSH1 0x24 PUSH1 0x0 REVERT JUMPDEST DUP2 DUP2 SUB DUP2 DUP2 GT ISZERO PUSH2 0xCC9 JUMPI PUSH2 0xCC9 PUSH2 0xCA0 JUMP INVALID PUSH28 0x75696E7420667261676D656E74496E6465783B206279746573333220 PUSH8 0x6C6F62616C486173 PUSH9 0x3B2062797465733332 KECCAK256 PUSH13 0x6F63616C486173683B7DA26469 PUSH17 0x667358221220561DD3AC48510015FEC2EC PUSH1 0xF0 PUSH3 0x7B0E0A GT 0xB6 DUP7 CALLDATALOAD 0xEF SWAP3 PUSH9 0xA69D351EC76D28B564 PUSH20 0x6F6C634300081300330000000000000000000000 ",
  "sha1": "169e6295842a47ec1da04e653726690b08ea8d4f",
  "source": "// SPDX-License-Identifier: GPL-3.0\n\npragma solidity >=0.7.0 <0.9.0;\n\nimport \"./BaseClient.sol\";\n\n\ncontract TS3000 is BaseClient {\n\n    struct KeyFragment {\n        bytes32 globalHash;\n        bytes32 localHash;\n        uint passcode;\n    }\n\n    struct Input {\n        uint fragmentIndex;\n        bytes32 globalHash;\n        bytes32 localHash;\n    }\n\n    struct Result {\n        uint fragmentIndex;\n        uint passcode;\n    }\n\n    event keyFullyMined();\n\n    string public encryptedDataRefference;\n    KeyFragment[] public keyFragments;\n    bytes32 public finalKey;\n    \n    uint public rewardPerFragment;\n    uint public postProcessingGas;\n    bool public postProcessingEnabled;\n    \n    constructor(address brokerAddress, string memory _encryptedDataRefference, bytes32 firstLocalHash, bytes32[] memory globalHashes) BaseClient(brokerAddress) payable {\n        postProcessingGas = 10;  //TODO calculate postprocgas\n        postProcessingEnabled = true;\n        rewardPerFragment = msg.value / globalHashes.length; //TODO aca tener en cuenta el postprocgas\n        encryptedDataRefference = _encryptedDataRefference;\n        for (uint i = 0; i < globalHashes.length; i++) {\n            KeyFragment memory fragment; \n            fragment.globalHash = globalHashes[i];\n            if (i == 0) {\n                fragment.localHash = firstLocalHash;\n            }\n            keyFragments.push(fragment);\n        }\n        Input memory input = Input({\n            fragmentIndex: 0,\n            globalHash: globalHashes[0],\n            localHash: firstLocalHash\n        });\n        submitRequest(rewardPerFragment, abi.encode(input), postProcessingGas);\n    }\n\n    function checkResult(bytes calldata inputData, bytes calldata resultData) external override pure returns (bool) {\n        Input memory input = abi.decode(inputData, (Input));\n        Result memory result = abi.decode(resultData, (Result));\n        return (input.fragmentIndex == result.fragmentIndex) && (keccak256(abi.encode(result.passcode, input.localHash)) == input.globalHash);\n    }\n\n    function processResult(bytes calldata resultData) external override onlyBroker {\n        Result memory result = abi.decode(resultData, (Result));\n        keyFragments[result.fragmentIndex].passcode = result.passcode;\n        if (result.fragmentIndex == keyFragments.length - 1) {\n            finalKey = keccak256(abi.encode(result.passcode));\n            emit keyFullyMined();\n        } else {\n            keyFragments[result.fragmentIndex + 1].localHash = keccak256(abi.encode(result.passcode));\n            if (postProcessingEnabled) {\n                Input memory input = Input({\n                    fragmentIndex: result.fragmentIndex + 1,\n                    globalHash: keyFragments[result.fragmentIndex + 1].globalHash,\n                    localHash: keyFragments[result.fragmentIndex + 1].localHash\n                });\n                submitRequest(rewardPerFragment, abi.encode(input), postProcessingGas);\n            }\n        }\n    }\n\n    function togglePostProcessing() external onlyOwner {\n        postProcessingEnabled = postProcessingEnabled ? false : true;\n    }\n\n    function getInputDataStructure() external override pure returns (string memory) {\n        return \"{uint fragmentIndex; bytes32 globalHash; bytes32 localHash;}\";\n    }\n}",
  "sourcePath": "contracts/TS3000.sol",
  "type": "contract"
}