{"abi":[{"inputs":[{"internalType":"address","name":"brokerAddress","type":"address"}],"stateMutability":"nonpayable","type":"constructor","name":"constructor"},{"anonymous":false,"inputs":[{"indexed":false,"internalType":"uint256","name":"requestID","type":"uint256"}],"name":"requestSubmitted","type":"event"},{"inputs":[],"name":"brokerContract","outputs":[{"internalType":"contract ExecutionBroker","name":"","type":"address"}],"stateMutability":"view","type":"function"},{"inputs":[{"internalType":"uint256","name":"requestID","type":"uint256"}],"name":"cancelRequest","outputs":[],"stateMutability":"nonpayable","type":"function"},{"inputs":[{"components":[{"internalType":"uint256","name":"functionToRun","type":"uint256"},{"internalType":"bytes","name":"data","type":"bytes"}],"internalType":"struct BaseClient.ClientInput","name":"input","type":"tuple"}],"name":"clientLogic","outputs":[{"internalType":"bytes","name":"","type":"bytes"}],"stateMutability":"pure","type":"function"},{"inputs":[{"internalType":"uint256","name":"functionID","type":"uint256"}],"name":"getInputStructure","outputs":[{"internalType":"string","name":"","type":"string"}],"stateMutability":"pure","type":"function"},{"inputs":[],"name":"isOwner","outputs":[{"internalType":"bool","name":"","type":"bool"}],"stateMutability":"view","type":"function"},{"inputs":[],"name":"owner","outputs":[{"internalType":"address","name":"","type":"address"}],"stateMutability":"view","type":"function"},{"inputs":[{"internalType":"bytes","name":"result","type":"bytes"}],"name":"processResult","outputs":[],"stateMutability":"nonpayable","type":"function"},{"inputs":[],"name":"sendFunds","outputs":[],"stateMutability":"payable","type":"function"},{"inputs":[{"internalType":"uint256","name":"payment","type":"uint256"},{"components":[{"internalType":"uint256","name":"functionToRun","type":"uint256"},{"internalType":"bytes","name":"data","type":"bytes"}],"internalType":"struct BaseClient.ClientInput","name":"input","type":"tuple"},{"internalType":"uint256","name":"postProcessingGas","type":"uint256"},{"internalType":"uint256","name":"requestedInsurance","type":"uint256"},{"internalType":"uint256","name":"claimDelay","type":"uint256"}],"name":"submitRequest","outputs":[{"internalType":"uint256","name":"","type":"uint256"}],"stateMutability":"payable","type":"function"},{"inputs":[{"internalType":"uint256","name":"value","type":"uint256"}],"name":"withdrawFunds","outputs":[{"internalType":"bool","name":"","type":"bool"}],"stateMutability":"nonpayable","type":"function"}],"bytecode":"608060405234801561001057600080fd5b50604051610dd4380380610dd483398101604081905261002f91610062565b600080546001600160a01b03199081163317909155600180546001600160a01b0390931692909116919091179055610092565b60006020828403121561007457600080fd5b81516001600160a01b038116811461008b57600080fd5b9392505050565b610d33806100a16000396000f3fe6080604052600436106100915760003560e01c80638da5cb5b116100595780638da5cb5b1461013b5780638f32d59b1461016d578063a9b1dac31461018d578063c2c56245146101ad578063cb392747146101cd57600080fd5b8063155dd5ee1461009657806329643021146100cb5780633015394c146100ec578063886eb81d1461010e5780638d68cf591461010c575b600080fd5b3480156100a257600080fd5b506100b66100b13660046108bd565b6101ed565b60405190151581526020015b60405180910390f35b6100de6100d93660046108ee565b610295565b6040519081526020016100c2565b3480156100f857600080fd5b5061010c6101073660046108bd565b6103aa565b005b34801561011a57600080fd5b5061012e6101293660046108bd565b610435565b6040516100c29190610996565b34801561014757600080fd5b506000546001600160a01b03165b6040516001600160a01b0390911681526020016100c2565b34801561017957600080fd5b506000546001600160a01b031633146100b6565b34801561019957600080fd5b5061012e6101a83660046109b0565b610500565b3480156101b957600080fd5b50600154610155906001600160a01b031681565b3480156101d957600080fd5b5061010c6101e83660046109ed565b61061b565b600080546001600160a01b031633146102215760405162461bcd60e51b815260040161021890610a5f565b60405180910390fd5b814710156102415760405162461bcd60e51b815260040161021890610aa4565b6040513390600090829085908381818185875af1925050503d8060008114610285576040519150601f19603f3d011682016040523d82523d6000602084013e61028a565b606091505b509095945050505050565b600080546001600160a01b031633146102c05760405162461bcd60e51b815260040161021890610a5f565b6102ca4734610ae6565b8611156102e95760405162461bcd60e51b815260040161021890610aa4565b6001546040516336403e4d60e21b81526000916001600160a01b03169063d900f934908990610322908a908a908a908a90600401610af9565b60206040518083038185885af1158015610340573d6000803e3d6000fd5b50505050506040513d601f19601f820116820180604052508101906103659190610b92565b90507fd3b0b0209035a5613265e8fb1f38873ea24c7c6189b128eebe3689c03d13905c8160405161039891815260200190565b60405180910390a19695505050505050565b6000546001600160a01b031633146103d45760405162461bcd60e51b815260040161021890610a5f565b600154604051630c054e5360e21b8152600481018390526001600160a01b0390911690633015394c90602401600060405180830381600087803b15801561041a57600080fd5b505af115801561042e573d6000803e3d6000fd5b5050505050565b60608160010361046a57505060408051808201909152600f81526e7b75696e7420636f756e7465723b7d60881b602082015290565b8160020361049d57505060408051808201909152600f81526e7b75696e7420636f756e7465723b7d60881b602082015290565b816003036104d057505060408051808201909152600f81526e7b75696e7420636f756e7465723b7d60881b602082015290565b5050604080518082019091526014815273125b99185d9a5b1908199d5b98dd1a5bdb88125160621b602082015290565b604080516020810190915260008152606090823560010361056c5761056561052b6020850185610bab565b8080601f01602080910402602001604051908101604052809392919081815260200183838082843760009201919091525061081c92505050565b9050610615565b82356002036105bf576105656105856020850185610bab565b8080601f01602080910402602001604051908101604052809392919081815260200183838082843760009201919091525061086d92505050565b8235600303610615576106126105d86020850185610bab565b8080601f01602080910402602001604051908101604052809392919081815260200183838082843760009201919091525061089592505050565b90505b92915050565b6001546001600160a01b031633146106925760405162461bcd60e51b815260206004820152603460248201527f43616e206f6e6c792062652063616c6c65642062792074686520726567697374604482015273195c995908189c9bdad95c8818dbdb9d1c9858dd60621b6064820152608401610218565b64e8d4a510004710156106b75760405162461bcd60e51b815260040161021890610aa4565b6000806106c6838501856108bd565b90506064811015610718576106dc600a82610c0f565b6000036107135760026106f0600a83610c23565b6106fa9190610c0f565b60000361070a5760029150610718565b60039150610718565b600191505b600060405180604001604052808481526020018360405160200161073e91815260200190565b60408051601f19818403018152918152915260015490516336403e4d60e21b81529192506000916001600160a01b039091169063d900f9349064e8d4a510009061079690869062030d40908490603c90600401610c37565b60206040518083038185885af11580156107b4573d6000803e3d6000fd5b50505050506040513d601f19601f820116820180604052508101906107d99190610b92565b90507fd3b0b0209035a5613265e8fb1f38873ea24c7c6189b128eebe3689c03d13905c8160405161080c91815260200190565b60405180910390a1505050505050565b60606000828060200190518101906108349190610cca565b805190915061084490600a610ce6565b60405160200161085691815260200190565b604051602081830303815290604052915050919050565b60606000828060200190518101906108859190610cca565b8051909150610844906007610ae6565b60606000828060200190518101906108ad9190610cca565b8051909150610844906004610ae6565b6000602082840312156108cf57600080fd5b5035919050565b6000604082840312156108e857600080fd5b50919050565b600080600080600060a0868803121561090657600080fd5b85359450602086013567ffffffffffffffff81111561092457600080fd5b610930888289016108d6565b959895975050505060408401359360608101359360809091013592509050565b6000815180845260005b818110156109765760208185018101518683018201520161095a565b506000602082860101526020601f19601f83011685010191505092915050565b6020815260006109a96020830184610950565b9392505050565b6000602082840312156109c257600080fd5b813567ffffffffffffffff8111156109d957600080fd5b6109e5848285016108d6565b949350505050565b60008060208385031215610a0057600080fd5b823567ffffffffffffffff80821115610a1857600080fd5b818501915085601f830112610a2c57600080fd5b813581811115610a3b57600080fd5b866020828501011115610a4d57600080fd5b60209290920196919550909350505050565b60208082526025908201527f46756e6374696f6e2061636365737369626c65206f6e6c79206279207468652060408201526437bbb732b960d91b606082015260800190565b602080825260129082015271496e73756666696369656e742066756e647360701b604082015260600190565b634e487b7160e01b600052601160045260246000fd5b8082018082111561061557610615610ad0565b608081528435608082015260006020860135601e19873603018112610b1d57600080fd5b860160208101903567ffffffffffffffff811115610b3a57600080fd5b803603821315610b4957600080fd5b604060a08501528060c0850152808260e0860137600060e0828601015260e0601f19601f8301168501019250505084602083015283604083015282606083015295945050505050565b600060208284031215610ba457600080fd5b5051919050565b6000808335601e19843603018112610bc257600080fd5b83018035915067ffffffffffffffff821115610bdd57600080fd5b602001915036819003821315610bf257600080fd5b9250929050565b634e487b7160e01b600052601260045260246000fd5b600082610c1e57610c1e610bf9565b500690565b600082610c3257610c32610bf9565b500490565b608081528451608082015260006020860151604060a0840152610c5d60c0840182610950565b602084019690965250506040810192909252606090910152919050565b600060208284031215610c8c57600080fd5b6040516020810181811067ffffffffffffffff82111715610cbd57634e487b7160e01b600052604160045260246000fd5b6040529151825250919050565b600060208284031215610cdc57600080fd5b6109a98383610c7a565b808202811582820484141761061557610615610ad056fea2646970667358221220ff8f3de21fe05997172f67b51323f0c558cf403cfaa6d6b7d412a3e91826e29164736f6c63430008110033","bytecodeSha1":"b12d4fc1f2a109edfc5a6c3c4fc6ac215f696c9b","compiler":{"evm_version":"istanbul","optimizer":{"enabled":true,"runs":200},"version":"0.8.17+commit.8df45f5f"},"contractName":"ClientImplementation","language":"Solidity","natspec":{"kind":"dev","methods":{},"version":1},"opcodes":"PUSH1 0x80 PUSH1 0x40 MSTORE PUSH1 0x4 CALLDATASIZE LT PUSH2 0x91 JUMPI PUSH1 0x0 CALLDATALOAD PUSH1 0xE0 SHR DUP1 PUSH4 0x8DA5CB5B GT PUSH2 0x59 JUMPI DUP1 PUSH4 0x8DA5CB5B EQ PUSH2 0x13B JUMPI DUP1 PUSH4 0x8F32D59B EQ PUSH2 0x16D JUMPI DUP1 PUSH4 0xA9B1DAC3 EQ PUSH2 0x18D JUMPI DUP1 PUSH4 0xC2C56245 EQ PUSH2 0x1AD JUMPI DUP1 PUSH4 0xCB392747 EQ PUSH2 0x1CD JUMPI PUSH1 0x0 DUP1 REVERT JUMPDEST DUP1 PUSH4 0x155DD5EE EQ PUSH2 0x96 JUMPI DUP1 PUSH4 0x29643021 EQ PUSH2 0xCB JUMPI DUP1 PUSH4 0x3015394C EQ PUSH2 0xEC JUMPI DUP1 PUSH4 0x886EB81D EQ PUSH2 0x10E JUMPI DUP1 PUSH4 0x8D68CF59 EQ PUSH2 0x10C JUMPI JUMPDEST PUSH1 0x0 DUP1 REVERT JUMPDEST CALLVALUE DUP1 ISZERO PUSH2 0xA2 JUMPI PUSH1 0x0 DUP1 REVERT JUMPDEST POP PUSH2 0xB6 PUSH2 0xB1 CALLDATASIZE PUSH1 0x4 PUSH2 0x8BD JUMP JUMPDEST PUSH2 0x1ED JUMP JUMPDEST PUSH1 0x40 MLOAD SWAP1 ISZERO ISZERO DUP2 MSTORE PUSH1 0x20 ADD JUMPDEST PUSH1 0x40 MLOAD DUP1 SWAP2 SUB SWAP1 RETURN JUMPDEST PUSH2 0xDE PUSH2 0xD9 CALLDATASIZE PUSH1 0x4 PUSH2 0x8EE JUMP JUMPDEST PUSH2 0x295 JUMP JUMPDEST PUSH1 0x40 MLOAD SWAP1 DUP2 MSTORE PUSH1 0x20 ADD PUSH2 0xC2 JUMP JUMPDEST CALLVALUE DUP1 ISZERO PUSH2 0xF8 JUMPI PUSH1 0x0 DUP1 REVERT JUMPDEST POP PUSH2 0x10C PUSH2 0x107 CALLDATASIZE PUSH1 0x4 PUSH2 0x8BD JUMP JUMPDEST PUSH2 0x3AA JUMP JUMPDEST STOP JUMPDEST CALLVALUE DUP1 ISZERO PUSH2 0x11A JUMPI PUSH1 0x0 DUP1 REVERT JUMPDEST POP PUSH2 0x12E PUSH2 0x129 CALLDATASIZE PUSH1 0x4 PUSH2 0x8BD JUMP JUMPDEST PUSH2 0x435 JUMP JUMPDEST PUSH1 0x40 MLOAD PUSH2 0xC2 SWAP2 SWAP1 PUSH2 0x996 JUMP JUMPDEST CALLVALUE DUP1 ISZERO PUSH2 0x147 JUMPI PUSH1 0x0 DUP1 REVERT JUMPDEST POP PUSH1 0x0 SLOAD PUSH1 0x1 PUSH1 0x1 PUSH1 0xA0 SHL SUB AND JUMPDEST PUSH1 0x40 MLOAD PUSH1 0x1 PUSH1 0x1 PUSH1 0xA0 SHL SUB SWAP1 SWAP2 AND DUP2 MSTORE PUSH1 0x20 ADD PUSH2 0xC2 JUMP JUMPDEST CALLVALUE DUP1 ISZERO PUSH2 0x179 JUMPI PUSH1 0x0 DUP1 REVERT JUMPDEST POP PUSH1 0x0 SLOAD PUSH1 0x1 PUSH1 0x1 PUSH1 0xA0 SHL SUB AND CALLER EQ PUSH2 0xB6 JUMP JUMPDEST CALLVALUE DUP1 ISZERO PUSH2 0x199 JUMPI PUSH1 0x0 DUP1 REVERT JUMPDEST POP PUSH2 0x12E PUSH2 0x1A8 CALLDATASIZE PUSH1 0x4 PUSH2 0x9B0 JUMP JUMPDEST PUSH2 0x500 JUMP JUMPDEST CALLVALUE DUP1 ISZERO PUSH2 0x1B9 JUMPI PUSH1 0x0 DUP1 REVERT JUMPDEST POP PUSH1 0x1 SLOAD PUSH2 0x155 SWAP1 PUSH1 0x1 PUSH1 0x1 PUSH1 0xA0 SHL SUB AND DUP2 JUMP JUMPDEST CALLVALUE DUP1 ISZERO PUSH2 0x1D9 JUMPI PUSH1 0x0 DUP1 REVERT JUMPDEST POP PUSH2 0x10C PUSH2 0x1E8 CALLDATASIZE PUSH1 0x4 PUSH2 0x9ED JUMP JUMPDEST PUSH2 0x61B JUMP JUMPDEST PUSH1 0x0 DUP1 SLOAD PUSH1 0x1 PUSH1 0x1 PUSH1 0xA0 SHL SUB AND CALLER EQ PUSH2 0x221 JUMPI PUSH1 0x40 MLOAD PUSH3 0x461BCD PUSH1 0xE5 SHL DUP2 MSTORE PUSH1 0x4 ADD PUSH2 0x218 SWAP1 PUSH2 0xA5F JUMP JUMPDEST PUSH1 0x40 MLOAD DUP1 SWAP2 SUB SWAP1 REVERT JUMPDEST DUP2 SELFBALANCE LT ISZERO PUSH2 0x241 JUMPI PUSH1 0x40 MLOAD PUSH3 0x461BCD PUSH1 0xE5 SHL DUP2 MSTORE PUSH1 0x4 ADD PUSH2 0x218 SWAP1 PUSH2 0xAA4 JUMP JUMPDEST PUSH1 0x40 MLOAD CALLER SWAP1 PUSH1 0x0 SWAP1 DUP3 SWAP1 DUP6 SWAP1 DUP4 DUP2 DUP2 DUP2 DUP6 DUP8 GAS CALL SWAP3 POP POP POP RETURNDATASIZE DUP1 PUSH1 0x0 DUP2 EQ PUSH2 0x285 JUMPI PUSH1 0x40 MLOAD SWAP2 POP PUSH1 0x1F NOT PUSH1 0x3F RETURNDATASIZE ADD AND DUP3 ADD PUSH1 0x40 MSTORE RETURNDATASIZE DUP3 MSTORE RETURNDATASIZE PUSH1 0x0 PUSH1 0x20 DUP5 ADD RETURNDATACOPY PUSH2 0x28A JUMP JUMPDEST PUSH1 0x60 SWAP2 POP JUMPDEST POP SWAP1 SWAP6 SWAP5 POP POP POP POP POP JUMP JUMPDEST PUSH1 0x0 DUP1 SLOAD PUSH1 0x1 PUSH1 0x1 PUSH1 0xA0 SHL SUB AND CALLER EQ PUSH2 0x2C0 JUMPI PUSH1 0x40 MLOAD PUSH3 0x461BCD PUSH1 0xE5 SHL DUP2 MSTORE PUSH1 0x4 ADD PUSH2 0x218 SWAP1 PUSH2 0xA5F JUMP JUMPDEST PUSH2 0x2CA SELFBALANCE CALLVALUE PUSH2 0xAE6 JUMP JUMPDEST DUP7 GT ISZERO PUSH2 0x2E9 JUMPI PUSH1 0x40 MLOAD PUSH3 0x461BCD PUSH1 0xE5 SHL DUP2 MSTORE PUSH1 0x4 ADD PUSH2 0x218 SWAP1 PUSH2 0xAA4 JUMP JUMPDEST PUSH1 0x1 SLOAD PUSH1 0x40 MLOAD PUSH4 0x36403E4D PUSH1 0xE2 SHL DUP2 MSTORE PUSH1 0x0 SWAP2 PUSH1 0x1 PUSH1 0x1 PUSH1 0xA0 SHL SUB AND SWAP1 PUSH4 0xD900F934 SWAP1 DUP10 SWAP1 PUSH2 0x322 SWAP1 DUP11 SWAP1 DUP11 SWAP1 DUP11 SWAP1 DUP11 SWAP1 PUSH1 0x4 ADD PUSH2 0xAF9 JUMP JUMPDEST PUSH1 0x20 PUSH1 0x40 MLOAD DUP1 DUP4 SUB DUP2 DUP6 DUP9 GAS CALL ISZERO DUP1 ISZERO PUSH2 0x340 JUMPI RETURNDATASIZE PUSH1 0x0 DUP1 RETURNDATACOPY RETURNDATASIZE PUSH1 0x0 REVERT JUMPDEST POP POP POP POP POP PUSH1 0x40 MLOAD RETURNDATASIZE PUSH1 0x1F NOT PUSH1 0x1F DUP3 ADD AND DUP3 ADD DUP1 PUSH1 0x40 MSTORE POP DUP2 ADD SWAP1 PUSH2 0x365 SWAP2 SWAP1 PUSH2 0xB92 JUMP JUMPDEST SWAP1 POP PUSH32 0xD3B0B0209035A5613265E8FB1F38873EA24C7C6189B128EEBE3689C03D13905C DUP2 PUSH1 0x40 MLOAD PUSH2 0x398 SWAP2 DUP2 MSTORE PUSH1 0x20 ADD SWAP1 JUMP JUMPDEST PUSH1 0x40 MLOAD DUP1 SWAP2 SUB SWAP1 LOG1 SWAP7 SWAP6 POP POP POP POP POP POP JUMP JUMPDEST PUSH1 0x0 SLOAD PUSH1 0x1 PUSH1 0x1 PUSH1 0xA0 SHL SUB AND CALLER EQ PUSH2 0x3D4 JUMPI PUSH1 0x40 MLOAD PUSH3 0x461BCD PUSH1 0xE5 SHL DUP2 MSTORE PUSH1 0x4 ADD PUSH2 0x218 SWAP1 PUSH2 0xA5F JUMP JUMPDEST PUSH1 0x1 SLOAD PUSH1 0x40 MLOAD PUSH4 0xC054E53 PUSH1 0xE2 SHL DUP2 MSTORE PUSH1 0x4 DUP2 ADD DUP4 SWAP1 MSTORE PUSH1 0x1 PUSH1 0x1 PUSH1 0xA0 SHL SUB SWAP1 SWAP2 AND SWAP1 PUSH4 0x3015394C SWAP1 PUSH1 0x24 ADD PUSH1 0x0 PUSH1 0x40 MLOAD DUP1 DUP4 SUB DUP2 PUSH1 0x0 DUP8 DUP1 EXTCODESIZE ISZERO DUP1 ISZERO PUSH2 0x41A JUMPI PUSH1 0x0 DUP1 REVERT JUMPDEST POP GAS CALL ISZERO DUP1 ISZERO PUSH2 0x42E JUMPI RETURNDATASIZE PUSH1 0x0 DUP1 RETURNDATACOPY RETURNDATASIZE PUSH1 0x0 REVERT JUMPDEST POP POP POP POP POP JUMP JUMPDEST PUSH1 0x60 DUP2 PUSH1 0x1 SUB PUSH2 0x46A JUMPI POP POP PUSH1 0x40 DUP1 MLOAD DUP1 DUP3 ADD SWAP1 SWAP2 MSTORE PUSH1 0xF DUP2 MSTORE PUSH15 0x7B75696E7420636F756E7465723B7D PUSH1 0x88 SHL PUSH1 0x20 DUP3 ADD MSTORE SWAP1 JUMP JUMPDEST DUP2 PUSH1 0x2 SUB PUSH2 0x49D JUMPI POP POP PUSH1 0x40 DUP1 MLOAD DUP1 DUP3 ADD SWAP1 SWAP2 MSTORE PUSH1 0xF DUP2 MSTORE PUSH15 0x7B75696E7420636F756E7465723B7D PUSH1 0x88 SHL PUSH1 0x20 DUP3 ADD MSTORE SWAP1 JUMP JUMPDEST DUP2 PUSH1 0x3 SUB PUSH2 0x4D0 JUMPI POP POP PUSH1 0x40 DUP1 MLOAD DUP1 DUP3 ADD SWAP1 SWAP2 MSTORE PUSH1 0xF DUP2 MSTORE PUSH15 0x7B75696E7420636F756E7465723B7D PUSH1 0x88 SHL PUSH1 0x20 DUP3 ADD MSTORE SWAP1 JUMP JUMPDEST POP POP PUSH1 0x40 DUP1 MLOAD DUP1 DUP3 ADD SWAP1 SWAP2 MSTORE PUSH1 0x14 DUP2 MSTORE PUSH20 0x125B99185D9A5B1908199D5B98DD1A5BDB881251 PUSH1 0x62 SHL PUSH1 0x20 DUP3 ADD MSTORE SWAP1 JUMP JUMPDEST PUSH1 0x40 DUP1 MLOAD PUSH1 0x20 DUP2 ADD SWAP1 SWAP2 MSTORE PUSH1 0x0 DUP2 MSTORE PUSH1 0x60 SWAP1 DUP3 CALLDATALOAD PUSH1 0x1 SUB PUSH2 0x56C JUMPI PUSH2 0x565 PUSH2 0x52B PUSH1 0x20 DUP6 ADD DUP6 PUSH2 0xBAB JUMP JUMPDEST DUP1 DUP1 PUSH1 0x1F ADD PUSH1 0x20 DUP1 SWAP2 DIV MUL PUSH1 0x20 ADD PUSH1 0x40 MLOAD SWAP1 DUP2 ADD PUSH1 0x40 MSTORE DUP1 SWAP4 SWAP3 SWAP2 SWAP1 DUP2 DUP2 MSTORE PUSH1 0x20 ADD DUP4 DUP4 DUP1 DUP3 DUP5 CALLDATACOPY PUSH1 0x0 SWAP3 ADD SWAP2 SWAP1 SWAP2 MSTORE POP PUSH2 0x81C SWAP3 POP POP POP JUMP JUMPDEST SWAP1 POP PUSH2 0x615 JUMP JUMPDEST DUP3 CALLDATALOAD PUSH1 0x2 SUB PUSH2 0x5BF JUMPI PUSH2 0x565 PUSH2 0x585 PUSH1 0x20 DUP6 ADD DUP6 PUSH2 0xBAB JUMP JUMPDEST DUP1 DUP1 PUSH1 0x1F ADD PUSH1 0x20 DUP1 SWAP2 DIV MUL PUSH1 0x20 ADD PUSH1 0x40 MLOAD SWAP1 DUP2 ADD PUSH1 0x40 MSTORE DUP1 SWAP4 SWAP3 SWAP2 SWAP1 DUP2 DUP2 MSTORE PUSH1 0x20 ADD DUP4 DUP4 DUP1 DUP3 DUP5 CALLDATACOPY PUSH1 0x0 SWAP3 ADD SWAP2 SWAP1 SWAP2 MSTORE POP PUSH2 0x86D SWAP3 POP POP POP JUMP JUMPDEST DUP3 CALLDATALOAD PUSH1 0x3 SUB PUSH2 0x615 JUMPI PUSH2 0x612 PUSH2 0x5D8 PUSH1 0x20 DUP6 ADD DUP6 PUSH2 0xBAB JUMP JUMPDEST DUP1 DUP1 PUSH1 0x1F ADD PUSH1 0x20 DUP1 SWAP2 DIV MUL PUSH1 0x20 ADD PUSH1 0x40 MLOAD SWAP1 DUP2 ADD PUSH1 0x40 MSTORE DUP1 SWAP4 SWAP3 SWAP2 SWAP1 DUP2 DUP2 MSTORE PUSH1 0x20 ADD DUP4 DUP4 DUP1 DUP3 DUP5 CALLDATACOPY PUSH1 0x0 SWAP3 ADD SWAP2 SWAP1 SWAP2 MSTORE POP PUSH2 0x895 SWAP3 POP POP POP JUMP JUMPDEST SWAP1 POP JUMPDEST SWAP3 SWAP2 POP POP JUMP JUMPDEST PUSH1 0x1 SLOAD PUSH1 0x1 PUSH1 0x1 PUSH1 0xA0 SHL SUB AND CALLER EQ PUSH2 0x692 JUMPI PUSH1 0x40 MLOAD PUSH3 0x461BCD PUSH1 0xE5 SHL DUP2 MSTORE PUSH1 0x20 PUSH1 0x4 DUP3 ADD MSTORE PUSH1 0x34 PUSH1 0x24 DUP3 ADD MSTORE PUSH32 0x43616E206F6E6C792062652063616C6C65642062792074686520726567697374 PUSH1 0x44 DUP3 ADD MSTORE PUSH20 0x195C995908189C9BDAD95C8818DBDB9D1C9858DD PUSH1 0x62 SHL PUSH1 0x64 DUP3 ADD MSTORE PUSH1 0x84 ADD PUSH2 0x218 JUMP JUMPDEST PUSH5 0xE8D4A51000 SELFBALANCE LT ISZERO PUSH2 0x6B7 JUMPI PUSH1 0x40 MLOAD PUSH3 0x461BCD PUSH1 0xE5 SHL DUP2 MSTORE PUSH1 0x4 ADD PUSH2 0x218 SWAP1 PUSH2 0xAA4 JUMP JUMPDEST PUSH1 0x0 DUP1 PUSH2 0x6C6 DUP4 DUP6 ADD DUP6 PUSH2 0x8BD JUMP JUMPDEST SWAP1 POP PUSH1 0x64 DUP2 LT ISZERO PUSH2 0x718 JUMPI PUSH2 0x6DC PUSH1 0xA DUP3 PUSH2 0xC0F JUMP JUMPDEST PUSH1 0x0 SUB PUSH2 0x713 JUMPI PUSH1 0x2 PUSH2 0x6F0 PUSH1 0xA DUP4 PUSH2 0xC23 JUMP JUMPDEST PUSH2 0x6FA SWAP2 SWAP1 PUSH2 0xC0F JUMP JUMPDEST PUSH1 0x0 SUB PUSH2 0x70A JUMPI PUSH1 0x2 SWAP2 POP PUSH2 0x718 JUMP JUMPDEST PUSH1 0x3 SWAP2 POP PUSH2 0x718 JUMP JUMPDEST PUSH1 0x1 SWAP2 POP JUMPDEST PUSH1 0x0 PUSH1 0x40 MLOAD DUP1 PUSH1 0x40 ADD PUSH1 0x40 MSTORE DUP1 DUP5 DUP2 MSTORE PUSH1 0x20 ADD DUP4 PUSH1 0x40 MLOAD PUSH1 0x20 ADD PUSH2 0x73E SWAP2 DUP2 MSTORE PUSH1 0x20 ADD SWAP1 JUMP JUMPDEST PUSH1 0x40 DUP1 MLOAD PUSH1 0x1F NOT DUP2 DUP5 SUB ADD DUP2 MSTORE SWAP2 DUP2 MSTORE SWAP2 MSTORE PUSH1 0x1 SLOAD SWAP1 MLOAD PUSH4 0x36403E4D PUSH1 0xE2 SHL DUP2 MSTORE SWAP2 SWAP3 POP PUSH1 0x0 SWAP2 PUSH1 0x1 PUSH1 0x1 PUSH1 0xA0 SHL SUB SWAP1 SWAP2 AND SWAP1 PUSH4 0xD900F934 SWAP1 PUSH5 0xE8D4A51000 SWAP1 PUSH2 0x796 SWAP1 DUP7 SWAP1 PUSH3 0x30D40 SWAP1 DUP5 SWAP1 PUSH1 0x3C SWAP1 PUSH1 0x4 ADD PUSH2 0xC37 JUMP JUMPDEST PUSH1 0x20 PUSH1 0x40 MLOAD DUP1 DUP4 SUB DUP2 DUP6 DUP9 GAS CALL ISZERO DUP1 ISZERO PUSH2 0x7B4 JUMPI RETURNDATASIZE PUSH1 0x0 DUP1 RETURNDATACOPY RETURNDATASIZE PUSH1 0x0 REVERT JUMPDEST POP POP POP POP POP PUSH1 0x40 MLOAD RETURNDATASIZE PUSH1 0x1F NOT PUSH1 0x1F DUP3 ADD AND DUP3 ADD DUP1 PUSH1 0x40 MSTORE POP DUP2 ADD SWAP1 PUSH2 0x7D9 SWAP2 SWAP1 PUSH2 0xB92 JUMP JUMPDEST SWAP1 POP PUSH32 0xD3B0B0209035A5613265E8FB1F38873EA24C7C6189B128EEBE3689C03D13905C DUP2 PUSH1 0x40 MLOAD PUSH2 0x80C SWAP2 DUP2 MSTORE PUSH1 0x20 ADD SWAP1 JUMP JUMPDEST PUSH1 0x40 MLOAD DUP1 SWAP2 SUB SWAP1 LOG1 POP POP POP POP POP POP JUMP JUMPDEST PUSH1 0x60 PUSH1 0x0 DUP3 DUP1 PUSH1 0x20 ADD SWAP1 MLOAD DUP2 ADD SWAP1 PUSH2 0x834 SWAP2 SWAP1 PUSH2 0xCCA JUMP JUMPDEST DUP1 MLOAD SWAP1 SWAP2 POP PUSH2 0x844 SWAP1 PUSH1 0xA PUSH2 0xCE6 JUMP JUMPDEST PUSH1 0x40 MLOAD PUSH1 0x20 ADD PUSH2 0x856 SWAP2 DUP2 MSTORE PUSH1 0x20 ADD SWAP1 JUMP JUMPDEST PUSH1 0x40 MLOAD PUSH1 0x20 DUP2 DUP4 SUB SUB DUP2 MSTORE SWAP1 PUSH1 0x40 MSTORE SWAP2 POP POP SWAP2 SWAP1 POP JUMP JUMPDEST PUSH1 0x60 PUSH1 0x0 DUP3 DUP1 PUSH1 0x20 ADD SWAP1 MLOAD DUP2 ADD SWAP1 PUSH2 0x885 SWAP2 SWAP1 PUSH2 0xCCA JUMP JUMPDEST DUP1 MLOAD SWAP1 SWAP2 POP PUSH2 0x844 SWAP1 PUSH1 0x7 PUSH2 0xAE6 JUMP JUMPDEST PUSH1 0x60 PUSH1 0x0 DUP3 DUP1 PUSH1 0x20 ADD SWAP1 MLOAD DUP2 ADD SWAP1 PUSH2 0x8AD SWAP2 SWAP1 PUSH2 0xCCA JUMP JUMPDEST DUP1 MLOAD SWAP1 SWAP2 POP PUSH2 0x844 SWAP1 PUSH1 0x4 PUSH2 0xAE6 JUMP JUMPDEST PUSH1 0x0 PUSH1 0x20 DUP3 DUP5 SUB SLT ISZERO PUSH2 0x8CF JUMPI PUSH1 0x0 DUP1 REVERT JUMPDEST POP CALLDATALOAD SWAP2 SWAP1 POP JUMP JUMPDEST PUSH1 0x0 PUSH1 0x40 DUP3 DUP5 SUB SLT ISZERO PUSH2 0x8E8 JUMPI PUSH1 0x0 DUP1 REVERT JUMPDEST POP SWAP2 SWAP1 POP JUMP JUMPDEST PUSH1 0x0 DUP1 PUSH1 0x0 DUP1 PUSH1 0x0 PUSH1 0xA0 DUP7 DUP9 SUB SLT ISZERO PUSH2 0x906 JUMPI PUSH1 0x0 DUP1 REVERT JUMPDEST DUP6 CALLDATALOAD SWAP5 POP PUSH1 0x20 DUP7 ADD CALLDATALOAD PUSH8 0xFFFFFFFFFFFFFFFF DUP2 GT ISZERO PUSH2 0x924 JUMPI PUSH1 0x0 DUP1 REVERT JUMPDEST PUSH2 0x930 DUP9 DUP3 DUP10 ADD PUSH2 0x8D6 JUMP JUMPDEST SWAP6 SWAP9 SWAP6 SWAP8 POP POP POP POP PUSH1 0x40 DUP5 ADD CALLDATALOAD SWAP4 PUSH1 0x60 DUP2 ADD CALLDATALOAD SWAP4 PUSH1 0x80 SWAP1 SWAP2 ADD CALLDATALOAD SWAP3 POP SWAP1 POP JUMP JUMPDEST PUSH1 0x0 DUP2 MLOAD DUP1 DUP5 MSTORE PUSH1 0x0 JUMPDEST DUP2 DUP2 LT ISZERO PUSH2 0x976 JUMPI PUSH1 0x20 DUP2 DUP6 ADD DUP2 ADD MLOAD DUP7 DUP4 ADD DUP3 ADD MSTORE ADD PUSH2 0x95A JUMP JUMPDEST POP PUSH1 0x0 PUSH1 0x20 DUP3 DUP7 ADD ADD MSTORE PUSH1 0x20 PUSH1 0x1F NOT PUSH1 0x1F DUP4 ADD AND DUP6 ADD ADD SWAP2 POP POP SWAP3 SWAP2 POP POP JUMP JUMPDEST PUSH1 0x20 DUP2 MSTORE PUSH1 0x0 PUSH2 0x9A9 PUSH1 0x20 DUP4 ADD DUP5 PUSH2 0x950 JUMP JUMPDEST SWAP4 SWAP3 POP POP POP JUMP JUMPDEST PUSH1 0x0 PUSH1 0x20 DUP3 DUP5 SUB SLT ISZERO PUSH2 0x9C2 JUMPI PUSH1 0x0 DUP1 REVERT JUMPDEST DUP2 CALLDATALOAD PUSH8 0xFFFFFFFFFFFFFFFF DUP2 GT ISZERO PUSH2 0x9D9 JUMPI PUSH1 0x0 DUP1 REVERT JUMPDEST PUSH2 0x9E5 DUP5 DUP3 DUP6 ADD PUSH2 0x8D6 JUMP JUMPDEST SWAP5 SWAP4 POP POP POP POP JUMP JUMPDEST PUSH1 0x0 DUP1 PUSH1 0x20 DUP4 DUP6 SUB SLT ISZERO PUSH2 0xA00 JUMPI PUSH1 0x0 DUP1 REVERT JUMPDEST DUP3 CALLDATALOAD PUSH8 0xFFFFFFFFFFFFFFFF DUP1 DUP3 GT ISZERO PUSH2 0xA18 JUMPI PUSH1 0x0 DUP1 REVERT JUMPDEST DUP2 DUP6 ADD SWAP2 POP DUP6 PUSH1 0x1F DUP4 ADD SLT PUSH2 0xA2C JUMPI PUSH1 0x0 DUP1 REVERT JUMPDEST DUP2 CALLDATALOAD DUP2 DUP2 GT ISZERO PUSH2 0xA3B JUMPI PUSH1 0x0 DUP1 REVERT JUMPDEST DUP7 PUSH1 0x20 DUP3 DUP6 ADD ADD GT ISZERO PUSH2 0xA4D JUMPI PUSH1 0x0 DUP1 REVERT JUMPDEST PUSH1 0x20 SWAP3 SWAP1 SWAP3 ADD SWAP7 SWAP2 SWAP6 POP SWAP1 SWAP4 POP POP POP POP JUMP JUMPDEST PUSH1 0x20 DUP1 DUP3 MSTORE PUSH1 0x25 SWAP1 DUP3 ADD MSTORE PUSH32 0x46756E6374696F6E2061636365737369626C65206F6E6C792062792074686520 PUSH1 0x40 DUP3 ADD MSTORE PUSH5 0x37BBB732B9 PUSH1 0xD9 SHL PUSH1 0x60 DUP3 ADD MSTORE PUSH1 0x80 ADD SWAP1 JUMP JUMPDEST PUSH1 0x20 DUP1 DUP3 MSTORE PUSH1 0x12 SWAP1 DUP3 ADD MSTORE PUSH18 0x496E73756666696369656E742066756E6473 PUSH1 0x70 SHL PUSH1 0x40 DUP3 ADD MSTORE PUSH1 0x60 ADD SWAP1 JUMP JUMPDEST PUSH4 0x4E487B71 PUSH1 0xE0 SHL PUSH1 0x0 MSTORE PUSH1 0x11 PUSH1 0x4 MSTORE PUSH1 0x24 PUSH1 0x0 REVERT JUMPDEST DUP1 DUP3 ADD DUP1 DUP3 GT ISZERO PUSH2 0x615 JUMPI PUSH2 0x615 PUSH2 0xAD0 JUMP JUMPDEST PUSH1 0x80 DUP2 MSTORE DUP5 CALLDATALOAD PUSH1 0x80 DUP3 ADD MSTORE PUSH1 0x0 PUSH1 0x20 DUP7 ADD CALLDATALOAD PUSH1 0x1E NOT DUP8 CALLDATASIZE SUB ADD DUP2 SLT PUSH2 0xB1D JUMPI PUSH1 0x0 DUP1 REVERT JUMPDEST DUP7 ADD PUSH1 0x20 DUP2 ADD SWAP1 CALLDATALOAD PUSH8 0xFFFFFFFFFFFFFFFF DUP2 GT ISZERO PUSH2 0xB3A JUMPI PUSH1 0x0 DUP1 REVERT JUMPDEST DUP1 CALLDATASIZE SUB DUP3 SGT ISZERO PUSH2 0xB49 JUMPI PUSH1 0x0 DUP1 REVERT JUMPDEST PUSH1 0x40 PUSH1 0xA0 DUP6 ADD MSTORE DUP1 PUSH1 0xC0 DUP6 ADD MSTORE DUP1 DUP3 PUSH1 0xE0 DUP7 ADD CALLDATACOPY PUSH1 0x0 PUSH1 0xE0 DUP3 DUP7 ADD ADD MSTORE PUSH1 0xE0 PUSH1 0x1F NOT PUSH1 0x1F DUP4 ADD AND DUP6 ADD ADD SWAP3 POP POP POP DUP5 PUSH1 0x20 DUP4 ADD MSTORE DUP4 PUSH1 0x40 DUP4 ADD MSTORE DUP3 PUSH1 0x60 DUP4 ADD MSTORE SWAP6 SWAP5 POP POP POP POP POP JUMP JUMPDEST PUSH1 0x0 PUSH1 0x20 DUP3 DUP5 SUB SLT ISZERO PUSH2 0xBA4 JUMPI PUSH1 0x0 DUP1 REVERT JUMPDEST POP MLOAD SWAP2 SWAP1 POP JUMP JUMPDEST PUSH1 0x0 DUP1 DUP4 CALLDATALOAD PUSH1 0x1E NOT DUP5 CALLDATASIZE SUB ADD DUP2 SLT PUSH2 0xBC2 JUMPI PUSH1 0x0 DUP1 REVERT JUMPDEST DUP4 ADD DUP1 CALLDATALOAD SWAP2 POP PUSH8 0xFFFFFFFFFFFFFFFF DUP3 GT ISZERO PUSH2 0xBDD JUMPI PUSH1 0x0 DUP1 REVERT JUMPDEST PUSH1 0x20 ADD SWAP2 POP CALLDATASIZE DUP2 SWAP1 SUB DUP3 SGT ISZERO PUSH2 0xBF2 JUMPI PUSH1 0x0 DUP1 REVERT JUMPDEST SWAP3 POP SWAP3 SWAP1 POP JUMP JUMPDEST PUSH4 0x4E487B71 PUSH1 0xE0 SHL PUSH1 0x0 MSTORE PUSH1 0x12 PUSH1 0x4 MSTORE PUSH1 0x24 PUSH1 0x0 REVERT JUMPDEST PUSH1 0x0 DUP3 PUSH2 0xC1E JUMPI PUSH2 0xC1E PUSH2 0xBF9 JUMP JUMPDEST POP MOD SWAP1 JUMP JUMPDEST PUSH1 0x0 DUP3 PUSH2 0xC32 JUMPI PUSH2 0xC32 PUSH2 0xBF9 JUMP JUMPDEST POP DIV SWAP1 JUMP JUMPDEST PUSH1 0x80 DUP2 MSTORE DUP5 MLOAD PUSH1 0x80 DUP3 ADD MSTORE PUSH1 0x0 PUSH1 0x20 DUP7 ADD MLOAD PUSH1 0x40 PUSH1 0xA0 DUP5 ADD MSTORE PUSH2 0xC5D PUSH1 0xC0 DUP5 ADD DUP3 PUSH2 0x950 JUMP JUMPDEST PUSH1 0x20 DUP5 ADD SWAP7 SWAP1 SWAP7 MSTORE POP POP PUSH1 0x40 DUP2 ADD SWAP3 SWAP1 SWAP3 MSTORE PUSH1 0x60 SWAP1 SWAP2 ADD MSTORE SWAP2 SWAP1 POP JUMP JUMPDEST PUSH1 0x0 PUSH1 0x20 DUP3 DUP5 SUB SLT ISZERO PUSH2 0xC8C JUMPI PUSH1 0x0 DUP1 REVERT JUMPDEST PUSH1 0x40 MLOAD PUSH1 0x20 DUP2 ADD DUP2 DUP2 LT PUSH8 0xFFFFFFFFFFFFFFFF DUP3 GT OR ISZERO PUSH2 0xCBD JUMPI PUSH4 0x4E487B71 PUSH1 0xE0 SHL PUSH1 0x0 MSTORE PUSH1 0x41 PUSH1 0x4 MSTORE PUSH1 0x24 PUSH1 0x0 REVERT JUMPDEST PUSH1 0x40 MSTORE SWAP2 MLOAD DUP3 MSTORE POP SWAP2 SWAP1 POP JUMP JUMPDEST PUSH1 0x0 PUSH1 0x20 DUP3 DUP5 SUB SLT ISZERO PUSH2 0xCDC JUMPI PUSH1 0x0 DUP1 REVERT JUMPDEST PUSH2 0x9A9 DUP4 DUP4 PUSH2 0xC7A JUMP JUMPDEST DUP1 DUP3 MUL DUP2 ISZERO DUP3 DUP3 DIV DUP5 EQ OR PUSH2 0x615 JUMPI PUSH2 0x615 PUSH2 0xAD0 JUMP INVALID LOG2 PUSH5 0x6970667358 0x22 SLT KECCAK256 SELFDESTRUCT DUP16 RETURNDATASIZE 0xE2 0x1F 0xE0 MSIZE SWAP8 OR 0x2F PUSH8 0xB51323F0C558CF40 EXTCODECOPY STATICCALL 0xA6 0xD6 0xB7 0xD4 SLT LOG3 0xE9 XOR 0x26 0xE2 SWAP2 PUSH5 0x736F6C6343 STOP ADDMOD GT STOP CALLER ","sha1":"25ae1b19b820d3fde132afe74c758ee54cf9eb7f","source":"// SPDX-License-Identifier: GPL-3.0\n\npragma solidity >=0.7.0 <0.9.0;\n\nimport \"./BaseClient.sol\";\n\n\ncontract ClientImplementation is BaseClient {\n\n    constructor(address brokerAddress) BaseClient(brokerAddress) {}\n\n    function clientLogic(ClientInput calldata input) external override pure returns (bytes memory) {\n        bytes memory output = \"\";\n        if (input.functionToRun == 1) { output = functionOne(input.data); }\n        else if (input.functionToRun == 2) { output = functionTwo(input.data); }\n        else if (input.functionToRun == 3) { output = functionThree(input.data); }\n        return output;\n    }\n\n    struct OneInput {uint counter;}\n    function functionOne(bytes memory data) private pure returns (bytes memory) {\n        OneInput memory input = abi.decode(data, (OneInput));\n        return abi.encode(input.counter * 10);\n    }\n\n    struct TwoInput {uint counter;}\n    function functionTwo(bytes memory data) private pure returns (bytes memory) {\n        TwoInput memory input = abi.decode(data, (TwoInput));\n        return abi.encode(input.counter + 7);\n    }\n\n    struct ThreeInput {uint counter;}\n    function functionThree(bytes memory data) private pure returns (bytes memory) {\n        ThreeInput memory input = abi.decode(data, (ThreeInput));\n        return abi.encode(input.counter + 4);\n    }\n\n    function getInputStructure(uint functionID) external override pure returns (string memory) {\n        if (functionID == 1) { return \"{uint counter;}\"; }\n        else if (functionID == 2) { return \"{uint counter;}\"; }\n        else if (functionID == 3) { return \"{uint counter;}\"; }\n        else { return \"Indavild function ID\"; }\n    }\n\n    function processResult(bytes calldata result) external onlyBroker override {\n        require(address(this).balance >= 1000 gwei, \"Insufficient funds\");\n        uint functionToRun;\n        uint counter = abi.decode(result, (uint));\n        if (counter < 100) {\n            if (counter % 10 == 0) {\n                if ((counter/10) % 2 == 0) {\n                    functionToRun = 2;\n                } else {\n                    functionToRun = 3;\n                }\n            } else {\n                functionToRun = 1;\n            }\n        }\n        ClientInput memory input = ClientInput({\n            functionToRun: functionToRun,\n            data: abi.encode(counter)\n        });\n        uint requestID = brokerContract.submitRequest{value: 1000 gwei}(input, 200000 wei, 1000 gwei, 1 minutes);\n        emit requestSubmitted(requestID);\n    }\n}","sourcePath":"contracts/ClientImplementation.sol","type":"contract","deployment":{"address":"0x1fcCfAeEea141eb414599f48F874D1e1264258FA","chainid":"5777","blockHeight":510}}